S0120000342E53656D65737465722E7372656368
S113000066C1000085C1000083C1000081C10000F9
S11300107FC100007DC100007BC1000079C10000E8
S113002077C1000075C1000073C1000071C10000F8
S113003092C700006DC100006BC1000069C10000DF
S113004067C1000065C1000063C1000061C1000018
S11300505FC100005DC100005BC1000059C1000028
S113006057C100000C94EB270C943D2851C10000AB
S11300704FC100004DC100004BC1000049C1000048
S113008047C1000045C1000043C1000041C1000058
S11300900C9481280C94D3283BC100000C941F2D90
S11300A037C1000035C1000033C1000031C1000078
S11300B02FC100002DC100002BC1000029C1000088
S11300C027C1000025C1000023C100000C9417299A
S11300D00C9469291DC100000C94AD290C94FF29CE
S11300E017C10000851D851D851DBC1DC41DD91D9E
S11300F0851D851DBC1DC41D412DB12DB12DB12DF6
S1130100B12DB12DB12DB12D412DB12DB12DB12D6B
S1130110B12DB12DB12DB12D432DB12DB12DB12D59
S1130120B12DB12DB12DB12DB12DB12DB12DB12DDB
S1130130B12DB12DB12DB12D432DB12DB12DB12D39
S1130140B12DB12DB12DB12DB12DB12DB12DB12DBB
S1130150B12DB12DB12DB12DAD2DB12DB12DB12DAF
S1130160B12DB12DB12DB12D782DB12DB12DB12DD4
S1130170B12DB12DB12DB12DB12DB12DB12DB12D8B
S1130180B12DB12DB12DB12D6C2DB12DB12DB12DC0
S1130190B12DB12DB12DB12D902D6E616E00696E12
S11301A0660000407A10F35A00A0724E180900103D
S11301B0A5D4E80000E87648170000E40B540200D8
S11301C000CA9A3B000000E1F50500008096980003
S11301D0000040420F000000A0860100000010272C
S11301E000000000E80300000000640000000000BC
S11301F00A00000000000100000000002C76D888EE
S1130200DC674F0823DFC1DFAE59E1B1B796E5E300
S1130210E453C63AE651997696E8E6C28426EB8919
S11302208C9B62ED407C6FFCEFBC9C9F40F2BAA5B6
S11302306FA5F490055A2AF75C936B6CF9676DC14E
S11302401BFCE0E40D47FEF520E6B500D0ED902E52
S11302500300943577050080841E080000204E0AB0
S1130260000000C80C333333330F986E12831141EE
S1130270EF8D2114893BE65516CFFEE6DB18D184B9
S11302804B381BF77C1D901DA4BBE42420328472E0
S11302905E228100C9F124ECA1E53D270E94C60F2E
S11302A080918715823008F090D50E94021EF6CF07
S11302B0CF93DF931F92CDB7DEB7CE0101960E9494
S11302C0021B49810E94F71C0E944E1DF6CF112487
S11302D01FBECFEFD1E2DEBFCDBF00E00CBF18E000
S11302E0A0E0B2E0EEE9FEE600E00BBF02C007903A
S11302F00D92AE38B107D9F727E1AEE8B8E001C0F6
S11303001D92AC3FB207E1F70E94DF1E0C944D37FB
S113031077CE8091E2179091E317089541E150E080
S113032060E070E080C20895CF92DF92EF92FF9276
S11303300F93CF93DF93EC010F2EF6E0CF2ED12C49
S1130340E12CF12CF02D01E020E041E150E060E0EF
S113035070E0C9D1DC01CB0181719927AA27BB27A1
S11303604197A105B105A9F48FE692E09F938F937D
S11303700E947E360E94491E0E94141F0E94581E2D
S11303800E94191F5FD00E940F1FCE01C7DF0F907C
S11303900F90DF91CF910F91FF90EF90DF90CF906E
S11303A00895CF93DF9300D01F92CDB7DEB78EE8C8
S11303B092E09F938F930E947E3682D19093E317AD
S11303C08093E2170E94171169837A838B839C833D
S11303D00F900F9042E150E060E070E0CE01019692
S11303E00E942D138091E2179091E317009791F3E7
S11303F09BDFF0CFEF92FF920F93E12CF12C082FAB
S113040020E030E040EC50E06FE972E081ED91E0F3
S11304100E948D100F91FF90EF900895EF92FF923C
S11304200F93E12CF12C082F20E030E040EC50E059
S11304306FEA72E08DE292E00E948D100F91FF90BE
S1130440EF9008958091E6179091E717089541E0A1
S113045050E060E070E004C20895CF93DF9300D0D1
S11304601F92CDB7DEB787EB92E09F938F930E94E4
S11304707E3680E090E00E9430260E941711698346
S11304807A838B839C830F900F9048EA58E460E052
S113049070E0CE0101960E942D130E9435268093B0
S11304A0E4178111F2CF62E370E080E090E00E94F3
S11304B092138091E517811109C086EE97E10E949D
S11304C064268093E51725DFC2DFDFCF8130E9F6AC
S11304D080EC92E09F938F930E947E360F900F9052
S11304E0D4CF0F9380918E0890918F08892B89F433
S11304F043E060E081E05ED690938F0880938E089D
S1130500009739F000E020E030E0A90160E070E0FD
S113051074D60F910895CF93C82F1F928F938CEDAB
S113052092E09F938F930E947E360F900F900F90CE
S11305300F90C11104C08CE98093E91703C084E6CD
S11305408093E917CF910895CF93C82F1F928F936B
S113055085EF92E09F938F930E947E360F900F90C9
S11305600F900F90C11104C08CE98093E81703C069
S113057084E68093E817CF91089580918E08909136
S11305808F080895AEDFF9DF7C0100E020E030E061
S1130590A90160E070E031D68FE093E00E949136CB
S11305A083E00E942C2C0FEF1FEF980146E150E0EE
S11305B060E978E08091EC179091ED170E94F20DBC
S11305C0C0E9D8E0998188811F929F931F928F93ED
S11305D085E293E09F938F930E947E3689810F90EA
S11305E00F900F900F900F900F908430A9F69C817C
S11305F09093EB178D818093EA171F929F93282F76
S1130600082E000C330B3F938F9386E593E09F9362
S11306108F930E947E360F900F900F900F900F9043
S11306200F904FEF5FEFBA01C70161D78823C9F379
S11306308091EA1770DF8091EB1786DF00E020E0FD
S113064030E0A90160E070E0C701D7D5A5CFEF92F3
S1130650FF920F937093ED176093EC17E12CF12C3C
S1130660082F20E030E048E851E061E873E082ECD4
S113067092E00E948D100F91FF90EF9008950F93D8
S113068001110CC0DC01CB0182239323A423B523E5
S1130690892B8A2B8B2B79F480E010C0DC01CB01F1
S11306A082239323A423B523281739074A075B071A
S11306B021F080E003C081E001C081E00F91089542
S11306C0CF93DF938FE090E0CCD1EC01009739F029
S11306D0FC011192119211921192CF01A8D2CE0174
S11306E0DF91CF9108952F923F924F925F926F9234
S11306F07F928F929F92AF92BF92CF92DF92EF92AE
S1130700FF920F931F93CF93DF93EC014A015B0198
S1130710622E702E0E941111288039804A805B80DD
S1130720A5019401C201B101AADF8823A1F06620CA
S113073089F1D501C40180959095A095B095822149
S11307409321A421B52188839983AA83BB83C12CD7
S1130750D12C760122C0C114D104E104F104E9F0E2
S1130760611004C040E050E0BA0104C040E050E031
S113077060E071E071107460482959296A297B2965
S113078097018601CE0104960E942914212C312C54
S1130790210103C0C12CD12C76010E945112CD2815
S11307A0CE28CF2859F1811101C00FD30E94EB1735
S11307B06B017C0191FD1FC00FB6F8940F92C880A5
S11307C0D980EA80FB80072DA5019401C701B601F9
S11307D056DF882371F0662061F080949094A09491
S11307E0B0948C209D20AE20BF2088829982AA825A
S11307F0BB820F900FBE160127015524C201B1011F
S1130800DF91CF911F910F91FF90EF90DF90CF90E8
S1130810BF90AF909F908F907F906F905F904F901C
S11308203F902F9008950F931F930FB6F8940F9253
S1130830FC0100811181228133814095509560959E
S11308407095402351236223732340835183628331
S113085073830F900FBEC901B8011F910F910895C2
S11308604F925F926F927F92AF92BF92CF92DF923C
S1130870EF92FF920F931F93CF93DF93EC016A01E2
S11308807B018C01095F1F4F0E941111EB85FC85D0
S113089088819981AA81BB81C82AD92AEA2AFB2A9C
S11308A0C882D982EA82FB82C12CD12C76013DC058
S11308B0A480B58080819181A281B381AC01BD0106
S11308C07727B2FD0EC0488059806A807B8044221D
S11308D055226622772245284628472889F420E0B5
S11308E012C0488059806A807B8044225522662247
S11308F07722441555056605770521F020E003C0ED
S113090021E001C021E0222371F0B0FF04C0C42A19
S1130910D52AE62AF72A488159816A817B81726047
S1130920CF010E946415EA2DFB2DE017F10709F0B1
S1130930BFCFC094D094E094F09488819981AA8127
S1130940BB81C822D922EA22FB22C882D982EA8248
S1130950FB820E945112688179818A819B81DF9197
S1130960CF911F910F91FF90EF90DF90CF90BF90A8
S1130970AF907F906F905F904F900895E2EBF8E016
S1130980A6EBB8E0B183A08313821282E2E3F5E11F
S1130990F093B108E093B00813821282118210829E
S11309A08CE79CE013969C938E931297ED93FC93A3
S11309B09093AD088093AC089093AF088093AE08F1
S11309C080E090E89093A7088093A6080895CF93B9
S11309D0DF93EC01A2EBB8E001C0DF01ED91FC91E3
S11309E01197EC17FD07C8F312968D919C911397FC
S11309F09D01280F391FC217D30749F42A813B816F
S1130A00820F931F13969C938E931297ED018A8104
S1130A109B819E01280F391FE217F307C1F420912F
S1130A20B0083091B108E217F30771F022813381E5
S1130A30820F931F9B838A83ED91FC911197808190
S1130A4091819983888305C03983288302C0F983FF
S1130A50E883CA17DB0711F0CD93DC93DF91CF91C4
S1130A600895EF92FF920F931F93CF93DF938C011E
S1130A700E9411118091B0089091B108892B09F45A
S1130A807DDF8091A6089091A70880239123892B6C
S1130A9009F076C00115110549F0C801049608173C
S1130AA0190718F000E010E001C08C0101151105D0
S1130AB009F469C08091AE089091AF08801791073E
S1130AC008F464C0C091B208D091B308E2EBF8E036
S1130AD002C0FE01EC018A819B818017910720F4FA
S1130AE0888199810097A9F78091B0089091B10805
S1130AF0C817D90709F44DC0E080F18084E0E80EFE
S1130B00F11C88819981918380832A813B81201BF8
S1130B10310B2930310548F0CE01800F911FFC01C3
S1130B20338322831B830A8352DF2A813B81809192
S1130B30AE089091AF08821B930B9093AF088093FB
S1130B40AE084091AC085091AD088417950720F485
S1130B509093AD088093AC088091A6089091A70863
S1130B60282B392B3B832A83198218828091AA0867
S1130B709091AB0801969093AB088093AA080BC0A0
S1130B80E12CF12C08C0E12CF12C05C0E12CF12C56
S1130B9002C0E12CF12C0E945112E114F10411F471
S1130BA00E940E1EC701DF91CF911F910F91FF90FC
S1130BB0EF9008950F931F93CF93DF93009791F1D4
S1130BC0EC0124974A815B812091A6083091A70803
S1130BD0BA0162237323672B29F168817981672B1A
S1130BE009F520953095242335233B832A830E94DD
S1130BF011118A819B812091AE083091AF08820F38
S1130C00931F9093AF088093AE08CE01E0DE8091ED
S1130C10A8089091A90801969093A9088093A80820
S1130C200E945112DF91CF911F910F910895FC0101
S1130C300396928381834FEF5FEFBA01438354831A
S1130C40658376839087878392878187108208954E
S1130C50FC011386128608950F931F93CF93DF939D
S1130C60EB01088119812A813B810F3F4FEF140763
S1130C702407340721F4FC01A185B28511C0DC01ED
S1130C80139601C0DF011496ED91FC9115974081F4
S1130C90518162817381041715072607370790F77E
S1130CA01496ED91FC911597FD83EC83D783C6834D
S1130CB0BF83AE831596DC93CE9314979B878A8764
S1130CC0FC0120812F5F2083DF91CF911F910F9131
S1130CD00895CF93DF93FC01A285B385C481D581A8
S1130CE0868197819F838E83C681D78184819581F4
S1130CF09D838C8311968D919C911297E817F90727
S1130D0031F48681978112969C938E931197138662
S1130D1012868C9181508C938C91DF91CF910895A0
S1130D20A89590EC88E10FB6F894A895809360009C
S1130D300FBE909360000895FC0160833197708327
S1130D403197108231971082319720E820833197B0
S1130D5010823197108231971082779740833197B0
S1130D60508386970895DCDFA091F515B091F615B0
S1130D70CD91CDBFDD91DEBFFF91EF91DF91CF919A
S1130D80BF91AF919F918F917F916F915F914F919F
S1130D903F912F911F910F91FF90EF90DF90CF9093
S1130DA0BF90AF909F908F907F906F905F904F9087
S1130DB03F902F901F900F900CBE0F900BBE0F9082
S1130DC00FBE0F90089581E008950F920FB6F89426
S1130DD00F920BB60F920CB60F921F9211242F9202
S1130DE03F924F925F926F927F928F929F92AF92B7
S1130DF0BF92CF92DF92EF92FF920F931F932F93A4
S1130E003F934F935F936F937F938F939F93AF938E
S1130E10BF93CF93DF93EF93FF93A091F515B09118
S1130E20F6150DB60D920EB60D920E94AD13A0915B
S1130E30F515B091F615CD91CDBFDD91DEBFFF91D3
S1130E40EF91DF91CF91BF91AF919F918F917F915E
S1130E506F915F914F913F912F911F910F91FF904F
S1130E60EF90DF90CF90BF90AF909F908F907F9046
S1130E706F905F904F903F902F901F900F900CBEFB
S1130E800F900BBE0F900FBE0F9008950F920FB6E8
S1130E90F8940F920BB60F920CB60F921F92112476
S1130EA02F923F924F925F926F927F928F929F9276
S1130EB0AF92BF92CF92DF92EF92FF920F931F9364
S1130EC02F933F934F935F936F937F938F939F934E
S1130ED0AF93BF93CF93DF93EF93FF93A091F51557
S1130EE0B091F6150DB60D920EB60D9213BE0E947A
S1130EF0251181110E94AD13A091F515B091F6153D
S1130F00CD91CDBFDD91DEBFFF91EF91DF91CF9108
S1130F10BF91AF919F918F917F916F915F914F910D
S1130F203F912F911F910F91FF90EF90DF90CF9001
S1130F30BF90AF909F908F907F906F905F904F90F5
S1130F403F902F901F900F900CBE0F900BBE0F90F0
S1130F500FBE0F9008959ADF1895DC0153962C91DB
S1130F605397222341F05A96ED91FC915B9790811F
S1130F708AE0891B089580E008950FB6F8940F92D3
S1130F80FC01868D811102C081E001C080E00F90D8
S1130F900FBE08950FB6F8940F92FC01268D878D2D
S1130FA0281302C081E001C080E00F900FBE0895B5
S1130FB00F931F93CF93DF93EC01042F1E8D48A151
S1130FC041110CC088819981892B09F042C08C8120
S1130FD09D810E9429171D821C8242C0011117C0E5
S1130FE050E08A819B810E94D83528A18A819B8107
S1130FF0820F911D9B838A832C813D8182179307E5
S113100050F1888199819B838A8380E029C050E0D4
S11310108E819F810E94D83588A190E09195819519
S113102091092E813F81280F391F3F832E834881E8
S113103059812417350730F42C813D81820F931F89
S11310409F838E83023049F4112349F0115080E0CC
S113105007C080E005C080E003C080E001C080E0FC
S11310601F5F1E8FDF91CF911F910F910895FC0197
S113107040A14423A9F050E026813781240F351F75
S113108037832683848195812817390720F080814E
S1131090918197838683CB01668177810C94D835BF
S11310A008951F93CF93DF93EC010FB6F8940F923A
S11310B01AA10BC08B89882351F0CE0143960E945C
S11310C0B51481110E948B16115011169CF38FEFE9
S11310D08AA30F900FBE0FB6F8940F9219A10BC0FC
S11310E08885882351F0CE0108960E94B514811199
S11310F00E948B16115011169CF38FEF89A30F9049
S11311000FBEDF91CF911F910895CF93DF93EC0130
S11311100FB6F8940F92E881F9818F8D28A190E0A1
S113112030E0829FA001839F500D929F500D1124A7
S11311304E0F5F1F5D834C831E8EFB83EA830197F2
S1131140289FA001299F500D389F500D1124CF01D5
S1131150840F951F9F838E838FEF89A38AA36111C8
S11311600BC08885882371F0CE0108960E94B514BF
S1131170882341F02ADE06C0CE01089658DDCE0150
S1131180439655DD0F900FBE81E0DF91CF91089516
S11311900F931F93F801611103C01183008302C0F0
S11311A051834083878F60A361E0CF01AEDF1F913D
S11311B00F910895DF92EF92FF920F931F93CF93B5
S11311C0DF93F82EE62ED42E869FC0011124839639
S11311D048DCEC01009741F08C012D2DAC014D5DF4
S11311E05F4F6E2D8F2DD4DFCE01DF91CF911F91F4
S11311F00F91FF90EF90DF900895CF92DF92EF92DE
S1131200FF920F931F93CF93DF93CDB7DEB7299748
S11312100FB6F894DEBF0FBECDBF7C016B012E83E9
S11312203F834887598710E00FB6F8940F92F7016F
S1131230968D878D981710F00230B1F4402FB601C7
S1131240C701B6DEF7019389992341F0C70143969C
S11312500E94B514882321F0B8DD02C08111B5DDE8
S11312600F900FBE81E04CC08E819F81A885B98507
S1131270892B8A2B8B2B21F40F900FBE80E040C06A
S1131280111105C0CE0101960E94141611E00F90B1
S11312900FBEC7D70FB6F8940F92F70181A18F3F05
S11312A009F411A2F70182A18F3F09F412A20F9051
S11312B00FBEBE016A5F7F4FCE0101960E942516C4
S11312C0811119C0C70166DE882381F04E815F81D8
S11312D068857985C70108960E941214C701E1DE6A
S11312E00E9451128111A0CF70DD9ECFC701D9DEBB
S11312F00E94511299CFC701D4DE0E94511280E09E
S113130029960FB6F894DEBF0FBECDBFDF91CF9103
S11313101F910F91FF90EF90DF90CF9008950F935E
S1131320009769F0FC0115821482118210821682E2
S113133000E020E030E0A90160E070E05EDF0F91A2
S11313400895CF93DF93482F60E081E033DFEC0111
S1131350E6DFCE01DF91CF910895EF92FF920F93D4
S11313601F93CF93DF938A01FC01568D378D53175A
S113137010F02230F9F4422F7801EC011AA18E8D7D
S1131380CE0116DE1F3F81F48B898823A9F0CE019C
S113139043960E94B514882389F0E114F10481F086
S11313A081E0F70180830DC0FF24F394F10EFAA2CB
S11313B081E007C080E005C081E003C081E001C096
S11313C081E0DF91CF911F910F91FF90EF900895ED
S11313D0CF92DF92EF92FF920F931F93CF93DF93FD
S11313E0CDB7DEB729970FB6F894DEBF0FBECDBFD9
S11313F08C016B012E833F8348875987E12C0FB6FC
S1131400F8940F92F801F68CFF2099F0B601C80108
S11314102EDEFA94F801F68E8085882331F0C80117
S113142008960E94B5148111D0DC0F900FBE81E0A4
S11314304FC08E819F81A885B985892B8A2B8B2BE0
S113144021F40F900FBE80E043C0E11006C0CE012E
S113145001960E941416EE24E3940F900FBEE1D679
S11314600FB6F8940F92F80181A18F3F09F411A2ED
S1131470F80182A18F3F09F412A20F900FBEBE01A2
S11314806A5F7F4FCE0101960E942516811117C015
S1131490C80173DD882379F04E815F816885798581
S11314A0C80143960E941214C801FBDDFAD78111CA
S11314B0A6CF8BDCA4CFC801F4DDF3D7A0CFC8013D
S11314C0F0DDEFD7C80159DD882309F498CF80E017
S11314D029960FB6F894DEBF0FBECDBFDF91CF9132
S11314E01F910F91FF90EF90DF90CF900895EF92AE
S11314F0FF920F931F93CF93DF93CDB7DEB7299756
S11315000FB6F894DEBF0FBECDBF8C014E835F8350
S113151068877987E12CF12C0FB6F8940F92F801C3
S1131520868D8823C9F08150868F80819181892B93
S113153029F40E941518F80195838483F8018085A5
S1131540882331F0C80108960E94B51481113DDC4E
S11315500F900FBE81E06FC08E819F81A885B985F1
S1131560892B8A2B8B2B21F40F900FBE80E063C054
S1131570F11006C0CE0101960E941416FF24F394C4
S11315800F900FBE4ED60FB6F8940F92F80181A1BA
S11315908F3F09F411A2F80182A18F3F09F412A22E
S11315A00F900FBEBE016A5F7F4FCE0101960E946D
S11315B02516811126C0C801E0DC8823F1F0F8016A
S11315C080819181892B51F40FB6F8940F92848114
S11315D095810E94A216E82E0F900FBE4E815F8166
S11315E068857985C80143960E941214C80159DDA3
S11315F058D7811191CFE9DB8FCFC80152DD51D784
S11316008BCFC8014EDD4DD7C801B7DC882309F460
S113161083CFEE2079F00FB6F8940F92C8019DDCC9
S1131620682FF801848195810E9484170F900FBE62
S113163080E001C080E029960FB6F894DEBF0FBEAB
S1131640CDBFDF91CF911F910F91FF90EF9008953F
S1131650CF93DF93EC010FB6F8940F9289A18F3FDB
S113166009F419A28AA18F3F09F41AA20F900FBEA0
S11316708E8D811104C0CE0143960E947314CE0155
S113168010DDDF91CF910895FC01448155812281C1
S11316903381240F351F80819181B901681B790B37
S11316A0CB016417750710F0841B950B08950F93F5
S11316B0FC018FE0DF011D928A95E9F77587648745
S11316C0558344833783268306870F910895AF9209
S11316D0BF92CF92DF92EF92FF920F931F93CF931B
S11316E0DF936C015B017A01FC01C281D381048127
S11316F015810C1B1D0B4017510708F48A01F601D4
S113170084859585A801B5018C0F9D1F0E94D8354D
S11317100E151F0558F4A701401B510BB501600FAE
S1131720711FF601848595850E94D835CE018E0DF2
S11317309F1DF601248135818217930710F0821BC7
S1131740930BF60193838283C701DF91CF911F919D
S11317500F91FF90EF90DF90CF90BF90AF900895DE
S1131760CF92DF92EF92FF920F931F93CF93DF9369
S11317701F921F92CDB7DEB77C016B015A83498358
S113178021153105C1F0FC01868580FD08C0421792
S1131790530708F49A013A83298381E00FC0201784
S11317A0310758F042E050E0BE016F5F7F4FC70140
S11317B08EDF81E003C080E001C080E0882331F047
S11317C049815A81B601C70182DF02C080E090E0FE
S11317D00F900F90DF91CF911F910F91FF90EF9099
S11317E0DF90CF900895AF92BF92CF92DF92EF92A5
S11317F0FF920F931F93CF93DF937C015B01E90169
S11318004217530708F4EA01209781F1F701008198
S1131810118184819581801B910B6E018C179D072A
S113182008F46C01F70164857585600F711FA601CA
S1131830C5010E94D835CC16DD0658F4AE014C190A
S11318405D09F70164857585C5018C0D9D1D0E9498
S1131850D8350C0F1D1FF7018481958108171907CE
S113186010F0081B190BF70111830083CE01DF91DF
S1131870CF911F910F91FF90EF90DF90CF90BF9089
S1131880AF9008956F927F928F929F92AF92BF9282
S1131890CF92DF92EF92FF920F931F93CF93DF9338
S11318A01F921F92CDB7DEB76C014B015A0179012B
S11318B001151105B1F0FC0160807180A801BE0121
S11318C06F5F7F4F90DF89819A81E01AF10AA81631
S11318D0B90630F4F60171826082A12CB12C01C0EA
S11318E05C019701A501B401C6017DDF0F900F9043
S11318F0DF91CF911F910F91FF90EF90DF90CF90E8
S1131900BF90AF909F908F907F906F900895CF92EB
S1131910DF92EF92FF920F93CF93DF93EC016B0171
S1131920413011F401E001C000E0C114D10419F404
S1131930CC24C394D12CCE014096C817D90720F4E7
S113194021968FD87C0102C0E12CF12CE114F10422
S113195039F09601AE01B701615F7F4FC701A7DE81
S1131960C701DF91CF910F91FF90EF90DF90CF905F
S113197008950F930FB6F8940F92FC0120853185DA
S1131980232B71F422853385232B61F4268137813F
S11319904481558164857585068589DE81E003C0AF
S11319A080E001C080E00F900FBE0F910895FC010C
S11319B02481358180819181820F931F42815381DB
S11319C0841B950B01978217930710F0821B930BCE
S11319D008952F923F924F925F926F927F928F92CF
S11319E09F92AF92BF92CF92DF92EF92FF920F93AA
S11319F01F93CF93DF93CDB7DEB72B970FB6F89431
S1131A00DEBF0FBECDBF4C017B876A871A010E83F0
S1131A101F8328873987FC01848195810197268556
S1131A2020FF0CC02A01F2E04F0E511C84159505CD
S1131A3058F41E821F821886198606C084179507DB
S1131A4010F02A0101C02C018E819F81A885B985DF
S1131A50892B8A2B8B2B09F438C0CE0101960E9466
S1131A60FE150FB6F8940F92C401A1DF3C01841552
S1131A70950540F560E080E090E00E94E81A0E943D
S1131A808F16F401938782870F900FBEAE80BF80BC
S1131A90C884D984E12CF12C00E010E0980140E0E6
S1131AA050E0BA0180E00E942718F40113861286E0
S1131AB0BE016A5F7F4FCE0101960E9425168823DE
S1131AC081F205C00F900FBE02C0612C712C61140D
S1131AD0710419F4C4016BDF3C0182019301A1017B
S1131AE06A857B85C4013CDE6C01892BE9F0C40165
S1131AF0CBDDF4012681378182179307A8F091D3B7
S1131B00F40180859185892B71F080859185E12C84
S1131B10F12C00E020E030E0A90160E00E94CF1841
S1131B20F40111861086BDD4C6012B960FB6F89425
S1131B30DEBF0FBECDBFDF91CF911F910F91FF90FC
S1131B40EF90DF90CF90BF90AF909F908F907F9059
S1131B506F905F904F903F902F900895AF92BF92F7
S1131B60CF92DF92EF92FF920F931F93CF93DF9365
S1131B70EC017B015A0169018E8580FF04C08A0152
S1131B800E5F1F4F01C08A01CE0111DF9C01A50128
S1131B90B701CE01E5DD5C01892BC1F0CE0174DD16
S1131BA02E813F818217930788F088859985892B38
S1131BB069F088859985E12CF12C00E020E030E083
S1131BC0A90160E00E94C61919861886C501DF9133
S1131BD0CF911F910F91FF90EF90DF90CF90BF9026
S1131BE0AF9008954F925F926F927F928F929F92DF
S1131BF0AF92BF92CF92DF92EF92FF920F931F9317
S1131C00CF93DF93EC012B013A01580169018E85D2
S1131C1080FF05C06894882481F8912C02C0812C2F
S1131C20912CA114B104C104D10441F10FB6F8946C
S1131C300F92CE0129DD7C018816990648F060E0F8
S1131C4080E090E00E94E81A0E948F1699878887A6
S1131C500F900FBE8E149F04A0F0E12CF12C00E035
S1131C6010E0980140E050E0BA0180E00E9427189B
S1131C7019861886CE0108DD7C0103C0CE0104DD7F
S1131C807C018E149F04E8F484019701A301B2013E
S1131C90CE01F8DD6C01892BB1F0C3D28A859B8516
S1131CA0892B69F08A859B85E12CF12C00E020E0EA
S1131CB030E0A90160E00E94CF181B861A86F1D398
S1131CC002C0C12CD12CC601DF91CF911F910F917D
S1131CD0FF90EF90DF90CF90BF90AF909F908F9048
S1131CE07F906F905F904F900895E0916F15F09101
S1131CF07015808181110CC08FEF9FEFDC01809300
S1131D00391590933A15A0933B15B0933C1508955B
S1131D10E0916F15F09170150780F085E02D8081BA
S1131D209181A281B3818093391590933A15A09340
S1131D303B15B0933C150895CF93DF93EC018B8D45
S1131D409C8D0E94DA05CE010E94DA05DF91CF91C5
S1131D5008954F925F926F927F928F929F92AF926B
S1131D60BF92CF92DF92EF92FF920F93CF93DF93C4
S1131D702C015B014A013901E60165EA70E08B8DB3
S1131D809C8D0E94E1358B8D9C8D21E0821A9108F7
S1131D90880E991EA114B10489F415C0822F90E015
S1131DA0F501E80FF91F3081DE01A80FB91F5D9618
S1131DB03C938081882329F02F5F01C020E02031EB
S1131DC068F31CA601C01D8E0A3008F009E00A8FD2
S1131DD00DA71EA6CE0102960E942806CE010E96DD
S1131DE00E942806DB87CA878AE090E0A0E0B0E082
S1131DF0801B9109A109B1098E879F87A88BB98B94
S1131E00DF8BCE8B84E0FE01BF96DF011D928A95A5
S1131E10E9F71BAAA301B201C4010E949C0699839D
S1131E208883E114F10419F0F701D183C083DF91B1
S1131E30CF910F91FF90EF90DF90CF90BF90AF9034
S1131E409F908F907F906F905F904F900895CF9365
S1131E50C0E009C02BE0C29FC001112489579A4EEB
S1131E600E941706CF5FCA30A8F38CE795E10E9461
S1131E70170681E795E10E94170682E695E10E9424
S1131E80170687E595E10E9417068BE495E10E9409
S1131E9017068CE795E19093701580936F1581E791
S1131EA095E190936E1580936D15CF910895CF931E
S1131EB0DF93EC010FB6F8940F9280914A158F5F6F
S1131EC080934A158091F5159091F615892B51F45C
S1131ED0D093F615C093F51580914A15813091F48D
S1131EE0B6DF10C08091441581110CC0E091F51546
S1131EF0F091F615928D8A8D891720F0D093F615FE
S1131F00C093F51580913D158F5F80933D15EA8D43
S1131F10809145158E1710F4E09345158BE08E9F44
S1131F20F0011124E957FA4E0180F281E02DFF837C
S1131F30EE832681378139872887A681B7819E0160
S1131F402E5F3F4F15963C932E9314973783268329
S1131F50EA8D8E9FF0011124E957FA4EFD87EC8734
S1131F6080818F5F80830F900FBE809144158823FA
S1131F7051F0E091F515F091F615928D8A8D981730
S1131F8010F40E94E506DF91CF910895CF93DF937B
S1131F901BC00FB6F8940F92E0915E15F0915F1597
S1131FA0C085D185CE0102960E94690680914A15AA
S1131FB0815080934A15809156158150809356150F
S1131FC00F900FBECE01B8DE809156158111E1CF7E
S1131FD0DF91CF9108958F929F92AF92BF92CF924B
S1131FE0DF92EF92FF92CF93DF936B017C01C42FBA
S1131FF08090461590904715A0904815B0904915CB
S11320008091F5159091F61502960E9469068FEF5E
S1132010C816D806E806F806B1F5CC23A1F1EBE41E
S1132020F5E1A181B281C091F515D091F615BF8378
S1132030AE83C091F515D091F61516968D919C91AD
S11320401797998788871696CD91DC911797809179
S1132050F5159091F61502969D838C838091F51564
S11320609091F615029617969C938E931697A091CD
S1132070F515B091F6151D96FC93EE931C9780818F
S11320808F5F80833FC0C80CD91CEA1CFB1CE09105
S1132090F515F091F615C282D382E482F582C81454
S11320A0D904EA04FB0468F46091F5157091F615FF
S11320B080916D1590916E156E5F7F4F0E942C0676
S11320C021C06091F5157091F61580916F1590916E
S11320D070156E5F7F4F0E942C0680913915909188
S11320E03A15A0913B15B0913C15C816D906EA06DD
S11320F0FB0640F4C0923915D0923A15E0923B1594
S1132100F0923C15DF91CF91FF90EF90DF90CF904C
S1132110BF90AF909F908F9008952F923F924F92CF
S11321205F926F927F928F929F92AF92BF92CF9263
S1132130DF92EF92FF920F93CF93DF933C011B0149
S11321404A012901CA010E9431056C01892B71F0F1
S113215084E390E00E943105EC01892B19F0DC8EB8
S1132160CB8E06C0C6010E94DA0502C0C0E0D0E0F2
S1132170209761F0A12CB12C6E019201A401B10150
S1132180C301E7DDCE0193DE81E001C08FEFDF9173
S1132190CF910F91FF90EF90DF90CF90BF90AF90D1
S11321A09F908F907F906F905F904F903F902F9073
S11321B00895EF92FF920F930F2EF7E3EF2EF5E1C0
S11321C0FF2EF02D00E020E030E040EC50E061E92B
S11321D073E08EE491E0A1DF813011F40E948C1B46
S11321E08130C9F4F8948FEF9FEFDC0180933915A7
S11321F090933A15A0933B15B0933C1581E08093DE
S113220044151092461510924715109248151092D5
S113221049150E94B306809106020F91FF90EF903A
S11322200895809136158F5F8093361508950FB603
S1132230F8940F9260914615709147158091481556
S1132240909149150F900FBE0895CF92DF92EF92AF
S1132250FF92CF93DF9380913615811105C1C09011
S11322604615D0904715E0904815F09049158FEF2A
S1132270C81AD80AE80AF80AC0924615D092471537
S1132280E0924815F0924915C114D104E104F10417
S1132290B1F480916F159091701520916D15309166
S11322A06E153093701520936F1590936E1580936F
S11322B06D1580913E158F5F80933E1516DD8091DC
S11322C0391590913A15A0913B15B0913C15C8165B
S11322D0D906EA06FB0620F480E0B2C081E001C022
S11322E080E0E0916F15F0917015908191110CC010
S11322F04FEF5FEFBA014093391550933A1560934D
S11323003B1570933C159CC0E0916F15F0917015CE
S11323100780F085E02D0084F185E02D4281538112
S113232064817581C416D506E606F70648F4409321
S1132330391550933A1560933B1570933C1580C042
S1132340A485B585C681D781208531853F832E83B9
S1132350C085D185268137813D832C8311964D918B
S11323605C9112979F012E5F3F4F4217530731F440
S11323704085518512965C934E9311971586148669
S11323809C9191509C93A08DB18D109709F1C289B5
S1132390D389448955895F834E83C489D589428909
S11323A053895D834C8311966D917C911297AF0193
S11323B0425F5F4F6417750731F44489558912965B
S11323C05C934E931197118E108E9C9191509C9317
S11323D0A28D909145159A1710F4A09345159BE092
S11323E09A9FD0011124A957BA4E11960D90BC9111
S11323F0A02DB783A68316964D915C9117975187AC
S113240040871696CD91DC9117973D832C831796C0
S11324103C932E931697A28D9A9FD0011124A9570D
S1132420BA4EB587A4879C919F5F9C93228DE091BF
S1132430F515F091F615928D291708F04FCF51CF6D
S1132440E091F515F091F615E28D9BE0E99FF0011E
S11324501124E957FA4E9081923008F081E090916E
S11324603F15911116C016C08091401590914115E9
S1132470A0914215B09143150196A11DB11D809301
S1132480401590934115A0934215B093431580E0F5
S113249001C081E0DF91CF91FF90EF90DF90CF906A
S11324A00895CF92DF92EF92FF92CF93DF930FB60E
S11324B0F8940F928091361581508093361580914F
S11324C036158111BEC080914A15811188C0BCC0E7
S11324D0E0916915F0916A150084F185E02DA08DD5
S11324E0B18DC289D389848995899F838E83C48958
S11324F0D589828993899D838C8311962D913C91F2
S11325001297CF010E962817390731F484899589DB
S113251012969C938E931197118E108E8C918150EC
S11325208C93A485B585C681D781808591859F8349
S11325308E83C085D185868197819D838C831196F6
S11325408D919C9112979F012E5F3F4F82179307A5
S113255031F48085918512969C938E9311971586FC
S113256014868C9181508C93A28D809145158A1785
S113257010F4A09345158BE08A9FD0011124A9572C
S1132580BA4E11960D90BC91A02DB783A6831696D2
S11325904D915C911797518740871696CD91DC91A8
S11325A017973D832C8317963C932E931697A28DF1
S11325B08A9FD0011124A957BA4EB587A4878C915C
S11325C08F5F8C93928DA091F515B091F6155A9664
S11325D08C91981730F081E080933F1502C0E0E0C1
S11325E0F0E080916215811173CFEF2B09F07DDB50
S11325F0C0904015D0904115E0904215F0904315DD
S1132600C114D104E104F104A1F01FDE882319F000
S113261081E080933F1581E0C81AD108E108F108F0
S1132620A1F7109240151092411510924215109284
S1132630431580913F15882331F00E94E50681E01F
S113264003C080E001C080E00F900FBEDF91CF9106
S1132650FF90EF90DF90CF9008958F929F92AF926A
S1132660BF92CF92DF92EF92FF921F93CF93DF93AB
S1132670EC016A017B01D5DD8090461590904715E9
S1132680A0904815B090491588819981AA81BB8191
S1132690AC01BD014C0D5D1D6E1D7F1D8816990694
S11326A0AA06BB0660F4481759076A077B0798F423
S11326B084169506A606B70680F010E013C04817E6
S11326C059076A077B0758F084169506A606B706CD
S11326D040F010E007C010E005C011E003C011E0B5
S11326E001C011E0488359836A837B83112341F03D
S11326F0CB01BA01681979098A099B0940E06BDCAE
S1132700D0DE811102C00E94E506812FDF91CF91B6
S11327101F91FF90EF90DF90CF90BF90AF909F906C
S11327208F900895CF92DF92EF92FF926B017C011C
S1132730672B682B692B39F074DD40E0C701B601C3
S11327404ADCAFDE01C080E0811102C00E94E506D0
S1132750FF90EF90DF90CF900895809136158823F5
S113276021F081E080933F15089510923F15E09188
S1132770F515F091F61520813181E091F515F09170
S1132780F615838D948D8217930760F06091F5158B
S11327907091F615635E7F4F8091F5159091F61553
S11327A00E941A1E8091451501C08150282F30E0E7
S11327B09BE0929FF001939FF00D1124E957FA4E8C
S11327C09081992391F39BE0929FA001939F500DD8
S11327D01124DF010180F281E02D0480F581E02DD8
S11327E01296FC93EE93119746575A4EE417F50749
S11327F029F444815581FD01528341839BE0929FDA
S1132800F001939FF00D1124E957FA4E0180F281F3
S1132810E02D208531853093F6152093F5158093AE
S113282045150895CF92DF92EF92FF926A017B01E2
S11328306091F5157091F615625F7F4F0E942C062A
S113284041E0C701B601C7DBFF90EF90DF90CF9066
S113285008950F931F93CF93DF93FC01A091F51577
S1132860B091F61570681E964D935D936D937C93AD
S11328705197A181B281C091F515D091F615BB8B0A
S1132880AA8BC091F515D091F61516968D919C9151
S113289017979D8B8C8B1696CD91DC911797809111
S11328A0F5159091F6150E969D838C838091F51500
S11328B09091F6150E9617969C938E931697A09169
S11328C0F515B091F6155996FC93EE9358978081BF
S11328D08F5F808341E0C901B8017DDBDF91CF9137
S11328E01F910F910895CF93DF93FC01CB01BA019F
S11328F0A181B281C091F515D091F615BB8BAA8B3D
S1132900C091F515D091F61516964D915C911797D7
S11329105D8B4C8B1696CD91DC9117974091F515F4
S11329205091F615425F5F4F5D834C834091F515DE
S11329305091F615425F5F4F17965C934E9316972E
S1132940A091F515B091F6155996FC93EE9358970E
S113295030813F5F3083222319F06FEF7FEFCB018B
S1132960422F39DBDF91CF910895CF93DF93DC01C0
S11329701796ED91FC9118970084F185E02DA08DB8
S1132980B18DC289D389848995899F838E83C489B3
S1132990D589828993899D838C8311968D919C918D
S11329A012979F01225F3F4F8217930731F4848966
S11329B0958912969C938E931197118E108E8C91FB
S11329C081508C9380913615811152C0A485B585B0
S11329D0C681D781808591859F838E83C085D1856B
S11329E0868197819D838C8311968D919C911297FA
S11329F09F012E5F3F4F8217930731F480859185A5
S1132A0012969C938E931197158614868C918150FF
S1132A108C93A28D809145158A1710F4A0934515C7
S1132A208BE08A9FD0011124A957BA4E11960D90BC
S1132A30BC91A02DB783A68316964D915C911797F0
S1132A40518740871696CD91DC9117973D832C834F
S1132A5017963C932E931697A28D8A9FD00111242A
S1132A60A957BA4EB587A4878C918F5F8C931CC0ED
S1132A7042E655E1DA011196CD91DC911297D38BA0
S1132A80C28B8E819F81958B848B8E819F81DC018B
S1132A9015963C932E9314973F832E83518F408F2A
S1132AA0DA018C918F5F8C93928DE091F515F09102
S1132AB0F615828D891720F481E080933F1501C0BB
S1132AC080E0DF91CF910895CF93DF93DC017068AC
S1132AD04D935D936D937C9313971896ED91FC91B0
S1132AE019971A964D915C911B9714968D919C9110
S1132AF0159716962D913C911797EC013F832E83E1
S1132B0016968D919C91179714962D913C9115973B
S1132B10EC013D832C83EA0189819A81A817B907C6
S1132B2031F416968D919C9117979A8389831B96FD
S1132B301C921E921A97DA018C9181508C93A48571
S1132B40B585C681D781808591859F838E83C08515
S1132B50D185868197819D838C8311968D919C91DB
S1132B6012979F012E5F3F4F8217930731F48085A0
S1132B70918512969C938E931197158614868C9149
S1132B8081508C93A28D809145158A1710F4A093DF
S1132B9045158BE08A9FD0011124A957BA4E11968E
S1132BA00D90BC91A02DB783A68316964D915C9190
S1132BB01797518740871696CD91DC9117973D83DF
S1132BC02C8317963C932E931697A28D8A9FD0013F
S1132BD01124A957BA4EB587A4878C918F5F8C9323
S1132BE0928DE091F515F091F615828D891718F400
S1132BF081E080933F15DF91CF9108950FB6F8944B
S1132C000F9220913E15FC0120834091461550916E
S1132C104715609148157091491541835283638328
S1132C2074830F900FBE089520913E15FC012083FC
S1132C30409146155091471560914815709149157A
S1132C40418352836383748308958F929F92AF92DA
S1132C50BF92CF92DF92EF92FF920F931F93CF9385
S1132C60DF93FB010FB6F8940F92C0904615D090F5
S1132C704715E0904815F0904915DC0111960D9127
S1132C801D912D913C91149746015701801A910A88
S1132C90A20AB30A40815181628173814F3FBFEF21
S1132CA05B076B077B0739F1EC01B881A0913E15F6
S1132CB0BA1759F0C016D106E206F30630F01082B6
S1132CC011821282138281E017C084169506A6062B
S1132CD0B70658F4481959096A097B094083518396
S1132CE062837383A1DF80E007C0108211821282A5
S1132CF0138281E001C080E00F900FBEDF91CF917D
S1132D001F910F91FF90EF90DF90CF90BF90AF9005
S1132D109F908F90089581E080933F15089580914E
S1132D20F5159091F615089580914415882331F096
S1132D3080913615811104C082E0089581E00895E0
S1132D4080E008950F931F93CF93DF93FC01892BA9
S1132D5009F477C0828DA091F515B091F6155A96B5
S1132D609C91891708F063C04685578560897189ED
S1132D70772394F0A091F515B091F6155A969C918D
S1132D804AE050E060E070E0491B510961097109B3
S1132D9046875787608B718B248535854BE0849FEC
S1132DA0C001112489579A4E28173907B9F5EF0144
S1132DB08F010E5F1F4FC8010E946906E091F5154F
S1132DC0F091F615E28DEA8F809145158E1710F477
S1132DD0E09345158BE08E9FF0011124E957FA4EDC
S1132DE00180F281E02DFF83EE83268137813987CC
S1132DF02887A681B78115961C930E931497178381
S1132E000683EA8D8E9FF0011124E957FA4EFD875F
S1132E10EC8780818F5F808381E016C0A091F515D7
S1132E20B091F6155A968C91828F81E00DC095A5CC
S1132E30E091F515F091F615828D981720F080E059
S1132E4003C080E001C081E0DF91CF911F910F9119
S1132E5008950F931F93CF93DF93FC01892B09F4FB
S1132E6049C086A5815086A7228D95A5291709F406
S1132E7043C0811143C0EF018F010E5F1F4FC80192
S1132E800E946906EDA5EA8F8AE090E0A0E0B0E038
S1132E908E1B9109A109B1098E879F87A88BB98BD5
S1132EA0809145158E1710F4E09345158BE08E9FA5
S1132EB0F0011124E957FA4E0180F281E02DFF83DD
S1132EC0EE832681378139872887A681B7811596B5
S1132ED01C930E93149717830683EA8D8E9FF0013B
S1132EE01124E957FA4EFD87EC8780818F5F808338
S1132EF081E005C080E003C080E001C080E0DF9194
S1132F00CF911F910F9108950F931F93CF93DF9348
S1132F10FC01892B09F45AC085A5861708F4862F6D
S1132F20928D891709F452C026A5213009F04EC0AC
S1132F30828F4685578560897189772364F04AE0DA
S1132F4050E060E070E0481B51096109710946874F
S1132F505787608B718B248535854BE0949FC00126
S1132F60112489579A4E2817390781F5EF018F01EB
S1132F700E5F1F4FC8010E946906EA8D80914515B6
S1132F808E1710F4E09345158BE08E9FF001112409
S1132F90E957FA4E0180F281E02DFF83EE8326810A
S1132FA0378139872887A681B78115961C930E939C
S1132FB0149717830683EA8D8E9FF0011124E95735
S1132FC0FA4EFD87EC8780818F5F8083DF91CF91FC
S1132FD01F910F910895CF92DF92EF92FF92E091AB
S1132FE0F515F091F6156685778580899189E091CC
S1132FF0F515F091F615A091F515B091F6155A96C0
S11330002C910F2EFAE0CF2ED12CE12CF12CF02DA7
S1133010C21AD108E108F108C686D786E08AF18A87
S1133020FF90EF90DF90CF9008958091F5159091E7
S1133030F615892B39F0E091F515F091F61586A572
S11330408F5F86A78091F5159091F61508954F929C
S11330505F926F927F92AF92BF92CF92DF92EF9284
S1133060FF920F931F93CF93DF93280139010FB67B
S1133070F8940F92E091F515F091F615C82FD0E071
S1133080EC0FFD1F83A9823079F1E091F515F091E1
S1133090F615CE01880F991F880F991FE80FF91FA5
S11330A087A590A9A1A9B2A940955095609570955E
S11330B0482359236A237B2347A750AB61AB72ABE8
S11330C0E091F515F091F615EC0FFD1F81E083AB4F
S11330D0A114B104C104D10439F041E0C601B50121
S11330E00E94EB0F0E94E5060F900FBE0FB6F894F6
S11330F00F92E114F104A1F0E091F515F091F615A9
S1133100CE01880F991F880F991FE80FF91F87A513
S113311090A9A1A9B2A9F70180839183A283B38363
S1133120E091F515F091F615EC0FFD1F83A982309F
S1133130E9F4E091F515F091F615CE01880F991F89
S1133140880F991FE80FF91F87A590A9A1A9B2A913
S11331504094509460947094482259226A227B22AD
S113316047A650AA61AA72AA81E001C080E020911A
S1133170F5153091F615C20FD31F1BAA0F900FBE81
S1133180DF91CF911F910F91FF90EF90DF90CF903F
S1133190BF90AF907F906F905F904F9008958F9203
S11331A09F92AF92BF92EF92FF920F93CF93DF93D0
S11331B0DC010FB6F8940F92E114F10489F0E62FC4
S11331C0F0E0EE0FFF1FEE0FFF1FE80FF91F87A4BB
S11331D090A8A1A8B2A8F70180829182A282B382AA
S11331E070E0FD01E60FF71F83A992E093AB023074
S11331F001F118F4013031F04DC0033079F104309D
S1133200D1F148C0660F771F660F771FFD01E60FE7
S1133210F71F87A490A8A1A8B2A8BA01A9014829B8
S113322059296A297B2947A750AB61AB72AB01E0EE
S113323034C0660F771F660F771FFD01E60FF71F77
S113324047A550A961A972A94F5F5F4F6F4F7F4F88
S113325047A750AB61AB72AB01E01FC0660F771F8D
S1133260660F771FFD01E60FF71F27A730AB41ABB1
S113327052AB01E012C0823079F0660F771F660FFF
S1133280771FFD01E60FF71F27A730AB41AB52AB09
S113329001E003C001E001C000E0813009F069C031
S11332A01C96ED91FC911D971696CD91DC91179784
S11332B018968D919C9119979F838E831896CD9122
S11332C0DC91199716968D919C9117979D838C8309
S11332D0818192819D012E5F3F4F8217930731F4C4
S11332E018968D919C911997928381831D961C92B7
S11332F01E921C978081815080835A96EC915A9734
S1133300809145158E1710F4E09345158BE08E9F40
S1133310F0011124E957FA4E0180F281E02D17964D
S1133320FC93EE9316974681578119965C934E93BE
S11333301897C681D7813D832C83378326835A9679
S1133340EC915A978E9FF0011124E957FA4E1D967D
S1133350FC93EE931C9780818F5F80835A969C9197
S1133360E091F515F091F615828D891710F40E94FD
S1133370E5060F900FBE802FDF91CF910F91FF9044
S1133380EF90BF90AF909F908F9008958F929F92EF
S1133390AF92BF92CF92DF92EF92FF920F93CF93AF
S11333A0DF93DC01E114F10489F0E62FF0E0EE0F85
S11333B0FF1FEE0FFF1FE80FF91F87A490A8A1A815
S11333C0B2A8F70180829182A282B38270E0FD01EB
S11333D0E60FF71F93A982E083AB023001F118F4E2
S11333E0013031F04DC0033079F10430D1F148C0DF
S11333F0660F771F660F771FFD01E60FF71F87A47F
S113340090A8A1A8B2A8BA01A901482959296A29F2
S11334107B2947A750AB61AB72AB81E034C0660F28
S1133420771F660F771FFD01E60FF71F47A550A909
S113343061A972A94F5F5F4F6F4F7F4F47A750AB92
S113344061AB72AB81E01FC0660F771F660F771FF9
S1133450FD01E60FF71F27A730AB41AB52AB81E06C
S113346012C0923079F0660F771F660F771FFD0147
S1133470E60FF71F27A730AB41AB52AB81E003C087
S113348081E001C080E0913009F096C0909136153A
S113349091115FC01C96ED91FC911D971696CD91EC
S11334A0DC91179718962D913C9119973F832E83A1
S11334B01896CD91DC91199716962D913C911797FA
S11334C03D832C83418152819D012E5F3F4F4217E2
S11334D0530731F418964D915C91199752834183A7
S11334E01D961C921E921C979081915090835A961F
S11334F0EC915A97909145159E1710F4E093451559
S11335009BE09E9FF0011124E957FA4E0180F2815D
S1133510E02D1796FC93EE931697468157811996E2
S11335205C934E931897C681D7813D832C83378350
S113353026835A96EC915A979E9FF0011124E957DD
S1133540FA4E1D96FC93EE931C9790819F5F908397
S113355021C062E675E1FB01C181D2815396DC93FF
S1133560CE9352972E813F8155963C932E93549738
S11335704E815F819D01225F3F4FFA013583248391
S11335803F832E8359967C936E935897FB019081C9
S11335909F5F90835A962C91E091F515F091F61562
S11335A0928D921748F4C114D10419F091E0F601F8
S11335B0908391E090933F15DF91CF910F91FF900D
S11335C0EF90DF90CF90BF90AF909F908F90089531
S11335D0009721F48091F5159091F6150FB6F894A3
S11335E00F9270E0FC01E60FF71F23A9223031F49B
S11335F0FC01E60FF71F13AA81E001C080E00F90E1
S11336000FBE0895DC01E0910116F091021680814D
S113361091E0811190E09C93911108C00780F0859E
S1133620E02D6081718182819381089560E070E072
S1133630CB010895CF92DF92EF92FF920F931F93E5
S1133640FC014283538364837583938782870417C1
S1133650150726073707C0F00C191D092E093F0965
S113366086859785A089B189081719072A073B071A
S113367000F5BF016E5F7F4F8091FF15909100169A
S11336800E942C0680E018C00C151D052E053F0570
S113369028F44C155D056E057F0568F4BF016E5F67
S11336A07F4F80910116909102160E942C0680E0B3
S11336B003C081E001C081E01F910F91FF90EF9062
S11336C0DF90CF9008950FB6F8940F928091FD1576
S11336D09091FE15892BE9F48EE096E10E9417067D
S11336E083E096E10E9417068EE096E1909302161D
S11336F08093011683E096E1909300168093FF1562
S113370040E067E08AE00E94DA089093FE15809317
S1133710FD150F900FBE0895EF92FF920F93D3DF24
S11337208091FD159091FE15892B91F00F2EFBEFE2
S1133730EF2EF5E1FF2EF02D03E020E030E040EC29
S113374050E066E973E088E591E00E948D1001C0C5
S113375080E00F91FF90EF9008958F929F92AF9227
S1133760BF92CF92DF92EF92FF920F931F93CF936A
S1133770DF93CDB7DEB727970FB6F894DEBF0FBE41
S1133780CDBFE091FD15F091FE15309781F169836D
S11337902A833B834C835D839F838E836630F4F45A
S11337A0C3DA823069F400E0A7019601BE016F5FBD
S11337B07F4F8091FD159091FE150E94FD0818C061
S11337C000E020E030E0A901BE016F5F7F4F8091EF
S11337D0FD159091FE150E94FD080AC020E0A80185
S11337E0BE016F5F7F4FCF010E94AD0901C080E031
S11337F027960FB6F894DEBF0FBECDBFDF91CF91F1
S11338001F910F91FF90EF90DF90CF90BF90AF90FA
S11338109F908F9008958F929F92AF92BF92CF9274
S1133820DF92EF92FF920F931F93CF93DF933BC0EE
S11338300780F085E02D80809180A280B380C085D0
S1133840D1858E010E5F1F4FC8010E946906EC8965
S1133850FD89CE0119958E8982FF25C08E859F85AD
S1133860A889B989880D991DAA1DBB1D88169906BA
S1133870AA06BB0670F48A839B83AC83BD83DB8773
S1133880CA87B80180910116909102160E942C06F5
S11338900AC0C12CD12C760100E010E0A5019401EE
S11338A060E0CE015ADFE0910116F09102168081AA
S11338B08111BECF8091FF1590910016909302164E
S11338C080930116F0930016E093FF15DF91CF91DA
S11338D01F910F91FF90EF90DF90CF90BF90AF902A
S11338E09F908F900895CF92DF92EF92FF92CF93A3
S11338F0DF93EC010E9417116B017C018091F71595
S11339009091F815A091F915B091FA15C816D90639
S1133910EA06FB0620F47FDF81E0888301C0188279
S1133920C092F715D092F815E092F915F092FA15B5
S1133930C701B601DF91CF91FF90EF90DF90CF9058
S113394008954F925F926F927F928F929F92AF925F
S1133950BF92CF92DF92EF92FF920F931F93CF9378
S1133960DF934B015C0129013A01E0910116F091CA
S113397002160780F085E02DC085D185CE01029620
S11339800E9469068E8982FF1BC04E855F85688907
S11339907989480D591D6A1D7B1D750164019301C8
S11339A08201CE0147DE882369F0C12CD12C760137
S11339B000E010E0A501940160E0CE01CEDE02C07B
S11339C08E7F8E8BEC89FD89CE011995DF91CF9185
S11339D01F910F91FF90EF90DF90CF90BF90AF9029
S11339E09F908F907F906F905F904F9008958F92EB
S11339F09F92AF92BF92CF92DF92EF92FF921F936A
S1133A00CF93DF931F92CDB7DEB76B017C01142FE8
S1133A100E941111CE01019666DF4B015C01898180
S1133A2081112DC011110DC08C149D04AE04BF046E
S1133A3040F00E945112A5019401C701B60181DF33
S1133A4020C0112341F0E091FF15F0910016808110
S1133A5011E0811110E0B701A601481959096A095A
S1133A607B09212F8091FD159091FE150E94280B52
S1133A700E945112811105C00E94E50602C00E94F5
S1133A8051120F90DF91CF911F91FF90EF90DF9033
S1133A90CF90BF90AF909F908F900895AF92BF92B8
S1133AA0CF92DF92EF92FF920F931F93CF93DF9306
S1133AB0CDB7DEB728970FB6F894DEBF0FBECDBFE3
S1133AC082C0898188230CF47EC0AE80BF80D5017A
S1133AD01C968D919C911D97892B21F0C50102960E
S1133AE00E946906CE010896FEDE8B019C01E981E5
S1133AF00E2E000CFF0BEA30F10508F064C0882795
S1133B00EE58FF4F8F4F0C94A533F50186898160E1
S1133B10868BCA80DB80EC80FD8046855785608972
S1133B2071894C0D5D1D6E1D7F1DC50183DD8823CC
S1133B3009F449C0D5015496ED91FC915597C501FE
S1133B401995F501868982FF3EC04A815B816C81AB
S1133B507D8186859785A089B1899A01AB01280F5B
S1133B60391F4A1F5B1FC12CD12C760100E010E0E5
S1133B7060E0C501F2DD27C0D50156968C915697B9
S1133B808E7F56968C931FC0F50186898160868B43
S1133B904A815B816C817D8146875787608B718BFD
S1133BA0400F511F621F731F68017901C50142DD77
S1133BB00AC0F501868981FD04C0C5010E94DA05A9
S1133BC002C08E7F868B20E030E0A901BE016F5FCA
S1133BD07F4F8091FD159091FE150E94E809811197
S1133BE070CF28960FB6F894DEBF0FBECDBFDF911D
S1133BF0CF911F910F91FF90EF90DF90CF90BF90E6
S1133C00AF900895089584B1806884B985B18068BF
S1133C1085B9089583B1806883B90895F4DF2FEFDF
S1133C2080E792E0215080409040E1F700C000001E
S1133C30F1DFF5CFE8DF2FEF87EA91E621508040EE
S1133C409040E1F700C00000E5DFF5CFEF92FF926E
S1133C500F93082F96D281110CC01F921F928EE9E8
S1133C6093E09F938F930E947E360F900F900F9056
S1133C700F90E12CF12C20E030E040EC50E062EABF
S1133C8073E089E69EE10E948D100F91FF90EF9002
S1133C90089520911B1630911C16ADECBCEC0E94CB
S1133CA0AD339695879596958795969587950895BE
S1133CB08091191690911A166AE070E00E94703390
S1133CC0CB01089540E150E060E070E00C943004D2
S1133CD00895CF93DF9300D01F92CDB7DEB78DEA5E
S1133CE093E09F938F930E947E360E9417116983FD
S1133CF07A838B839C830F900F9048EA58E460E0AA
S1133D0070E0CE0101960E942D1384EB93E09F9303
S1133D108F930E947E364DD20F900F908111EDCF7C
S1133D208BEB93E09F938F930E947E3662E370E067
S1133D3080E090E00E94921351D20F900F90811175
S1133D40DCCF82EC93E09F938F930E947E3661E0F8
S1133D5070E080E090E00E94921366D290931C166B
S1133D6080931B1687D290931A168093191689ECA8
S1133D7093E09F938F930E947E360E948901A2DF75
S1133D800F900F900F900F90B8CF0F938091F01772
S1133D909091F117892B89F481E00E94A1099093F5
S1133DA0F1178093F017009741F000E020E030E035
S1133DB0A90160E070E00E94FD080F91089580E081
S1133DC00E94612AE2DF86E00E94682B85E00E945F
S1133DD0FA0183E020D784E00E940E0283E036DFFC
S1133DE09CD741E060E070E08CE290E00E94870C98
S1133DF09093EF178093EE17BC0181E065D382E0C6
S1133E007FD16091EE177091EF1781E00E94270334
S1133E1086ED93E00E9491360E94D910FFCF9093D3
S1133E20341680933316089590933816809337167A
S1133E30089590933616809335160895CF93DF93A3
S1133E40EC0188EE93E09F938F930E947E368091DD
S1133E5038168F93809137168F9388E094E09F9360
S1133E608F930E947E36809136168F9380913516FB
S1133E708F9388E294E09F938F930E947E36809183
S1133E8034168F93809133168F9386E494E09F9336
S1133E908F930E947E36EDE1F6E186E0818382E035
S1133EA08083809137169091381692838383809112
S1133EB035169091361694838583809133169091AC
S1133EC034169683878386E1DE0101900D928A95EC
S1133ED0E1F78DB79EB70E960FB6F8949EBF0FBE4E
S1133EE08DBFCE01DF91CF910895CF93DF9381E011
S1133EF00E94B62B37D3B3D59F938F9383E694E078
S1133F009F938F930E947E36ABD4A9D59F938F93B2
S1133F1086E794E09F938F930E947E368FE496E128
S1133F2033D39DD5CFE4D6E1DF93CF939F938F9383
S1133F308FE894E09F938F930E947E36CE0140D306
S1133F408ED59F938F93DF93CF9383EA94E09F93CF
S1133F508F930E947E36AE0168EB74E089ED94E0A5
S1133F605DD57DD59F938F93DF93CF9388EB94E0BA
S1133F709F938F9389ED94E09F938F938AEE94E0BF
S1133F809F938F930E947E364ED369D59F938F93D0
S1133F9080E295E09F938F930E947E368DB79EB703
S1133FA082960FB6F8949EBF0FBE8DBF81E035D4C4
S1133FB056D59F938F938FE295E09F938F930E94A2
S1133FC07E3684EF91E034D44AD59F938F9381E079
S1133FD08F9384EF8F9380E595E09F938F930E9456
S1133FE07E368DB79EB70A960FB6F8949EBF0FBE65
S1133FF08DBFCAE080E01DD3D82F31D59F938F9316
S11340001F92CF9380E795E09F938F930E947E3613
S11340100F900F900F900F900F900F90D83059F091
S113402080E00E941A2C66E371E080E090E00E9438
S11340309213C150F9F6D83021F481E00E94FC2B90
S113404009C081E00E940B2C80E00E94D92B0E94C1
S1134050E506FDCFDF91CF910895CF93DF93CDB7E0
S1134060DEB76A970FB6F894DEBF0FBECDBF81E00E
S11340706BD262E070E080E090E00E94921380E0F6
S113408063D266E970E080E090E00E94921315D25A
S11340902CDF0E94171169837A838B839C8348EAFF
S11340A058E460E070E0CE0101960E942D1380E98F
S11340B095E09F938F930E947E36CE010596BEDED7
S11340C086E1FE013596A9E3B6E101900D928A9549
S11340D0E1F783E00E942C2C69E376E180E0D2D200
S11340E0BED49F938F938EE995E09F938F930E9404
S11340F07E360F900F900F900F900F900F90CFCFB0
S1134100EF92FF920F93E12CF12C082F20E030E086
S113411048E851E063EB75E08DE290E20E948D1077
S11341200F91FF90EF9008956530F1F4FA018081CA
S11341308F7390E0982F88272181822B90930A0215
S1134140809309028281F0E48F9FC0011124FA0157
S1134150238126952695822B90930802809307024B
S113416081E08093B3160895643051F080E090E4C8
S1134170909308028093070290930A0280930902A5
S113418008950F931F9304E910E220E034E244EF12
S113419050E060E087E20E944F2C9093B516809324
S11341A0B41621E0892B09F020E0822F1F910F9192
S11341B008958091B4169091B516009759F040E097
S11341C060E070E00E94A02C843031F41092B316A9
S11341D080E0089582E0089583E008958091B41604
S11341E09091B516009739F064E00E94EC2C85306C
S11341F021F083E0089582E0089580E008956091BD
S1134200090270910A0280E090E00E94F62E20E0FC
S113421030E048EC52E40E94842F20E038EF4FE76E
S113422056E40C945D2E0895EADF20E030E040E28D
S113423051E40E94842F0E94CA2ECB0108956091FC
S113424007027091080280E090E00E94F62E20E0C0
S113425030E045E253E40E94842F20E038EF4FE73A
S113426056E40E945D2E20E030E040E252E40C94DB
S1134270F82D0895E4DF20E030E040E251E40E94AC
S1134280842F0E94C52ECB0108950F931F93CF93C3
S1134290DF931F921F92CDB7DEB78C0119822DC018
S11342A0E091ED16EC3250F481E08E0F8093ED1620
S11342B0F0E0E15EF84E8A81808302C01092ED1630
S11342C08A818A30D1F44091ED1650E0FA01E35E20
S11342D0F84E1082415051099E012F5F3F4F6FE10C
S11342E077E18091F0169091F1160E94AE0D8981CC
S11342F081110E94E5061092ED16BE016E5F7F4F9C
S1134300C80149D6882361F20F900F90DF91CF91B5
S11343101F910F9108950F931F93CF93DF938C01F7
S1134320EB018091F0169091F1160E94B90CB8013E
S113433086EB96E10E941836209779F0E6EBF6E1D9
S113434001900020E9F7319780E290E09183808327
S1134350BE0186EB96E10E940D36E6EBF6E1DF0145
S11343600D900020E9F711978DE09AE011969C9347
S11343708E9312961C9201900020E9F73197E65B28
S1134380F641AE2F86EB96E1AC016A2F8091F216CE
S11343909091F316ABD5811111C008E215E020E02D
S11343A030E04DE250E069E777E18091F0169091BA
S11343B0F1160E94F20D89E797E102C080E090E0D7
S11343C0DF91CF911F910F9108952F923F924F92B9
S11343D05F926F927F928F929F92AF92BF92CF9291
S11343E0DF92EF92FF920F931F93CF93DF935C01C1
S11343F0FC0101900020E9F731976F01C81AD90A2E
S11344005C2C0F2EF3E58F2EF8E09F2EF02DE12C7F
S1134410F12C4C2C3701F40101811281E80109903F
S11344200020E9F72197C01BD10B3C2EF9E0CF16F1
S1134430D10458F0F4012080FEE02F1206C0B80128
S1134440C5010E94E835892B09F5442D351408F47B
S11344504C2F50E0B801C5010E941F36892B49F446
S1134460F301EE0FFF1FE60DF71DED5AF74F208005
S11344700DC08FEFE81AF80AE3E08E0E911CF1E10B
S1134480EF16F10439F66894222424F8822DDF9182
S1134490CF911F910F91FF90EF90DF90CF90BF903D
S11344A0AF909F908F907F906F905F904F903F90D0
S11344B02F90089530DF89CF08958091F016909160
S11344C0F1160C94B90C08958F929F92AF92CF92EB
S11344D0EF920F931F93CF93C82F8B0141E060E0BD
S11344E070E088EC90E00E94870C9093F116809322
S11344F0F0161093EF160093EE160F2EF5E48F2EA0
S1134500F1E29F2EF02D6894AA24A6F86894CC2496
S1134510C6F8E12C00E023E040E051EE60E070E0FA
S11345208C2F17D49093F3168093F216E7E0F1E002
S1134530808180618083CF911F910F91EF90CF9004
S1134540AF909F908F900895882331F0E8E0F1E0D8
S113455080818F7E80830895E8E0F1E0808180612E
S11345608083089560E070E089ED95E0D4DEE9E7AA
S1134570F7E101900020E9F73197E957F74181E02D
S1134580759708F080E00895CF93DF93EC0160E025
S113459070E08AEE95E0BFDEE9E7F7E101900020E4
S11345A0E9F7EA58F74139F469E777E1CE010E9467
S11345B0183680E002C0188281E0DF91CF9108951F
S11345C0FC0101900020E9F79F01215131092817CE
S11345D0390729F4BC0188E196E06CCF089589E09D
S11345E00895FC0101900020E9F79F012151310950
S11345F02817390729F4BC0187E296E05BCF0895B8
S113460089E00895FC0101900020E9F79F012152FF
S113461031092817390729F4BC0186E396E04ACF0B
S1134620089589E0089560E070E085E796E042CF60
S113463008950F931F93E82FF0E0EE0FFF1FE15B47
S1134640F74F608171818EE796E034DF811114C0E9
S113465008E215E020E030E04DE250E069E777E160
S11346608091F0169091F1160E94F20D882321F0AA
S113467089E797E1AADE03C089E797E1A6DE1F91E7
S11346800F9108950F931F93CF93DF931F92CDB78C
S1134690DEB7DB0111969C911197953108F0B4C0F7
S11346A0992381F160E070E0272F30E0462F50E03D
S11346B0FD01E40FF51F928192959F709A3010F0DE
S11346C0995C01C0905DF901E65FF84E90832F5F1D
S11346D03F4FFD01E40FF51F92819F70492F50E079
S11346E04A30510514F0995C01C0905DF901E65F10
S11346F0F84E90837E5F6F5F11969C9111976917B6
S113470098F201C070E0E72FF0E0E65FF84E108207
S11347104C91811103C087E896E002C089E896E0D5
S11347202AE037E13F932F931F924F939F938F93E8
S11347308DE896E09F938F938CE497E19F938F93FA
S11347400E94C13660E070E08CE497E1B3DE0FB6FE
S1134750F894DEBF0FBECDBF811159C008E215E049
S113476020E030E04DE250E069E777E18091F01617
S11347709091F1160E94F20D882309F447C089E74D
S113478097E123DE8E3009F042C087E0898380916F
S1134790EE169091EF16892BA9F1BE016F5F7F4F42
S11347A089E797E168D18093F416E981F0E0E7584E
S11347B0F84EDF010D900020E9F71197AE1BBF0BF7
S11347C0AA2391F0BB27CD0101979C0112F42F5F1E
S11347D03F4F359527952093F516AF014F5F5F4FF7
S11347E064E186EF96E173D101E010E020E030E06F
S11347F046E150E064EF76E18091EE169091EF1679
S11348000E94E90C8EE003C084E101C080E00F90B7
S1134810DF91CF911F910F910895813019F06DE9C7
S113482076E002C066E777E081EA96E043CE089539
S11348309F938F9382ED96E09F938F938CE497E1FF
S11348409F938F930E94C13660E070E08CE497E1FF
S113485031DE0F900F900F900F900F900F900895EE
S11348602F923F924F925F926F927F928F929F927C
S1134870AF92BF92CF92DF92EF92FF920F931F936A
S1134880CF93DF93CDB7DEB7A0970FB6F894DEBF12
S11348900FBECDBF6FEF76E08BE097E03CDD95DD9A
S11348A08111A3C080E2E2E2F2E0DE011196019000
S11348B00D928A95E1F79E012F5F3F4F6901E12C2C
S11348C0F12C0F2EF7E1AF2EF7E0BF2EF02D0CE404
S11348D017E10F2EF0E34F2EF7E05F2EF02D0F2E91
S11348E0F7E48F2EF7E09F2EF02D0F2EF1E66F2EBA
S11348F0F7E07F2EF02D3E2C2F2CFF92EF92BF92EB
S1134900AF921F930F930E94C13660E070E0C8011C
S113491002DD5BDD0F900F900F900F900F900F90C2
S1134920811163C032E03E15E8F4F60183818F9370
S113493082818F9381818F9380818F93FF92EF92F5
S11349405F924F921F930F930E94C13660E070E014
S1134950C801E1DC3ADD0FB6F894DEBF0FBECDBF6F
S1134960811143C02F923F929F928F921F930F9376
S11349700E94C13660E070E0C801CDDC26DD0F90F6
S11349800F900F900F900F900F9081112EC02F92C7
S11349903F927F926F921F930F930E94C13660E003
S11349A070E0C801B8DC11DD0F900F900F900F90EC
S11349B00F900F90811119C03FEFE31AF30A84E0BE
S11349C0C80ED11C98E0E916F10409F094CF60E018
S11349D070E089E797E09FDCF8DC811106C060E0B5
S11349E070E08AE897E097DCF0DCA0960FB6F894C4
S11349F0DEBF0FBECDBFDF91CF911F910F91FF900E
S1134A00EF90DF90CF90BF90AF909F908F907F906A
S1134A106F905F904F903F902F900895EF92FF9288
S1134A200F931F93CF93DF93EC018B017A0181E005
S1134A30F4DE81110DC0CE01D4DD811109C0C8019D
S1134A40E1DD811105C0C701BBDD811101C0EBDDD2
S1134A50DF91CF911F910F91FF90EF90089590E017
S1134A60FC01EE0FFF1F8E0F9F1FFC01ED5AF74F45
S1134A70818192810895DC01009729F1FB01208155
S1134A80FC0101900020E9F73197E81BF90B822F14
S1134A9090E0E817F907C8F080E008C0880F382FC5
S1134AA0330F330F830F8053890F2F5FFD01E20F04
S1134AB0F11D908130ED390F3A3010F49111EECFA1
S1134AC0FB012083089580E0089580E008950F930A
S1134AD01F93CF93DF93DC01EA012097E1F1FA0100
S1134AE001900020E9F73197E41BF50B329710F59C
S1134AF032C08D01040F151F30E0AE01420F531F69
S1134B00FA019081913428F09753592F5295507F90
S1134B1003C0592F5295507F2C0F3D1FF9019181ED
S1134B20913410F0975301C09053950FF80190837E
S1134B308F5F01C080E0282F220F482F50E0FE0134
S1134B4001900020E9F73197EC1BFD0B4E175F072E
S1134B5010F48613CECFDF91CF911F910F9108955A
S1134B608091A917860F8093A9179091AC17913063
S1134B7079F028F09230A9F0933019F108956F3F3D
S1134B8009F048C01092A91781E08093AC170895EA
S1134B90663809F03FC01092A81782E08093AC17E2
S1134BA00895E091A81781E08E0F8093A817F0E094
S1134BB0EA55F84E6083823069F583E08093AC1740
S1134BC008959091A81721E0290F2093A8179630F3
S1134BD009F581110EC0E6EAF7E1808190E0982F93
S1134BE088272181820F911D9093AE178093AD1772
S1134BF004C01092AE171092AD171092AC17E0914A
S1134C00AA17F091AB17309729F08091AD179091C6
S1134C10AE17199508958F929F92AF92CF92EF920B
S1134C200F930F2EF0EB8F2EF5E29F2EF02D68944C
S1134C30AA24A4F86894CC24C4F8E12C00E023E06E
S1134C4040E855E260E070E084D09093B017809320
S1134C50AF170F91EF90CF90AF909F908F900895E2
S1134C609093AB178093AA170895CF93DF93CDB792
S1134C70DEB729970FB6F894DEBF0FBECDBF89E02B
S1134C80E2E4F2E09E012F5F3F4FD90101900D92C3
S1134C908A95E1F71092AE171092AD178091AF1775
S1134CA09091B017009731F0422F532F69E01ED135
S1134CB080E001C082E029960FB6F894DEBF0FBEF3
S1134CC0CDBFDF91CF9108952091AD173091AE17EC
S1134CD02115310529F4FC011182108281E0089527
S1134CE0FC013183208380E0089565360CF064E68E
S1134CF06C390CF46CE996EF6902B0011124685424
S1134D00744F811105C0709329016093280108959F
S1134D1070932B0160932A010895EAE0F1E0808109
S1134D20886180838FE39CE9909327018093260117
S1134D3060E080E0DADF60E081E0D7DFE0E2F1E02C
S1134D408081826A8083E1E2F1E080818A618083EC
S1134D5008952F923F924F925F926F927F928F921B
S1134D609F92AF92CF92EF92FF920F931F93CF93A4
S1134D70DF93CDB7DEB7F82E2A013B0188E090E03F
S1134D800E94D0338C018F2D90E0FC01EE0FFF1FA9
S1134D90EF54F84E118300830115110509F469C01D
S1134DA0880F991FFC01E55FFD4F80819181D80137
S1134DB08D939C938C2D90E0880F991F880F991FD9
S1134DC00E94D0331C0186E090E00E94D0337C0125
S1134DD04C2DB101F1D6F801F582E4828A2D90E0E0
S1134DE0880F991F880F991F0E94D0331C0186E0F9
S1134DF090E00E94D0337C014A2DB101DDD6D80168
S1134E001396FC92EE92129717969C928E92169796
S1134E10FFB6F894ED91FC911197369780818260EA
S1134E2080838D909C90C301B201E0D720E030E0F4
S1134E3040E051E40E94842F9B01AC0160E074E2E5
S1134E4084E79BE43AD720E030E040E85FE3D0D643
S1134E50A1D7F40132976083D801ED91FC911197A9
S1134E60359788E98083ED91FC91349786E08083BF
S1134E70FFBEC801DF91CF911F910F91FF90EF907A
S1134E80CF90AF909F908F907F906F905F904F9056
S1134E903F902F900895CF93DF93DC01892B01F18C
S1134EA01296ED91FC911397938182812581981B31
S1134EB0922384819817B1F0838126952823C08199
S1134EC0D181C20FD11D68838F5F9581892383832C
S1134ED0ED91FC91359780818062808380E003C0EE
S1134EE081E001C082E0DF91CF910895EF92FF92BB
S1134EF00F931F93CF93DF937C01009709F441C074
S1134F00DC011296ED91FC91139793818281981B99
S1134F10858198238481891B8617A8F1662341F132
S1134F20842F952FDC016150462F50E04F5F5F4F77
S1134F30480F591FE701EA81FB8193818281258112
S1134F40981B92238481981779F08C9193812695EC
S1134F502923608171818B01020F111DE80188836F
S1134F609F5F8581982393831196A417B50711F742
S1134F70D701ED91FC91359780818062808380E038
S1134F8003C081E001C082E0DF91CF911F910F91B6
S1134F90FF90EF9008950097D1F0DC011496ED9105
S1134FA0FC91159793818281981799F0928185815C
S1134FB086958923A081B181A80FB11D8C91DB0155
S1134FC08C939F5F85819823928380E0089581E08C
S1134FD0089583E008951F920F920FB60F92112443
S1134FE00BB60F922F933F934F935F936F937F93DF
S1134FF08F939F93AF93BF93CF93DF93EF93FF93DD
S1135000A091B117B091B217109711F16091C60039
S11350101496ED91FC911597938182812581981BBB
S113502092238481981761F0838126952823C08177
S1135030D181C20FD11D68838F5F958189238383BA
S11350401696ED91FC911797309711F0CD011995B3
S1135050FF91EF91DF91CF91BF91AF919F918F918C
S11350607F916F915F914F913F912F910F900BBE64
S11350700F900FBE0F901F9018951F920F920FB6AE
S11350800F9211240BB60F922F938F939F93AF938C
S1135090BF93EF93FF93E091B117F091B21730975C
S11350A0B9F00280F381E02D938182819817B1F0E9
S11350B092818581282F26952923A081B181A20F71
S11350C0B11D2C919F5F892382832093C6000BC05E
S11350D0E1ECF0E080818F7D808305C0E1ECF0E0BD
S11350E080818F7D8083FF91EF91BF91AF919F91DC
S11350F08F912F910F900BBE0F900FBE0F901F90AA
S113510018951F920F920FB60F9211240BB60F929F
S11351102F933F934F935F936F937F938F939F93BB
S1135120AF93BF93CF93DF93EF93FF93A091B31704
S1135130B091B417109711F16091CE001496ED91CF
S1135140FC911597938182812581981B92238481F8
S1135150981761F0838126952823C081D181C20FDD
S1135160D11D68838F5F9581892383831696ED9182
S1135170FC911797309711F0CD011995FF91EF919C
S1135180DF91CF91BF91AF919F918F917F916F915B
S11351905F914F913F912F910F900BBE0F900FBED7
S11351A00F901F9018951F920F920FB60F92112413
S11351B00BB60F922F938F939F93AF93BF93EF935D
S11351C0FF93E091B317F091B4173097B9F00280D0
S11351D0F381E02D938182819817B1F092818581CA
S11351E0282F26952923A081B181A20FB11D2C91CE
S11351F09F5F892382832093CE000BC0E9ECF0E00B
S113520080818F7D808305C0E9ECF0E080818F7D13
S11352108083FF91EF91BF91AF919F918F912F91D7
S11352200F900BBE0F900FBE0F901F9018951F92FA
S11352300F920FB60F9211240BB60F922F933F9338
S11352404F935F936F937F938F939F93AF93BF938A
S1135250CF93DF93EF93FF93A091B517B091B61757
S1135260109711F16091D6001496ED91FC91159769
S1135270938182812581981B92238481981761F000
S1135280838126952823C081D181C20FD11D6883D3
S11352908F5F9581892383831696ED91FC911797EF
S11352A0309711F0CD011995FF91EF91DF91CF91D6
S11352B0BF91AF919F918F917F916F915F914F912A
S11352C03F912F910F900BBE0F900FBE0F901F9028
S11352D018951F920F920FB60F9211240BB60F92CE
S11352E02F938F939F93AF93BF93EF93FF93E0918B
S11352F0B517F091B6173097B9F00280F381E02D1D
S1135300938182819817B1F092818581282F269507
S11353102923A081B181A20FB11D2C919F5F892304
S113532082832093D6000BC0E1EDF0E080818F7D75
S1135330808305C0E1EDF0E080818F7D8083FF9163
S1135340EF91BF91AF919F918F912F910F900BBED1
S11353500F900FBE0F901F9018951F920F920FB6CB
S11353600F9211240BB60F922F933F934F935F9399
S11353706F937F938F939F93AF93BF93CF93DF9359
S1135380EF93FF93A091B717B091B817109711F14D
S1135390609136011496ED91FC9115979381828169
S11353A02581981B92238481981761F08381269527
S11353B02823C081D181C20FD11D68838F5F95815D
S11353C0892383831696ED91FC911797309711F0FA
S11353D0CD011995FF91EF91DF91CF91BF91AF91DD
S11353E09F918F917F916F915F914F913F912F91F9
S11353F00F900BBE0F900FBE0F901F9018951F9229
S11354000F920FB60F9211240BB60F922F938F9316
S11354109F93AF93BF93EF93FF93E091B717F091EE
S1135420B8173097B9F00280F381E02D938182811F
S11354309817B1F092818581282F26952923A08180
S1135440B181A20FB11D2C919F5F89238283209388
S113545036010BC0E1E3F1E080818F7D808305C0DC
S1135460E1E3F1E080818F7D8083FF91EF91BF9133
S1135470AF919F918F912F910F900BBE0F900FBE04
S11354800F901F901895CF93DF931F92CDB7DEB77F
S1135490BE016F5F7F4F8091B9179091BA177BDD82
S11354A08111F6CF898190E00F90DF91CF9108951B
S11354B0682F8091B9179091BA17EDDC80E090E0E5
S11354C008958F929F92AF92CF92EF920F93812C77
S11354D0912C6894AA24A7F86894CC24C7F8E12CEA
S11354E000E023E040E051EE60E070E032DC9093B5
S11354F0BA178093B917E6EFF7E183E192E091835D
S11355008083938382830F91EF90CF90AF909F908D
S11355108F90089590E0FC01EE0FFF1FE80FF91F34
S1135520EE0FFF1FE554F84E238121111FC09C018B
S1135530220F331FF901E80FF91FEE0FFF1FE55487
S1135540F84EA081B1814C91F901E80FF91FEE0FDB
S1135550FF1FE554F84E81E090E0028002C0880FFE
S1135560991F0A94E2F7842B8C930895FC01EE0FA3
S1135570FF1FDF01A80FB91FAA0FBB1FA554B84E08
S11355800D90BC91A02D2C91E80FF91FEE0FFF1F79
S1135590E554F84E81E090E0028002C0880F991F24
S11355A00A94E2F7809582238C93089590E0FC019D
S11355B0EE0FFF1FE80FF91FEE0FFF1FE554F84E23
S11355C02381211120C09C01220F331FF901E80F10
S11355D0F91FEE0FFF1FE554F84EA081B1814C91E5
S11355E0F901E80FF91FEE0FFF1FE554F84E81E0B3
S11355F090E0028002C0880F991F0A94E2F7809518
S113560084238C930895FC01EE0FFF1FDF01A80F84
S1135610B91FAA0FBB1FA554B84E0D90BC91A02D65
S11356202C91E80FF91FEE0FFF1FE554F84E81E0AF
S113563090E0028002C0880F991F0A94E2F7822B3F
S11356408C930895CC24C394D12C6894BB24B2F8D1
S1135650CBEBD7E110E08C81813081F018F18230FE
S113566061F5E881F9812081C6010A8002C0880FB2
S1135670991F0A94E2F7822780831FC08D818F5F70
S11356808A3010F48D8319C01D82E881F98120814C
S1135690C6010A8002C0880F991F0A94E2F7822784
S11356A080830BC00D81002329F0812F7FDF0150FF
S11356B00D8303C0BC82812F2DDF1F5F269614301B
S11356C051F665E070E080E090E00E949213C0CF54
S11356D0EF92FF920F931F93CF93DF93082F80E4F1
S11356E087B9CBEBD7E10F2EF8E2EF2EF12CF02D9A
S11356F0F982E88286E08A831B8214E01C8380E0BE
S113570009DF80E887B9FF82EE8287E088871986FF
S11357101A8781E0FFDE80E283BB84E390E09D870B
S11357208C8785E08E871F86188B82E0F3DE80E10C
S11357308093010182E091E09B8B8A8B1C8B1D8AF4
S11357401E8B83E0E7DEE12CF12C20E030E040EC1E
S113575050E066E878E082E29BE20E948D10DF91DF
S1135760CF911F910F91FF90EF900895CF93DF9306
S113577090E0FC01EE0FFF1FDF01A80FB91FAA0F75
S1135780BB1FA554B84ECD91DC911197488121E0FF
S113579030E012960C90129702C0220F331F0A9425
S11357A0E2F724272883FD0181E08483DF91CF91F0
S11357B00895CF93DF9390E0FC01EE0FFF1FDF010C
S11357C0A80FB91FAA0FBB1FA554B84ECD91DC91E9
S11357D01197488121E030E012960C90129702C094
S11357E0220F331F0A94E2F724272883FD0182E065
S11357F08483DF91CF910895282F30E0F901EE0FD3
S1135800FF1FE20FF31FEE0FFF1FE554F84E93E066
S11358109483CCCE0895282F30E0F901EE0FFF1FBA
S1135820E20FF31FEE0FFF1FE554F84E94E094834C
S113583071CE089590E0FC01EE0FFF1FDF01A80F69
S1135840B91FAA0FBB1FA554B84E24E015962C937C
S11358501597FD011482089590E0FC01EE0FFF1FDF
S1135860DF01A80FB91FAA0FBB1FA554B84E21E032
S113587015962C931597FD01148208958091E117D4
S113588081110CC08CE08093B8008FEF8093BB0033
S113589084E08093BC0081E08093E1170895AF9287
S11358A0BF92CF92DF92EF92FF920F931F93CF9309
S11358B0DF93A82EB62E69017A0184E090E070D7B8
S11358C0EC01892B61F1A88281E0B81212C0C701F2
S11358D0B60120EA36E841E050E015D7DA01C90103
S11358E04097A109B109B695A7959795879589839E
S11358F011C0C701B60120E83AE146E050E003D701
S1135900DA01C9014097A109B109B695A795979500
S1135910879589831B830A838C2F9D2F02C080E087
S113592090E0DF91CF911F910F91FF90EF90DF9066
S1135930CF90BF90AF9008958091BC00817008957E
S1135940FF920F931F93CF93DF930097D1F14A30C7
S1135950D0F5F42E8B01EC01EFDF811136C080917C
S1135960D4179091D517C817D90741F087DF8981DB
S11359708093B800D093D517C093D41781E08F0DCE
S11359808093D6178881880F8093D717FF2089F0DA
S1135990F801A8EDB7E14FEF4F0D642F70E0CB0194
S11359A00196B801680F791F81918D93E617F70767
S11359B0D9F788EF8093210285EA8093BC0084E0C4
S11359C005C086E003C087E001C082E0DF91CF918B
S11359D01F910F91FF9008951F93CF93DF9300972A
S11359E029F16B3028F5162FEC01A6DF811122C0B6
S11359F08091D4179091D517C817D90741F03EDF8D
S1135A0089818093B800D093D517C093D41710938D
S1135A10D6178881880F81608093D71788EF809389
S1135A20210285EA8093BC0085E005C086E003C0BE
S1135A3087E001C082E0DF91CF911F9108951F920A
S1135A400F920FB60F9211240BB60F922F933F9320
S1135A504F935F936F937F938F939F93AF93BF9372
S1135A60EF93FF93E091B9008E2F90E0FC013897FB
S1135A70E135F10508F075C08827E458FF4F8F4FD2
S1135A8064C61092D317E091D3178091D617E81704
S1135A9070F481E08E0F8093D317F0E0E952F84E52
S1135AA080818093BB0085E88093BC0072C084E948
S1135AB08093BC008091D4179091D517DC01129685
S1135AC0ED91FC911397309709F463C020E040E016
S1135AD050E064E019955DC0E091D31781E08E0F2A
S1135AE08093D3178091BB00F0E0E952F84E808395
S1135AF08091B900803411F41092D3172091D317F8
S1135B0030E08091D61790E001972817390724F4E4
S1135B1085EC8093BC003DC085E88093BC0039C00F
S1135B208091BB00E091D317F0E0E952F84E8083F6
S1135B3084E98093BC008091D4179091D517DC013F
S1135B401296ED91FC911397309719F12091D61785
S1135B5047ED57E165E019951CC085EA8093BC00C8
S1135B6018C08091B9008093210284E08093BC0026
S1135B708091D4179091D517DC011296ED91FC9188
S1135B801397309731F020E040E050E0609121021B
S1135B901995FF91EF91BF91AF919F918F917F9153
S1135BA06F915F914F913F912F910F900BBE0F908A
S1135BB00FBE0F901F901895FC01411101C011D721
S1135BC0842F90E09C012150310982239323892B57
S1135BD009F007D7413808F004D7128213824483AE
S1135BE0440F415045837183608380E090E00895C1
S1135BF05058BB27AA270ED04DC13ED130F043D117
S1135C0020F031F49F3F11F41EF433C10EF4E095FB
S1135C10E7FB29C1E92F4FD180F3BA176207730755
S1135C208407950718F071F49EF567C10EF4E095AA
S1135C300B2EBA2FA02D0B01B90190010C01CA0142
S1135C40A0011124FF27591B99F0593F50F4503EED
S1135C5068F11A16F040A22F232F342F4427585FDF
S1135C60F3CF469537952795A795F0405395C9F7F7
S1135C707EF41F16BA0B620B730B840BBAF09150AF
S1135C80A1F0FF0FBB1F661F771F881FC2F70EC04E
S1135C90BA0F621F731F841F48F487957795679521
S1135CA0B795F7959E3F08F0B3CF9395880F08F00A
S1135CB09927EE0F9795879508950CD0EBC0E3D004
S1135CC040F0DAD030F021F45F3F19F0CCC051112C
S1135CD015C1CFC0F0D098F39923C9F35523B1F37C
S1135CE0951B550BBB27AA2762177307840738F047
