:10000000E5C0000004C1000002C1000000C1000002
:10001000FEC00000FCC00000FAC00000F8C00000F4
:10002000F6C00000F4C00000F2C00000F0C0000004
:10003000DCC30000ECC00000EAC00000E8C0000023
:10004000E6C00000E4C00000E2C00000E0C0000024
:10005000DEC00000DCC00000DAC00000D8C0000034
:10006000D6C000000C94E21F0C943420D0C00000D5
:10007000CEC00000CCC00000CAC00000C8C0000054
:10008000C6C00000C4C00000C2C00000C0C0000064
:100090000C9478200C94CA20BAC000000C9435242B
:1000A000B6C00000B4C00000B2C00000B0C0000084
:1000B000AEC00000ACC00000AAC00000A8C0000094
:1000C000A6C00000A4C00000A2C000000C940E2135
:1000D0000C9460219CC000000C94A4210C94F62187
:1000E00096C00000F916F916F916301738174D1793
:1000F000F916F916301738175724C724C724C72410
:10010000C724C724C724C7245724C724C724C72407
:10011000C724C724C724C7245924C724C724C724F5
:10012000C724C724C724C724C724C724C724C72477
:10013000C724C724C724C7245924C724C724C724D5
:10014000C724C724C724C724C724C724C724C72457
:10015000C724C724C724C724C324C724C724C7244B
:10016000C724C724C724C7248E24C724C724C72470
:10017000C724C724C724C724C724C724C724C72427
:10018000C724C724C724C7248224C724C724C7245C
:10019000C724C724C724C724A6240E94490B8091E2
:1001A000CD10823008F05BD20E947617F6CFCF9345
:1001B000DF931F92CDB7DEB7CE0101960E94761471
:1001C00049810E946B160E94C216F6CF11241FBEF1
:1001D000CFEFD1E2DEBFCDBF00E00CBF16E0A0E064
:1001E000B2E0E2EEF6E500E00BBF02C007900D9230
:1001F000A83AB107D9F723E1A8EAB6E001C01D92F9
:10020000AE34B207E1F70E941A180C946F2BF8CEA7
:10021000E4EBF6E0A8EBB6E0B183A0831382128290
:10022000E8E7F0E1F093B306E093B206138212829E
:100230001182108280EC99E013969C938E93129712
:10024000ED93FC939093AF068093AE069093B10626
:100250008093B00680E090E89093A9068093A8066A
:100260000895CF93DF93EC01A4EBB6E001C0DF016A
:10027000ED91FC911197EC17FD07C8F312968D9143
:100280009C9113979D01280F391FC217D30749F47A
:100290002A813B81820F931F13969C938E93129712
:1002A000ED018A819B819E01280F391FE217F30718
:1002B000C1F42091B2063091B306E217F30771F052
:1002C00022813381820F931F9B838A83ED91FC915E
:1002D0001197808191819983888305C03983288310
:1002E00002C0F983E883CA17DB0711F0CD93DC93D2
:1002F000DF91CF910895EF92FF920F931F93CF93C9
:10030000DF938C010E94940C8091B2069091B30609
:10031000892B09F47DDF8091A8069091A90680239E
:100320009123892B09F076C00115110549F0C80108
:1003300004960817190718F000E010E001C08C01BE
:100340000115110509F469C08091B0069091B106BC
:100350008017910708F464C0C091B406D091B50627
:10036000E4EBF6E002C0FE01EC018A819B8180177C
:10037000910720F4888199810097A9F78091B206AE
:100380009091B306C817D90709F44DC0E080F180F9
:1003900084E0E80EF11C88819981918380832A8111
:1003A0003B81201B310B2930310548F0CE01800FF5
:1003B000911FFC01338322831B830A8352DF2A812E
:1003C0003B818091B0069091B106821B930B909374
:1003D000B1068093B0064091AE065091AF068417E7
:1003E000950720F49093AF068093AE068091A806FF
:1003F0009091A906282B392B3B832A8319821882D6
:100400008091AC069091AD0601969093AD068093D5
:10041000AC060BC0E12CF12C08C0E12CF12C05C07E
:10042000E12CF12C02C0E12CF12C0E94D40DE1143E
:10043000F10411F40E948217C701DF91CF911F913F
:100440000F91FF90EF9008950F931F93CF93DF9339
:10045000009791F1EC0124974A815B812091A806D5
:100460003091A906BA0162237323672B29F16881B1
:100470007981672B09F520953095242335233B831B
:100480002A830E94940C8A819B812091B00630912E
:10049000B106820F931F9093B1068093B006CE01F0
:1004A000E0DE8091AA069091AB0601969093AB0690
:1004B0008093AA060E94D40DDF91CF911F910F91D6
:1004C0000895FC010396928381834FEF5FEFBA0199
:1004D000438354836583768390878783928781875C
:1004E00010820895FC011386128608950F931F93BE
:1004F000CF93DF93EB01088119812A813B810F3F64
:100500004FEF14072407340721F4FC01A185B285BD
:1005100011C0DC01139601C0DF011496ED91FC912E
:100520001597408151816281738104171507260751
:10053000370790F71496ED91FC911597FD83EC83A6
:10054000D783C683BF83AE831596DC93CE9314976F
:100550009B878A87FC0120812F5F2083DF91CF91C9
:100560001F910F910895CF93DF93FC01A285B3856E
:10057000C481D581868197819F838E83C681D781EF
:10058000848195819D838C8311968D919C91129786
:10059000E817F90731F48681978112969C938E9320
:1005A0001197138612868C9181508C938C91DF91D8
:1005B000CF910895A89590EC88E10FB6F894A8958E
:1005C000809360000FBE909360000895FC016083EB
:1005D000319770833197108231971082319720E8DC
:1005E000208331971082319710823197108277974C
:1005F00040833197508386970895DCDFA0913B11AB
:10060000B0913C11CD91CDBFDD91DEBFFF91EF9157
:10061000DF91CF91BF91AF919F918F917F916F911A
:100620005F914F913F912F911F910F91FF90EF900C
:10063000DF90CF90BF90AF909F908F907F906F9002
:100640005F904F903F902F901F900F900CBE0F9097
:100650000BBE0F900FBE0F90089581E008950F928A
:100660000FB6F8940F920BB60F920CB60F921F9222
:1006700011242F923F924F925F926F927F928F92AE
:100680009F92AF92BF92CF92DF92EF92FF920F9321
:100690001F932F933F934F935F936F937F938F930A
:1006A0009F93AF93BF93CF93DF93EF93FF93A0916B
:1006B0003B11B0913C110DB60D920EB60D920E94F9
:1006C000300FA0913B11B0913C11CD91CDBFDD9188
:1006D000DEBFFF91EF91DF91CF91BF91AF919F91DD
:1006E0008F917F916F915F914F913F912F911F91CA
:1006F0000F91FF90EF90DF90CF90BF90AF909F90C1
:100700008F907F906F905F904F903F902F901F90B1
:100710000F900CBE0F900BBE0F900FBE0F90089560
:100720000F920FB6F8940F920BB60F920CB60F9271
:100730001F9211242F923F924F925F926F927F925D
:100740008F929F92AF92BF92CF92DF92EF92FF92E1
:100750000F931F932F933F934F935F936F937F93C9
:100760008F939F93AF93BF93CF93DF93EF93FF93B9
:10077000A0913B11B0913C110DB60D920EB60D92A9
:1007800013BE0E94A80C81110E94300FA0913B1152
:10079000B0913C11CD91CDBFDD91DEBFFF91EF91C6
:1007A000DF91CF91BF91AF919F918F917F916F9189
:1007B0005F914F913F912F911F910F91FF90EF907B
:1007C000DF90CF90BF90AF909F908F907F906F9071
:1007D0005F904F903F902F901F900F900CBE0F9006
:1007E0000BBE0F900FBE0F9008959ADF18950FB6AD
:1007F000F8940F92FC01868D811102C081E001C046
:1008000080E00F900FBE08950FB6F8940F92FC0190
:10081000268D878D281302C081E001C080E00F90F3
:100820000FBE08950F931F93CF93DF93EC01042F16
:100830001E8D48A141110CC088819981892B09F036
:1008400042C08C819D810E9441111D821C8242C048
:10085000011117C050E08A819B810E94F22728A1D4
:100860008A819B81820F911D9B838A832C813D818C
:100870008217930750F1888199819B838A8380E056
:1008800029C050E08E819F810E94F22788A190E0CC
:100890009195819591092E813F81280F391F3F83C2
:1008A0002E83488159812417350730F42C813D81EE
:1008B000820F931F9F838E83023049F4112349F0E6
:1008C000115080E007C080E005C080E003C080E0F8
:1008D00001C080E01F5F1E8FDF91CF911F910F91AC
:1008E0000895FC0140A14423A9F050E026813781FE
:1008F000240F351F37832683848195812817390774
:1009000020F08081918197838683CB0166817781F6
:100910000C94F22708951F93CF93DF93EC010FB649
:10092000F8940F921AA10BC08B89882351F0CE0145
:1009300043960E94EE0F81110E942A111150111648
:100940009CF38FEF8AA30F900FBE0FB6F8940F920F
:1009500019A10BC08885882351F0CE0108960E940A
:10096000EE0F81110E942A11115011169CF38FEF86
:1009700089A30F900FBEDF91CF911F910895CF9360
:10098000DF93EC010FB6F8940F92E881F9818F8D17
:1009900028A190E030E0829FA001839F500D929F9C
:1009A000500D11244E0F5F1F5D834C831E8EFB8301
:1009B000EA830197289FA001299F500D389F500D71
:1009C0001124CF01840F951F9F838E838FEF89A3FE
:1009D0008AA361110BC08885882371F0CE01089627
:1009E0000E94EE0F882341F03ADE06C0CE01089641
:1009F00068DDCE01439665DD0F900FBE81E0DF918B
:100A0000CF9108950F931F93F801611103C01183D3
:100A1000008302C051834083878F60A361E0CF01D0
:100A2000AEDF1F910F910895DF92EF92FF920F9327
:100A30001F93CF93DF93F82EE62ED42E869FC0010E
:100A40001124839658DCEC01009741F08C012D2D88
:100A5000AC014D5D5F4F6E2D8F2DD4DFCE01DF9148
:100A6000CF911F910F91FF90EF90DF900895CF925B
:100A7000DF92EF92FF920F931F93CF93DF93CDB747
:100A8000DEB729970FB6F894DEBF0FBECDBF7C014D
:100A90006B012E833F834887598710E00FB6F89487
:100AA0000F92F701968D878D981710F00230B1F4F0
:100AB000402FB601C701B6DEF7019389992341F0B3
:100AC000C70143960E94EE0F882321F0C8DD02C0C3
:100AD0008111C5DD0F900FBE81E04CC08E819F81DA
:100AE000A885B985892B8A2B8B2B21F40F900FBEFB
:100AF00080E040C0111105C0CE0101960E94B310E4
:100B000011E00F900FBE10D70FB6F8940F92F701B7
:100B100081A18F3F09F411A2F70182A18F3F09F44F
:100B200012A20F900FBEBE016A5F7F4FCE010196E9
:100B30000E94C410811119C0C70166DE882381F0AC
:100B40004E815F8168857985C70108960E94950F5F
:100B5000C701E1DE0E94D40D8111A0CF80DD9ECFC0
:100B6000C701D9DE0E94D40D99CFC701D4DE0E94FF
:100B7000D40D80E029960FB6F894DEBF0FBECDBF2E
:100B8000DF91CF911F910F91FF90EF90DF90CF9069
:100B900008950F93009769F0FC0115821482118269
:100BA0001082168200E020E030E0A90160E070E0F1
:100BB0005EDF0F910895CF93DF93482F60E081E0CF
:100BC00033DFEC01E6DFCE01DF91CF910895EF92A4
:100BD000FF920F931F93CF93DF938A01FC01568DF1
:100BE000378D531710F02230F9F4422F7801EC01C1
:100BF0001AA18E8DCE0116DE1F3F81F48B898823CA
:100C0000A9F0CE0143960E94EE0F882389F0E114EB
:100C1000F10481F081E0F70180830DC0FF24F3949B
:100C2000F10EFAA281E007C080E005C081E003C0B8
:100C300081E001C081E0DF91CF911F910F91FF9082
:100C4000EF900895CF92DF92EF92FF920F931F9350
:100C5000CF93DF93CDB7DEB729970FB6F894DEBFF9
:100C60000FBECDBF8C016B012E833F834887598710
:100C7000E12C0FB6F8940F92F801F68CFF2099F052
:100C8000B601C8012EDEFA94F801F68E808588231D
:100C900031F0C80108960E94EE0F8111E0DC0F9040
:100CA0000FBE81E04FC08E819F81A885B985892BB9
:100CB0008A2B8B2B21F40F900FBE80E043C0E110F4
:100CC00006C0CE0101960E94B310EE24E3940F906B
:100CD0000FBE2AD60FB6F8940F92F80181A18F3F6C
:100CE00009F411A2F80182A18F3F09F412A20F901A
:100CF0000FBEBE016A5F7F4FCE0101960E94C410F5
:100D0000811117C0C80173DD882379F04E815F819E
:100D100068857985C80143960E94950FC801FBDD5F
:100D200043D78111A6CF9BDCA4CFC801F4DD3CD70B
:100D3000A0CFC801F0DD38D7C80159DD882309F4F8
:100D400098CF80E029960FB6F894DEBF0FBECDBFD6
:100D5000DF91CF911F910F91FF90EF90DF90CF9097
:100D60000895CF93DF93EC010FB6F8940F9289A109
:100D70008F3F09F419A28AA18F3F09F41AA20F909C
:100D80000FBE8E8D811104C0CE0143960E94AC0F20
:100D9000CE01C1DDDF91CF910895FC0144815581E1
:100DA00022813381240F351F80819181B901681B15
:100DB000790BCB016417750710F0841B950B089510
:100DC0000F93FC018FE0DF011D928A95E9F775878B
:100DD0006487558344833783268306870F9108955C
:100DE000AF92BF92CF92DF92EF92FF920F931F9339
:100DF000CF93DF936C015B017A01FC01C281D38147
:100E0000048115810C1B1D0B4017510708F48A0142
:100E1000F60184859585A801B5018C0F9D1F0E9460
:100E2000F2270E151F0558F4A701401B510BB50101
:100E3000600F711FF601848595850E94F227CE010F
:100E40008E0D9F1DF601248135818217930710F0C6
:100E5000821B930BF60193838283C701DF91CF91AD
:100E60001F910F91FF90EF90DF90CF90BF90AF90C8
:100E70000895CF92DF92EF92FF920F931F93CF933B
:100E8000DF931F921F92CDB7DEB77C016B015A83AF
:100E9000498321153105C1F0FC01868580FD08C01C
:100EA0004217530708F49A013A83298381E00FC05F
:100EB0002017310758F042E050E0BE016F5F7F4FCE
:100EC000C7018EDF81E003C080E001C080E088239D
:100ED00031F049815A81B601C70182DF02C080E04A
:100EE00090E00F900F90DF91CF911F910F91FF90A5
:100EF000EF90DF90CF900895AF92BF92CF92DF92A4
:100F0000EF92FF920F931F93CF93DF937C015B01CE
:100F1000E9014217530708F4EA01209781F1F7012C
:100F20000081118184819581801B910B6E018C174A
:100F30009D0708F46C01F70164857585600F711FCA
:100F4000A601C5010E94F227CC16DD0658F4AE01B9
:100F50004C195D09F70164857585C5018C0D9D1DD2
:100F60000E94F2270C0F1D1FF7018481958108173D
:100F7000190710F0081B190BF70111830083CE012C
:100F8000DF91CF911F910F91FF90EF90DF90CF9065
:100F9000BF90AF9008956F927F928F929F92AF9281
:100FA000BF92CF92DF92EF92FF920F931F93CF9356
:100FB000DF931F921F92CDB7DEB76C014B015A0130
:100FC000790101151105B1F0FC0160807180A80163
:100FD000BE016F5F7F4F90DF89819A81E01AF10A2D
:100FE000A816B90630F4F60171826082A12CB12CEA
:100FF00001C05C019701A501B401C6017DDF0F901E
:101000000F90DF91CF911F910F91FF90EF90DF90A4
:10101000CF90BF90AF909F908F907F906F900895EA
:10102000CF92DF92EF92FF920F93CF93DF93EC0179
:101030006B01413011F401E001C000E0C114D104A2
:1010400019F4CC24C394D12CCE014096C817D907EB
:1010500020F4219650D97C0102C0E12CF12CE1143E
:10106000F10439F09601AE01B701615F7F4FC7010E
:10107000A7DEC701DF91CF910F91FF90EF90DF9036
:10108000CF9008950F930FB6F8940F92FC0120852E
:101090003185232B71F422853385232B61F426813E
:1010A00037814481558164857585068589DE81E0B7
:1010B00003C080E001C080E00F900FBE0F91089543
:1010C000FC012481358180819181820F931F4281AF
:1010D0005381841B950B01978217930710F0821B95
:1010E000930B08952F923F924F925F926F927F924F
:1010F0008F929F92AF92BF92CF92DF92EF92FF9228
:101100000F931F93CF93DF93CDB7DEB72B970FB617
:10111000F894DEBF0FBECDBF4C017B876A871A01F2
:101120000E831F8328873987FC018481958101976D
:10113000268520FF0CC02A01F2E04F0E511C8415B9
:10114000950558F41E821F821886198606C08417DA
:10115000950710F02A0101C02C018E819F81A8857E
:10116000B985892B8A2B8B2B09F436C0CE010196C9
:10117000E4D70FB6F8940F92C401A2DF3C018415A6
:10118000950538F560E080E090E00E945C140E94D4
:101190002E11F401938782870F900FBEAE80BF801F
:1011A000C884D984E12CF12C00E010E0980140E0E3
:1011B00050E0BA0180E00E949C11F401138612866F
:1011C000BE016A5F7F4FCE010196DED7882389F288
:1011D00005C00F900FBE02C0612C712C6114710408
:1011E00019F4C4016DDF3C0182019301A1016A85FC
:1011F0007B85C4013EDE6C01892BE9F0C401CDDDA5
:10120000F4012681378182179307A8F08DD3F4016A
:1012100080859185892B71F080859185E12CF12C59
:1012200000E020E030E0A90160E00E944312F401F8
:1012300011861086B9D4C6012B960FB6F894DEBF7E
:101240000FBECDBFDF91CF911F910F91FF90EF9017
:10125000DF90CF90BF90AF909F908F907F906F90D6
:101260005F904F903F902F900895AF92BF92CF9292
:10127000DF92EF92FF920F931F93CF93DF93EC01D6
:101280007B015A0169018E8580FF04C08A010E5FCF
:101290001F4F01C08A01CE0113DF9C01A501B701D8
:1012A000CE01E7DD5C01892BC1F0CE0176DD2E8118
:1012B0003F818217930788F088859985892B69F08B
:1012C00088859985E12CF12C00E020E030E0A9012F
:1012D00060E00E943A1319861886C501DF91CF910C
:1012E0001F910F91FF90EF90DF90CF90BF90AF9044
:1012F00008954F925F926F927F928F929F92AF92DA
:10130000BF92CF92DF92EF92FF920F931F93CF93F2
:10131000DF93EC012B013A01580169018E8580FFB2
:1013200005C06894882481F8912C02C0812C912CEE
:10133000A114B104C104D10431F10FB6F8940F9295
:10134000CE012BDD7C018816990640F060E080E03C
:1013500090E00E945C1482D7998788870F900FBE17
:101360008E149F0498F0E12CF12C00E010E098011D
:1013700040E050E0BA0180E0DFD719861886CE0140
:101380000CDD7C0103C0CE0108DD7C018E149F04BE
:10139000E8F484019701A301B201CE01FCDD6C01E8
:1013A000892BB1F0C1D28A859B85892B69F08A850A
:1013B0009B85E12CF12C00E020E030E0A90160E009
:1013C0000E9443121B861A86EFD302C0C12CD12C77
:1013D000C601DF91CF911F910F91FF90EF90DF90A9
:1013E000CF90BF90AF909F908F907F906F905F90C5
:1013F0004F900895E091B510F091B6108081811161
:101400000CC08FEF9FEFDC0180937F1090938010D2
:10141000A0938110B09382100895E091B510F091DF
:10142000B6100780F085E02D80819181A281B38183
:1014300080937F1090938010A0938110B0938210BE
:101440000895CF93DF93EC018B8D9C8D0E94240235
:10145000CE010E942402DF91CF9108954F925F92B6
:101460006F927F928F929F92AF92BF92CF92DF92B4
:10147000EF92FF920F93CF93DF932C015B014A0110
:101480003901E60165EA70E08B8D9C8D0E94FB2797
:101490008B8D9C8D21E0821A9108880E991EA114D3
:1014A000B10489F415C0822F90E0F501E80FF91F0F
:1014B0003081DE01A80FB91F5D963C93808188239F
:1014C00029F02F5F01C020E0203168F31CA601C085
:1014D0001D8E0A3008F009E00A8F0DA71EA6CE0166
:1014E000029600D8CE010E960E947202DB87CA8750
:1014F0008AE090E0A0E0B0E0801B9109A109B10969
:101500008E879F87A88BB98BDF8BCE8B84E0FE0103
:10151000BF96DF011D928A95E9F71BAAA301B201CC
:10152000C40154D899838883E114F10419F0F701B8
:10153000D183C083DF91CF910F91FF90EF90DF9027
:10154000CF90BF90AF909F908F907F906F905F9063
:101550004F900895CF93C0E009C02BE0C29FC00117
:10156000112483539F4E0E946102CF5FCA30A8F3BB
:1015700082EC90E10E94610287EB90E10E9461029F
:1015800088EA90E10E9461028DE990E10E94610287
:1015900081E990E10E94610282EC90E19093B610A3
:1015A0008093B51087EB90E19093B4108093B310C3
:1015B000CF910895CF93DF93EC010FB6F8940F927B
:1015C000809190108F5F8093901080913B1190914B
:1015D0003C11892B51F4D0933C11C0933B11809165
:1015E0009010813091F4B6DF10C080918A10811183
:1015F0000CC0E0913B11F0913C11928D8A8D8917BE
:1016000020F0D0933C11C0933B11809183108F5FE9
:1016100080938310EA8D80918B108E1710F4E093E5
:101620008B108BE08E9FF0011124E353FF4E01805D
:10163000F281E02DFF83EE83268137813987288769
:10164000A681B7819E012E5F3F4F15963C932E9346
:10165000149737832683EA8D8E9FF0011124E3537C
:10166000FF4EFD87EC8780818F5F80830F900FBED8
:1016700080918A10882351F0E0913B11F0913C1148
:10168000928D8A8D981710F40E942F03DF91CF91CD
:101690000895CF93DF931BC00FB6F8940F92E0919B
:1016A000A410F091A510C085D185CE0102960E94AC
:1016B000B3028091901081508093901080919C1083
:1016C000815080939C100F900FBECE01BADE8091A6
:1016D0009C108111E1CFDF91CF9108958F929F925D
:1016E000AF92BF92CF92DF92EF92FF92CF93DF93B0
:1016F0006B017C01C42F80908C1090908D10A09075
:101700008E10B0908F1080913B1190913C110296F9
:101710000E94B3028FEFC816D806E806F806B1F5A6
:10172000CC23A1F1E1E9F0E1A181B281C0913B11AB
:10173000D0913C11BF83AE83C0913B11D0913C113D
:1017400016968D919C911797998788871696CD91BB
:10175000DC91179780913B1190913C1102969D83EB
:101760008C8380913B1190913C11029617969C932B
:101770008E931697A0913B11B0913C111D96FC934E
:10178000EE931C9780818F5F80833FC0C80CD91C6B
:10179000EA1CFB1CE0913B11F0913C11C282D38208
:1017A000E482F582C814D904EA04FB0468F4609169
:1017B0003B1170913C118091B3109091B4106E5F09
:1017C0007F4F0E94760221C060913B1170913C11C5
:1017D0008091B5109091B6106E5F7F4F0E94760297
:1017E00080917F1090918010A0918110B091821013
:1017F000C816D906EA06FB0640F4C0927F10D092C4
:101800008010E0928110F0928210DF91CF91FF90D2
:10181000EF90DF90CF90BF90AF909F908F90089502
:101820002F923F924F925F926F927F928F929F92F0
:10183000AF92BF92CF92DF92EF92FF920F93CF932E
:10184000DF933C011B014A012901CA010E947B016F
:101850006C01892B71F084E390E00E947B01EC0124
:10186000892B19F0DC8ECB8E06C0C6010E942402A3
:1018700002C0C0E0D0E0209761F0A12CB12C6E0135
:101880009201A401B101C301E9DDCE0193DE81E043
:1018900001C08FEFDF91CF910F91FF90EF90DF901C
:1018A000CF90BF90AF909F908F907F906F905F9000
:1018B0004F903F902F900895EF92FF920F930F2E2D
:1018C000FDE7EF2EF0E1FF2EF02D00E020E030E00C
:1018D00040EC50E062E472E08DEC90E0A1DF8130FA
:1018E00011F40E9400158130C9F4F8948FEF9FEF36
:1018F000DC0180937F1090938010A0938110B093AF
:10190000821081E080938A1010928C1010928D10BA
:1019100010928E1010928F100E94FD02809106028C
:101920000F91FF90EF90089580917C108F5F8093CE
:101930007C1008950FB6F8940F9260918C107091FE
:101940008D1080918E1090918F100F900FBE089582
:10195000CF92DF92EF92FF92CF93DF9380917C1032
:10196000811105C1C0908C10D0908D10E0908E1028
:10197000F0908F108FEFC81AD80AE80AF80AC092C0
:101980008C10D0928D10E0928E10F0928F10C114B6
:10199000D104E104F104B1F48091B5109091B61036
:1019A0002091B3103091B4103093B6102093B5103D
:1019B0009093B4108093B310809184108F5F8093C4
:1019C000841018DD80917F1090918010A09181107B
:1019D000B0918210C816D906EA06FB0620F480E012
:1019E000B2C081E001C080E0E091B510F091B61086
:1019F000908191110CC04FEF5FEFBA0140937F10BF
:101A00005093801060938110709382109CC0E0917D
:101A1000B510F091B6100780F085E02D0084F185B7
:101A2000E02D4281538164817581C416D506E60696
:101A3000F70648F440937F10509380106093811014
:101A40007093821080C0A485B585C681D78120851A
:101A500031853F832E83C085D185268137813D83A3
:101A60002C8311964D915C9112979F012E5F3F4FF1
:101A70004217530731F44085518512965C934E937B
:101A80001197158614869C9191509C93A08DB18DD1
:101A9000109709F1C289D389448955895F834E83A0
:101AA000C489D589428953895D834C8311966D9190
:101AB0007C911297AF01425F5F4F6417750731F455
:101AC0004489558912965C934E931197118E108E0E
:101AD0009C9191509C93A28D90918B109A1710F429
:101AE000A0938B109BE09A9FD0011124A353BF4E6B
:101AF00011960D90BC91A02DB783A68316964D919B
:101B00005C911797518740871696CD91DC91179776
:101B10003D832C8317963C932E931697A28D9A9F04
:101B2000D0011124A353BF4EB587A4879C919F5F1A
:101B30009C93228DE0913B11F0913C11928D2917DD
:101B400008F04FCF51CFE0913B11F0913C11E28D65
:101B50009BE0E99FF0011124E353FF4E9081923006
:101B600008F081E090918510911116C016C0809107
:101B7000861090918710A0918810B09189100196DD
:101B8000A11DB11D8093861090938710A09388109B
:101B9000B093891080E001C081E0DF91CF91FF9088
:101BA000EF90DF90CF900895CF92DF92EF92FF9267
:101BB000CF93DF930FB6F8940F9280917C108150F1
:101BC00080937C1080917C108111BEC08091901018
:101BD000811188C0BCC0E091AF10F091B0100084BA
:101BE000F185E02DA08DB18DC289D3898489958935
:101BF0009F838E83C489D589828993899D838C83B1
:101C000011962D913C911297CF010E962817390706
:101C100031F48489958912969C938E931197118E35
:101C2000108E8C9181508C93A485B585C681D78107
:101C3000808591859F838E83C085D185868197819C
:101C40009D838C8311968D919C9112979F012E5F9D
:101C50003F4F8217930731F48085918512969C93AC
:101C60008E931197158614868C9181508C93A28D3A
:101C700080918B108A1710F4A0938B108BE08A9FB1
:101C8000D0011124A353BF4E11960D90BC91A02DED
:101C9000B783A68316964D915C911797518740871D
:101CA0001696CD91DC9117973D832C8317963C9324
:101CB0002E931697A28D8A9FD0011124A353BF4E55
:101CC000B587A4878C918F5F8C93928DA0913B11E7
:101CD000B0913C115A968C91981730F081E0809326
:101CE000851002C0E0E0F0E08091A810811173CF70
:101CF000EF2B09F07FDBC0908610D0908710E0902A
:101D00008810F0908910C114D104E104F104A1F00D
:101D10001FDE882319F081E08093851081E0C81AC6
:101D2000D108E108F108A1F71092861010928710EF
:101D3000109288101092891080918510882331F0BC
:101D40000E942F0381E003C080E001C080E00F907B
:101D50000FBEDF91CF91FF90EF90DF90CF9008956D
:101D60008F929F92AF92BF92CF92DF92EF92FF92AB
:101D70001F93CF93DF93EC016A017B01D5DD809047
:101D80008C1090908D10A0908E10B0908F10888144
:101D90009981AA81BB81AC01BD014C0D5D1D6E1DF9
:101DA0007F1D88169906AA06BB0660F448175907D6
:101DB0006A077B0798F484169506A606B70680F096
:101DC00010E013C0481759076A077B0758F08416BC
:101DD0009506A606B70640F010E007C010E005C063
:101DE00011E003C011E001C011E0488359836A8308
:101DF0007B83112341F0CB01BA01681979098A0963
:101E00009B0940E06BDCD0DE811102C00E942F03F1
:101E1000812FDF91CF911F91FF90EF90DF90CF90B6
:101E2000BF90AF909F908F900895CF92DF92EF92E6
:101E3000FF926B017C01672B682B692B39F074DDF5
:101E400040E0C701B6014ADCAFDE01C080E081118D
:101E500002C00E942F03FF90EF90DF90CF90089573
:101E600080917C10882321F081E080938510089573
:101E700010928510E0913B11F0913C11208131814D
:101E8000E0913B11F0913C11838D948D8217930763
:101E900060F060913B1170913C11635E7F4F8091C7
:101EA0003B1190913C110E948E1780918B1001C0C4
:101EB0008150282F30E09BE0929FF001939FF00D1E
:101EC0001124E353FF4E9081992391F39BE0929F5D
:101ED000A001939F500D1124DF010180F281E02DBC
:101EE0000480F581E02D1296FC93EE9311974053F8
:101EF0005F4EE417F50729F444815581FD015283B3
:101F000041839BE0929FF001939FF00D1124E353D6
:101F1000FF4E0180F281E02D2085318530933C1108
:101F200020933B1180938B100895CF92DF92EF9214
:101F3000FF926A017B0160913B1170913C11625FDD
:101F40007F4F0E94760241E0C701B601C7DBFF90D8
:101F5000EF90DF90CF900895CF93DF93FC01CB01FA
:101F6000BA01A181B281C0913B11D0913C11BB8BD0
:101F7000AA8BC0913B11D0913C1116964D915C916A
:101F800017975D8B4C8B1696CD91DC9117974091EE
:101F90003B1150913C11425F5F4F5D834C834091F8
:101FA0003B1150913C11425F5F4F17965C934E93EB
:101FB0001697A0913B11B0913C115996FC93EE936A
:101FC000589730813F5F3083222319F06FEF7FEF06
:101FD000CB01422F83DBDF91CF910895CF93DF9325
:101FE000DC011796ED91FC9118970084F185E02DA6
:101FF000A08DB18DC289D389848995899F838E8371
:10200000C489D589828993899D838C8311968D910A
:102010009C9112979F01225F3F4F8217930731F4E3
:102020008489958912969C938E931197118E108EA8
:102030008C9181508C9380917C10811152C0A48529
:10204000B585C681D781808591859F838E83C08524
:10205000D185868197819D838C8311968D919C91EA
:1020600012979F012E5F3F4F8217930731F48085AF
:10207000918512969C938E931197158614868C9158
:1020800081508C93A28D80918B108A1710F4A093AD
:102090008B108BE08A9FD0011124A353BF4E119661
:1020A0000D90BC91A02DB783A68316964D915C919F
:1020B0001797518740871696CD91DC9117973D83EE
:1020C0002C8317963C932E931697A28D8A9FD0014E
:1020D0001124A353BF4EB587A4878C918F5F8C9337
:1020E0001CC048EA50E1DA011196CD91DC911297BB
:1020F000D38BC28B8E819F81958B848B8E819F81A8
:10210000DC0115963C932E9314973F832E83518FB9
:10211000408FDA018C918F5F8C93928DE0913B110F
:10212000F0913C11828D891720F481E08093851015
:1021300001C080E0DF91CF9108950FB6F8940F921F
:1021400020918410FC01208340918C1050918D10BF
:1021500060918E1070918F104183528363837483DA
:102160000F900FBE089520918410FC0120834091B0
:102170008C1050918D1060918E1070918F10418352
:1021800052836383748308958F929F92AF92BF921C
:10219000CF92DF92EF92FF920F931F93CF93DF9333
:1021A000FB010FB6F8940F92C0908C10D0908D1058
:1021B000E0908E10F0908F10DC0111960D911D9122
:1021C0002D913C91149746015701801A910AA20A59
:1021D000B30A40815181628173814F3FBFEF5B073A
:1021E0006B077B0739F1EC01B881A0918410BA1715
:1021F00059F0C016D106E206F30630F010821182C3
:102200001282138281E017C084169506A606B706CF
:1022100058F4481959096A097B094083518362833C
:102220007383A1DF80E007C01082118212821382C3
:1022300081E001C080E00F900FBEDF91CF911F9130
:102240000F91FF90EF90DF90CF90BF90AF909F9055
:102250008F90089581E080938510089580913B11BF
:1022600090913C11089580918A10882331F08091DB
:102270007C10811104C082E0089581E0089580E01F
:1022800008950F931F93CF93DF93FC01892B09F4DB
:1022900049C086A5815086A7228D95A5291709F4E6
:1022A00043C0811143C0EF018F010E5F1F4FC80172
:1022B0000E94B302EDA5EA8F8AE090E0A0E0B0E0D2
:1022C0008E1B9109A109B1098E879F87A88BB98BB5
:1022D00080918B108E1710F4E0938B108BE08E9F03
:1022E000F0011124E353FF4E0180F281E02DFF83C2
:1022F000EE832681378139872887A681B781159695
:102300001C930E93149717830683EA8D8E9FF0011A
:102310001124E353FF4EFD87EC8780818F5F80831C
:1023200081E005C080E003C080E001C080E0DF9173
:10233000CF911F910F9108954F925F926F927F926C
:10234000AF92BF92CF92DF92EF92FF920F931F93C3
:10235000CF93DF93280139010FB6F8940F92E091E3
:102360003B11F0913C11C82FD0E0EC0FFD1F83A969
:10237000823071F1E0913B11F0913C11CE01880F58
:10238000991F880F991FE80FF91F87A590A9A1A988
:10239000B2A94095509560957095482359236A23BA
:1023A0007B2347A750AB61AB72ABE0913B11F0913F
:1023B0003C11EC0FFD1F81E083ABA114B104C104FB
:1023C000D10431F041E0C601B50188D90E942F0344
:1023D0000F900FBE0FB6F8940F92E114F104A1F024
:1023E000E0913B11F0913C11CE01880F991F880FAD
:1023F000991FE80FF91F87A590A9A1A9B2A9F70114
:1024000080839183A283B383E0913B11F0913C11CF
:10241000EC0FFD1F83A98230E9F4E0913B11F091AC
:102420003C11CE01880F991F880F991FE80FF91FE3
:1024300087A590A9A1A9B2A94094509460947094E2
:10244000482259226A227B2247A650AA61AA72AA70
:1024500081E001C080E020913B1130913C11C20F1E
:10246000D31F1BAA0F900FBEDF91CF911F910F9129
:10247000FF90EF90DF90CF90BF90AF907F906F90E4
:102480005F904F9008958F929F92AF92BF92EF927C
:10249000FF920F93CF93DF93DC010FB6F8940F9266
:1024A000E114F10489F0E62FF0E0EE0FFF1FEE0FCC
:1024B000FF1FE80FF91F87A490A8A1A8B2A8F701F1
:1024C00080829182A282B38270E0FD01E60FF71F45
:1024D00083A992E093AB023001F118F4013031F09E
:1024E0004DC0033079F10430D1F148C0660F771F39
:1024F000660F771FFD01E60FF71F87A490A8A1A81C
:10250000B2A8BA01A901482959296A297B2947A7F4
:1025100050AB61AB72AB01E034C0660F771F660F42
:10252000771FFD01E60FF71F47A550A961A972A902
:102530004F5F5F4F6F4F7F4F47A750AB61AB72ABA1
:1025400001E01FC0660F771F660F771FFD01E60FC2
:10255000F71F27A730AB41AB52AB01E012C082306E
:1025600079F0660F771F660F771FFD01E60FF71FE3
:1025700027A730AB41AB52AB01E003C001E001C083
:1025800000E0813009F069C01C96ED91FC911D9727
:102590001696CD91DC91179718968D919C9119976D
:1025A0009F838E831896CD91DC91199716968D9105
:1025B0009C9117979D838C83818192819D012E5FD1
:1025C0003F4F8217930731F418968D919C9119977C
:1025D000928381831D961C921E921C97808181504C
:1025E00080835A96EC915A9780918B108E1710F435
:1025F000E0938B108BE08E9FF0011124E353FF4E8C
:102600000180F281E02D1796FC93EE931697468198
:10261000578119965C934E931897C681D7813D8355
:102620002C83378326835A96EC915A978E9FF0011C
:102630001124E353FF4E1D96FC93EE931C9780816B
:102640008F5F80835A969C91E0913B11F0913C11F1
:10265000828D891710F40E942F030F900FBE802FD8
:10266000DF91CF910F91FF90EF90BF90AF909F902F
:102670008F9008958F929F92AF92BF92CF92DF92E8
:10268000EF92FF920F93CF93DF93DC01E114F104FB
:1026900089F0E62FF0E0EE0FFF1FEE0FFF1FE80FAF
:1026A000F91F87A490A8A1A8B2A8F70180829182FF
:1026B000A282B38270E0FD01E60FF71F93A982E0CA
:1026C00083AB023001F118F4013031F04DC003301A
:1026D00079F10430D1F148C0660F771F660F771F7C
:1026E000FD01E60FF71F87A490A8A1A8B2A8BA0120
:1026F000A901482959296A297B2947A750AB61AB11
:1027000072AB81E034C0660F771F660F771FFD0143
:10271000E60FF71F47A550A961A972A94F5F5F4F48
:102720006F4F7F4F47A750AB61AB72AB81E01FC0CB
:10273000660F771F660F771FFD01E60FF71F27A7AC
:1027400030AB41AB52AB81E012C0923079F0660FF2
:10275000771F660F771FFD01E60FF71F27A730AB26
:1027600041AB52AB81E003C081E001C080E0913019
:1027700009F096C090917C1091115FC01C96ED916C
:10278000FC911D971696CD91DC91179718962D9177
:102790003C9119973F832E831896CD91DC91199720
:1027A00016962D913C9117973D832C834181528140
:1027B0009D012E5F3F4F4217530731F418964D91FC
:1027C0005C911997528341831D961C921E921C970F
:1027D0009081915090835A96EC915A9790918B10DA
:1027E0009E1710F4E0938B109BE09E9FF001112444
:1027F000E353FF4E0180F281E02D1796FC93EE9398
:1028000016974681578119965C934E931897C68107
:10281000D7813D832C83378326835A96EC915A9730
:102820009E9FF0011124E353FF4E1D96FC93EE93FF
:102830001C9790819F5F908321C068EA70E1FB0143
:10284000C181D2815396DC93CE9352972E813F81E2
:1028500055963C932E9354974E815F819D01225F44
:102860003F4FFA01358324833F832E8359967C930F
:102870006E935897FB0190819F5F90835A962C919D
:10288000E0913B11F0913C11928D921748F4C114E4
:10289000D10419F091E0F601908391E090938510B6
:1028A000DF91CF910F91FF90EF90DF90CF90BF908D
:1028B000AF909F908F900895009721F480913B11E5
:1028C00090913C110FB6F8940F9270E0FC01E60F66
:1028D000F71F23A9223031F4FC01E60FF71F13AADA
:1028E00081E001C080E00F900FBE0895DC01E0910F
:1028F0004711F0914811808191E0811190E09C9303
:10290000911108C00780F085E02D6081718182817E
:102910009381089560E070E0CB010895CF92DF923B
:10292000EF92FF920F931F93FC01428353836483C2
:102930007583938782870417150726073707C0F02A
:102940000C191D092E093F0986859785A089B18933
:10295000081719072A073B0700F5BF016E5F7F4F75
:1029600080914511909146110E94760280E018C036
:102970000C151D052E053F0528F44C155D056E054B
:102980007F0568F4BF016E5F7F4F80914711909182
:1029900048110E94760280E003C081E001C081E01E
:1029A0001F910F91FF90EF90DF90CF9008950FB699
:1029B000F8940F928091431190914411892BE9F47E
:1029C00084E591E10E94610289E491E10E94610243
:1029D00084E591E1909348118093471189E491E156
:1029E000909346118093451140E067E08AE00E9491
:1029F000140590934411809343110F900FBE0895D6
:102A0000EF92FF920F93D3DF809143119091441185
:102A1000892B91F00F2EF1E4EF2EF1E1FF2EF02D36
:102A200003E020E030E040EC50E067E472E087ED46
:102A300090E00E94100C01C080E00F91FF90EF9099
:102A400008958F929F92AF92BF92CF92DF92EF92B2
:102A5000FF920F931F93CF93DF93CDB7DEB72797E6
:102A60000FB6F894DEBF0FBECDBFE0914311F091D9
:102A70004411309781F169832A833B834C835D83C2
:102A80009F838E836630F4F4EEDB823069F400E0DD
:102A9000A7019601BE016F5F7F4F80914311909116
:102AA00044110E94370518C000E020E030E0A90181
:102AB000BE016F5F7F4F80914311909144110E943E
:102AC00037050AC020E0A801BE016F5F7F4FCF012C
:102AD0000E94E70501C080E027960FB6F894DEBF9C
:102AE0000FBECDBFDF91CF911F910F91FF90EF905F
:102AF000DF90CF90BF90AF909F908F9008958F926E
:102B00009F92AF92BF92CF92DF92EF92FF920F937C
:102B10001F93CF93DF933BC00780F085E02D80802B
:102B20009180A280B380C085D1858E010E5F1F4F3A
:102B3000C8010E94B302EC89FD89CE0119958E89E6
:102B400082FF25C08E859F85A889B989880D991D2A
:102B5000AA1DBB1D88169906AA06BB0670F48A83B7
:102B60009B83AC83BD83DB87CA87B8018091471103
:102B7000909148110E9476020AC0C12CD12C760196
:102B800000E010E0A501940160E0CE015ADFE09181
:102B90004711F091481180818111BECF809145117C
:102BA000909146119093481180934711F0934611EC
:102BB000E0934511DF91CF911F910F91FF90EF901E
:102BC000DF90CF90BF90AF909F908F900895CF925D
:102BD000DF92EF92FF92CF93DF93EC010E949A0C69
:102BE0006B017C0180913D1190913E11A0913F11AC
:102BF000B0914011C816D906EA06FB0620F47FDF23
:102C000081E0888301C01882C0923D11D0923E11AC
:102C1000E0923F11F0924011C701B601DF91CF91D0
:102C2000FF90EF90DF90CF9008954F925F926F9258
:102C30007F928F929F92AF92BF92CF92DF92EF924C
:102C4000FF920F931F93CF93DF934B015C012901F8
:102C50003A01E0914711F09148110780F085E02D8D
:102C6000C085D185CE0102960E94B3028E8982FF73
:102C70001BC04E855F8568897989480D591D6A1D7D
:102C80007B1D7501640193018201CE0147DE88231B
:102C900069F0C12CD12C760100E010E0A50194016F
:102CA00060E0CE01CEDE02C08E7F8E8BEC89FD8986
:102CB000CE011995DF91CF911F910F91FF90EF9069
:102CC000DF90CF90BF90AF909F908F907F906F904C
:102CD0005F904F9008958F929F92AF92BF92CF9244
:102CE000DF92EF92FF921F93CF93DF931F92CDB7A6
:102CF000DEB76B017C01142F0E94940CCE0101966B
:102D000066DF4B015C01898181112DC011110DC05D
:102D10008C149D04AE04BF0440F00E94D40DA501A4
:102D20009401C701B60181DF20C0112341F0E09179
:102D30004511F0914611808111E0811110E0B70139
:102D4000A601481959096A097B09212F809143116D
:102D5000909144110E94B1060E94D40D811105C0CA
:102D60000E942F0302C00E94D40D0F90DF91CF91DB
:102D70001F91FF90EF90DF90CF90BF90AF909F900A
:102D80008F900895AF92BF92CF92DF92EF92FF9211
:102D90000F931F93CF93DF93CDB7DEB728970FB66E
:102DA000F894DEBF0FBECDBF82C0898188230CF4AA
:102DB0007EC0AE80BF80D5011C968D919C911D97E1
:102DC000892B21F0C50102960E94B302CE0108961C
:102DD000FEDE8B019C01E9810E2E000CFF0BEA3018
:102DE000F10508F064C08827EE58FF4F8F4F0C9410
:102DF000AB26F50186898160868BCA80DB80EC80FA
:102E0000FD8046855785608971894C0D5D1D6E1D5D
:102E10007F1DC50183DD882309F449C0D50154967F
:102E2000ED91FC915597C5011995F501868982FFB1
:102E30003EC04A815B816C817D8186859785A089B2
:102E4000B1899A01AB01280F391F4A1F5B1FC12CA2
:102E5000D12C760100E010E060E0C501F2DD27C072
:102E6000D50156968C9156978E7F56968C931FC09F
:102E7000F50186898160868B4A815B816C817D81C9
:102E800046875787608B718B400F511F621F731FDE
:102E900068017901C50142DD0AC0F501868981FD1D
:102EA00004C0C5010E94240202C08E7F868B20E0F0
:102EB00030E0A901BE016F5F7F4F80914311909177
:102EC00044110E942206811170CF28960FB6F89403
:102ED000DEBF0FBECDBFDF91CF911F910F91FF904D
:102EE000EF90DF90CF90BF90AF900895089584B198
:102EF000806884B985B1806885B9089583B1806898
:102F000083B90895F4DF2FEF80E792E021508040ED
:102F10009040E1F700C00000F1DFF5CFE8DF2FEFD0
:102F200087EA91E6215080409040E1F700C0000020
:102F3000E5DFF5CFCF93DF9300D01F92CDB7DEB79B
:102F40000E949A0C69837A838B839C834FE150E0C3
:102F500060E070E0CE0101960E94B00E8FE492E036
:102F60000E94642892B181E0892782B9EFCFCF9384
:102F7000DF9300D01F92CDB7DEB70E949A0C698311
:102F80007A838B839C834EE350E060E070E0CE0157
:102F900001960E94B00E85E592E00E94642882B1FD
:102FA000805882B9F0CFEF92FF920F938091421335
:102FB00090914313892B89F481E00E94DB05909363
:102FC000431380934213009741F000E020E030E08B
:102FD000A90160E070E00E943705E12CF12C02E0CD
:102FE00020E030E040EC50E06FE472E08AE997E1E5
:102FF0000E94100C01E020E030E040EC50E065E57C
:1030000072E087EB97E10E94100C0F91FF90EF9018
:10301000089581B1816881B980E00E945822C3DFA0
:1030200085E00E945F2360E070E081E042D383E0AE
:1030300083C10895EEDF8BE592E00E9464280E9430
:103040005C0CFFCFCF92DF92EF92FF920F931F9312
:10305000CF93DF93F62EE72ED82EC92EC22FD32F73
:10306000142F052F82D170937A11609379116C2FF0
:103070007D2F812F902F74D17093781160937711E9
:10308000CF92DF92EF92FF928DE692E09F938F9323
:103090000E9451280F931F93DF93CF938CE792E008
:1030A0009F938F930E9451288DB79EB70C960FB6B1
:1030B000F8949EBF0FBE8DBFDF91CF911F910F91EE
:1030C000FF90EF90DF90CF900895CF92DF92EF9234
:1030D000FF92CF93DF93EC019DD16B017C01AFD1C7
:1030E000A7019601AFDFEFE5F1E186E0818382E0A1
:1030F00080838091791190917A119283838380915A
:1031000077119091781194838583809175119091B6
:1031100076119683878386E1DE0101900D928A9570
:10312000E1F7CE01DF91CF91FF90EF90DF90CF904C
:103130000895CF93DF9381E00E94AD2308D384D517
:103140009F938F938BE892E09F938F930E945128D7
:103150007CD47AD59F938F938EE992E09F938F933F
:103160000E94512881E991E104D36ED5C1E9D1E1F2
:10317000DF93CF939F938F9387EB92E09F938F93EF
:103180000E945128CE0111D35FD59F938F93DF9377
:10319000CF938BEC92E09F938F930E945128AE01C6
:1031A00060EE72E081E093E02ED54ED59F938F9331
:1031B000DF93CF9380EE92E09F938F9381E093E033
:1031C0009F938F9382E193E09F938F930E94512866
:1031D0001FD33AD59F938F9388E493E09F938F9367
:1031E0000E9451288DB79EB782960FB6F8949EBF65
:1031F0000FBE8DBF81E006D427D59F938F9387E5BF
:1032000093E09F938F930E94512884EF91E005D41F
:103210001BD59F938F9381E08F9384EF8F9388E7E3
:1032200093E09F938F930E9451288DB79EB70A9683
:103230000FB6F8949EBF0FBE8DBFCAE080E0EED2FD
:10324000D82F02D59F938F931F92CF9388E993E055
:103250009F938F930E9451280F900F900F900F9083
:103260000F900F90D83059F080E00E94112466E34F
:1032700071E080E090E00E94150FC150F9F6D8305F
:1032800021F481E00E94F32309C081E00E9402241E
:1032900080E00E94D0230E942F03FDCFDF91CF91C9
:1032A0000895CF93DF93CDB7DEB76A970FB6F89442
:1032B000DEBF0FBECDBF81E03CD262E070E080E0B7
:1032C00090E00E94150F80E034D266E970E080E063
:1032D00090E00E94150FE6D12CDF0E949A0C6983C2
:1032E0007A838B839C8348EA58E460E070E0CE01E7
:1032F00001960E94B00ECE010596E7DE86E1FE0142
:103300003596ABE7B1E101900D928A95E1F783E044
:103310000E9423246BE771E180E0A9D295D49F93AA
:103320008F9388EB93E09F938F930E9451280F9087
:103330000F900F900F90D7CFEF92FF920F93E12C49
:10334000F12C082F20E030E048E851E06DEC73E00C
:1033500081E599E10E94100C0F91FF90EF90089584
:1033600004D06894B11150C0089533D088F09F57AD
:1033700090F0B92F9927B751A0F0D1F0660F771FC1
:10338000881F991F1AF0BA95C9F712C0B13081F0A1
:103390003AD0B1E0089537C0672F782F8827B85FFB
:1033A00039F0B93FCCF3869577956795B395D9F702
:1033B0003EF490958095709561957F4F8F4F9F4F0C
:1033C000089557FD9058440F551F59F05F3F71F015
:1033D0004795880F97FB991F61F09F3F79F087957C
:1033E0000895121613061406551FF2CF4695F1DF05
:1033F00008C0161617061806991FF1CF8695710595
:10340000610508940895E894BB2766277727CB01C8
:1034100097F908956091090270910A0280E090E0A6
:103420000E94E02520E030E048EC52E40E9445266E
:1034300020E038EF4FE756E40C947525089560912D
:1034400007027091080280E090E00E94E02520E0F1
:1034500030E045E253E40E94452620E038EF4FE794
:1034600056E40E94752520E030E040E252E40C94DE
:103470000E2508950F931F93CF93DF931F921F92F2
:10348000CDB7DEB78C0119822DC0E0915912EC3214
:1034900050F481E08E0F80935912F0E0E557FD4E15
:1034A0008A81808302C0109259128A818A30D1F4B5
:1034B0004091591250E0FA01E757FD4E10824150F9
:1034C00051099E012F5F3F4F6BE872E180915C12C2
:1034D00090915D120E943509898181110E942F030C
:1034E00010925912BE016E5F7F4FC8014BD58823E1
:1034F00061F20F900F90DF91CF911F910F9108957E
:103500000F931F93CF93DF938C01EB0180915C129B
:1035100090915D120E944208B80185EF91E10E94EE
:103520003228209779F0E5EFF1E101900020E9F7EA
:10353000319780E290E091838083BE0185EF91E135
:103540000E942728E5EFF1E1DF010D900020E9F767
:1035500011978DE09AE011969C938E9312961C928F
:1035600001900020E9F73197E55FF141AE2F85EF3B
:1035700091E1AC016A2F80915E1290915F12ADD4FF
:10358000811111C008E215E020E030E04DE250E08A
:1035900065EE72E180915C1290915D120E94790952
:1035A00085EE92E102C080E090E0DF91CF911F9123
:1035B0000F9108952F923F924F925F926F927F9258
:1035C0008F929F92AF92BF92CF92DF92EF92FF9233
:1035D0000F931F93CF93DF935C01FC0101900020B8
:1035E000E9F731976F01C81AD90A5C2C0F2EFDE656
:1035F0008F2EF6E09F2EF02DE12CF12C4C2C370174
:10360000F40101811281E80109900020E9F7219776
:10361000C01BD10B3C2EF9E0CF16D10458F0F401B9
:103620002080FEE02F1206C0B801C5010E940228CA
:10363000892B09F5442D351408F44C2F50E0B801BE
:10364000C5010E943928892B49F4F301EE0FFF1FB1
:10365000E60DF71DE359F94F20800DC08FEFE81AF2
:10366000F80AE3E08E0E911CF1E1EF16F10439F651
:103670006894222424F8822DDF91CF911F910F911D
:10368000FF90EF90DF90CF90BF90AF909F908F9082
:103690007F906F905F904F903F902F90089530DF14
:1036A00089CF089580915C1290915D120C9442082C
:1036B00008958F929F92AF92CF92EF920F931F93A4
:1036C000CF93C82F8B0141E060E070E088EC90E080
:1036D0000E94100890935D1280935C1210935B120D
:1036E00000935A120F2EFAE38F2EFAE19F2EF02D3F
:1036F0006894AA24A6F86894CC24C6F8E12C00E0CB
:1037000023E040E051EE60E070E08C2F1ED39093F8
:103710005F1280935E12E7E0F1E080818061808338
:10372000CF911F910F91EF90CF90AF909F908F907E
:103730000895882331F0E8E0F1E080818F7E808376
:103740000895E8E0F1E0808180618083089560E081
:1037500070E083EF93E0D4DEE5EEF2E1019000202B
:10376000E9F73197E55EF24181E0759708F080E076
:103770000895CF93DF93EC0160E070E084E094E083
:10378000BFDEE5EEF2E101900020E9F7E65FF241ED
:1037900039F465EE72E1CE010E94322880E002C069
:1037A000188281E0DF91CF910895FC010190002003
:1037B000E9F79F01215131092817390729F4BC0184
:1037C00082E394E06CCF089589E00895FC010190B4
:1037D0000020E9F79F01215131092817390729F401
:1037E000BC0181E494E05BCF089589E00895FC0179
:1037F00001900020E9F79F0121523109281739076C
:1038000029F4BC0180E594E04ACF089589E0089549
:1038100060E070E08FE894E042CF08950F931F932B
:10382000E82FF0E0EE0FFF1FE759F94F608171813B
:1038300088E994E034DF811114C008E215E020E04B
:1038400030E04DE250E065EE72E180915C129091C3
:103850005D120E947909882321F085EE92E1AADEAB
:1038600003C085EE92E1A6DE1F910F9108950F939C
:103870001F93CF93DF931F92CDB7DEB7DB01119675
:103880009C911197953108F0B4C0992381F160E0C3
:1038900070E0272F30E0462F50E0FD01E40FF51FC8
:1038A000928192959F709A3010F0995C01C0905D62
:1038B000F901EA58FD4E90832F5F3F4FFD01E40F61
:1038C000F51F92819F70492F50E04A30510514F046
:1038D000995C01C0905DF901EA58FD4E90837E5FCE
:1038E0006F5F11969C911197691798F201C070E073
:1038F000E72FF0E0EA58FD4E10824C91811103C091
:1039000081EA94E002C083EA94E026E732E13F9343
:103910002F931F924F939F938F9387EA94E09F93E7
:103920008F9388EB92E19F938F930E94942860E09D
:1039300070E088EB92E1B3DE0FB6F894DEBF0FBE05
:10394000CDBF811159C008E215E020E030E04DE222
:1039500050E065EE72E180915C1290915D120E94E0
:103960007909882309F447C085EE92E123DE8E3081
:1039700009F042C087E0898380915A1290915B12CE
:10398000892BA9F1BE016F5F7F4F85EE92E168D16F
:1039900080936012E981F0E0EB51FD4EDF010D9064
:1039A0000020E9F71197AE1BBF0BAA2391F0BB27AC
:1039B000CD0101979C0112F42F5F3F4F359527955C
:1039C00020936112AF014F5F5F4F64E182E692E1A5
:1039D00073D101E010E020E030E046E150E060E625
:1039E00072E180915A1290915B120E9472088EE0EF
:1039F00003C084E101C080E00F90DF91CF911F915F
:103A00000F910895813019F067EB74E002C060E90E
:103A100075E08BEB94E043CE08959F938F938CEEEB
:103A200094E09F938F9388EB92E19F938F930E94F2
:103A3000942860E070E088EB92E131DE0F900F9007
:103A40000F900F900F900F9008952F923F924F92EA
:103A50005F926F927F928F929F92AF92BF92CF921E
:103A6000DF92EF92FF920F931F93CF93DF93CDB727
:103A7000DEB7A0970FB6F894DEBF0FBECDBF69E1E9
:103A800075E085E295E03CDD95DD8111A3C080E223
:103A9000E2E2F2E0DE01119601900D928A95E1F7E3
:103AA0009E012F5F3F4F6901E12CF12C0F2EF1E3B6
:103AB000AF2EF5E0BF2EF02D08EB12E10F2EFAE449
:103AC0004F2EF5E05F2EF02D0F2EF1E68F2EF5E054
:103AD0009F2EF02D0F2EFBE76F2EF5E07F2EF02DA1
:103AE0003E2C2F2CFF92EF92BF92AF921F930F9319
:103AF0000E94942860E070E0C80102DD5BDD0F9059
:103B00000F900F900F900F900F90811163C032E0D3
:103B10003E15E8F4F60183818F9382818F93818132
:103B20008F9380818F93FF92EF925F924F921F93BA
:103B30000F930E94942860E070E0C801E1DC3ADD58
:103B40000FB6F894DEBF0FBECDBF811143C02F92D8
:103B50003F929F928F921F930F930E94942860E050
:103B600070E0C801CDDC26DD0F900F900F900F9014
:103B70000F900F9081112EC02F923F927F926F92E3
:103B80001F930F930E94942860E070E0C801B8DC96
:103B900011DD0F900F900F900F900F900F908111EB
:103BA00019C03FEFE31AF30A84E0C80ED11C98E075
:103BB000E916F10409F094CF60E070E083E995E044
:103BC0009FDCF8DC811106C060E070E084EA95E0DB
:103BD00097DCF0DCA0960FB6F894DEBF0FBECDBF29
:103BE000DF91CF911F910F91FF90EF90DF90CF90D9
:103BF000BF90AF909F908F907F906F905F904F900D
:103C00003F902F900895EF92FF920F931F93CF93C1
:103C1000DF93EC018B017A0181E0F4DE81110DC0AC
:103C2000CE01D4DD811109C0C801E1DD811105C0DB
:103C3000C701BBDD811101C0EBDDDF91CF911F9189
:103C40000F91FF90EF90089590E0FC01EE0FFF1FA1
:103C50008E0F9F1FFC01E359F94F818192810895D6
:103C6000DC01009729F1FB012081FC01019000207B
:103C7000E9F73197E81BF90B822F90E0E817F90775
:103C8000C8F080E008C0880F382F330F330F830F40
:103C90008053890F2F5FFD01E20FF11D908130ED00
:103CA000390F3A3010F49111EECFFB0120830895C3
:103CB00080E0089580E008950F931F93CF93DF93E2
:103CC000DC01EA012097E1F1FA0101900020E9F717
:103CD0003197E41BF50B329710F532C08D01040FBC
:103CE000151F30E0AE01420F531FFA01908191344D
:103CF00028F09753592F5295507F03C0592F529552
:103D0000507F2C0F3D1FF9019181913410F0975392
:103D100001C09053950FF80190838F5F01C080E040
:103D2000282F220F482F50E0FE0101900020E9F7D4
:103D30003197EC1BFD0B4E175F0710F48613CECFA7
:103D4000DF91CF911F910F9108952F923F924F9243
:103D50005F926F927F928F929F92AF92CF92EF92EB
:103D6000FF920F931F93CF93DF93CDB7DEB7F82E5B
:103D70002A013B0188E090E00E94CD268C018F2D26
:103D800090E0FC01EE0FFF1FEE5EFC4E11830083FE
:103D90000115110509F464C0880F991FFC01E55F46
:103DA000FD4F80819181D8018D939C936C2D70E0A3
:103DB00084E090E0D8D71C0161E070E086E090E0FC
:103DC000D2D77C014C2DB1010DD6F801F582E482E9
:103DD0006A2D70E084E090E0C6D71C0161E070E0DD
:103DE00086E090E0C0D77C014A2DB101FBD5D80117
:103DF0001396FC92EE92129717969C928E921697BB
:103E0000FFB6F894ED91FC9111973697808182600E
:103E100080838D909C90C301B201D2D620E030E027
:103E200040E051E432D79B01AC0160E074E284E7EA
:103E30009BE45BD620E030E040E85FE3EFD595DA25
:103E4000F40132976083D801ED91FC911197359779
:103E500088E98083ED91FC91349786E08083FFBEF2
:103E6000C801DF91CF911F910F91FF90EF90CF90FC
:103E7000AF909F908F907F906F905F904F903F900A
:103E80002F900895CF93DF93DC01892B01F11296D7
:103E9000ED91FC911397938182812581981B922348
:103EA00084819817B1F0838126952823C081D18120
:103EB000C20FD11D68838F5F958189238383ED9124
:103EC000FC91359780818062808380E003C081E02F
:103ED00001C082E0DF91CF910895EF92FF920F939E
:103EE0001F93CF93DF937C01009709F441C0DC015D
:103EF0001296ED91FC91139793818281981B858195
:103F000098238481891B8617A8F1662341F1842FA9
:103F1000952FDC016150462F50E04F5F5F4F480FF7
:103F2000591FE701EA81FB81938182812581981BDA
:103F300092238481981779F08C9193812695292377
:103F4000608171818B01020F111DE80188839F5FE1
:103F50008581982393831196A417B50711F7D7018C
:103F6000ED91FC91359780818062808380E003C071
:103F700081E001C082E0DF91CF911F910F91FF900E
:103F8000EF9008950097D1F0DC011496ED91FC912B
:103F9000159793818281981799F0928185818695F2
:103FA0008923A081B181A80FB11D8C91DB018C9375
:103FB0009F5F85819823928380E0089581E0089532
:103FC00083E008951F920F920FB60F9211240BB643
:103FD0000F922F933F934F935F936F937F938F93A2
:103FE0009F93AF93BF93CF93DF93EF93FF93A091F2
:103FF0001213B0911313109711F16091C60014962B
:10400000ED91FC911597938182812581981B9223D4
:104010008481981761F0838126952823C081D181FE
:10402000C20FD11D68838F5F958189238383169684
:10403000ED91FC911797309711F0CD011995FF91F3
:10404000EF91DF91CF91BF91AF919F918F917F9130
:104050006F915F914F913F912F910F900BBE0F90F9
:104060000FBE0F901F9018951F920F920FB60F92D0
:1040700011240BB60F922F938F939F93AF93BF93FF
:10408000EF93FF93E0911213F09113133097B9F06F
:104090000280F381E02D938182819817B1F09281A3
:1040A0008581282F26952923A081B181A20FB11DDA
:1040B0002C919F5F892382832093C6000BC0E1EC83
:1040C000F0E080818F7D808305C0E1ECF0E08081AD
:1040D0008F7D8083FF91EF91BF91AF919F918F91E1
:1040E0002F910F900BBE0F900FBE0F901F90189541
:1040F0001F920F920FB60F9211240BB60F922F93AF
:104100003F934F935F936F937F938F939F93AF935F
:10411000BF93CF93DF93EF93FF93A0911413B091CC
:104120001513109711F16091CE001496ED91FC914A
:104130001597938182812581981B922384819817FA
:1041400061F0838126952823C081D181C20FD11DC2
:1041500068838F5F9581892383831696ED91FC9107
:104160001797309711F0CD011995FF91EF91DF91DD
:10417000CF91BF91AF919F918F917F916F915F91FF
:104180004F913F912F910F900BBE0F900FBE0F904C
:104190001F9018951F920F920FB60F9211240BB615
:1041A0000F922F938F939F93AF93BF93EF93FF93B0
:1041B000E0911413F09115133097B9F00280F38158
:1041C000E02D938182819817B1F092818581282F0B
:1041D00026952923A081B181A20FB11D2C919F5F4B
:1041E000892382832093CE000BC0E9ECF0E080812C
:1041F0008F7D808305C0E9ECF0E080818F7D808336
:10420000FF91EF91BF91AF919F918F912F910F905F
:104210000BBE0F900FBE0F901F9018951F920F921C
:104220000FB60F9211240BB60F922F933F934F931B
:104230005F936F937F938F939F93AF93BF93CF932E
:10424000DF93EF93FF93A0911613B091171310977C
:1042500011F16091D6001496ED91FC911597938120
:1042600082812581981B92238481981761F0838134
:1042700026952823C081D181C20FD11D68838F5F0D
:104280009581892383831696ED91FC91179730973A
:1042900011F0CD011995FF91EF91DF91CF91BF9171
:1042A000AF919F918F917F916F915F914F913F91CE
:1042B0002F910F900BBE0F900FBE0F901F9018956F
:1042C0001F920F920FB60F9211240BB60F922F93DD
:1042D0008F939F93AF93BF93EF93FF93E091161348
:1042E000F09117133097B9F00280F381E02D93819C
:1042F00082819817B1F092818581282F26952923F4
:10430000A081B181A20FB11D2C919F5F892382836F
:104310002093D6000BC0E1EDF0E080818F7D80839B
:1043200005C0E1EDF0E080818F7D8083FF91EF910A
:10433000BF91AF919F918F912F910F900BBE0F90D6
:104340000FBE0F901F9018951F920F920FB60F92ED
:1043500011240BB60F922F933F934F935F936F935C
:104360007F938F939F93AF93BF93CF93DF93EF93FD
:10437000FF93A0911813B0911913109711F1609148
:1043800036011496ED91FC911597938182812581D8
:10439000981B92238481981761F0838126952823A6
:1043A000C081D181C20FD11D68838F5F9581892320
:1043B00083831696ED91FC911797309711F0CD01FC
:1043C0001995FF91EF91DF91CF91BF91AF919F919F
:1043D0008F917F916F915F914F913F912F910F90AE
:1043E0000BBE0F900FBE0F901F9018951F920F924B
:1043F0000FB60F9211240BB60F922F938F939F93AA
:10440000AF93BF93EF93FF93E0911813F0911913BB
:104410003097B9F00280F381E02D93818281981763
:10442000B1F092818581282F26952923A081B18121
:10443000A20FB11D2C919F5F8923828320933601A7
:104440000BC0E1E3F1E080818F7D808305C0E1E373
:10445000F1E080818F7D8083FF91EF91BF91AF91DB
:104460009F918F912F910F900BBE0F900FBE0F90C9
:104470001F901895CF93DF931F92CDB7DEB7BE0183
:104480006F5F7F4F80911A1390911B137BDD811119
:10449000F6CF898190E00F90DF91CF910895682F3A
:1044A00080911A1390911B13EDDC80E090E0089549
:1044B0008F929F92AF92CF92EF920F93812C912C7B
:1044C0006894AA24A7F86894CC24C7F8E12C00E0EB
:1044D00023E040E051EE60E070E037DC90931B1386
:1044E00080931A13E8E4F3E183E192E091838083FF
:1044F000938382830F91EF90CF90AF909F908F9096
:10450000089590E0FC01EE0FFF1FE80FF91FEE0F7A
:10451000FF1FE45EFC4E238121111FC09C01220F6E
:10452000331FF901E80FF91FEE0FFF1FE45EFC4E89
:10453000A081B1814C91F901E80FF91FEE0FFF1F27
:10454000E45EFC4E81E090E0028002C0880F991F7B
:104550000A94E2F7842B8C930895FC01EE0FFF1F61
:10456000DF01A80FB91FAA0FBB1FA45EBC4E0D90A0
:10457000BC91A02D2C91E80FF91FEE0FFF1FE45EF8
:10458000FC4E81E090E0028002C0880F991F0A94DF
:10459000E2F7809582238C93089590E0FC01EE0F62
:1045A000FF1FE80FF91FEE0FFF1FE45EFC4E238193
:1045B000211120C09C01220F331FF901E80FF91FC0
:1045C000EE0FFF1FE45EFC4EA081B1814C91F9011A
:1045D000E80FF91FEE0FFF1FE45EFC4E81E090E054
:1045E000028002C0880F991F0A94E2F78095842305
:1045F0008C930895FC01EE0FFF1FDF01A80FB91F78
:10460000AA0FBB1FA45EBC4E0D90BC91A02D2C9197
:10461000E80FF91FEE0FFF1FE45EFC4E81E090E013
:10462000028002C0880F991F0A94E2F7822B8C93B4
:104630000895CC24C394D12C6894BB24B2F8CCE167
:10464000D3E110E08C81813081F018F1823061F586
:10465000E881F9812081C6010A8002C0880F991F74
:104660000A94E2F7822780831FC08D818F5F8A3092
:1046700010F48D8319C01D82E881F9812081C60163
:104680000A8002C0880F991F0A94E2F7822780836C
:104690000BC00D81002329F0812F7FDF01500D8396
:1046A00003C0BC82812F2DDF1F5F2696143051F688
:1046B00065E070E080E090E00E94150FC0CFEF92BF
:1046C000FF920F931F93CF93DF93082F80E487B956
:1046D000CCE1D3E10F2EF8E2EF2EF12CF02DF98290
:1046E000E88286E08A831B8214E01C8380E009DF75
:1046F00080E887B9FF82EE8287E0888719861A876B
:1047000081E0FFDE80E283BB84E390E09D878C87BD
:1047100085E08E871F86188B82E0F3DE80E1809330
:10472000010182E091E09B8B8A8B1C8B1D8A1E8B82
:1047300083E0E7DEE12CF12C20E030E040EC50E0BB
:1047400060EA76E089E193E20E94100CDF91CF915C
:104750001F910F91FF90EF900895CF93DF9390E01A
:10476000FC01EE0FFF1FDF01A80FB91FAA0FBB1F2F
:10477000A45EBC4ECD91DC911197488121E030E0E0
:1047800012960C90129702C0220F331F0A94E2F780
:1047900024272883FD0181E08483DF91CF91089550
:1047A000CF93DF9390E0FC01EE0FFF1FDF01A80F16
:1047B000B91FAA0FBB1FA45EBC4ECD91DC9111970F
:1047C000488121E030E012960C90129702C0220F2F
:1047D000331F0A94E2F724272883FD0182E08483B3
:1047E000DF91CF910895282F30E0F901EE0FFF1FE0
:1047F000E20FF31FEE0FFF1FE45EFC4E93E0948385
:10480000CCCE0895282F30E0F901EE0FFF1FE20F04
:10481000F31FEE0FFF1FE45EFC4E94E0948371CE15
:10482000089590E0FC01EE0FFF1FDF01A80FB91FF4
:10483000AA0FBB1FA45EBC4E24E015962C931597BF
:10484000FD011482089590E0FC01EE0FFF1FDF01CF
:10485000A80FB91FAA0FBB1FA45EBC4E21E015967E
:104860002C931597FD01148208951F920F920FB695
:104870000F9211240BB60F922F933F934F935F9398
:104880006F937F938F939F93AF93BF93EF93FF9318
:10489000E091B9008E2F90E0FC013897E135F105E9
:1048A00008F075C08827E458FF4F8F4F54C210920C
:1048B0003413E091341380913713E81770F481E0DA
:1048C0008E0F80933413F0E0E85CFC4E808180937F
:1048D000BB0085E88093BC0072C084E98093BC0073
:1048E0008091351390913613DC011296ED91FC9175
:1048F0001397309709F463C020E040E050E064E093
:1049000019955DC0E091341381E08E0F80933413CC
:104910008091BB00F0E0E85CFC4E80838091B900A0
:10492000803411F4109234132091341330E08091CC
:10493000371390E001972817390724F485EC80930A
:10494000BC003DC085E88093BC0039C08091BB00AD
:10495000E0913413F0E0E85CFC4E808384E98093BE
:10496000BC008091351390913613DC011296ED91C5
:10497000FC911397309719F12091371348E353E1D5
:1049800065E019951CC085EA8093BC0018C0809131
:10499000B9008093210284E08093BC00809135139C
:1049A00090913613DC011296ED91FC91139730979C
:1049B00031F020E040E050E0609121021995FF9134
:1049C000EF91BF91AF919F918F917F916F915F9187
:1049D0004F913F912F910F900BBE0F900FBE0F90F4
:1049E0001F901895FC01411101C0F8D2842F90E06E
:1049F0009C012150310982239323892B09F0EED2A7
:104A0000413808F0EBD2128213824483440F4150A4
:104A100045837183608380E090E008955058BB2700
:104A2000AA270ED021C112D130F017D120F031F4D5
:104A30009F3F11F41EF407C10EF4E095E7FBFDC0A3
:104A4000E92F0E94E11978F3BA1762077307840708
:104A5000950720F079F4A6F50C94031A0EF4E0956E
:104A60000B2EBA2FA02D0B01B90190010C01CA0128
:104A7000A0011124FF27591B99F0593F50F4503ED3
:104A800068F11A16F040A22F232F342F4427585FC5
:104A9000F3CF469537952795A795F0405395C9F7DD
:104AA0007EF41F16BA0B620B730B840BBAF0915095
:104AB000A1F0FF0FBB1F661F771F881FC2F70EC034
:104AC000BA0F621F731F841F48F487957795679507
:104AD000B795F7959E3F08F0B1CF9395880F08F0F2
:104AE0009927EE0F9795879508950DD0BDC0B5D045
:104AF00048F0ACD038F021F45F3F21F09EC0511156
:104B00000C94041AA0C00E94E11988F39923B9F308
:104B10005523A1F3951B550BBB27AA2762177307D3
:104B2000840738F09F5F5F4F220F331F441FAA1F77
:104B3000A9F334D00E2E3AF0E0E831D09150504035
:104B4000E695001CCAF72AD0FE2F28D0660F771FE3
:104B5000881FBB1F261737074807AB07B0E809F0C7
:104B6000BB0B802DBF01FF2793585F4F32F09E3F54
:104B7000510570F062C00C94041A5F3FE4F3983E54
:104B8000D4F3869577956795B795F7959F5FC9F7A5
:104B9000880F911D9695879597F90895E1E0660F26
:104BA000771F881FBB1F621773078407BA0720F09F
:104BB000621B730B840BBA0BEE1F88F7E095089508
:104BC000E89409C097FB3EF49095809570956195A7
:104BD0007F4F8F4F9F4F9923A9F0F92F96E9BB275D
:104BE0009395F695879577956795B795F111F8CFD9
:104BF000FAF4BB0F11F460FF1BC06F5F7F4F8F4F44
:104C00009F4F16C0882311F096E911C0772321F039
:104C10009EE8872F762F05C0662371F096E8862FD1
:104C200070E060E02AF09A95660F771F881FDAF728
:104C3000880F9695879597F9089597F99F6780E86B
:104C400070E060E008959FEF80EC089500240A94DE
:104C50001616170618060906089500240A94121657
:104C60001306140605060895092E0394000C11F48A
:104C7000882352F0BB0F40F4BF2B11F460FF04C037
:104C80006F5F7F4F8F4F9F4F08950CD0EDCFDEDFCA
:104C900028F0E3DF18F0952309F0CFCFD4CF11240B
:104CA0000C94041A0E94E11990F3959FC1F3950F9B
:104CB00050E0551F629FF001729FBB27F00DB11DA0
:104CC000639FAA27F00DB11DAA1F649F6627B00D30
:104CD000A11D661F829F2227B00DA11D621F739F19
:104CE000B00DA11D621F839FA00D611D221F749F27
:104CF0003327A00D611D231F849F600D211D822F6E
:104D0000762F6A2F11249F57504092F0E9F08823A4
:104D10004AF0EE0FFF1FBB1F661F771F881F9150C1
:104D20005040A9F79E3F510578F087CF0C94041AA4
:104D30005F3FE4F3983ED4F3869577956795B795F2
:104D4000F795E7959F5FC1F7FE2B880F911D96950C
:104D5000879597F90895EE0FFF1F881F8BBF079067
:104D6000F691E02D19940F931F93CF93DF93869FB5
:104D70008001879F100D969F100D1124C8010DD042
:104D8000EC01009721F0A80160E070E034D1CE0181
:104D9000DF91CF911F910F9108950F931F93CF93A0
:104DA000DF938230910510F482E090E0E0914613A9
:104DB000F091471320E030E0A0E0B0E0309719F127
:104DC000408151810281138148175907C8F0841727
:104DD000950769F4109731F012960C931297139679
:104DE0001C9327C0009346131093471322C021152C
:104DF000310519F04217530718F49A01BD01EF016C
:104E0000DF01F801DBCF21153105F9F0281B390B43
:104E10002430310580F48A819B816115710521F070
:104E2000FB019383828304C09093471380934613BE
:104E3000FE01329644C0FE01E20FF31F819391936D
:104E400022503109398328833AC02091441330918C
:104E50004513232B41F42091020230910302309339
:104E60004513209344132091000230910102211533
:104E7000310541F42DB73EB740910402509105022F
:104E8000241B350BE0914413F0914513E217F3070F
:104E9000A0F42E1B3F0B2817390778F0AC014E5FAA
:104EA0005F4F2417350748F04E0F5F1F509345138F
:104EB000409344138193919302C0E0E0F0E0CF016E
:104EC000DF91CF911F910F910895CF93DF930097BA
:104ED00009F481C0FC01329713821282A09146131B
:104EE000B0914713109781F420813181820F931F75
:104EF00020914413309145132817390751F5F09349
:104F00004513E093441367C0ED0120E030E0CE1775
:104F1000DF0740F44A815B819E0141155105F1F0A4
:104F2000EA01F5CFD383C28340815181840F951F5D
:104F3000C817D90759F488819981840F951F029663
:104F4000918380838A819B8193838283211531059C
:104F500029F4F0934713E09346133DC0E901FB8326
:104F6000EA8349915991C40FD51FEC17FD0761F4ED
:104F700080819181840F951F0296E901998388832E
:104F8000828193819B838A83E0E0F0E012968D9189
:104F90009C911397009719F0FD01DC01F7CF8D91DB
:104FA0009C9111979D012E5F3F4F820F931F20917F
:104FB0004413309145132817390769F4309729F4C1
:104FC000109247131092461302C013821282B093BC
:104FD0004513A0934413DF91CF91089581E090E0B1
:104FE000F8947DC3FB01DC0102C001900D92415099
:104FF0005040D8F70895DC0101C06D9341505040F6
:10500000E0F70895FB0151915523B1F0BF01DC0198
:10501000052E4D91442369F010D0D9F7CD010190B0
:10502000002049F04D91411108D0C9F3FB01411115
:10503000EECF81E090E001970895402539F04032AD
:1050400029F440294B57465E08F018940895FB0157
:10505000DC010D900020E9F7119701900D920020DE
:10506000E1F70895FB01DC0101900D920020E1F7CA
:105070000895FB01DC014150504088F08D9181344E
:105080001CF08B350CF4805E619161341CF06B3543
:105090000CF4605E861B611171F3990B0895881BF7
:1050A000FCCFCF93DF93CDB7DEB7AE014A5F5F4F42
:1050B000FA0161917191AF0180914A1390914B1364
:1050C00061D0DF91CF9108950F931F93CF93DF931A
:1050D000E0914A13F0914B13238121FF1BC08C01F7
:1050E000D0E0C0E0F80181918F0160914A13709186
:1050F0004B13DB011896ED91FC911997882331F041
:105100001995892B79F3DFEFCFEFECCF8AE0199572
:10511000892B19F08FEF9FEF02C08D2F9C2FDF910D
:10512000CF911F910F9108950F931F93CF93DF930A
:10513000CDB7DEB72E970FB6F894DEBF0FBECDBF4A
:105140000E891F8986E08C831A8309838FEF9FE77E
:105150009E838D83AE01465E5F4F688D798DCE0153
:10516000019610D0EF81F885E00FF11F10822E9686
:105170000FB6F894DEBF0FBECDBFDF91CF911F9168
:105180000F9108952F923F924F925F926F927F926C
:105190008F929F92AF92BF92CF92DF92EF92FF9247
:1051A0000F931F93CF93DF93CDB7DEB72B970FB637
:1051B000F894DEBF0FBECDBF6C017B018A01FC01FC
:1051C00017821682838181FFBFC1CE0101963C0107
:1051D000F6019381F70193FD859193FF81917F0102
:1051E000882309F4ADC1853239F493FD859193FF8D
:1051F00081917F01853221F4B60190E0D6D1E8CFCC
:10520000912C212C312CFFE1F315D8F08B3279F061
:1052100038F4803279F08332A1F4232D20611DC04F
:105220008D3261F0803369F4232D216016C0832D07
:105230008260382EE32DE4603E2E2AC0F32DF86004
:105240001DC037FC2DC020ED280F2A3040F08E32D3
:10525000B9F436FC75C1232D2064322E19C036FEF8
:1052600006C08AE0989E200D1124922E11C0EAE01B
:105270002E9E200D1124222EF32DF0623F2E08C009
:105280008C3621F4832D8068382E02C0883641F494
:10529000F70193FD859193FF81917F018111B3CF38
:1052A000982F9F7D9554933028F40C5F1F4F9FE3F8
:1052B00099830DC0833631F0833771F0833509F05F
:1052C00055C020C0F801808189830E5F1F4F88245C
:1052D0008394912C530112C02801F2E04F0E511C0F
:1052E000F801A080B18036FE03C0692D70E002C0D5
:1052F0006FEF7FEFC5014ED14C018201F32DFF7797
:105300003F2E15C0280122E0420E511CF801A0805A
:10531000B18036FE03C0692D70E002C06FEF7FEFF1
:10532000C5012DD14C01F32DF0683F2E820133FCD5
:1053300019C0822D90E088169906A0F4B60180E28B
:1053400090E033D12A94F5CFF50137FC859137FEF3
:1053500081915F01B60190E028D121102A9421E0CB
:10536000821A91088114910479F7E1C0843611F012
:10537000893639F5F80137FE07C060817181828175
:1053800093810C5F1F4F08C060817181072E000C54
:10539000880B990B0E5F1F4FF32DFF763F2E97FF63
:1053A00009C090958095709561957F4F8F4F9F4F65
:1053B000F0683F2E2AE030E0A30133D1882E861812
:1053C00044C0853731F4232D2F7EB22E2AE030E001
:1053D00025C0932D997FB92E8F36C1F018F48835EA
:1053E00079F0AEC0803719F0883721F0A9C0E92FD5
:1053F000E061BE2EB4FE0DC0FB2DF460BF2E09C0CF
:1054000034FE0AC0292F2660B22E06C028E030E004
:1054100005C020E130E002C020E132E0F801B7FE33
:1054200007C060817181828193810C5F1F4F06C02C
:105430006081718180E090E00E5F1F4FA301F1D089
:10544000882E8618FB2DFF773F2E36FE0DC0232DAC
:105450002E7FA22E891458F434FE0BC032FC09C0F2
:10546000832D8E7EA82E05C0B82CA32C03C0B82C8B
:1054700001C0B92CA4FE0FC0FE01E80DF11D808112
:10548000803321F49A2D997EA92E09C0A2FE06C070
:10549000B394B39404C08A2D867809F0B394A3FC26
:1054A00010C0A0FE06C0B21480F4280C922C9B18E9
:1054B0000DC0B21458F4B60180E290E076D0B394F7
:1054C000F8CFB21418F42B1802C0982C212CA4FE8B
:1054D0000FC0B60180E390E068D0A2FE16C0A1FC28
:1054E00003C088E790E002C088E590E0B6010CC0F8
:1054F0008A2D867851F0A1FE02C08BE201C080E2C5
:10550000A7FC8DE2B60190E050D0891430F4B601CA
:1055100080E390E04AD09A94F8CF8A94F301E80DA2
:10552000F11D8081B60190E040D08110F6CF22209D
:1055300009F44ECEB60180E290E037D02A94F7CF3E
:10554000F6018681978102C08FEF9FEF2B960FB6F1
:10555000F894DEBF0FBECDBFDF91CF911F910F91A9
:10556000FF90EF90DF90CF90BF90AF909F908F9083
:105570007F906F905F904F903F902F900895FC0127
:105580000590615070400110D8F7809590958E0F6E
:105590009F1F0895FC016150704001900110D8F7E1
:1055A000809590958E0F9F1F08950F931F93CF9313
:1055B000DF93FB01238121FD03C08FEF9FEF2CC000
:1055C00022FF16C046815781248135814217530737
:1055D00044F4A081B1819D012F5F3F4F318320832F
:1055E0008C93268137812F5F3F4F3783268314C0EA
:1055F0008B01EC01FB010084F185E02D1995892BCD
:10560000E1F6D80116968D919C9117970196179601
:105610009C938E931697CE01DF91CF911F910F919E
:105620000895FA01AA27283051F1203181F1E89438
:105630006F936E7F6E5F7F4F8F4F9F4FAF4FB1E085
:105640003ED0B4E03CD0670F781F891F9A1FA11D80
:10565000680F791F8A1F911DA11D6A0F711D811D81
:10566000911DA11D20D009F468943F912AE0269F46
:1056700011243019305D3193DEF6CF010895462FA5
:105680004770405D4193B3E00FD0C9F7F6CF462F86
:105690004F70405D4A3318F0495D31FD40524193EF
:1056A00002D0A9F7EACFB4E0A695979587957795AC
:1056B0006795BA95C9F700976105710508959B0133
:1056C000AC010A2E06945795479537952795BA95BC
:1056D000C9F7620F731F841F951FA01D0895F894CA
:0256E000FFCFFA
:1056E20000004E1320000900400040C600CE00D644
:1056F20000360100000003000000004F223A2200A1
:1057020000F8A027BE33E034C1332042C43360E541
:10571200AE33A0F2B133E0FFB433200DB833601AD8
:10572200BB3349444C4500546D7220537663005498
:1057320061736B31005461736B320050726F677228
:10574200616D20537461727465642121007468690B
:10575200732069732068756D20256600746869730B
:105762002069732074656D20256600466163746F3D
:1057720072795265736574203E25733C0A00436F4B
:105782006E66696775726520746F204555383638C4
:10579200203E25733C0A0047657420485745554909
:1057A200203E25733C3A2025730A00536574204439
:1057B20065764555493A202573203E25733C0A00FB
:1057C200364534373234393632454435393135335A
:1057D2003743363732393737333436353545443245
:1057E2000043433037394533333038433938323563
:1057F2004600536574204F544141204964656E74DC
:10580200697479206170704555493A257320617039
:10581200704B45593A2573206465764555493A25BA
:1058220073203E25733C0A0053617665206D6163E7
:10583200203E25733C0A00536574204164617074F4
:10584200697665204461746120526174653A204F23
:105852004E203E25733C0A005365742052656365F1
:10586200697665722044656C61793A202564206D01
:1058720073203E25733C0A004A6F696E204E6574A0
:10588200776F726B2054726965734C6566743A2542
:1058920064203E25733C0A0055706C6F6164204D94
:1058A200657373616765203E25733C0A004C52485C
:1058B200616E6400737973207265736574006D6143
:1058C20063207061757365006D6163207265737525
:1058D2006D650073797320666163746F72795245E6
:1058E2005345540073797320676574206877657532
:1058F20069006D6163206765742067776E62006D71
:10590200616320736574206C696E6B63686B20251C
:1059120064006D61632073657420646576657569E2
:10592200006D616320736574206170706575690034
:105932006D616320736574206170706B6579006DB1
:10594200616320736574206E776B736B6579006D8C
:1059520061632073657420617070736B6579006D8B
:105962006163207365742064657661646472006D9E
:1059720061632073617665006D6163206A6F696E91
:1059820000756E636E66006D616320747820257306
:10599200202564202573006F6666006D61632073A5
:1059A200657420616472006D6163206765742061B3
:1059B2006472006D616320736574206472202564D3
:1059C200006D616320676574206472006D616320FD
:1059D20073657420727864656C6179312025640086
:1059E2006D616320736574206172202573006D619F
:1059F200632067657420617200332038363935328E
:105A020035303030006D61632073657420727832F6
:105A1200006D616320736574206368206463796339
:105A22006C6520256420373939006D616320736508
:105A320074206368206672657120256420256C7568
:105A4200006D616320736574206368206472726103
:105A52006E676520256420302037006D61632073F6
:105A620065742063682073746174757320256420E3
:105A72006F6E006D61632073657420707772696464
:105A8200782031006D6163207365742072657478CB
:105A92002037006F74616100616270004B45595399
:105AA2005F4E4F545F494E4954004E4F5F46524538
:105AB200455F43480053494C454E540042555359A3
:105AC200004D41435F5041555345440044454E49C2
:105AD200454400414343455054454400494E5641D4
