S0120000342E53656D65737465722E7372656368
S113000066C1000085C1000083C1000081C10000F9
S11300107FC100007DC100007BC1000079C10000E8
S113002077C1000075C1000073C1000071C10000F8
S11300306FC400006DC100006BC1000069C1000005
S113004067C1000065C1000063C1000061C1000018
S11300505FC100005DC100005BC1000059C1000028
S113006057C100000C94B5200C94072151C1000025
S11300704FC100004DC100004BC1000049C1000048
S113008047C1000045C1000043C1000041C1000058
S11300900C944B210C949D213BC100000C94ED2544
S11300A037C1000035C1000033C1000031C1000078
S11300B02FC100002DC100002BC1000029C1000088
S11300C027C1000025C1000023C100000C94E121D8
S11300D00C9433221DC100000C9477220C94C92285
S11300E017C100006817681768179F17A717BC1770
S11300F0681768179F17A7170F267F267F267F2666
S11301007F267F267F267F260F267F267F267F2633
S11301107F267F267F267F2611267F267F267F2621
S11301207F267F267F267F267F267F267F267F26A3
S11301307F267F267F267F2611267F267F267F2601
S11301407F267F267F267F267F267F267F267F2683
S11301507F267F267F267F267B267F267F267F2677
S11301607F267F267F267F2646267F267F267F269C
S11301707F267F267F267F267F267F267F267F2653
S11301807F267F267F267F263A267F267F267F2688
S11301907F267F267F267F265E266E616E00696E2F
S11301A0660000407A10F35A00A0724E180900103D
S11301B0A5D4E80000E87648170000E40B540200D8
S11301C000CA9A3B000000E1F50500008096980003
S11301D0000040420F000000A0860100000010272C
S11301E000000000E80300000000640000000000BC
S11301F00A00000000000100000000002C76D888EE
S1130200DC674F0823DFC1DFAE59E1B1B796E5E300
S1130210E453C63AE651997696E8E6C28426EB8919
S11302208C9B62ED407C6FFCEFBC9C9F40F2BAA5B6
S11302306FA5F490055A2AF75C936B6CF9676DC14E
S11302401BFCE0E40D47FEF520E6B500D0ED902E52
S11302500300943577050080841E080000204E0AB0
S1130260000000C80C333333330F986E12831141EE
S1130270EF8D2114893BE65516CFFEE6DB18D184B9
S11302804B381BF77C1D901DA4BBE42420328472E0
S11302905E228100C9F124ECA1E53D270E94B80B40
S11302A08091F510823008F06DD20E94E517F6CFE8
S11302B0CF93DF931F92CDB7DEB7CE0101960E9494
S11302C0E51449810E94DA160E943117F6CF1124F1
S11302D01FBECFEFD1E2DEBFCDBF00E00CBF16E002
S11302E0A0E0B2E0ECE6FFE500E00BBF02C007903F
S11302F00D92A03DB107D9F723E1A0EDB6E001C00E
S11303001D92A238B207E1F70E947B180C94B42F17
S113031077CE80E00E942B2385E00E94322460E0A7
S113032070E081E00E94271C83E00E94DC1984E0D5
S11303300C9463180895ECEDF6E0A0EEB6E0B183FA
S1130340A08313821282E0EAF0E1F093DB06E093EB
S1130350DA06138212821182108280EC99E01396DD
S11303609C938E931297ED93FC939093D70680936E
S1130370D6069093D9068093D80680E090E89093AF
S1130380D1068093D0060895CF93DF93EC01ACEDB2
S1130390B6E001C0DF01ED91FC911197EC17FD0768
S11303A0C8F312968D919C9113979D01280F391FC4
S11303B0C217D30749F42A813B81820F931F1396F6
S11303C09C938E931297ED018A819B819E01280F45
S11303D0391FE217F307C1F42091DA063091DB06E6
S11303E0E217F30771F022813381820F931F9B83FD
S11303F08A83ED91FC9111978081918199838883FF
S113040005C03983288302C0F983E883CA17DB0750
S113041011F0CD93DC93DF91CF910895EF92FF9289
S11304200F931F93CF93DF938C010E94030D809150
S1130430DA069091DB06892B09F47DDF8091D006E2
S11304409091D10680239123892B09F076C0011560
S1130450110549F0C80104960817190718F000E0BF
S113046010E001C08C010115110509F469C08091E7
S1130470D8069091D9068017910708F464C0C091FA
S1130480DC06D091DD06ECEDF6E002C0FE01EC01E5
S11304908A819B818017910720F488819981009734
S11304A0A9F78091DA069091DB06C817D90709F4F9
S11304B04DC0E080F18084E0E80EF11C88819981D0
S11304C0918380832A813B81201B310B29303105A4
S11304D048F0CE01800F911FFC01338322831B83DC
S11304E00A8352DF2A813B818091D8069091D906F4
S11304F0821B930B9093D9068093D8064091D6061D
S11305005091D7068417950720F49093D7068093CB
S1130510D6068091D0069091D106282B392B3B83A7
S11305202A83198218828091D4069091D506019667
S11305309093D5068093D4060BC0E12CF12C08C00F
S1130540E12CF12C05C0E12CF12C02C0E12CF12CA2
S11305500E94430EE114F10411F40E94F117C70143
S1130560DF91CF911F910F91FF90EF9008950F931A
S11305701F93CF93DF93009791F1EC0124974A8165
S11305805B812091D0063091D106BA016223732396
S1130590672B29F168817981672B09F520953095BE
S11305A0242335233B832A830E94030D8A819B8164
S11305B02091D8063091D906820F931F9093D906C3
S11305C08093D806CE01E0DE8091D2069091D306C6
S11305D001969093D3068093D2060E94430EDF9136
S11305E0CF911F910F910895FC010396928381830B
S11305F04FEF5FEFBA01438354836583768390871B
S113060087839287818710820895FC01138612865E
S113061008950F931F93CF93DF93EB010881198102
S11306202A813B810F3F4FEF14072407340721F43D
S1130630FC01A185B28511C0DC01139601C0DF0164
S11306401496ED91FC9115974081518162817381DB
S1130650041715072607370790F71496ED91FC91B8
S11306601597FD83EC83D783C683BF83AE8315962A
S1130670DC93CE9314979B878A87FC0120812F5F9C
S11306802083DF91CF911F910F910895CF93DF9332
S1130690FC01A285B385C481D581868197819F831E
S11306A08E83C681D781848195819D838C831196A5
S11306B08D919C911297E817F90731F486819781FF
S11306C012969C938E931197138612868C91815067
S11306D08C938C91DF91CF910895A89590EC88E14B
S11306E00FB6F894A895809360000FBE90936000B5
S11306F00895FC016083319770833197108231979C
S11307001082319720E8208331971082319710822C
S11307103197108277974083319750838697089555
S1130720DCDFA0916311B0916411CD91CDBFDD9157
S1130730DEBFFF91EF91DF91CF91BF91AF919F9178
S11307408F917F916F915F914F913F912F911F9165
S11307500F91FF90EF90DF90CF90BF90AF909F905C
S11307608F907F906F905F904F903F902F901F904D
S11307700F900CBE0F900BBE0F900FBE0F900895FC
S113078081E008950F920FB6F8940F920BB60F9272
S11307900CB60F921F9211242F923F924F925F92A8
S11307A06F927F928F929F92AF92BF92CF92DF927D
S11307B0EF92FF920F931F932F933F934F935F9367
S11307C06F937F938F939F93AF93BF93CF93DF9355
S11307D0EF93FF93A0916311B09164110DB60D9244
S11307E00EB60D920E949F0FA0916311B0916411F7
S11307F0CD91CDBFDD91DEBFFF91EF91DF91CF9120
S1130800BF91AF919F918F917F916F915F914F9124
S11308103F912F911F910F91FF90EF90DF90CF9018
S1130820BF90AF909F908F907F906F905F904F900C
S11308303F902F901F900F900CBE0F900BBE0F9007
S11308400FBE0F9008950F920FB6F8940F920BB647
S11308500F920CB60F921F9211242F923F924F9237
S11308605F926F927F928F929F92AF92BF92CF923C
S1130870DF92EF92FF920F931F932F933F934F9327
S11308805F936F937F938F939F93AF93BF93CF9314
S1130890DF93EF93FF93A0916311B09164110DB6B0
S11308A00D920EB60D9213BE0E94170D81110E9477
S11308B09F0FA0916311B0916411CD91CDBFDD91D3
S11308C0DEBFFF91EF91DF91CF91BF91AF919F91E7
S11308D08F917F916F915F914F913F912F911F91D4
S11308E00F91FF90EF90DF90CF90BF90AF909F90CB
S11308F08F907F906F905F904F903F902F901F90BC
S11309000F900CBE0F900BBE0F900FBE0F9008956A
S11309109ADF18950FB6F8940F92FC01868D811119
S113092002C081E001C080E00F900FBE08950FB6B1
S1130930F8940F92FC01268D878D281302C081E064
S113094001C080E00F900FBE08950F931F93CF93C3
S1130950DF93EC01042F1E8D48A141110CC0888146
S11309609981892B09F042C08C819D810E94B0112C
S11309701D821C8242C0011117C050E08A819B81F4
S11309800E943F2E28A18A819B81820F911D9B8307
S11309908A832C813D818217930750F18881998144
S11309A09B838A8380E029C050E08E819F810E94CE
S11309B03F2E88A190E09195819591092E813F81E8
S11309C0280F391F3F832E83488159812417350707
S11309D030F42C813D81820F931F9F838E830230DC
S11309E049F4112349F0115080E007C080E005C0AC
S11309F080E003C080E001C080E01F5F1E8FDF91B4
S1130A00CF911F910F910895FC0140A14423A9F0B7
S1130A1050E026813781240F351F37832683848154
S1130A2095812817390720F08081918197838683E7
S1130A30CB01668177810C943F2E08951F93CF9349
S1130A40DF93EC010FB6F8940F921AA10BC08B89B7
S1130A50882351F0CE0143960E945D1081110E94BB
S1130A609911115011169CF38FEF8AA30F900FBEAA
S1130A700FB6F8940F9219A10BC08885882351F002
S1130A80CE0108960E945D1081110E9499111150A7
S1130A9011169CF38FEF89A30F900FBEDF91CF91B6
S1130AA01F910895CF93DF93EC010FB6F8940F9242
S1130AB0E881F9818F8D28A190E030E0829FA00128
S1130AC0839F500D929F500D11244E0F5F1F5D8325
S1130AD04C831E8EFB83EA830197289FA001299FE4
S1130AE0500D389F500D1124CF01840F951F9F8303
S1130AF08E838FEF89A38AA361110BC08885882315
S1130B0071F0CE0108960E945D10882341F03ADE10
S1130B1006C0CE01089668DDCE01439665DD0F90D0
S1130B200FBE81E0DF91CF9108950F931F93F801D9
S1130B30611103C01183008302C051834083878FF6
S1130B4060A361E0CF01AEDF1F910F910895DF92A2
S1130B50EF92FF920F931F93CF93DF93F82EE62E1D
S1130B60D42E869FC0011124839658DCEC01009793
S1130B7041F08C012D2DAC014D5D5F4F6E2D8F2DFD
S1130B80D4DFCE01DF91CF911F910F91FF90EF90B1
S1130B90DF900895CF92DF92EF92FF920F931F930D
S1130BA0CF93DF93CDB7DEB729970FB6F894DEBFA6
S1130BB00FBECDBF7C016B012E833F8348875987CD
S1130BC010E00FB6F8940F92F701968D878D981761
S1130BD010F00230B1F4402FB601C701B6DEF701C0
S1130BE09389992341F0C70143960E945D1088239D
S1130BF021F0C8DD02C08111C5DD0F900FBE81E078
S1130C004AC08E819F81A885B985892B8A2B8B2B1D
S1130C1021F40F900FBE80E03EC0111105C0CE013B
S1130C2001960E94221111E00F900FBEECD60FB670
S1130C30F8940F92F70181A18F3F09F411A2F701F3
S1130C4082A18F3F09F412A20F900FBEBE016A5F0A
S1130C507F4FCE0101960E943311811118C0C70144
S1130C6066DE882381F04E815F8168857985C701BE
S1130C7008960E940410C701E1DE0E94430E811110
S1130C80A0CF80DD9ECFC701D9DEFDD79ACFC701A3
S1130C90D5DEF9D780E029960FB6F894DEBF0FBEF3
S1130CA0CDBFDF91CF911F910F91FF90EF90DF9017
S1130CB0CF900895EF92FF920F931F93CF93DF93FA
S1130CC08A01FC01568D378D531710F02230F9F448
S1130CD0422F7801EC011AA18E8DCE0136DE1F3F22
S1130CE081F48B898823A9F0CE0143960E945D107C
S1130CF0882389F0E114F10481F081E0F701808315
S1130D000DC0FF24F394F10EFAA281E007C080E045
S1130D1005C081E003C081E001C081E0DF91CF9193
S1130D201F910F91FF90EF900895CF92DF92EF9271
S1130D30FF920F931F93CF93DF93CDB7DEB729971D
S1130D400FB6F894DEBF0FBECDBF8C016B012E83AE
S1130D503F8348875987E12C0FB6F8940F92F80126
S1130D60F68CFF2099F0B601C8014EDEFA94F80122
S1130D70F68E8085882331F0C80108960E945D10A4
S1130D80811100DD0F900FBE81E04FC08E819F81E5
S1130D90A885B985892B8A2B8B2B21F40F900FBE44
S1130DA080E043C0E11006C0CE0101960E942211EA
S1130DB0EE24E3940F900FBE26D60FB6F8940F924C
S1130DC0F80181A18F3F09F411A2F80182A18F3F9C
S1130DD009F412A20F900FBEBE016A5F7F4FCE01CD
S1130DE001960E943311811117C0C80193DD882335
S1130DF079F04E815F8168857985C80143960E94A8
S1130E000410C8011BDE3FD78111A6CFBBDCA4CFE1
S1130E10C80114DE38D7A0CFC80110DE34D7C8010A
S1130E2079DD882309F498CF80E029960FB6F894E9
S1130E30DEBF0FBECDBFDF91CF911F910F91FF9009
S1130E40EF90DF90CF900895CF93DF93EC010FB62E
S1130E50F8940F9289A18F3F09F419A28AA18F3FB8
S1130E6009F41AA20F900FBE8E8D811104C0CE0119
S1130E7043960E941B10CE01E1DDDF91CF910895CE
S1130E80FC014481558122813381240F351F8081E7
S1130E909181B901681B790BCB016417750710F0B8
S1130EA0841B950B08950F93FC018FE0DF011D92C5
S1130EB08A95E9F775876487558344833783268346
S1130EC006870F910895AF92BF92CF92DF92EF926F
S1130ED0FF920F931F93CF93DF936C015B017A0111
S1130EE0FC01C281D381048115810C1B1D0B4017A9
S1130EF0510708F48A01F60184859585A801B50196
S1130F008C0F9D1F0E943F2E0E151F0558F4A7013C
S1130F10401B510BB501600F711FF6018485958547
S1130F200E943F2ECE018E0D9F1DF6012481358136
S1130F308217930710F0821B930BF601938382832D
S1130F40C701DF91CF911F910F91FF90EF90DF9038
S1130F50CF90BF90AF900895CF92DF92EF92FF921F
S1130F600F931F93CF93DF931F921F92CDB7DEB7DA
S1130F707C016B015A83498321153105C1F0FC01C1
S1130F80868580FD08C04217530708F49A013A8306
S1130F90298381E00FC02017310758F042E050E068
S1130FA0BE016F5F7F4FC7018EDF81E003C080E029
S1130FB001C080E0882331F049815A81B601C7011C
S1130FC082DF02C080E090E00F900F90DF91CF911C
S1130FD01F910F91FF90EF90DF90CF900895AF9203
S1130FE0BF92CF92DF92EF92FF920F931F93CF9312
S1130FF0DF937C015B01E9014217530708F4EA011E
S1131000209781F1F7010081118184819581801BF2
S1131010910B6E018C179D0708F46C01F701648530
S11310207585600F711FA601C5010E943F2ECC1665
S1131030DD0658F4AE014C195D09F7016485758528
S1131040C5018C0D9D1D0E943F2E0C0F1D1FF70125
S1131050848195810817190710F0081B190BF701F3
S113106011830083CE01DF91CF911F910F91FF90E7
S1131070EF90DF90CF90BF90AF9008956F927F92E2
S11310808F929F92AF92BF92CF92DF92EF92FF9294
S11310900F931F93CF93DF931F921F92CDB7DEB7A9
S11310A06C014B015A01790101151105B1F0FC01E4
S11310B060807180A801BE016F5F7F4F90DF8981DE
S11310C09A81E01AF10AA816B90630F4F601718281
S11310D06082A12CB12C01C05C019701A501B4016F
S11310E0C6017DDF0F900F90DF91CF911F910F917B
S11310F0FF90EF90DF90CF90BF90AF909F908F9034
S11311007F906F900895CF92DF92EF92FF920F93AA
S1131110CF93DF93EC016B01413011F401E001C086
S113112000E0C114D10419F4CC24C394D12CCE0111
S11311304096C817D90720F4219670D97C0102C0C3
S1131140E12CF12CE114F10439F09601AE01B70160
S1131150615F7F4FC701A7DEC701DF91CF910F9178
S1131160FF90EF90DF90CF9008950F930FB6F8940F
S11311700F92FC0120853185232B71F42285338560
S1131180232B61F4268137814481558164857585DB
S1131190068589DE81E003C080E001C080E00F9015
S11311A00FBE0F910895FC012481358180819181C6
S11311B0820F931F42815381841B950B01978217E1
S11311C0930710F0821B930B08952F923F924F9236
S11311D05F926F927F928F929F92AF92BF92CF92C3
S11311E0DF92EF92FF920F931F93CF93DF93CDB7CC
S11311F0DEB72B970FB6F894DEBF0FBECDBF4C0100
S11312007B876A871A010E831F8328873987FC012D
S1131210848195810197268520FF0CC02A01F2E084
S11312204F0E511C8415950558F41E821F82188692
S1131230198606C08417950710F02A0101C02C01F5
S11312408E819F81A885B985892B8A2B8B2B09F4E4
S113125036C0CE010196E0D70FB6F8940F92C401C0
S1131260A2DF3C018415950538F560E080E090E04C
S11312700E94CB140E949D11F401938782870F90E2
S11312800FBEAE80BF80C884D984E12CF12C00E06D
S113129010E0980140E050E0BA0180E00E940B1297
S11312A0F40113861286BE016A5F7F4FCE01019658
S11312B0DAD7882389F205C00F900FBE02C0612CD3
S11312C0712C6114710419F4C4016DDF3C018201B5
S11312D09301A1016A857B85C4013EDE6C01892BE3
S11312E0E9F0C401CDDDF40126813781821793072B
S11312F0A8F089D3F40180859185892B71F08085CC
S11313009185E12CF12C00E020E030E0A90160E0BF
S11313100E94B212F40111861086B5D4C6012B9630
S11313200FB6F894DEBF0FBECDBFDF91CF911F91F2
S11313300F91FF90EF90DF90CF90BF90AF909F9070
S11313408F907F906F905F904F903F902F90089573
S1131350AF92BF92CF92DF92EF92FF920F931F93BF
S1131360CF93DF93EC017B015A0169018E8580FFE5
S113137004C08A010E5F1F4F01C08A01CE0113DF32
S11313809C01A501B701CE01E7DD5C01892BC1F009
S1131390CE0176DD2E813F818217930788F0888500
S11313A09985892B69F088859985E12CF12C00E0D9
S11313B020E030E0A90160E00E94A9131986188694
S11313C0C501DF91CF911F910F91FF90EF90DF90B6
S11313D0CF90BF90AF9008954F925F926F927F929B
S11313E08F929F92AF92BF92CF92DF92EF92FF9231
S11313F00F931F93CF93DF93EC012B013A01580114
S113140069018E8580FF05C06894882481F8912C39
S113141002C0812C912CA114B104C104D10431F176
S11314200FB6F8940F92CE012BDD7C018816990635
S113143040F060E080E090E00E94CB147ED7998772
S113144088870F900FBE8E149F0498F0E12CF12C26
S113145000E010E0980140E050E0BA0180E0DBD702
S113146019861886CE010CDD7C0103C0CE0108DD8F
S11314707C018E149F04E8F484019701A301B20156
S1131480CE01FCDD6C01892BB1F0BDD28A859B8530
S1131490892B69F08A859B85E12CF12C00E020E002
S11314A030E0A90160E00E94B2121B861A86EBD3D9
S11314B002C0C12CD12CC601DF91CF911F910F9195
S11314C0FF90EF90DF90CF90BF90AF909F908F9060
S11314D07F906F905F904F900895E091DD10F091B0
S11314E0DE10808181110CC08FEF9FEFDC018093AF
S11314F0A7109093A810A093A910B093AA100895D0
S1131500E091DD10F091DE100780F085E02D808100
S11315109181A281B3818093A7109093A810A09386
S1131520A910B093AA100895CF93DF93EC018B8D8B
S11315309C8D1DD8CE011BD8DF91CF9108954F9279
S11315405F926F927F928F929F92AF92BF92CF924F
S1131550DF92EF92FF920F93CF93DF932C015B0105
S11315604A013901E60165EA70E08B8D9C8D0E9489
S1131570482E8B8D9C8D21E0821A9108880E991E2D
S1131580A114B10489F415C0822F90E0F501E80F8D
S1131590F91F3081DE01A80FB91F5D963C9380814D
S11315A0882329F02F5F01C020E0203168F31CA6B6
S11315B001C01D8E0A3008F009E00A8F0DA71EA68F
S11315C0CE01029622D8CE010E961FD8DB87CA8799
S11315D08AE090E0A0E0B0E0801B9109A109B10984
S11315E08E879F87A88BB98BDF8BCE8B84E0FE011F
S11315F0BF96DF011D928A95E9F71BAAA301B201E8
S1131600C40177D899838883E114F10419F0F701B0
S1131610D183C083DF91CF910F91FF90EF90DF9042
S1131620CF90BF90AF909F908F907F906F905F907E
S11316304F900895CF93C0E009C02BE0C29FC00132
S113164011248B509F4E0E94F402CF5FCA30A8F33E
S11316508AEE90E10E94F4028FED90E10E94F40280
S113166080ED90E10E94F40285EC90E10E94F40286
S113167089EB90E10E94F4028AEE90E19093DE10EF
S11316808093DD108FED90E19093DC108093DB105C
S1131690CF910895CF93DF93EC010FB6F8940F9296
S11316A08091B8108F5F8093B810809163119091EE
S11316B06411892B51F4D0936411C0936311809108
S11316C0B810813091F4B6DF10C08091B21081114E
S11316D00CC0E0916311F0916411928D8A8D891789
S11316E020F0D0936411C09363118091AB108F5F8D
S11316F08093AB10EA8D8091B3108E1710F4E093B1
S1131700B3108BE08E9FF0011124EB50FF4E01804B
S1131710F281E02DFF83EE83268137813987288784
S1131720A681B7819E012E5F3F4F15963C932E9361
S1131730149737832683EA8D8E9FF0011124EB5092
S1131740FF4EFD87EC8780818F5F80830F900FBEF3
S11317508091B210882349F0E0916311F0916411F3
S1131760928D8A8D981708F40DD8DF91CF91089542
S1131770CF93DF931BC00FB6F8940F92E091CC1077
S1131780F091CD10C085D185CE0102960E9446030A
S11317908091B81081508093B8108091C41081500A
S11317A08093C4100F900FBECE01BEDE8091C41092
S11317B08111E1CFDF91CF9108958F929F92AF92E3
S11317C0BF92CF92DF92EF92FF92CF93DF936B01A0
S11317D07C01C42F8090B4109090B510A090B610E6
S11317E0B090B710809163119091641102960E9499
S11317F046038FEFC816D806E806F806B1F5CC23E1
S1131800A1F1E9EBF0E1A181B281C0916311D09122
S11318106411BF83AE83C0916311D0916411169695
S11318208D919C911797998788871696CD91DC9115
S11318301797809163119091641102969D838C8314
S11318408091631190916411029617969C938E93E4
S11318501697A0916311B09164111D96FC93EE93B9
S11318601C9780818F5F80833FC0C80CD91CEA1C01
S1131870FB1CE0916311F0916411C282D382E48273
S1131880F582C814D904EA04FB0468F46091631176
S1131890709164118091DB109091DC106E5F7F4F2A
S11318A00E94090321C060916311709164118091B9
S11318B0DD109091DE106E5F7F4F0E9409038091CE
S11318C0A7109091A810A091A910B091AA10C816C1
S11318D0D906EA06FB0640F4C092A710D092A810DD
S11318E0E092A910F092AA10DF91CF91FF90EF90AF
S11318F0DF90CF90BF90AF909F908F9008952F92DC
S11319003F924F925F926F927F928F929F92AF928B
S1131910BF92CF92DF92EF92FF920F93CF93DF9318
S11319203C011B014A012901CA010E940E026C01FB
S1131930892B71F084E390E00E940E02EC01892B64
S113194019F0DC8ECB8E06C0C6010E94B70202C01D
S1131950C0E0D0E0209761F0A12CB12C6E0192017F
S1131960A401B101C301EBDDCE0194DE81E001C02D
S11319708FEFDF91CF910F91FF90EF90DF90CF9099
S1131980BF90AF909F908F907F906F905F904F909B
S11319903F902F900895EF92FF920F930F2EF5EA48
S11319A0EF2EF0E1FF2EF02D00E020E030E040ECDF
S11319B050E062E472E08EE491E0A1DF813011F442
S11319C00E946F158130C9F4F8948FEF9FEFDC010A
S11319D08093A7109093A810A093A910B093AA1075
S11319E081E08093B2101092B4101092B51010924E
S11319F0B6101092B7100E949003809106020F91C6
S1131A00FF90EF9008958091A4108F5F8093A410AD
S1131A1008950FB6F8940F926091B4107091B510B8
S1131A208091B6109091B7100F900FBE0895CF9289
S1131A30DF92EF92FF92CF93DF938091A4108111F4
S1131A4005C1C090B410D090B510E090B610F090DD
S1131A50B7108FEFC81AD80AE80AF80AC092B4106F
S1131A60D092B510E092B610F092B710C114D10420
S1131A70E104F104B1F48091DD109091DE10209125
S1131A80DB103091DC103093DE102093DD10909346
S1131A90DC108093DB108091AC108F5F8093AC10CE
S1131AA01CDD8091A7109091A810A091A910B0916D
S1131AB0AA10C816D906EA06FB0620F480E0B2C0D4
S1131AC081E001C080E0E091DD10F091DE109081B2
S1131AD091110CC04FEF5FEFBA014093A7105093E0
S1131AE0A8106093A9107093AA109CC0E091DD1017
S1131AF0F091DE100780F085E02D0084F185E02D63
S1131B004281538164817581C416D506E606F706C1
S1131B1048F44093A7105093A8106093A9107093B1
S1131B20AA1080C0A485B585C681D781208531855A
S1131B303F832E83C085D185268137813D832C83C5
S1131B4011964D915C9112979F012E5F3F4F421762
S1131B50530731F44085518512965C934E93119747
S1131B60158614869C9191509C93A08DB18D1097ED
S1131B7009F1C289D389448955895F834E83C48915
S1131B80D589428953895D834C8311966D917C91EB
S1131B901297AF01425F5F4F6417750731F44489B0
S1131BA0558912965C934E931197118E108E9C91C9
S1131BB091509C93A28D9091B3109A1710F4A09316
S1131BC0B3109BE09A9FD0011124AB50BF4E1196E5
S1131BD00D90BC91A02DB783A68316964D915C9170
S1131BE01797518740871696CD91DC9117973D83BF
S1131BF02C8317963C932E931697A28D9A9FD0010F
S1131C001124AB50BF4EB587A4879C919F5F9C93D2
S1131C10228DE0916311F0916411928D291708F0DF
S1131C204FCF51CFE0916311F0916411E28D9BE0AD
S1131C30E99FF0011124EB50FF4E9081923008F09F
S1131C4081E09091AD10911116C016C08091AE1034
S1131C509091AF10A091B010B091B1100196A11D58
S1131C60B11D8093AE109093AF10A093B010B093B9
S1131C70B11080E001C081E0DF91CF91FF90EF903F
S1131C80DF90CF900895CF92DF92EF92FF92CF939F
S1131C90DF930FB6F8940F928091A4108150809333
S1131CA0A4108091A4108111BEC08091B81081113C
S1131CB088C0BCC0E091D710F091D8100084F185A1
S1131CC0E02DA08DB18DC289D389848995899F83A4
S1131CD08E83C489D589828993899D838C83119647
S1131CE02D913C911297CF010E962817390731F4A4
S1131CF08489958912969C938E931197118E108ED8
S1131D008C9181508C93A485B585C681D7818085BB
S1131D1091859F838E83C085D185868197819D839C
S1131D208C8311968D919C9112979F012E5F3F4F4A
S1131D308217930731F48085918512969C938E9334
S1131D401197158614868C9181508C93A28D809165
S1131D50B3108A1710F4A093B3108BE08A9FD001BC
S1131D601124AB50BF4E11960D90BC91A02DB7839A
S1131D70A68316964D915C911797518740871696C6
S1131D80CD91DC9117973D832C8317963C932E932A
S1131D901697A28D8A9FD0011124AB50BF4EB587F0
S1131DA0A4878C918F5F8C93928DA0916311B091D5
S1131DB064115A968C91981730F081E08093AD109D
S1131DC002C0E0E0F0E08091D010811173CFEF2BDE
S1131DD009F083DBC090AE10D090AF10E090B0104B
S1131DE0F090B110C114D104E104F104A1F01FDE9C
S1131DF0882319F081E08093AD1081E0C81AD108DE
S1131E00E108F108A1F71092AE101092AF101092F1
S1131E10B0101092B1108091AD10882331F00E945F
S1131E20C20381E003C080E001C080E00F900FBED8
S1131E30DF91CF91FF90EF90DF90CF9008958F9234
S1131E409F92AF92BF92CF92DF92EF92FF921F9335
S1131E50CF93DF93EC016A017B01D5DD8090B41050
S1131E609090B510A090B610B090B7108881998169
S1131E70AA81BB81AC01BD014C0D5D1D6E1D7F1D92
S1131E8088169906AA06BB0660F4481759076A071C
S1131E907B0798F484169506A606B70680F010E032
S1131EA013C0481759076A077B0758F0841695062C
S1131EB0A606B70640F010E007C010E005C011E028
S1131EC003C011E001C011E0488359836A837B8316
S1131ED0112341F0CB01BA01681979098A099B09D8
S1131EE040E06BDCD0DE811102C00E94C203812F6E
S1131EF0DF91CF911F91FF90EF90DF90CF90BF9033
S1131F00AF909F908F900895CF92DF92EF92FF92BF
S1131F106B017C01672B682B692B39F074DD40E081
S1131F20C701B6014ADCAFDE01C080E0811102C006
S1131F300E94C203FF90EF90DF90CF9008958091AC
S1131F40A410882321F081E08093AD1008951092AD
S1131F50AD10E0916311F091641120813181E09121
S1131F606311F0916411838D948D8217930760F04F
S1131F706091631170916411635E7F4F809163116E
S1131F80909164110E94FD178091B31001C081509B
S1131F90282F30E09BE0929FF001939FF00D1124D5
S1131FA0EB50FF4E9081992391F39BE0929FA00107
S1131FB0939F500D1124DF010180F281E02D0480F4
S1131FC0F581E02D1296FC93EE93119748505F4EE5
S1131FD0E417F50729F444815581FD0152834183B7
S1131FE09BE0929FF001939FF00D1124EB50FF4E64
S1131FF00180F281E02D2085318530936411209396
S113200063118093B3100895CF92DF92EF92FF9201
S11320106A017B016091631170916411625F7F4F6B
S11320200E94090341E0C701B601C7DBFF90EF90AE
S1132030DF90CF900895CF93DF93FC01CB01BA01D9
S1132040A181B281C0916311D0916411BB8BAA8B21
S1132050C0916311D091641116964D915C911797BC
S11320605D8B4C8B1696CD91DC9117974091631143
S113207050916411425F5F4F5D834C8340916311C3
S113208050916411425F5F4F17965C934E9316977D
S1132090A0916311B09164115996FC93EE935897F3
S11320A030813F5F3083222319F06FEF7FEFCB0144
S11320B0422F83DBDF91CF910895CF93DF93DC012F
S11320C01796ED91FC9118970084F185E02DA08D71
S11320D0B18DC289D389848995899F838E83C4896C
S11320E0D589828993899D838C8311968D919C9146
S11320F012979F01225F3F4F8217930731F484891F
S1132100958912969C938E931197118E108E8C91B3
S113211081508C938091A410811152C0A485B585FF
S1132120C681D781808591859F838E83C085D18523
S1132130868197819D838C8311968D919C911297B2
S11321409F012E5F3F4F8217930731F4808591855D
S113215012969C938E931197158614868C918150B8
S11321608C93A28D8091B3108A1710F4A093B310AE
S11321708BE08A9FD0011124AB50BF4E11960D9075
S1132180BC91A02DB783A68316964D915C911797A9
S1132190518740871696CD91DC9117973D832C8308
S11321A017963C932E931697A28D8A9FD0011124E3
S11321B0AB50BF4EB587A4878C918F5F8C931CC0A6
S11321C040ED50E1DA011196CD91DC911297D38B59
S11321D0C28B8E819F81958B848B8E819F81DC0144
S11321E015963C932E9314973F832E83518F408FE3
S11321F0DA018C918F5F8C93928DE0916311F09151
S11322006411828D891720F481E08093AD1001C0A0
S113221080E0DF91CF9108950FB6F8940F9220914A
S1132220AC10FC0120834091B4105091B510609122
S1132230B6107091B71041835283638374830F90F7
S11322400FBE08952091AC10FC0120834091B4107E
S11322505091B5106091B6107091B71041835283BC
S11322606383748308958F929F92AF92BF92CF92AB
S1132270DF92EF92FF920F931F93CF93DF93FB01B3
S11322800FB6F8940F92C090B410D090B510E090AF
S1132290B610F090B710DC0111960D911D912D919F
S11322A03C91149746015701801A910AA20AB30A75
S11322B040815181628173814F3FBFEF5B076B07A0
S11322C07B0739F1EC01B881A091AC10BA1759F031
S11322D0C016D106E206F30630F010821182128293
S11322E0138281E017C084169506A606B70658F433
S11322F0481959096A097B094083518362837383AE
S1132300A1DF80E007C0108211821282138281E073
S113231001C080E00F900FBEDF91CF911F910F910C
S1132320FF90EF90DF90CF90BF90AF909F908F90F1
S1132330089581E08093AD10089580916311909188
S1132340641108958091B210882331F08091A41013
S1132350811104C082E0089581E0089580E0089529
S11323600F931F93CF93DF93FC01892B09F449C08A
S113237086A5815086A7228D95A5291709F443C007
S1132380811143C0EF018F010E5F1F4FC8010E94EE
S11323904603EDA5EA8F8AE090E0A0E0B0E08E1B52
S11323A09109A109B1098E879F87A88BB98B809168
S11323B0B3108E1710F4E093B3108BE08E9FF001EE
S11323C01124EB50FF4E0180F281E02DFF83EE8358
S11323D02681378139872887A681B78115961C9372
S11323E00E93149717830683EA8D8E9FF0011124B0
S11323F0EB50FF4EFD87EC8780818F5F808381E007
S113240005C080E003C080E001C080E0DF91CF918F
S11324101F910F9108954F925F926F927F92AF92A6
S1132420BF92CF92DF92EF92FF920F931F93CF93BD
S1132430DF93280139010FB6F8940F92E0916311EC
S1132440F0916411C82FD0E0EC0FFD1F83A98230F6
S113245071F1E0916311F0916411CE01880F991F1D
S1132460880F991FE80FF91F87A590A9A1A9B2A900
S11324704095509560957095482359236A237B2392
S113248047A750AB61AB72ABE0916311F09164115B
S1132490EC0FFD1F81E083ABA114B104C104D1048E
S11324A031F041E0C601B50188D90E94C2030F9002
S11324B00FBE0FB6F8940F92E114F104A1F0E0916D
S11324C06311F0916411CE01880F991F880F991F31
S11324D0E80FF91F87A590A9A1A9B2A9F7018083E4
S11324E09183A283B383E0916311F0916411EC0FA3
S11324F0FD1F83A98230E9F4E0916311F091641126
S1132500CE01880F991F880F991FE80FF91F87A51F
S113251090A9A1A9B2A940945094609470944822BF
S113252059226A227B2247A650AA61AA72AA81E094
S113253001C080E02091631130916411C20FD31F58
S11325401BAA0F900FBEDF91CF911F910F91FF90A7
S1132550EF90DF90CF90BF90AF907F906F905F909F
S11325604F9008958F929F92AF92BF92EF92FF92F5
S11325700F93CF93DF93DC010FB6F8940F92E1141D
S1132580F10489F0E62FF0E0EE0FFF1FEE0FFF1FBE
S1132590E80FF91F87A490A8A1A8B2A8F701808228
S11325A09182A282B38270E0FD01E60FF71F83A936
S11325B092E093AB023001F118F4013031F04DC0D8
S11325C0033079F10430D1F148C0660F771F660FEC
S11325D0771FFD01E60FF71F87A490A8A1A8B2A852
S11325E0BA01A901482959296A297B2947A750AB6F
S11325F061AB72AB01E034C0660F771F660F771FC3
S1132600FD01E60FF71F47A550A961A972A94F5F05
S11326105F4F6F4F7F4F47A750AB61AB72AB01E089
S11326201FC0660F771F660F771FFD01E60FF71FA8
S113263027A730AB41AB52AB01E012C0823079F036
S1132640660F771F660F771FFD01E60FF71F27A799
S113265030AB41AB52AB01E003C001E001C000E08C
S1132660813009F069C01C96ED91FC911D97169676
S1132670CD91DC91179718968D919C9119979F8312
S11326808E831896CD91DC91199716968D919C9115
S113269017979D838C83818192819D012E5F3F4F8B
S11326A08217930731F418968D919C911997928310
S11326B081831D961C921E921C9780818150808379
S11326C05A96EC915A978091B3108E1710F4E093B8
S11326D0B3108BE08E9FF0011124EB50FF4E01806C
S11326E0F281E02D1796FC93EE931697468157815D
S11326F019965C934E931897C681D7813D832C839A
S1132700378326835A96EC915A978E9FF0011124B1
S1132710EB50FF4E1D96FC93EE931C9780818F5FC8
S113272080835A969C91E0916311F0916411828D9B
S1132730891710F40E94C2030F900FBE802FDF91FF
S1132740CF910F91FF90EF90BF90AF909F908F909B
S113275008958F929F92AF92BF92CF92DF92EF92A1
S1132760FF920F93CF93DF93DC01E114F10489F01E
S1132770E62FF0E0EE0FFF1FEE0FFF1FE80FF91F2B
S113278087A490A8A1A8B2A8F70180829182A2820E
S1132790B38270E0FD01E60FF71F93A982E083ABDB
S11327A0023001F118F4013031F04DC0033079F1F9
S11327B00430D1F148C0660F771F660F771FFD0103
S11327C0E60FF71F87A490A8A1A8B2A8BA01A9018F
S11327D0482959296A297B2947A750AB61AB72ABB9
S11327E081E034C0660F771F660F771FFD01E60F87
S11327F0F71F47A550A961A972A94F5F5F4F6F4F9B
S11328007F4F47A750AB61AB72AB81E01FC0660F2F
S1132810771F660F771FFD01E60FF71F27A730AB61
S113282041AB52AB81E012C0923079F0660F771F52
S1132830660F771FFD01E60FF71F27A730AB41ABEB
S113284052AB81E003C081E001C080E0913009F027
S113285096C09091A41091115FC01C96ED91FC91CB
S11328601D971696CD91DC91179718962D913C9152
S113287019973F832E831896CD91DC91199716965C
S11328802D913C9117973D832C83418152819D0169
S11328902E5F3F4F4217530731F418964D915C91C8
S11328A01997528341831D961C921E921C97908106
S11328B0915090835A96EC915A979091B3109E1729
S11328C010F4E093B3109BE09E9FF0011124EB50B1
S11328D0FF4E0180F281E02D1796FC93EE9316973C
S11328E04681578119965C934E931897C681D78178
S11328F03D832C83378326835A96EC915A979E9F67
S1132900F0011124EB50FF4E1D96FC93EE931C979F
S113291090819F5F908321C060ED70E1FB01C181D4
S1132920D2815396DC93CE9352972E813F81559654
S11329303C932E9354974E815F819D01225F3F4FBC
S1132940FA01358324833F832E8359967C936E93B7
S11329505897FB0190819F5F90835A962C91E09148
S11329606311F0916411928D921748F4C114D1044B
S113297019F091E0F601908391E09093AD10DF910E
S1132980CF910F91FF90EF90DF90CF90BF90AF90D9
S11329909F908F900895009721F4809163119091F6
S11329A064110FB6F8940F9270E0FC01E60FF71F64
S11329B023A9223031F4FC01E60FF71F13AA81E0AA
S11329C001C080E00F900FBE0895DC01E0916F110B
S11329D0F0917011808191E0811190E09C939111AC
S11329E008C00780F085E02D608171818281938128
S11329F0089560E070E0CB010895CF92DF92EF92EA
S1132A00FF920F931F93FC01428353836483758366
S1132A10938782870417150726073707C0F00C1918
S1132A201D092E093F0986859785A089B189081754
S1132A3019072A073B0700F5BF016E5F7F4F80919E
S1132A406D1190916E110E94090380E018C00C155D
S1132A501D052E053F0528F44C155D056E057F0503
S1132A6068F4BF016E5F7F4F80916F119091701178
S1132A700E94090380E003C081E001C081E01F914E
S1132A800F91FF90EF90DF90CF9008950FB6F894D8
S1132A900F9280916B1190916C11892BE9F48CE762
S1132AA091E10E94F40281E791E10E94F4028CE733
S1132AB091E19093701180936F1181E791E190936C
S1132AC06E1180936D1140E067E08AE00E94A705D3
S1132AD090936C1180936B110F900FBE0895EF9239
S1132AE0FF920F93D3DF80916B1190916C11892B1E
S1132AF091F00F2EF9E6EF2EF1E1FF2EF02D03E019
S1132B0020E030E040EC50E067E472E088E591E0DA
S1132B100E947F0C01C080E00F91FF90EF90089518
S1132B208F929F92AF92BF92CF92DF92EF92FF92D9
S1132B300F931F93CF93DF93CDB7DEB727970FB6CD
S1132B40F894DEBF0FBECDBFE0916B11F0916C1114
S1132B50309781F169832A833B834C835D839F8310
S1132B608E836630F4F4EEDB823069F400E0A70172
S1132B709601BE016F5F7F4F80916B1190916C1134
S1132B800E94CA0518C000E020E030E0A901BE019F
S1132B906F5F7F4F80916B1190916C110E94CA05F9
S1132BA00AC020E0A801BE016F5F7F4FCF010E94E1
S1132BB05A0601C080E027960FB6F894DEBF0FBE18
S1132BC0CDBFDF91CF911F910F91FF90EF90DF90D8
S1132BD0CF90BF90AF909F908F9008958F929F92C7
S1132BE0AF92BF92CF92DF92EF92FF920F931F9317
S1132BF0CF93DF933BC00780F085E02D80809180E8
S1132C00A280B380C085D1858E010E5F1F4FC8019D
S1132C100E944603EC89FD89CE0119958E8982FFB5
S1132C2025C08E859F85A889B989880D991DAA1DFF
S1132C30BB1D88169906AA06BB0670F48A839B837B
S1132C40AC83BD83DB87CA87B80180916F119091F3
S1132C5070110E9409030AC0C12CD12C760100E036
S1132C6010E0A501940160E0CE015ADFE0916F11FC
S1132C70F091701180818111BECF80916D1190917E
S1132C806E119093701180936F11F0936E11E09315
S1132C906D11DF91CF911F910F91FF90EF90DF9015
S1132CA0CF90BF90AF909F908F900895CF92DF9276
S1132CB0EF92FF92CF93DF93EC010E94090D6B0119
S1132CC07C018091651190916611A0916711B0917A
S1132CD06811C816D906EA06FB0620F47FDF81E0F6
S1132CE0888301C01882C0926511D0926611E09267
S1132CF06711F0926811C701B601DF91CF91FF907F
S1132D00EF90DF90CF9008954F925F926F927F92F1
S1132D108F929F92AF92BF92CF92DF92EF92FF92E7
S1132D200F931F93CF93DF934B015C0129013A0169
S1132D30E0916F11F09170110780F085E02DC0854E
S1132D40D185CE0102960E9446038E8982FF1BC064
S1132D504E855F8568897989480D591D6A1D7B1DDB
S1132D607501640193018201CE0147DE882369F075
S1132D70C12CD12C760100E010E0A501940160E0A3
S1132D80CE01CEDE02C08E7F8E8BEC89FD89CE0112
S1132D901995DF91CF911F910F91FF90EF90DF90E4
S1132DA0CF90BF90AF909F908F907F906F905F90E7
S1132DB04F9008958F929F92AF92BF92CF92DF92DD
S1132DC0EF92FF921F93CF93DF931F92CDB7DEB79D
S1132DD06B017C01142F0E94030DCE01019666DF66
S1132DE04B015C01898181112DC011110DC08C141E
S1132DF09D04AE04BF0440F00E94430EA50194015B
S1132E00C701B60181DF20C0112341F0E0916D11AB
S1132E10F0916E11808111E0811110E0B701A601DB
S1132E20481959096A097B09212F80916B119091E6
S1132E306C110E9424070E94430E811105C00E9458
S1132E40C20302C00E94430E0F90DF91CF911F91E5
S1132E50FF90EF90DF90CF90BF90AF909F908F90B6
S1132E600895AF92BF92CF92DF92EF92FF920F93A9
S1132E701F93CF93DF93CDB7DEB728970FB6F8949F
S1132E80DEBF0FBECDBF82C0898188230CF47EC013
S1132E90AE80BF80D5011C968D919C911D97892B86
S1132EA021F0C50102960E944603CE010896FEDE7B
S1132EB08B019C01E9810E2E000CFF0BEA30F10519
S1132EC008F064C08827EE58FF4F8F4F0C94152CE0
S1132ED0F50186898160868BCA80DB80EC80FD8069
S1132EE046855785608971894C0D5D1D6E1D7F1D5A
S1132EF0C50183DD882309F449C0D5015496ED91B9
S1132F00FC915597C5011995F501868982FF3EC04C
S1132F104A815B816C817D8186859785A089B18991
S1132F209A01AB01280F391F4A1F5B1FC12CD12CFA
S1132F30760100E010E060E0C501F2DD27C0D501B4
S1132F4056968C9156978E7F56968C931FC0F5019A
S1132F5086898160868B4A815B816C817D8146870D
S1132F605787608B718B400F511F621F731F68015D
S1132F707901C50142DD0AC0F501868981FD04C0DD
S1132F80C5010E94B70202C08E7F868B20E030E02C
S1132F90A901BE016F5F7F4F80916B1190916C11FD
S1132FA00E949506811170CF28960FB6F894DEBF63
S1132FB00FBECDBFDF91CF911F910F91FF90EF9086
S1132FC0DF90CF90BF90AF900895089584B180684A
S1132FD084B985B1806885B9089583B1806883B95F
S1132FE00895F4DF2FEF80E792E021508040904075
S1132FF0E1F700C00000F1DFF5CFE8DF2FEF87EA4B
S113300091E6215080409040E1F700C00000E5DFE8
S1133010F5CFCF93DF9300D01F92CDB7DEB70E94D8
S1133020090D69837A838B839C8348EA58E460E0C2
S113303070E0CE0101960E941F0F54D2811127C067
S113304079D2882321F179D2811121C062E370E021
S113305080E090E00E94840F85D2811118C061E065
S113306070E080E090E00E94840F8DD260938D1117
S113307070938E1180938F1190939011A3D26093CB
S1133080891170938A1180938B1190938C1142D281
S1133090811106C01F921F920E94E52E0F900F907F
S11330A01F9282E08F930E94E52E1CD20F900F9006
S11330B0882309F4BACF1F9281E08F930E94E52EF2
S11330C00F900F90B2CFEF92FF920F930F2EF7E86D
S11330D0EF2EF1E1FF2EF02D082F20E030E040EC40
S11330E050E06FE472E089E098E10E947F0C0F9158
S11330F0FF90EF9008950E9489018AE592E00E9472
S1133100F82E0E94CB0CFFCFCF93DF93EC0150D26B
S11331109093AC118093AB1170D29093AA118093C9
S1133120A9118CE692E09F938F930E94E52E8091E3
S1133130AC118F938091AB118F9384E792E09F93AE
S11331408F930E94E52E8091AA118F938091A911EB
S11331508F9384E992E09F938F930E94E52EE1E997
S1133160F1E186E0818382E080838091AB119091CC
S1133170AC11928383838091A9119091AA119483B5
S113318085838091A7119091A8119683878386E106
S1133190DE0101900D928A95E1F78DB79EB70A96EC
S11331A00FB6F8949EBF0FBE8DBFCE01DF91CF91B5
S11331B00895CF93DF9381E00E94802496D312D6A2
S11331C09F938F9382EB92E09F938F930E94E52EBF
S11331D00AD508D69F938F9385EC92E09F938F93A3
S11331E00E94E52E83EC91E192D3FCD5C3ECD1E1AE
S11331F0DF93CF939F938F938EED92E09F938F9362
S11332000E94E52ECE019FD3EDD59F938F93DF933C
S1133210CF9382EF92E09F938F930E94E52EAE01AD
S113322067E073E088E293E0BCD5DCD59F938F938D
S1133230DF93CF9387E093E09F938F9388E293E0AB
S11332409F938F9389E393E09F938F930E94E52E3E
S1133250ADD3C8D59F938F938FE693E09F938F93BD
S11332600E94E52E8DB79EB782960FB6F8949EBF46
S11332700FBE8DBF81E094D4B5D59F938F938EE715
S113328093E09F938F930E94E52E84EF91E093D473
S1133290A9D59F938F9381E08F9384EF8F938FE9C8
S11332A093E09F938F930E94E52E8DB79EB70A9665
S11332B00FB6F8949EBF0FBE8DBFCAE080E07CD3EA
S11332C0D82F90D59F938F931F92CF938FEB93E03A
S11332D09F938F930E94E52E0F900F900F900F9065
S11332E00F900F90D83059F080E00E94E42466E3F8
S11332F071E080E090E00E94840FC150F9F6D8306C
S113330021F481E00E94C62409C081E00E94D524F2
S113331080E00E94A3240E94C203FDCFDF91CF91DD
S11333200895CF93DF93CDB7DEB76A970FB6F894BD
S1133330DEBF0FBECDBF81E0CAD262E070E080E0A4
S113334090E00E94840F80E0C2D266E970E080E0E1
S113335090E00E94840F74D22CDF0E94090D6983CF
S11333607A838B839C8348EA58E460E070E0CE0162
S113337001960E941F0FCE010596C6DE86E1FE016E
S11333803596ADEAB1E101900D928A95E1F783E0BB
S11333900E94F6246DEA71E180E037D323D59F9330
S11333A08F938FED93E09F938F930E94E52E0F9060
S11333B00F900F900F90D7CFEF92FF920F93E12CC5
S11333C0F12C082F20E030E048E851E064EF73E08E
S11333D081E999E10E947F0C0F91FF90EF9008958D
S11333E033D088F09F5790F0B92F9927B751A0F0A8
S11333F0D1F0660F771F881F991F1AF0BA95C9F785
S113340012C0B13081F03AD0B1E0089537C0672FCF
S1133410782F8827B85F39F0B93FCCF38695779534
S11334206795B395D9F73EF490958095709561951D
S11334307F4F8F4F9F4F089557FD9058440F551F4E
S113344059F05F3F71F04795880F97FB991F61F022
S11334509F3F79F087950895121613061406551F99
S1133460F2CF4695F1DF08C0161617061806991F05
S1133470F1CF86957105610508940895E894BB27FA
S113348066277727CB0197F908956530F1F4FA019F
S113349080818F7390E0982F88272181822B9093CD
S11334A00A02809309028281F0E48F9FC0011124F3
S11334B0FA01238126952695822B90930802809306
S11334C0070281E0809327120895643051F080E070
S11334D090E4909308028093070290930A028093E9
S11334E0090208950F931F9305E41AE120E034E2E2
S11334F044EF50E060E087E20E941925909329127E
S11335008093281221E0892B09F020E0822F1F915B
S11335100F9108958091281290912912009741F0FB
S11335200E946625109229121092281280E00895B4
S113353082E0089580912712089580912812909135
S11335402912009759F040E060E070E00E946E2577
S1133550843031F41092271280E0089582E00895B7
S113356083E008958091281290912912009739F0F0
S113357064E00E94BA25853021F083E0089582E05A
S1133580089580E008956091090270910A0280E034
S113359090E00E949F2720E030E048EC52E40E9433
S11335A0042820E038EF4FE756E40C942D270895C3
S11335B0EADF20E030E040E251E40E94042810DF1A
S11335C0CB010895609107027091080280E090E0B9
S11335D00E949F2720E030E045E253E40E94042843
S11335E020E038EF4FE756E40E942D2720E030E03A
S11335F040E252E40C94C6260895E4DF20E030E073
S113360040E251E40E9404280E949827CB010895C7
S11336100F931F93CF93DF931F921F92CDB7DEB703
S11336208C0119822DC0E0918E12EC3250F481E0AD
S11336308E0F80938E12F0E0E054FD4E8A818083D9
S113364002C010928E128A818A30D1F440918E1277
S113365050E0FA01E254FD4E1082415051099E019E
S11336602F5F3F4F60EC72E1809191129091921222
S11336700E94A809898181110E94C20310928E12AE
S1133680BE016E5F7F4FC80150D5882361F20F9051
S11336900F90DF91CF911F910F9108950F931F9376
S11336A0CF93DF938C01EB01809191129091921250
S11336B00E94B508B8018AE292E10E947F2E209709
S11336C079F0EAE2F2E101900020E9F7319780E233
S11336D090E091838083BE018AE292E10E94742E7D
S11336E0EAE2F2E1DF010D900020E9F711978DE0A5
S11336F09AE011969C938E9312961C92019000204E
S1133700E9F73197EA52F241AE2F8AE292E1AC0135
S11337106A2F8091931290919412B2D4811111C0A6
S113372008E215E020E030E04DE250E06AE173E1A8
S113373080919112909192120E94EC098AE193E196
S113374002C080E090E0DF91CF911F910F91089526
S11337502F923F924F925F926F927F928F929F929D
S1133760AF92BF92CF92DF92EF92FF920F931F938B
S1133770CF93DF935C01FC0101900020E9F73197BE
S11337806F01C81AD90A5C2C0F2EF4E98F2EF6E0CB
S11337909F2EF02DE12CF12C4C2C3701F4010181EA
S11337A01281E80109900020E9F72197C01BD10B91
S11337B03C2EF9E0CF16D10458F0F4012080FEE04D
S11337C02F1206C0B801C5010E944F2E892B09F59E
S11337D0442D351408F44C2F50E0B801C5010E9463
S11337E0862E892B49F4F301EE0FFF1FE60DF71D1A
S11337F0EC56F94F20800DC08FEFE81AF80AE3E089
S11338008E0E911CF1E1EF16F10439F6689422242E
S113381024F8822DDF91CF911F910F91FF90EF90AB
S1133820DF90CF90BF90AF909F908F907F906F90DC
S11338305F904F903F902F90089530DF89CF089587
S113384080919112909192120C94B50808958F92E0
S11338509F92AF92CF92EF920F931F93CF93C82F63
S11338608B0141E060E070E088EC90E00E94830806
S113387090939212809391121093901200938F124E
S11338800F2EF8E08F2EFBE19F2EF02D6894AA24D2
S1133890A6F86894CC24C6F8E12C00E023E040E0CC
S11338A051EE60E070E08C2F1ED3909394128093BD
S11338B09312E7E0F1E0808180618083CF911F91D2
S11338C00F91EF90CF90AF909F908F9008958823A1
S11338D031F0E8E0F1E080818F7E80830895E8E0B4
S11338E0F1E0808180618083089560E070E08AE186
S11338F094E0D4DEEAE1F3E101900020E9F73197A6
S1133900EA51F34181E0759708F080E00895CF9380
S1133910DF93EC0160E070E08BE294E0BFDEEAE16B
S1133920F3E101900020E9F7EB52F34139F46AE145
S113393073E1CE010E947F2E80E002C0188281E0F4
S1133940DF91CF910895FC0101900020E9F79F01D8
S1133950215131092817390729F4BC0189E594E07C
S11339606CCF089589E00895FC0101900020E9F7E7
S11339709F01215131092817390729F4BC0188E630
S113398094E05BCF089589E00895FC010190002044
S1133990E9F79F01215231092817390729F4BC019D
S11339A087E794E04ACF089589E0089560E070E0E5
S11339B086EB94E042CF08950F931F93E82FF0E035
S11339C0EE0FFF1FE057F94F608171818FEB94E098
S11339D034DF811114C008E215E020E030E04DE24C
S11339E050E06AE173E180919112909192120E94E9
S11339F0EC09882321F08AE193E1AADE03C08AE17D
S1133A0093E1A6DE1F910F9108950F931F93CF9317
S1133A10DF931F92CDB7DEB7DB0111969C9111970E
S1133A20953108F0B4C0992381F160E070E0272F4C
S1133A3030E0462F50E0FD01E40FF51F928192958E
S1133A409F709A3010F0995C01C0905DF901E555C2
S1133A50FD4E90832F5F3F4FFD01E40FF51F9281D0
S1133A609F70492F50E04A30510514F0995C01C011
S1133A70905DF901E555FD4E90837E5F6F5F119671
S1133A809C911197691798F201C070E0E72FF0E05C
S1133A90E555FD4E10824C91811103C088EC94E0F1
S1133AA002C08AEC94E02BEA32E13F932F931F92F9
S1133AB04F939F938F938EEC94E09F938F938DEE0F
S1133AC092E19F938F930E94282F60E070E08DEE27
S1133AD092E1B3DE0FB6F894DEBF0FBECDBF811105
S1133AE059C008E215E020E030E04DE250E06AE120
S1133AF073E180919112909192120E94EC098823B3
S1133B0009F447C08AE193E123DE8E3009F042C014
S1133B1087E0898380918F1290919012892BA9F16B
S1133B20BE016F5F7F4F8AE193E168D18093951264
S1133B30E981F0E0E65EFC4EDF010D900020E9F73C
S1133B401197AE1BBF0BAA2391F0BB27CD010197A0
S1133B509C0112F42F5F3F4F3595279520939612C1
S1133B60AF014F5F5F4F64E187E992E173D101E0F8
S1133B7010E020E030E046E150E065E972E1809138
S1133B808F12909190120E94E5088EE003C084E1A8
S1133B9001C080E00F90DF91CF911F910F910895A4
S1133BA0813019F06EED74E002C067EB75E082EECF
S1133BB094E043CE08959F938F9383E195E09F9380
S1133BC08F938DEE92E19F938F930E94282F60E054
S1133BD070E08DEE92E131DE0F900F900F900F9018
S1133BE00F900F9008952F923F924F925F926F9291
S1133BF07F928F929F92AF92BF92CF92DF92EF9279
S1133C00FF920F931F93CF93DF93CDB7DEB7A097A7
S1133C100FB6F894DEBF0FBECDBF60E475E08CE450
S1133C2095E03CDD95DD8111A3C080E2E2E2F2E0A3
S1133C30DE01119601900D928A95E1F79E012F5FA6
S1133C403F4F6901E12CF12C0F2EF8E5AF2EF5E082
S1133C50BF2EF02D0DEE12E10F2EF1E74F2EF5E001
S1133C605F2EF02D0F2EF8E88F2EF5E09F2EF02D0D
S1133C700F2EF2EA6F2EF5E07F2EF02D3E2C2F2C26
S1133C80FF92EF92BF92AF921F930F930E94282F3F
S1133C9060E070E0C80102DD5BDD0F900F900F90D3
S1133CA00F900F900F90811163C032E03E15E8F43D
S1133CB0F60183818F9382818F9381818F93808199
S1133CC08F93FF92EF925F924F921F930F930E94F4
S1133CD0282F60E070E0C801E1DC3ADD0FB6F8940B
S1133CE0DEBF0FBECDBF811143C02F923F929F9282
S1133CF08F921F930F930E94282F60E070E0C801F9
S1133D00CDDC26DD0F900F900F900F900F900F9049
S1133D1081112EC02F923F927F926F921F930F9327
S1133D200E94282F60E070E0C801B8DC11DD0F901C
S1133D300F900F900F900F900F90811119C03FEFCB
S1133D40E31AF30A84E0C80ED11C98E0E916F104E2
S1133D5009F094CF60E070E08AEB95E09FDCF8DC3A
S1133D60811106C060E070E08BEC95E097DCF0DC3C
S1133D70A0960FB6F894DEBF0FBECDBFDF91CF91F2
S1133D801F910F91FF90EF90DF90CF90BF90AF9075
S1133D909F908F907F906F905F904F903F902F9067
S1133DA00895EF92FF920F931F93CF93DF93EC014B
S1133DB08B017A0181E0F4DE81110DC0CE01D4DDE6
S1133DC0811109C0C801E1DD811105C0C701BBDD56
S1133DD0811101C0EBDDDF91CF911F910F91FF9015
S1133DE0EF90089590E0FC01EE0FFF1F8E0F9F1FD0
S1133DF0FC01EC56F94F818192810895DC01009712
S1133E0029F1FB012081FC0101900020E9F73197A1
S1133E10E81BF90B822F90E0E817F907C8F080E05F
S1133E2008C0880F382F330F330F830F8053890F47
S1133E302F5FFD01E20FF11D908130ED390F3A3013
S1133E4010F49111EECFFB012083089580E00895D2
S1133E5080E008950F931F93CF93DF93DC01EA0171
S1133E602097E1F1FA0101900020E9F73197E41B72
S1133E70F50B329710F532C08D01040F151F30E099
S1133E80AE01420F531FFA019081913428F09753E9
S1133E90592F5295507F03C0592F5295507F2C0FA4
S1133EA03D1FF9019181913410F0975301C0905353
S1133EB0950FF80190838F5F01C080E0282F220FB7
S1133EC0482F50E0FE0101900020E9F73197EC1BE8
S1133ED0FD0B4E175F0710F48613CECFDF91CF9101
S1133EE01F910F9108952F923F924F925F926F927C
S1133EF07F928F929F92AF92CF92EF92FF920F9305
S1133F001F93CF93DF93CDB7DEB7F82E2A013B0181
S1133F1088E090E00E94372C8C018F2D90E0FC010A
S1133F20EE0FFF1FE95BFC4E1183008301151105A1
S1133F3009F469C0880F991FFC01E55FFD4F80817A
S1133F409181D8018D939C936C2D70E084E090E076
S1133F500E941D2C1C0161E070E086E090E00E944C
S1133F601D2C7C014C2DB101F5D6F801F582E482BB
S1133F706A2D70E084E090E00E941D2C1C0161E039
S1133F8070E086E090E00E941D2C7C014A2DB10176
S1133F90E1D6D8011396FC92EE92129717969C9252
S1133FA08E921697FFB6F894ED91FC91119736977F
S1133FB08081826080838D909C90C301B201BFD7C1
S1133FC020E030E040E051E40E9404289B01AC0171
S1133FD060E074E284E79BE440D720E030E040E80E
S1133FE05FE3D4D6FDD9F40132976083D801ED9113
S1133FF0FC911197359788E98083ED91FC91349772
S113400086E08083FFBEC801DF91CF911F910F919D
S1134010FF90EF90CF90AF909F908F907F906F9094
S11340205F904F903F902F900895CF93DF93DC01E2
S1134030892B01F11296ED91FC9113979381828162
S11340402581981B922384819817B1F0838126954A
S11340502823C081D181C20FD11D68838F5F9581D0
S113406089238383ED91FC913597808180628083DD
S113407080E003C081E001C082E0DF91CF91089528
S1134080EF92FF920F931F93CF93DF937C010097DE
S113409009F441C0DC011296ED91FC9113979381D0
S11340A08281981B858198238481891B8617A8F1B6
S11340B0662341F1842F952FDC016150462F50E097
S11340C04F5F5F4F480F591FE701EA81FB819381DE
S11340D082812581981B92238481981779F08C9191
S11340E0938126952923608171818B01020F111D13
S11340F0E80188839F5F8581982393831196A41791
S1134100B50711F7D701ED91FC9135978081806255
S1134110808380E003C081E001C082E0DF91CF9121
S11341201F910F91FF90EF9008950097D1F0DC015B
S11341301496ED91FC91159793818281981799F0CB
S11341409281858186958923A081B181A80FB11DB3
S11341508C91DB018C939F5F85819823928380E00F
S1134160089581E0089583E008951F920F920FB699
S11341700F9211240BB60F922F933F934F935F939B
S11341806F937F938F939F93AF93BF93CF93DF935B
S1134190EF93FF93A0914713B0914813109711F137
S11341A06091C6001496ED91FC91159793818281DC
S11341B02581981B92238481981761F08381269529
S11341C02823C081D181C20FD11D68838F5F95815F
S11341D0892383831696ED91FC911797309711F0FC
S11341E0CD011995FF91EF91DF91CF91BF91AF91DF
S11341F09F918F917F916F915F914F913F912F91FB
S11342000F900BBE0F900FBE0F901F9018951F922A
S11342100F920FB60F9211240BB60F922F938F9318
S11342209F93AF93BF93EF93FF93E0914713F09164
S113423048133097B9F00280F381E02D9381828195
S11342409817B1F092818581282F26952923A08182
S1134250B181A20FB11D2C919F5F8923828320938A
S1134260C6000BC0E1ECF0E080818F7D808305C047
S1134270E1ECF0E080818F7D8083FF91EF91BF912D
S1134280AF919F918F912F910F900BBE0F900FBE06
S11342900F901F9018951F920F920FB60F92112432
S11342A00BB60F922F933F934F935F936F937F932C
S11342B08F939F93AF93BF93CF93DF93EF93FF932A
S11342C0A0914913B0914A13109711F16091CE0057
S11342D01496ED91FC911597938182812581981B09
S11342E092238481981761F0838126952823C081C5
S11342F0D181C20FD11D68838F5F95818923838308
S11343001696ED91FC911797309711F0CD01199500
S1134310FF91EF91DF91CF91BF91AF919F918F91D9
S11343207F916F915F914F913F912F910F900BBEB1
S11343300F900FBE0F901F9018951F920F920FB6FB
S11343400F9211240BB60F922F938F939F93AF93D9
S1134350BF93EF93FF93E0914913F0914A13309781
S1134360B9F00280F381E02D938182819817B1F036
S113437092818581282F26952923A081B181A20FBE
S1134380B11D2C919F5F892382832093CE000BC0A3
S1134390E9ECF0E080818F7D808305C0E9ECF0E0FA
S11343A080818F7D8083FF91EF91BF91AF919F9129
S11343B08F912F910F900BBE0F900FBE0F901F90F7
S11343C018951F920F920FB60F9211240BB60F92ED
S11343D02F933F934F935F936F937F938F939F9309
S11343E0AF93BF93CF93DF93EF93FF93A0914B13BE
S11343F0B0914C13109711F16091D6001496ED9181
S1134400FC911597938182812581981B9223848145
S1134410981761F0838126952823C081D181C20F2A
S1134420D11D68838F5F9581892383831696ED91CF
S1134430FC911797309711F0CD011995FF91EF91E9
S1134440DF91CF91BF91AF919F918F917F916F91A8
S11344505F914F913F912F910F900BBE0F900FBE24
S11344600F901F9018951F920F920FB60F92112460
S11344700BB60F922F938F939F93AF93BF93EF93AA
S1134480FF93E0914B13F0914C133097B9F00280F5
S1134490F381E02D938182819817B1F09281858117
S11344A0282F26952923A081B181A20FB11D2C911B
S11344B09F5F892382832093D6000BC0E1EDF0E057
S11344C080818F7D808305C0E1EDF0E080818F7D68
S11344D08083FF91EF91BF91AF919F918F912F9125
S11344E00F900BBE0F900FBE0F901F9018951F9248
S11344F00F920FB60F9211240BB60F922F933F9386
S11345004F935F936F937F938F939F93AF93BF93D7
S1134510CF93DF93EF93FF93A0914D13B0914E137C
S1134520109711F1609136011496ED91FC91159755
S1134530938182812581981B92238481981761F04D
S1134540838126952823C081D181C20FD11D688320
S11345508F5F9581892383831696ED91FC9117973C
S1134560309711F0CD011995FF91EF91DF91CF9123
S1134570BF91AF919F918F917F916F915F914F9177
S11345803F912F910F900BBE0F900FBE0F901F9075
S113459018951F920F920FB60F9211240BB60F921B
S11345A02F938F939F93AF93BF93EF93FF93E091D8
S11345B04D13F0914E133097B9F00280F381E02D42
S11345C0938182819817B1F092818581282F269555
S11345D02923A081B181A20FB11D2C919F5F892352
S11345E08283209336010BC0E1E3F1E080818F7D6B
S11345F0808305C0E1E3F1E080818F7D8083FF91BA
S1134600EF91BF91AF919F918F912F910F900BBE1E
S11346100F900FBE0F901F901895CF93DF931F92AA
S1134620CDB7DEB7BE016F5F7F4F80914F1390917E
S113463050137BDD8111F6CF898190E00F90DF91DB
S1134640CF910895682F80914F1390915013EDDC12
S113465080E090E008958F929F92AF92CF92EF9274
S11346600F93812C912C6894AA24A7F86894CC24E5
S1134670C7F8E12C00E023E040E051EE60E070E098
S113468032DC9093501380934F13ECE7F3E183E112
S113469092E091838083938382830F91EF90CF90F4
S11346A0AF909F908F90089590E0FC01EE0FFF1F54
S11346B0E80FF91FEE0FFF1FEF5AFC4E2381211163
S11346C01FC09C01220F331FF901E80FF91FEE0FE1
S11346D0FF1FEF5AFC4EA081B1814C91F901E80F04
S11346E0F91FEE0FFF1FEF5AFC4E81E090E00280AD
S11346F002C0880F991F0A94E2F7842B8C930895C3
S1134700FC01EE0FFF1FDF01A80FB91FAA0FBB1F8B
S1134710AF5ABC4E0D90BC91A02D2C91E80FF91FFF
S1134720EE0FFF1FEF5AFC4E81E090E0028002C0C2
S1134730880F991F0A94E2F7809582238C93089539
S113474090E0FC01EE0FFF1FE80FF91FEE0FFF1FB3
S1134750EF5AFC4E2381211120C09C01220F331FEC
S1134760F901E80FF91FEE0FFF1FEF5AFC4EA0816D
S1134770B1814C91F901E80FF91FEE0FFF1FEF5AB9
S1134780FC4E81E090E0028002C0880F991F0A94D9
S1134790E2F7809584238C930895FC01EE0FFF1FAC
S11347A0DF01A80FB91FAA0FBB1FAF5ABC4E0D9053
S11347B0BC91A02D2C91E80FF91FEE0FFF1FEF5AAB
S11347C0FC4E81E090E0028002C0880F991F0A9499
S11347D0E2F7822B8C930895CC24C394D12C689453
S11347E0BB24B2F8C1E5D3E110E08C81813081F0C3
S11347F018F1823061F5E881F9812081C6010A80CF
S113480002C0880F991F0A94E2F7822780831FC091
S11348108D818F5F8A3010F48D8319C01D82E881E9
S1134820F9812081C6010A8002C0880F991F0A9469
S1134830E2F7822780830BC00D81002329F0812FAA
S11348407FDF01500D8303C0BC82812F2DDF1F5FEA
S11348502696143051F665E070E080E090E00E9406
S1134860840FC0CFEF92FF920F931F93CF93DF93E8
S1134870082F80E487B9C1E5D3E10F2EF8E2EF2ECB
S1134880F12CF02DF982E88286E08A831B8214E001
S11348901C8380E009DF80E887B9FF82EE8287E02D
S11348A0888719861A8781E0FFDE80E283BB84E370
S11348B090E09D878C8785E08E871F86188B82E029
S11348C0F3DE80E18093010182E091E09B8B8A8B8F
S11348D01C8B1D8A1E8B83E0E7DEE12CF12C20E08B
S11348E030E040EC50E067EC76E08CEE93E20E941E
S11348F07F0CDF91CF911F910F91FF90EF9008955E
S1134900CF93DF9390E0FC01EE0FFF1FDF01A80FB0
S1134910B91FAA0FBB1FAF5ABC4ECD91DC911197A2
S1134920488121E030E012960C90129702C0220FC9
S1134930331F0A94E2F724272883FD0181E084834E
S1134940DF91CF910895CF93DF9390E0FC01EE0FB8
S1134950FF1FDF01A80FB91FAA0FBB1FAF5ABC4E20
S1134960CD91DC911197488121E030E012960C90B2
S1134970129702C0220F331F0A94E2F724272883D8
S1134980FD0182E08483DF91CF910895282F30E0E8
S1134990F901EE0FFF1FE20FF31FEE0FFF1FEF5A97
S11349A0FC4E93E09483CCCE0895282F30E0F90197
S11349B0EE0FFF1FE20FF31FEE0FFF1FEF5AFC4E27
S11349C094E0948371CE089590E0FC01EE0FFF1FF4
S11349D0DF01A80FB91FAA0FBB1FAF5ABC4E24E0BA
S11349E015962C931597FD011482089590E0FC010F
S11349F0EE0FFF1FDF01A80FB91FAA0FBB1FAF5A8D
S1134A00BC4E21E015962C931597FD011482089550
S1134A108091771381110CC08CE08093B8008FEFE4
S1134A208093BB0084E08093BC0081E08093771383
S1134A300895AF92BF92CF92DF92EF92FF920F93BD
S1134A401F93CF93DF93A82EB62E69017A0184E0D9
S1134A5090E00DD7EC01892B61F1A88281E0B812B6
S1134A6012C0C701B60120EA36E841E050E0BBD6E7
S1134A70DA01C9014097A109B109B695A79597959F
S1134A808795898311C0C701B60120E83AE146E061
S1134A9050E0A9D6DA01C9014097A109B109B69538
S1134AA0A7959795879589831B830A838C2F9D2FC0
S1134AB002C080E090E0DF91CF911F910F91FF90B1
S1134AC0EF90DF90CF90BF90AF900895009709F0DA
S1134AD066C708958091BC0081700895FF920F937A
S1134AE01F93CF93DF930097D1F14A30D0F5F42E82
S1134AF08B01EC01EFDF811136C080916A13909134
S1134B006B13C817D90741F083DF89818093B800FC
S1134B10D0936B13C0936A1381E08F0D80936C1351
S1134B208881880F80936D13FF2089F0F801AEE629
S1134B30B3E14FEF4F0D642F70E0CB010196B80144
S1134B40680F791F81918D93E617F707D9F788EFDE
S1134B508093210285EA8093BC0084E005C086E04E
S1134B6003C087E001C082E0DF91CF911F910F91D4
S1134B70FF9008951F93CF93DF93009729F16B3033
S1134B8028F5162FEC01A6DF811122C080916A134B
S1134B9090916B13C817D90741F03ADF898180934C
S1134BA0B800D0936B13C0936A1310936C1388816D
S1134BB0880F816080936D1388EF8093210285EACA
S1134BC08093BC0085E005C086E003C087E001C097
S1134BD082E0DF91CF911F9108951F920F920FB63B
S1134BE00F9211240BB60F922F933F934F935F9321
S1134BF06F937F938F939F93AF93BF93EF93FF93A1
S1134C00E091B9008E2F90E0FC013897E135F10571
S1134C1008F075C08827E458FF4F8F4F06C61092DE
S1134C206913E091691380916C13E81770F481E0C3
S1134C308E0F80936913F0E0E359FC4E80818093DA
S1134C40BB0085E88093BC0072C084E98093BC00FB
S1134C5080916A1390916B13DC011296ED91FC9193
S1134C601397309709F463C020E040E050E064E01B
S1134C7019955DC0E091691381E08E0F80936913EB
S1134C808091BB00F0E0E359FC4E80838091B90031
S1134C90803411F4109269132091691330E08091EB
S1134CA06C1390E001972817390724F485EC80935E
S1134CB0BC003DC085E88093BC0039C08091BB0036
S1134CC0E0916913F0E0E359FC4E808384E980931A
S1134CD0BC0080916A1390916B13DC011296ED91E4
S1134CE0FC911397309719F120916C134DE653E121
S1134CF065E019951CC085EA8093BC0018C08091BA
S1134D00B9008093210284E08093BC0080916A13EF
S1134D1090916B13DC011296ED91FC9113973097EF
S1134D2031F020E040E050E0609121021995FF91BC
S1134D30EF91BF91AF919F918F917F916F915F910F
S1134D404F913F912F910F900BBE0F900FBE0F907C
S1134D501F901895FC01411101C0AAD6842F90E040
S1134D609C012150310982239323892B09F0A0D679
S1134D70413808F09DD6128213824483440F415077
S1134D8045837183608380E090E008955058BB2789
S1134D90AA270ED028C119D130F01ED120F031F449
S1134DA09F3F11F41EF40EC10EF4E095E7FB04C11D
S1134DB0E92F0E941C1A78F3BA1762077307840755
S1134DC0950720F079F4A6F50C943E1A0EF4E095BC
S1134DD00B2EBA2FA02D0B01B90190010C01CA01B1
S1134DE0A0011124FF27591B99F0593F50F4503E5C
S1134DF068F11A16F040A22F232F342F4427585F4E
S1134E00F3CF469537952795A795F0405395C9F765
S1134E107EF41F16BA0B620B730B840BBAF091501D
S1134E20A1F0FF0FBB1F661F771F881FC2F70EC0BC
S1134E30BA0F621F731F841F48F48795779567958F
S1134E40B795F7959E3F08F0B1CF9395880F08F07A
S1134E509927EE0F9795879508950DD0C4C0BCD0BF
S1134E6048F0B3D038F021F45F3F21F0A5C05111D0
S1134E700C943F1AA7C00E941C1A88F39923B9F313
S1134E805523A1F3951B550BBB27AA27621773075C
S1134E90840738F09F5F5F4F220F331F441FAA1F00
S1134EA0A9F334D00E2E3AF0E0E831D091505040BE
S1134EB0E695001CCAF72AD0FE2F28D0660F771F6C
S1134EC0881FBB1F261737074807AB07B0E809F050
S1134ED0BB0B802DBF01FF2793585F4F32F09E3FDD
S1134EE0510570F069C00C943F1A5F3FE4F3983E9B
S1134EF0D4F3869577956795B795F7959F5FC9F72E
S1134F00880F911D9695879597F90895E1E0660FAE
S1134F10771F881FBB1F621773078407BA0720F027
S1134F20621B730B840BBA0BEE1F88F7E095089590
S1134F300E94F0196894B1110C943F1A0895E894F2
S1134F4009C097FB3EF490958095709561957F4FCD
S1134F508F4F9F4F9923A9F0F92F96E9BB2793957B
S1134F60F695879577956795B795F111F8CFFAF48B
S1134F70BB0F11F460FF1BC06F5F7F4F8F4F9F4FBC
S1134F8016C0882311F096E911C0772321F09EE81A
S1134F90872F762F05C0662371F096E8862F70E080
S1134FA060E02AF09A95660F771F881FDAF7880F5A
S1134FB09695879597F9089597F99F6780E870E02B
S1134FC060E008959FEF80EC089500240A9416167B
S1134FD0170618060906089500240A9412161306E3
S1134FE0140605060895092E0394000C11F4882371
S1134FF052F0BB0F40F4BF2B11F460FF04C06F5F8D
S11350007F4F8F4F9F4F08950CD0EDCFDEDF28F0F8
S1135010E3DF18F0952309F0CFCFD4CF11240C94FB
S11350203F1A0E941C1A90F3959FC1F3950F50E00C
S1135030551F629FF001729FBB27F00DB11D639F46
S1135040AA27F00DB11DAA1F649F6627B00DA11DEC
S1135050661F829F2227B00DA11D621F739FB00D92
S1135060A11D621F839FA00D611D221F749F332702
S1135070A00D611D231F849F600D211D822F762F9B
S11350806A2F11249F57504092F0E9F088234AF088
S1135090EE0FFF1FBB1F661F771F881F91505040E4
S11350A0A9F79E3F510578F087CF0C943F1A5F3FD4
S11350B0E4F3983ED4F3869577956795B795F7957D
S11350C0E7959F5FC1F7FE2B880F911D96958795F5
S11350D097F908952F923F924F925F926F927F9229
S11350E08F929F92AF92BF92CF92DF92EF92FF92F4
S11350F00F931F93CF93DF93CDB7DEB760970FB6AF
S1135100F894DEBF0FBECDBF7C011B016A01FC0118
S113511017821682838181FF2AC39E012F5F3F4F2E
S11351203901F7019381F10193FD859193FF8191F9
S11351301F01882309F417C3853239F493FD85913F
S113514093FF81911F01853231F4B70190E001D6BC
S113515056016501E6CF10E0512C912CFFE1F915C1
S1135160D8F08B3279F038F4803279F08332A1F4BC
S1135170F92DF0612EC08D3261F0803369F4292D50
S113518021602DC0392D3260932E892D8460982E94
S11351902AC0E92DE86015C097FC2DC020ED280F2A
S11351A02A3088F496FE06C03AE0139F200D11249D
S11351B0122F19C08AE0589E200D1124522EE92D79
S11351C0E0629E2E10C08E3231F496FCCCC2F92DD2
S11351D0F0649F2E08C08C3621F4292D2068922E6D
S11351E002C0883641F4F10193FD859193FF8191CA
S11351F01F018111B3CF9BEB980F933020F4992DAD
S11352009061805E07C09BE9980F933008F059C104
S1135210992D9F7E96FF16E09F73992E853619F47B
S11352209064992E08C0863621F4392F3068932E65
S113523002C01111115097FE07C01C3350F44424CE
S11352404394410E27E00BC0183038F027E017E0F4
S113525005C027E09CE3492E02C0212F412C5601B2
S113526084E0A80EB11CF601608171818281938172
S1135270042DA30121D46C01F981FC87F0FF02C045
S1135280F3FF06C091FC06C092FE06C000E205C012
S11352900DE203C00BE201C000E08C858C7019F0B4
S11352A0011143C280C297FE10C04C0CFC85F4FF70
S11352B004C08A81813309F44A94141474F528E0F3
S11352C0241578F588E0482E2CC096FC2AC0812F3E
S11352D090E08C159D059CF03CEFC3163FEFD30680
S11352E074F0892D8068982E0AC0E2E0F0E0EC0F9B
S11352F0FD1FE10FF11D8081803319F4115011114C
S1135300F4CF97FE0EC044244394410E812F90E0C5
S1135310C816D9062CF41C1904C04424439401C0B3
S113532010E097FE06C01C141D0434F4C601019657
S113533005C085E090E002C081E090E00111019693
S1135340112331F0212F30E02F5F3F4F820F931F45
S1135350252D30E08217930714F4581A01C0512CFC
S1135360892D897041F4552031F0B70180E290E035
S1135370F0D45A94F8CF002321F0B701802F90E0A5
S1135380E8D493FC08C0552031F0B70180E390E0E5
S1135390E0D45A94F8CF97FE4AC04601D7FE02C023
S11353A0812C912CC60188199909F301E80FF91F82
S11353B0FE87ED87960124193109388B2F87012F39
S11353C010E01195019511093FEF8316930621F41E
S11353D0B7018EE290E0BDD4C814D9044CF08F8597
S11353E098898815990524F4ED85FE85818101C08D
S11353F080E3F1E08F1A91082D853E852F5F3F4FA2
S11354003E872D878016910624F0B70190E0A1D441
S1135410DBCFC814D90441F49A81963320F4953330
S113542019F43C8534FF81E3B70190E048C08A81D8
S1135430813319F09C859F7E9C87B70190E089D4C5
S1135440111105C094FC16C085E690E015C0B701A3
S11354508EE290E07ED41E5F82E001E0080FF3014B
S1135460E80FF11D8081B70190E073D4802F011300
S1135470F4CFE8CF85E490E0B7016BD4D7FC06C045
S1135480C114D10441F4EC85E4FF05C0D194C19466
S1135490D1088DE201C08BE2B70190E05AD480E3D9
S11354A02AE0C216D1042CF08F5FFAE0CF1AD1089B
S11354B0F7CFB70190E04DD4B701C601C09649D4E7
S11354C049C1833631F0833779F0833509F052C00E
S11354D01FC0560132E0A30EB11CF60180818983FE
S11354E001E010E0630111C05601F2E0AF0EB11CFF
S11354F0F601C080D18096FE03C0612F70E002C027
S11355006FEF7FEFC6011AD48C01F92DFF7713C01A
S1135510560122E0A20EB11CF601C080D18096FE95
S113552003C0612F70E002C06FEF7FEFC6019CD310
S11355308C01F92DF0689F2EF3FD18C0852D90E0A5
S11355400817190798F4B70180E290E002D45A943E
S1135550F5CFF60197FC859197FE81916F01B70114
S113556090E0F7D351105A94015011090115110517
S113557081F7F0C0843611F0893659F5560197FE4B
S113558009C024E0A20EB11CF60160817181828100
S113559093810AC0F2E0AF0EB11CF6016081718103
S11355A0072E000C880B990BF92DFF769F2E97FF81
S11355B009C090958095709561957F4F8F4F9F4F4F
S11355C0F0689F2E2AE030E0A30170D4C82EC618DC
S11355D03EC0092D853721F40F7E2AE030E01DC03E
S11355E0097F8F3691F018F4883559F0BCC08037A4
S11355F019F0883711F0B7C0006104FF09C00460D6
S113560007C094FE08C0066006C028E030E005C06C
S113561020E130E002C020E132E0560107FF09C07A
S113562084E0A80EB11CF6016081718182819381AE
S113563008C0F2E0AF0EB11CF6016081718180E018
S113564090E0A30133D4C82EC6180F77902E96FE8F
S11356500BC0092D0E7FC11650F494FE0AC092FCB3
S113566008C0092D0E7E05C0DC2C092D03C0DC2CDE
S113567001C0D12E04FF0DC0FE01EC0DF11D80818F
S1135680803311F4097E09C002FF06C0D394D39479
S113569004C0802F867809F0D39403FD10C000FF66
S11356A006C01C2DD51478F4150D1D190CC0D51485
S11356B050F4B70180E290E04CD3D394F8CFD514E2
S11356C010F45D1801C0512C04FF0FC0B70180E332
S11356D090E03FD302FF16C001FD03C088E790E0CD
S11356E002C088E590E0B7010CC0802F867851F0A5
S11356F001FF02C08BE201C080E207FD8DE2B70129
S113570090E027D3C11630F4B70180E390E021D3B1
S11357101150F8CFCA94F301EC0DF11D8081B7014B
S113572090E017D3C110F6CF15C0F4E0F51550F58D
S113573084E0581A93FE1EC0011125C02C8523FF56
S113574027C00AE911E0392D3071932EF8018491B4
S1135750811121C0552009F4FCCCB70180E290E00E
S1135760F8D25A94F7CFF7018681978123C08FEF3F
S11357709FEF20C0B70180E290E0EBD25A94511021
S1135780F9CFDACF512CB701802F90E0E2D2D6CFF7
S11357900EE911E0D8CF91108052B70190E0D9D230
S11357A00F5F1F4FD3CF23E0251510F483E0C1CF43
S11357B0512CC4CF60960FB6F894DEBF0FBECDBF98
S11357C0DF91CF911F910F91FF90EF90DF90CF90D9
S11357D0BF90AF909F908F907F906F905F904F900D
S11357E03F902F900895A1E21A2EAA1BBB1BFD0126
S11357F00DC0AA1FBB1FEE1FFF1FA217B307E407AC
S1135800F50720F0A21BB30BE40BF50B661F771F03
S1135810881F991F1A9469F76095709580959095E3
S11358209B01AC01BD01CF010895EE0FFF1F881F3E
S11358308BBF0790F691E02D19940F931F93CF938C
S1135840DF93869F8001879F100D969F100D112472
S1135850C8010DD0EC01009721F0A80160E070E0D0
S113586017D2CE01DF91CF911F910F9108950F931D
S11358701F93CF93DF938230910510F482E090E080
S1135880E0917A13F0917B1320E030E0A0E0B0E0E7
S1135890309719F1408151810281138148175907CA
S11358A0C8F08417950769F4109731F012960C9399
S11358B0129713961C9327C000937A1310937B13AB
S11358C022C02115310519F04217530718F49A0123
S11358D0BD01EF01DF01F801DBCF21153105F9F03E
S11358E0281B390B2430310580F48A819B81611592
S11358F0710521F0FB019383828304C090937B1391
S113590080937A13FE01329644C0FE01E20FF31F26
S11359108193919322503109398328833AC020918D
S1135920781330917913232B41F4209102023091A2
S1135930030230937913209378132091000230915D
S113594001022115310541F42DB73EB740910402FF
S113595050910502241B350BE0917813F0917913D3
S1135960E217F307A0F42E1B3F0B2817390778F032
S1135970AC014E5F5F4F2417350748F04E0F5F1F91
S113598050937913409378138193919302C0E0E08C
S1135990F0E0CF01DF91CF911F910F910895CF9344
S11359A0DF93009709F481C0FC01329713821282BD
S11359B0A0917A13B0917B13109781F420813181E7
S11359C0820F931F20917813309179132817390788
S11359D051F5F0937913E093781367C0ED0120E05B
S11359E030E0CE17DF0740F44A815B819E01411508
S11359F05105F1F0EA01F5CFD383C283408151818F
S1135A00840F951FC817D90759F488819981840F89
S1135A10951F0296918380838A819B8193838283DD
S1135A202115310529F4F0937B13E0937A133DC0DB
S1135A30E901FB83EA8349915991C40FD51FEC17FF
S1135A40FD0761F480819181840F951F0296E9011D
S1135A5099838883828193819B838A83E0E0F0E049
S1135A6012968D919C911397009719F0FD01DC011A
S1135A70F7CF8D919C9111979D012E5F3F4F820F1F
S1135A80931F20917813309179132817390769F4FB
S1135A90309729F410927B1310927A1302C0138268
S1135AA01282B0937913A0937813DF91CF91089564
S1135AB081E090E0F89458C2283008F027E03327BA
S1135AC0DA01990F311D87FD91600096610571051A
S1135AD039F432602E5F3D9330E32A95E1F708955F
S1135AE09F3F30F080387105610509F03C5F3C5FF1
S1135AF03D93913008F08068911DDF93CF931F93FD
S1135B000F93FF92EF92192F987F9695E92F969510
S1135B109695E90FFF27E450FE4F99273327EE248B
S1135B20FF24A701E70105900894079428F4360F91
S1135B30E71EF81E491F511D660F771F881F991F06
S1135B400694A1F70590079428F4E70EF81E491F60
S1135B50561FC11D770F881F991F661F0694A1F752
S1135B600590079428F4F80E491F561FC71FD11D2E
S1135B70880F991F661F771F0694A1F70590079455
S1135B8020F4490F561FC71FD81F990F661F771F90
S1135B90881F0694A9F784911095177041F0D69543
S1135BA0C79557954795F794E7941A95C1F7E2EA94
S1135BB0F1E0689415901591359165919591059052
S1135BC07FE27395E118F10A430B560BC90BD00918
S1135BD0C0F7E10CF11E431F561FC91FD01D7EF4F0
S1135BE0703311F48A95E6CFE894015030F0080F31
S1135BF00AF40027021708F4202F2395022F7A3382
S1135C0028F079E37D932A95E9F710C07D932A95CE
S1135C1089F6069497956795379517951794E11823
S1135C20F10A430B560BC90BD00998F023957E91CA
S1135C3073957A3308F070E37C932013B8F77E9160
S1135C4070617D9330F0839571E37D9370E32A95C1
S1135C50E1F71124EF90FF900F911F91CF91DF9105
S1135C60992787FD90950895FC0105906150704037
S1135C700110D8F7809590958E0F9F1F0895FB0112
S1135C80DC0102C001900D9241505040D8F70895B4
S1135C90DC0101C06D9341505040E0F70895FB01D1
S1135CA051915523B1F0BF01DC01052E4D914423E0
S1135CB069F010D0D9F7CD010190002049F04D9141
S1135CC0411108D0C9F3FB014111EECF81E090E00E
S1135CD001970895402539F0403229F440294B5763
S1135CE0465E08F018940895FB01DC010D90002035
