S0120000342E53656D65737465722E7372656368
S113000066C1000085C1000083C1000081C10000F9
S11300107FC100007DC100007BC1000079C10000E8
S113002077C1000075C1000073C1000071C10000F8
S113003034C700006DC100006BC1000069C100003D
S113004067C1000065C1000063C1000061C1000018
S11300505FC100005DC100005BC1000059C1000028
S113006057C100000C94C6250C94182651C10000F9
S11300704FC100004DC100004BC1000049C1000048
S113008047C1000045C1000043C1000041C1000058
S11300900C945C260C94AE263BC100000C94FA2A06
S11300A037C1000035C1000033C1000031C1000078
S11300B02FC100002DC100002BC1000029C1000088
S11300C027C1000025C1000023C100000C94F226C2
S11300D00C9444271DC100000C9488270C94DA2743
S11300E017C10000641B641B641B9B1BA31BB81B70
S11300F0641B641B9B1BA31B1C2B8C2B8C2B8C2B1E
S11301008C2B8C2B8C2B8C2B1C2B8C2B8C2B8C2BA3
S11301108C2B8C2B8C2B8C2B1E2B8C2B8C2B8C2B91
S11301208C2B8C2B8C2B8C2B8C2B8C2B8C2B8C2B13
S11301308C2B8C2B8C2B8C2B1E2B8C2B8C2B8C2B71
S11301408C2B8C2B8C2B8C2B8C2B8C2B8C2B8C2BF3
S11301508C2B8C2B8C2B8C2B882B8C2B8C2B8C2BE7
S11301608C2B8C2B8C2B8C2B532B8C2B8C2B8C2B0C
S11301708C2B8C2B8C2B8C2B8C2B8C2B8C2B8C2BC3
S11301808C2B8C2B8C2B8C2B472B8C2B8C2B8C2BF8
S11301908C2B8C2B8C2B8C2B6B2B6E616E00696ED5
S11301A0660000407A10F35A00A0724E180900103D
S11301B0A5D4E80000E87648170000E40B540200D8
S11301C000CA9A3B000000E1F50500008096980003
S11301D0000040420F000000A0860100000010272C
S11301E000000000E80300000000640000000000BC
S11301F00A00000000000100000000002C76D888EE
S1130200DC674F0823DFC1DFAE59E1B1B796E5E300
S1130210E453C63AE651997696E8E6C28426EB8919
S11302208C9B62ED407C6FFCEFBC9C9F40F2BAA5B6
S11302306FA5F490055A2AF75C936B6CF9676DC14E
S11302401BFCE0E40D47FEF520E6B500D0ED902E52
S11302500300943577050080841E080000204E0AB0
S1130260000000C80C333333330F986E12831141EE
S1130270EF8D2114893BE65516CFFEE6DB18D184B9
S11302804B381BF77C1D901DA4BBE42420328472E0
S11302905E228100C9F124ECA1E53D270E94A60E4F
S11302A080915B14823008F032D50E94E11BF6CFB6
S11302B0CF93DF931F92CDB7DEB7CE0101960E9494
S11302C0E11849810E94D61A0E942D1BF6CF1124F1
S11302D01FBECFEFD1E2DEBFCDBF00E00CBF18E000
S11302E0A0E0B2E0E8E8FAE600E00BBF02C0079045
S11302F00D92AC32B107D9F726E1ACE2B8E001C007
S11303001D92AD3FB207E1F70E94B81C0C94423530
S113031077CE8091E3169091E416089541E150E080
S113032060E070E022C20895CF92DF92EF92FF92D4
S11303300F93CF93DF93EC010F2EF6E0CF2ED12C49
S1130340E12CF12CF02D01E020E041E150E060E0EF
S113035070E06BD1DC01CB0181719927AA27BB27FF
S11303604197A105B105A9F48FE692E09F938F937D
S11303700E9473340E94221C0E94EF1C0E94311CB4
S11303800E94F41C5FD00E94EA1CCE01C7DF0F90CC
S11303900F90DF91CF910F91FF90EF90DF90CF906E
S11303A00895CF93DF9300D01F92CDB7DEB78EE8C8
S11303B092E09F938F930E94733424D19093E41618
S11303C08093E3160E94F70F69837A838B839C835F
S11303D00F900F9042E150E060E070E0CE01019692
S11303E00E940D128091E3169091E416009791F308
S11303F09BDFF0CFEF92FF920F93E12CF12C082FAB
S113040020E030E040EC50E06FE972E081ED91E0F3
S11304100E946D0F0F91FF90EF900895EF92FF925D
S11304200F93E12CF12C082F20E030E040EC50E059
S11304306FEA72E08DE292E00E946D0F0F91FF90DF
S1130440EF9008958091E7169091E816089541E0A1
S113045050E060E070E0A6C10895CF93DF9300D030
S11304601F92CDB7DEB787EB92E09F938F930E94E4
S1130470733480E090E00E940B240E94F70F69839C
S11304807A838B839C830F900F9048EA58E460E052
S113049070E0CE0101960E940D120E9410248093F8
S11304A0E5168111F2CF62E370E080E090E00E94F3
S11304B072128091E616811109C087EE96E10E94BE
S11304C03F248093E61625DFC2DFDFCF8130E9F6D3
S11304D080EC92E09F938F930E9473340F900F905F
S11304E0D4CFCF93DF9300D01F92CDB7DEB70E9455
S11304F0F70F69837A838B839C8348EA58E460E02E
S113050070E0CE0101960E940D128CED92E00E94E3
S1130510863483E00E94072A0FEF1FEF980146E11B
S113052050E06CE278E08091ED169091EE160E9416
S1130530D30C0CE218E0F801918180811F929F9303
S11305401F928F9382EF92E09F938F930E94733454
S1130550F80181810F900F900F900F900F900F90E2
S1130560843059F6828190E0982F88272381820F66
S1130570911D9093EA168093E916848190E0982F58
S113058088272581820F911D9093EC168093EB169A
S1130590B4CFEF92FF920F937093EE166093ED1623
S11305A0E12CF12C082F20E030E048E851E063E230
S11305B073E081E792E00E946D0F0F91FF90EF903E
S11305C008950F9301110CC0DC01CB018223932306
S11305D0A423B523892B8A2B8B2B79F480E010C0BC
S11305E0DC01CB0182239323A423B52328173907E5
S11305F04A075B0721F080E003C081E001C081E08D
S11306000F910895CF93DF938FE090E0CCD1EC016C
S1130610009739F0FC011192119211921192CF01BD
S1130620A8D2CE01DF91CF9108952F923F924F929D
S11306305F926F927F928F929F92AF92BF92CF926E
S1130640DF92EF92FF920F931F93CF93DF93EC010E
S11306504A015B01622E702E0E94F10F28803980BE
S11306604A805B80A5019401C201B101AADF8823FD
S1130670A1F0662089F1D501C40180959095A095DB
S1130680B09582219321A421B52188839983AA83DB
S1130690BB83C12CD12C760122C0C114D104E10446
S11306A0F104E9F0611004C040E050E0BA0104C074
S11306B040E050E060E071E071107460482959290D
S11306C06A297B2997018601CE0104960E940913A9
S11306D0212C312C210103C0C12CD12C76010E9484
S11306E03111CD28CE28CF2859F1811101C00FD363
S11306F00E94DD156B017C0191FD1FC00FB6F894BB
S11307000F92C880D980EA80FB80072DA50194014F
S1130710C701B60156DF882371F0662061F080942A
S11307209094A094B0948C209D20AE20BF20888209
S11307309982AA82BB820F900FBE1601270155240D
S1130740C201B101DF91CF911F910F91FF90EF9002
S1130750DF90CF90BF90AF909F908F907F906F90DD
S11307605F904F903F902F9008950F931F930FB673
S1130770F8940F92FC01008111812281338140950C
S113078050956095709540235123622373234083D1
S11307905183628373830F900FBEC901B8011F9107
S11307A00F9108954F925F926F927F92AF92BF9292
S11307B0CF92DF92EF92FF920F931F93CF93DF9329
S11307C0EC016A017B018C01095F1F4F0E94F10F4C
S11307D0EB85FC8588819981AA81BB81C82AD92AA5
S11307E0EA2AFB2AC882D982EA82FB82C12CD12C54
S11307F076013DC0A480B58080819181A281B381BE
S1130800AC01BD017727B2FD0EC0488059806A80D3
S11308107B80442255226622772245284628472891
S113082089F420E012C0488059806A807B80442289
S1130830552266227722441555056605770521F071
S113084020E003C021E001C021E0222371F0B0FFC9
S113085004C0C42AD52AE62AF72A488159816A8124
S11308607B817260CF010E944414EA2DFB2DE017B6
S1130870F10709F0BFCFC094D094E094F09488813C
S11308809981AA81BB81C822D922EA22FB22C8828B
S1130890D982EA82FB820E943111688179818A813E
S11308A09B81DF91CF911F910F91FF90EF90DF908B
S11308B0CF90BF90AF907F906F905F904F900895CE
S11308C0EEE4F8E0A2E5B8E0B183A08313821282DB
S11308D0E6E0F4E1F0934D08E0934C0813821282B1
S11308E01182108284EB9BE013969C938E93129753
S11308F0ED93FC93909349088093480890934B0898
S113090080934A0880E090E89093430880934208DB
S11309100895CF93DF93EC01AEE4B8E001C0DF01AA
S1130920ED91FC911197EC17FD07C8F312968D9188
S11309309C9113979D01280F391FC217D30749F4BF
S11309402A813B81820F931F13969C938E93129757
S1130950ED018A819B819E01280F391FE217F3075D
S1130960C1F420914C0830914D08E217F30771F05F
S113097022813381820F931F9B838A83ED91FC91A3
S11309801197808191819983888305C03983288355
S113099002C0F983E883CA17DB0711F0CD93DC9317
S11309A0DF91CF910895EF92FF920F931F93CF930E
S11309B0DF938C010E94F10F80914C0890914D08B7
S11309C0892B09F47DDF80914208909143088023AC
S11309D09123892B09F076C00115110549F0C8014E
S11309E004960817190718F000E010E001C08C0104
S11309F00115110509F469C080914A0890914B08CA
S1130A008017910708F464C0C0914E08D0914F0834
S1130A10EEE4F8E002C0FE01EC018A819B818017BC
S1130A20910720F4888199810097A9F780914C0857
S1130A3090914D08C817D90709F44DC0E080F180A2
S1130A4084E0E80EF11C88819981918380832A8156
S1130A503B81201B310B2930310548F0CE01800F3A
S1130A60911FFC01338322831B830A8352DF2A8173
S1130A703B8180914A0890914B08821B930B909381
S1130A804B0880934A0840914808509149088417BC
S1130A90950720F490934908809348088091420870
S1130AA090914308282B392B3B832A83198218827F
S1130AB08091460890914708019690934708809347
S1130AC046080BC0E12CF12C08C0E12CF12C05C028
S1130AD0E12CF12C02C0E12CF12C0E943111E11423
S1130AE0F10411F40E94ED1BC701DF91CF911F9116
S1130AF00F91FF90EF9008950F931F93CF93DF937F
S1130B00009791F1EC0124974A815B81209142087E
S1130B1030914308BA0162237323672B29F168815A
S1130B207981672B09F520953095242335233B8360
S1130B302A830E94F10F8A819B8120914A08309177
S1130B404B08820F931F90934B0880934A08CE0161
S1130B50E0DE809144089091450801969093450801
S1130B60809344080E943111DF91CF911F910F911E
S1130B700895FC010396928381834FEF5FEFBA01DE
S1130B8043835483658376839087878392878187A1
S1130B9010820895FC011386128608950F931F9303
S1130BA0CF93DF93EB01088119812A813B810F3FA9
S1130BB04FEF14072407340721F4FC01A185B28503
S1130BC011C0DC01139601C0DF011496ED91FC9174
S1130BD01597408151816281738104171507260797
S1130BE0370790F71496ED91FC911597FD83EC83EC
S1130BF0D783C683BF83AE831596DC93CE931497B5
S1130C009B878A87FC0120812F5F2083DF91CF910E
S1130C101F910F910895CF93DF93FC01A285B385B3
S1130C20C481D581868197819F838E83C681D78134
S1130C30848195819D838C8311968D919C911297CB
S1130C40E817F90731F48681978112969C938E9365
S1130C501197138612868C9181508C938C91DF911D
S1130C60CF910895A89590EC88E10FB6F894A895D3
S1130C70809360000FBE909360000895FC01608330
S1130C80319770833197108231971082319720E821
S1130C902083319710823197108231971082779791
S1130CA040833197508386970895DCDFA091C9145F
S1130CB0B091CA14CD91CDBFDD91DEBFFF91EF910C
S1130CC0DF91CF91BF91AF919F918F917F916F9160
S1130CD05F914F913F912F911F910F91FF90EF9052
S1130CE0DF90CF90BF90AF909F908F907F906F9048
S1130CF05F904F903F902F901F900F900CBE0F90DD
S1130D000BBE0F900FBE0F90089581E008950F92CF
S1130D100FB6F8940F920BB60F920CB60F921F9267
S1130D2011242F923F924F925F926F927F928F92F3
S1130D309F92AF92BF92CF92DF92EF92FF920F9366
S1130D401F932F933F934F935F936F937F938F934F
S1130D509F93AF93BF93CF93DF93EF93FF93A091B0
S1130D60C914B091CA140DB60D920EB60D920E941C
S1130D708D12A091C914B091CA14CD91CDBFDD914B
S1130D80DEBFFF91EF91DF91CF91BF91AF919F9122
S1130D908F917F916F915F914F913F912F911F910F
S1130DA00F91FF90EF90DF90CF90BF90AF909F9006
S1130DB08F907F906F905F904F903F902F901F90F7
S1130DC00F900CBE0F900BBE0F900FBE0F900895A6
S1130DD00F920FB6F8940F920BB60F920CB60F92B7
S1130DE01F9211242F923F924F925F926F927F92A3
S1130DF08F929F92AF92BF92CF92DF92EF92FF9227
S1130E000F931F932F933F934F935F936F937F930E
S1130E108F939F93AF93BF93CF93DF93EF93FF93FE
S1130E20A091C914B091CA140DB60D920EB60D92CC
S1130E3013BE0E94051081110E948D12A091C91445
S1130E40B091CA14CD91CDBFDD91DEBFFF91EF917A
S1130E50DF91CF91BF91AF919F918F917F916F91CE
S1130E605F914F913F912F911F910F91FF90EF90C0
S1130E70DF90CF90BF90AF909F908F907F906F90B6
S1130E805F904F903F902F901F900F900CBE0F904B
S1130E900BBE0F900FBE0F9008959ADF18950FB6F2
S1130EA0F8940F92FC01868D811102C081E001C08B
S1130EB080E00F900FBE08950FB6F8940F92FC01D6
S1130EC0268D878D281302C081E001C080E00F9039
S1130ED00FBE08950F931F93CF93DF93EC01042F5C
S1130EE01E8D48A141110CC088819981892B09F07C
S1130EF042C08C819D810E9482151D821C8242C049
S1130F00011117C050E08A819B810E94CD3328A132
S1130F108A819B81820F911D9B838A832C813D81D1
S1130F208217930750F1888199819B838A8380E09B
S1130F3029C050E08E819F810E94CD3388A190E02A
S1130F409195819591092E813F81280F391F3F8307
S1130F502E83488159812417350730F42C813D8133
S1130F60820F931F9F838E83023049F4112349F02B
S1130F70115080E007C080E005C080E003C080E03D
S1130F8001C080E01F5F1E8FDF91CF911F910F91F1
S1130F900895FC0140A14423A9F050E02681378143
S1130FA0240F351F378326838481958128173907B9
S1130FB020F08081918197838683CB01668177813C
S1130FC00C94CD3308951F93CF93DF93EC010FB6A8
S1130FD0F8940F921AA10BC08B89882351F0CE018B
S1130FE043960E94951381110E946B15115011169E
S1130FF09CF38FEF8AA30F900FBE0FB6F8940F9255
S113100019A10BC08885882351F0CE0108960E944F
S1131010951381110E946B15115011169CF38FEFDB
S113102089A30F900FBEDF91CF911F910895CF93A5
S1131030DF93EC010FB6F8940F92E881F9818F8D5C
S113104028A190E030E0829FA001839F500D929FE1
S1131050500D11244E0F5F1F5D834C831E8EFB8346
S1131060EA830197289FA001299F500D389F500DB6
S11310701124CF01840F951F9F838E838FEF89A343
S11310808AA361110BC08885882371F0CE0108966C
S11310900E949513882341F03ADE06C0CE010896DB
S11310A068DDCE01439665DD0F900FBE81E0DF91D0
S11310B0CF9108950F931F93F801611103C0118319
S11310C0008302C051834083878F60A361E0CF0116
S11310D0AEDF1F910F910895DF92EF92FF920F936D
S11310E01F93CF93DF93F82EE62ED42E869FC00154
S11310F01124839658DCEC01009741F08C012D2DCE
S1131100AC014D5D5F4F6E2D8F2DD4DFCE01DF918D
S1131110CF911F910F91FF90EF90DF900895CF92A0
S1131120DF92EF92FF920F931F93CF93DF93CDB78C
S1131130DEB729970FB6F894DEBF0FBECDBF7C0192
S11311406B012E833F834887598710E00FB6F894CC
S11311500F92F701968D878D981710F00230B1F435
S1131160402FB601C701B6DEF7019389992341F0F8
S1131170C70143960E949513882321F0C8DD02C05D
S11311808111C5DD0F900FBE81E04CC08E819F811F
S1131190A885B985892B8A2B8B2B21F40F900FBE40
S11311A080E040C0111105C0CE0101960E94F414E4
S11311B011E00F900FBE15D70FB6F8940F92F701F8
S11311C081A18F3F09F411A2F70182A18F3F09F495
S11311D012A20F900FBEBE016A5F7F4FCE0101962F
S11311E00E940515811119C0C70166DE882381F0AC
S11311F04E815F8168857985C70108960E94F21245
S1131200C701E1DE0E9431118111A0CF80DD9ECFA4
S1131210C701D9DE0E94311199CFC701D4DE0E94E3
S1131220311180E029960FB6F894DEBF0FBECDBF12
S1131230DF91CF911F910F91FF90EF90DF90CF90AE
S113124008950F93009769F0FC01158214821182AE
S11312501082168200E020E030E0A90160E070E036
S11312605EDF0F910895CF93DF93482F60E081E014
S113127033DFEC01E6DFCE01DF91CF910895EF92E9
S1131280FF920F931F93CF93DF938A01FC01568D36
S1131290378D531710F02230F9F4422F7801EC0106
S11312A01AA18E8DCE0116DE1F3F81F48B8988230F
S11312B0A9F0CE0143960E949513882389F0E11486
S11312C0F10481F081E0F70180830DC0FF24F394E1
S11312D0F10EFAA281E007C080E005C081E003C0FE
S11312E081E001C081E0DF91CF911F910F91FF90C8
S11312F0EF900895CF92DF92EF92FF920F931F9396
S1131300CF93DF93CDB7DEB729970FB6F894DEBF3E
S11313100FBECDBF8C016B012E833F834887598755
S1131320E12C0FB6F8940F92F801F68CFF2099F097
S1131330B601C8012EDEFA94F801F68E8085882362
S113134031F0C80108960E9495138111E0DC0F90DA
S11313500FBE81E04FC08E819F81A885B985892BFE
S11313608A2B8B2B21F40F900FBE80E043C0E11039
S113137006C0CE0101960E94F414EE24E3940F906B
S11313800FBE2FD60FB6F8940F92F80181A18F3FAC
S113139009F411A2F80182A18F3F09F412A20F905F
S11313A00FBEBE016A5F7F4FCE0101960E940515F4
S11313B0811117C0C80173DD882379F04E815F81E4
S11313C068857985C80143960E94F212C801FBDD45
S11313D048D78111A6CF9BDCA4CFC801F4DD41D747
S11313E0A0CFC801F0DD3DD7C80159DD882309F439
S11313F098CF80E029960FB6F894DEBF0FBECDBF1C
S1131400DF91CF911F910F91FF90EF90DF90CF90DC
S11314100895CF93DF93EC010FB6F8940F9289A14E
S11314208F3F09F419A28AA18F3F09F41AA20F90E1
S11314300FBE8E8D811104C0CE0143960E945313BA
S1131440CE01C1DDDF91CF910895FC014481558126
S113145022813381240F351F80819181B901681B5A
S1131460790BCB016417750710F0841B950B089555
S11314700F93FC018FE0DF011D928A95E9F77587D0
S11314806487558344833783268306870F910895A1
S1131490AF92BF92CF92DF92EF92FF920F931F937E
S11314A0CF93DF936C015B017A01FC01C281D3818C
S11314B0048115810C1B1D0B4017510708F48A0188
S11314C0F60184859585A801B5018C0F9D1F0E94A6
S11314D0CD330E151F0558F4A701401B510BB50160
S11314E0600F711FF601848595850E94CD33CE016E
S11314F08E0D9F1DF601248135818217930710F00C
S1131500821B930BF60193838283C701DF91CF91F2
S11315101F910F91FF90EF90DF90CF90BF90AF900D
S11315200895CF92DF92EF92FF920F931F93CF9380
S1131530DF931F921F92CDB7DEB77C016B015A83F4
S1131540498321153105C1F0FC01868580FD08C061
S11315504217530708F49A013A83298381E00FC0A4
S11315602017310758F042E050E0BE016F5F7F4F13
S1131570C7018EDF81E003C080E001C080E08823E2
S113158031F049815A81B601C70182DF02C080E08F
S113159090E00F900F90DF91CF911F910F91FF90EA
S11315A0EF90DF90CF900895AF92BF92CF92DF92E9
S11315B0EF92FF920F931F93CF93DF937C015B0114
S11315C0E9014217530708F4EA01209781F1F70172
S11315D00081118184819581801B910B6E018C1790
S11315E09D0708F46C01F70164857585600F711F10
S11315F0A601C5010E94CD33CC16DD0658F4AE0118
S11316004C195D09F70164857585C5018C0D9D1D17
S11316100E94CD330C0F1D1FF7018481958108179B
S1131620190710F0081B190BF70111830083CE0171
S1131630DF91CF911F910F91FF90EF90DF90CF90AA
S1131640BF90AF9008956F927F928F929F92AF92C6
S1131650BF92CF92DF92EF92FF920F931F93CF939B
S1131660DF931F921F92CDB7DEB76C014B015A0175
S1131670790101151105B1F0FC0160807180A801A8
S1131680BE016F5F7F4F90DF89819A81E01AF10A72
S1131690A816B90630F4F60171826082A12CB12C2F
S11316A001C05C019701A501B401C6017DDF0F9063
S11316B00F90DF91CF911F910F91FF90EF90DF90EA
S11316C0CF90BF90AF909F908F907F906F90089530
S11316D0CF92DF92EF92FF920F93CF93DF93EC01BF
S11316E06B01413011F401E001C000E0C114D104E8
S11316F019F4CC24C394D12CCE014096C817D90731
S113170020F4219650D97C0102C0E12CF12CE11483
S1131710F10439F09601AE01B701615F7F4FC70153
S1131720A7DEC701DF91CF910F91FF90EF90DF907B
S1131730CF9008950F930FB6F8940F92FC01208573
S11317403185232B71F422853385232B61F4268183
S113175037814481558164857585068589DE81E0FC
S113176003C080E001C080E00F900FBE0F91089588
S1131770FC012481358180819181820F931F4281F4
S11317805381841B950B01978217930710F0821BDA
S1131790930B08952F923F924F925F926F927F9294
S11317A08F929F92AF92BF92CF92DF92EF92FF926D
S11317B00F931F93CF93DF93CDB7DEB72B970FB65D
S11317C0F894DEBF0FBECDBF4C017B876A871A0138
S11317D00E831F8328873987FC01848195810197B3
S11317E0268520FF0CC02A01F2E04F0E511C8415FF
S11317F0950558F41E821F821886198606C0841720
S1131800950710F02A0101C02C018E819F81A885C3
S1131810B985892B8A2B8B2B09F438C0CE0101960C
S11318200E94DE140FB6F8940F92C401A1DF3C01AC
S11318308415950540F560E080E090E00E94C718AB
S11318400E946F15F401938782870F900FBEAE80BC
S1131850BF80C884D984E12CF12C00E010E0980109
S113186040E050E0BA0180E00E940716F4011386BC
S11318701286BE016A5F7F4FCE0101960E94051554
S1131880882381F205C00F900FBE02C0612C712C19
S11318906114710419F4C4016BDF3C0182019301EA
S11318A0A1016A857B85C4013CDE6C01892BE9F0CA
S11318B0C401CBDDF4012681378182179307A8F098
S11318C090D3F40180859185892B71F08085918571
S11318D0E12CF12C00E020E030E0A90160E00E945E
S11318E0AE16F40111861086BCD4C6012B960FB631
S11318F0F894DEBF0FBECDBFDF91CF911F910F9142
S1131900FF90EF90DF90CF90BF90AF909F908F901B
S11319107F906F905F904F903F902F900895AF927B
S1131920BF92CF92DF92EF92FF920F931F93CF93C8
S1131930DF93EC017B015A0169018E8580FF04C0AD
S11319408A010E5F1F4F01C08A01CE0111DF9C0185
S1131950A501B701CE01E5DD5C01892BC1F0CE0103
S113196074DD2E813F818217930788F088859985DD
S1131970892B69F088859985E12CF12C00E020E021
S113198030E0A90160E00E94A51719861886C501F8
S1131990DF91CF911F910F91FF90EF90DF90CF9047
S11319A0BF90AF9008954F925F926F927F928F9203
S11319B09F92AF92BF92CF92DF92EF92FF920F93DA
S11319C01F93CF93DF93EC012B013A015801690176
S11319D08E8580FF05C06894882481F8912C02C00C
S11319E0812C912CA114B104C104D10441F10FB68E
S11319F0F8940F92CE0129DD7C018816990648F0EF
S1131A0060E080E090E00E94C7180E946F159987FB
S1131A1088870F900FBE8E149F04A0F0E12CF12C48
S1131A2000E010E0980140E050E0BA0180E00E943C
S1131A30071619861886CE0108DD7C0103C0CE0185
S1131A4004DD7C018E149F04E8F484019701A30152
S1131A50B201CE01F8DD6C01892BB1F0C2D28A85C6
S1131A609B85892B69F08A859B85E12CF12C00E00C
S1131A7020E030E0A90160E00E94AE161B861A86C1
S1131A80F0D302C0C12CD12CC601DF91CF911F919C
S1131A900F91FF90EF90DF90CF90BF90AF909F9009
S1131AA08F907F906F905F904F900895E0914314D2
S1131AB0F0914414808181110CC08FEF9FEFDC0101
S1131AC080930D1490930E14A0930F14B0931014DC
S1131AD00895E0914314F09144140780F085E02DBB
S1131AE080819181A281B38180930D1490930E140F
S1131AF0A0930F14B09310140895CF93DF93EC01C7
S1131B008B8D9C8D0E947C05CE010E947C05DF910B
S1131B10CF9108954F925F926F927F928F929F928E
S1131B20AF92BF92CF92DF92EF92FF920F93CF9337
S1131B30DF932C015B014A013901E60165EA70E09B
S1131B408B8D9C8D0E94D6338B8D9C8D21E0821AC7
S1131B509108880E991EA114B10489F415C0822F2E
S1131B6090E0F501E80FF91F3081DE01A80FB91FDD
S1131B705D963C938081882329F02F5F01C020E08B
S1131B80203168F31CA601C01D8E0A3008F009E05C
S1131B900A8F0DA71EA6CE0102960E94CA05CE0189
S1131BA00E960E94CA05DB87CA878AE090E0A0E00F
S1131BB0B0E0801B9109A109B1098E879F87A88B8A
S1131BC0B98BDF8BCE8B84E0FE01BF96DF011D92C3
S1131BD08A95E9F71BAAA301B201C4014FD89983DE
S1131BE08883E114F10419F0F701D183C083DF91F4
S1131BF0CF910F91FF90EF90DF90CF90BF90AF9077
S1131C009F908F907F906F905F904F900895CF93A7
S1131C10C0E009C02BE0C29FC0011124855A9B4E2D
S1131C200E94B905CF5FCA30A8F380E594E10E9411
S1131C30B90585E494E10E94B90586E394E10E9424
S1131C40B9058BE294E10E94B9058FE194E10E9409
S1131C50B90580E594E1909344148093431485E49A
S1131C6094E19093421480934114CF910895CF93BB
S1131C70DF93EC010FB6F8940F9280911E148F5FDE
S1131C8080931E148091C9149091CA14892B51F425
S1131C90D093CA14C093C91480911E14813091F456
S1131CA0B6DF10C08091181481110CC0E091C914E2
S1131CB0F091CA14928D8A8D891720F0D093CA149A
S1131CC0C093C914809111148F5F80931114EA8D0D
S1131CD0809119148E1710F4E09319148BE08E9FE1
S1131CE0F0011124E55AFB4E0180F281E02DFF83BF
S1131CF0EE832681378139872887A681B7819E01A3
S1131D002E5F3F4F15963C932E931497378326836B
S1131D10EA8D8E9FF0011124E55AFB4EFD87EC8776
S1131D2080818F5F80830F900FBE80911814882369
S1131D3051F0E091C914F091CA14928D8A8D9817CC
S1131D4010F40E948706DF91CF910895CF93DF931B
S1131D501BC00FB6F8940F92E0913214F091331433
S1131D60C085D185CE0102960E940B0680911E1477
S1131D70815080931E1480912A14815080932A14D8
S1131D800F900FBECE01B9DE80912A148111E1CFEC
S1131D90DF91CF9108958F929F92AF92BF92CF928D
S1131DA0DF92EF92FF92CF93DF936B017C01C42FFC
S1131DB080901A1490901B14A0901C14B0901D14C1
S1131DC08091C9149091CA1402960E940B068FEF59
S1131DD0C816D806E806F806B1F5CC23A1F1EFE160
S1131DE0F4E1A181B281C091C914D091CA14BF8316
S1131DF0AE83C091C914D091CA1416968D919C914A
S1131E001797998788871696CD91DC9117978091BB
S1131E10C9149091CA1402969D838C838091C9142D
S1131E209091CA14029617969C938E931697A0913C
S1131E30C914B091CA141D96FC93EE931C9780812B
S1131E408F5F80833FC0C80CD91CEA1CFB1CE09147
S1131E50C914F091CA14C282D382E482F582C814F0
S1131E60D904EA04FB0468F46091C9147091CA149B
S1131E7080914114909142146E5F7F4F0E94CE0571
S1131E8021C06091C9147091CA1480914314909137
S1131E9044146E5F7F4F0E94CE0580910D14909183
S1131EA00E14A0910F14B0911014C816D906EA06A6
S1131EB0FB0640F4C0920D14D0920E14E0920F145D
S1131EC0F0921014DF91CF91FF90EF90DF90CF90BC
S1131ED0BF90AF909F908F9008952F923F924F9212
S1131EE05F926F927F928F929F92AF92BF92CF92A6
S1131EF0DF92EF92FF920F93CF93DF933C011B018C
S1131F004A012901CA010E94D3046C01892B71F092
S1131F1084E390E00E94D304EC01892B19F0DC8E59
S1131F20CB8E06C0C6010E947C0502C0C0E0D0E092
S1131F30209761F0A12CB12C6E019201A401B10192
S1131F40C301E8DDCE0193DE81E001C08FEFDF91B4
S1131F50CF910F91FF90EF90DF90CF90BF90AF9013
S1131F609F908F907F906F905F904F903F902F90B5
S1131F700895EF92FF920F930F2EFBE0EF2EF4E102
S1131F80FF2EF02D00E020E030E040EC50E063E371
S1131F9073E08EE491E0A1DF813011F40E946B19AB
S1131FA08130C9F4F8948FEF9FEFDC0180930D1416
S1131FB090930E14A0930F14B093101481E08093A7
S1131FC0181410921A1410921B1410921C141092CC
S1131FD01D140E945506809106020F91FF90EF9008
S1131FE0089580910A148F5F80930A1408950FB6A0
S1131FF0F8940F9260911A1470911B1480911C1420
S113200090911D140F900FBE0895CF92DF92EF921E
S1132010FF92CF93DF9380910A14811105C1C09080
S11320201A14D0901B14E0901C14F0901D148FEF20
S1132030C81AD80AE80AF80AC0921A14D0921B14D3
S1132040E0921C14F0921D14C114D104E104F104B3
S1132050B1F480914314909144142091411430912F
S11320604214309344142093431490934214809365
S11320704114809112148F5F8093121417DD8091A4
S11320800D1490910E14A0910F14B0911014C81651
S1132090D906EA06FB0620F480E0B2C081E001C064
S11320A080E0E0914314F0914414908191110CC0AC
S11320B04FEF5FEFBA0140930D1450930E146093E9
S11320C00F14709310149CC0E0914314F0914414C5
S11320D00780F085E02D0084F185E02D4281538155
S11320E064817581C416D506E606F70648F4409364
S11320F00D1450930E1460930F147093101480C039
S1132100A485B585C681D781208531853F832E83FB
S1132110C085D185268137813D832C8311964D91CD
S11321205C9112979F012E5F3F4F4217530731F482
S11321304085518512965C934E93119715861486AB
S11321409C9191509C93A08DB18D109709F1C289F7
S1132150D389448955895F834E83C489D58942894B
S113216053895D834C8311966D917C911297AF01D5
S1132170425F5F4F6417750731F44489558912969D
S11321805C934E931197118E108E9C9191509C9359
S1132190A28D909119149A1710F4A09319149BE02E
S11321A09A9FD0011124A55ABB4E11960D90BC9153
S11321B0A02DB783A68316964D915C9117975187EE
S11321C040871696CD91DC9117973D832C83179603
S11321D03C932E931697A28D9A9FD0011124A55A51
S11321E0BB4EB587A4879C919F5F9C93228DE09101
S11321F0C914F091CA14928D291708F04FCF51CF0A
S1132200E091C914F091CA14E28D9BE0E99FF001BA
S11322101124E55AFB4E9081923008F081E09091B0
S11322201314911116C016C08091141490911514B2
S1132230A0911614B09117140196A11DB11D80939D
S1132240141490931514A0931614B093171480E0EB
S113225001C081E0DF91CF91FF90EF90DF90CF90AC
S11322600895CF92DF92EF92FF92CF93DF930FB650
S1132270F8940F9280910A14815080930A148091EB
S11322800A148111BEC080911E14811188C0BCC083
S1132290E0913D14F0913E140084F185E02DA08D71
S11322A0B18DC289D389848995899F838E83C4899A
S11322B0D589828993899D838C8311962D913C9134
S11322C01297CF010E962817390731F4848995891E
S11322D012969C938E931197118E108E8C9181502F
S11322E08C93A485B585C681D781808591859F838C
S11322F08E83C085D185868197819D838C83119639
S11323008D919C9112979F012E5F3F4F82179307E7
S113231031F48085918512969C938E93119715863E
S113232014868C9181508C93A28D809119148A17F4
S113233010F4A09319148BE08A9FD0011124A55A9C
S1132340BB4E11960D90BC91A02DB783A683169613
S11323504D915C911797518740871696CD91DC91EA
S113236017973D832C8317963C932E931697A28D33
S11323708A9FD0011124A55ABB4EB587A4878C919E
S11323808F5F8C93928DA091C914B091CA145A9600
S11323908C91981730F081E08093131402C0E0E030
S11323A0F0E080913614811173CFEF2B09F07EDBBE
S11323B0C0901414D0901514E0901614F0901714D3
S11323C0C114D104E104F104A1F01FDE882319F043
S11323D081E08093131481E0C81AD108E108F10860
S11323E0A1F710921414109215141092161410924E
S11323F0171480911314882331F00E94870681E01A
S113240003C080E001C080E00F900FBEDF91CF9148
S1132410FF90EF90DF90CF9008958F929F92AF92AC
S1132420BF92CF92DF92EF92FF921F93CF93DF93ED
S1132430EC016A017B01D5DD80901A1490901B1485
S1132440A0901C14B0901D1488819981AA81BB812D
S1132450AC01BD014C0D5D1D6E1D7F1D88169906D6
S1132460AA06BB0660F4481759076A077B0798F465
S113247084169506A606B70680F010E013C0481728
S113248059076A077B0758F084169506A606B7060F
S113249040F010E007C010E005C011E003C011E0F7
S11324A001C011E0488359836A837B83112341F07F
S11324B0CB01BA01681979098A099B0940E06BDCF0
S11324C0D0DE811102C00E948706812FDF91CF9157
S11324D01F91FF90EF90DF90CF90BF90AF909F90AF
S11324E08F900895CF92DF92EF92FF926B017C015F
S11324F0672B682B692B39F074DD40E0C701B60106
S11325004ADCAFDE01C080E0811102C00E94870670
S1132510FF90EF90DF90CF90089580910A14882364
S113252021F081E080931314089510921314E09124
S1132530C914F091CA1420813181E091C914F09139
S1132540CA14838D948D8217930760F06091C91427
S11325507091CA14635E7F4F8091C9149091CA141C
S11325600E94F91B8091191401C08150282F30E07A
S11325709BE0929FF001939FF00D1124E55AFB4ECE
S11325809081992391F39BE0929FA001939F500D1A
S11325901124DF010180F281E02D0480F581E02D1A
S11325A01296FC93EE931197425A5B4EE417F5078B
S11325B029F444815581FD01528341839BE0929F1C
S11325C0F001939FF00D1124E55AFB4E0180F28136
S11325D0E02D208531853093CA142093C91480934B
S11325E019140895CF92DF92EF92FF926A017B0152
S11325F06091C9147091CA14625F7F4F0E94CE0526
S113260041E0C701B601C7DBFF90EF90DF90CF90A8
S113261008950F931F93CF93DF93FC01A091C914E6
S1132620B091CA1470681E964D935D936D937C931C
S11326305197A181B281C091C914D091CA14BB8BA6
S1132640AA8BC091C914D091CA1416968D919C91ED
S113265017979D8B8C8B1696CD91DC911797809153
S1132660C9149091CA140E969D838C838091C914C9
S11326709091CA140E9617969C938E931697A091D8
S1132680C914B091CA145996FC93EE93589780815B
S11326908F5F808341E0C901B8017DDBDF91CF9179
S11326A01F910F910895CF93DF93FC01CB01BA01E1
S11326B0A181B281C091C914D091CA14BB8BAA8BD9
S11326C0C091C914D091CA1416964D915C91179774
S11326D05D8B4C8B1696CD91DC9117974091C91464
S11326E05091CA14425F5F4F5D834C834091C9147B
S11326F05091CA14425F5F4F17965C934E9316979E
S1132700A091C914B091CA145996FC93EE935897AA
S113271030813F5F3083222319F06FEF7FEFCB01CD
S1132720422F39DBDF91CF910895CF93DF93DC0102
S11327301796ED91FC9118970084F185E02DA08DFA
S1132740B18DC289D389848995899F838E83C489F5
S1132750D589828993899D838C8311968D919C91CF
S113276012979F01225F3F4F8217930731F48489A8
S1132770958912969C938E931197118E108E8C913D
S113278081508C9380910A14811152C0A485B5851F
S1132790C681D781808591859F838E83C085D185AD
S11327A0868197819D838C8311968D919C9112973C
S11327B09F012E5F3F4F8217930731F480859185E7
S11327C012969C938E931197158614868C91815042
S11327D08C93A28D809119148A1710F4A093191464
S11327E08BE08A9FD0011124A55ABB4E11960D90FF
S11327F0BC91A02DB783A68316964D915C91179733
S1132800518740871696CD91DC9117973D832C8391
S113281017963C932E931697A28D8A9FD00111246C
S1132820A55ABB4EB587A4878C918F5F8C931CC02F
S113283046E354E1DA011196CD91DC911297D38BE2
S1132840C28B8E819F81958B848B8E819F81DC01CD
S113285015963C932E9314973F832E83518F408F6C
S1132860DA018C918F5F8C93928DE091C914F09171
S1132870CA14828D891720F481E08093131401C057
S113288080E0DF91CF910895CF93DF93DC017068EE
S11328904D935D936D937C9313971896ED91FC91F2
S11328A019971A964D915C911B9714968D919C9152
S11328B0159716962D913C911797EC013F832E8323
S11328C016968D919C91179714962D913C9115977E
S11328D0EC013D832C83EA0189819A81A817B90709
S11328E031F416968D919C9117979A8389831B9640
S11328F01C921E921A97DA018C9181508C93A485B4
S1132900B585C681D781808591859F838E83C08557
S1132910D185868197819D838C8311968D919C911D
S113292012979F012E5F3F4F8217930731F48085E2
S1132930918512969C938E931197158614868C918B
S113294081508C93A28D809119148A1710F4A0934E
S113295019148BE08A9FD0011124A55ABB4E1196FD
S11329600D90BC91A02DB783A68316964D915C91D2
S11329701797518740871696CD91DC9117973D8321
S11329802C8317963C932E931697A28D8A9FD00181
S11329901124A55ABB4EB587A4878C918F5F8C9365
S11329A0928DE091C914F091CA14828D891718F49C
S11329B081E080931314DF91CF9108950FB6F894BA
S11329C00F9220911214FC01208340911A1450910B
S11329D01B1460911C1470911D14418352836383F2
S11329E074830F900FBE089520911214FC0120836C
S11329F040911A1450911B1460911C1470911D1471
S1132A00418352836383748308958F929F92AF921C
S1132A10BF92CF92DF92EF92FF920F931F93CF93C7
S1132A20DF93FB010FB6F8940F92C0901A14D09064
S1132A301B14E0901C14F0901D14DC0111960D91F0
S1132A401D912D913C91149746015701801A910ACA
S1132A50A20AB30A40815181628173814F3FBFEF63
S1132A605B076B077B0739F1EC01B881A091121465
S1132A70BA1759F0C016D106E206F30630F01082F8
S1132A8011821282138281E017C084169506A6066D
S1132A90B70658F4481959096A097B0940835183D8
S1132AA062837383A1DF80E007C0108211821282E7
S1132AB0138281E001C080E00F900FBEDF91CF91BF
S1132AC01F910F91FF90EF90DF90CF90BF90AF9048
S1132AD09F908F90089581E08093131408958091BE
S1132AE0C9149091CA14089580911814882331F060
S1132AF080910A14811104C082E0089581E0089550
S1132B0080E008950F931F93CF93DF93FC01892BEB
S1132B1009F449C086A5815086A7228D95A5291759
S1132B2009F443C0811143C0EF018F010E5F1F4FB1
S1132B30C8010E940B06EDA5EA8F8AE090E0A0E0B0
S1132B40B0E08E1B9109A109B1098E879F87A88BDC
S1132B50B98B809119148E1710F4E09319148BE03B
S1132B608E9FF0011124E55AFB4E0180F281E02D85
S1132B70FF83EE832681378139872887A681B78131
S1132B8015961C930E93149717830683EA8D8E9FD4
S1132B90F0011124E55AFB4EFD87EC8780818F5F9D
S1132BA0808381E005C080E003C080E001C080E054
S1132BB0DF91CF911F910F910895CF92DF92EF9201
S1132BC0FF92E091C914F091CA14668577858089D3
S1132BD09189E091C914F091CA14A091C914B091DB
S1132BE0CA145A962C910F2EFAE0CF2ED12CE12C38
S1132BF0F12CF02DC21AD108E108F108C686D78657
S1132C00E08AF18AFF90EF90DF90CF9008954F9281
S1132C105F926F927F92AF92BF92CF92DF92EF92C8
S1132C20FF920F931F93CF93DF93280139010FB6BF
S1132C30F8940F92E091C914F091CA14C82FD0E00F
S1132C40EC0FFD1F83A9823071F1E091C914F0915A
S1132C50CA14CE01880F991F880F991FE80FF91F16
S1132C6087A590A9A1A9B2A94095509560957095A2
S1132C70482359236A237B2347A750AB61AB72AB2C
S1132C80E091C914F091CA14EC0FFD1F81E083ABED
S1132C90A114B104C104D10431F041E0C601B5016D
S1132CA07AD80E9487060F900FBE0FB6F8940F9241
S1132CB0E114F104A1F0E091C914F091CA14CE0119
S1132CC0880F991F880F991FE80FF91F87A590A9EE
S1132CD0A1A9B2A9F70180839183A283B383E09170
S1132CE0C914F091CA14EC0FFD1F83A98230E9F4D2
S1132CF0E091C914F091CA14CE01880F991F880F6E
S1132D00991FE80FF91F87A590A9A1A9B2A940941A
S1132D10509460947094482259226A227B2247A6D8
S1132D2050AA61AA72AA81E001C080E02091C9146E
S1132D303091CA14C20FD31F1BAA0F900FBEDF918C
S1132D40CF911F910F91FF90EF90DF90CF90BF90A4
S1132D50AF907F906F905F904F9008958F929F9265
S1132D60AF92BF92EF92FF920F93CF93DF93DC0168
S1132D700FB6F8940F92E114F10489F0E62FF0E015
S1132D80EE0FFF1FEE0FFF1FE80FF91F87A490A897
S1132D90A1A8B2A8F70180829182A282B38270E0D6
S1132DA0FD01E60FF71F83A992E093AB023001F116
S1132DB018F4013031F04DC0033079F10430D1F111
S1132DC048C0660F771F660F771FFD01E60FF71FD8
S1132DD087A490A8A1A8B2A8BA01A9014829592991
S1132DE06A297B2947A750AB61AB72AB01E034C0C1
S1132DF0660F771F660F771FFD01E60FF71F47A5C4
S1132E0050A961A972A94F5F5F4F6F4F7F4F47A7CA
S1132E1050AB61AB72AB01E01FC0660F771F660F4A
S1132E20771FFD01E60FF71F27A730AB41AB52AB6D
S1132E3001E012C0823079F0660F771F660F771FAA
S1132E40FD01E60FF71F27A730AB41AB52AB01E002
S1132E5003C001E001C000E0813009F069C01C96A4
S1132E60ED91FC911D971696CD91DC9117971896CC
S1132E708D919C9119979F838E831896CD91DC91A7
S1132E80199716968D919C9117979D838C838181B8
S1132E9092819D012E5F3F4F8217930731F418965C
S1132EA08D919C911997928381831D961C921E92F9
S1132EB01C978081815080835A96EC915A97809117
S1132EC019148E1710F4E09319148BE08E9FF001FF
S1132ED01124E55AFB4E0180F281E02D1796FC93F4
S1132EE0EE9316974681578119965C934E931897E3
S1132EF0C681D7813D832C83378326835A96EC91F0
S1132F005A978E9FF0011124E55AFB4E1D96FC93AF
S1132F10EE931C9780818F5F80835A969C91E091F9
S1132F20C914F091CA14828D891710F40E9487067F
S1132F300F900FBE802FDF91CF910F91FF90EF90F4
S1132F40BF90AF909F908F9008958F929F92AF9271
S1132F50BF92CF92DF92EF92FF920F93CF93DF93C2
S1132F60DC01E114F10489F0E62FF0E0EE0FFF1F1D
S1132F70EE0FFF1FE80FF91F87A490A8A1A8B2A81D
S1132F80F70180829182A282B38270E0FD01E60F94
S1132F90F71F93A982E083AB023001F118F40130EA
S1132FA031F04DC0033079F10430D1F148C0660FDF
S1132FB0771F660F771FFD01E60FF71F87A490A800
S1132FC0A1A8B2A8BA01A901482959296A297B29CB
S1132FD047A750AB61AB72AB81E034C0660F771F7B
S1132FE0660F771FFD01E60FF71F47A550A961A9DA
S1132FF072A94F5F5F4F6F4F7F4F47A750AB61ABD5
S113300072AB81E01FC0660F771F660F771FFD014B
S1133010E60FF71F27A730AB41AB52AB81E012C0DC
S1133020923079F0660F771F660F771FFD01E60F68
S1133030F71F27A730AB41AB52AB81E003C081E05F
S113304001C080E0913009F096C090910A1491116A
S11330505FC01C96ED91FC911D971696CD91DC9165
S1133060179718962D913C9119973F832E831896A4
S1133070CD91DC91199716962D913C9117973D832C
S11330802C83418152819D012E5F3F4F421753078C
S113309031F418964D915C911997528341831D9692
S11330A01C921E921C979081915090835A96EC9199
S11330B05A97909119149E1710F4E09319149BE0F9
S11330C09E9FF0011124E55AFB4E0180F281E02D10
S11330D01796FC93EE9316974681578119965C9345
S11330E04E931897C681D7813D832C8337832683DB
S11330F05A96EC915A979E9FF0011124E55AFB4E83
S11331001D96FC93EE931C9790819F5F908321C042
S113311066E374E1FB01C181D2815396DC93CE93C3
S113312052972E813F8155963C932E9354974E810E
S11331305F819D01225F3F4FFA01358324833F83E2
S11331402E8359967C936E935897FB0190819F5FD1
S113315090835A962C91E091C914F091CA14928DDF
S1133160921748F4C114D10419F091E0F601908348
S113317091E090931314DF91CF910F91FF90EF9012
S1133180DF90CF90BF90AF909F908F90089500975D
S113319021F48091C9149091CA140FB6F8940F9237
S11331A070E0FC01E60FF71F23A9223031F4FC0183
S11331B0E60FF71F13AA81E001C080E00F900FBE55
S11331C00895DC01E091D514F091D614808191E04A
S11331D0811190E09C93911108C00780F085E02D47
S11331E06081718182819381089560E070E0CB01F8
S11331F00895CF92DF92EF92FF920F931F93FC01F9
S113320042835383648375839387828704171507E6
S113321026073707C0F00C191D092E093F098685BA
S11332209785A089B189081719072A073B0700F574
S1133230BF016E5F7F4F8091D3149091D4140E948C
S1133240CE0580E018C00C151D052E053F0528F499
S11332504C155D056E057F0568F4BF016E5F7F4FF9
S11332608091D5149091D6140E94CE0580E003C0BD
S113327081E001C081E01F910F91FF90EF90DF90FA
S1133280CF9008950FB6F8940F928091D114909135
S1133290D214892BE9F482EE94E10E94B90587EDFA
S11332A094E10E94B90582EE94E19093D614809340
S11332B0D51487ED94E19093D4148093D31440E013
S11332C067E08AE00E946C089093D2148093D11432
S11332D00F900FBE0895EF92FF920F93D3DF80916A
S11332E0D1149091D214892B91F00F2EFFECEF2E74
S11332F0F4E1FF2EF02D03E020E030E040EC50E05C
S113330068E373E088E591E00E946D0F01C080E0FE
S11333100F91FF90EF9008958F929F92AF92BF927A
S1133320CF92DF92EF92FF920F931F93CF93DF938D
S1133330CDB7DEB727970FB6F894DEBF0FBECDBF6B
S1133340E091D114F091D214309781F169832A83EA
S11333503B834C835D839F838E836630F4F4C4DBAC
S1133360823069F400E0A7019601BE016F5F7F4FD0
S11333708091D1149091D2140E948F0818C000E05B
S113338020E030E0A901BE016F5F7F4F8091D1142E
S11333909091D2140E948F080AC020E0A801BE01B7
S11333A06F5F7F4FCF010E943F0901C080E02796E5
S11333B00FB6F894DEBF0FBECDBFDF91CF911F9142
S11333C00F91FF90EF90DF90CF90BF90AF909F90C0
S11333D08F9008958F929F92AF92BF92CF92DF9277
S11333E0EF92FF920F931F93CF93DF933BC007801D
S11333F0F085E02D80809180A280B380C085D18546
S11334008E010E5F1F4FC8010E940B06EC89FD89D7
S1133410CE0119958E8982FF25C08E859F85A88946
S1133420B989880D991DAA1DBB1D88169906AA067F
S1133430BB0670F48A839B83AC83BD83DB87CA8716
S1133440B8018091D5149091D6140E94CE050AC07B
S1133450C12CD12C760100E010E0A501940160E0BC
S1133460CE015ADFE091D514F091D61480818111F8
S1133470BECF8091D3149091D4149093D61480939A
S1133480D514F093D414E093D314DF91CF911F910A
S11334900F91FF90EF90DF90CF90BF90AF909F90EF
S11334A08F900895CF92DF92EF92FF92CF93DF93A4
S11334B0EC010E94F70F6B017C018091CB14909179
S11334C0CC14A091CD14B091CE14C816D906EA0636
S11334D0FB0620F47FDF81E0888301C01882C0925C
S11334E0CB14D092CC14E092CD14F092CE14C70138
S11334F0B601DF91CF91FF90EF90DF90CF900895C8
S11335004F925F926F927F928F929F92AF92BF92EF
S1133510CF92DF92EF92FF920F931F93CF93DF939B
S11335204B015C0129013A01E091D514F091D614C4
S11335300780F085E02DC085D185CE0102960E94DA
S11335400B068E8982FF1BC04E855F856889798949
S1133550480D591D6A1D7B1D75016401930182018B
S1133560CE0147DE882369F0C12CD12C760100E01E
S113357010E0A501940160E0CE01CEDE02C08E7F92
S11335808E8BEC89FD89CE011995DF91CF911F9126
S11335900F91FF90EF90DF90CF90BF90AF909F90EE
S11335A08F907F906F905F904F9008958F929F922D
S11335B0AF92BF92CF92DF92EF92FF921F93CF937D
S11335C0DF931F92CDB7DEB76B017C01142F0E94ED
S11335D0F10FCE01019666DF4B015C0189818111F7
S11335E02DC011110DC08C149D04AE04BF0440F015
S11335F00E943111A5019401C701B60181DF20C0E9
S1133600112341F0E091D314F091D414808111E09E
S1133610811110E0B701A601481959096A097B090B
S1133620212F8091D1149091D2140E94090A0E94F2
S11336303111811105C00E94870602C00E94311118
S11336400F90DF91CF911F91FF90EF90DF90CF907B
S1133650BF90AF909F908F900895AF92BF92CF92FA
S1133660DF92EF92FF920F931F93CF93DF93CDB727
S1133670DEB728970FB6F894DEBF0FBECDBF82C069
S1133680898188230CF47EC0AE80BF80D5011C964E
S11336908D919C911D97892B21F0C50102960E9462
S11336A00B06CE010896FEDE8B019C01E9810E2EED
S11336B0000CFF0BEA30F10508F064C08827EE58CF
S11336C0FF4F8F4F0C948031F50186898160868B82
S11336D0CA80DB80EC80FD804685578560897189CE
S11336E04C0D5D1D6E1D7F1DC50183DD882309F40E
S11336F049C0D5015496ED91FC915597C501199592
S1133700F501868982FF3EC04A815B816C817D819F
S113371086859785A089B1899A01AB01280F391F45
S11337204A1F5B1FC12CD12C760100E010E060E041
S1133730C501F2DD27C0D50156968C9156978E7F30
S113374056968C931FC0F50186898160868B4A81C9
S11337505B816C817D8146875787608B718B400FBD
S1133760511F621F731F68017901C50142DD0AC040
S1133770F501868981FD04C0C5010E947C0502C053
S11337808E7F868B20E030E0A901BE016F5F7F4F02
S11337908091D1149091D2140E947A09811170CF32
S11337A028960FB6F894DEBF0FBECDBFDF91CF9140
S11337B01F910F91FF90EF90DF90CF90BF90AF904B
S11337C00895089584B1806884B985B1806885B905
S11337D0089583B1806883B90895F4DF2FEF80E7FB
S11337E092E0215080409040E1F700C00000F1DFFA
S11337F0F5CFE8DF2FEF87EA91E621508040904033
S1133800E1F700C00000E5DFF5CFEF92FF920F93E0
S1133810082F92D2811106C01F921F920E94733406
S11338200F900F90E12CF12C20E030E040EC50E0C0
S113383060E473E082E49CE10E946D0F0F91FF90BD
S1133840EF9008952091EF143091F014ADECBCEC9E
S11338500E94883196958795969587959695879534
S113386008958091ED149091EE146AE070E00E9446
S11338704B31CB01089540E150E060E070E00C94DE
S1133880D2030895CF93DF9300D01F92CDB7DEB754
S11338908BE493E09F938F930E9473340E94F70FFD
S11338A069837A838B839C830F900F9048EA58E452
S11338B060E070E0CE0101960E940D1282E593E073
S11338C09F938F930E9473344FD20F900F90811166
S11338D0EDCF89E593E09F938F930E94733462E365
S11338E070E080E090E00E94721253D20F900F902B
S11338F08111DCCF80E693E09F938F930E94733411
S113390061E070E080E090E00E94721268D29093CF
S1133910F0148093EF1489D29093EE148093ED14F5
S113392087E693E09F938F930E9473340E948901EA
S1133930A2DF0F900F900F900F90B8CF0F9380914C
S1133940F1169091F216892B89F481E00E943309D3
S11339509093F2168093F116009741F000E020E076
S113396030E0A90160E070E00E948F080F91089593
S113397080E00E943C28E2DF86E00E94432985E043
S11339800E94FA0183E090E021D784E090E00E9455
S11339900E0283E03ADF9CD741E060E070E08CE205
S11339A090E00E94680B9093F0168093EF16BC0190
S11339B081E065D382E07FD16091EF167091F016BB
S11339C081E00E94C90284E793E00E9486340E9449
S11339D0B90FFFCF9093081580930715089590931E
S11339E00C1580930B15089590930A15809309156F
S11339F00895CF93DF93EC0186E893E09F938F9330
S1133A000E94733480910C158F9380910B158F93C2
S1133A1086EA93E09F938F930E94733480910A15F2
S1133A208F93809109158F9386EC93E09F938F93E6
S1133A300E947334809108158F93809107158F939A
S1133A4084EE93E09F938F930E947334E1EFF4E14B
S1133A5086E0818382E0808380910B1590910C1520
S1133A60928383838091091590910A1594838583A9
S1133A7080910715909108159683878386E1DE016E
S1133A8001900D928A95E1F78DB79EB70E960FB609
S1133A90F8949EBF0FBE8DBFCE01DF91CF910895E4
S1133AA0CF93DF9381E00E94912937D3B3D59F93BD
S1133AB08F9381E094E09F938F930E947334ABD4EF
S1133AC0A9D59F938F9384E194E09F938F930E9451
S1133AD0733483E295E133D39DD5C3E2D5E1DF931B
S1133AE0CF939F938F938DE294E09F938F930E9443
S1133AF07334CE0140D38ED59F938F93DF93CF93AE
S1133B0081E494E09F938F930E947334AE0166E541
S1133B1074E087E794E05DD57DD59F938F93DF9321
S1133B20CF9386E594E09F938F9387E794E09F93E8
S1133B308F9388E894E09F938F930E9473344ED3BD
S1133B4069D59F938F938EEB94E09F938F930E94FC
S1133B5073348DB79EB782960FB6F8949EBF0FBE8E
S1133B608DBF81E035D456D59F938F938DEC94E02F
S1133B709F938F930E94733484EF91E034D44AD599
S1133B809F938F9381E08F9384EF8F938EEE94E0D5
S1133B909F938F930E9473348DB79EB70A960FB686
S1133BA0F8949EBF0FBE8DBFCAE080E01DD3D82F0E
S1133BB031D59F938F931F92CF938EE095E09F937F
S1133BC08F930E9473340F900F900F900F900F906B
S1133BD00F90D83059F080E00E94F52966E371E037
S1133BE080E090E00E947212C150F9F6D83021F4BE
S1133BF081E00E94D72909C081E00E94E62980E083
S1133C000E94B4290E948706FDCFDF91CF910895C9
S1133C10CF93DF93CDB7DEB76A970FB6F894DEBFC4
S1133C200FBECDBF81E06BD262E070E080E090E037
S1133C300E94721280E063D266E970E080E090E056
S1133C400E94721215D22CDF0E94F70F69837A83C7
S1133C508B839C8348EA58E460E070E0CE010196CF
S1133C600E940D128EE295E09F938F930E9473340D
S1133C70CE010596BEDE86E1FE013596ADE0B5E1E6
S1133C8001900D928A95E1F783E00E94072A6DE086
S1133C9075E180E0D2D2BED49F938F938CE395E0FC
S1133CA09F938F930E9473340F900F900F900F90F7
S1133CB00F900F90CFCFEF92FF920F93E12CF12C46
S1133CC0082F20E030E048E851E061E575E088E045
S1133CD09EE10E946D0F0F91FF90EF900895653063
S1133CE0F1F4FA0180818F7390E0982F8827218165
S1133CF0822B90930A02809309028281F0E48F9FC1
S1133D00C0011124FA01238126952695822B9093D4
S1133D1008028093070281E0809387150895643038
S1133D2051F080E090E4909308028093070290930E
S1133D300A028093090208950F931F930FE61EE170
S1133D4020E034E244EF50E060E087E20E942A2A57
S1133D50909389158093881521E0892B09F020E040
S1133D60822F1F910F910895809188159091891544
S1133D70009759F040E060E070E00E947B2A8430B4
S1133D8031F41092871580E0089582E0089583E06D
S1133D9008958091881590918915009739F064E011
S1133DA00E94C72A853021F083E0089582E00895B7
S1133DB080E008956091090270910A0280E090E029
S1133DC00E94D12C20E030E048EC52E40E945F2DA8
S1133DD020E038EF4FE756E40C94382C0895EADFDE
S1133DE020E030E040E251E40E945F2D0E94A52CC7
S1133DF0CB010895609107027091080280E090E081
S1133E000E94D12C20E030E045E253E40E945F2D73
S1133E1020E038EF4FE756E40E94382C20E030E0F1
S1133E2040E252E40C94D32B0895E4DF20E030E028
S1133E3040E251E40E945F2D0E94A02CCB01089522
S1133E400F931F93CF93DF931F921F92CDB7DEB7CB
S1133E508C0119822DC0E091EE15EC3250F481E012
S1133E608E0F8093EE15F0E0E05EF94E8A81808338
S1133E7002C01092EE158A818A30D1F44091EE1579
S1133E8050E0FA01E25EF94E1082415051099E0160
S1133E902F5F3F4F60E276E18091F1159091F2152A
S1133EA00E948F0C898181110E9487061092EE1561
S1133EB0BE016E5F7F4FC80149D6882361F20F901F
S1133EC00F90DF91CF911F910F9108950F931F933E
S1133ED0CF93DF938C01EB018091F1159091F21552
S1133EE00E949A0BB8018AE895E10E940D3420974C
S1133EF079F0EAE8F5E101900020E9F7319780E2F2
S1133F0090E091838083BE018AE895E10E940234A7
S1133F10EAE8F5E1DF010D900020E9F711978DE063
S1133F209AE011969C938E9312961C920190002015
S1133F30E9F73197EA58F541AE2F8AE895E1AC01EB
S1133F406A2F8091F3159091F415ABD5811111C0AE
S1133F5008E215E020E030E04DE250E06AE776E167
S1133F608091F1159091F2150E94D30C8AE796E1A5
S1133F7002C080E090E0DF91CF911F910F910895EE
S1133F802F923F924F925F926F927F928F929F9265
S1133F90AF92BF92CF92DF92EF92FF920F931F9353
S1133FA0CF93DF935C01FC0101900020E9F7319786
S1133FB06F01C81AD90A5C2C0F2EF1EF8F2EF7E08F
S1133FC09F2EF02DE12CF12C4C2C3701F4010181B2
S1133FD01281E80109900020E9F72197C01BD10B59
S1133FE03C2EF9E0CF16D10458F0F4012080FEE015
S1133FF02F1206C0B801C5010E94DD33892B09F5D3
S1134000442D351408F44C2F50E0B801C5010E942A
S11340101434892B49F4F301EE0FFF1FE60DF71D4D
S1134020EF50F84F20800DC08FEFE81AF80AE3E054
S11340308E0E911CF1E1EF16F10439F668942224F6
S113404024F8822DDF91CF911F910F91FF90EF9073
S1134050DF90CF90BF90AF909F908F907F906F90A4
S11340605F904F903F902F90089530DF89CF08954F
S11340708091F1159091F2150C949A0B08958F92FA
S11340809F92AF92CF92EF920F931F93CF93C82F2B
S11340908B0141E060E070E088EC90E00E94680BE6
S11340A09093F2158093F1151093F0150093EF158A
S11340B00F2EF0E28F2EFFE19F2EF02D6894AA249C
S11340C0A6F86894CC24C6F8E12C00E023E040E094
S11340D051EE60E070E08C2F17D49093F415809328
S11340E0F315E7E0F1E0808180618083CF911F9137
S11340F00F91EF90CF90AF909F908F900895882369
S113410031F0E8E0F1E080818F7E80830895E8E07B
S1134110F1E0808180618083089560E070E087E74A
S113412095E0D4DEEAE7F6E101900020E9F7319763
S1134130EA57F64181E0759708F080E00895CF933F
S1134140DF93EC0160E070E088E895E0BFDEEAE729
S1134150F6E101900020E9F7EB58F64139F46AE7FB
S113416076E1CE010E940D3480E002C0188281E025
S1134170DF91CF910895FC0101900020E9F79F01A0
S1134180215131092817390729F4BC0186EB95E040
S11341906CCF089589E00895FC0101900020E9F7AF
S11341A09F01215131092817390729F4BC0185ECF5
S11341B095E05BCF089589E00895FC01019000200B
S11341C0E9F79F01215231092817390729F4BC0165
S11341D084ED95E04ACF089589E0089560E070E0A9
S11341E083E196E042CF08950F931F93E82FF0E008
S11341F0EE0FFF1FE351F84F608171818CE196E06F
S113420034DF811114C008E215E020E030E04DE213
S113421050E06AE776E18091F1159091F2150E94E1
S1134220D30C882321F08AE796E1AADE03C08AE74B
S113423096E1A6DE1F910F9108950F931F93CF93DC
S1134240DF931F92CDB7DEB7DB0111969C911197D6
S1134250953108F0B4C0992381F160E070E0272F14
S113426030E0462F50E0FD01E40FF51F9281929556
S11342709F709A3010F0995C01C0905DF901E55F80
S1134280F94E90832F5F3F4FFD01E40FF51F92819C
S11342909F70492F50E04A30510514F0995C01C0D9
S11342A0905DF901E55FF94E90837E5F6F5F119633
S11342B09C911197691798F201C070E0E72FF0E024
S11342C0E55FF94E10824C91811103C085E296E0BE
S11342D002C087E296E02BE036E13F932F931F92D2
S11342E04F939F938F938BE296E09F938F938DE4EC
S11342F096E19F938F930E94B63460E070E08DE462
S113430096E1B3DE0FB6F894DEBF0FBECDBF8111C8
S113431059C008E215E020E030E04DE250E06AE7E1
S113432076E18091F1159091F2150E94D30C8823C7
S113433009F447C08AE796E123DE8E3009F042C0D3
S113434087E089838091EF159091F015892BA9F16D
S1134350BE016F5F7F4F8AE796E168D18093F515C0
S1134360E981F0E0E658F94EDF010D900020E9F70D
S11343701197AE1BBF0BAA2391F0BB27CD01019768
S11343809C0112F42F5F3F4F359527952093F61526
S1134390AF014F5F5F4F64E187EF95E173D101E0B7
S11343A010E020E030E046E150E065EF75E18091F7
S11343B0EF159091F0150E94CA0B8EE003C084E1C2
S11343C001C080E00F90DF91CF911F910F9108956C
S11343D0813019F06BE376E002C064E177E08FE3AB
S11343E096E043CE08959F938F9380E796E09F9342
S11343F08F938DE496E19F938F930E94B63460E08F
S113440070E08DE496E131DE0F900F900F900F90E5
S11344100F900F9008952F923F924F925F926F9258
S11344207F928F929F92AF92BF92CF92DF92EF9240
S1134430FF920F931F93CF93DF93CDB7DEB7A0976F
S11344400FB6F894DEBF0FBECDBF6DE976E089EA02
S113445096E03CDD95DD8111A3C080E2E2E2F2E06A
S1134460DE01119601900D928A95E1F79E012F5F6E
S11344703F4F6901E12CF12C0F2EF5EBAF2EF6E046
S1134480BF2EF02D0DE416E10F2EFEEC4F2EF6E0BC
S11344905F2EF02D0F2EF5EE8F2EF6E09F2EF02DD1
S11344A00F2EFFEF6F2EF6E07F2EF02D3E2C2F2CDB
S11344B0FF92EF92BF92AF921F930F930E94B63474
S11344C060E070E0C80102DD5BDD0F900F900F909B
S11344D00F900F900F90811163C032E03E15E8F405
S11344E0F60183818F9382818F9381818F93808161
S11344F08F93FF92EF925F924F921F930F930E94BC
S1134500B63460E070E0C801E1DC3ADD0FB6F8943F
S1134510DEBF0FBECDBF811143C02F923F929F9249
S11345208F921F930F930E94B63460E070E0C8012D
S1134530CDDC26DD0F900F900F900F900F900F9011
S113454081112EC02F923F927F926F921F930F93EF
S11345500E94B63460E070E0C801B8DC11DD0F9051
S11345600F900F900F900F900F90811119C03FEF93
S1134570E31AF30A84E0C80ED11C98E0E916F104AA
S113458009F094CF60E070E087E197E09FDCF8DC0D
S1134590811106C060E070E088E297E097DCF0DC0F
S11345A0A0960FB6F894DEBF0FBECDBFDF91CF91BA
S11345B01F910F91FF90EF90DF90CF90BF90AF903D
S11345C09F908F907F906F905F904F903F902F902F
S11345D00895EF92FF920F931F93CF93DF93EC0113
S11345E08B017A0181E0F4DE81110DC0CE01D4DDAE
S11345F0811109C0C801E1DD811105C0C701BBDD1E
S1134600811101C0EBDDDF91CF911F910F91FF90DC
S1134610EF90089590E0FC01EE0FFF1F8E0F9F1F97
S1134620FC01EF50F84F818192810895DC010097DD
S113463029F1FB012081FC0101900020E9F7319769
S1134640E81BF90B822F90E0E817F907C8F080E027
S113465008C0880F382F330F330F830F8053890F0F
S11346602F5FFD01E20FF11D908130ED390F3A30DB
S113467010F49111EECFFB012083089580E008959A
S113468080E008950F931F93CF93DF93DC01EA0139
S11346902097E1F1FA0101900020E9F73197E41B3A
S11346A0F50B329710F532C08D01040F151F30E061
S11346B0AE01420F531FFA019081913428F09753B1
S11346C0592F5295507F03C0592F5295507F2C0F6C
S11346D03D1FF9019181913410F0975301C090531B
S11346E0950FF80190838F5F01C080E0282F220F7F
S11346F0482F50E0FE0101900020E9F73197EC1BB0
S1134700FD0B4E175F0710F48613CECFDF91CF91C8
S11347101F910F9108958091AA16860F8093AA166F
S11347209091AD16913079F028F09230A9F0933041
S113473019F108956F3F09F048C01092AA1681E05C
S11347408093AD160895663809F03FC01092A916FB
S113475082E08093AD160895E091A91681E08E0F52
S11347608093A916F0E0E955F94E6083823069F52B
S113477083E08093AD1608959091A91621E0290F46
S11347802093A916963009F581110EC0E7EAF6E1E7
S1134790808190E0982F88272181820F911D90932A
S11347A0AF168093AE1604C01092AF161092AE16D8
S11347B01092AD16E091AB16F091AC16309729F03B
S11347C08091AE169091AF16199508958F929F928D
S11347D0AF92CF92EF920F930F2EFBE88F2EF3E25E
S11347E09F2EF02D6894AA24A4F86894CC24C4F8CD
S11347F0E12C00E023E040E855E260E070E084D082
S11348009093B1168093B0160F91EF90CF90AF9024
S11348109F908F9008959093AC168093AB16089553
S1134820CF93DF93CDB7DEB729970FB6F894DEBFE9
S11348300FBECDBF89E0E2E4F2E09E012F5F3F4F5F
S1134840D90101900D928A95E1F71092AF1610925A
S1134850AE168091B0169091B116009731F0422FA8
S1134860532F69E01ED180E001C082E029960FB683
S1134870F894DEBF0FBECDBFDF91CF910895209194
S1134880AE163091AF162115310529F4FC011182C1
S1134890108281E00895FC013183208380E0089533
S11348A065360CF064E66C390CF46CE996EF690239
S11348B0B00111246854744F811105C0709329010B
S11348C060932801089570932B0160932A01089541
S11348D0EAE0F1E08081886180838FE39CE9909332
S11348E027018093260160E080E0DADF60E081E068
S11348F0D7DFE0E2F1E08081826A8083E1E2F1E0E7
S113490080818A61808308952F923F924F925F92B3
S11349106F927F928F929F92AF92CF92EF92FF927B
S11349200F931F93CF93DF93CDB7DEB7F82E2A01F1
S11349303B0188E090E00E94C5318C018F2D90E00E
S1134940FC01EE0FFF1FEE54F94E11830083011595
S1134950110509F469C0880F991FFC01E55FFD4F3B
S113496080819181D8018D939C936C2D70E084E0BB
S113497090E00E94AB311C0161E070E086E090E0C1
S11349800E94AB317C014C2DB101F1D6F801F582C6
S1134990E4826A2D70E084E090E00E94AB311C0157
S11349A061E070E086E090E00E94AB317C014A2D2A
S11349B0B101DDD6D8011396FC92EE9212971796A8
S11349C09C928E921697FFB6F894ED91FC911197F4
S11349D036978081826080838D909C90C301B20160
S11349E0E0D720E030E040E051E40E945F2D9B01DD
S11349F0AC0160E074E284E79BE43AD720E030E065
S1134A0040E85FE3D0D6A1D7F40132976083D801A0
S1134A10ED91FC911197359788E98083ED91FC9194
S1134A20349786E08083FFBEC801DF91CF911F9148
S1134A300F91FF90EF90CF90AF909F908F907F90C9
S1134A406F905F904F903F902F900895CF93DF9396
S1134A50DC01892B01F11296ED91FC91139793815E
S1134A6082812581981B922384819817B1F08381D8
S1134A7026952823C081D181C20FD11D68838F5F01
S1134A80958189238383ED91FC91359780818062A0
S1134A90808380E003C081E001C082E0DF91CF9198
S1134AA00895EF92FF920F931F93CF93DF937C01AE
S1134AB0009709F441C0DC011296ED91FC91139723
S1134AC093818281981B858198238481891B861711
S1134AD0A8F1662341F1842F952FDC016150462F04
S1134AE050E04F5F5F4F480F591FE701EA81FB8198
S1134AF0938182812581981B92238481981779F070
S1134B008C91938126952923608171818B01020FF9
S1134B10111DE80188839F5F8581982393831196F3
S1134B20A417B50711F7D701ED91FC913597808152
S1134B308062808380E003C081E001C082E0DF9175
S1134B40CF911F910F91FF90EF9008950097D1F0AE
S1134B50DC011496ED91FC9115979381828198174D
S1134B6099F09281858186958923A081B181A80FCE
S1134B70B11D8C91DB018C939F5F85819823928377
S1134B8080E0089581E0089583E008951F920F92D4
S1134B900FB60F9211240BB60F922F933F934F939E
S1134BA05F936F937F938F939F93AF93BF93CF93B1
S1134BB0DF93EF93FF93A091B216B091B3161097C1
S1134BC011F16091C6001496ED91FC9115979381B3
S1134BD082812581981B92238481981761F08381B7
S1134BE026952823C081D181C20FD11D68838F5F90
S1134BF09581892383831696ED91FC9117973097BD
S1134C0011F0CD011995FF91EF91DF91CF91BF91F3
S1134C10AF919F918F917F916F915F914F913F9150
S1134C202F910F900BBE0F900FBE0F901F901895F1
S1134C301F920F920FB60F9211240BB60F922F935F
S1134C408F939F93AF93BF93EF93FF93E091B2162B
S1134C50F091B3163097B9F00280F381E02D93817F
S1134C6082819817B1F092818581282F2695292376
S1134C70A081B181A20FB11D2C919F5F89238283F2
S1134C802093C6000BC0E1ECF0E080818F7D80832F
S1134C9005C0E1ECF0E080818F7D8083FF91EF918E
S1134CA0BF91AF919F918F912F910F900BBE0F9059
S1134CB00FBE0F901F9018951F920F920FB60F9270
S1134CC011240BB60F922F933F934F935F936F93DF
S1134CD07F938F939F93AF93BF93CF93DF93EF9380
S1134CE0FF93A091B416B091B516109711F160918D
S1134CF0CE001496ED91FC911597938182812581C4
S1134D00981B92238481981761F083812695282328
S1134D10C081D181C20FD11D68838F5F95818923A2
S1134D2083831696ED91FC911797309711F0CD017E
S1134D301995FF91EF91DF91CF91BF91AF919F9121
S1134D408F917F916F915F914F913F912F910F9030
S1134D500BBE0F900FBE0F901F9018951F920F92CD
S1134D600FB60F9211240BB60F922F938F939F932C
S1134D70AF93BF93EF93FF93E091B416F091B51600
S1134D803097B9F00280F381E02D938182819817E6
S1134D90B1F092818581282F26952923A081B181A4
S1134DA0A20FB11D2C919F5F892382832093CE0093
S1134DB00BC0E9ECF0E080818F7D808305C0E9ECD5
S1134DC0F0E080818F7D8083FF91EF91BF91AF915F
S1134DD09F918F912F910F900BBE0F900FBE0F904C
S1134DE01F9018951F920F920FB60F9211240BB6B5
S1134DF00F922F933F934F935F936F937F938F9370
S1134E009F93AF93BF93CF93DF93EF93FF93A091BF
S1134E10B616B091B716109711F16091D60014969A
S1134E20ED91FC911597938182812581981B9223A2
S1134E308481981761F0838126952823C081D181CC
S1134E40C20FD11D68838F5F958189238383169652
S1134E50ED91FC911797309711F0CD011995FF91C1
S1134E60EF91DF91CF91BF91AF919F918F917F91FE
S1134E706F915F914F913F912F910F900BBE0F90C7
S1134E800FBE0F901F9018951F920F920FB60F929E
S1134E9011240BB60F922F938F939F93AF93BF93CD
S1134EA0EF93FF93E091B616F091B7163097B9F0EF
S1134EB00280F381E02D938182819817B1F0928171
S1134EC08581282F26952923A081B181A20FB11DA8
S1134ED02C919F5F892382832093D6000BC0E1ED40
S1134EE0F0E080818F7D808305C0E1EDF0E080817A
S1134EF08F7D8083FF91EF91BF91AF919F918F91AF
S1134F002F910F900BBE0F900FBE0F901F9018950E
S1134F101F920F920FB60F9211240BB60F922F937C
S1134F203F934F935F936F937F938F939F93AF932D
S1134F30BF93CF93DF93EF93FF93A091B816B091F3
S1134F40B916109711F1609136011496ED91FC9108
S1134F501597938182812581981B922384819817C8
S1134F6061F0838126952823C081D181C20FD11D90
S1134F7068838F5F9581892383831696ED91FC91D5
S1134F801797309711F0CD011995FF91EF91DF91AB
S1134F90CF91BF91AF919F918F917F916F915F91CD
S1134FA04F913F912F910F900BBE0F900FBE0F901A
S1134FB01F9018951F920F920FB60F9211240BB6E3
S1134FC00F922F938F939F93AF93BF93EF93FF937E
S1134FD0E091B816F091B9163097B9F00280F381D8
S1134FE0E02D938182819817B1F092818581282FD9
S1134FF026952923A081B181A20FB11D2C919F5F19
S113500089238283209336010BC0E1E3F1E08081A0
S11350108F7D808305C0E1E3F1E080818F7D808313
S1135020FF91EF91BF91AF919F918F912F910F902D
S11350300BBE0F900FBE0F901F901895CF93DF9368
S11350401F92CDB7DEB7BE016F5F7F4F8091BA1656
S11350509091BB167BDD8111F6CF898190E00F9092
S1135060DF91CF910895682F8091BA169091BB1665
S1135070EDDC80E090E008958F929F92AF92CF9202
S1135080EF920F93812C912C6894AA24A7F868942A
S1135090CC24C7F8E12C00E023E040E051EE60E0CE
S11350A070E032DC9093BB168093BA16E7EFF6E11A
S11350B083E192E091838083938382830F91EF90C5
S11350C0CF90AF909F908F90089590E0FC01EE0FE9
S11350D0FF1FE80FF91FEE0FFF1FE454F94E238161
S11350E021111FC09C01220F331FF901E80FF91F82
S11350F0EE0FFF1FE454F94EA081B1814C91F901E8
S1135100E80FF91FEE0FFF1FE454F94E81E090E021
S1135110028002C0880F991F0A94E2F7842B8C93B3
S11351200895FC01EE0FFF1FDF01A80FB91FAA0F9E
S1135130BB1FA454B94E0D90BC91A02D2C91E80F27
S1135140F91FEE0FFF1FE454F94E81E090E0028056
S113515002C0880F991F0A94E2F7809582238C93EA
S1135160089590E0FC01EE0FFF1FE80FF91FEE0F0A
S1135170FF1FE454F94E2381211120C09C01220F0A
S1135180331FF901E80FF91FEE0FFF1FE454F94E26
S1135190A081B1814C91F901E80FF91FEE0FFF1FB7
S11351A0E454F94E81E090E0028002C0880F991F18
S11351B00A94E2F7809584238C930895FC01EE0F02
S11351C0FF1FDF01A80FB91FAA0FBB1FA454B94EBC
S11351D00D90BC91A02D2C91E80FF91FEE0FFF1F2D
S11351E0E454F94E81E090E0028002C0880F991FD8
S11351F00A94E2F7822B8C930895CC24C394D12C87
S11352006894BB24B2F8CCEBD6E110E08C818130F9
S113521081F018F1823061F5E881F9812081C601BD
S11352200A8002C0880F991F0A94E2F782278083BC
S11352301FC08D818F5F8A3010F48D8319C01D8249
S1135240E881F9812081C6010A8002C0880F991F74
S11352500A94E2F7822780830BC00D81002329F092
S1135260812F7FDF01500D8303C0BC82812F2DDF8E
S11352701F5F2696143051F665E070E080E090E000
S11352800E947212C0CFEF92FF920F931F93CF939D
S1135290DF93082F80E487B9CCEBD6E10F2EF8E238
S11352A0EF2EF12CF02DF982E88286E08A831B82AE
S11352B014E01C8380E009DF80E887B9FF82EE8276
S11352C087E0888719861A8781E0FFDE80E283BB46
S11352D084E390E09D878C8785E08E871F86188BFA
S11352E082E0F3DE80E18093010182E091E09B8B18
S11352F08A8B1C8B1D8A1E8B83E0E7DEE12CF12C4C
S113530020E030E040EC50E064E278E08DEF98E299
S11353100E946D0FDF91CF911F910F91FF90EF903D
S11353200895CF93DF9390E0FC01EE0FFF1FDF01A0
S1135330A80FB91FAA0FBB1FA454B94ECD91DC917D
S11353401197488121E030E012960C90129702C028
S1135350220F331F0A94E2F724272883FD0181E0FA
S11353608483DF91CF910895CF93DF9390E0FC0184
S1135370EE0FFF1FDF01A80FB91FAA0FBB1FA45414
S1135380B94ECD91DC911197488121E030E012961D
S11353900C90129702C0220F331F0A94E2F72427BD
S11353A02883FD0182E08483DF91CF910895282F23
S11353B030E0F901EE0FFF1FE20FF31FEE0FFF1FA6
S11353C0E454F94E93E09483CCCE0895282F30E032
S11353D0F901EE0FFF1FE20FF31FEE0FFF1FE4545E
S11353E0F94E94E0948371CE089590E0FC01EE0FA1
S11353F0FF1FDF01A80FB91FAA0FBB1FA454B94E8A
S113540024E015962C931597FD011482089590E0DD
S1135410FC01EE0FFF1FDF01A80FB91FAA0FBB1F6E
S1135420A454B94E21E015962C931597FD011482CE
S113543008958091E21681110CC08CE08093B8002D
S11354408FEF8093BB0084E08093BC0081E0809365
S1135450E2160895AF92BF92CF92DF92EF92FF923D
S11354600F931F93CF93DF93A82EB62E69017A0171
S113547084E090E08AD7EC01892B61F1A88281E075
S1135480B81212C0C701B60120EA36E841E050E084
S113549015D7DA01C9014097A109B109B695A795B5
S11354A097958795898311C0C701B60120E83AE131
S11354B046E050E003D7DA01C9014097A109B109D8
S11354C0B695A7959795879589831B830A838C2F17
S11354D09D2F02C080E090E0DF91CF911F910F914A
S11354E0FF90EF90DF90CF90BF90AF9008958091A0
S11354F0BC0081700895FF920F931F93CF93DF93A5
S11355000097D1F14A30D0F5F42E8B01EC01EFDF96
S1135510811136C08091D5169091D616C817D90737
S113552041F087DF89818093B800D093D616C09369
S1135530D51681E08F0D8093D7168881880F8093CC
S1135540D816FF2089F0F801A9EDB6E14FEF4F0D11
S1135550642F70E0CB010196B801680F791F819127
S11355608D93E617F707D9F788EF8093210285EA30
S11355708093BC0084E005C086E003C087E001C0DE
S113558082E0DF91CF911F910F91FF9008951F93B7
S1135590CF93DF93009729F16B3028F5162FEC0198
S11355A0A6DF811122C08091D5169091D616C81716
S11355B0D90741F03EDF89818093B800D093D61695
S11355C0C093D5161093D7168881880F8160809375
S11355D0D81688EF8093210285EA8093BC0085E089
S11355E005C086E003C087E001C082E0DF91CF916F
S11355F01F9108951F920F920FB60F9211240BB6AC
S11356000F922F933F934F935F936F937F938F9357
S11356109F93AF93BF93EF93FF93E091B9008E2FC5
S113562090E0FC013897E135F10508F075C0882752
S1135630E458FF4F8F4F64C61092D416E091D416ED
S11356408091D716E81770F481E08E0F8093D416FA
S1135650F0E0E852F94E80818093BB0085E88093A6
S1135660BC0072C084E98093BC008091D5169091EF
S1135670D616DC011296ED91FC911397309709F43C
S113568063C020E040E050E064E019955DC0E09123
S1135690D41681E08E0F8093D4168091BB00F0E085
S11356A0E852F94E80838091B900803411F410924D
S11356B0D4162091D41630E08091D71690E001974B
S11356C02817390724F485EC8093BC003DC085E895
S11356D08093BC0039C08091BB00E091D416F0E007
S11356E0E852F94E808384E98093BC008091D516FA
S11356F09091D616DC011296ED91FC911397309798
S113570019F12091D71648ED56E165E019951CC0B2
S113571085EA8093BC0018C08091B900809321026F
S113572084E08093BC008091D5169091D616DC015C
S11357301296ED91FC911397309731F020E040E000
S113574050E0609121021995FF91EF91BF91AF91C3
S11357509F918F917F916F915F914F913F912F9185
S11357600F900BBE0F900FBE0F901F901895FC0169
S1135770411101C02BD7842F90E09C0121503109A5
S113578082239323892B09F021D7413808F01ED7AF
S1135790128213824483440F415045837183608392
S11357A080E090E008955058BB27AA270ED04DC141
S11357B03ED130F043D120F031F49F3F11F41EF478
S11357C033C10EF4E095E7FB29C1E92F4FD180F3F3
S11357D0BA17620773078407950718F071F49EF5EA
S11357E067C10EF4E0950B2EBA2FA02D0B01B90161
S11357F090010C01CA01A0011124FF27591B99F043
S1135800593F50F4503E68F11A16F040A22F232F4E
S1135810342F4427585FF3CF469537952795A7959E
S1135820F0405395C9F77EF41F16BA0B620B730B45
S1135830840BBAF09150A1F0FF0FBB1F661F771FB6
S1135840881FC2F70EC0BA0F621F731F841F48F46B
S1135850879577956795B795F7959E3F08F0B3CFF1
S11358609395880F08F09927EE0F979587950895DB
S11358700CD0EBC0E3D040F0DAD030F021F45F3F3D
S113588019F0CCC0511115C1CFC0F0D098F39923B1
S1135890C9F35523B1F3951B550BBB27AA276217F0
S11358A07307840738F09F5F5F4F220F331F441F35
S11358B0AA1FA9F333D00E2E3AF0E0E830D091506D
S11358C05040E695001CCAF729D0FE2F27D0660F5A
S11358D0771F881FBB1F261737074807AB07B0E899
S11358E009F0BB0B802DBF01FF2793585F4F2AF0AF
S11358F09E3F510568F092C0DCC05F3FECF3983ED8
S1135900DCF3869577956795B795F7959F5FC9F70B
S1135910880F911D9695879597F90895E1E0660F94
S1135920771F881FBB1F621773078407BA0720F00D
S1135930621B730B840BBA0BEE1F88F7E095089576
S113594004D06894B111B5C0089598D088F09F57D9
S113595090F0B92F9927B751A0F0D1F0660F771FB7
S1135960881F991F1AF0BA95C9F712C0B13081F097
S11359709FD0B1E008959CC0672F782F8827B85F27
S113598039F0B93FCCF3869577956795B395D9F7F8
S11359903EF490958095709561957F4F8F4F9F4F02
S11359A00895E89409C097FB3EF49095809570950E
S11359B061957F4F8F4F9F4F9923A9F0F92F96E957
S11359C0BB279395F695879577956795B795F111CC
S11359D0F8CFFAF4BB0F11F460FF1BC06F5F7F4F69
S11359E08F4F9F4F16C0882311F096E911C077237B
S11359F021F09EE8872F762F05C0662371F096E884
S1135A00862F70E060E02AF09A95660F771F881F52
S1135A10DAF7880F9695879597F9089597F99F6710
S1135A2080E870E060E008959FEF80EC0895002422
S1135A300A941616170618060906089500240A94EF
S1135A4012161306140605060895092E0394000C75
S1135A5011F4882352F0BB0F40F4BF2B11F460FF04
S1135A6004C06F5F7F4F8F4F9F4F089557FD90582D
S1135A70440F551F59F05F3F71F04795880F97FB0E
S1135A80991F61F09F3F79F08795089512161306C8
S1135A901406551FF2CF4695F1DF08C016161706F7
S1135AA01806991FF1CF869571056105089408952C
S1135AB0E894BB2766277727CB0197F908950BD085
S1135AC0C4CFB5DF28F0BADF18F0952309F0A6CFCC
S1135AD0ABCF1124EECFCADFA0F3959FD1F3950F7E
S1135AE050E0551F629FF001729FBB27F00DB11D5E
S1135AF0639FAA27F00DB11DAA1F649F6627B00DEE
S1135B00A11D661F829F2227B00DA11D621F739FD6
S1135B10B00DA11D621F839FA00D611D221F749FE4
S1135B203327A00D611D231F849F600D211D822F2B
S1135B30762F6A2F11249F5750408AF0E1F0882372
S1135B404AF0EE0FFF1FBB1F661F771F881F91507F
S1135B505040A9F79E3F510570F060CFAACF5F3F38
S1135B60ECF3983EDCF3869577956795B795F795B2
S1135B70E7959F5FC1F7FE2B880F911D969587953A
S1135B8097F908952F923F924F925F926F927F926E
S1135B908F929F92AF92BF92CF92DF92EF92FF9239
S1135BA00F931F93CF93DF93CDB7DEB760970FB6F4
S1135BB0F894DEBF0FBECDBF7C011B016A01FC015E
S1135BC017821682838181FF2AC39E012F5F3F4F74
S1135BD03901F7019381F10193FD859193FF81913F
S1135BE01F01882309F417C3853239F493FD859185
S1135BF093FF81911F01853231F4B70190E037D6CC
S1135C0056016501E6CF10E0512C912CFFE1F91506
S1135C10D8F08B3279F038F4803279F08332A1F401
S1135C20F92DF0612EC08D3261F0803369F4292D95
S1135C3021602DC0392D3260932E892D8460982ED9
S1135C402AC0E92DE86015C097FC2DC020ED280F6F
S1135C502A3088F496FE06C03AE0139F200D1124E2
S1135C60122F19C08AE0589E200D1124522EE92DBE
S1135C70E0629E2E10C08E3231F496FCCCC2F92D17
S1135C80F0649F2E08C08C3621F4292D2068922EB2
S1135C9002C0883641F4F10193FD859193FF81910F
S1135CA01F018111B3CF9BEB980F933020F4992DF2
S1135CB09061805E07C09BE9980F933008F059C14A
S1135CC0992D9F7E96FF16E09F73992E853619F4C1
S1135CD09064992E08C0863621F4392F3068932EAB
S1135CE002C01111115097FE07C01C3350F4442414
