:1000000066C1000085C1000083C1000081C10000FD
:100010007FC100007DC100007BC1000079C10000EC
:1000200077C1000075C1000073C1000071C10000FC
:10003000C4C600006DC100006BC1000069C10000B2
:1000400067C1000065C1000063C1000061C100001C
:100050005FC100005DC100005BC1000059C100002C
:1000600057C100000C9410250C94622551C100006A
:100070004FC100004DC100004BC1000049C100004C
:1000800047C1000045C1000043C1000041C100005C
:100090000C94A6250C94F8253BC100000C94442A2E
:1000A00037C1000035C1000033C1000031C100007C
:1000B0002FC100002DC100002BC1000029C100008C
:1000C00027C1000025C1000023C100000C943C267C
:1000D0000C948E261DC100000C94D2260C9424276B
:1000E00017C10000F41AF41AF41A2B1B331B481B17
:1000F000F41AF41A2B1B331B662AD62AD62AD62AC0
:10010000D62AD62AD62AD62A662AD62AD62AD62A5F
:10011000D62AD62AD62AD62A682AD62AD62AD62A4D
:10012000D62AD62AD62AD62AD62AD62AD62AD62ACF
:10013000D62AD62AD62AD62A682AD62AD62AD62A2D
:10014000D62AD62AD62AD62AD62AD62AD62AD62AAF
:10015000D62AD62AD62AD62AD22AD62AD62AD62AA3
:10016000D62AD62AD62AD62A9D2AD62AD62AD62AC8
:10017000D62AD62AD62AD62AD62AD62AD62AD62A7F
:10018000D62AD62AD62AD62A912AD62AD62AD62AB4
:10019000D62AD62AD62AD62AB52A6E616E00696E6C
:1001A000660000407A10F35A00A0724E1809001041
:1001B000A5D4E80000E87648170000E40B540200DC
:1001C00000CA9A3B000000E1F50500008096980007
:1001D000000040420F000000A08601000000102730
:1001E00000000000E80300000000640000000000C0
:1001F0000A00000000000100000000002C76D888F2
:10020000DC674F0823DFC1DFAE59E1B1B796E5E304
:10021000E453C63AE651997696E8E6C28426EB891D
:100220008C9B62ED407C6FFCEFBC9C9F40F2BAA5BA
:100230006FA5F490055A2AF75C936B6CF9676DC152
:100240001BFCE0E40D47FEF520E6B500D0ED902E56
:100250000300943577050080841E080000204E0AB4
:10026000000000C80C333333330F986E12831141F2
:10027000EF8D2114893BE65516CFFEE6DB18D184BD
:100280004B381BF77C1D901DA4BBE42420328472E4
:100290005E228100C9F124ECA1E53D270E94360EC3
:1002A0008091EF13823008F0C2D40E94711BF6CF08
:1002B000CF93DF931F92CDB7DEB7CE0101960E9498
:1002C000711849810E94661A0E94BD1AF6CF112446
:1002D0001FBECFEFD1E2DEBFCDBF00E00CBF17E005
:1002E000A0E0B2E0ECE1F9E600E00BBF02C007904D
:1002F0000D92A63DB107D9F726E1A6EDB7E001C002
:100300001D92A938B207E1F70E94481C0C948C3466
:1003100077CE8091771690917816089541E150E05C
:1003200060E070E0B2C10895CF92DF92EF92FF9249
:100330000F93CF93DF93EC010F2EF6E0CF2ED12C4D
:10034000E12CF12CF02D01E020E041E150E060E0F3
:1003500070E0FBD0DC01CB0181719927AA27BB2774
:100360004197A105B105A9F48FE692E09F938F9381
:100370000E94BD330E94B21B0E946D1C0E94C11BD3
:100380000E94721C5FD00E94681CCE01C7DF0F90D4
:100390000F90DF91CF910F91FF90EF90DF90CF9072
:1003A0000895CF93DF9300D01F92CDB7DEB78EE8CC
:1003B00092E09F938F930E94BD33B4D090937816B0
:1003C000809377160E94870F69837A838B839C833F
:1003D0000F900F9042E150E060E070E0CE01019696
:1003E0000E949D118091771690917816009791F355
:1003F0009BDFF0CFEF92FF920F93E12CF12C082FAF
:1004000020E030E040EC50E06FE972E081ED91E0F7
:100410000E94FD0E0F91FF90EF900895EF92FF92D2
:100420000F93E12CF12C082F20E030E040EC50E05D
:100430006FEA72E08DE292E00E94FD0E0F91FF9054
:10044000EF90089580917B1690917C16089541E07D
:1004500050E060E070E036C10895CF93DF9300D0A4
:100460001F92CDB7DEB787EB92E09F938F930E94E8
:10047000BD3380E090E00E9489230E94870F69834A
:100480007A838B839C830F900F9048EA58E460E056
:1004900070E0CE0101960E949D110E948E238093F0
:1004A00079168111F2CF62E370E080E090E00E9463
:1004B000021280917A16811109C08BE796E10E94A1
:1004C000BD2380937A1625DFC2DFDFCF8130E9F6C6
:1004D00080EC92E09F938F930E94BD330F900F901A
:1004E000D4CF0F9301110CC0DC01CB0182239323E5
:1004F000A423B523892B8A2B8B2B79F480E010C0A1
:10050000DC01CB0182239323A423B52328173907C9
:100510004A075B0721F080E003C081E001C081E071
:100520000F910895CF93DF938FE090E0CCD1EC0151
:10053000009739F0FC011192119211921192CF01A2
:10054000A8D2CE01DF91CF9108952F923F924F9282
:100550005F926F927F928F929F92AF92BF92CF9253
:10056000DF92EF92FF920F931F93CF93DF93EC01F3
:100570004A015B01622E702E0E94810F2880398013
:100580004A805B80A5019401C201B101AADF8823E2
:10059000A1F0662089F1D501C40180959095A095C0
:1005A000B09582219321A421B52188839983AA83C0
:1005B000BB83C12CD12C760122C0C114D104E1042B
:1005C000F104E9F0611004C040E050E0BA0104C059
:1005D00040E050E060E071E07110746048295929F2
:1005E0006A297B2997018601CE0104960E949912FF
:1005F000212C312C210103C0C12CD12C76010E9469
:10060000C110CD28CE28CF2859F1811101C00FD3B8
:100610000E946D156B017C0191FD1FC00FB6F8940F
:100620000F92C880D980EA80FB80072DA501940134
:10063000C701B60156DF882371F0662061F080940F
:100640009094A094B0948C209D20AE20BF208882EE
:100650009982AA82BB820F900FBE160127015524F2
:10066000C201B101DF91CF911F910F91FF90EF90E7
:10067000DF90CF90BF90AF909F908F907F906F90C2
:100680005F904F903F902F9008950F931F930FB658
:10069000F8940F92FC0100811181228133814095F1
:1006A00050956095709540235123622373234083B6
:1006B0005183628373830F900FBEC901B8011F91EC
:1006C0000F9108954F925F926F927F92AF92BF9277
:1006D000CF92DF92EF92FF920F931F93CF93DF930E
:1006E000EC016A017B018C01095F1F4F0E94810FA1
:1006F000EB85FC8588819981AA81BB81C82AD92A8A
:10070000EA2AFB2AC882D982EA82FB82C12CD12C38
:1007100076013DC0A480B58080819181A281B381A2
:10072000AC01BD017727B2FD0EC0488059806A80B8
:100730007B80442255226622772245284628472876
:1007400089F420E012C0488059806A807B8044226E
:10075000552266227722441555056605770521F056
:1007600020E003C021E001C021E0222371F0B0FFAE
:1007700004C0C42AD52AE62AF72A488159816A8109
:100780007B817260CF010E94D413EA2DFB2DE0170C
:10079000F10709F0BFCFC094D094E094F094888121
:1007A0009981AA81BB81C822D922EA22FB22C88270
:1007B000D982EA82FB820E94C110688179818A8194
:1007C0009B81DF91CF911F910F91FF90EF90DF9070
:1007D000CF90BF90AF907F906F905F904F900895B3
:1007E000E2EEF7E0A6EEB7E0B183A08313821282B7
:1007F000EAE9F3E1F093E107E093E0071382128264
:100800001182108284EB9BE013969C938E93129737
:10081000ED93FC939093DD078093DC079093DF07C3
:100820008093DE0780E090E89093D7078093D60707
:100830000895CF93DF93EC01A2EEB7E001C0DF0192
:10084000ED91FC911197EC17FD07C8F312968D916D
:100850009C9113979D01280F391FC217D30749F4A4
:100860002A813B81820F931F13969C938E9312973C
:10087000ED018A819B819E01280F391FE217F30742
:10088000C1F42091E0073091E107E217F30771F01E
:1008900022813381820F931F9B838A83ED91FC9188
:1008A0001197808191819983888305C0398328833A
:1008B00002C0F983E883CA17DB0711F0CD93DC93FC
:1008C000DF91CF910895EF92FF920F931F93CF93F3
:1008D000DF938C010E94810F8091E0079091E107E6
:1008E000892B09F47DDF8091D6079091D70780236B
:1008F0009123892B09F076C00115110549F0C80133
:1009000004960817190718F000E010E001C08C01E8
:100910000115110509F469C08091DE079091DF0788
:100920008017910708F464C0C091E207D091E307F3
:10093000E2EEF7E002C0FE01EC018A819B818017A4
:10094000910720F4888199810097A9F78091E007A9
:100950009091E107C817D90709F44DC0E080F180F4
:1009600084E0E80EF11C88819981918380832A813B
:100970003B81201B310B2930310548F0CE01800F1F
:10098000911FFC01338322831B830A8352DF2A8158
:100990003B818091DE079091DF07821B930B909340
:1009A000DF078093DE074091DC075091DD07841755
:1009B000950720F49093DD078093DC078091D6079C
:1009C0009091D707282B392B3B832A8319821882D1
:1009D0008091DA079091DB0701969093DB07809373
:1009E000DA070BC0E12CF12C08C0E12CF12C05C07A
:1009F000E12CF12C02C0E12CF12C0E94C110E11479
:100A0000F10411F40E947D1BC701DF91CF911F916A
:100A10000F91FF90EF9008950F931F93CF93DF9363
:100A2000009791F1EC0124974A815B812091D607D0
:100A30003091D707BA0162237323672B29F16881AC
:100A40007981672B09F520953095242335233B8345
:100A50002A830E94810F8A819B812091DE07309139
:100A6000DF07820F931F9093DF078093DE07CE018D
:100A7000E0DE8091D8079091D90701969093D9072D
:100A80008093D8070E94C110DF91CF911F910F91E1
:100A90000895FC010396928381834FEF5FEFBA01C3
:100AA0004383548365837683908787839287818786
:100AB00010820895FC011386128608950F931F93E8
:100AC000CF93DF93EB01088119812A813B810F3F8E
:100AD0004FEF14072407340721F4FC01A185B285E8
:100AE00011C0DC01139601C0DF011496ED91FC9159
:100AF000159740815181628173810417150726077C
:100B0000370790F71496ED91FC911597FD83EC83D0
:100B1000D783C683BF83AE831596DC93CE93149799
:100B20009B878A87FC0120812F5F2083DF91CF91F3
:100B30001F910F910895CF93DF93FC01A285B38598
:100B4000C481D581868197819F838E83C681D78119
:100B5000848195819D838C8311968D919C911297B0
:100B6000E817F90731F48681978112969C938E934A
:100B70001197138612868C9181508C938C91DF9102
:100B8000CF910895A89590EC88E10FB6F894A895B8
:100B9000809360000FBE909360000895FC01608315
:100BA000319770833197108231971082319720E806
:100BB0002083319710823197108231971082779776
:100BC00040833197508386970895DCDFA0915D14B0
:100BD000B0915E14CD91CDBFDD91DEBFFF91EF915D
:100BE000DF91CF91BF91AF919F918F917F916F9145
:100BF0005F914F913F912F911F910F91FF90EF9037
:100C0000DF90CF90BF90AF909F908F907F906F902C
:100C10005F904F903F902F901F900F900CBE0F90C1
:100C20000BBE0F900FBE0F90089581E008950F92B4
:100C30000FB6F8940F920BB60F920CB60F921F924C
:100C400011242F923F924F925F926F927F928F92D8
:100C50009F92AF92BF92CF92DF92EF92FF920F934B
:100C60001F932F933F934F935F936F937F938F9334
:100C70009F93AF93BF93CF93DF93EF93FF93A09195
:100C80005D14B0915E140DB60D920EB60D920E94D9
:100C90001D12A0915D14B0915E14CD91CDBFDD9178
:100CA000DEBFFF91EF91DF91CF91BF91AF919F9107
:100CB0008F917F916F915F914F913F912F911F91F4
:100CC0000F91FF90EF90DF90CF90BF90AF909F90EB
:100CD0008F907F906F905F904F903F902F901F90DC
:100CE0000F900CBE0F900BBE0F900FBE0F9008958B
:100CF0000F920FB6F8940F920BB60F920CB60F929C
:100D00001F9211242F923F924F925F926F927F9287
:100D10008F929F92AF92BF92CF92DF92EF92FF920B
:100D20000F931F932F933F934F935F936F937F93F3
:100D30008F939F93AF93BF93CF93DF93EF93FF93E3
:100D4000A0915D14B0915E140DB60D920EB60D9289
:100D500013BE0E94950F81110E941D12A0915D1477
:100D6000B0915E14CD91CDBFDD91DEBFFF91EF91CB
:100D7000DF91CF91BF91AF919F918F917F916F91B3
:100D80005F914F913F912F911F910F91FF90EF90A5
:100D9000DF90CF90BF90AF909F908F907F906F909B
:100DA0005F904F903F902F901F900F900CBE0F9030
:100DB0000BBE0F900FBE0F9008959ADF18950FB6D7
:100DC000F8940F92FC01868D811102C081E001C070
:100DD00080E00F900FBE08950FB6F8940F92FC01BB
:100DE000268D878D281302C081E001C080E00F901E
:100DF0000FBE08950F931F93CF93DF93EC01042F41
:100E00001E8D48A141110CC088819981892B09F060
:100E100042C08C819D810E9412151D821C8242C09D
:100E2000011117C050E08A819B810E94173328A1CD
:100E30008A819B81820F911D9B838A832C813D81B6
:100E40008217930750F1888199819B838A8380E080
:100E500029C050E08E819F810E94173388A190E0C5
:100E60009195819591092E813F81280F391F3F83EC
:100E70002E83488159812417350730F42C813D8118
:100E8000820F931F9F838E83023049F4112349F010
:100E9000115080E007C080E005C080E003C080E022
:100EA00001C080E01F5F1E8FDF91CF911F910F91D6
:100EB0000895FC0140A14423A9F050E02681378128
:100EC000240F351F3783268384819581281739079E
:100ED00020F08081918197838683CB016681778121
:100EE0000C94173308951F93CF93DF93EC010FB643
:100EF000F8940F921AA10BC08B89882351F0CE0170
:100F000043960E94251381110E94FB141150111663
:100F10009CF38FEF8AA30F900FBE0FB6F8940F9239
:100F200019A10BC08885882351F0CE0108960E9434
:100F3000251381110E94FB14115011169CF38FEFA1
:100F400089A30F900FBEDF91CF911F910895CF938A
:100F5000DF93EC010FB6F8940F92E881F9818F8D41
:100F600028A190E030E0829FA001839F500D929FC6
:100F7000500D11244E0F5F1F5D834C831E8EFB832B
:100F8000EA830197289FA001299F500D389F500D9B
:100F90001124CF01840F951F9F838E838FEF89A328
:100FA0008AA361110BC08885882371F0CE01089651
:100FB0000E942513882341F03ADE06C0CE01089630
:100FC00068DDCE01439665DD0F900FBE81E0DF91B5
:100FD000CF9108950F931F93F801611103C01183FE
:100FE000008302C051834083878F60A361E0CF01FB
:100FF000AEDF1F910F910895DF92EF92FF920F9352
:101000001F93CF93DF93F82EE62ED42E869FC00138
:101010001124839658DCEC01009741F08C012D2DB2
:10102000AC014D5D5F4F6E2D8F2DD4DFCE01DF9172
:10103000CF911F910F91FF90EF90DF900895CF9285
:10104000DF92EF92FF920F931F93CF93DF93CDB771
:10105000DEB729970FB6F894DEBF0FBECDBF7C0177
:101060006B012E833F834887598710E00FB6F894B1
:101070000F92F701968D878D981710F00230B1F41A
:10108000402FB601C701B6DEF7019389992341F0DD
:10109000C70143960E942513882321F0C8DD02C0B2
:1010A0008111C5DD0F900FBE81E04CC08E819F8104
:1010B000A885B985892B8A2B8B2B21F40F900FBE25
:1010C00080E040C0111105C0CE0101960E94841439
:1010D00011E00F900FBE15D70FB6F8940F92F701DD
:1010E00081A18F3F09F411A2F70182A18F3F09F47A
:1010F00012A20F900FBEBE016A5F7F4FCE01019614
:101100000E949514811119C0C70166DE882381F001
:101110004E815F8168857985C70108960E94821299
:10112000C701E1DE0E94C1108111A0CF80DD9ECFFA
:10113000C701D9DE0E94C11099CFC701D4DE0E9439
:10114000C11080E029960FB6F894DEBF0FBECDBF68
:10115000DF91CF911F910F91FF90EF90DF90CF9093
:1011600008950F93009769F0FC0115821482118293
:101170001082168200E020E030E0A90160E070E01B
:101180005EDF0F910895CF93DF93482F60E081E0F9
:1011900033DFEC01E6DFCE01DF91CF910895EF92CE
:1011A000FF920F931F93CF93DF938A01FC01568D1B
:1011B000378D531710F02230F9F4422F7801EC01EB
:1011C0001AA18E8DCE0116DE1F3F81F48B898823F4
:1011D000A9F0CE0143960E942513882389F0E114DB
:1011E000F10481F081E0F70180830DC0FF24F394C6
:1011F000F10EFAA281E007C080E005C081E003C0E3
:1012000081E001C081E0DF91CF911F910F91FF90AC
:10121000EF900895CF92DF92EF92FF920F931F937A
:10122000CF93DF93CDB7DEB729970FB6F894DEBF23
:101230000FBECDBF8C016B012E833F83488759873A
:10124000E12C0FB6F8940F92F801F68CFF2099F07C
:10125000B601C8012EDEFA94F801F68E8085882347
:1012600031F0C80108960E9425138111E0DC0F902F
:101270000FBE81E04FC08E819F81A885B985892BE3
:101280008A2B8B2B21F40F900FBE80E043C0E1101E
:1012900006C0CE0101960E948414EE24E3940F90C0
:1012A0000FBE2FD60FB6F8940F92F80181A18F3F91
:1012B00009F411A2F80182A18F3F09F412A20F9044
:1012C0000FBEBE016A5F7F4FCE0101960E9495144A
:1012D000811117C0C80173DD882379F04E815F81C9
:1012E00068857985C80143960E948212C801FBDD9A
:1012F00048D78111A6CF9BDCA4CFC801F4DD41D72C
:10130000A0CFC801F0DD3DD7C80159DD882309F41D
:1013100098CF80E029960FB6F894DEBF0FBECDBF00
:10132000DF91CF911F910F91FF90EF90DF90CF90C1
:101330000895CF93DF93EC010FB6F8940F9289A133
:101340008F3F09F419A28AA18F3F09F41AA20F90C6
:101350000FBE8E8D811104C0CE0143960E94E31210
:10136000CE01C1DDDF91CF910895FC01448155810B
:1013700022813381240F351F80819181B901681B3F
:10138000790BCB016417750710F0841B950B08953A
:101390000F93FC018FE0DF011D928A95E9F77587B5
:1013A0006487558344833783268306870F91089586
:1013B000AF92BF92CF92DF92EF92FF920F931F9363
:1013C000CF93DF936C015B017A01FC01C281D38171
:1013D000048115810C1B1D0B4017510708F48A016D
:1013E000F60184859585A801B5018C0F9D1F0E948B
:1013F00017330E151F0558F4A701401B510BB501FB
:10140000600F711FF601848595850E941733CE0108
:101410008E0D9F1DF601248135818217930710F0F0
:10142000821B930BF60193838283C701DF91CF91D7
:101430001F910F91FF90EF90DF90CF90BF90AF90F2
:101440000895CF92DF92EF92FF920F931F93CF9365
:10145000DF931F921F92CDB7DEB77C016B015A83D9
:10146000498321153105C1F0FC01868580FD08C046
:101470004217530708F49A013A83298381E00FC089
:101480002017310758F042E050E0BE016F5F7F4FF8
:10149000C7018EDF81E003C080E001C080E08823C7
:1014A00031F049815A81B601C70182DF02C080E074
:1014B00090E00F900F90DF91CF911F910F91FF90CF
:1014C000EF90DF90CF900895AF92BF92CF92DF92CE
:1014D000EF92FF920F931F93CF93DF937C015B01F9
:1014E000E9014217530708F4EA01209781F1F70157
:1014F0000081118184819581801B910B6E018C1775
:101500009D0708F46C01F70164857585600F711FF4
:10151000A601C5010E941733CC16DD0658F4AE01B2
:101520004C195D09F70164857585C5018C0D9D1DFC
:101530000E9417330C0F1D1FF70184819581081736
:10154000190710F0081B190BF70111830083CE0156
:10155000DF91CF911F910F91FF90EF90DF90CF908F
:10156000BF90AF9008956F927F928F929F92AF92AB
:10157000BF92CF92DF92EF92FF920F931F93CF9380
:10158000DF931F921F92CDB7DEB76C014B015A015A
:10159000790101151105B1F0FC0160807180A8018D
:1015A000BE016F5F7F4F90DF89819A81E01AF10A57
:1015B000A816B90630F4F60171826082A12CB12C14
:1015C00001C05C019701A501B401C6017DDF0F9048
:1015D0000F90DF91CF911F910F91FF90EF90DF90CF
:1015E000CF90BF90AF909F908F907F906F90089515
:1015F000CF92DF92EF92FF920F93CF93DF93EC01A4
:101600006B01413011F401E001C000E0C114D104CC
:1016100019F4CC24C394D12CCE014096C817D90715
:1016200020F4219650D97C0102C0E12CF12CE11468
:10163000F10439F09601AE01B701615F7F4FC70138
:10164000A7DEC701DF91CF910F91FF90EF90DF9060
:10165000CF9008950F930FB6F8940F92FC01208558
:101660003185232B71F422853385232B61F4268168
:1016700037814481558164857585068589DE81E0E1
:1016800003C080E001C080E00F900FBE0F9108956D
:10169000FC012481358180819181820F931F4281D9
:1016A0005381841B950B01978217930710F0821BBF
:1016B000930B08952F923F924F925F926F927F9279
:1016C0008F929F92AF92BF92CF92DF92EF92FF9252
:1016D0000F931F93CF93DF93CDB7DEB72B970FB642
:1016E000F894DEBF0FBECDBF4C017B876A871A011D
:1016F0000E831F8328873987FC0184819581019798
:10170000268520FF0CC02A01F2E04F0E511C8415E3
:10171000950558F41E821F821886198606C0841704
:10172000950710F02A0101C02C018E819F81A885A8
:10173000B985892B8A2B8B2B09F438C0CE010196F1
:101740000E946E140FB6F8940F92C401A1DF3C0101
:101750008415950540F560E080E090E00E94571800
:101760000E94FF14F401938782870F900FBEAE8012
:10177000BF80C884D984E12CF12C00E010E09801EE
:1017800040E050E0BA0180E00E949715F401138612
:101790001286BE016A5F7F4FCE0101960E949514AA
:1017A000882381F205C00F900FBE02C0612C712CFE
:1017B0006114710419F4C4016BDF3C0182019301CF
:1017C000A1016A857B85C4013CDE6C01892BE9F0AF
:1017D000C401CBDDF4012681378182179307A8F07D
:1017E00090D3F40180859185892B71F08085918556
:1017F000E12CF12C00E020E030E0A90160E00E9443
:101800003E16F40111861086BCD4C6012B960FB685
:10181000F894DEBF0FBECDBFDF91CF911F910F9126
:10182000FF90EF90DF90CF90BF90AF909F908F9000
:101830007F906F905F904F903F902F900895AF9260
:10184000BF92CF92DF92EF92FF920F931F93CF93AD
:10185000DF93EC017B015A0169018E8580FF04C092
:101860008A010E5F1F4F01C08A01CE0111DF9C016A
:10187000A501B701CE01E5DD5C01892BC1F0CE01E8
:1018800074DD2E813F818217930788F088859985C2
:10189000892B69F088859985E12CF12C00E020E006
:1018A00030E0A90160E00E94351719861886C5014D
:1018B000DF91CF911F910F91FF90EF90DF90CF902C
:1018C000BF90AF9008954F925F926F927F928F92E8
:1018D0009F92AF92BF92CF92DF92EF92FF920F93BF
:1018E0001F93CF93DF93EC012B013A01580169015B
:1018F0008E8580FF05C06894882481F8912C02C0F1
:10190000812C912CA114B104C104D10441F10FB672
:10191000F8940F92CE0129DD7C018816990648F0D3
:1019200060E080E090E00E9457180E94FF149987C1
:1019300088870F900FBE8E149F04A0F0E12CF12C2D
:1019400000E010E0980140E050E0BA0180E00E9421
:10195000971519861886CE0108DD7C0103C0CE01DB
:1019600004DD7C018E149F04E8F484019701A30137
:10197000B201CE01F8DD6C01892BB1F0C2D28A85AB
:101980009B85892B69F08A859B85E12CF12C00E0F1
:1019900020E030E0A90160E00E943E161B861A8616
:1019A000F0D302C0C12CD12CC601DF91CF911F9181
:1019B0000F91FF90EF90DF90CF90BF90AF909F90EE
:1019C0008F907F906F905F904F900895E091D71324
:1019D000F091D813808181110CC08FEF9FEFDC0153
:1019E0008093A1139093A213A093A313B093A41375
:1019F0000895E091D713F091D8130780F085E02D7A
:101A000080819181A281B3818093A1139093A213CD
:101A1000A093A313B093A4130895CF93DF93EC0185
:101A20008B8D9C8D0E940C05CE010E940C05DF91D0
:101A3000CF9108954F925F926F927F928F929F9273
:101A4000AF92BF92CF92DF92EF92FF920F93CF931C
:101A5000DF932C015B014A013901E60165EA70E080
:101A60008B8D9C8D0E9420338B8D9C8D21E0821A62
:101A70009108880E991EA114B10489F415C0822F13
:101A800090E0F501E80FF91F3081DE01A80FB91FC2
:101A90005D963C938081882329F02F5F01C020E070
:101AA000203168F31CA601C01D8E0A3008F009E041
:101AB0000A8F0DA71EA6CE0102960E945A05CE01DE
:101AC0000E960E945A05DB87CA878AE090E0A0E064
:101AD000B0E0801B9109A109B1098E879F87A88B6F
:101AE000B98BDF8BCE8B84E0FE01BF96DF011D92A8
:101AF0008A95E9F71BAAA301B201C4014FD89983C3
:101B00008883E114F10419F0F701D183C083DF91D8
:101B1000CF910F91FF90EF90DF90CF90BF90AF905B
:101B20009F908F907F906F905F904F900895CF938C
:101B3000C0E009C02BE0C29FC001112481519C4E1E
:101B40000E944905CF5FCA30A8F384EE93E10E945A
:101B5000490589ED93E10E9449058AEC93E10E94D1
:101B600049058FEB93E10E94490583EB93E10E94C5
:101B7000490584EE93E19093D8138093D71389EDB0
:101B800093E19093D6138093D513CF910895CF937B
:101B9000DF93EC010FB6F8940F928091B2138F5F30
:101BA0008093B21380915D1490915E14892B51F44F
:101BB000D0935E14C0935D148091B213813091F480
:101BC000B6DF10C08091AC1381110CC0E0915D14A0
:101BD000F0915E14928D8A8D891720F0D0935E1457
:101BE000C0935D148091A5138F5F8093A513EA8D38
:101BF0008091AD138E1710F4E093AD138BE08E9FA0
:101C0000F0011124E151FC4E0180F281E02DFF83AF
:101C1000EE832681378139872887A681B7819E0187
:101C20002E5F3F4F15963C932E9314973783268350
:101C3000EA8D8E9FF0011124E151FC4EFD87EC8767
:101C400080818F5F80830F900FBE8091AC138823BB
:101C500051F0E0915D14F0915E14928D8A8D981789
:101C600010F40E941706DF91CF910895CF93DF9370
:101C70001BC00FB6F8940F92E091C613F091C713F2
:101C8000C085D185CE0102960E949B058091B2133A
:101C900081508093B2138091BE1381508093BE1304
:101CA0000F900FBECE01B9DE8091BE138111E1CF3E
:101CB000DF91CF9108958F929F92AF92BF92CF9272
:101CC000DF92EF92FF92CF93DF936B017C01C42FE1
:101CD0008090AE139090AF13A090B013B090B1135A
:101CE00080915D1490915E1402960E949B058FEF87
:101CF000C816D806E806F806B1F5CC23A1F1E3EB47
:101D0000F3E1A181B281C0915D14D0915E14BF83D3
:101D1000AE83C0915D14D0915E1416968D919C9106
:101D20001797998788871696CD91DC9117978091A0
:101D30005D1490915E1402969D838C8380915D1456
:101D400090915E14029617969C938E931697A0918D
:101D50005D14B0915E141D96FC93EE931C978081E8
:101D60008F5F80833FC0C80CD91CEA1CFB1CE0912C
:101D70005D14F0915E14C282D382E482F582C814AD
:101D8000D904EA04FB0468F460915D1470915E1458
:101D90008091D5139091D6136E5F7F4F0E945E05A0
:101DA00021C060915D1470915E148091D713909161
:101DB000D8136E5F7F4F0E945E058091A1139091B2
:101DC000A213A091A313B091A413C816D906EA06D2
:101DD000FB0640F4C092A113D092A213E092A31389
:101DE000F092A413DF91CF91FF90EF90DF90CF900E
:101DF000BF90AF909F908F9008952F923F924F92F7
:101E00005F926F927F928F929F92AF92BF92CF928A
:101E1000DF92EF92FF920F93CF93DF933C011B0170
:101E20004A012901CA010E9463046C01892B71F0E7
:101E300084E390E00E946304EC01892B19F0DC8EAE
:101E4000CB8E06C0C6010E940C0502C0C0E0D0E0E7
:101E5000209761F0A12CB12C6E019201A401B10177
:101E6000C301E8DDCE0193DE81E001C08FEFDF9199
:101E7000CF910F91FF90EF90DF90CF90BF90AF90F8
:101E80009F908F907F906F905F904F903F902F909A
:101E90000895EF92FF920F930F2EFFE9EF2EF3E1DB
:101EA000FF2EF02D00E020E030E040EC50E06CED43
:101EB00072E08EE491E0A1DF813011F40E94FB1802
:101EC0008130C9F4F8948FEF9FEFDC018093A11368
:101ED0009093A213A093A313B093A41381E08093D3
:101EE000AC131092AE131092AF131092B013109265
:101EF000B1130E94E505809106020F91FF90EF90CB
:101F0000089580919E138F5F80939E1308950FB65E
:101F1000F8940F926091AE137091AF138091B0134B
:101F20009091B1130F900FBE0895CF92DF92EF9270
:101F3000FF92CF93DF9380919E13811105C1C090D2
:101F4000AE13D090AF13E090B013F090B1138FEFB9
:101F5000C81AD80AE80AF80AC092AE13D092AF1392
:101F6000E092B013F092B113C114D104E104F10472
:101F7000B1F48091D7139091D8132091D51330915B
:101F8000D6133093D8132093D7139093D6138093FE
:101F9000D5138091A6138F5F8093A61317DD8091D0
:101FA000A1139091A213A091A313B091A413C816EA
:101FB000D906EA06FB0620F480E0B2C081E001C049
:101FC00080E0E091D713F091D813908191110CC06B
:101FD0004FEF5FEFBA014093A1135093A2136093A8
:101FE000A3137093A4139CC0E091D713F091D8135E
:101FF0000780F085E02D0084F185E02D428153813A
:1020000064817581C416D506E606F70648F4409348
:10201000A1135093A2136093A3137093A41380C0D1
:10202000A485B585C681D781208531853F832E83E0
:10203000C085D185268137813D832C8311964D91B2
:102040005C9112979F012E5F3F4F4217530731F467
:102050004085518512965C934E9311971586148690
:102060009C9191509C93A08DB18D109709F1C289DC
:10207000D389448955895F834E83C489D589428930
:1020800053895D834C8311966D917C911297AF01BA
:10209000425F5F4F6417750731F444895589129682
:1020A0005C934E931197118E108E9C9191509C933E
:1020B000A28D9091AD139A1710F4A093AD139BE0ED
:1020C0009A9FD0011124A151BC4E11960D90BC9144
:1020D000A02DB783A68316964D915C9117975187D3
:1020E00040871696CD91DC9117973D832C831796E8
:1020F0003C932E931697A28D9A9FD0011124A15143
:10210000BC4EB587A4879C919F5F9C93228DE091E4
:102110005D14F0915E14928D291708F04FCF51CFC6
:10212000E0915D14F0915E14E28D9BE0E99FF00177
:102130001124E151FC4E9081923008F081E09091A1
:10214000A713911116C016C08091A8139091A913DE
:10215000A091AA13B091AB130196A11DB11D80935C
:10216000A8139093A913A093AA13B093AB1380E084
:1021700001C081E0DF91CF91FF90EF90DF90CF9091
:102180000895CF92DF92EF92FF92CF93DF930FB635
:10219000F8940F9280919E13815080939E138091AA
:1021A0009E138111BEC08091B213811188C0BCC042
:1021B000E091D113F091D2130084F185E02DA08D30
:1021C000B18DC289D389848995899F838E83C4897F
:1021D000D589828993899D838C8311962D913C9119
:1021E0001297CF010E962817390731F48489958903
:1021F00012969C938E931197118E108E8C91815014
:102200008C93A485B585C681D781808591859F8370
:102210008E83C085D185868197819D838C8311961D
:102220008D919C9112979F012E5F3F4F82179307CC
:1022300031F48085918512969C938E931197158623
:1022400014868C9181508C93A28D8091AD138A1746
:1022500010F4A093AD138BE08A9FD0011124A151FB
:10226000BC4E11960D90BC91A02DB783A6831696F7
:102270004D915C911797518740871696CD91DC91CF
:1022800017973D832C8317963C932E931697A28D18
:102290008A9FD0011124A151BC4EB587A4878C918F
:1022A0008F5F8C93928DA0915D14B0915E145A96BD
:1022B0008C91981730F081E08093A71302C0E0E082
:1022C000F0E08091CA13811173CFEF2B09F07EDB10
:1022D000C090A813D090A913E090AA13F090AB136C
:1022E000C114D104E104F104A1F01FDE882319F028
:1022F00081E08093A71381E0C81AD108E108F108B2
:10230000A1F71092A8131092A9131092AA13109279
:10231000AB138091A713882331F00E94170681E048
:1023200003C080E001C080E00F900FBEDF91CF912D
:10233000FF90EF90DF90CF9008958F929F92AF9291
:10234000BF92CF92DF92EF92FF921F93CF93DF93D2
:10235000EC016A017B01D5DD8090AE139090AF1344
:10236000A090B013B090B11388819981AA81BB81EC
:10237000AC01BD014C0D5D1D6E1D7F1D88169906BB
:10238000AA06BB0660F4481759076A077B0798F44A
:1023900084169506A606B70680F010E013C048170D
:1023A00059076A077B0758F084169506A606B706F4
:1023B00040F010E007C010E005C011E003C011E0DC
:1023C00001C011E0488359836A837B83112341F064
:1023D000CB01BA01681979098A099B0940E06BDCD5
:1023E000D0DE811102C00E941706812FDF91CF91AC
:1023F0001F91FF90EF90DF90CF90BF90AF909F9094
:102400008F900895CF92DF92EF92FF926B017C0143
:10241000672B682B692B39F074DD40E0C701B601EA
:102420004ADCAFDE01C080E0811102C00E941706C5
:10243000FF90EF90DF90CF90089580919E138823B6
:1024400021F081E08093A71308951092A713E091E3
:102450005D14F0915E1420813181E0915D14F09162
:102460005E14838D948D8217930760F060915D14E4
:1024700070915E14635E7F4F80915D1490915E1445
:102480000E94891B8091AD1301C08150282F30E03C
:102490009BE0929FF001939FF00D1124E151FC4EBF
:1024A0009081992391F39BE0929FA001939F500DFF
:1024B0001124DF010180F281E02D0480F581E02DFF
:1024C0001296FC93EE9311974E505C4EE417F5076D
:1024D00029F444815581FD01528341839BE0929F01
:1024E000F001939FF00D1124E151FC4E0180F28127
:1024F000E02D2085318530935E1420935D14809308
:10250000AD130895CF92DF92EF92FF926A017B01A3
:1025100060915D1470915E14625F7F4F0E945E0552
:1025200041E0C701B601C7DBFF90EF90DF90CF908D
:1025300008950F931F93CF93DF93FC01A0915D1437
:10254000B0915E1470681E964D935D936D937C936D
:102550005197A181B281C0915D14D0915E14BB8B63
:10256000AA8BC0915D14D0915E1416968D919C91AA
:1025700017979D8B8C8B1696CD91DC911797809138
:102580005D1490915E140E969D838C8380915D14F2
:1025900090915E140E9617969C938E931697A09129
:1025A0005D14B0915E145996FC93EE935897808118
:1025B0008F5F808341E0C901B8017DDBDF91CF915E
:1025C0001F910F910895CF93DF93FC01CB01BA01C6
:1025D000A181B281C0915D14D0915E14BB8BAA8B96
:1025E000C0915D14D0915E1416964D915C91179731
:1025F0005D8B4C8B1696CD91DC91179740915D14B5
:1026000050915E14425F5F4F5D834C8340915D1437
:1026100050915E14425F5F4F17965C934E931697EE
:10262000A0915D14B0915E145996FC93EE93589767
:1026300030813F5F3083222319F06FEF7FEFCB01B2
:10264000422F39DBDF91CF910895CF93DF93DC01E7
:102650001796ED91FC9118970084F185E02DA08DDF
:10266000B18DC289D389848995899F838E83C489DA
:10267000D589828993899D838C8311968D919C91B4
:1026800012979F01225F3F4F8217930731F484898D
:10269000958912969C938E931197118E108E8C9122
:1026A00081508C9380919E13811152C0A485B58571
:1026B000C681D781808591859F838E83C085D18592
:1026C000868197819D838C8311968D919C91129721
:1026D0009F012E5F3F4F8217930731F480859185CC
:1026E00012969C938E931197158614868C91815027
:1026F0008C93A28D8091AD138A1710F4A093AD1323
:102700008BE08A9FD0011124A151BC4E11960D90EF
:10271000BC91A02DB783A68316964D915C91179717
:10272000518740871696CD91DC9117973D832C8376
:1027300017963C932E931697A28D8A9FD001112451
:10274000A151BC4EB587A4878C918F5F8C931CC020
:102750004AEC53E1DA011196CD91DC911297D38BBB
:10276000C28B8E819F81958B848B8E819F81DC01B2
:1027700015963C932E9314973F832E83518F408F51
:10278000DA018C918F5F8C93928DE0915D14F091C2
:102790005E14828D891720F481E08093A71301C015
:1027A00080E0DF91CF910895CF93DF93DC017068D3
:1027B0004D935D936D937C9313971896ED91FC91D7
:1027C00019971A964D915C911B9714968D919C9137
:1027D000159716962D913C911797EC013F832E8308
:1027E00016968D919C91179714962D913C91159763
:1027F000EC013D832C83EA0189819A81A817B907EE
:1028000031F416968D919C9117979A8389831B9624
:102810001C921E921A97DA018C9181508C93A48598
:10282000B585C681D781808591859F838E83C0853C
:10283000D185868197819D838C8311968D919C9102
:1028400012979F012E5F3F4F8217930731F48085C7
:10285000918512969C938E931197158614868C9170
:1028600081508C93A28D8091AD138A1710F4A093A0
:10287000AD138BE08A9FD0011124A151BC4E11965B
:102880000D90BC91A02DB783A68316964D915C91B7
:102890001797518740871696CD91DC9117973D8306
:1028A0002C8317963C932E931697A28D8A9FD00166
:1028B0001124A151BC4EB587A4878C918F5F8C9356
:1028C000928DE0915D14F0915E14828D891718F459
:1028D00081E08093A713DF91CF9108950FB6F8940C
:1028E0000F922091A613FC0120834091AE135091CA
:1028F000AF136091B0137091B1134183528363831E
:1029000074830F900FBE08952091A613FC012083BD
:102910004091AE135091AF136091B0137091B11309
:10292000418352836383748308958F929F92AF9201
:10293000BF92CF92DF92EF92FF920F931F93CF93AC
:10294000DF93FB010FB6F8940F92C090AE13D090B6
:10295000AF13E090B013F090B113DC0111960D911C
:102960001D912D913C91149746015701801A910AAF
:10297000A20AB30A40815181628173814F3FBFEF48
:102980005B076B077B0739F1EC01B881A091A613B7
:10299000BA1759F0C016D106E206F30630F01082DD
:1029A00011821282138281E017C084169506A60652
:1029B000B70658F4481959096A097B0940835183BD
:1029C00062837383A1DF80E007C0108211821282CC
:1029D000138281E001C080E00F900FBEDF91CF91A4
:1029E0001F910F91FF90EF90DF90CF90BF90AF902D
:1029F0009F908F90089581E08093A7130895809110
:102A00005D1490915E1408958091AC13882331F089
:102A100080919E13811104C082E0089581E00895A1
:102A200080E008950F931F93CF93DF93FC01892BD0
:102A300009F449C086A5815086A7228D95A529173E
:102A400009F443C0811143C0EF018F010E5F1F4F96
:102A5000C8010E949B05EDA5EA8F8AE090E0A0E006
:102A6000B0E08E1B9109A109B1098E879F87A88BC1
:102A7000B98B8091AD138E1710F4E093AD138BE0FA
:102A80008E9FF0011124E151FC4E0180F281E02D76
:102A9000FF83EE832681378139872887A681B78116
:102AA00015961C930E93149717830683EA8D8E9FB9
:102AB000F0011124E151FC4EFD87EC8780818F5F8E
:102AC000808381E005C080E003C080E001C080E039
:102AD000DF91CF911F910F910895CF92DF92EF92E6
:102AE000FF92E0915D14F0915E1466857785808990
:102AF0009189E0915D14F0915E14A0915D14B09104
:102B00005E145A962C910F2EFAE0CF2ED12CE12C88
:102B1000F12CF02DC21AD108E108F108C686D7863B
:102B2000E08AF18AFF90EF90DF90CF9008954F9266
:102B30005F926F927F92AF92BF92CF92DF92EF92AD
:102B4000FF920F931F93CF93DF93280139010FB6A4
:102B5000F8940F92E0915D14F0915E14C82FD0E0CC
:102B6000EC0FFD1F83A9823071F1E0915D14F091AB
:102B70005E14CE01880F991F880F991FE80FF91F67
:102B800087A590A9A1A9B2A9409550956095709587
:102B9000482359236A237B2347A750AB61AB72AB11
:102BA000E0915D14F0915E14EC0FFD1F81E083ABAA
:102BB000A114B104C104D10431F041E0C601B50152
:102BC0007AD80E9417060F900FBE0FB6F8940F9296
:102BD000E114F104A1F0E0915D14F0915E14CE01D6
:102BE000880F991F880F991FE80FF91F87A590A9D3
:102BF000A1A9B2A9F70180839183A283B383E09155
:102C00005D14F0915E14EC0FFD1F83A98230E9F48E
:102C1000E0915D14F0915E14CE01880F991F880F2A
:102C2000991FE80FF91F87A590A9A1A9B2A94094FF
:102C3000509460947094482259226A227B2247A6BD
:102C400050AA61AA72AA81E001C080E020915D14BF
:102C500030915E14C20FD31F1BAA0F900FBEDF91DD
:102C6000CF911F910F91FF90EF90DF90CF90BF9089
:102C7000AF907F906F905F904F9008958F929F924A
:102C8000AF92BF92EF92FF920F93CF93DF93DC014D
:102C90000FB6F8940F92E114F10489F0E62FF0E0FA
:102CA000EE0FFF1FEE0FFF1FE80FF91F87A490A87C
:102CB000A1A8B2A8F70180829182A282B38270E0BB
:102CC000FD01E60FF71F83A992E093AB023001F1FB
:102CD00018F4013031F04DC0033079F10430D1F1F6
:102CE00048C0660F771F660F771FFD01E60FF71FBD
:102CF00087A490A8A1A8B2A8BA01A9014829592976
:102D00006A297B2947A750AB61AB72AB01E034C0A5
:102D1000660F771F660F771FFD01E60FF71F47A5A8
:102D200050A961A972A94F5F5F4F6F4F7F4F47A7AF
:102D300050AB61AB72AB01E01FC0660F771F660F2F
:102D4000771FFD01E60FF71F27A730AB41AB52AB52
:102D500001E012C0823079F0660F771F660F771F8F
:102D6000FD01E60FF71F27A730AB41AB52AB01E0E7
:102D700003C001E001C000E0813009F069C01C9689
:102D8000ED91FC911D971696CD91DC9117971896B1
:102D90008D919C9119979F838E831896CD91DC918C
:102DA000199716968D919C9117979D838C8381819D
:102DB00092819D012E5F3F4F8217930731F4189641
:102DC0008D919C911997928381831D961C921E92DE
:102DD0001C978081815080835A96EC915A978091FC
:102DE000AD138E1710F4E093AD138BE08E9FF001BE
:102DF0001124E151FC4E0180F281E02D1796FC93E5
:102E0000EE9316974681578119965C934E931897C7
:102E1000C681D7813D832C83378326835A96EC91D4
:102E20005A978E9FF0011124E151FC4E1D96FC93A0
:102E3000EE931C9780818F5F80835A969C91E091DE
:102E40005D14F0915E14828D891710F40E941706AC
:102E50000F900FBE802FDF91CF910F91FF90EF90D9
:102E6000BF90AF909F908F9008958F929F92AF9256
:102E7000BF92CF92DF92EF92FF920F93CF93DF93A7
:102E8000DC01E114F10489F0E62FF0E0EE0FFF1F02
:102E9000EE0FFF1FE80FF91F87A490A8A1A8B2A802
:102EA000F70180829182A282B38270E0FD01E60F79
:102EB000F71F93A982E083AB023001F118F40130CF
:102EC00031F04DC0033079F10430D1F148C0660FC4
:102ED000771F660F771FFD01E60FF71F87A490A8E5
:102EE000A1A8B2A8BA01A901482959296A297B29B0
:102EF00047A750AB61AB72AB81E034C0660F771F60
:102F0000660F771FFD01E60FF71F47A550A961A9BE
:102F100072A94F5F5F4F6F4F7F4F47A750AB61ABB9
:102F200072AB81E01FC0660F771F660F771FFD0130
:102F3000E60FF71F27A730AB41AB52AB81E012C0C1
:102F4000923079F0660F771F660F771FFD01E60F4D
:102F5000F71F27A730AB41AB52AB81E003C081E044
:102F600001C080E0913009F096C090919E139111BC
:102F70005FC01C96ED91FC911D971696CD91DC914A
:102F8000179718962D913C9119973F832E83189689
:102F9000CD91DC91199716962D913C9117973D8311
:102FA0002C83418152819D012E5F3F4F4217530771
:102FB00031F418964D915C911997528341831D9677
:102FC0001C921E921C979081915090835A96EC917E
:102FD0005A979091AD139E1710F4E093AD139BE0B8
:102FE0009E9FF0011124E151FC4E0180F281E02D01
:102FF0001796FC93EE9316974681578119965C932A
:103000004E931897C681D7813D832C8337832683BF
:103010005A96EC915A979E9FF0011124E151FC4E73
:103020001D96FC93EE931C9790819F5F908321C027
:103030006AEC73E1FB01C181D2815396DC93CE939C
:1030400052972E813F8155963C932E9354974E81F3
:103050005F819D01225F3F4FFA01358324833F83C7
:103060002E8359967C936E935897FB0190819F5FB6
:1030700090835A962C91E0915D14F0915E14928D9C
:10308000921748F4C114D10419F091E0F60190832D
:1030900091E09093A713DF91CF910F91FF90EF9064
:1030A000DF90CF90BF90AF909F908F900895009742
:1030B00021F480915D1490915E140FB6F8940F92F4
:1030C00070E0FC01E60FF71F23A9223031F4FC0168
:1030D000E60FF71F13AA81E001C080E00F900FBE3A
:1030E0000895DC01E0916914F0916A14808191E007
:1030F000811190E09C93911108C00780F085E02D2C
:103100006081718182819381089560E070E0CB01DC
:103110000895CF92DF92EF92FF920F931F93FC01DD
:1031200042835383648375839387828704171507CB
:1031300026073707C0F00C191D092E093F0986859F
:103140009785A089B189081719072A073B0700F559
:10315000BF016E5F7F4F80916714909168140E9449
:103160005E0580E018C00C151D052E053F0528F4EE
:103170004C155D056E057F0568F4BF016E5F7F4FDE
:103180008091691490916A140E945E0580E003C0EA
:1031900081E001C081E01F910F91FF90EF90DF90DF
:1031A000CF9008950FB6F8940F9280916514909186
:1031B0006614892BE9F486E794E10E9449058BE6C1
:1031C00094E10E94490586E794E190936A14809304
:1031D00069148BE694E1909368148093671440E03F
:1031E00067E08AE00E94FC07909366148093651460
:1031F0000F900FBE0895EF92FF920F93D3DF80914F
:10320000651490916614892B91F00F2EF3E6EF2E42
:10321000F4E1FF2EF02D03E020E030E040EC50E040
:1032200061EE72E088E591E00E94FD0E01C080E051
:103230000F91FF90EF9008958F929F92AF92BF925F
:10324000CF92DF92EF92FF920F931F93CF93DF9372
:10325000CDB7DEB727970FB6F894DEBF0FBECDBF50
:10326000E0916514F0916614309781F169832A83A7
:103270003B834C835D839F838E836630F4F4C4DB91
:10328000823069F400E0A7019601BE016F5F7F4FB5
:1032900080916514909166140E941F0818C000E088
:1032A00020E030E0A901BE016F5F7F4F809165147F
:1032B000909166140E941F080AC020E0A801BE0178
:1032C0006F5F7F4FCF010E94CF0801C080E027963B
:1032D0000FB6F894DEBF0FBECDBFDF91CF911F9127
:1032E0000F91FF90EF90DF90CF90BF90AF909F90A5
:1032F0008F9008958F929F92AF92BF92CF92DF925C
:10330000EF92FF920F931F93CF93DF933BC0078001
:10331000F085E02D80809180A280B380C085D1852A
:103320008E010E5F1F4FC8010E949B05EC89FD892D
:10333000CE0119958E8982FF25C08E859F85A8892B
:10334000B989880D991DAA1DBB1D88169906AA0664
:10335000BB0670F48A839B83AC83BD83DB87CA87FB
:10336000B8018091691490916A140E945E050AC0A8
:10337000C12CD12C760100E010E0A501940160E0A1
:10338000CE015ADFE0916914F0916A1480818111B5
:10339000BECF809167149091681490936A148093C3
:1033A0006914F0936814E0936714DF91CF911F9133
:1033B0000F91FF90EF90DF90CF90BF90AF909F90D4
:1033C0008F900895CF92DF92EF92FF92CF93DF9389
:1033D000EC010E94870F6B017C0180915F1490913A
:1033E0006014A0916114B0916214C816D906EA065F
:1033F000FB0620F47FDF81E0888301C01882C09241
:103400005F14D0926014E0926114F0926214C701CC
:10341000B601DF91CF91FF90EF90DF90CF900895AC
:103420004F925F926F927F928F929F92AF92BF92D4
:10343000CF92DF92EF92FF920F931F93CF93DF9380
:103440004B015C0129013A01E0916914F0916A1481
:103450000780F085E02DC085D185CE0102960E94BF
:103460009B058E8982FF1BC04E855F85688979899F
:10347000480D591D6A1D7B1D750164019301820170
:10348000CE0147DE882369F0C12CD12C760100E003
:1034900010E0A501940160E0CE01CEDE02C08E7F77
:1034A0008E8BEC89FD89CE011995DF91CF911F910B
:1034B0000F91FF90EF90DF90CF90BF90AF909F90D3
:1034C0008F907F906F905F904F9008958F929F9212
:1034D000AF92BF92CF92DF92EF92FF921F93CF9362
:1034E000DF931F92CDB7DEB76B017C01142F0E94D2
:1034F000810FCE01019666DF4B015C01898181114C
:103500002DC011110DC08C149D04AE04BF0440F0F9
:103510000E94C110A5019401C701B60181DF20C03E
:10352000112341F0E0916714F0916814808111E05B
:10353000811110E0B701A601481959096A097B09F0
:10354000212F80916514909166140E9499090E9420
:10355000C110811105C00E94170602C00E94C1104F
:103560000F90DF91CF911F91FF90EF90DF90CF9060
:10357000BF90AF909F908F900895AF92BF92CF92DF
:10358000DF92EF92FF920F931F93CF93DF93CDB70C
:10359000DEB728970FB6F894DEBF0FBECDBF82C04E
:1035A000898188230CF47EC0AE80BF80D5011C9633
:1035B0008D919C911D97892B21F0C50102960E9447
:1035C0009B05CE010896FEDE8B019C01E9810E2E43
:1035D000000CFF0BEA30F10508F064C08827EE58B4
:1035E000FF4F8F4F0C94CA30F50186898160868B1E
:1035F000CA80DB80EC80FD804685578560897189B3
:103600004C0D5D1D6E1D7F1DC50183DD882309F4F2
:1036100049C0D5015496ED91FC915597C501199576
:10362000F501868982FF3EC04A815B816C817D8184
:1036300086859785A089B1899A01AB01280F391F2A
:103640004A1F5B1FC12CD12C760100E010E060E026
:10365000C501F2DD27C0D50156968C9156978E7F15
:1036600056968C931FC0F50186898160868B4A81AE
:103670005B816C817D8146875787608B718B400FA2
:10368000511F621F731F68017901C50142DD0AC025
:10369000F501868981FD04C0C5010E940C0502C0A8
:1036A0008E7F868B20E030E0A901BE016F5F7F4FE7
:1036B00080916514909166140E940A09811170CF5F
:1036C00028960FB6F894DEBF0FBECDBFDF91CF9125
:1036D0001F910F91FF90EF90DF90CF90BF90AF9030
:1036E0000895089584B1806884B985B1806885B9EA
:1036F000089583B1806883B90895F4DF2FEF80E7E0
:1037000092E0215080409040E1F700C00000F1DFDE
:10371000F5CFE8DF2FEF87EA91E621508040904017
:10372000E1F700C00000E5DFF5CFEF92FF920F93C5
:10373000082F80D2811106C01F921F920E94BD33B4
:103740000F900F90E12CF12C20E030E040EC50E0A5
:1037500069EE72E082ED9BE10E94FD0E0F91FF90F9
:10376000EF9008952091831430918414ADECBCEC5B
:103770000E94D230969587959695879596958795D0
:10378000089580918114909182146AE070E00E9403
:103790009530CB01089540E150E060E070E00C947A
:1037A00062030895CF93DF9300D01F92CDB7DEB7A9
:1037B00084EF92E09F938F930E94BD330E94870F06
:1037C00069837A838B839C830F900F9048EA58E437
:1037D00060E070E0CE0101960E949D118BEF92E0B7
:1037E0009F938F930E94BD333DD20F900F90811114
:1037F000EDCF82E093E09F938F930E94BD3362E30D
:1038000070E080E090E00E94021241D20F900F9091
:103810008111DCCF89E093E09F938F930E94BD33A9
:1038200061E070E080E090E00E94021256D2909336
:1038300084148093831477D290938214809381149C
:1038400080E193E09F938F930E94BD330E94890192
:10385000A2DF0F900F900F900F90B8CF0F93809131
:103860007D1690917E16892B89F481E00E94C30811
:1038700090937E1680937D16009741F000E020E043
:1038800030E0A90160E070E00E941F080F910895E8
:1038900080E00E948627E2DF86E00E948D2885E096
:1038A0000E94FA0183E090E00FD784E090E00E944C
:1038B0000E0283E03ADF60E070E081E05ED382E0F8
:1038C00078D18DE193E00E94D0330E94490FFFCF61
:1038D00090939C1480939B1408959093A0148093CC
:1038E0009F14089590939E1480939D140895CF93F0
:1038F000DF93EC018FE293E09F938F930E94BD339F
:103900008091A0148F9380919F148F938FE493E004
:103910009F938F930E94BD3380919E148F938091CB
:103920009D148F938FE693E09F938F930E94BD33F6
:1039300080919C148F9380919B148F938DE893E0DA
:103940009F938F930E94BD33E5E8F4E186E0818385
:1039500082E0808380919F149091A014928383834E
:1039600080919D1490919E149483858380919B14E3
:1039700090919C149683878386E1DE0101900D92DD
:103980008A95E1F78DB79EB70E960FB6F8949EBF55
:103990000FBE8DBFCE01DF91CF910895CF93DF93FE
:1039A00081E00E94DB2837D3B3D59F938F938AEAB7
:1039B00093E09F938F930E94BD33ABD4A9D59F937F
:1039C0008F938DEB93E09F938F930E94BD3387EB92
:1039D00094E133D39DD5C7EBD4E1DF93CF939F938D
:1039E0008F9386ED93E09F938F930E94BD33CE011A
:1039F00040D38ED59F938F93DF93CF938AEE93E03E
:103A00009F938F930E94BD33AE016FEF73E080E20E
:103A100094E05DD57DD59F938F93DF93CF938FEF08
:103A200093E09F938F9380E294E09F938F9381E341
:103A300094E09F938F930E94BD334ED369D59F939B
:103A40008F9387E694E09F938F930E94BD338DB749
:103A50009EB782960FB6F8949EBF0FBE8DBF81E0D1
:103A600035D456D59F938F9386E794E09F938F9399
:103A70000E94BD3384EF91E034D44AD59F938F9355
:103A800081E08F9384EF8F9387E994E09F938F93E6
:103A90000E94BD338DB79EB70A960FB6F8949EBFAD
:103AA0000FBE8DBFCAE080E01DD3D82F31D59F93C4
:103AB0008F931F92CF9387EB94E09F938F930E94F5
:103AC000BD330F900F900F900F900F900F90D83044
:103AD00059F080E00E943F2966E371E080E090E0C9
:103AE0000E940212C150F9F6D83021F481E00E9400
:103AF000212909C081E00E94302980E00E94FE282F
:103B00000E941706FDCFDF91CF910895CF93DF93E9
:103B1000CDB7DEB76A970FB6F894DEBF0FBECDBF44
:103B200081E06BD262E070E080E090E00E940212DF
:103B300080E063D266E970E080E090E00E940212CB
:103B400015D22CDF0E94870F69837A838B839C8335
:103B500048EA58E460E070E0CE0101960E949D11B1
:103B600087ED94E09F938F930E94BD33CE0105961D
:103B7000BEDE86E1FE013596A1EAB4E101900D9228
:103B80008A95E1F783E00E94512961EA74E180E0BF
:103B9000D2D2BED49F938F9385EE94E09F938F9360
:103BA0000E94BD330F900F900F900F900F900F90C9
:103BB000CFCFEF92FF920F93E12CF12C082F20E052
:103BC00030E048E851E06AEF74E086E89DE10E9449
:103BD000FD0E0F91FF90EF9008956530F1F4FA011A
:103BE00080818F7390E0982F88272181822B90937A
:103BF0000A02809309028281F0E48F9FC0011124A0
:103C0000FA01238126952695822B909308028093B2
:103C1000070281E080931B150895643051F080E025
:103C200090E4909308028093070290930A02809395
:103C3000090208950F931F930DEE1DE120E034E279
:103C400044EF50E060E087E20E94742990931D15D4
:103C500080931C1521E0892B09F020E0822F1F9111
:103C60000F91089580911C1590911D15009759F0A2
:103C700040E060E070E00E94C529843031F4109289
:103C80001B1580E0089582E0089583E008958091F7
:103C90001C1590911D15009739F064E00E94112ABF
:103CA000853021F083E0089582E0089580E0089552
:103CB0006091090270910A0280E090E00E941B2C42
:103CC00020E030E048EC52E40E94A92C20E038EFDC
:103CD0004FE756E40C94822B0895EADF20E030E0B1
:103CE00040E251E40E94A92C0E94EF2BCB010895E1
:103CF000609107027091080280E090E00E941B2C06
:103D000020E030E045E253E40E94A92C20E038EFA7
:103D10004FE756E40E94822B20E030E040E252E47C
:103D20000C941D2B0895E4DF20E030E040E251E4E4
:103D30000E94A92C0E94EA2BCB0108950F931F9398
:103D4000CF93DF931F921F92CDB7DEB78C011982FC
:103D50002DC0E0918215EC3250F481E08E0F8093FB
:103D60008215F0E0EC54FA4E8A81808302C01092F2
:103D700082158A818A30D1F44091821550E0FA018F
:103D8000EE54FA4E1082415051099E012F5F3F4F71
:103D900064EB75E180918515909186150E941F0C4A
:103DA000898181110E94170610928215BE016E5FF3
:103DB0007F4FC80115D6882361F20F900F90DF91D5
:103DC000CF911F910F9108950F931F93CF93DF937E
:103DD0008C01EB0180918515909186150E942A0B2C
:103DE000B8018EE195E10E945733209779F0EEE11A
:103DF000F5E101900020E9F7319780E290E09183AE
:103E00008083BE018EE195E10E944C33EEE1F5E145
:103E1000DF010D900020E9F711978DE09AE01196EF
:103E20009C938E9312961C9201900020E9F7319793
:103E3000EE51F541AE2F8EE195E1AC016A2F8091F4
:103E400087159091881577D5811111C008E215E08A
:103E500020E030E04DE250E06EE076E180918515A3
:103E6000909186150E94630C8EE096E102C080E07E
:103E700090E0DF91CF911F910F9108952F923F9283
:103E80004F925F926F927F928F929F92AF92BF926A
:103E9000CF92DF92EF92FF920F931F93CF93DF9316
:103EA0005C01FC0101900020E9F731976F01C81A0D
:103EB000D90A5C2C0F2EFAE98F2EF7E09F2EF02DF9
:103EC000E12CF12C4C2C3701F40101811281E80125
:103ED00009900020E9F72197C01BD10B3C2EF9E097
:103EE000CF16D10458F0F4012080FEE02F1206C056
:103EF000B801C5010E942733892B09F5442D3514DB
:103F000008F44C2F50E0B801C5010E945E33892BA4
:103F100049F4F301EE0FFF1FE60DF71DE656F84FCB
:103F200020800DC08FEFE81AF80AE3E08E0E911C96
:103F3000F1E1EF16F10439F66894222424F8822D79
:103F4000DF91CF911F910F91FF90EF90DF90CF9075
:103F5000BF90AF909F908F907F906F905F904F90A9
:103F60003F902F90089530DF89CF08958091851577
:103F7000909186150C942A0B08958F929F92AF9280
:103F8000CF92EF920F931F93CF93C82F8B0141E0F5
:103F900060E070E088EC90E00E94F80A909386154B
:103FA0008093851510938415009383150F2EFEE9D9
:103FB0008F2EFEE19F2EF02D6894AA24A6F8689417
:103FC000CC24C6F8E12C00E023E040E051EE60E0B4
:103FD00070E08C2FE3D39093881580938715E7E0EA
:103FE000F1E0808180618083CF911F910F91EF90EC
:103FF000CF90AF909F908F900895882331F0E8E0A4
:10400000F1E080818F7E80830895E8E0F1E0808197
:1040100080618083089560E070E080E295E0D4DE06
:10402000EEE0F6E101900020E9F73197EE50F6411D
:1040300081E0759708F080E00895CF93DF93EC015D
:1040400060E070E081E395E0BFDEEEE0F6E1019034
:104050000020E9F7EF51F64139F46EE076E1CE0148
:104060000E94573380E002C0188281E0DF91CF9137
:104070000895FC0101900020E9F79F0121513109C9
:104080002817390729F4BC018FE595E06CCF089516
:1040900089E00895FC0101900020E9F79F0121517A
:1040A00031092817390729F4BC018EE695E05BCF6A
:1040B000089589E00895FC0101900020E9F79F012F
:1040C000215231092817390729F4BC018DE795E001
:1040D0004ACF089589E0089560E070E08CEB95E0A8
:1040E00042CF08950F931F93E82FF0E0EE0FFF1FCC
:1040F000EA56F84F6081718185EC95E034DF8111DB
:1041000014C008E215E020E030E04DE250E06EE03F
:1041100076E180918515909186150E94630C882325
:1041200021F08EE096E1AADE03C08EE096E1A6DEE5
:104130001F910F9108950F931F93CF93DF931F92B9
:10414000CDB7DEB7DB0111969C911197953108F040
:10415000B4C0992381F160E070E0272F30E0462F52
:1041600050E0FD01E40FF51F928192959F709A3007
:1041700010F0995C01C0905DF901E156FA4E908310
:104180002F5F3F4FFD01E40FF51F92819F70492F74
:1041900050E04A30510514F0995C01C0905DF9017E
:1041A000E156FA4E90837E5F6F5F11969C91119756
:1041B000691798F201C070E0E72FF0E0E156FA4E7F
:1041C00010824C91811103C08EEC95E002C080ED0D
:1041D00095E02FE935E13F932F931F924F939F93E3
:1041E0008F9384ED95E09F938F9381EE95E19F935C
:1041F0008F930E94003460E070E081EE95E1B3DEC1
:104200000FB6F894DEBF0FBECDBF811159C008E2D2
:1042100015E020E030E04DE250E06EE076E1809184
:104220008515909186150E94630C882309F447C078
:104230008EE096E123DE8E3009F042C087E089836C
:104240008091831590918415892BA9F1BE016F5F30
:104250007F4F8EE096E168D180938915E981F0E087
:10426000E25FF94EDF010D900020E9F71197AE1BD8
:10427000BF0BAA2391F0BB27CD0101979C0112F43B
:104280002F5F3F4F3595279520938A15AF014F5FDC
:104290005F4F64E18BE895E173D101E010E020E02D
:1042A00030E046E150E069E875E180918315909136
:1042B00084150E945A0B8EE003C084E101C080E0A7
:1042C0000F90DF91CF911F910F910895813019F0D8
:1042D00064EE75E002C06DEB76E088EE95E043CECB
:1042E00008959F938F9389E196E09F938F9381EE3A
:1042F00095E19F938F930E94003460E070E081EE1F
:1043000095E131DE0F900F900F900F900F900F906E
:1043100008952F923F924F925F926F927F928F9269
:104320009F92AF92BF92CF92DF92EF92FF920F9344
:104330001F93CF93DF93CDB7DEB7A0970FB6F89456
:10434000DEBF0FBECDBF66E476E082E596E03CDDE1
:1043500095DD8111A3C080E2E2E2F2E0DE01119678
:1043600001900D928A95E1F79E012F5F3F4F690101
:10437000E12CF12C0F2EFEE5AF2EF6E0BF2EF02D36
:1043800001EE15E10F2EF7E74F2EF6E05F2EF02D30
:104390000F2EFEE88F2EF6E09F2EF02D0F2EF8EA5E
:1043A0006F2EF6E07F2EF02D3E2C2F2CFF92EF92F9
:1043B000BF92AF921F930F930E94003460E070E0B1
:1043C000C80102DD5BDD0F900F900F900F900F90F2
:1043D0000F90811163C032E03E15E8F4F60183814D
:1043E0008F9382818F9381818F9380818F93FF92AE
:1043F000EF925F924F921F930F930E94003460E000
:1044000070E0C801E1DC3ADD0FB6F894DEBF0FBE04
:10441000CDBF811143C02F923F929F928F921F93E5
:104420000F930E94003460E070E0C801CDDC26DD0F
:104430000F900F900F900F900F900F9081112EC042
:104440002F923F927F926F921F930F930E9400349E
:1044500060E070E0C801B8DC11DD0F900F900F90A4
:104460000F900F900F90811119C03FEFE31AF30ADC
:1044700084E0C80ED11C98E0E916F10409F094CF4D
:1044800060E070E080EC96E09FDCF8DC811106C013
:1044900060E070E081ED96E097DCF0DCA0960FB66E
:1044A000F894DEBF0FBECDBFDF91CF911F910F916A
:1044B000FF90EF90DF90CF90BF90AF909F908F9044
:1044C0007F906F905F904F903F902F900895EF9264
:1044D000FF920F931F93CF93DF93EC018B017A012F
:1044E00081E0F4DE81110DC0CE01D4DD811109C05F
:1044F000C801E1DD811105C0C701BBDD811101C02B
:10450000EBDDDF91CF911F910F91FF90EF90089518
:1045100090E0FC01EE0FFF1F8E0F9F1FFC01E6567F
:10452000F84F818192810895DC01009729F1FB0108
:104530002081FC0101900020E9F73197E81BF90B7D
:10454000822F90E0E817F907C8F080E008C0880FD4
:10455000382F330F330F830F8053890F2F5FFD01E7
:10456000E20FF11D908130ED390F3A3010F49111C6
:10457000EECFFB012083089580E0089580E0089548
:104580000F931F93CF93DF93DC01EA012097E1F1B2
:10459000FA0101900020E9F73197E41BF50B3297FF
:1045A00010F532C08D01040F151F30E0AE01420F2F
:1045B000531FFA019081913428F09753592F529547
:1045C000507F03C0592F5295507F2C0F3D1FF9018A
:1045D0009181913410F0975301C09053950FF801D9
:1045E00090838F5F01C080E0282F220F482F50E07A
:1045F000FE0101900020E9F73197EC1BFD0B4E17EF
:104600005F0710F48613CECFDF91CF911F910F91EA
:10461000089580913E16860F80933E169091411624
:10462000913079F028F09230A9F0933019F1089583
:104630006F3F09F048C010923E1681E0809341160A
:104640000895663809F03FC010923D1682E08093CD
:1046500041160895E0913D1681E08E0F80933D163E
:10466000F0E0E55CF94E6083823069F583E0809389
:104670004116089590913D1621E0290F20933D1693
:10468000963009F581110EC0EBE3F6E1808190E0F0
:10469000982F88272181820F911D90934316809334
:1046A000421604C010924316109242161092411600
:1046B000E0913F16F0914016309729F08091421614
:1046C00090914316199508958F929F92AF92CF9231
:1046D000EF920F930F2EF9E08F2EF3E29F2EF02D25
:1046E0006894AA24A4F86894CC24C4F8E12C00E0CF
:1046F00023E040E855E260E070E050D0909345162A
:10470000809344160F91EF90CF90AF909F908F9031
:1047100008959093401680933F160895CF93DF93AA
:10472000CDB7DEB729970FB6F894DEBF0FBECDBF69
:1047300089E0E2E4F2E09E012F5F3F4FD901019052
:104740000D928A95E1F710924316109242168091CD
:10475000441690914516009731F0422F532F69E08F
:10476000EAD080E001C082E029960FB6F894DEBF5F
:104770000FBECDBFDF91CF910895209142163091A9
:1047800043162115310529F4FC011182108281E0C4
:104790000895FC013183208380E008952F923F9299
:1047A0004F925F926F927F928F929F92AF92CF9231
:1047B000EF92FF920F931F93CF93DF93CDB7DEB7A6
:1047C000F82E2A013B0188E090E00E940F318C0115
:1047D0008F2D90E0FC01EE0FFF1FEA5BF94E118375
:1047E00000830115110509F469C0880F991FFC01A8
:1047F000E55FFD4F80819181D8018D939C936C2D55
:1048000070E084E090E00E94F5301C0161E070E00F
:1048100086E090E00E94F5307C014C2DB101F1D68C
:10482000F801F582E4826A2D70E084E090E00E9455
:10483000F5301C0161E070E086E090E00E94F53008
:104840007C014A2DB101DDD6D8011396FC92EE927F
:10485000129717969C928E921697FFB6F894ED9148
:10486000FC91119736978081826080838D909C9017
:10487000C301B201E0D720E030E040E051E40E9403
:10488000A92C9B01AC0160E074E284E79BE43AD779
:1048900020E030E040E85FE3D0D6A1D7F4013297C2
:1048A0006083D801ED91FC911197359788E9808359
:1048B000ED91FC91349786E08083FFBEC801DF91C3
:1048C000CF911F910F91FF90EF90CF90AF909F905D
:1048D0008F907F906F905F904F903F902F900895B2
:1048E000CF93DF93DC01892B01F11296ED91FC91BE
:1048F0001397938182812581981B92238481981735
:10490000B1F0838126952823C081D181C20FD11DAA
:1049100068838F5F958189238383ED91FC9135971F
:1049200080818062808380E003C081E001C082E0FA
:10493000DF91CF910895EF92FF920F931F93CF9342
:10494000DF937C01009709F441C0DC011296ED91E0
:10495000FC91139793818281981B85819823848190
:10496000891B8617A8F1662341F1842F952FDC015E
:104970006150462F50E04F5F5F4F480F591FE701CE
:10498000EA81FB81938182812581981B9223848116
:10499000981779F08C9193812695292360817181F4
:1049A0008B01020F111DE80188839F5F8581982389
:1049B00093831196A417B50711F7D701ED91FC91D8
:1049C000359780818062808380E003C081E001C0F0
:1049D00082E0DF91CF911F910F91FF90EF900895AA
:1049E0000097D1F0DC011496ED91FC91159793811D
:1049F0008281981799F09281858186958923A0817B
:104A0000B181A80FB11D8C91DB018C939F5F8581D3
:104A10009823928380E0089581E0089583E00895CB
:104A20001F920F920FB60F9211240BB60F922F9375
:104A30003F934F935F936F937F938F939F93AF9326
:104A4000BF93CF93DF93EF93FF93A0914616B0915E
:104A50004716109711F16091C6001496ED91FC91E4
:104A60001597938182812581981B922384819817C1
:104A700061F0838126952823C081D181C20FD11D89
:104A800068838F5F9581892383831696ED91FC91CE
:104A90001797309711F0CD011995FF91EF91DF91A4
:104AA000CF91BF91AF919F918F917F916F915F91C6
:104AB0004F913F912F910F900BBE0F900FBE0F9013
:104AC0001F9018951F920F920FB60F9211240BB6DC
:104AD0000F922F938F939F93AF93BF93EF93FF9377
:104AE000E0914616F09147163097B9F00280F381B5
:104AF000E02D938182819817B1F092818581282FD2
:104B000026952923A081B181A20FB11D2C919F5F11
:104B1000892382832093C6000BC0E1ECF0E0808102
:104B20008F7D808305C0E1ECF0E080818F7D808304
:104B3000FF91EF91BF91AF919F918F912F910F9026
:104B40000BBE0F900FBE0F901F9018951F920F92E3
:104B50000FB60F9211240BB60F922F933F934F93E2
:104B60005F936F937F938F939F93AF93BF93CF93F5
:104B7000DF93EF93FF93A0914816B09149161097D9
:104B800011F16091CE001496ED91FC9115979381EF
:104B900082812581981B92238481981761F08381FB
:104BA00026952823C081D181C20FD11D68838F5FD4
:104BB0009581892383831696ED91FC911797309701
:104BC00011F0CD011995FF91EF91DF91CF91BF9138
:104BD000AF919F918F917F916F915F914F913F9195
:104BE0002F910F900BBE0F900FBE0F901F90189536
:104BF0001F920F920FB60F9211240BB60F922F93A4
:104C00008F939F93AF93BF93EF93FF93E0914816D9
:104C1000F09149163097B9F00280F381E02D93812D
:104C200082819817B1F092818581282F26952923BA
:104C3000A081B181A20FB11D2C919F5F8923828336
:104C40002093CE000BC0E9ECF0E080818F7D808363
:104C500005C0E9ECF0E080818F7D8083FF91EF91CA
:104C6000BF91AF919F918F912F910F900BBE0F909D
:104C70000FBE0F901F9018951F920F920FB60F92B4
:104C800011240BB60F922F933F934F935F936F9323
:104C90007F938F939F93AF93BF93CF93DF93EF93C4
:104CA000FF93A0914A16B0914B16109711F16091A5
:104CB000D6001496ED91FC91159793818281258100
:104CC000981B92238481981761F08381269528236D
:104CD000C081D181C20FD11D68838F5F95818923E7
:104CE00083831696ED91FC911797309711F0CD01C3
:104CF0001995FF91EF91DF91CF91BF91AF919F9166
:104D00008F917F916F915F914F913F912F910F9074
:104D10000BBE0F900FBE0F901F9018951F920F9211
:104D20000FB60F9211240BB60F922F938F939F9370
:104D3000AF93BF93EF93FF93E0914A16F0914B1618
:104D40003097B9F00280F381E02D9381828198172A
:104D5000B1F092818581282F26952923A081B181E8
:104D6000A20FB11D2C919F5F892382832093D600CF
:104D70000BC0E1EDF0E080818F7D808305C0E1ED27
:104D8000F0E080818F7D8083FF91EF91BF91AF91A3
:104D90009F918F912F910F900BBE0F900FBE0F9090
:104DA0001F9018951F920F920FB60F9211240BB6F9
:104DB0000F922F933F934F935F936F937F938F93B4
:104DC0009F93AF93BF93CF93DF93EF93FF93A09104
:104DD0004C16B0914D16109711F160913601149652
:104DE000ED91FC911597938182812581981B9223E7
:104DF0008481981761F0838126952823C081D18111
:104E0000C20FD11D68838F5F958189238383169696
:104E1000ED91FC911797309711F0CD011995FF9105
:104E2000EF91DF91CF91BF91AF919F918F917F9142
:104E30006F915F914F913F912F910F900BBE0F900B
:104E40000FBE0F901F9018951F920F920FB60F92E2
:104E500011240BB60F922F938F939F93AF93BF9311
:104E6000EF93FF93E0914C16F0914D163097B9F007
:104E70000280F381E02D938182819817B1F09281B5
:104E80008581282F26952923A081B181A20FB11DEC
:104E90002C919F5F89238283209336010BC0E1E32D
:104EA000F1E080818F7D808305C0E1E3F1E08081C6
:104EB0008F7D8083FF91EF91BF91AF919F918F91F3
:104EC0002F910F900BBE0F900FBE0F901F90189553
:104ED000CF93DF931F92CDB7DEB7BE016F5F7F4FD9
:104EE00080914E1690914F167BDD8111F6CF89810E
:104EF00090E00F90DF91CF910895682F80914E162A
:104F000090914F16EDDC80E090E008958F929F9293
:104F1000AF92CF92EF920F93812C912C6894AA2498
:104F2000A7F86894CC24C7F8E12C00E023E040E027
:104F300051EE60E070E032DC90934F1680934E1695
:104F4000E3E8F6E183E192E09183808393838283B7
:104F50000F91EF90CF90AF909F908F90089590E039
:104F6000FC01EE0FFF1FE80FF91FEE0FFF1FE05BC4
:104F7000F94E238121111FC09C01220F331FF9011B
:104F8000E80FF91FEE0FFF1FE05BF94EA081B18122
:104F90004C91F901E80FF91FEE0FFF1FE05BF94E8E
:104FA00081E090E0028002C0880F991F0A94E2F726
:104FB000842B8C930895FC01EE0FFF1FDF01A80FD7
:104FC000B91FAA0FBB1FA05BB94E0D90BC91A02DBD
:104FD0002C91E80FF91FEE0FFF1FE05BF94E81E007
:104FE00090E0028002C0880F991F0A94E2F7809532
:104FF00082238C93089590E0FC01EE0FFF1FE80FD1
:10500000F91FEE0FFF1FE05BF94E2381211120C035
:105010009C01220F331FF901E80FF91FEE0FFF1F4C
:10502000E05BF94EA081B1814C91F901E80FF91FC5
:10503000EE0FFF1FE05BF94E81E090E0028002C0BE
:10504000880F991F0A94E2F7809584238C93089522
:10505000FC01EE0FFF1FDF01A80FB91FAA0FBB1F36
:10506000A05BB94E0D90BC91A02D2C91E80FF91FBB
:10507000EE0FFF1FE05BF94E81E090E0028002C07E
:10508000880F991F0A94E2F7822B8C930895CC2401
:10509000C394D12C6894BB24B2F8C0E5D6E110E0EB
:1050A0008C81813081F018F1823061F5E881F981DD
:1050B0002081C6010A8002C0880F991F0A94E2F776
:1050C000822780831FC08D818F5F8A3010F48D838B
:1050D00019C01D82E881F9812081C6010A8002C0C1
:1050E000880F991F0A94E2F7822780830BC00D81F5
:1050F000002329F0812F7FDF01500D8303C0BC8284
:10510000812F2DDF1F5F2696143051F665E070E089
:1051100080E090E00E940212C0CFEF92FF920F93C6
:105120001F93CF93DF93082F80E487B9C0E5D6E1C2
:105130000F2EF8E2EF2EF12CF02DF982E88286E0B6
:105140008A831B8214E01C8380E009DF80E887B932
:10515000FF82EE8287E0888719861A8781E0FFDE6A
:1051600080E283BB84E390E09D878C8785E08E8717
:105170001F86188B82E0F3DE80E18093010182E0DC
:1051800091E09B8B8A8B1C8B1D8A1E8B83E0E7DE54
:10519000E12CF12C20E030E040EC50E06DEC77E0C9
:1051A00087E498E20E94FD0EDF91CF911F910F914D
:1051B000FF90EF900895CF93DF9390E0FC01EE0F06
:1051C000FF1FDF01A80FB91FAA0FBB1FA05BB94EBD
:1051D000CD91DC911197488121E030E012960C903E
:1051E000129702C0220F331F0A94E2F72427288364
:1051F000FD0181E08483DF91CF910895CF93DF9308
:1052000090E0FC01EE0FFF1FDF01A80FB91FAA0FEE
:10521000BB1FA05BB94ECD91DC911197488121E075
:1052200030E012960C90129702C0220F331F0A949E
:10523000E2F724272883FD0182E08483DF91CF9168
:105240000895282F30E0F901EE0FFF1FE20FF31F42
:10525000EE0FFF1FE05BF94E93E09483CCCE0895F0
:10526000282F30E0F901EE0FFF1FE20FF31FEE0FC2
:10527000FF1FE05BF94E94E0948371CE089590E0B7
:10528000FC01EE0FFF1FDF01A80FB91FAA0FBB1F04
:10529000A05BB94E24E015962C931597FD0114825E
:1052A000089590E0FC01EE0FFF1FDF01A80FB91F6A
:1052B000AA0FBB1FA05BB94E21E015962C93159742
:1052C000FD01148208958091761681110CC08CE046
:1052D0008093B8008FEF8093BB0084E08093BC0084
:1052E00081E0809376160895AF92BF92CF92DF92BD
:1052F000EF92FF920F931F93CF93DF93A82EB62EBA
:1053000069017A0184E090E08AD7EC01892B61F190
:10531000A88281E0B81212C0C701B60120EA36E8BF
:1053200041E050E015D7DA01C9014097A109B10960
:10533000B695A79597958795898311C0C701B60142
:1053400020E83AE146E050E003D7DA01C90140978E
:10535000A109B109B695A7959795879589831B8370
:105360000A838C2F9D2F02C080E090E0DF91CF91C7
:105370001F910F91FF90EF90DF90CF90BF90AF9073
:1053800008958091BC0081700895FF920F931F9340
:10539000CF93DF930097D1F14A30D0F5F42E8B01F3
:1053A000EC01EFDF811136C08091691690916A1689
:1053B000C817D90741F087DF89818093B800D0935F
:1053C0006A16C093691681E08F0D80936B168881F1
:1053D000880F80936C16FF2089F0F801ADE6B6E1E6
:1053E0004FEF4F0D642F70E0CB010196B801680FAD
:1053F000791F81918D93E617F707D9F788EF80938E
:10540000210285EA8093BC0084E005C086E003C0E9
:1054100087E001C082E0DF91CF911F910F91FF9053
:1054200008951F93CF93DF93009729F16B3028F5F0
:10543000162FEC01A6DF811122C080916916909190
:105440006A16C817D90741F03EDF89818093B800FA
:10545000D0936A16C093691610936B168881880FD3
:10546000816080936C1688EF8093210285EA809397
:10547000BC0085E005C086E003C087E001C082E093
:10548000DF91CF911F9108951F920F920FB60F9247
:1054900011240BB60F922F933F934F935F936F930B
:1054A0007F938F939F93AF93BF93EF93FF93E0917D
:1054B000B9008E2F90E0FC013897E135F10508F036
:1054C00075C08827E458FF4F8F4F64C61092681646
:1054D000E091681680916B16E81770F481E08E0FEA
:1054E00080936816F0E0E459F94E80818093BB0008
:1054F00085E88093BC0072C084E98093BC008091F1
:10550000691690916A16DC011296ED91FC91139741
:10551000309709F463C020E040E050E064E0199562
:105520005DC0E091681681E08E0F809368168091CF
:10553000BB00F0E0E459F94E80838091B9008034DB
:1055400011F4109268162091681630E080916B1665
:1055500090E001972817390724F485EC8093BC006C
:105560003DC085E88093BC0039C08091BB00E091CC
:105570006816F0E0E459F94E808384E98093BC001A
:105580008091691690916A16DC011296ED91FC915A
:105590001397309719F120916B164CE656E165E0B0
:1055A00019951CC085EA8093BC0018C08091B90091
:1055B0008093210284E08093BC00809169169091D1
:1055C0006A16DC011296ED91FC911397309731F039
:1055D00020E040E050E0609121021995FF91EF91A9
:1055E000BF91AF919F918F917F916F915F914F91FB
:1055F0003F912F910F900BBE0F900FBE0F901F90F9
:105600001895FC01411101C02BD7842F90E09C011B
:105610002150310982239323892B09F021D7413866
:1056200008F01ED7128213824483440F41504583F1
:105630007183608380E090E008955058BB27AA27CB
:105640000ED04DC13ED130F043D120F031F49F3F18
:1056500011F41EF433C10EF4E095E7FB29C1E92FE4
:105660004FD180F3BA17620773078407950718F0C4
:1056700071F49EF567C10EF4E0950B2EBA2FA02DA4
:105680000B01B90190010C01CA01A0011124FF27EF
:10569000591B99F0593F50F4503E68F11A16F040EA
:1056A000A22F232F342F4427585FF3CF46953795E9
:1056B0002795A795F0405395C9F77EF41F16BA0BAE
:1056C000620B730B840BBAF09150A1F0FF0FBB1F5C
:1056D000661F771F881FC2F70EC0BA0F621F731FA5
:1056E000841F48F4879577956795B795F7959E3F02
:1056F00008F0B3CF9395880F08F09927EE0F979590
:10570000879508950CD0EBC0E3D040F0DAD030F0AC
:1057100021F45F3F19F0CCC0511115C1CFC0F0D0BA
:1057200098F39923C9F35523B1F3951B550BBB2768
:10573000AA2762177307840738F09F5F5F4F220F15
:10574000331F441FAA1FA9F333D00E2E3AF0E0E80E
:1057500030D091505040E695001CCAF729D0FE2F5A
:1057600027D0660F771F881FBB1F261737074807EC
:10577000AB07B0E809F0BB0B802DBF01FF279358A2
:105780005F4F2AF09E3F510568F092C0DCC05F3F3A
:10579000ECF3983EDCF3869577956795B795F7958A
:1057A0009F5FC9F7880F911D9695879597F9089582
:1057B000E1E0660F771F881FBB1F6217730784071E
:1057C000BA0720F0621B730B840BBA0BEE1F88F72D
:1057D000E095089504D06894B111B5C0089598D0AB
:1057E00088F09F5790F0B92F9927B751A0F0D1F0CA
:1057F000660F771F881F991F1AF0BA95C9F712C054
:10580000B13081F09FD0B1E008959CC0672F782F10
:105810008827B85F39F0B93FCCF3869577956795BF
:10582000B395D9F73EF490958095709561957F4F2B
:105830008F4F9F4F0895E89409C097FB3EF49095D1
:105840008095709561957F4F8F4F9F4F9923A9F059
:10585000F92F96E9BB279395F695879577956795E8
:10586000B795F111F8CFFAF4BB0F11F460FF1BC02C
:105870006F5F7F4F8F4F9F4F16C0882311F096E9BF
:1058800011C0772321F09EE8872F762F05C066236D
:1058900071F096E8862F70E060E02AF09A95660F26
:1058A000771F881FDAF7880F9695879597F90895DF
:1058B00097F99F6780E870E060E008959FEF80ECC3
:1058C000089500240A941616170618060906089566
:1058D00000240A9412161306140605060895092ECC
:1058E0000394000C11F4882352F0BB0F40F4BF2B3B
:1058F00011F460FF04C06F5F7F4F8F4F9F4F08957B
:1059000057FD9058440F551F59F05F3F71F0479570
:10591000880F97FB991F61F09F3F79F08795089555
:10592000121613061406551FF2CF4695F1DF08C074
:10593000161617061806991FF1CF86957105610591
:1059400008940895E894BB2766277727CB0197F939
:1059500008950BD0C4CFB5DF28F0BADF18F0952337
:1059600009F0A6CFABCF1124EECFCADFA0F3959FED
:10597000D1F3950F50E0551F629FF001729FBB2736
:10598000F00DB11D639FAA27F00DB11DAA1F649FE2
:105990006627B00DA11D661F829F2227B00DA11D95
:1059A000621F739FB00DA11D621F839FA00D611D1B
:1059B000221F749F3327A00D611D231F849F600D3C
:1059C000211D822F762F6A2F11249F5750408AF075
:1059D000E1F088234AF0EE0FFF1FBB1F661F771F01
:1059E000881F91505040A9F79E3F510570F060CF3D
:1059F000AACF5F3FECF3983EDCF3869577956795E9
:105A0000B795F795E7959F5FC1F7FE2B880F911D1E
:105A10009695879597F908952F923F924F925F92AE
:105A20006F927F928F929F92AF92BF92CF92DF92AE
:105A3000EF92FF920F931F93CF93DF93CDB7DEB713
:105A400060970FB6F894DEBF0FBECDBF7C011B017F
:105A50006A01FC0117821682838181FF2AC39E019D
:105A60002F5F3F4F3901F7019381F10193FD85913C
:105A700093FF81911F01882309F417C3853239F4FC
:105A800093FD859193FF81911F01853231F4B70118
:105A900090E037D656016501E6CF10E0512C912CED
:105AA000FFE1F915D8F08B3279F038F4803279F0D3
:105AB0008332A1F4F92DF0612EC08D3261F0803374
:105AC00069F4292D21602DC0392D3260932E892D46
:105AD0008460982E2AC0E92DE86015C097FC2DC07F
