:10000000E5C0000004C1000002C1000000C1000002
:10001000FEC00000FCC00000FAC00000F8C00000F4
:10002000F6C00000F4C00000F2C00000F0C0000004
:10003000CDC40000ECC00000EAC00000E8C0000031
:10004000E6C00000E4C00000E2C00000E0C0000024
:10005000DEC00000DCC00000DAC00000D8C0000034
:10006000D6C000000C9441220C949322D0C0000012
:10007000CEC00000CCC00000CAC00000C8C0000054
:10008000C6C00000C4C00000C2C00000C0C0000064
:100090000C94D7220C942923BAC000000C94752725
:1000A000B6C00000B4C00000B2C00000B0C0000084
:1000B000AEC00000ACC00000AAC00000A8C0000094
:1000C000A6C00000A4C00000A2C000000C946D23D4
:1000D0000C94BF239CC000000C9403240C94552462
:1000E00096C000006518651865189C18A418B91802
:1000F000651865189C18A41897270728072807284B
:1001000007280728072807289727072807280728E8
:1001100007280728072807289927072807280728D6
:100120000728072807280728072807280728072857
:1001300007280728072807289927072807280728B6
:100140000728072807280728072807280728072837
:10015000072807280728072803280728072807282B
:100160000728072807280728CE2707280728072851
:100170000728072807280728072807280728072807
:100180000728072807280728C2270728072807283D
:100190000728072807280728E6270E941B0C8091BC
:1001A0007B14823008F04CD30E94E218F6CFCF9334
:1001B000DF931F92CDB7DEB7CE0101960E94E21504
:1001C00049810E94D7170E942E18F6CF11241FBE16
:1001D000CFEFD1E2DEBFCDBF00E00CBF17E0A0E063
:1001E000B2E0E6E1FEE500E00BBF02C007900D9231
:1001F000AA39B107D9F726E1AAE9B7E001C01D92F3
:10020000A83EB207E1F70E94021B0C94092FF8CE1A
:100210008091D8169091D9160895EF92FF920F937E
:10022000E12CF12C082F20E030E040EC50E06FE6AC
:1002300072E087E291E00E94E20C0F91FF90EF9054
:10024000089541E050E060E070E045C00895CF932C
:10025000DF9300D01F92CDB7DEB787E792E09F9380
:100260008F930E94EB2B80E090E00E94BA200E94C6
:100270006C0D69837A838B839C830F900F9048EA7F
:1002800058E460E070E0CE0101960E94820F0E9467
:10029000BF208093DA168111F2CF62E370E080E034
:1002A00090E00E94E70F8091DB16811109C08CED70
:1002B00096E10E94EE208093DB16AADFC2DFDFCF3B
:1002C0008130E9F680E892E09F938F930E94EB2BB8
:1002D0000F900F90D4CF4F925F926F927F92AF9218
:1002E000BF92CF92DF92EF92FF920F931F93CF9323
:1002F000DF93EC016A017B018C01095F1F4F0E94B3
:10030000660DEB85FC8588819981AA81BB81C82A0D
:10031000D92AEA2AFB2AC882D982EA82FB82C12C26
:10032000D12C76013DC0A480B58080819181A281CD
:10033000B381AC01BD017727B2FD0EC04880598062
:100340006A807B80442255226622772245284628EF
:10035000472889F420E012C0488059806A807B8059
:1003600044225522662277224415550566057705F5
:1003700021F020E003C021E001C021E0222371F040
:10038000B0FF04C0C42AD52AE62AF72A4881598139
:100390006A817B817260CF010E946F11EA2DFB2D73
:1003A000E017F10709F0BFCFC094D094E094F09427
:1003B00088819981AA81BB81C822D922EA22FB22A5
:1003C000C882D982EA82FB820E94A60E6881798166
:1003D0008A819B81DF91CF911F910F91FF90EF90C8
:1003E000DF90CF90BF90AF907F906F905F904F90D5
:1003F0000895E6EAF7E0AAEAB7E0B183A0831382A2
:100400001282E6E2F4E1F093A507E093A4071382D9
:100410001282118210828CE79CE013969C938E933B
:100420001297ED93FC939093A1078093A00790936C
:10043000A3078093A20780E090E890939B078093A6
:100440009A070895CF93DF93EC01A6EAB7E001C0C5
:10045000DF01ED91FC911197EC17FD07C8F312969F
:100460008D919C9113979D01280F391FC217D307B7
:1004700049F42A813B81820F931F13969C938E939C
:100480001297ED018A819B819E01280F391FE21787
:10049000F307C1F42091A4073091A507E217F307F1
:1004A00071F022813381820F931F9B838A83ED91A8
:1004B000FC911197808191819983888305C039834C
:1004C000288302C0F983E883CA17DB0711F0CD93B4
:1004D000DC93DF91CF910895EF92FF920F931F93DA
:1004E000CF93DF938C010E94660D8091A4079091B9
:1004F000A507892B09F47DDF80919A0790919B07CE
:1005000080239123892B09F076C00115110549F04C
:10051000C80104960817190718F000E010E001C0A0
:100520008C010115110509F469C08091A207909111
:10053000A3078017910708F464C0C091A607D09163
:10054000A707E6EAF7E002C0FE01EC018A819B8181
:100550008017910720F4888199810097A9F78091ED
:10056000A4079091A507C817D90709F44DC0E080EA
:10057000F18084E0E80EF11C888199819183808369
:100580002A813B81201B310B2930310548F0CE01F7
:10059000800F911FFC01338322831B830A8352DF68
:1005A0002A813B818091A2079091A307821B930B24
:1005B0009093A3078093A2074091A0075091A107B1
:1005C0008417950720F49093A1078093A00780914A
:1005D0009A0790919B07282B392B3B832A831982FA
:1005E000188280919E0790919F07019690939F0794
:1005F00080939E070BC0E12CF12C08C0E12CF12C5C
:1006000005C0E12CF12C02C0E12CF12C0E94A60EB9
:10061000E114F10411F40E94EE18C701DF91CF91AB
:100620001F910F91FF90EF9008950F931F93CF9319
:10063000DF93009791F1EC0124974A815B8120912F
:100640009A0730919B07BA0162237323672B29F124
:1006500068817981672B09F520953095242335230E
:100660003B832A830E94660D8A819B812091A20789
:100670003091A307820F931F9093A3078093A20743
:10068000CE01E0DE80919C0790919D0701969093AA
:100690009D0780939C070E94A60EDF91CF911F912A
:1006A0000F910895FC010396928381834FEF5FEFD2
:1006B000BA014383548365837683908787839287C7
:1006C000818710820895FC011386128608950F9386
:1006D0001F93CF93DF93EB01088119812A813B811E
:1006E0000F3F4FEF14072407340721F4FC01A185C5
:1006F000B28511C0DC01139601C0DF011496ED91A3
:10070000FC9115974081518162817381041715070F
:100710002607370790F71496ED91FC911597FD8306
:10072000EC83D783C683BF83AE831596DC93CE93C9
:1007300014979B878A87FC0120812F5F2083DF919C
:10074000CF911F910F910895CF93DF93FC01A28564
:10075000B385C481D581868197819F838E83C6812D
:10076000D781848195819D838C8311968D919C91F5
:100770001297E817F90731F48681978112969C93B6
:100780008E931197138612868C9181508C938C9145
:10079000DF91CF910895A89590EC88E10FB6F89479
:1007A000A895809360000FBE909360000895FC01AF
:1007B000608331977083319710823197108231971F
:1007C00020E8208331971082319710823197108270
:1007D000779740833197508386970895DCDFA09107
:1007E000E914B091EA14CD91CDBFDD91DEBFFF9148
:1007F000EF91DF91CF91BF91AF919F918F917F91B9
:100800006F915F914F913F912F911F910F91FF90A9
:10081000EF90DF90CF90BF90AF909F908F907F90A0
:100820006F905F904F903F902F901F900F900CBE55
:100830000F900BBE0F900FBE0F90089581E00895AA
:100840000F920FB6F8940F920BB60F920CB60F9250
:100850001F9211242F923F924F925F926F927F923C
:100860008F929F92AF92BF92CF92DF92EF92FF92C0
:100870000F931F932F933F934F935F936F937F93A8
:100880008F939F93AF93BF93CF93DF93EF93FF9398
:10089000A091E914B091EA140DB60D920EB60D9226
:1008A0000E940210A091E914B091EA14CD91CDBF3D
:1008B000DD91DEBFFF91EF91DF91CF91BF91AF91BD
:1008C0009F918F917F916F915F914F913F912F9168
:1008D0001F910F91FF90EF90DF90CF90BF90AF905E
:1008E0009F908F907F906F905F904F903F902F9050
:1008F0001F900F900CBE0F900BBE0F900FBE0F906D
:1009000008950F920FB6F8940F920BB60F920CB693
:100910000F921F9211242F923F924F925F926F92EB
:100920007F928F929F92AF92BF92CF92DF92EF927F
:10093000FF920F931F932F933F934F935F936F9368
:100940007F938F939F93AF93BF93CF93DF93EF9357
:10095000FF93A091E914B091EA140DB60D920EB672
:100960000D9213BE0E947A0D81110E940210A09177
:10097000E914B091EA14CD91CDBFDD91DEBFFF91B6
:10098000EF91DF91CF91BF91AF919F918F917F9127
:100990006F915F914F913F912F911F910F91FF9018
:1009A000EF90DF90CF90BF90AF909F908F907F900F
:1009B0006F905F904F903F902F901F900F900CBEC4
:1009C0000F900BBE0F900FBE0F9008959ADF1895F1
:1009D0000FB6F8940F92FC01868D811102C081E060
:1009E00001C080E00F900FBE08950FB6F8940F92EB
:1009F000FC01268D878D281302C081E001C080E0B4
:100A00000F900FBE08950F931F93CF93DF93EC01C8
:100A1000042F1E8D48A141110CC088819981892B1A
:100A200009F042C08C819D810E94AD121D821C8202
:100A300042C0011117C050E08A819B810E948C2B1B
:100A400028A18A819B81820F911D9B838A832C819F
:100A50003D818217930750F1888199819B838A8316
:100A600080E029C050E08E819F810E948C2B88A15C
:100A700090E09195819591092E813F81280F391F32
:100A80003F832E83488159812417350730F42C8108
:100A90003D81820F931F9F838E83023049F411237F
:100AA00049F0115080E007C080E005C080E003C03D
:100AB00080E001C080E01F5F1E8FDF91CF911F910A
:100AC0000F910895FC0140A14423A9F050E0268134
:100AD0003781240F351F378326838481958128171A
:100AE000390720F08081918197838683CB016681CD
:100AF00077810C948C2B08951F93CF93DF93EC0197
:100B00000FB6F8940F921AA10BC08B89882351F06D
:100B1000CE0143960E94C01081110E94961211507E
:100B200011169CF38FEF8AA30F900FBE0FB6F894A7
:100B30000F9219A10BC08885882351F0CE01089629
:100B40000E94C01081110E949612115011169CF340
:100B50008FEF89A30F900FBEDF91CF911F91089562
:100B6000CF93DF93EC010FB6F8940F92E881F981EF
:100B70008F8D28A190E030E0829FA001839F500DCF
:100B8000929F500D11244E0F5F1F5D834C831E8E6C
:100B9000FB83EA830197289FA001299F500D389F6E
:100BA000500D1124CF01840F951F9F838E838FEFEB
:100BB00089A38AA361110BC08885882371F0CE01B7
:100BC00008960E94C010882341F03ADE06C0CE018C
:100BD000089668DDCE01439665DD0F900FBE81E07B
:100BE000DF91CF9108950F931F93F801611103C016
:100BF0001183008302C051834083878F60A361E02B
:100C0000CF01AEDF1F910F910895DF92EF92FF9217
:100C10000F931F93CF93DF93F82EE62ED42E869F4B
:100C2000C0011124839658DCEC01009741F08C013F
:100C30002D2DAC014D5D5F4F6E2D8F2DD4DFCE017C
:100C4000DF91CF911F910F91FF90EF90DF9008956A
:100C5000CF92DF92EF92FF920F931F93CF93DF9388
:100C6000CDB7DEB729970FB6F894DEBF0FBECDBF64
:100C70007C016B012E833F834887598710E00FB6B4
:100C8000F8940F92F701968D878D981710F0023027
:100C9000B1F4402FB601C701B6DEF701938999235D
:100CA00041F0C70143960E94C010882321F0C8DD9F
:100CB00002C08111C5DD0F900FBE81E04BC08E8157
:100CC0009F81A885B985892B8A2B8B2B21F40F90C6
:100CD0000FBE80E03FC0111105C0CE0101960E94F9
:100CE0001F1211E00F900FBEF1D60FB6F8940F92BD
:100CF000F70181A18F3F09F411A2F70182A18F3F73
:100D000009F412A20F900FBEBE016A5F7F4FCE01A1
:100D100001960E943012811119C0C70166DE882336
:100D200081F04E815F8168857985C70108960E94B0
:100D30006710C701E1DE0E94A60E8111A0CF80DD01
:100D40009ECFC701D9DE0E94A60E99CFC701D4DE7F
:100D5000FDD780E029960FB6F894DEBF0FBECDBF59
:100D6000DF91CF911F910F91FF90EF90DF90CF9087
:100D70000895EF92FF920F931F93CF93DF938A0111
:100D8000FC01568D378D531710F02230F9F4422FA5
:100D90007801EC011AA18E8DCE0135DE1F3F81F462
:100DA0008B898823A9F0CE0143960E94C010882326
:100DB00089F0E114F10481F081E0F70180830DC036
:100DC000FF24F394F10EFAA281E007C080E005C091
:100DD00081E003C081E001C081E0DF91CF911F91EC
:100DE0000F91FF90EF900895CF92DF92EF92FF92D4
:100DF0000F931F93CF93DF93CDB7DEB729970FB62D
:100E0000F894DEBF0FBECDBF8C016B012E833F83F4
:100E100048875987E12C0FB6F8940F92F801F68CA9
:100E2000FF2099F0B601C8014DDEFA94F801F68E64
:100E30008085882331F0C80108960E94C010811176
:100E4000FFDC0F900FBE81E04FC08E819F81A8858F
:100E5000B985892B8A2B8B2B21F40F900FBE80E054
:100E600043C0E11006C0CE0101960E941F12EE247D
:100E7000E3940F900FBE2AD60FB6F8940F92F801A4
:100E800081A18F3F09F411A2F80182A18F3F09F4DB
:100E900012A20F900FBEBE016A5F7F4FCE01019676
:100EA0000E943012811117C0C80192DD882379F0A9
:100EB0004E815F8168857985C80143960E946710DD
:100EC000C8011ADE43D78111A6CFBADCA4CFC8016E
:100ED00013DE3CD7A0CFC8010FDE38D7C80178DDBC
:100EE000882309F498CF80E029960FB6F894DEBFE6
:100EF0000FBECDBFDF91CF911F910F91FF90EF906B
:100F0000DF90CF900895CF93DF93EC010FB6F89464
:100F10000F9289A18F3F09F419A28AA18F3F09F48A
:100F20001AA20F900FBE8E8D811104C0CE01439680
:100F30000E947E10CE01E0DDDF91CF910895FC018B
:100F40004481558122813381240F351F8081918115
:100F5000B901681B790BCB016417750710F0841B6E
:100F6000950B08950F93FC018FE0DF011D928A9588
:100F7000E9F775876487558344833783268306871B
:100F80000F910895AF92BF92CF92DF92EF92FF92AE
:100F90000F931F93CF93DF936C015B017A01FC01E8
:100FA000C281D381048115810C1B1D0B4017510791
:100FB00008F48A01F60184859585A801B5018C0F96
:100FC0009D1F0E948C2B0E151F0558F4A701401B76
:100FD000510BB501600F711FF601848595850E9444
:100FE0008C2BCE018E0D9F1DF60124813581821739
:100FF000930710F0821B930BF60193838283C70142
:10100000DF91CF911F910F91FF90EF90DF90CF90E4
:10101000BF90AF900895CF92DF92EF92FF920F931F
:101020001F93CF93DF931F921F92CDB7DEB77C0142
:101030006B015A83498321153105C1F0FC01868576
:1010400080FD08C04217530708F49A013A832983A8
:1010500081E00FC02017310758F042E050E0BE0198
:101060006F5F7F4FC7018EDF81E003C080E001C06A
:1010700080E0882331F049815A81B601C70182DFBF
:1010800002C080E090E00F900F90DF91CF911F9110
:101090000F91FF90EF90DF90CF900895AF92BF92A5
:1010A000CF92DF92EF92FF920F931F93CF93DF9334
:1010B0007C015B01E9014217530708F4EA0120971C
:1010C00081F1F7010081118184819581801B910B51
:1010D0006E018C179D0708F46C01F7016485758516
:1010E000600F711FA601C5010E948C2BCC16DD0676
:1010F00058F4AE014C195D09F70164857585C50189
:101100008C0D9D1D0E948C2B0C0F1D1FF7018481DF
:1011100095810817190710F0081B190BF7011183A7
:101120000083CE01DF91CF911F910F91FF90EF903F
:10113000DF90CF90BF90AF9008956F927F928F9283
:101140009F92AF92BF92CF92DF92EF92FF920F9356
:101150001F93CF93DF931F921F92CDB7DEB76C0121
:101160004B015A01790101151105B1F0FC016080B4
:101170007180A801BE016F5F7F4F90DF89819A81E6
:10118000E01AF10AA816B90630F4F60171826082FD
:10119000A12CB12C01C05C019701A501B401C601CD
:1011A0007DDF0F900F90DF91CF911F910F91FF90F6
:1011B000EF90DF90CF90BF90AF909F908F907F90F7
:1011C0006F900895CF92DF92EF92FF920F93CF939B
:1011D000DF93EC016B01413011F401E001C000E04C
:1011E000C114D10419F4CC24C394D12CCE0140965F
:1011F000C817D90720F421966FD97C0102C0E12CD1
:10120000F12CE114F10439F09601AE01B701615FF0
:101210007F4FC701A7DEC701DF91CF910F91FF90EC
:10122000EF90DF90CF9008950F930FB6F8940F9240
:10123000FC0120853185232B71F422853385232BF6
:1012400061F42681378144815581648575850685E1
:1012500089DE81E003C080E001C080E00F900FBE16
:101260000F910895FC012481358180819181820F45
:10127000931F42815381841B950B0197821793071B
:1012800010F0821B930B08952F923F924F925F9222
:101290006F927F928F929F92AF92BF92CF92DF9286
:1012A000EF92FF920F931F93CF93DF93CDB7DEB7EB
:1012B0002B970FB6F894DEBF0FBECDBF4C017B87D6
:1012C0006A871A010E831F8328873987FC0184816E
:1012D00095810197268520FF0CC02A01F2E04F0E70
:1012E000511C8415950558F41E821F821886198694
:1012F00006C08417950710F02A0101C02C018E81C9
:101300009F81A885B985892B8A2B8B2B09F438C03E
:10131000CE0101960E9409120FB6F8940F92C401F3
:10132000A1DF3C018415950540F560E080E090E088
:101330000E94C8150E949A12F401938782870F9029
:101340000FBEAE80BF80C884D984E12CF12C00E0B0
:1013500010E0980140E050E0BA0180E00E940813DC
:10136000F40113861286BE016A5F7F4FCE0101969B
:101370000E943012882381F205C00F900FBE02C078
:10138000612C712C6114710419F4C4016BDF3C01F0
:1013900082019301A1016A857B85C4013CDE6C0159
:1013A000892BE9F0C401CBDDF40126813781821756
:1013B0009307A8F08BD3F40180859185892B71F078
:1013C00080859185E12CF12C00E020E030E0A9013E
:1013D00060E00E94AF13F40111861086B7D4C601F5
:1013E0002B960FB6F894DEBF0FBECDBFDF91CF9125
:1013F0001F910F91FF90EF90DF90CF90BF90AF9033
:101400009F908F907F906F905F904F903F902F9024
:101410000895AF92BF92CF92DF92EF92FF920F9317
:101420001F93CF93DF93EC017B015A0169018E85F5
:1014300080FF04C08A010E5F1F4F01C08A01CE01E8
:1014400011DF9C01A501B701CE01E5DD5C01892B0F
:10145000C1F0CE0174DD2E813F818217930788F0A1
:1014600088859985892B69F088859985E12CF12CEF
:1014700000E020E030E0A90160E00E94A614198697
:101480001886C501DF91CF911F910F91FF90EF90CA
:10149000DF90CF90BF90AF9008954F925F926F9280
:1014A0007F928F929F92AF92BF92CF92DF92EF92F4
:1014B000FF920F931F93CF93DF93EC012B013A011F
:1014C000580169018E8580FF05C06894882481F8E1
:1014D000912C02C0812C912CA114B104C104D1041F
:1014E00041F10FB6F8940F92CE0129DD7C018816E8
:1014F000990648F060E080E090E00E94C8150E94E4
:101500009A12998788870F900FBE8E149F04A0F0BF
:10151000E12CF12C00E010E0980140E050E0BA012D
:1015200080E00E94081319861886CE0108DD7C0130
:1015300003C0CE0104DD7C018E149F04E8F4840115
:101540009701A301B201CE01F8DD6C01892BB1F046
:10155000BDD28A859B85892B69F08A859B85E12C84
:10156000F12C00E020E030E0A90160E00E94AF1320
:101570001B861A86EBD302C0C12CD12CC601DF9189
:10158000CF911F910F91FF90EF90DF90CF90BF9080
:10159000AF909F908F907F906F905F904F90089545
:1015A000E0916314F0916414808181110CC08FEF7D
:1015B0009FEFDC0180932D1490932E14A0932F1491
:1015C000B09330140895E0916314F091641407808F
:1015D000F085E02D80819181A281B38180932D14CB
:1015E00090932E14A0932F14B09330140895CF939A
:1015F000DF93EC018B8D9C8D18D8CE0116D8DF912E
:10160000CF9108954F925F926F927F928F929F92A7
:10161000AF92BF92CF92DF92EF92FF920F93CF9350
:10162000DF932C015B014A013901E60165EA70E0B4
:101630008B8D9C8D0E94952B8B8D9C8D21E0821A29
:101640009108880E991EA114B10489F415C0822F47
:1016500090E0F501E80FF91F3081DE01A80FB91FF6
:101660005D963C938081882329F02F5F01C020E0A4
:10167000203168F31CA601C01D8E0A3008F009E075
:101680000A8F0DA71EA6CE0102961DD8CE010E967A
:101690001AD8DB87CA878AE090E0A0E0B0E0801B20
:1016A0009109A109B1098E879F87A88BB98BDF8B20
:1016B000CE8B84E0FE01BF96DF011D928A95E9F78B
:1016C0001BAAA301B201C40172D899838883E114D3
:1016D000F10419F0F701D183C083DF91CF910F910D
:1016E000FF90EF90DF90CF90BF90AF909F908F9042
:1016F0007F906F905F904F900895CF93C0E009C0A6
:101700002BE0C29FC001112485589B4E0E945203BA
:10171000CF5FCA30A8F380E794E10E94520385E6C8
:1017200094E10E94520386E594E10E9452038BE407
:1017300094E10E9452038FE394E10E94520380E7F8
:1017400094E1909364148093631485E694E19093FC
:10175000621480936114CF910895CF93DF93EC01CD
:101760000FB6F8940F9280913E148F5F80933E14D1
:101770008091E9149091EA14892B51F4D093EA14E2
:10178000C093E91480913E14813091F4B6DF10C00B
:101790008091381481110CC0E091E914F091EA14A1
:1017A000928D8A8D891720F0D093EA14C093E914A2
:1017B000809131148F5F80933114EA8D80913914B8
:1017C0008E1710F4E09339148BE08E9FF0011124F2
:1017D000E558FB4E0180F281E02DFF83EE832681E8
:1017E000378139872887A681B7819E012E5F3F4FB9
:1017F00015963C932E93149737832683EA8D8E9FFC
:10180000F0011124E558FB4EFD87EC8780818F5F46
:1018100080830F900FBE80913814882349F0E091A7
:10182000E914F091EA14928D8A8D981708F408D87B
:10183000DF91CF910895CF93DF931BC00FB6F8943B
:101840000F92E0915214F0915314C085D185CE01CE
:1018500002960E94A40380913E14815080933E140E
:1018600080914A14815080934A140F900FBECE018C
:10187000BEDE80914A148111E1CFDF91CF910895AE
:101880008F929F92AF92BF92CF92DF92EF92FF9290
:10189000CF93DF936B017C01C42F80903A1490901A
:1018A0003B14A0903C14B0903D148091E9149091A9
:1018B000EA1402960E94A4038FEFC816D806E80621
:1018C000F806B1F5CC23A1F1EFE3F4E1A181B281F7
:1018D000C091E914D091EA14BF83AE83C091E9149A
:1018E000D091EA1416968D919C91179799878887C5
:1018F0001696CD91DC9117978091E9149091EA1496
:1019000002969D838C838091E9149091EA1402964B
:1019100017969C938E931697A091E914B091EA14B0
:101920001D96FC93EE931C9780818F5F80833FC050
:10193000C80CD91CEA1CFB1CE091E914F091EA14D4
:10194000C282D382E482F582C814D904EA04FB047B
:1019500068F46091E9147091EA1480916114909197
:1019600062146E5F7F4F0E94670321C06091E9148B
:101970007091EA1480916314909164146E5F7F4FAC
:101980000E94670380912D1490912E14A0912F1422
:10199000B0913014C816D906EA06FB0640F4C0928E
:1019A0002D14D0922E14E0922F14F0923014DF9167
:1019B000CF91FF90EF90DF90CF90BF90AF909F902E
:1019C0008F9008952F923F924F925F926F927F92E5
:1019D0008F929F92AF92BF92CF92DF92EF92FF923F
:1019E0000F93CF93DF933C011B014A012901CA01E8
:1019F0000E946C026C01892B71F084E390E00E94DC
:101A00006C02EC01892B19F0DC8ECB8E06C0C6016E
:101A10000E94150302C0C0E0D0E0209761F0A12C25
:101A2000B12C6E019201A401B101C301EBDDCE0125
:101A300094DE81E001C08FEFDF91CF910F91FF9095
:101A4000EF90DF90CF90BF90AF909F908F907F905E
:101A50006F905F904F903F902F900895EF92FF927C
:101A60000F930F2EFBE2EF2EF4E1FF2EF02D00E09E
:101A700020E030E040EC50E06CE972E08DEC90E06A
:101A8000A1DF813011F40E946C168130C9F4F89402
:101A90008FEF9FEFDC0180932D1490932E14A09371
:101AA0002F14B093301481E08093381410923A14BC
:101AB00010923B1410923C1410923D140E94EE03BD
:101AC000809106020F91FF90EF90089580912A1463
:101AD0008F5F80932A1408950FB6F8940F92609147
:101AE0003A1470913B1480913C1490913D140F90E6
:101AF0000FBE0895CF92DF92EF92FF92CF93DF93C4
:101B000080912A14811105C1C0903A14D0903B14E1
:101B1000E0903C14F0903D148FEFC81AD80AE80A00
:101B2000F80AC0923A14D0923B14E0923C14F0921E
:101B30003D14C114D104E104F104B1F480916314A3
:101B40009091641420916114309162143093641464
:101B500020936314909362148093611480913214E3
:101B60008F5F809332141CDD80912D1490912E1480
:101B7000A0912F14B0913014C816D906EA06FB06BE
:101B800020F480E0B2C081E001C080E0E091631405
:101B9000F0916414908191110CC04FEF5FEFBA0186
:101BA00040932D1450932E1460932F14709330147F
:101BB0009CC0E0916314F09164140780F085E02DDF
:101BC0000084F185E02D4281538164817581C416C2
:101BD000D506E606F70648F440932D1450932E14CC
:101BE00060932F147093301480C0A485B585C6818E
:101BF000D781208531853F832E83C085D18526817D
:101C000037813D832C8311964D915C9112979F01F2
:101C10002E5F3F4F4217530731F44085518512968E
:101C20005C934E931197158614869C9191509C93CA
:101C3000A08DB18D109709F1C289D3894489558946
:101C40005F834E83C489D589428953895D834C83E0
:101C500011966D917C911297AF01425F5F4F6417AF
:101C6000750731F44489558912965C934E93119708
:101C7000118E108E9C9191509C93A28D909139144D
:101C80009A1710F4A09339149BE09A9FD001112465
:101C9000A558BB4E11960D90BC91A02DB783A6837D
:101CA00016964D915C911797518740871696CD9166
:101CB000DC9117973D832C8317963C932E931697B0
:101CC000A28D9A9FD0011124A558BB4EB587A48739
:101CD0009C919F5F9C93228DE091E914F091EA140E
:101CE000928D291708F04FCF51CFE091E914F09170
:101CF000EA14E28D9BE0E99FF0011124E558FB4EC8
:101D00009081923008F081E090913314911116C0C7
:101D100016C08091341490913514A0913614B0916E
:101D200037140196A11DB11D80933414909335147E
:101D3000A0933614B093371480E001C081E0DF91A6
:101D4000CF91FF90EF90DF90CF900895CF92DF92E8
:101D5000EF92FF92CF93DF930FB6F8940F9280919A
:101D60002A14815080932A1480912A148111BEC0B4
:101D700080913E14811188C0BCC0E0915D14F09147
:101D80005E140084F185E02DA08DB18DC289D389C8
:101D9000848995899F838E83C489D5898289938913
:101DA0009D838C8311962D913C911297CF010E96B5
:101DB0002817390731F48489958912969C938E935C
:101DC0001197118E108E8C9181508C93A485B585BE
:101DD000C681D781808591859F838E83C085D1857B
:101DE000868197819D838C8311968D919C9112970A
:101DF0009F012E5F3F4F8217930731F480859185B5
:101E000012969C938E931197158614868C9181500F
:101E10008C93A28D809139148A1710F4A0933914F1
:101E20008BE08A9FD0011124A558BB4E11960D90CE
:101E3000BC91A02DB783A68316964D915C91179700
:101E4000518740871696CD91DC9117973D832C835F
:101E500017963C932E931697A28D8A9FD00111243A
:101E6000A558BB4EB587A4878C918F5F8C93928DBC
:101E7000A091E914B091EA145A968C91981730F019
:101E800081E08093331402C0E0E0F0E080915614CA
:101E9000811173CFEF2B09F083DBC0903414D09005
:101EA0003514E0903614F0903714C114D104E104D5
:101EB000F104A1F01FDE882319F081E08093331430
:101EC00081E0C81AD108E108F108A1F71092341492
:101ED00010923514109236141092371480913314E6
:101EE000882331F00E94200481E003C080E001C01B
:101EF00080E00F900FBEDF91CF91FF90EF90DF90C9
:101F0000CF9008958F929F92AF92BF92CF92DF921F
:101F1000EF92FF921F93CF93DF93EC016A017B0155
:101F2000D5DD80903A1490903B14A0903C14B09072
:101F30003D1488819981AA81BB81AC01BD014C0D02
:101F40005D1D6E1D7F1D88169906AA06BB0660F4EE
:101F5000481759076A077B0798F484169506A60662
:101F6000B70680F010E013C0481759076A077B07CF
:101F700058F084169506A606B70640F010E007C094
:101F800010E005C011E003C011E001C011E048837A
:101F900059836A837B83112341F0CB01BA0168190D
:101FA00079098A099B0940E06BDCD0DE811102C00F
:101FB0000E942004812FDF91CF911F91FF90EF901D
:101FC000DF90CF90BF90AF909F908F900895CF9269
:101FD000DF92EF92FF926B017C01672B682B692BDC
:101FE00039F074DD40E0C701B6014ADCAFDE01C064
:101FF00080E0811102C00E942004FF90EF90DF90EA
:10200000CF90089580912A14882321F081E0809355
:102010003314089510923314E091E914F091EA1406
:1020200020813181E091E914F091EA14838D948D3F
:102030008217930760F06091E9147091EA14635E6F
:102040007F4F8091E9149091EA140E94FA188091D0
:10205000391401C08150282F30E09BE0929FF0019D
:10206000939FF00D1124E558FB4E9081992391F335
:102070009BE0929FA001939F500D1124DF010180EE
:10208000F281E02D0480F581E02D1296FC93EE9311
:10209000119742585B4EE417F50729F444815581A6
:1020A000FD01528341839BE0929FF001939FF00DCD
:1020B0001124E558FB4E0180F281E02D2085318509
:1020C0003093EA142093E914809339140895CF9241
:1020D000DF92EF92FF926A017B016091E9147091A7
:1020E000EA14625F7F4F0E94670341E0C701B601B7
:1020F000C7DBFF90EF90DF90CF900895CF93DF93F1
:10210000FC01CB01BA01A181B281C091E914D09147
:10211000EA14BB8BAA8BC091E914D091EA141696ED
:102120004D915C9117975D8B4C8B1696CD91DC9100
:1021300017974091E9145091EA14425F5F4F5D8315
:102140004C834091E9145091EA14425F5F4F179617
:102150005C934E931697A091E914B091EA145996A6
:10216000FC93EE93589730813F5F3083222319F020
:102170006FEF7FEFCB01422F83DBDF91CF9108958B
:10218000CF93DF93DC011796ED91FC9118970084B3
:10219000F185E02DA08DB18DC289D389848995897F
:1021A0009F838E83C489D589828993899D838C83FB
:1021B00011968D919C9112979F01225F3F4F82173C
:1021C000930731F48489958912969C938E93119785
:1021D000118E108E8C9181508C9380912A148111D4
:1021E00052C0A485B585C681D781808591859F839E
:1021F0008E83C085D185868197819D838C8311963E
:102200008D919C9112979F012E5F3F4F82179307EC
:1022100031F48085918512969C938E931197158643
:1022200014868C9181508C93A28D809139148A17D9
:1022300010F4A09339148BE08A9FD0011124A55883
:10224000BB4E11960D90BC91A02DB783A683169618
:102250004D915C911797518740871696CD91DC91EF
:1022600017973D832C8317963C932E931697A28D38
:102270008A9FD0011124A558BB4EB587A4878C91A5
:102280008F5F8C931CC046E554E1DA011196CD9125
:10229000DC911297D38BC28B8E819F81958B848B1F
:1022A0008E819F81DC0115963C932E9314973F837A
:1022B0002E83518F408FDA018C918F5F8C93928D9A
:1022C000E091E914F091EA14828D891720F481E0FD
:1022D0008093331401C080E0DF91CF910895CF93B4
:1022E000DF93DC0170684D935D936D937C9313973E
:1022F0001896ED91FC9119971A964D915C911B9748
:1023000014968D919C91159716962D913C91179747
:10231000EC013F832E8316968D919C91179714960E
:102320002D913C911597EC013D832C83EA01898125
:102330009A81A817B90731F416968D919C91179739
:102340009A8389831B961C921E921A97DA018C91AC
:1023500081508C93A485B585C681D7818085918570
:102360009F838E83C085D185868197819D838C8351
:1023700011968D919C9112979F012E5F3F4F82176E
:10238000930731F48085918512969C938E931197D3
:10239000158614868C9181508C93A28D809139146E
:1023A0008A1710F4A09339148BE08A9FD00111246E
:1023B000A558BB4E11960D90BC91A02DB783A68356
:1023C00016964D915C911797518740871696CD913F
:1023D000DC9117973D832C8317963C932E93169789
:1023E000A28D8A9FD0011124A558BB4EB587A48722
:1023F0008C918F5F8C93928DE091E914F091EA14A7
:10240000828D891718F481E080933314DF91CF9186
:1024100008950FB6F8940F9220913214FC01208396
:1024200040913A1450913B1460913C1470913D14CA
:1024300041835283638374830F900FBE089520916C
:102440003214FC01208340913A1450913B14609166
:102450003C1470913D1441835283638374830895C7
:102460008F929F92AF92BF92CF92DF92EF92FF92A4
:102470000F931F93CF93DF93FB010FB6F8940F9246
:10248000C0903A14D0903B14E0903C14F0903D146E
:10249000DC0111960D911D912D913C9114974601EF
:1024A0005701801A910AA20AB30A408151816281C0
:1024B00073814F3FBFEF5B076B077B0739F1EC017F
:1024C000B881A0913214BA1759F0C016D106E206AD
:1024D000F30630F0108211821282138281E017C05D
:1024E00084169506A606B70658F4481959096A09CC
:1024F0007B094083518362837383A1DF80E007C03F
:10250000108211821282138281E001C080E00F905C
:102510000FBEDF91CF911F910F91FF90EF90DF9051
:10252000CF90BF90AF909F908F90089581E080935F
:10253000331408958091E9149091EA1408958091DC
:102540003814882331F080912A14811104C082E06C
:10255000089581E0089580E008950F931F93CF932D
:10256000DF93FC01892B09F449C086A5815086A719
:10257000228D95A5291709F443C0811143C0EF01AD
:102580008F010E5F1F4FC8010E94A403EDA5EA8FC3
:102590008AE090E0A0E0B0E08E1B9109A109B109AA
:1025A0008E879F87A88BB98B809139148E1710F472
:1025B000E09339148BE08E9FF0011124E558FB4E17
:1025C0000180F281E02DFF83EE83268137813987F8
:1025D0002887A681B78115961C930E9314971783AD
:1025E0000683EA8D8E9FF0011124E558FB4EFD878E
:1025F000EC8780818F5F808381E005C080E003C02D
:1026000080E001C080E0DF91CF911F910F9108958C
:102610004F925F926F927F92AF92BF92CF92DF9272
:10262000EF92FF920F931F93CF93DF93280139010D
:102630000FB6F8940F92E091E914F091EA14C82FC4
:10264000D0E0EC0FFD1F83A9823071F1E091E91415
:10265000F091EA14CE01880F991F880F991FE80F97
:10266000F91F87A590A9A1A9B2A940955095609599
:102670007095482359236A237B2347A750AB61AB4E
:1026800072ABE091E914F091EA14EC0FFD1F81E0C8
:1026900083ABA114B104C104D10431F041E0C601FF
:1026A000B501EED80E9420040F900FBE0FB6F8942B
:1026B0000F92E114F104A1F0E091E914F091EA1411
:1026C000CE01880F991F880F991FE80FF91F87A562
:1026D00090A9A1A9B2A9F70180839183A283B383B2
:1026E000E091E914F091EA14EC0FFD1F83A9823008
:1026F000E9F4E091E914F091EA14CE01880F991FF2
:10270000880F991FE80FF91F87A590A9A1A9B2A961
:102710004094509460947094482259226A227B22FB
:1027200047A650AA61AA72AA81E001C080E0209168
:10273000E9143091EA14C20FD31F1BAA0F900FBEE9
:10274000DF91CF911F910F91FF90EF90DF90CF908D
:10275000BF90AF907F906F905F904F9008958F9251
:102760009F92AF92BF92EF92FF920F93CF93DF931E
:10277000DC010FB6F8940F92E114F10489F0E62F12
:10278000F0E0EE0FFF1FEE0FFF1FE80FF91F87A409
:1027900090A8A1A8B2A8F70180829182A282B382F8
:1027A00070E0FD01E60FF71F83A992E093AB0230C2
:1027B00001F118F4013031F04DC0033079F10430EB
:1027C000D1F148C0660F771F660F771FFD01E60F36
:1027D000F71F87A490A8A1A8B2A8BA01A901482907
:1027E00059296A297B2947A750AB61AB72AB01E03D
:1027F00034C0660F771F660F771FFD01E60FF71FC6
:1028000047A550A961A972A94F5F5F4F6F4F7F4FD6
:1028100047A750AB61AB72AB01E01FC0660F771FDB
:10282000660F771FFD01E60FF71F27A730AB41ABFF
:1028300052AB01E012C0823079F0660F771F660F4D
:10284000771FFD01E60FF71F27A730AB41AB52AB57
:1028500001E003C001E001C000E0813009F069C07F
:102860001C96ED91FC911D971696CD91DC911797D2
:1028700018968D919C9119979F838E831896CD9170
:10288000DC91199716968D919C9117979D838C8357
:10289000818192819D012E5F3F4F8217930731F412
:1028A00018968D919C911997928381831D961C9205
:1028B0001E921C978081815080835A96EC915A9782
:1028C000809139148E1710F4E09339148BE08E9FA9
:1028D000F0011124E558FB4E0180F281E02D17969E
:1028E000FC93EE9316974681578119965C934E930D
:1028F0001897C681D7813D832C83378326835A96C8
:10290000EC915A978E9FF0011124E558FB4E1D96CD
:10291000FC93EE931C9780818F5F80835A969C91E5
:10292000E091E914F091EA14828D891710F40E9465
:1029300020040F900FBE802FDF91CF910F91FF9059
:10294000EF90BF90AF909F908F9008958F929F923D
:10295000AF92BF92CF92DF92EF92FF920F93CF93FD
:10296000DF93DC01E114F10489F0E62FF0E0EE0FD3
:10297000FF1FEE0FFF1FE80FF91F87A490A8A1A863
:10298000B2A8F70180829182A282B38270E0FD0139
:10299000E60FF71F93A982E083AB023001F118F430
:1029A000013031F04DC0033079F10430D1F148C02D
:1029B000660F771F660F771FFD01E60FF71F87A4CD
:1029C00090A8A1A8B2A8BA01A901482959296A2941
:1029D0007B2947A750AB61AB72AB81E034C0660F77
:1029E000771F660F771FFD01E60FF71F47A550A958
:1029F00061A972A94F5F5F4F6F4F7F4F47A750ABE1
:102A000061AB72AB81E01FC0660F771F660F771F47
:102A1000FD01E60FF71F27A730AB41AB52AB81E0BA
:102A200012C0923079F0660F771F660F771FFD0195
:102A3000E60FF71F27A730AB41AB52AB81E003C0D5
:102A400081E001C080E0913009F096C090912A1495
:102A500091115FC01C96ED91FC911D971696CD913A
:102A6000DC91179718962D913C9119973F832E83EF
:102A70001896CD91DC91199716962D913C91179748
:102A80003D832C83418152819D012E5F3F4F421730
:102A9000530731F418964D915C91199752834183F5
:102AA0001D961C921E921C979081915090835A966D
:102AB000EC915A97909139149E1710F4E0933914C1
:102AC0009BE09E9FF0011124E558FB4E0180F281AE
:102AD000E02D1796FC93EE93169746815781199631
:102AE0005C934E931897C681D7813D832C8337839F
:102AF00026835A96EC915A979E9FF0011124E5582F
:102B0000FB4E1D96FC93EE931C9790819F5F9083E4
:102B100021C066E574E1FB01C181D2815396DC934B
:102B2000CE9352972E813F8155963C932E93549786
:102B30004E815F819D01225F3F4FFA0135832483DF
:102B40003F832E8359967C936E935897FB01908117
:102B50009F5F90835A962C91E091E914F091EA14CA
:102B6000928D921748F4C114D10419F091E0F60146
:102B7000908391E090933314DF91CF910F91FF9068
:102B8000EF90DF90CF90BF90AF909F908F9008957F
:102B9000009721F48091E9149091EA140FB6F8940B
:102BA0000F9270E0FC01E60FF71F23A9223031F4E9
:102BB000FC01E60FF71F13AA81E001C080E00F902F
:102BC0000FBE0895DC01E091F514F091F6148081B8
:102BD00091E0811190E09C93911108C00780F085ED
:102BE000E02D6081718182819381089560E070E0C1
:102BF000CB010895CF92DF92EF92FF920F931F9334
:102C0000FC0142835383648375839387828704170F
:102C1000150726073707C0F00C191D092E093F09B3
:102C200086859785A089B189081719072A073B0768
:102C300000F5BF016E5F7F4F8091F3149091F41403
:102C40000E94670380E018C00C151D052E053F0586
:102C500028F44C155D056E057F0568F4BF016E5FB5
:102C60007F4F8091F5149091F6140E94670380E0E5
:102C700003C081E001C081E01F910F91FF90EF90B0
:102C8000DF90CF9008950FB6F8940F928091F114D1
:102C90009091F214892BE9F482E095E10E945203AD
:102CA00087EF94E10E94520382E095E19093F6143D
:102CB0008093F51487EF94E19093F4148093F314C8
:102CC00040E067E08AE00E9405069093F21480934A
:102CD000F1140F900FBE0895EF92FF920F93D3DF80
:102CE0008091F1149091F214892B91F00F2EFFEE48
:102CF000EF2EF4E1FF2EF02D03E020E030E040EC79
:102D000050E061EA72E087ED90E00E94E20C01C0C1
:102D100080E00F91FF90EF9008958F929F92AF9275
:102D2000BF92CF92DF92EF92FF920F931F93CF93B8
:102D3000DF93CDB7DEB727970FB6F894DEBF0FBE8F
:102D4000CDBFE091F114F091F214309781F16983D5
:102D50002A833B834C835D839F838E836630F4F4A8
:102D6000EEDB823069F400E0A7019601BE016F5FDF
:102D70007F4F8091F1149091F2140E94280618C0A0
:102D800000E020E030E0A901BE016F5F7F4F80913D
:102D9000F1149091F2140E9428060AC020E0A801C4
:102DA000BE016F5F7F4FCF010E94B90601C080E076
:102DB00027960FB6F894DEBF0FBECDBFDF91CF913F
:102DC0001F910F91FF90EF90DF90CF90BF90AF9049
:102DD0009F908F9008958F929F92AF92BF92CF92C3
:102DE000DF92EF92FF920F931F93CF93DF933BC03D
:102DF0000780F085E02D80809180A280B380C0851F
:102E0000D1858E010E5F1F4FC8010E94A403EC897B
:102E1000FD89CE0119958E8982FF25C08E859F85FB
:102E2000A889B989880D991DAA1DBB1D8816990608
:102E3000AA06BB0670F48A839B83AC83BD83DB87C1
:102E4000CA87B8018091F5149091F6140E94670327
:102E50000AC0C12CD12C760100E010E0A50194013C
:102E600060E0CE015ADFE091F514F091F614808114
:102E70008111BECF8091F3149091F4149093F614C5
:102E80008093F514F093F414E093F314DF91CF9151
:102E90001F910F91FF90EF90DF90CF90BF90AF9078
:102EA0009F908F900895CF92DF92EF92FF92CF93F1
:102EB000DF93EC010E946C0D6B017C018091EB149F
:102EC0009091EC14A091ED14B091EE14C816D906AF
:102ED000EA06FB0620F47FDF81E0888301C01882C8
:102EE000C092EB14D092EC14E092ED14F092EE1438
:102EF000C701B601DF91CF91FF90EF90DF90CF90A7
:102F000008954F925F926F927F928F929F92AF92AD
:102F1000BF92CF92DF92EF92FF920F931F93CF93C6
:102F2000DF934B015C0129013A01E091F514F09126
:102F3000F6140780F085E02DC085D185CE0102967C
:102F40000E94A4038E8982FF1BC04E855F8568891D
:102F50007989480D591D6A1D7B1D75016401930116
:102F60008201CE0147DE882369F0C12CD12C760185
:102F700000E010E0A501940160E0CE01CEDE02C0C9
:102F80008E7F8E8BEC89FD89CE011995DF91CF91D3
:102F90001F910F91FF90EF90DF90CF90BF90AF9077
:102FA0009F908F907F906F905F904F9008958F9239
:102FB0009F92AF92BF92CF92DF92EF92FF921F93B8
:102FC000CF93DF931F92CDB7DEB76B017C01142F37
:102FD0000E94660DCE01019666DF4B015C0189817E
:102FE00081112DC011110DC08C149D04AE04BF04BD
:102FF00040F00E94A60EA5019401C701B60181DF31
:1030000020C0112341F0E091F314F091F414808179
:1030100011E0811110E0B701A601481959096A09A8
:103020007B09212F8091F1149091F2140E94830763
:103030000E94A60E811105C00E94200402C00E94B9
:10304000A60E0F90DF91CF911F91FF90EF90DF9030
:10305000CF90BF90AF909F908F900895AF92BF9206
:10306000CF92DF92EF92FF920F931F93CF93DF9354
:10307000CDB7DEB728970FB6F894DEBF0FBECDBF31
:1030800082C0898188230CF47EC0AE80BF80D501C8
:103090001C968D919C911D97892B21F0C50102965C
:1030A0000E94A403CE010896FEDE8B019C01E981FB
:1030B0000E2E000CFF0BEA30F10508F064C08827E3
:1030C000EE58FF4F8F4F0C945F2AF501868981607F
:1030D000868BCA80DB80EC80FD80468557856089C1
:1030E00071894C0D5D1D6E1D7F1DC50183DD88231B
:1030F00009F449C0D5015496ED91FC915597C5014D
:103100001995F501868982FF3EC04A815B816C81F9
:103110007D8186859785A089B1899A01AB01280FA9
:10312000391F4A1F5B1FC12CD12C760100E010E033
:1031300060E0C501F2DD27C0D50156968C91569707
:103140008E7F56968C931FC0F50186898160868B91
:103150004A815B816C817D8146875787608B718B4B
:10316000400F511F621F731F68017901C50142DDC5
:103170000AC0F501868981FD04C0C5010E941503BE
:1031800002C08E7F868B20E030E0A901BE016F5F18
:103190007F4F8091F1149091F2140E94F4068111F6
:1031A00070CF28960FB6F894DEBF0FBECDBFDF916B
:1031B000CF911F910F91FF90EF90DF90CF90BF9034
:1031C000AF900895089584B1806884B985B180680E
:1031D00085B9089583B1806883B90895F4DF2FEF2E
:1031E00080E792E0215080409040E1F700C000006D
:1031F000F1DFF5CFE8DF2FEF87EA91E6215080403D
:103200009040E1F700C00000E5DFF5CFCF93DF93FA
:10321000EC0189EA92E09F938F930E94EB2B8091BF
:1032200028158F93809127158F9389EC92E09F93B7
:103230008F930E94EB2B809126158F9380912515FB
:103240008F9389EE92E09F938F930E94EB2B809156
:1032500024158F93809123158F9387E093E09F939C
:103260008F930E94EB2BEDE0F5E186E0818382E015
:103270008083809127159091281592838383809174
:10328000251590912615948385838091231590911F
:1032900024159683878386E1DE0101900D928A953D
:1032A000E1F78DB79EB70E960FB6F8949EBF0FBE8E
:1032B0008DBFCE01DF91CF910895CF93DF9381E051
:1032C0000E940C26D9D355D69F938F9384E293E026
:1032D0009F938F930E94EB2B4DD54BD69F938F934B
:1032E00087E393E09F938F930E94EB2B8FE395E10D
:1032F000D5D33FD6CFE3D5E1DF93CF939F938F9381
:1033000080E593E09F938F930E94EB2BCE01E2D355
:1033100030D69F938F93DF93CF9384E693E09F9370
:103320008F930E94EB2BAE0169E773E08AE993E08B
:10333000FFD51FD69F938F93DF93CF9389E793E0B9
:103340009F938F938AE993E09F938F938BEA93E007
:103350009F938F930E94EB2BF0D30BD69F938F9369
:1033600081EE93E09F938F930E94EB2B8DB79EB7D6
:1033700082960FB6F8949EBF0FBE8DBF81E0D7D462
:10338000F8D59F938F9380EF93E09F938F930E9444
:10339000EB2B84EF91E0D6D4ECD59F938F9381E013
:1033A0008F9384EF8F9381E194E09F938F930E949A
:1033B000EB2B8DB79EB70A960FB6F8949EBF0FBE43
:1033C0008DBFCAE080E0BFD3D82FD3D59F938F9312
:1033D0001F92CF9381E394E09F938F930E94EB2BF6
:1033E0000F900F900F900F900F900F90D83059F0D2
:1033F00080E00E94702666E371E080E090E00E9429
:10340000E70FC150F9F6D83021F481E00E9452262E
:1034100009C081E00E94612680E00E942F260E9460
:103420002004FDCFDF91CF910895CF93DF93CDB7E7
:10343000DEB76A970FB6F894DEBF0FBECDBF81E04E
:103440000DD362E070E080E090E00E94E70F80E042
:1034500005D366E970E080E090E00E94E70FB7D204
:103460002CDF0E946C0D69837A838B839C8348EAEE
:1034700058E460E070E0CE0101960E94820F81E581
:1034800094E09F938F930E94EB2BCE010596BEDEB6
:1034900086E1FE013596A9E2B5E101900D928A958B
:1034A000E1F783E00E94822669E275E180E074D34F
:1034B00060D59F938F938FE594E09F938F930E94A5
:1034C000EB2B0F900F900F900F900F900F90CFCF8E
:1034D000EF92FF920F93E12CF12C082F20E030E0C7
:1034E00048E851E064E774E085E19AE10E94E20C6B
:1034F0000F91FF90EF900895EF92FF920F93082F96
:10350000CAD081110CC01F921F928BE794E09F9349
:103510008F930E94EB2B0F900F900F900F90E12C48
:10352000F12C20E030E040EC50E06FE774E086EAF8
:103530009AE10E94E20C0F91FF90EF90089540E114
:1035400050E060E070E00C946B010895CF93DF933E
:1035500000D01F92CDB7DEB78AE894E09F938F9397
:103560000E94EB2B0E946C0D69837A838B839C8372
:103570000F900F9048EA58E460E070E0CE010196A9
:103580000E94820F81E994E09F938F930E94EB2B1E
:103590009AD00F900F908111EDCF88E994E09F931E
:1035A0008F930E94EB2B62E370E080E090E00E943A
:1035B000E70F9ED00F900F908111DCCF8FE994E040
:1035C0009F938F930E94EB2B61E070E080E090E08E
:1035D0000E94E70FB3D09093A6158093A515D4D081
:1035E0009093A4158093A31586EA94E09F938F93FC
:1035F0000E94EB2B0E940801A2DF0F900F900F900A
:103600000F90B8CF80E00E94B72486E00E94BE25CC
:1036100083E08BD584E00E940D0183E06DDF609133
:10362000A7157091A81582E0D9D182E051DF83EB14
:1036300094E00E94FE2B0E942E0DFFCF6530F1F426
:10364000FA0180818F7390E0982F88272181822B47
:1036500090930A02809309028281F0E48F9FC00157
:103660001124FA01238126952695822B9093080236
:103670008093070281E08093A9150895643051F08A
:1036800080E090E4909308028093070290930A02EE
:103690008093090208950F931F930EE11BE120E030
:1036A00034E244EF50E060E087E20E94A526909368
:1036B000AB158093AA1521E0892B09F020E0822F19
:1036C0001F910F9108958091AA159091AB150097C5
:1036D00059F040E060E070E00E94F626843031F45A
:1036E0001092A91580E0089582E0089583E008957E
:1036F0008091AA159091AB15009739F064E00E9473
:103700004227853021F083E0089582E0089580E02B
:1037100008956091090270910A0280E090E00E9491
:103720004C2920E030E048EC52E40E94DA2920E005
:1037300038EF4FE756E40C94B3280895EADF20E011
:1037400030E040E251E40E94DA290E942029CB01B6
:103750000895609107027091080280E090E00E9455
:103760004C2920E030E045E253E40E94DA2920E0D1
:1037700038EF4FE756E40E94B32820E030E040E203
:1037800052E40C944E280895E4DF20E030E040E25B
:1037900051E40E94DA290E941B29CB0108950F935E
:1037A0001F93CF93DF931F921F92CDB7DEB78C018B
:1037B00019822DC0E091E315EC3250F481E08E0FB8
:1037C0008093E315F0E0EB5EF94E8A81808302C0BE
:1037D0001092E3158A818A30D1F44091E31550E0CC
:1037E000FA01ED5EF94E1082415051099E012F5FA2
:1037F0003F4F65E176E18091E6159091E7150E94D3
:10380000090A898181110E9420041092E315BE01EA
:103810006E5F7F4FC80115D6882361F20F900F901D
:10382000DF91CF911F910F9108950F931F93CF9325
:10383000DF938C01EB018091E6159091E7150E94D2
:103840001409B8018CEA95E10E94CC2B209779F0FD
:10385000ECEAF5E101900020E9F7319780E290E091
:1038600091838083BE018CEA95E10E94C12BECEA32
:10387000F5E1DF010D900020E9F711978DE09AE066
:1038800011969C938E9312961C9201900020E9F75A
:103890003197EC5AF541AE2F8CEA95E1AC016A2FD5
:1038A0008091E8159091E91577D5811111C008E252
:1038B00015E020E030E04DE250E06FE676E18091E7
:1038C000E6159091E7150E944D0A8FE696E102C039
:1038D00080E090E0DF91CF911F910F9108952F929A
:1038E0003F924F925F926F927F928F929F92AF9290
:1038F000BF92CF92DF92EF92FF920F931F93CF93DD
:10390000DF935C01FC0101900020E9F731976F0122
:10391000C81AD90A5C2C0F2EFEE58F2EF7E09F2ED9
:10392000F02DE12CF12C4C2C3701F4010181128196
:10393000E80109900020E9F72197C01BD10B3C2E2C
:10394000F9E0CF16D10458F0F4012080FEE02F12E8
:1039500006C0B801C5010E949C2B892B09F5442D96
:10396000351408F44C2F50E0B801C5010E94D32B48
:10397000892B49F4F301EE0FFF1FE60DF71DE25A04
:10398000F84F20800DC08FEFE81AF80AE3E08E0EA2
:10399000911CF1E1EF16F10439F66894222424F821
:1039A000822DDF91CF911F910F91FF90EF90DF90CB
:1039B000CF90BF90AF909F908F907F906F905F90CF
:1039C0004F903F902F90089530DF89CF08958091D8
:1039D000E6159091E7150C94140908958F929F9223
:1039E000AF92CF92EF920F931F93CF93C82F8B017B
:1039F00041E060E070E088EC90E00E94E208909383
:103A0000E7158093E6151093E5150093E4150F2E46
:103A1000FFEC8F2EFBE19F2EF02D6894AA24A6F8D0
:103A20006894CC24C6F8E12C00E023E040E051EE9D
:103A300060E070E08C2FE3D39093E9158093E81554
:103A4000E7E0F1E0808180618083CF911F910F9149
:103A5000EF90CF90AF909F908F900895882331F092
:103A6000E8E0F1E080818F7E80830895E8E0F1E076
:103A7000808180618083089560E070E084EE94E04E
:103A8000D4DEEFE6F6E101900020E9F73197EF563A
:103A9000F64181E0759708F080E00895CF93DF93B9
:103AA000EC0160E070E085EF94E0BFDEEFE6F6E168
:103AB00001900020E9F7E058F64139F46FE676E12D
:103AC000CE010E94CC2B80E002C0188281E0DF9101
:103AD000CF910895FC0101900020E9F79F01215149
:103AE00031092817390729F4BC0183E295E06CCF2E
:103AF000089589E00895FC0101900020E9F79F01F5
:103B0000215131092817390729F4BC0182E395E0D6
:103B10005BCF089589E00895FC0101900020E9F74A
:103B20009F01215231092817390729F4BC0181E48A
:103B300095E04ACF089589E0089560E070E080E85C
:103B400095E042CF08950F931F93E82FF0E0EE0F1A
:103B5000FF1FE65AF84F6081718189E895E034DFF4
:103B6000811114C008E215E020E030E04DE250E0A1
:103B70006FE676E18091E6159091E7150E944D0A77
:103B8000882321F08FE696E1AADE03C08FE696E156
:103B9000A6DE1F910F9108950F931F93CF93DF938C
:103BA0001F92CDB7DEB7DB0111969C91119795312D
:103BB00008F0B4C0992381F160E070E0272F30E075
:103BC000462F50E0FD01E40FF51F928192959F7002
:103BD0009A3010F0995C01C0905DF901E050FA4E06
:103BE00090832F5F3F4FFD01E40FF51F92819F707F
:103BF000492F50E04A30510514F0995C01C0905DA6
:103C0000F901E050FA4E90837E5F6F5F11969C91B0
:103C10001197691798F201C070E0E72FF0E0E050CB
:103C2000FA4E10824C91811103C082E995E002C0E6
:103C300084E995E020E036E13F932F931F924F9364
:103C40009F938F9388E995E09F938F9382E496E109
:103C50009F938F930E942E2C60E070E082E496E1A7
:103C6000B3DE0FB6F894DEBF0FBECDBF811159C0D1
:103C700008E215E020E030E04DE250E06FE676E14A
:103C80008091E6159091E7150E944D0A882309F46A
:103C900047C08FE696E123DE8E3009F042C087E010
:103CA00089838091E4159091E515892BA9F1BE01D6
:103CB0006F5F7F4F8FE696E168D18093EA15E981C7
:103CC000F0E0E159F94EDF010D900020E9F711977E
:103CD000AE1BBF0BAA2391F0BB27CD0101979C011E
:103CE00012F42F5F3F4F359527952093EB15AF01C9
:103CF0004F5F5F4F64E18CEE95E173D101E010E01E
:103D000020E030E046E150E06AEE75E18091E41594
:103D10009091E5150E9444098EE003C084E101C042
:103D200080E00F90DF91CF911F910F910895813026
:103D300019F068EA75E002C061E876E08CEA95E087
:103D400043CE08959F938F938DED95E09F938F932E
:103D500082E496E19F938F930E942E2C60E070E0A6
:103D600082E496E131DE0F900F900F900F900F904C
:103D70000F9008952F923F924F925F926F927F9291
:103D80008F929F92AF92BF92CF92DF92EF92FF926B
:103D90000F931F93CF93DF93CDB7DEB7A0970FB6E6
:103DA000F894DEBF0FBECDBF6AE076E086E196E014
:103DB0003CDD95DD8111A3C080E2E2E2F2E0DE01AC
:103DC000119601900D928A95E1F79E012F5F3F4F6A
:103DD0006901E12CF12C0F2EF2E2AF2EF6E0BF2E9E
:103DE000F02D02E416E10F2EFBE34F2EF6E05F2EDE
:103DF000F02D0F2EF2E58F2EF6E09F2EF02D0F2ED8
:103E0000FCE66F2EF6E07F2EF02D3E2C2F2CFF923D
:103E1000EF92BF92AF921F930F930E942E2C60E0FF
:103E200070E0C80102DD5BDD0F900F900F900F90E6
:103E30000F900F90811163C032E03E15E8F4F60157
:103E400083818F9382818F9381818F9380818F93E0
:103E5000FF92EF925F924F921F930F930E942E2C2E
:103E600060E070E0C801E1DC3ADD0FB6F894DEBF37
:103E70000FBECDBF811143C02F923F929F928F9270
:103E80001F930F930E942E2C60E070E0C801CDDCE0
:103E900026DD0F900F900F900F900F900F908111D3
:103EA0002EC02F923F927F926F921F930F930E948A
:103EB0002E2C60E070E0C801B8DC11DD0F900F908F
:103EC0000F900F900F900F90811119C03FEFE31AE0
:103ED000F30A84E0C80ED11C98E0E916F10409F059
:103EE00094CF60E070E084E896E09FDCF8DC81111C
:103EF00006C060E070E085E996E097DCF0DCA09613
:103F00000FB6F894DEBF0FBECDBFDF91CF911F91EA
:103F10000F91FF90EF90DF90CF90BF90AF909F9068
:103F20008F907F906F905F904F903F902F9008956B
:103F3000EF92FF920F931F93CF93DF93EC018B01CE
:103F40007A0181E0F4DE81110DC0CE01D4DD811152
:103F500009C0C801E1DD811105C0C701BBDD8111C8
:103F600001C0EBDDDF91CF911F910F91FF90EF909A
:103F7000089590E0FC01EE0FFF1F8E0F9F1FFC01C4
:103F8000E25AF84F818192810895DC01009729F16E
:103F9000FB012081FC0101900020E9F73197E81B2B
:103FA000F90B822F90E0E817F907C8F080E008C00D
:103FB000880F382F330F330F830F8053890F2F5FF4
:103FC000FD01E20FF11D908130ED390F3A3010F410
:103FD0009111EECFFB012083089580E0089580E0E9
:103FE00008950F931F93CF93DF93DC01EA0120978D
:103FF000E1F1FA0101900020E9F73197E41BF50B9C
:10400000329710F532C08D01040F151F30E0AE015C
:10401000420F531FFA019081913428F09753592F82
:104020005295507F03C0592F5295507F2C0F3D1F42
:10403000F9019181913410F0975301C09053950F7D
:10404000F80190838F5F01C080E0282F220F482F56
:1040500050E0FE0101900020E9F73197EC1BFD0BC9
:104060004E175F0710F48613CECFDF91CF911F91CB
:104070000F91089580919F16860F80939F169091BF
:10408000A216913079F028F09230A9F0933019F10E
:1040900008956F3F09F048C010929F1681E0809309
:1040A000A2160895663809F03FC010929E1682E06D
:1040B0008093A2160895E0919E1681E08E0F809362
:1040C0009E16F0E0E456F94E6083823069F583E095
:1040D0008093A216089590919E1621E0290F2093B7
:1040E0009E16963009F581110EC0ECE9F6E180814B
:1040F00090E0982F88272181820F911D9093A4161C
:104100008093A31604C01092A4161092A3161092C6
:10411000A216E091A016F091A116309729F0809197
:10412000A3169091A416199508958F929F92AF921D
:10413000CF92EF920F930F2EFAE38F2EF0E29F2E85
:10414000F02D6894AA24A4F86894CC24C4F8E12C37
:1041500000E023E040E855E260E070E050D090934A
:10416000A6168093A5160F91EF90CF90AF909F90D9
:104170008F9008959093A1168093A0160895CF93E1
:10418000DF93CDB7DEB729970FB6F894DEBF0FBE29
:10419000CDBF89E0E2E4F2E09E012F5F3F4FD901FD
:1041A00001900D928A95E1F71092A4161092A31631
:1041B0008091A5169091A616009731F0422F532FAB
:1041C00069E0EAD080E001C082E029960FB6F89459
:1041D000DEBF0FBECDBFDF91CF9108952091A31612
:1041E0003091A4162115310529F4FC0111821082A9
:1041F00081E00895FC013183208380E008952F92AF
:104200003F924F925F926F927F928F929F92AF9266
:10421000CF92EF92FF920F931F93CF93DF93CDB77F
:10422000DEB7F82E2A013B0188E090E00E94672A61
:104230008C018F2D90E0FC01EE0FFF1FE955F94E28
:10424000118300830115110509F469C0880F991FB6
:10425000FC01E55FFD4F80819181D8018D939C9396
:104260008C2D90E0880F991F880F991F0E94672A54
:104270001C0186E090E00E94672A7C014C2DB10170
:10428000F1D6F801F582E4828A2D90E0880F991F1B
:10429000880F991F0E94672A1C0186E090E00E9407
:1042A000672A7C014A2DB101DDD6D8011396FC9214
:1042B000EE92129717969C928E921697FFB6F894EC
:1042C000ED91FC91119736978081826080838D906B
:1042D0009C90C301B201E0D720E030E040E051E41F
:1042E0000E94DA299B01AC0160E074E284E79BE460
:1042F0003AD720E030E040E85FE3D0D6A1D7F40120
:1043000032976083D801ED91FC911197359788E938
:104310008083ED91FC91349786E08083FFBEC801D5
:10432000DF91CF911F910F91FF90EF90CF90AF90C1
:104330009F908F907F906F905F904F903F902F90C5
:104340000895CF93DF93DC01892B01F11296ED9153
:10435000FC911397938182812581981B92238481FC
:104360009817B1F0838126952823C081D181C20F8F
:10437000D11D68838F5F958189238383ED91FC91A3
:10438000359780818062808380E003C081E001C036
:1043900082E0DF91CF910895EF92FF920F931F93E8
:1043A000CF93DF937C01009709F441C0DC011296A2
:1043B000ED91FC91139793818281981B85819823BD
:1043C0008481891B8617A8F1662341F1842F952FDC
:1043D000DC016150462F50E04F5F5F4F480F591F7F
:1043E000E701EA81FB81938182812581981B9223D9
:1043F0008481981779F08C91938126952923608187
:1044000071818B01020F111DE80188839F5F8581F7
:10441000982393831196A417B50711F7D701ED914F
:10442000FC91359780818062808380E003C081E0C9
:1044300001C082E0DF91CF911F910F91FF90EF902B
:1044400008950097D1F0DC011496ED91FC91159739
:1044500093818281981799F092818581869589232D
:10446000A081B181A80FB11D8C91DB018C939F5F5E
:1044700085819823928380E0089581E0089583E008
:1044800008951F920F920FB60F9211240BB60F9240
:104490002F933F934F935F936F937F938F939F934C
:1044A000AF93BF93CF93DF93EF93FF93A091A716A2
:1044B000B091A816109711F16091C6001496ED9175
:1044C000FC911597938182812581981B9223848189
:1044D000981761F0838126952823C081D181C20F6E
:1044E000D11D68838F5F9581892383831696ED9113
:1044F000FC911797309711F0CD011995FF91EF912D
:10450000DF91CF91BF91AF919F918F917F916F91EB
:104510005F914F913F912F910F900BBE0F900FBE67
:104520000F901F9018951F920F920FB60F921124A3
:104530000BB60F922F938F939F93AF93BF93EF93ED
:10454000FF93E091A716F091A8163097B9F002807A
:10455000F381E02D938182819817B1F0928185815A
:10456000282F26952923A081B181A20FB11D2C915E
:104570009F5F892382832093C6000BC0E1ECF0E0AB
:1045800080818F7D808305C0E1ECF0E080818F7DAC
:104590008083FF91EF91BF91AF919F918F912F9168
:1045A0000F900BBE0F900FBE0F901F9018951F928B
:1045B0000F920FB60F9211240BB60F922F933F93C9
:1045C0004F935F936F937F938F939F93AF93BF931B
:1045D000CF93DF93EF93FF93A091A916B091AA1602
:1045E000109711F16091CE001496ED91FC91159702
:1045F000938182812581981B92238481981761F091
:10460000838126952823C081D181C20FD11D688363
:104610008F5F9581892383831696ED91FC9117977F
:10462000309711F0CD011995FF91EF91DF91CF9166
:10463000BF91AF919F918F917F916F915F914F91BA
:104640003F912F910F900BBE0F900FBE0F901F90B8
:1046500018951F920F920FB60F9211240BB60F925E
:104660002F938F939F93AF93BF93EF93FF93E0911B
:10467000A916F091AA163097B9F00280F381E02DC7
:10468000938182819817B1F092818581282F269598
:104690002923A081B181A20FB11D2C919F5F892395
:1046A00082832093CE000BC0E9ECF0E080818F7D07
:1046B000808305C0E9ECF0E080818F7D8083FF91ED
:1046C000EF91BF91AF919F918F912F910F900BBE62
:1046D0000F900FBE0F901F9018951F920F920FB65C
:1046E0000F9211240BB60F922F933F934F935F932A
:1046F0006F937F938F939F93AF93BF93CF93DF93EA
:10470000EF93FF93A091AB16B091AC16109711F1F7
:104710006091D6001496ED91FC911597938182815A
:104720002581981B92238481981761F083812695B7
:104730002823C081D181C20FD11D68838F5F9581ED
:10474000892383831696ED91FC911797309711F08A
:10475000CD011995FF91EF91DF91CF91BF91AF916D
:104760009F918F917F916F915F914F913F912F9189
:104770000F900BBE0F900FBE0F901F9018951F92B9
:104780000F920FB60F9211240BB60F922F938F93A7
:104790009F93AF93BF93EF93FF93E091AB16F0918C
:1047A000AC163097B9F00280F381E02D93818281BD
:1047B0009817B1F092818581282F26952923A08111
:1047C000B181A20FB11D2C919F5F89238283209319
:1047D000D6000BC0E1EDF0E080818F7D808305C0C5
:1047E000E1EDF0E080818F7D8083FF91EF91BF91BB
:1047F000AF919F918F912F910F900BBE0F900FBE95
:104800000F901F9018951F920F920FB60F921124C0
:104810000BB60F922F933F934F935F936F937F93BA
:104820008F939F93AF93BF93CF93DF93EF93FF93B8
:10483000A091AD16B091AE16109711F160913601AE
:104840001496ED91FC911597938182812581981B97
:1048500092238481981761F0838126952823C08153
:10486000D181C20FD11D68838F5F95818923838396
:104870001696ED91FC911797309711F0CD0119958F
:10488000FF91EF91DF91CF91BF91AF919F918F9168
:104890007F916F915F914F913F912F910F900BBE40
:1048A0000F900FBE0F901F9018951F920F920FB68A
:1048B0000F9211240BB60F922F938F939F93AF9368
:1048C000BF93EF93FF93E091AD16F091AE16309742
:1048D000B9F00280F381E02D938182819817B1F0C5
:1048E00092818581282F26952923A081B181A20F4D
:1048F000B11D2C919F5F89238283209336010BC0C9
:10490000E1E3F1E080818F7D808305C0E1E3F1E0A8
:1049100080818F7D8083FF91EF91BF91AF919F91B7
:104920008F912F910F900BBE0F900FBE0F901F9085
:104930001895CF93DF931F92CDB7DEB7BE016F5F9F
:104940007F4F8091AF169091B0167BDD8111F6CF2D
:10495000898190E00F90DF91CF910895682F809129
:10496000AF169091B016EDDC80E090E008958F9244
:104970009F92AF92CF92EF920F93812C912C6894DB
:10498000AA24A7F86894CC24C7F8E12C00E023E01F
:1049900040E051EE60E070E032DC9093B01680931E
:1049A000AF16E2EEF6E183E192E091838083938398
:1049B00082830F91EF90CF90AF909F908F9008954A
:1049C00090E0FC01EE0FFF1FE80FF91FEE0FFF1F35
:1049D000EF54F94E238121111FC09C01220F331F78
:1049E000F901E80FF91FEE0FFF1FEF54F94EA081F8
:1049F000B1814C91F901E80FF91FEE0FFF1FEF5441
:104A0000F94E81E090E0028002C0880F991F0A945D
:104A1000E2F7842B8C930895FC01EE0FFF1FDF015A
:104A2000A80FB91FAA0FBB1FAF54B94E0D90BC9170
:104A3000A02D2C91E80FF91FEE0FFF1FEF54F94E38
:104A400081E090E0028002C0880F991F0A94E2F78B
:104A5000809582238C93089590E0FC01EE0FFF1F58
:104A6000E80FF91FEE0FFF1FEF54F94E23812111BC
:104A700020C09C01220F331FF901E80FF91FEE0F30
:104A8000FF1FEF54F94EA081B1814C91F901E80F5D
:104A9000F91FEE0FFF1FEF54F94E81E090E0028006
:104AA00002C0880F991F0A94E2F7809584238C93A3
:104AB0000895FC01EE0FFF1FDF01A80FB91FAA0F19
:104AC000BB1FAF54B94E0D90BC91A02D2C91E80F97
:104AD000F91FEE0FFF1FEF54F94E81E090E00280C6
:104AE00002C0880F991F0A94E2F7822B8C930895D5
:104AF000CC24C394D12C6894BB24B2F8C1EBD6E18A
:104B000010E08C81813081F018F1823061F5E8810C
:104B1000F9812081C6010A8002C0880F991F0A947A
:104B2000E2F7822780831FC08D818F5F8A3010F467
:104B30008D8319C01D82E881F9812081C6010A8018
:104B400002C0880F991F0A94E2F7822780830BC066
:104B50000D81002329F0812F7FDF01500D8303C0D9
:104B6000BC82812F2DDF1F5F2696143051F665E041
:104B700070E080E090E00E94E70FC0CFEF92FF92DC
:104B80000F931F93CF93DF93082F80E487B9C1EB76
:104B9000D6E10F2EF8E2EF2EF12CF02DF982E8820B
:104BA00086E08A831B8214E01C8380E009DF80E8B2
:104BB00087B9FF82EE8287E0888719861A8781E0AD
:104BC000FFDE80E283BB84E390E09D878C8785E0F5
:104BD0008E871F86188B82E0F3DE80E180930101CF
:104BE00082E091E09B8B8A8B1C8B1D8A1E8B83E05D
:104BF000E7DEE12CF12C20E030E040EC50E061E910
:104C000077E088E795E20E94E20CDF91CF911F9157
:104C10000F91FF90EF900895CF93DF9390E0FC0108
:104C2000EE0FFF1FDF01A80FB91FAA0FBB1FAF5464
:104C3000B94ECD91DC911197488121E030E0129678
:104C40000C90129702C0220F331F0A94E2F7242718
:104C50002883FD0181E08483DF91CF910895CF9374
:104C6000DF9390E0FC01EE0FFF1FDF01A80FB91FDB
:104C7000AA0FBB1FAF54B94ECD91DC91119748815B
:104C800021E030E012960C90129702C0220F331FE1
:104C90000A94E2F724272883FD0182E08483DF91D0
:104CA000CF910895282F30E0F901EE0FFF1FE20F9A
:104CB000F31FEE0FFF1FEF54F94E93E09483CCCE19
:104CC0000895282F30E0F901EE0FFF1FE20FF31FC8
:104CD000EE0FFF1FEF54F94E94E0948371CE0895C8
:104CE00090E0FC01EE0FFF1FDF01A80FB91FAA0F14
:104CF000BB1FAF54B94E24E015962C931597FD01B8
:104D00001482089590E0FC01EE0FFF1FDF01A80F51
:104D1000B91FAA0FBB1FAF54B94E21E015962C93B3
:104D20001597FD01148208958091D71681110CC04A
:104D30008CE08093B8008FEF8093BB0084E0809379
:104D4000BC0081E08093D7160895AF92BF92CF92B6
:104D5000DF92EF92FF920F931F93CF93DF93A82ED2
:104D6000B62E69017A0184E090E0B1D3EC01892B81
:104D700061F1A88281E0B81212C0C701B60120EA31
:104D800036E841E050E079D3DA01C9014097A10942
:104D9000B109B695A79597958795898311C0C701E5
:104DA000B60120E83AE146E050E067D3DA01C901F4
:104DB0004097A109B109B695A795979587958983DD
:104DC0001B830A838C2F9D2F02C080E090E0DF912F
:104DD000CF911F910F91FF90EF90DF90CF90BF90F8
:104DE000AF9008958091BC0081700895FF920F9359
:104DF0001F93CF93DF930097D1F14A30D0F5F42E73
:104E00008B01EC01EFDF811136C08091CA169091C1
:104E1000CB16C817D90741F087DF89818093B80086
:104E2000D093CB16C093CA1681E08F0D8093CC1619
:104E30008881880F8093CD16FF2089F0F801AEECB1
:104E4000B6E14FEF4F0D642F70E0CB010196B80132
:104E5000680F791F81918D93E617F707D9F788EFCF
:104E60008093210285EA8093BC0084E005C086E03F
:104E700003C087E001C082E0DF91CF911F910F91C5
:104E8000FF9008951F93CF93DF93009729F16B3024
:104E900028F5162FEC01A6DF811122C08091CA16D9
:104EA0009091CB16C817D90741F03EDF89818093D6
:104EB000B800D093CB16C093CA161093CC16888135
:104EC000880F81608093CD1688EF8093210285EA58
:104ED0008093BC0085E005C086E003C087E001C088
:104EE00082E0DF91CF911F9108951F920F920FB62C
:104EF0000F9211240BB60F922F933F934F935F9312
:104F00006F937F938F939F93AF93BF93EF93FF9391
:104F1000E091B9008E2F90E0FC013897E135F10562
:104F200008F075C08827E458FF4F8F4FC8C2109211
:104F3000C916E091C9168091CC16E81770F481E08B
:104F40008E0F8093C916F0E0E353F94E8081809371
:104F5000BB0085E88093BC0072C084E98093BC00EC
:104F60008091CA169091CB16DC011296ED91FC91BE
:104F70001397309709F463C020E040E050E064E00C
:104F800019955DC0E091C91681E08E0F8093C91616
:104F90008091BB00F0E0E353F94E80838091B9002B
:104FA000803411F41092C9162091C91630E0809116
:104FB000CC1690E001972817390724F485EC8093EC
:104FC000BC003DC085E88093BC0039C08091BB0027
:104FD000E091C916F0E0E353F94E808384E98093B1
:104FE000BC008091CA169091CB16DC011296ED910F
:104FF000FC911397309719F12091CC164DEC56E1A6
:1050000065E019951CC085EA8093BC0018C08091AA
:10501000B9008093210284E08093BC008091CA167D
:105020009091CB16DC011296ED91FC91139730977D
:1050300031F020E040E050E0609121021995FF91AD
:10504000EF91BF91AF919F918F917F916F915F9100
:105050004F913F912F910F900BBE0F900FBE0F906D
:105060001F901895FC01411101C052D3842F90E08C
:105070009C012150310982239323892B09F048D3C5
:10508000413808F045D3128213824483440F4150C3
:1050900045837183608380E090E008955058BB277A
:1050A000AA270ED04DC13ED130F043D120F031F4CB
:1050B0009F3F11F41EF433C10EF4E095E7FB29C1C4
:1050C000E92F4FD180F3BA1762077307840795075A
:1050D00018F071F49EF567C10EF4E0950B2EBA2F0F
:1050E000A02D0B01B90190010C01CA01A0011124EE
:1050F000FF27591B99F0593F50F4503E68F11A169A
:10510000F040A22F232F342F4427585FF3CF46952A
:1051100037952795A795F0405395C9F77EF41F164C
:10512000BA0B620B730B840BBAF09150A1F0FF0F16
:10513000BB1F661F771F881FC2F70EC0BA0F621F02
:10514000731F841F48F4879577956795B795F795F2
:105150009E3F08F0B3CF9395880F08F09927EE0F84
:105160009795879508950CD0EBC0E3D040F0DAD046
:1051700030F021F45F3F19F0CCC0511115C1CFC000
:10518000F0D098F39923C9F35523B1F3951B550B30
:10519000BB27AA2762177307840738F09F5F5F4F0A
:1051A000220F331F441FAA1FA9F333D00E2E3AF04B
:1051B000E0E830D091505040E695001CCAF729D065
:1051C000FE2F27D0660F771F881FBB1F26173707B4
:1051D0004807AB07B0E809F0BB0B802DBF01FF27E4
:1051E00093585F4F2AF09E3F510568F092C0DCC093
:1051F0005F3FECF3983EDCF3869577956795B7951E
:10520000F7959F5FC9F7880F911D9695879597F938
:105210000895E1E0660F771F881FBB1F62177307B1
:105220008407BA0720F0621B730B840BBA0BEE1FC6
:1052300088F7E095089504D06894B111B5C0089539
:1052400098D088F09F5790F0B92F9927B751A0F0C8
:10525000D1F0660F771F881F991F1AF0BA95C9F70A
:1052600012C0B13081F09FD0B1E008959CC0672F8B
:10527000782F8827B85F39F0B93FCCF386957795BA
:105280006795B395D9F73EF49095809570956195A3
:105290007F4F8F4F9F4F0895E89409C097FB3EF4CE
:1052A00090958095709561957F4F8F4F9F4F992373
:1052B000A9F0F92F96E9BB279395F69587957795F1
:1052C0006795B795F111F8CFFAF4BB0F11F460FFB1
:1052D0001BC06F5F7F4F8F4F9F4F16C0882311F009
:1052E00096E911C0772321F09EE8872F762F05C01D
:1052F000662371F096E8862F70E060E02AF09A95B8
:10530000660F771F881FDAF7880F9695879597F9AC
:10531000089597F99F6780E870E060E008959FEF37
:1053200080EC089500240A9416161706180609063C
:10533000089500240A94121613061406050608950B
:10534000092E0394000C11F4882352F0BB0F40F493
:10535000BF2B11F460FF04C06F5F7F4F8F4F9F4FD3
:10536000089557FD9058440F551F59F05F3F71F055
:105370004795880F97FB991F61F09F3F79F08795BC
:105380000895121613061406551FF2CF4695F1DF45
:1053900008C0161617061806991FF1CF86957105D5
:1053A000610508940895E894BB2766277727CB0109
:1053B00097F908950BD0C4CFB5DF28F0BADF18F005
:1053C000952309F0A6CFABCF1124EECFCADFA0F30F
:1053D000959FD1F3950F50E0551F629FF001729F8A
:1053E000BB27F00DB11D639FAA27F00DB11DAA1FA9
:1053F000649F6627B00DA11D661F829F2227B00DF6
:10540000A11D621F739FB00DA11D621F839FA00D80
:10541000611D221F749F3327A00D611D231F849FD0
:10542000600D211D822F762F6A2F11249F57504027
:105430008AF0E1F088234AF0EE0FFF1FBB1F661FC2
:10544000771F881F91505040A9F79E3F510570F07B
:1054500060CFAACF5F3FECF3983EDCF3869577955B
:105460006795B795F795E7959F5FC1F7FE2B880F76
:10547000911D9695879597F90895A1E21A2EAA1B7A
:10548000BB1BFD010DC0AA1FBB1FEE1FFF1FA217F4
:10549000B307E407F50720F0A21BB30BE40BF50BF1
:1054A000661F771F881F991F1A9469F7609570957A
:1054B000809590959B01AC01BD01CF010895EE0F41
:1054C000FF1F881F8BBF0790F691E02D19940F9353
:1054D0001F93CF93DF938230910510F482E090E028
:1054E000E091E016F091E11620E030E0A0E0B0E0BD
:1054F000309719F140815181028113814817590772
:10550000C8F08417950769F4109731F012960C9340
:10551000129713961C9327C00093E0161093E11680
:1055200022C02115310519F04217530718F49A01CA
:10553000BD01EF01DF01F801DBCF21153105F9F0E5
:10554000281B390B2430310580F48A819B81611539
:10555000710521F0FB019383828304C09093E116CF
:105560008093E016FE01329644C0FE01E20FF31F65
:105570008193919322503109398328833AC0209135
:10558000DE163091DF16232B41F420910202309178
:1055900003023093DF162093DE1620910002309133
:1055A00001022115310541F42DB73EB740910402A7
:1055B00050910502241B350BE091DE16F091DF16A9
:1055C000E217F307A0F42E1B3F0B2817390778F0DA
:1055D000AC014E5F5F4F2417350748F04E0F5F1F39
:1055E0005093DF164093DE168193919302C0E0E062
:1055F000F0E0CF01DF91CF911F910F910895CF93EC
:10560000DF93009709F481C0FC0132971382128264
:10561000A091E016B091E116109781F420813181BC
:10562000820F931F2091DE163091DF16281739075D
:1056300051F5F093DF16E093DE1667C0ED0120E030
:1056400030E0CE17DF0740F44A815B819E014115AF
:105650005105F1F0EA01F5CFD383C2834081518136
:10566000840F951FC817D90759F488819981840F31
:10567000951F0296918380838A819B819383828385
:105680002115310529F4F093E116E093E0163DC0B1
:10569000E901FB83EA8349915991C40FD51FEC17A7
:1056A000FD0761F480819181840F951F0296E901C5
:1056B00099838883828193819B838A83E0E0F0E0F1
:1056C00012968D919C911397009719F0FD01DC01C2
:1056D000F7CF8D919C9111979D012E5F3F4F820FC7
:1056E000931F2091DE163091DF162817390769F4D1
:1056F000309729F41092E1161092E01602C013823E
:105700001282B093DF16A093DE16DF91CF91089539
:1057100081E090E0F8947DC3FB01DC0102C00190C0
:105720000D9241505040D8F70895DC0101C06D93AF
:1057300041505040E0F70895FB0151915523B1F0DD
:10574000BF01DC01052E4D91442369F010D0D9F73B
:10575000CD010190002049F04D91411108D0C9F3CD
:10576000FB014111EECF81E090E0019708954025C3
:1057700039F0403229F440294B57465E08F018941E
:105780000895FB01DC010D900020E9F711970190CD
:105790000D920020E1F70895FB01DC0101900D92CC
:1057A0000020E1F70895FB01DC014150504088F0F2
:1057B0008D9181341CF08B350CF4805E61916134E5
:1057C0001CF06B350CF4605E861B611171F3990B54
:1057D0000895881BFCCFCF93DF93CDB7DEB7AE0122
:1057E0004A5F5F4FFA0161917191AF018091E416B8
:1057F0009091E51661D0DF91CF9108950F931F939B
:10580000CF93DF93E091E416F091E516238121FF19
:105810001BC08C01D0E0C0E0F80181918F01609144
:10582000E4167091E516DB011896ED91FC9119973D
:10583000882331F01995892B79F3DFEFCFEFECCF87
:105840008AE01995892B19F08FEF9FEF02C08D2FF9
:105850009C2FDF91CF911F910F9108950F931F936C
:10586000CF93DF93CDB7DEB72E970FB6F894DEBF98
:105870000FBECDBF0E891F8986E08C831A830983F2
:105880008FEF9FE79E838D83AE01465E5F4F688DED
:10589000798DCE01019610D0EF81F885E00FF11FD0
:1058A00010822E960FB6F894DEBF0FBECDBFDF91EB
:1058B000CF911F910F9108952F923F924F925F9237
:1058C0006F927F928F929F92AF92BF92CF92DF9210
:1058D000EF92FF920F931F93CF93DF93CDB7DEB775
:1058E0002B970FB6F894DEBF0FBECDBF6C017B01C6
:1058F0008A01FC0117821682838181FFBFC1CE011C
:1059000001963C01F6019381F70193FD859193FF88
:1059100081917F01882309F4ADC1853239F493FD6B
:10592000859193FF81917F01853221F4B60190E04A
:10593000D6D1E8CF912C212C312CFFE1F315D8F0F2
:105940008B3279F038F4803279F08332A1F4232D50
:1059500020611DC08D3261F0803369F4232D2160F8
:1059600016C0832D8260382EE32DE4603E2E2AC0BF
:10597000F32DF8601DC037FC2DC020ED280F2A3014
:1059800040F08E32B9F436FC75C1232D2064322EDE
:1059900019C036FE06C08AE0989E200D1124922E72
:1059A00011C0EAE02E9E200D1124222EF32DF0626C
:1059B0003F2E08C08C3621F4832D8068382E02C01B
:1059C000883641F4F70193FD859193FF81917F0122
:1059D0008111B3CF982F9F7D9554933028F40C5F9D
:1059E0001F4F9FE399830DC0833631F0833771F0E9
:1059F000833509F055C020C0F801808189830E5F8E
:105A00001F4F88248394912C530112C02801F2E087
:105A10004F0E511CF801A080B18036FE03C0692DE5
:105A200070E002C06FEF7FEFC5014ED14C018201E3
:105A3000F32DFF773F2E15C0280122E0420E511CA6
:105A4000F801A080B18036FE03C0692D70E002C06D
:105A50006FEF7FEFC5012DD14C01F32DF0683F2E84
:105A6000820133FC19C0822D90E088169906A0F4BB
:105A7000B60180E290E033D12A94F5CFF50137FCEE
:105A8000859137FE81915F01B60190E028D1211008
:105A90002A9421E0821A91088114910479F7E1C0D7
:105AA000843611F0893639F5F80137FE07C0608178
:105AB0007181828193810C5F1F4F08C06081718169
:105AC000072E000C880B990B0E5F1F4FF32DFF76EE
:105AD0003F2E97FF09C090958095709561957F4FF7
