S0120000342E53656D65737465722E7372656368
S1130000E5C0000004C1000002C1000000C10000FE
S1130010FEC00000FCC00000FAC00000F8C00000F0
S1130020F6C00000F4C00000F2C00000F0C0000000
S113003060C60000ECC00000EAC00000E8C0000098
S1130040E6C00000E4C00000E2C00000E0C0000020
S1130050DEC00000DCC00000DAC00000D8C0000030
S1130060D6C000000C9478240C94CA24D0C000009C
S1130070CEC00000CCC00000CAC00000C8C0000050
S1130080C6C00000C4C00000C2C00000C0C0000060
S11300900C940E250C946025BAC000000C94AC2975
S11300A0B6C00000B4C00000B2C00000B0C0000080
S11300B0AEC00000ACC00000AAC00000A8C0000090
S11300C0A6C00000A4C00000A2C000000C94A42597
S11300D00C94F6259CC000000C943A260C948C26B3
S11300E096C000006C1A6C1A6C1AA31AAB1AC01AC8
S11300F06C1A6C1AA31AAB1ACE293E2A3E2A3E2A3F
S11301003E2A3E2A3E2A3E2ACE293E2A3E2A3E2A1C
S11301103E2A3E2A3E2A3E2AD0293E2A3E2A3E2A0A
S11301203E2A3E2A3E2A3E2A3E2A3E2A3E2A3E2A8B
S11301303E2A3E2A3E2A3E2AD0293E2A3E2A3E2AEA
S11301403E2A3E2A3E2A3E2A3E2A3E2A3E2A3E2A6B
S11301503E2A3E2A3E2A3E2A3A2A3E2A3E2A3E2A5F
S11301603E2A3E2A3E2A3E2A052A3E2A3E2A3E2A84
S11301703E2A3E2A3E2A3E2A3E2A3E2A3E2A3E2A3B
S11301803E2A3E2A3E2A3E2AF9293E2A3E2A3E2A71
S11301903E2A3E2A3E2A3E2A1D2A0E94AE0D809106
S11301A01312823008F0DFD40E94E91AF6CFCF93FD
S11301B0DF931F92CDB7DEB7CE0101960E94E917F7
S11301C049810E94DE190E94351AF6CF11241FBE00
S11301D0CFEFD1E2DEBFCDBF00E00CBF17E0A0E05F
S11301E0B2E0E0EFF2E600E00BBF02C007900D9230
S11301F0AE3EB107D9F724E1AEEEB7E001C01D92DF
S1130200A038B207E1F70E942B1D0C947631F8CE8A
S113021080916E1490916F14089541E150E060E074
S113022070E0CFC10895CF92DF92EF92FF920F93C7
S11302301F93CF93DF93EC010F2EF6E0CF2ED12C3A
S1130240E12CF12CF02D01E020E041E150E060E0F0
S113025070E017D1DC01CB0181719927AA27BB2754
S11302604197A105B10581F58FE692E09F938F93A5
S11302700E94582E83D0F82EE92E0E94BE1C182FFF
S1130280092F0E94AF1CEF92FF920F931F939F932D
S11302908F938EE892E09F938F930E94582E0E9432
S11302A0AF1C0E94121B0E94BE1C0E94171B66D02A
S11302B00E940D1BCE01B1DF8DB79EB70A960FB613
S11302C0F8949EBF0FBE8DBFDF91CF911F910F9108
S11302D0FF90EF90DF90CF900895CF93DF9300D0FD
S11302E01F92CDB7DEB787EA92E09F938F930E9467
S11302F0582EB4D090936F1480936E140E94FF0E06
S113030069837A838B839C830F900F9042E150E042
S113031060E070E0CE0101960E94151180916E1488
S113032090916F14009791F37EDFF0CFEF92FF92DC
S11303300F93E12CF12C082F20E030E040EC50E04A
S113034068EB72E08DE691E00E94750E0F91FF90CC
S1130350EF900895EF92FF920F93E12CF12C082F68
S113036020E030E040EC50E068EC72E089EC91E091
S11303700E94750E0F91FF90EF9008958091721472
S113038090917314089541E050E060E070E036C14C
S11303900895CF93DF9300D01F92CDB7DEB780EDE1
S11303A092E09F938F930E94582E80E090E00E94E9
S11303B0F1220E94FF0E69837A838B839C830F90C2
S11303C00F9048EA58E460E070E0CE0101960E9484
S11303D015110E94F622809370148111F2CF62E30A
S11303E070E080E090E00E947A1180917114811194
S11303F009C082E794E10E9425238093711408DFE9
S1130400C2DFDFCF8130E9F689ED92E09F938F93CD
S11304100E94582E0F900F90D4CF0F9301110CC04F
S1130420DC01CB0182239323A423B523892B8A2BBC
S11304308B2B79F480E010C0DC01CB018223932361
S1130440A423B523281739074A075B0721F080E066
S113045003C081E001C081E00F910895CF93DF9341
S11304608FE090E0CCD1EC01009739F0FC011192BF
S1130470119211921192CF01A8D2CE01DF91CF91A6
S113048008952F923F924F925F926F927F928F9234
S11304909F92AF92BF92CF92DF92EF92FF920F930F
S11304A01F93CF93DF93EC014A015B01622E702E00
S11304B00E94F90E288039804A805B80A50194014E
S11304C0C201B101AADF8823A1F0662089F1D50118
S11304D0C40180959095A095B09582219321A42183
S11304E0B52188839983AA83BB83C12CD12C76013F
S11304F022C0C114D104E104F104E9F0611004C084
S113050040E050E0BA0104C040E050E060E071E037
S113051071107460482959296A297B299701860139
S1130520CE0104960E941112212C312C210103C00A
S1130530C12CD12C76010E943910CD28CE28CF2889
S113054059F1811101C00FD30E94E5146B017C01A4
S113055091FD1FC00FB6F8940F92C880D980EA802D
S1130560FB80072DA5019401C701B60156DF88233E
S113057071F0662061F080949094A094B0948C20E3
S11305809D20AE20BF2088829982AA82BB820F90D0
S11305900FBE160127015524C201B101DF91CF918D
S11305A01F910F91FF90EF90DF90CF90BF90AF908D
S11305B09F908F907F906F905F904F903F902F907F
S11305C008950F931F930FB6F8940F92FC010081C6
S11305D01181228133814095509560957095402317
S11305E051236223732340835183628373830F9067
S11305F00FBEC901B8011F910F9108954F925F92E8
S11306006F927F92AF92BF92CF92DF92EF92FF925E
S11306100F931F93CF93DF93EC016A017B018C014D
S1130620095F1F4F0E94F90EEB85FC858881998133
S1130630AA81BB81C82AD92AEA2AFB2AC882D9827C
S1130640EA82FB82C12CD12C76013DC0A480B58006
S113065080819181A281B381AC01BD017727B2FD74
S11306600EC0488059806A807B80442255226622CD
S1130670772245284628472889F420E012C048807C
S113068059806A807B804422552266227722441551
S113069055056605770521F020E003C021E001C07F
S11306A021E0222371F0B0FF04C0C42AD52AE62A2F
S11306B0F72A488159816A817B817260CF010E9447
S11306C04C13EA2DFB2DE017F10709F0BFCFC094BE
S11306D0D094E094F09488819981AA81BB81C82246
S11306E0D922EA22FB22C882D982EA82FB820E94B2
S11306F03910688179818A819B81DF91CF911F9123
S11307000F91FF90EF90DF90CF90BF90AF907F90CC
S11307106F905F904F900895EAEFF7E0AEEFB7E087
S1130720B183A08313821282EEEBF1E1F093F90717
S1130730E093F807138212821182108280EC99E010
S113074013969C938E931297ED93FC939093F507D5
S11307508093F4079093F7078093F60780E090E87E
S11307609093EF078093EE070895CF93DF93EC0106
S1130770AAEFB7E001C0DF01ED91FC911197EC17EE
S1130780FD07C8F312968D919C9113979D01280F34
S1130790391FC217D30749F42A813B81820F931F63
S11307A013969C938E931297ED018A819B819E01EF
S11307B0280F391FE217F307C1F42091F80730918D
S11307C0F907E217F30771F022813381820F931F37
S11307D09B838A83ED91FC91119780819181998308
S11307E0888305C03983288302C0F983E883CA1744
S11307F0DB0711F0CD93DC93DF91CF910895EF9255
S1130800FF920F931F93CF93DF938C010E94F90EF5
S11308108091F8079091F907892B09F47DDF809185
S1130820EE079091EF0780239123892B09F076C07E
S11308300115110549F0C80104960817190718F0A5
S113084000E010E001C08C010115110509F469C034
S11308508091F6079091F7078017910708F464C018
S1130860C091FA07D091FB07EAEFF7E002C0FE015E
S1130870EC018A819B818017910720F488819981FA
S11308800097A9F78091F8079091F907C817D9073D
S113089009F44DC0E080F18084E0E80EF11C888109
S11308A09981918380832A813B81201B310B2930DC
S11308B0310548F0CE01800F911FFC013383228360
S11308C01B830A8352DF2A813B818091F607909132
S11308D0F707821B930B9093F7078093F6074091D9
S11308E0F4075091F5078417950720F49093F507C2
S11308F08093F4078091EE079091EF07282B392B12
S11309003B832A83198218828091F2079091F3071E
S113091001969093F3078093F2070BC0E12CF12C1E
S113092008C0E12CF12C05C0E12CF12C02C0E12C13
S1130930F12C0E943910E114F10411F40E94F51A0B
S1130940C701DF91CF911F910F91FF90EF90089510
S11309500F931F93CF93DF93009791F1EC012497AA
S11309604A815B812091EE073091EF07BA0162233F
S11309707323672B29F168817981672B09F5209509
S11309803095242335233B832A830E94F90E8A81E0
S11309909B812091F6073091F707820F931F909364
S11309A0F7078093F607CE01E0DE8091F00790917F
S11309B0F10701969093F1078093F0070E94391094
S11309C0DF91CF911F910F910895FC0103969283BB
S11309D081834FEF5FEFBA0143835483658376834A
S11309E0908787839287818710820895FC011386FC
S11309F0128608950F931F93CF93DF93EB01088121
S1130A0019812A813B810F3F4FEF140724073407D4
S1130A1021F4FC01A185B28511C0DC01139601C04B
S1130A20DF011496ED91FC9115974081518162810B
S1130A307381041715072607370790F71496ED916D
S1130A40FC911597FD83EC83D783C683BF83AE8364
S1130A501596DC93CE9314979B878A87FC0120819B
S1130A602F5F2083DF91CF911F910F910895CF9332
S1130A70DF93FC01A285B385C481D58186819781EA
S1130A809F838E83C681D781848195819D838C8346
S1130A9011968D919C911297E817F90731F486818C
S1130AA0978112969C938E931197138612868C913C
S1130AB081508C938C91DF91CF910895A89590ECFF
S1130AC088E10FB6F894A895809360000FBE9093C8
S1130AD060000895FC016083319770833197108220
S1130AE031971082319720E8208331971082319713
S1130AF0108231971082779740833197508386977D
S1130B000895DCDFA0918112B0918212CD91CDBF06
S1130B10DD91DEBFFF91EF91DF91CF91BF91AF9156
S1130B209F918F917F916F915F914F913F912F9101
S1130B301F910F91FF90EF90DF90CF90BF90AF90F7
S1130B409F908F907F906F905F904F903F902F90E9
S1130B501F900F900CBE0F900BBE0F900FBE0F9006
S1130B60089581E008950F920FB6F8940F920BB692
S1130B700F920CB60F921F9211242F923F924F9214
S1130B805F926F927F928F929F92AF92BF92CF9219
S1130B90DF92EF92FF920F931F932F933F934F9304
S1130BA05F936F937F938F939F93AF93BF93CF93F1
S1130BB0DF93EF93FF93A0918112B09182120DB64F
S1130BC00D920EB60D920E949511A0918112B091D2
S1130BD08212CD91CDBFDD91DEBFFF91EF91DF9108
S1130BE0CF91BF91AF919F918F917F916F915F91C1
S1130BF04F913F912F911F910F91FF90EF90DF90B4
S1130C00CF90BF90AF909F908F907F906F905F90A8
S1130C104F903F902F901F900F900CBE0F900BBEE3
S1130C200F900FBE0F9008950F920FB6F8940F9285
S1130C300BB60F920CB60F921F9211242F923F9273
S1130C404F925F926F927F928F929F92AF92BF92D8
S1130C50CF92DF92EF92FF920F931F932F933F93C4
S1130C604F935F936F937F938F939F93AF93BF93B0
S1130C70CF93DF93EF93FF93A0918112B0918212EF
S1130C800DB60D920EB60D9213BE0E940D0F81117A
S1130C900E949511A0918112B0918212CD91CDBF85
S1130CA0DD91DEBFFF91EF91DF91CF91BF91AF91C5
S1130CB09F918F917F916F915F914F913F912F9170
S1130CC01F910F91FF90EF90DF90CF90BF90AF9066
S1130CD09F908F907F906F905F904F903F902F9058
S1130CE01F900F900CBE0F900BBE0F900FBE0F9075
S1130CF008959ADF18950FB6F8940F92FC01868D2B
S1130D00811102C081E001C080E00F900FBE089500
S1130D100FB6F8940F92FC01268D878D281302C01C
S1130D2081E001C080E00F900FBE08950F931F93E0
S1130D30CF93DF93EC01042F1E8D48A141110CC009
S1130D4088819981892B09F042C08C819D810E9400
S1130D508A141D821C8242C0011117C050E08A818E
S1130D609B810E94F92D28A18A819B81820F911D6C
S1130D709B838A832C813D818217930750F188815C
S1130D8099819B838A8380E029C050E08E819F8172
S1130D900E94F92D88A190E09195819591092E8169
S1130DA03F81280F391F3F832E834881598124179F
S1130DB0350730F42C813D81820F931F9F838E83EE
S1130DC0023049F4112349F0115080E007C080E05B
S1130DD005C080E003C080E001C080E01F5F1E8F7B
S1130DE0DF91CF911F910F910895FC0140A14423FD
S1130DF0A9F050E026813781240F351F37832683DD
S1130E00848195812817390720F080819181978307
S1130E108683CB01668177810C94F92D08951F9305
S1130E20CF93DF93EC010FB6F8940F921AA10BC085
S1130E308B89882351F0CE0143960E949D12811123
S1130E400E947314115011169CF38FEF8AA30F9014
S1130E500FBE0FB6F8940F9219A10BC08885882392
S1130E6051F0CE0108960E949D1281110E947314C4
S1130E70115011169CF38FEF89A30F900FBEDF91D1
S1130E80CF911F910895CF93DF93EC010FB6F8949F
S1130E900F92E881F9818F8D28A190E030E0829F44
S1130EA0A001839F500D929F500D11244E0F5F1F80
S1130EB05D834C831E8EFB83EA830197289FA001E8
S1130EC0299F500D389F500D1124CF01840F951F79
S1130ED09F838E838FEF89A38AA361110BC08885BA
S1130EE0882371F0CE0108960E949D12882341F058
S1130EF03ADE06C0CE01089668DDCE01439665DD74
S1130F000F900FBE81E0DF91CF9108950F931F934F
S1130F10F801611103C01183008302C0518340832F
S1130F20878F60A361E0CF01AEDF1F910F91089519
S1130F30DF92EF92FF920F931F93CF93DF93F82EDC
S1130F40E62ED42E869FC0011124839658DCEC0132
S1130F50009741F08C012D2DAC014D5D5F4F6E2D3E
S1130F608F2DD4DFCE01DF91CF911F910F91FF9090
S1130F70EF90DF900895CF92DF92EF92FF920F935C
S1130F801F93CF93DF93CDB7DEB729970FB6F894AD
S1130F90DEBF0FBECDBF7C016B012E833F8348872C
S1130FA0598710E00FB6F8940F92F701968D878D4C
S1130FB0981710F00230B1F4402FB601C701B6DE25
S1130FC0F7019389992341F0C70143960E949D122A
S1130FD0882321F0C8DD02C08111C5DD0F900FBE4A
S1130FE081E04BC08E819F81A885B985892B8A2B8E
S1130FF08B2B21F40F900FBE80E03FC0111105C070
S1131000CE0101960E94FC1311E00F900FBEF1D6A1
S11310100FB6F8940F92F70181A18F3F09F411A242
S1131020F70182A18F3F09F412A20F900FBEBE01F7
S11310306A5F7F4FCE0101960E940D14811119C081
S1131040C70166DE882381F04E815F8168857985DA
S1131050C70108960E94FA11C701E1DE0E94391007
S11310608111A0CF80DD9ECFC701D9DE0E94391047
S113107099CFC701D4DEFDD780E029960FB6F89446
S1131080DEBF0FBECDBFDF91CF911F910F91FF90B7
S1131090EF90DF90CF900895EF92FF920F931F93FC
S11310A0CF93DF938A01FC01568D378D531710F0CF
S11310B02230F9F4422F7801EC011AA18E8DCE0171
S11310C035DE1F3F81F48B898823A9F0CE01439636
S11310D00E949D12882389F0E114F10481F081E0DB
S11310E0F70180830DC0FF24F394F10EFAA281E08E
S11310F007C080E005C081E003C081E001C081E059
S1131100DF91CF911F910F91FF90EF900895CF92AF
S1131110DF92EF92FF920F931F93CF93DF93CDB79C
S1131120DEB729970FB6F894DEBF0FBECDBF8C0192
S11311306B012E833F8348875987E12C0FB6F894BF
S11311400F92F801F68CFF2099F0B601C8014DDE2C
S1131150FA94F801F68E8085882331F0C801089648
S11311600E949D128111FFDC0F900FBE81E04FC0E1
S11311708E819F81A885B985892B8A2B8B2B21F49D
S11311800F900FBE80E043C0E11006C0CE0101966F
S11311900E94FC13EE24E3940F900FBE2AD60FB6E0
S11311A0F8940F92F80181A18F3F09F411A2F8017C
S11311B082A18F3F09F412A20F900FBEBE016A5F95
S11311C07F4FCE0101960E940D14811117C0C801F2
S11311D092DD882379F04E815F8168857985C80125
S11311E043960E94FA11C8011ADE43D78111A6CF93
S11311F0BADCA4CFC80113DE3CD7A0CFC8010FDEF0
S113120038D7C80178DD882309F498CF80E029967F
S11312100FB6F894DEBF0FBECDBFDF91CF911F9103
S11312200F91FF90EF90DF90CF900895CF93DF93CD
S1131230EC010FB6F8940F9289A18F3F09F419A21B
S11312408AA18F3F09F41AA20F900FBE8E8D8111CF
S113125004C0CE0143960E945B12CE01E0DDDF9113
S1131260CF910895FC014481558122813381240F5B
S1131270351F80819181B901681B790BCB016417FB
S1131280750710F0841B950B08950F93FC018FE0F4
S1131290DF011D928A95E9F7758764875583448336
S11312A03783268306870F910895AF92BF92CF921A
S11312B0DF92EF92FF920F931F93CF93DF936C0112
S11312C05B017A01FC01C281D381048115810C1B6D
S11312D01D0B4017510708F48A01F6018485958592
S11312E0A801B5018C0F9D1F0E94F92D0E151F0535
S11312F058F4A701401B510BB501600F711FF60193
S1131300848595850E94F92DCE018E0D9F1DF601D1
S1131310248135818217930710F0821B930BF60109
S113132093838283C701DF91CF911F910F91FF9027
S1131330EF90DF90CF90BF90AF900895CF92DF925F
S1131340EF92FF920F931F93CF93DF931F921F92FD
S1131350CDB7DEB77C016B015A8349832115310572
S1131360C1F0FC01868580FD08C04217530708F4CC
S11313709A013A83298381E00FC02017310758F07E
S113138042E050E0BE016F5F7F4FC7018EDF81E016
S113139003C080E001C080E0882331F049815A8194
S11313A0B601C70182DF02C080E090E00F900F9089
S11313B0DF91CF911F910F91FF90EF90DF90CF902D
S11313C00895AF92BF92CF92DF92EF92FF920F9364
S11313D01F93CF93DF937C015B01E901421753070D
S11313E008F4EA01209781F1F701008111818481D9
S11313F09581801B910B6E018C179D0708F46C017D
S1131400F70164857585600F711FA601C5010E94EF
S1131410F92DCC16DD0658F4AE014C195D09F7011F
S113142064857585C5018C0D9D1D0E94F92D0C0FD9
S11314301D1FF701848195810817190710F0081BF7
S1131440190BF70111830083CE01DF91CF911F9116
S11314500F91FF90EF90DF90CF90BF90AF900895E1
S11314606F927F928F929F92AF92BF92CF92DF92B0
S1131470EF92FF920F931F93CF93DF931F921F92CC
S1131480CDB7DEB76C014B015A0179010115110585
S1131490B1F0FC0160807180A801BE016F5F7F4FD5
S11314A090DF89819A81E01AF10AA816B90630F40E
S11314B0F60171826082A12CB12C01C05C019701FC
S11314C0A501B401C6017DDF0F900F90DF91CF918C
S11314D01F910F91FF90EF90DF90CF90BF90AF904E
S11314E09F908F907F906F900895CF92DF92EF92AC
S11314F0FF920F93CF93DF93EC016B01413011F412
S113150001E001C000E0C114D10419F4CC24C39457
S1131510D12CCE014096C817D90720F421966FD953
S11315207C0102C0E12CF12CE114F10439F09601A4
S1131530AE01B701615F7F4FC701A7DEC701DF912D
S1131540CF910F91FF90EF90DF90CF9008950F937C
S11315500FB6F8940F92FC0120853185232B71F48A
S113156022853385232B61F426813781448155817B
S113157064857585068589DE81E003C080E001C04D
S113158080E00F900FBE0F910895FC0124813581F6
S113159080819181820F931F42815381841B950B1B
S11315A001978217930710F0821B930B08952F92D3
S11315B03F924F925F926F927F928F929F92AF92DF
S11315C0BF92CF92DF92EF92FF920F931F93CF932C
S11315D0DF93CDB7DEB72B970FB6F894DEBF0FBEFF
S11315E0CDBF4C017B876A871A010E831F8328872E
S11315F03987FC01848195810197268520FF0CC0E1
S11316002A01F2E04F0E511C8415950558F41E82F0
S11316101F821886198606C08417950710F02A01C0
S113162001C02C018E819F81A885B985892B8A2BC5
S11316308B2B09F438C0CE0101960E94E6130FB635
S1131640F8940F92C401A1DF3C018415950540F57F
S113165060E080E090E00E94CF170E947714F401CC
S1131660938782870F900FBEAE80BF80C884D984D1
S1131670E12CF12C00E010E0980140E050E0BA01C8
S113168080E00E940F15F40113861286BE016A5F82
S11316907F4FCE0101960E940D14882381F205C06C
S11316A00F900FBE02C0612C712C6114710419F4E7
S11316B0C4016BDF3C0182019301A1016A857B8532
S11316C0C4013CDE6C01892BE9F0C401CBDDF401DB
S11316D02681378182179307A8F08BD3F401808584
S11316E09185892B71F080859185E12CF12C00E0A6
S11316F020E030E0A90160E00E94B615F4011186F3
S11317001086B7D4C6012B960FB6F894DEBF0FBE71
S1131710CDBFDF91CF911F910F91FF90EF90DF909C
S1131720CF90BF90AF909F908F907F906F905F907D
S11317304F903F902F900895AF92BF92CF92DF9237
S1131740EF92FF920F931F93CF93DF93EC017B01F2
S11317505A0169018E8580FF04C08A010E5F1F4F04
S113176001C08A01CE0111DF9C01A501B701CE01A0
S1131770E5DD5C01892BC1F0CE0174DD2E813F8152
S11317808217930788F088859985892B69F0888565
S11317909985E12CF12C00E020E030E0A90160E023
S11317A00E94AD1619861886C501DF91CF911F914D
S11317B00F91FF90EF90DF90CF90BF90AF9008957E
S11317C04F925F926F927F928F929F92AF92BF924D
S11317D0CF92DF92EF92FF920F931F93CF93DF93F9
S11317E0EC012B013A01580169018E8580FF05C087
S11317F06894882481F8912C02C0812C912CA11426
S1131800B104C104D10441F10FB6F8940F92CE0192
S113181029DD7C018816990648F060E080E090E0BC
S11318200E94CF170E947714998788870F900FBE64
S11318308E149F04A0F0E12CF12C00E010E098013C
S113184040E050E0BA0180E00E940F151986188626
S1131850CE0108DD7C0103C0CE0104DD7C018E14C1
S11318609F04E8F484019701A301B201CE01F8DDDD
S11318706C01892BB1F0BDD28A859B85892B69F0D7
S11318808A859B85E12CF12C00E020E030E0A90161
S113189060E00E94B6151B861A86EBD302C0C12CE9
S11318A0D12CC601DF91CF911F910F91FF90EF9042
S11318B0DF90CF90BF90AF909F908F907F906F906C
S11318C05F904F900895E091FB11F091FC1180819D
S11318D081110CC08FEF9FEFDC018093C5119093B1
S11318E0C611A093C711B093C8110895E091FB11DC
S11318F0F091FC110780F085E02D80819181A28117
S1131900B3818093C5119093C611A093C711B0936E
S1131910C8110895CF93DF93EC018B8D9C8D18D85B
S1131920CE0116D8DF91CF9108954F925F926F92B6
S11319307F928F929F92AF92BF92CF92DF92EF925B
S1131940FF920F93CF93DF932C015B014A0139017E
S1131950E60165EA70E08B8D9C8D0E94022E8B8DD2
S11319609C8D21E0821A9108880E991EA114B1045D
S113197089F415C0822F90E0F501E80FF91F30813A
S1131980DE01A80FB91F5D963C938081882329F05E
S11319902F5F01C020E0203168F31CA601C01D8E1A
S11319A00A3008F009E00A8F0DA71EA6CE010296A0
S11319B01DD8CE010E961AD8DB87CA878AE090E03C
S11319C0A0E0B0E0801B9109A109B1098E879F872F
S11319D0A88BB98BDF8BCE8B84E0FE01BF96DF0131
S11319E01D928A95E9F71BAAA301B201C40172D81A
S11319F099838883E114F10419F0F701D183C0833A
S1131A00DF91CF910F91FF90EF90DF90CF90BF9037
S1131A10AF909F908F907F906F905F904F900895BC
S1131A20CF93C0E009C02BE0C29FC00111248D5E9A
S1131A309D4E0E94E504CF5FCA30A8F388E092E18E
S1131A400E94E5048DEF91E10E94E5048EEE91E1A0
S1131A500E94E50483EE91E10E94E50487ED91E1A3
S1131A600E94E50488E092E19093FC118093FB11BD
S1131A708DEF91E19093FA118093F911CF9108952C
S1131A80CF93DF93EC010FB6F8940F928091D611A7
S1131A908F5F8093D6118091811290918212892B4D
S1131AA051F4D0938212C09381128091D611813067
S1131AB091F4B6DF10C08091D01181110CC0E09177
S1131AC08112F0918212928D8A8D891720F0D09321
S1131AD08212C09381128091C9118F5F8093C911C2
S1131AE0EA8D8091D1118E1710F4E093D1118BE01F
S1131AF08E9FF0011124ED5EFD4E0180F281E02DF8
S1131B00FF83EE832681378139872887A681B781B1
S1131B109E012E5F3F4F15963C932E931497378367
S1131B202683EA8D8E9FF0011124ED5EFD4EFD8724
S1131B30EC8780818F5F80830F900FBE8091D011DE
S1131B40882349F0E0918112F0918212928D8A8D5E
S1131B50981708F408D8DF91CF910895CF93DF93B5
S1131B601BC00FB6F8940F92E091EA11F091EB11BB
S1131B70C085D185CE0102960E9437058091D61189
S1131B8081508093D6118091E21181508093E211AB
S1131B900F900FBECE01BEDE8091E2118111E1CF24
S1131BA0DF91CF9108958F929F92AF92BF92CF927F
S1131BB0DF92EF92FF92CF93DF936B017C01C42FEE
S1131BC08090D2119090D311A090D411B090D511DF
S1131BD0809181129091821202960E9437058FEFB4
S1131BE0C816D806E806F806B1F5CC23A1F1E7ED4E
S1131BF0F1E1A181B281C0918112D0918212BF839F
S1131C00AE83C0918112D091821216968D919C91CF
S1131C101797998788871696CD91DC9117978091AD
S1131C2081129091821202969D838C8380918112FD
S1131C3090918212029617969C938E931697A09178
S1131C408112B09182121D96FC93EE931C978081B1
S1131C508F5F80833FC0C80CD91CEA1CFB1CE09139
S1131C608112F0918212C282D382E482F582C81476
S1131C70D904EA04FB0468F4609181127091821221
S1131C808091F9119091FA116E5F7F4F0E94FA04CE
S1131C9021C060918112709182128091FB11909108
S1131CA0FC116E5F7F4F0E94FA048091C5119091E0
S1131CB0C611A091C711B091C811C816D906EA0679
S1131CC0FB0640F4C092C511D092C611E092C71130
S1131CD0F092C811DF91CF91FF90EF90DF90CF90F9
S1131CE0BF90AF909F908F9008952F923F924F9204
S1131CF05F926F927F928F929F92AF92BF92CF9298
S1131D00DF92EF92FF920F93CF93DF933C011B017D
S1131D104A012901CA010E94FF036C01892B71F059
S1131D2084E390E00E94FF03EC01892B19F0DC8E20
S1131D30CB8E06C0C6010E94A80402C0C0E0D0E059
S1131D40209761F0A12CB12C6E019201A401B10184
S1131D50C301EBDDCE0194DE81E001C08FEFDF91A2
S1131D60CF910F91FF90EF90DF90CF90BF90AF9005
S1131D709F908F907F906F905F904F903F902F90A7
S1131D800895EF92FF920F930F2EF3ECEF2EF1E1F3
S1131D90FF2EF02D00E020E030E040EC50E065EF55
S1131DA072E08DEC90E0A1DF813011F40E94731891
S1131DB08130C9F4F8948FEF9FEFDC018093C51153
S1131DC09093C611A093C711B093C81181E080937A
S1131DD0D0111092D2111092D3111092D4111092EA
S1131DE0D5110E948105809106020F91FF90EF901A
S1131DF008958091C2118F5F8093C21108950FB628
S1131E00F8940F926091D2117091D3118091D411F2
S1131E109091D5110F900FBE0895CF92DF92EF925B
S1131E20FF92CF93DF938091C211811105C1C090BD
S1131E30D211D090D311E090D411F090D5118FEF3E
S1131E40C81AD80AE80AF80AC092D211D092D3115B
S1131E50E092D411F092D511C114D104E104F1043B
S1131E60B1F48091FB119091FC112091F911309102
S1131E70FA113093FC112093FB119093FA11809383
S1131E80F9118091CA118F5F8093CA111CDD809172
S1131E90C5119091C611A091C711B091C811C8166F
S1131EA0D906EA06FB0620F480E0B2C081E001C056
S1131EB080E0E091FB11F091FC11908191110CC034
S1131EC04FEF5FEFBA014093C5115093C611609371
S1131ED0C7117093C8119CC0E091FB11F091FC11E3
S1131EE00780F085E02D0084F185E02D4281538147
S1131EF064817581C416D506E606F70648F4409356
S1131F00C5115093C6116093C7117093C81180C056
S1131F10A485B585C681D781208531853F832E83ED
S1131F20C085D185268137813D832C8311964D91BF
S1131F305C9112979F012E5F3F4F4217530731F474
S1131F404085518512965C934E931197158614869D
S1131F509C9191509C93A08DB18D109709F1C289E9
S1131F60D389448955895F834E83C489D58942893D
S1131F7053895D834C8311966D917C911297AF01C7
S1131F80425F5F4F6417750731F44489558912968F
S1131F905C934E931197118E108E9C9191509C934B
S1131FA0A28D9091D1119A1710F4A093D1119BE0B6
S1131FB09A9FD0011124AD5EBD4E11960D90BC9137
S1131FC0A02DB783A68316964D915C9117975187E0
S1131FD040871696CD91DC9117973D832C831796F5
S1131FE03C932E931697A28D9A9FD0011124AD5E37
S1131FF0BD4EB587A4879C919F5F9C93228DE091F1
S11320008112F0918212928D291708F04FCF51CF8F
S1132010E0918112F0918212E28D9BE0E99FF00140
S11320201124ED5EFD4E9081923008F081E0909194
S1132030CB11911116C016C08091CC119091CD1185
S1132040A091CE11B091CF110196A11DB11D809325
S1132050CC119093CD11A093CE11B093CF1180E009
S113206001C081E0DF91CF91FF90EF90DF90CF909E
S11320700895CF92DF92EF92FF92CF93DF930FB642
S1132080F8940F928091C21181508093C211809173
S1132090C2118111BEC08091D611811188C0BCC00B
S11320A0E091F511F091F6110084F185E02DA08DF9
S11320B0B18DC289D389848995899F838E83C4898C
S11320C0D589828993899D838C8311962D913C9126
S11320D01297CF010E962817390731F48489958910
S11320E012969C938E931197118E108E8C91815021
S11320F08C93A485B585C681D781808591859F837E
S11321008E83C085D185868197819D838C8311962A
S11321108D919C9112979F012E5F3F4F82179307D9
S113212031F48085918512969C938E931197158630
S113213014868C9181508C93A28D8091D1118A1731
S113214010F4A093D1118BE08A9FD0011124AD5ECD
S1132150BD4E11960D90BC91A02DB783A683169603
S11321604D915C911797518740871696CD91DC91DC
S113217017973D832C8317963C932E931697A28D25
S11321808A9FD0011124AD5EBD4EB587A4878C9182
S11321908F5F8C93928DA0918112B09182125A9686
S11321A08C91981730F081E08093CB1102C0E0E06D
S11321B0F0E08091EE11811173CFEF2B09F083DBF6
S11321C0C090CC11D090CD11E090CE11F090CF11F1
S11321D0C114D104E104F104A1F01FDE882319F035
S11321E081E08093CB1181E0C81AD108E108F1089D
S11321F0A1F71092CC111092CD111092CE11109221
S1132200CF118091CB11882331F00E94B30581E076
S113221003C080E001C080E00F900FBEDF91CF913A
S1132220FF90EF90DF90CF9008958F929F92AF929E
S1132230BF92CF92DF92EF92FF921F93CF93DF93DF
S1132240EC016A017B01D5DD8090D2119090D3110D
S1132250A090D411B090D51188819981AA81BB81B5
S1132260AC01BD014C0D5D1D6E1D7F1D88169906C8
S1132270AA06BB0660F4481759076A077B0798F457
S113228084169506A606B70680F010E013C048171A
S113229059076A077B0758F084169506A606B70601
S11322A040F010E007C010E005C011E003C011E0E9
S11322B001C011E0488359836A837B83112341F071
S11322C0CB01BA01681979098A099B0940E06BDCE2
S11322D0D0DE811102C00E94B305812FDF91CF911E
S11322E01F91FF90EF90DF90CF90BF90AF909F90A1
S11322F08F900895CF92DF92EF92FF926B017C0151
S1132300672B682B692B39F074DD40E0C701B601F7
S11323104ADCAFDE01C080E0811102C00E94B30537
S1132320FF90EF90DF90CF9008958091C2118823A1
S113233021F081E08093CB1108951092CB11E091AC
S11323408112F091821220813181E0918112F09109
S11323508212838D948D8217930760F060918112AD
S113236070918212635E7F4F8091811290918212EC
S11323700E94011B8091D11101C08150282F30E0AF
S11323809BE0929FF001939FF00D1124ED5EFD4EB2
S11323909081992391F39BE0929FA001939F500D0C
S11323A01124DF010180F281E02D0480F581E02D0C
S11323B01296FC93EE9311974A5E5D4EE417F5076F
S11323C029F444815581FD01528341839BE0929F0E
S11323D0F001939FF00D1124ED5EFD4E0180F2811A
S11323E0E02D2085318530938212209381128093D1
S11323F0D1110895CF92DF92EF92FF926A017B018F
S11324006091811270918212625F7F4F0E94FA0480
S113241041E0C701B601C7DBFF90EF90DF90CF909A
S113242008950F931F93CF93DF93FC01A091811222
S1132430B091821270681E964D935D936D937C9358
S11324405197A181B281C0918112D0918212BB8B2C
S1132450AA8BC0918112D091821216968D919C9173
S113246017979D8B8C8B1696CD91DC911797809145
S11324708112909182120E969D838C838091811299
S1132480909182120E9617969C938E931697A09114
S11324908112B09182125996FC93EE9358978081E1
S11324A08F5F808341E0C901B8017DDBDF91CF916B
S11324B01F910F910895CF93DF93FC01CB01BA01D3
S11324C0A181B281C0918112D0918212BB8BAA8B5F
S11324D0C0918112D091821216964D915C911797FA
S11324E05D8B4C8B1696CD91DC91179740918112A0
S11324F050918212425F5F4F5D834C834091811201
S113250050918212425F5F4F17965C934E931697D9
S1132510A0918112B09182125996FC93EE93589730
S113252030813F5F3083222319F06FEF7FEFCB01BF
S1132530422F39DBDF91CF910895CF93DF93DC01F4
S11325401796ED91FC9118970084F185E02DA08DEC
S1132550B18DC289D389848995899F838E83C489E7
S1132560D589828993899D838C8311968D919C91C1
S113257012979F01225F3F4F8217930731F484899A
S1132580958912969C938E931197118E108E8C912F
S113259081508C938091C211811152C0A485B5855C
S11325A0C681D781808591859F838E83C085D1859F
S11325B0868197819D838C8311968D919C9112972E
S11325C09F012E5F3F4F8217930731F480859185D9
S11325D012969C938E931197158614868C91815034
S11325E08C93A28D8091D1118A1710F4A093D111EC
S11325F08BE08A9FD0011124AD5EBD4E11960D90E3
S1132600BC91A02DB783A68316964D915C91179724
S1132610518740871696CD91DC9117973D832C8383
S113262017963C932E931697A28D8A9FD00111245E
S1132630AD5EBD4EB587A4878C918F5F8C931CC013
S11326404EEE51E1DA011196CD91DC911297D38BC4
S1132650C28B8E819F81958B848B8E819F81DC01BF
S113266015963C932E9314973F832E83518F408F5E
S1132670DA018C918F5F8C93928DE0918112F091AD
S11326808212828D891720F481E08093CB1101C0DE
S113269080E0DF91CF910895CF93DF93DC017068E0
S11326A04D935D936D937C9313971896ED91FC91E4
S11326B019971A964D915C911B9714968D919C9144
S11326C0159716962D913C911797EC013F832E8315
S11326D016968D919C91179714962D913C91159770
S11326E0EC013D832C83EA0189819A81A817B907FB
S11326F031F416968D919C9117979A8389831B9632
S11327001C921E921A97DA018C9181508C93A485A5
S1132710B585C681D781808591859F838E83C08549
S1132720D185868197819D838C8311968D919C910F
S113273012979F012E5F3F4F8217930731F48085D4
S1132740918512969C938E931197158614868C917D
S113275081508C93A28D8091D1118A1710F4A0938B
S1132760D1118BE08A9FD0011124AD5EBD4E11962C
S11327700D90BC91A02DB783A68316964D915C91C4
S11327801797518740871696CD91DC9117973D8313
S11327902C8317963C932E931697A28D8A9FD00173
S11327A01124AD5EBD4EB587A4878C918F5F8C9349
S11327B0928DE0918112F0918212828D891718F422
S11327C081E08093CB11DF91CF9108950FB6F894F7
S11327D00F922091CA11FC0120834091D211509193
S11327E0D3116091D4117091D511418352836383C5
S11327F074830F900FBE08952091CA11FC012083A9
S11328004091D2115091D3116091D4117091D5118E
S1132810418352836383748308958F929F92AF920E
S1132820BF92CF92DF92EF92FF920F931F93CF93B9
S1132830DF93FB010FB6F8940F92C090D211D090A1
S1132840D311E090D411F090D511DC0111960D91C3
S11328501D912D913C91149746015701801A910ABC
S1132860A20AB30A40815181628173814F3FBFEF55
S11328705B076B077B0739F1EC01B881A091CA11A2
S1132880BA1759F0C016D106E206F30630F01082EA
S113289011821282138281E017C084169506A6065F
S11328A0B70658F4481959096A097B0940835183CA
S11328B062837383A1DF80E007C0108211821282D9
S11328C0138281E001C080E00F900FBEDF91CF91B1
S11328D01F910F91FF90EF90DF90CF90BF90AF903A
S11328E09F908F90089581E08093CB1108958091FB
S11328F081129091821208958091D011882331F031
S11329008091C211811104C082E0089581E008958C
S113291080E008950F931F93CF93DF93FC01892BDD
S113292009F449C086A5815086A7228D95A529174B
S113293009F443C0811143C0EF018F010E5F1F4FA3
S1132940C8010E943705EDA5EA8F8AE090E0A0E077
S1132950B0E08E1B9109A109B1098E879F87A88BCE
S1132960B98B8091D1118E1710F4E093D1118BE0C3
S11329708E9FF0011124ED5EFD4E0180F281E02D69
S1132980FF83EE832681378139872887A681B78123
S113299015961C930E93149717830683EA8D8E9FC6
S11329A0F0011124ED5EFD4EFD87EC8780818F5F81
S11329B0808381E005C080E003C080E001C080E046
S11329C0DF91CF911F910F910895CF92DF92EF92F3
S11329D0FF92E0918112F091821266857785808959
S11329E09189E0918112F0918212A0918112B091AB
S11329F082125A962C910F2EFAE0CF2ED12CE12C74
S1132A00F12CF02DC21AD108E108F108C686D78648
S1132A10E08AF18AFF90EF90DF90CF9008954F9273
S1132A205F926F927F92AF92BF92CF92DF92EF92BA
S1132A30FF920F931F93CF93DF93280139010FB6B1
S1132A40F8940F92E0918112F0918212C82FD0E095
S1132A50EC0FFD1F83A9823071F1E0918112F09196
S1132A608212CE01880F991F880F991FE80FF91F52
S1132A7087A590A9A1A9B2A9409550956095709594
S1132A80482359236A237B2347A750AB61AB72AB1E
S1132A90E0918112F0918212EC0FFD1F81E083AB73
S1132AA0A114B104C104D10431F041E0C601B5015F
S1132AB07AD80E94B3050F900FBE0FB6F8940F9208
S1132AC0E114F104A1F0E0918112F0918212CE019F
S1132AD0880F991F880F991FE80FF91F87A590A9E0
S1132AE0A1A9B2A9F70180839183A283B383E09162
S1132AF08112F0918212EC0FFD1F83A98230E9F458
S1132B00E0918112F0918212CE01880F991F880FF3
S1132B10991FE80FF91F87A590A9A1A9B2A940940C
S1132B20509460947094482259226A227B2247A6CA
S1132B3050AA61AA72AA81E001C080E020918112AA
S1132B4030918212C20FD31F1BAA0F900FBEDF91C8
S1132B50CF911F910F91FF90EF90DF90CF90BF9096
S1132B60AF907F906F905F904F9008958F929F9257
S1132B70AF92BF92EF92FF920F93CF93DF93DC015A
S1132B800FB6F8940F92E114F10489F0E62FF0E007
S1132B90EE0FFF1FEE0FFF1FE80FF91F87A490A889
S1132BA0A1A8B2A8F70180829182A282B38270E0C8
S1132BB0FD01E60FF71F83A992E093AB023001F108
S1132BC018F4013031F04DC0033079F10430D1F103
S1132BD048C0660F771F660F771FFD01E60FF71FCA
S1132BE087A490A8A1A8B2A8BA01A9014829592983
S1132BF06A297B2947A750AB61AB72AB01E034C0B3
S1132C00660F771F660F771FFD01E60FF71F47A5B5
S1132C1050A961A972A94F5F5F4F6F4F7F4F47A7BC
S1132C2050AB61AB72AB01E01FC0660F771F660F3C
S1132C30771FFD01E60FF71F27A730AB41AB52AB5F
S1132C4001E012C0823079F0660F771F660F771F9C
S1132C50FD01E60FF71F27A730AB41AB52AB01E0F4
S1132C6003C001E001C000E0813009F069C01C9696
S1132C70ED91FC911D971696CD91DC9117971896BE
S1132C808D919C9119979F838E831896CD91DC9199
S1132C90199716968D919C9117979D838C838181AA
S1132CA092819D012E5F3F4F8217930731F418964E
S1132CB08D919C911997928381831D961C921E92EB
S1132CC01C978081815080835A96EC915A97809109
S1132CD0D1118E1710F4E093D1118BE08E9FF00187
S1132CE01124ED5EFD4E0180F281E02D1796FC93D8
S1132CF0EE9316974681578119965C934E931897D5
S1132D00C681D7813D832C83378326835A96EC91E1
S1132D105A978E9FF0011124ED5EFD4E1D96FC9393
S1132D20EE931C9780818F5F80835A969C91E091EB
S1132D308112F0918212828D891710F40E94B305DA
S1132D400F900FBE802FDF91CF910F91FF90EF90E6
S1132D50BF90AF909F908F9008958F929F92AF9263
S1132D60BF92CF92DF92EF92FF920F93CF93DF93B4
S1132D70DC01E114F10489F0E62FF0E0EE0FFF1F0F
S1132D80EE0FFF1FE80FF91F87A490A8A1A8B2A80F
S1132D90F70180829182A282B38270E0FD01E60F86
S1132DA0F71F93A982E083AB023001F118F40130DC
S1132DB031F04DC0033079F10430D1F148C0660FD1
S1132DC0771F660F771FFD01E60FF71F87A490A8F2
S1132DD0A1A8B2A8BA01A901482959296A297B29BD
S1132DE047A750AB61AB72AB81E034C0660F771F6D
S1132DF0660F771FFD01E60FF71F47A550A961A9CC
S1132E0072A94F5F5F4F6F4F7F4F47A750AB61ABC6
S1132E1072AB81E01FC0660F771F660F771FFD013D
S1132E20E60FF71F27A730AB41AB52AB81E012C0CE
S1132E30923079F0660F771F660F771FFD01E60F5A
S1132E40F71F27A730AB41AB52AB81E003C081E051
S1132E5001C080E0913009F096C09091C2119111A7
S1132E605FC01C96ED91FC911D971696CD91DC9157
S1132E70179718962D913C9119973F832E83189696
S1132E80CD91DC91199716962D913C9117973D831E
S1132E902C83418152819D012E5F3F4F421753077E
S1132EA031F418964D915C911997528341831D9684
S1132EB01C921E921C979081915090835A96EC918B
S1132EC05A979091D1119E1710F4E093D1119BE081
S1132ED09E9FF0011124ED5EFD4E0180F281E02DF4
S1132EE01796FC93EE9316974681578119965C9337
S1132EF04E931897C681D7813D832C8337832683CD
S1132F005A96EC915A979E9FF0011124ED5EFD4E66
S1132F101D96FC93EE931C9790819F5F908321C034
S1132F206EEE71E1FB01C181D2815396DC93CE93A5
S1132F3052972E813F8155963C932E9354974E8100
S1132F405F819D01225F3F4FFA01358324833F83D4
S1132F502E8359967C936E935897FB0190819F5FC3
S1132F6090835A962C91E0918112F0918212928D65
S1132F70921748F4C114D10419F091E0F60190833A
S1132F8091E09093CB11DF91CF910F91FF90EF904F
S1132F90DF90CF90BF90AF909F908F90089500974F
S1132FA021F480918112909182120FB6F8940F92BD
S1132FB070E0FC01E60FF71F23A9223031F4FC0175
S1132FC0E60FF71F13AA81E001C080E00F900FBE47
S1132FD00895DC01E0918D12F0918E12808191E0D0
S1132FE0811190E09C93911108C00780F085E02D39
S1132FF06081718182819381089560E070E0CB01EA
S11330000895CF92DF92EF92FF920F931F93FC01EA
S113301042835383648375839387828704171507D8
S113302026073707C0F00C191D092E093F098685AC
S11330309785A089B189081719072A073B0700F566
S1133040BF016E5F7F4F80918B1290918C120E9412
S1133050FA0480E018C00C151D052E053F0528F460
S11330604C155D056E057F0568F4BF016E5F7F4FEB
S113307080918D1290918E120E94FA0480E003C018
S113308081E001C081E01F910F91FF90EF90DF90EC
S1133090CF9008950FB6F8940F9280918912909171
S11330A08A12892BE9F48AE992E10E94E5048FE807
S11330B092E10E94E5048AE992E190938E12809352
S11330C08D128FE892E190938C1280938B1240E0E2
S11330D067E08AE00E94980790938A12809389128D
S11330E00F900FBE0895EF92FF920F93D3DF80915C
S11330F0891290918A12892B91F00F2EF7E8EF2E06
S1133100F2E1FF2EF02D03E020E030E040EC50E04F
S11331106AEF72E087ED90E00E94750E01C080E0D6
S11331200F91FF90EF9008958F929F92AF92BF926C
S1133130CF92DF92EF92FF920F931F93CF93DF937F
S1133140CDB7DEB727970FB6F894DEBF0FBECDBF5D
S1133150E0918912F0918A12309781F169832A8370
S11331603B834C835D839F838E836630F4F4C4DB9E
S1133170823069F400E0A7019601BE016F5F7F4FC2
S11331808091891290918A120E94BB0718C000E0B6
S113319020E030E0A901BE016F5F7F4F809189126A
S11331A090918A120E94BB070AC020E0A801BE01C8
S11331B06F5F7F4FCF010E944C0801C080E02796CB
S11331C00FB6F894DEBF0FBECDBFDF91CF911F9134
S11331D00F91FF90EF90DF90CF90BF90AF909F90B2
S11331E08F9008958F929F92AF92BF92CF92DF9269
S11331F0EF92FF920F931F93CF93DF933BC007800F
S1133200F085E02D80809180A280B380C085D18537
S11332108E010E5F1F4FC8010E943705EC89FD899E
S1133220CE0119958E8982FF25C08E859F85A88938
S1133230B989880D991DAA1DBB1D88169906AA0671
S1133240BB0670F48A839B83AC83BD83DB87CA8708
S1133250B80180918D1290918E120E94FA040AC0D6
S1133260C12CD12C760100E010E0A501940160E0AE
S1133270CE015ADFE0918D12F0918E12808181117E
S1133280BECF80918B1290918C1290938E1280936A
S11332908D12F0938C12E0938B12DF91CF911F91DA
S11332A00F91FF90EF90DF90CF90BF90AF909F90E1
S11332B08F900895CF92DF92EF92FF92CF93DF9396
S11332C0EC010E94FF0E6B017C01809183129091AE
S11332D08412A0918512B0918612C816D906EA0606
S11332E0FB0620F47FDF81E0888301C01882C0924E
S11332F08312D0928412E0928512F0928612C70152
S1133300B601DF91CF91FF90EF90DF90CF900895B9
S11333104F925F926F927F928F929F92AF92BF92E1
S1133320CF92DF92EF92FF920F931F93CF93DF938D
S11333304B015C0129013A01E0918D12F0918E124A
S11333400780F085E02DC085D185CE0102960E94CC
S113335037058E8982FF1BC04E855F856889798910
S1133360480D591D6A1D7B1D75016401930182017D
S1133370CE0147DE882369F0C12CD12C760100E010
S113338010E0A501940160E0CE01CEDE02C08E7F84
S11333908E8BEC89FD89CE011995DF91CF911F9118
S11333A00F91FF90EF90DF90CF90BF90AF909F90E0
S11333B08F907F906F905F904F9008958F929F921F
S11333C0AF92BF92CF92DF92EF92FF921F93CF936F
S11333D0DF931F92CDB7DEB76B017C01142F0E94DF
S11333E0F90ECE01019666DF4B015C0189818111E2
S11333F02DC011110DC08C149D04AE04BF0440F007
S11334000E943910A5019401C701B60181DF20C0D3
S1133410112341F0E0918B12F0918C12808111E024
S1133420811110E0B701A601481959096A097B09FD
S1133430212F8091891290918A120E9416090E946C
S11334403910811105C00E94B30502C00E943910D1
S11334500F90DF91CF911F91FF90EF90DF90CF906D
S1133460BF90AF909F908F900895AF92BF92CF92EC
S1133470DF92EF92FF920F931F93CF93DF93CDB719
S1133480DEB728970FB6F894DEBF0FBECDBF82C05B
S1133490898188230CF47EC0AE80BF80D5011C9640
S11334A08D919C911D97892B21F0C50102960E9454
S11334B03705CE010896FEDE8B019C01E9810E2EB4
S11334C0000CFF0BEA30F10508F064C08827EE58C1
S11334D0FF4F8F4F0C94A92CF50186898160868B50
S11334E0CA80DB80EC80FD804685578560897189C0
S11334F04C0D5D1D6E1D7F1DC50183DD882309F400
S113350049C0D5015496ED91FC915597C501199583
S1133510F501868982FF3EC04A815B816C817D8191
S113352086859785A089B1899A01AB01280F391F37
S11335304A1F5B1FC12CD12C760100E010E060E033
S1133540C501F2DD27C0D50156968C9156978E7F22
S113355056968C931FC0F50186898160868B4A81BB
S11335605B816C817D8146875787608B718B400FAF
S1133570511F621F731F68017901C50142DD0AC032
S1133580F501868981FD04C0C5010E94A80402C01A
S11335908E7F868B20E030E0A901BE016F5F7F4FF4
S11335A08091891290918A120E948708811170CFAC
S11335B028960FB6F894DEBF0FBECDBFDF91CF9132
S11335C01F910F91FF90EF90DF90CF90BF90AF903D
S11335D00895089584B1806884B985B1806885B9F7
S11335E0089583B1806883B90895F4DF2FEF80E7ED
S11335F092E0215080409040E1F700C00000F1DFEC
S1133600F5CFE8DF2FEF87EA91E621508040904024
S1133610E1F700C00000E5DFF5CF9093BC12809382
S1133620BB1208959093C0128093BF120895909393
S1133630BE128093BD120895CF93DF93EC0182E014
S113364093E09F938F930E94582E8091C0128F9382
S11336508091BF128F9382E293E09F938F930E9495
S1133660582E8091BE128F938091BD128F9382E465
S113367093E09F938F930E94582E8091BC128F9356
S11336808091BB128F9380E693E09F938F930E9467
S1133690582EE5EAF2E186E0818382E0808380911E
S11336A0BF129091C012928383838091BD12909136
S11336B0BE12948385838091BB129091BC12968331
S11336C0878386E1DE0101900D928A95E1F78DB73B
S11336D09EB70E960FB6F8949EBF0FBE8DBFCE0157
S11336E0DF91CF910895CF93DF9381E00E94432827
S11336F0FAD376D69F938F938DE793E09F938F931E
S11337000E94582E6ED56CD69F938F9380E993E0D8
S11337109F938F930E94582E87ED92E1F6D360D643
S1133720C7EDD2E1DF93CF939F938F9389EA93E020
S11337309F938F930E94582ECE0103D451D69F930A
S11337408F93DF93CF938DEB93E09F938F930E949E
S1133750582EAE0162ED73E083EF93E020D640D69D
S11337609F938F93DF93CF9382ED93E09F938F93F7
S113377083EF93E09F938F9384E094E09F938F93E0
S11337800E94582E11D42CD69F938F938AE394E0F1
S11337909F938F930E94582E8DB79EB782960FB633
S11337A0F8949EBF0FBE8DBF81E0F8D419D69F93C5
S11337B08F9389E494E09F938F930E94582E84EF13
S11337C091E0F7D40DD69F938F9381E08F9384EF8C
S11337D08F938AE694E09F938F930E94582E8DB71F
S11337E09EB70A960FB6F8949EBF0FBE8DBFCAE06F
S11337F080E0E0D3D82FF4D59F938F931F92CF937B
S11338008AE894E09F938F930E94582E0F900F9014
S11338100F900F900F900F90D83059F080E00E94D5
S1133820A72866E371E080E090E00E947A11C1501D
S1133830F9F6D83021F481E00E94892809C081E09A
S11338400E94982880E00E9466280E94B305FDCF5C
S1133850DF91CF910895CF93DF93CDB7DEB76A9709
S11338600FB6F894DEBF0FBECDBF81E02ED362E069
S113387070E080E090E00E947A1180E026D366E94F
S113388070E080E090E00E947A11D8D22CDF0E9490
S1133890FF0E69837A838B839C8348EA58E460E053
S11338A070E0CE0101960E9415118AEA94E09F937C
S11338B08F930E94582ECE010596BEDE86E1FE014E
S11338C03596A1ECB2E101900D928A95E1F783E07F
S11338D00E94B92861EC72E180E095D381D59F9371
S11338E08F9388EB94E09F938F930E94582E0F90B0
S11338F00F900F900F900F900F90CFCFEF92FF92F9
S11339000F93E12CF12C082F20E030E048E851E03F
S11339106DEC74E08BE29CE10E94750E0F91FF90B8
S1133920EF900895EF92FF920F93082FEBD081113F
S113393006C01F921F920E94582E0F900F90E12CE8
S1133940F12C20E030E040EC50E064ED74E08FECCA
S11339509CE10E94750E0F91FF90EF9008952091C5
S11339603D1330913E13ADECBCEC0E94B12C969506
S113397087959695879596958795089580913B139D
S113398090913C136AE070E00E94742CCB0108957E
S113399040E150E060E070E00C94FE020895CF93A3
S11339A0DF9300D01F92CDB7DEB78FED94E09F93E5
S11339B08F930E94582E0E94FF0E69837A838B8313
S11339C09C830F900F9048EA58E460E070E0CE01C9
S11339D001960E94151186EE94E09F938F930E94A6
S11339E0582EA8D00F900F908111EDCF8DEE94E05A
S11339F09F938F930E94582E62E370E080E090E0E2
S1133A000E947A11ACD00F900F908111DCCF84EF1B
S1133A1094E09F938F930E94582E61E070E080E0C1
S1133A2090E00E947A11C1D090933E1380933D138D
S1133A30E2D090933C1380933B138BEF94E09F93DD
S1133A408F930E94582E0E940801A2DF0F900F90BE
S1133A500F900F90B8CF80E00E94EE2686E00E947F
S1133A60F52785E00E94960183E090E095D584E0F7
S1133A7090E00E94AA0183E055DF41E060E070E03D
S1133A808CE290E00E94750A9093751480937414EC
S1133A9060E070E081E0D9D182E030DF88E095E039
S1133AA00E946B2E0E94C10EFFCF6530F1F4FA0123
S1133AB080818F7390E0982F88272181822B9093A7
S1133AC00A02809309028281F0E48F9FC0011124CD
S1133AD0FA01238126952695822B909308028093E0
S1133AE0070281E080933F130895643051F080E031
S1133AF090E4909308028093070290930A028093C3
S1133B00090208950F931F9305E51DE120E034E2B7
S1133B1044EF50E060E087E20E94DC289093411378
S1133B208093401321E0892B09F020E0822F1F911C
S1133B300F9108958091401390914113009759F08B
S1133B4040E060E070E00E942D29843031F410924E
S1133B503F1380E0089582E0089583E00895809102
S1133B60401390914113009739F064E00E94792941
S1133B70853021F083E0089582E0089580E008957F
S1133B806091090270910A0280E090E00E94832B08
S1133B9020E030E048EC52E40E94112C20E038EFA1
S1133BA04FE756E40C94EA2A0895EADF20E030E077
S1133BB040E251E40E94112C0E94572BCB0108953E
S1133BC0609107027091080280E090E00E94832BCC
S1133BD020E030E045E253E40E94112C20E038EF6D
S1133BE04FE756E40E94EA2A20E030E040E252E443
S1133BF00C94852A0895E4DF20E030E040E251E4AB
S1133C000E94112C0E94522BCB0108950F931F93F5
S1133C10CF93DF931F921F92CDB7DEB78C01198229
S1133C202DC0E0917913EC3250F481E08E0F809333
S1133C307913F0E0E555FC4E8A81808302C010922E
S1133C4079138A818A30D1F44091791350E0FA01D2
S1133C50E755FC4E1082415051099E012F5F3F4FA2
S1133C606BEA73E180917C1390917D130E949C0B0D
S1133C70898181110E94B30510927913BE016E5F90
S1133C807F4FC80115D6882361F20F900F90DF9102
S1133C90CF911F910F9108950F931F93CF93DF93AB
S1133CA08C01EB0180917C1390917D130E94A70AF3
S1133CB0B80182E493E10E94392E209779F0E2E47E
S1133CC0F3E101900020E9F7319780E290E09183DD
S1133CD08083BE0182E493E10E942E2EE2E4F3E1AC
S1133CE0DF010D900020E9F711978DE09AE011961D
S1133CF09C938E9312961C9201900020E9F73197C1
S1133D00E254F341AE2F82E493E1AC016A2F809137
S1133D107E1390917F1377D5811111C008E215E0CD
S1133D2020E030E04DE250E065E074E180917C13E6
S1133D3090917D130E94E00B85E094E102C080E045
S1133D4090E0DF91CF911F910F9108952F923F92B0
S1133D504F925F926F927F928F929F92AF92BF9297
S1133D60CF92DF92EF92FF920F931F93CF93DF9343
S1133D705C01FC0101900020E9F731976F01C81A3A
S1133D80D90A5C2C0F2EF3EB8F2EF7E09F2EF02D2B
S1133D90E12CF12C4C2C3701F40101811281E80152
S1133DA009900020E9F72197C01BD10B3C2EF9E0C4
S1133DB0CF16D10458F0F4012080FEE02F1206C083
S1133DC0B801C5010E94092E892B09F5442D35142B
S1133DD008F44C2F50E0B801C5010E94402E892BF5
S1133DE049F4F301EE0FFF1FE60DF71DED54F84FF4
S1133DF020800DC08FEFE81AF80AE3E08E0E911CC4
S1133E00F1E1EF16F10439F66894222424F8822DA6
S1133E10DF91CF911F910F91FF90EF90DF90CF90A2
S1133E20BF90AF909F908F907F906F905F904F90D6
S1133E303F902F90089530DF89CF089580917C13AF
S1133E4090917D130C94A70A08958F929F92AF923C
S1133E50CF92EF920F931F93CF93C82F8B0141E022
S1133E6060E070E088EC90E00E94750A90937D1306
S1133E7080937C1310937B1300937A130F2EF6E038
S1133E808F2EFEE19F2EF02D6894AA24A6F8689444
S1133E90CC24C6F8E12C00E023E040E051EE60E0E1
S1133EA070E08C2FE3D390937F1380937E13E7E02D
S1133EB0F1E0808180618083CF911F910F91EF9019
S1133EC0CF90AF909F908F900895882331F0E8E0D1
S1133ED0F1E080818F7E80830895E8E0F1E08081C5
S1133EE080618083089560E070E089E395E0D4DE2A
S1133EF0E5E0F4E101900020E9F73197E550F44161
S1133F0081E0759708F080E00895CF93DF93EC018A
S1133F1060E070E08AE495E0BFDEE5E0F4E1019062
S1133F200020E9F7E651F44139F465E074E1CE018B
S1133F300E94392E80E002C0188281E0DF91CF9187
S1133F400895FC0101900020E9F79F0121513109F6
S1133F502817390729F4BC0188E795E06CCF089548
S1133F6089E00895FC0101900020E9F79F012151A7
S1133F7031092817390729F4BC0187E895E05BCF9C
S1133F80089589E00895FC0101900020E9F79F015C
S1133F90215231092817390729F4BC0186E995E033
S1133FA04ACF089589E0089560E070E085ED95E0DA
S1133FB042CF08950F931F93E82FF0E0EE0FFF1FF9
S1133FC0E155F84F608171818EED95E034DF811108
S1133FD014C008E215E020E030E04DE250E065E076
S1133FE074E180917C1390917D130E94E00B8823EF
S1133FF021F085E094E1AADE03C085E094E1A6DE29
S11340001F910F9108950F931F93CF93DF931F92E6
S1134010CDB7DEB7DB0111969C911197953108F06D
S1134020B4C0992381F160E070E0272F30E0462F7F
S113403050E0FD01E40FF51F928192959F709A3034
S113404010F0995C01C0905DF901EA56FC4E908332
S11340502F5F3F4FFD01E40FF51F92819F70492FA1
S113406050E04A30510514F0995C01C0905DF901AB
S1134070EA56FC4E90837E5F6F5F11969C91119778
S1134080691798F201C070E0E72FF0E0EA56FC4EA1
S113409010824C91811103C087EE95E002C089EE35
S11340A095E026E933E13F932F931F924F939F931B
S11340B08F938DEE95E09F938F9388ED93E19F937B
S11340C08F930E949B2E60E070E088ED93E1B3DE55
S11340D00FB6F894DEBF0FBECDBF811159C008E200
S11340E015E020E030E04DE250E065E074E18091BD
S11340F07C1390917D130E94E00B882309F447C040
S113410085E094E123DE8E3009F042C087E08983A4
S113411080917A1390917B13892BA9F1BE016F5F73
S11341207F4F85E094E168D180938013E981F0E0CA
S1134130EB5FFB4EDF010D900020E9F71197AE1BFA
S1134140BF0BAA2391F0BB27CD0101979C0112F468
S11341502F5F3F4F3595279520938113AF014F5F14
S11341605F4F64E182E893E173D101E010E020E065
S113417030E046E150E060E873E180917A13909179
S11341807B130E94D70A8EE003C084E101C080E063
S11341900F90DF91CF911F910F910895813019F005
S11341A06DEF75E002C066ED76E081E096E043CE07
S11341B008959F938F9382E396E09F938F9388ED66
S11341C093E19F938F930E949B2E60E070E088EDB3
S11341D093E131DE0F900F900F900F900F900F909E
S11341E008952F923F924F925F926F927F928F9297
S11341F09F92AF92BF92CF92DF92EF92FF920F9372
S11342001F93CF93DF93CDB7DEB7A0970FB6F89483
S1134210DEBF0FBECDBF6FE576E08BE696E03CDDFA
S113422095DD8111A3C080E2E2E2F2E0DE011196A5
S113423001900D928A95E1F79E012F5F3F4F69012E
S1134240E12CF12C0F2EF7E7AF2EF6E0BF2EF02D68
S113425008ED13E10F2EF0E94F2EF6E05F2EF02D5E
S11342600F2EF7EA8F2EF6E09F2EF02D0F2EF1EC95
S11342706F2EF6E07F2EF02D3E2C2F2CFF92EF9226
S1134280BF92AF921F930F930E949B2E60E070E049
S1134290C80102DD5BDD0F900F900F900F900F901F
S11342A00F90811163C032E03E15E8F4F60183817A
S11342B08F9382818F9381818F9380818F93FF92DB
S11342C0EF925F924F921F930F930E949B2E60E098
S11342D070E0C801E1DC3ADD0FB6F894DEBF0FBE32
S11342E0CDBF811143C02F923F929F928F921F9313
S11342F00F930E949B2E60E070E0C801CDDC26DDA8
S11343000F900F900F900F900F900F9081112EC06F
S11343102F923F927F926F921F930F930E949B2E36
S113432060E070E0C801B8DC11DD0F900F900F90D1
S11343300F900F900F90811119C03FEFE31AF30A09
S113434084E0C80ED11C98E0E916F10409F094CF7A
S113435060E070E089ED96E09FDCF8DC811106C036
S113436060E070E08AEE96E097DCF0DCA0960FB691
S1134370F894DEBF0FBECDBFDF91CF911F910F9197
S1134380FF90EF90DF90CF90BF90AF909F908F9071
S11343907F906F905F904F903F902F900895EF9291
S11343A0FF920F931F93CF93DF93EC018B017A015C
S11343B081E0F4DE81110DC0CE01D4DD811109C08C
S11343C0C801E1DD811105C0C701BBDD811101C058
S11343D0EBDDDF91CF911F910F91FF90EF90089546
S11343E090E0FC01EE0FFF1F8E0F9F1FFC01ED54A8
S11343F0F84F818192810895DC01009729F1FB0136
S11344002081FC0101900020E9F73197E81BF90BAA
S1134410822F90E0E817F907C8F080E008C0880F01
S1134420382F330F330F830F8053890F2F5FFD0114
S1134430E20FF11D908130ED390F3A3010F49111F3
S1134440EECFFB012083089580E0089580E0089575
S11344500F931F93CF93DF93DC01EA012097E1F1DF
S1134460FA0101900020E9F73197E41BF50B32972C
S113447010F532C08D01040F151F30E0AE01420F5C
S1134480531FFA019081913428F09753592F529574
S1134490507F03C0592F5295507F2C0F3D1FF901B7
S11344A09181913410F0975301C09053950FF80106
S11344B090838F5F01C080E0282F220F482F50E0A7
S11344C0FE0101900020E9F73197EC1BFD0B4E171C
S11344D05F0710F48613CECFDF91CF911F910F9118
S11344E0089580913514860F809335149091381473
S11344F0913079F028F09230A9F0933019F10895B1
S11345006F3F09F048C01092351481E0809338144D
S11345100895663809F03FC01092341482E0809305
S113452038140895E091341481E08E0F809334148C
S1134530F0E0EE5CFB4E6083823069F583E08093AB
S1134540381408959091341421E0290F20933414E1
S1134550963009F581110EC0E2E3F4E1808190E028
S1134560982F88272181820F911D90933A1480936C
S1134570391404C010923A14109239141092381459
S1134580E0913614F0913714309729F08091391462
S113459090913A14199508958F929F92AF92CF9269
S11345A0EF920F930F2EF1E78F2EF2E29F2EF02D54
S11345B06894AA24A4F86894CC24C4F8E12C00E0FC
S11345C023E040E855E260E070E050D090933C1462
S11345D080933B140F91EF90CF90AF909F908F906A
S11345E0089590933714809336140895CF93DF93EE
S11345F0CDB7DEB729970FB6F894DEBF0FBECDBF97
S113460089E0E2E4F2E09E012F5F3F4FD90101907F
S11346100D928A95E1F710923A1410923914809110
S11346203B1490913C14009731F0422F532F69E0D2
S1134630EAD080E001C082E029960FB6F894DEBF8C
S11346400FBECDBFDF91CF910895209139143091E1
S11346503A142115310529F4FC011182108281E0FC
S11346600895FC013183208380E008952F923F92C6
S11346704F925F926F927F928F929F92AF92CF925E
S1134680EF92FF920F931F93CF93DF93CDB7DEB7D3
S1134690F82E2A013B0188E090E00E94D42C8C0182
S11346A08F2D90E0FC01EE0FFF1FE35CFB4E1183A6
S11346B000830115110509F469C0880F991FFC01D5
S11346C0E55FFD4F80819181D8018D939C938C2D62
S11346D090E0880F991F880F991F0E94D42C1C0109
S11346E086E090E00E94D42C7C014C2DB101F1D6DF
S11346F0F801F582E4828A2D90E0880F991F880FD3
S1134700991F0E94D42C1C0186E090E00E94D42CB6
S11347107C014A2DB101DDD6D8011396FC92EE92AC
S1134720129717969C928E921697FFB6F894ED9175
S1134730FC91119736978081826080838D909C9044
S1134740C301B201E0D720E030E040E051E40E9430
S1134750112C9B01AC0160E074E284E79BE43AD73E
S113476020E030E040E85FE3D0D6A1D7F4013297EF
S11347706083D801ED91FC911197359788E9808386
S1134780ED91FC91349786E08083FFBEC801DF91F0
S1134790CF911F910F91FF90EF90CF90AF909F908A
S11347A08F907F906F905F904F903F902F900895DF
S11347B0CF93DF93DC01892B01F11296ED91FC91EB
S11347C01397938182812581981B92238481981762
S11347D0B1F0838126952823C081D181C20FD11DD8
S11347E068838F5F958189238383ED91FC9135974D
S11347F080818062808380E003C081E001C082E028
S1134800DF91CF910895EF92FF920F931F93CF936F
S1134810DF937C01009709F441C0DC011296ED910D
S1134820FC91139793818281981B858198238481BD
S1134830891B8617A8F1662341F1842F952FDC018B
S11348406150462F50E04F5F5F4F480F591FE701FB
S1134850EA81FB81938182812581981B9223848143
S1134860981779F08C919381269529236081718121
S11348708B01020F111DE80188839F5F85819823B6
S113488093831196A417B50711F7D701ED91FC9105
S1134890359780818062808380E003C081E001C01D
S11348A082E0DF91CF911F910F91FF90EF900895D7
S11348B00097D1F0DC011496ED91FC91159793814A
S11348C08281981799F09281858186958923A081A8
S11348D0B181A80FB11D8C91DB018C939F5F858101
S11348E09823928380E0089581E0089583E00895F9
S11348F01F920F920FB60F9211240BB60F922F93A3
S11349003F934F935F936F937F938F939F93AF9353
S1134910BF93CF93DF93EF93FF93A0913D14B09196
S11349203E14109711F16091C6001496ED91FC911C
S11349301597938182812581981B922384819817EE
S113494061F0838126952823C081D181C20FD11DB6
S113495068838F5F9581892383831696ED91FC91FB
S11349601797309711F0CD011995FF91EF91DF91D1
S1134970CF91BF91AF919F918F917F916F915F91F3
S11349804F913F912F910F900BBE0F900FBE0F9040
S11349901F9018951F920F920FB60F9211240BB609
S11349A00F922F938F939F93AF93BF93EF93FF93A4
S11349B0E0913D14F0913E143097B9F00280F381F8
S11349C0E02D938182819817B1F092818581282FFF
S11349D026952923A081B181A20FB11D2C919F5F3F
S11349E0892382832093C6000BC0E1ECF0E0808130
S11349F08F7D808305C0E1ECF0E080818F7D808332
S1134A00FF91EF91BF91AF919F918F912F910F9053
S1134A100BBE0F900FBE0F901F9018951F920F9210
S1134A200FB60F9211240BB60F922F933F934F930F
S1134A305F936F937F938F939F93AF93BF93CF9322
S1134A40DF93EF93FF93A0913F14B091401410971C
S1134A5011F16091CE001496ED91FC91159793811C
S1134A6082812581981B92238481981761F0838128
S1134A7026952823C081D181C20FD11D68838F5F01
S1134A809581892383831696ED91FC91179730972E
S1134A9011F0CD011995FF91EF91DF91CF91BF9165
S1134AA0AF919F918F917F916F915F914F913F91C2
S1134AB02F910F900BBE0F900FBE0F901F90189563
S1134AC01F920F920FB60F9211240BB60F922F93D1
S1134AD08F939F93AF93BF93EF93FF93E0913F1412
S1134AE0F09140143097B9F00280F381E02D938166
S1134AF082819817B1F092818581282F26952923E8
S1134B00A081B181A20FB11D2C919F5F8923828363
S1134B102093CE000BC0E9ECF0E080818F7D808390
S1134B2005C0E9ECF0E080818F7D8083FF91EF91F7
S1134B30BF91AF919F918F912F910F900BBE0F90CA
S1134B400FBE0F901F9018951F920F920FB60F92E1
S1134B5011240BB60F922F933F934F935F936F9350
S1134B607F938F939F93AF93BF93CF93DF93EF93F1
S1134B70FF93A0914114B0914214109711F16091E8
S1134B80D6001496ED91FC9115979381828125812D
S1134B90981B92238481981761F08381269528239A
S1134BA0C081D181C20FD11D68838F5F9581892314
S1134BB083831696ED91FC911797309711F0CD01F0
S1134BC01995FF91EF91DF91CF91BF91AF919F9193
S1134BD08F917F916F915F914F913F912F910F90A2
S1134BE00BBE0F900FBE0F901F9018951F920F923F
S1134BF00FB60F9211240BB60F922F938F939F939E
S1134C00AF93BF93EF93FF93E0914114F09142145B
S1134C103097B9F00280F381E02D93818281981757
S1134C20B1F092818581282F26952923A081B18115
S1134C30A20FB11D2C919F5F892382832093D600FC
S1134C400BC0E1EDF0E080818F7D808305C0E1ED54
S1134C50F0E080818F7D8083FF91EF91BF91AF91D0
S1134C609F918F912F910F900BBE0F900FBE0F90BD
S1134C701F9018951F920F920FB60F9211240BB626
S1134C800F922F933F934F935F936F937F938F93E1
S1134C909F93AF93BF93CF93DF93EF93FF93A09131
S1134CA04314B0914414109711F160913601149695
S1134CB0ED91FC911597938182812581981B922314
S1134CC08481981761F0838126952823C081D1813E
S1134CD0C20FD11D68838F5F9581892383831696C4
S1134CE0ED91FC911797309711F0CD011995FF9133
S1134CF0EF91DF91CF91BF91AF919F918F917F9170
S1134D006F915F914F913F912F910F900BBE0F9038
S1134D100FBE0F901F9018951F920F920FB60F920F
S1134D2011240BB60F922F938F939F93AF93BF933E
S1134D30EF93FF93E0914314F09144143097B9F04A
S1134D400280F381E02D938182819817B1F09281E2
S1134D508581282F26952923A081B181A20FB11D19
S1134D602C919F5F89238283209336010BC0E1E35A
S1134D70F1E080818F7D808305C0E1E3F1E08081F3
S1134D808F7D8083FF91EF91BF91AF919F918F9120
S1134D902F910F900BBE0F900FBE0F901F90189580
S1134DA0CF93DF931F92CDB7DEB7BE016F5F7F4F06
S1134DB080914514909146147BDD8111F6CF898151
S1134DC090E00F90DF91CF910895682F8091451462
S1134DD090914614EDDC80E090E008958F929F92CC
S1134DE0AF92CF92EF920F93812C912C6894AA24C6
S1134DF0A7F86894CC24C7F8E12C00E023E040E055
S1134E0051EE60E070E032DC9093461480934514D8
S1134E10EAE7F4E183E192E09183808393838283E0
S1134E200F91EF90CF90AF909F908F90089590E066
S1134E30FC01EE0FFF1FE80FF91FEE0FFF1FE95BE8
S1134E40FB4E238121111FC09C01220F331FF90146
S1134E50E80FF91FEE0FFF1FE95BFB4EA081B18144
S1134E604C91F901E80FF91FEE0FFF1FE95BFB4EB0
S1134E7081E090E0028002C0880F991F0A94E2F753
S1134E80842B8C930895FC01EE0FFF1FDF01A80F04
S1134E90B91FAA0FBB1FA95BBB4E0D90BC91A02DDF
S1134EA02C91E80FF91FEE0FFF1FE95BFB4E81E029
S1134EB090E0028002C0880F991F0A94E2F780955F
S1134EC082238C93089590E0FC01EE0FFF1FE80FFE
S1134ED0F91FEE0FFF1FE95BFB4E2381211120C058
S1134EE09C01220F331FF901E80FF91FEE0FFF1F7A
S1134EF0E95BFB4EA081B1814C91F901E80FF91FE8
S1134F00EE0FFF1FE95BFB4E81E090E0028002C0E0
S1134F10880F991F0A94E2F7809584238C9308954F
S1134F20FC01EE0FFF1FDF01A80FB91FAA0FBB1F63
S1134F30A95BBB4E0D90BC91A02D2C91E80FF91FDD
S1134F40EE0FFF1FE95BFB4E81E090E0028002C0A0
S1134F50880F991F0A94E2F7822B8C930895CC242E
S1134F60C394D12C6894BB24B2F8C7E4D4E110E014
S1134F708C81813081F018F1823061F5E881F9810A
S1134F802081C6010A8002C0880F991F0A94E2F7A3
S1134F90822780831FC08D818F5F8A3010F48D83B8
S1134FA019C01D82E881F9812081C6010A8002C0EE
S1134FB0880F991F0A94E2F7822780830BC00D8122
S1134FC0002329F0812F7FDF01500D8303C0BC82B1
S1134FD0812F2DDF1F5F2696143051F665E070E0B7
S1134FE080E090E00E947A11C0CFEF92FF920F937D
S1134FF01F93CF93DF93082F80E487B9C7E4D4E1EC
S11350000F2EF8E2EF2EF12CF02DF982E88286E0E3
S11350108A831B8214E01C8380E009DF80E887B95F
S1135020FF82EE8287E0888719861A8781E0FFDE97
S113503080E283BB84E390E09D878C8785E08E8744
S11350401F86188B82E0F3DE80E18093010182E009
S113505091E09B8B8A8B1C8B1D8A1E8B83E0E7DE81
S1135060E12CF12C20E030E040EC50E066EE77E0FB
S11350708FEA97E20E94750EDF91CF911F910F91F5
S1135080FF90EF900895CF93DF9390E0FC01EE0F33
S1135090FF1FDF01A80FB91FAA0FBB1FA95BBB4EDF
S11350A0CD91DC911197488121E030E012960C906B
S11350B0129702C0220F331F0A94E2F72427288391
S11350C0FD0181E08483DF91CF910895CF93DF9335
S11350D090E0FC01EE0FFF1FDF01A80FB91FAA0F1C
S11350E0BB1FA95BBB4ECD91DC911197488121E098
S11350F030E012960C90129702C0220F331F0A94CC
S1135100E2F724272883FD0182E08483DF91CF9195
S11351100895282F30E0F901EE0FFF1FE20FF31F6F
S1135120EE0FFF1FE95BFB4E93E09483CCCE089512
S1135130282F30E0F901EE0FFF1FE20FF31FEE0FEF
S1135140FF1FE95BFB4E94E0948371CE089590E0D9
S1135150FC01EE0FFF1FDF01A80FB91FAA0FBB1F31
S1135160A95BBB4E24E015962C931597FD01148280
S1135170089590E0FC01EE0FFF1FDF01A80FB91F97
S1135180AA0FBB1FA95BBB4E21E015962C93159764
S1135190FD011482089580916D1481110CC08CE07E
S11351A08093B8008FEF8093BB0084E08093BC00B1
S11351B081E080936D140895AF92BF92CF92DF92F5
S11351C0EF92FF920F931F93CF93DF93A82EB62EE7
S11351D069017A0184E090E0E7D3EC01892B61F165
S11351E0A88281E0B81212C0C701B60120EA36E8ED
S11351F041E050E08CD3DA01C9014097A109B1091B
S1135200B695A79597958795898311C0C701B6016F
S113521020E83AE146E050E07AD3DA01C901409748
S1135220A109B109B695A7959795879589831B839D
S11352300A838C2F9D2F02C080E090E0DF91CF91F4
S11352401F910F91FF90EF90DF90CF90BF90AF90A0
S113525008958091BC0081700895FF920F931F936D
S1135260CF93DF930097D1F14A30D0F5F42E8B0120
S1135270EC01EFDF811136C08091601490916114CC
S1135280C817D90741F087DF89818093B800D0938C
S11352906114C093601481E08F0D8093621488813F
S11352A0880F80936314FF2089F0F801A4E6B4E129
S11352B04FEF4F0D642F70E0CB010196B801680FDA
S11352C0791F81918D93E617F707D9F788EF8093BB
S11352D0210285EA8093BC0084E005C086E003C017
S11352E087E001C082E0DF91CF911F910F91FF9081
S11352F008951F93CF93DF93009729F16B3028F51E
S1135300162FEC01A6DF811122C0809160149091C8
S11353106114C817D90741F03EDF89818093B80032
S1135320D0936114C0936014109362148881880F21
S113533081608093631488EF8093210285EA8093CF
S1135340BC0085E005C086E003C087E001C082E0C0
S1135350DF91CF911F9108951F920F920FB60F9274
S113536011240BB60F922F933F934F935F936F9338
S11353707F938F939F93AF93BF93EF93FF93E091AA
S1135380B9008E2F90E0FC013897E135F10508F063
S113539075C08827E458FF4F8F4FDBC210925F140B
S11353A0E0915F1480916214E81770F481E08E0F2D
S11353B080935F14F0E0ED59FB4E80818093BB0035
S11353C085E88093BC0072C084E98093BC0080911E
S11353D0601490916114DC011296ED91FC91139785
S11353E0309709F463C020E040E050E064E0199590
S11353F05DC0E0915F1481E08E0F80935F14809113
S1135400BB00F0E0ED59FB4E80838091B9008034FD
S113541011F410925F1420915F1430E080916214B3
S113542090E001972817390724F485EC8093BC0099
S11354303DC085E88093BC0039C08091BB00E091F9
S11354405F14F0E0ED59FB4E808384E98093BC0047
S11354508091601490916114DC011296ED91FC919D
S11354601397309719F12091621443E654E165E0F3
S113547019951CC085EA8093BC0018C08091B900BE
S11354808093210284E08093BC0080916014909109
S11354906114DC011296ED91FC911397309731F071
S11354A020E040E050E0609121021995FF91EF91D6
S11354B0BF91AF919F918F917F916F915F914F9128
S11354C03F912F910F900BBE0F900FBE0F901F9026
S11354D01895FC01411101C088D3842F90E09C01F0
S11354E02150310982239323892B09F07ED341383B
S11354F008F07BD3128213824483440F41504583C6
S11355007183608380E090E008955058BB27AA27F8
S11355100ED04DC13ED130F043D120F031F49F3F45
S113552011F41EF433C10EF4E095E7FB29C1E92F11
S11355304FD180F3BA17620773078407950718F0F1
S113554071F49EF567C10EF4E0950B2EBA2FA02DD1
S11355500B01B90190010C01CA01A0011124FF271C
S1135560591B99F0593F50F4503E68F11A16F04017
S1135570A22F232F342F4427585FF3CF4695379516
S11355802795A795F0405395C9F77EF41F16BA0BDB
S1135590620B730B840BBAF09150A1F0FF0FBB1F89
S11355A0661F771F881FC2F70EC0BA0F621F731FD2
S11355B0841F48F4879577956795B795F7959E3F2F
S11355C008F0B3CF9395880F08F09927EE0F9795BD
S11355D0879508950CD0EBC0E3D040F0DAD030F0DA
S11355E021F45F3F19F0CCC0511115C1CFC0F0D0E8
S11355F098F39923C9F35523B1F3951B550BBB2796
S1135600AA2762177307840738F09F5F5F4F220F42
S1135610331F441FAA1FA9F333D00E2E3AF0E0E83B
S113562030D091505040E695001CCAF729D0FE2F87
S113563027D0660F771F881FBB1F26173707480719
S1135640AB07B0E809F0BB0B802DBF01FF279358CF
S11356505F4F2AF09E3F510568F092C0DCC05F3F67
S1135660ECF3983EDCF3869577956795B795F795B7
S11356709F5FC9F7880F911D9695879597F90895AF
S1135680E1E0660F771F881FBB1F6217730784074B
S1135690BA0720F0621B730B840BBA0BEE1F88F75A
S11356A0E095089504D06894B111B5C0089598D0D8
S11356B088F09F5790F0B92F9927B751A0F0D1F0F7
S11356C0660F771F881F991F1AF0BA95C9F712C081
S11356D0B13081F09FD0B1E008959CC0672F782F3E
S11356E08827B85F39F0B93FCCF3869577956795ED
S11356F0B395D9F73EF490958095709561957F4F59
S11357008F4F9F4F0895E89409C097FB3EF49095FE
S11357108095709561957F4F8F4F9F4F9923A9F086
S1135720F92F96E9BB279395F69587957795679515
S1135730B795F111F8CFFAF4BB0F11F460FF1BC059
S11357406F5F7F4F8F4F9F4F16C0882311F096E9EC
S113575011C0772321F09EE8872F762F05C066239A
S113576071F096E8862F70E060E02AF09A95660F53
S1135770771F881FDAF7880F9695879597F908950C
S113578097F99F6780E870E060E008959FEF80ECF0
S1135790089500240A941616170618060906089593
S11357A000240A9412161306140605060895092EF9
S11357B00394000C11F4882352F0BB0F40F4BF2B68
S11357C011F460FF04C06F5F7F4F8F4F9F4F0895A8
S11357D057FD9058440F551F59F05F3F71F047959E
S11357E0880F97FB991F61F09F3F79F08795089583
S11357F0121613061406551FF2CF4695F1DF08C0A2
S1135800161617061806991FF1CF869571056105BE
S113581008940895E894BB2766277727CB0197F966
S113582008950BD0C4CFB5DF28F0BADF18F0952364
S113583009F0A6CFABCF1124EECFCADFA0F3959F1A
S1135840D1F3950F50E0551F629FF001729FBB2763
S1135850F00DB11D639FAA27F00DB11DAA1F649F0F
S11358606627B00DA11D661F829F2227B00DA11DC2
S1135870621F739FB00DA11D621F839FA00D611D48
S1135880221F749F3327A00D611D231F849F600D69
S1135890211D822F762F6A2F11249F5750408AF0A2
S11358A0E1F088234AF0EE0FFF1FBB1F661F771F2E
S11358B0881F91505040A9F79E3F510570F060CF6A
S11358C0AACF5F3FECF3983EDCF386957795679516
S11358D0B795F795E7959F5FC1F7FE2B880F911D4C
S11358E09695879597F9089597FB072E16F40094DB
S11358F006D077FD08D044D007FC05D03EF490953F
S113590081959F4F0895709561957F4F0895A1E209
S11359101A2EAA1BBB1BFD010DC0AA1FBB1FEE1F25
S1135920FF1FA217B307E407F50720F0A21BB30B70
S1135930E40BF50B661F771F881F991F1A9469F7EC
S113594060957095809590959B01AC01BD01CF0148
S11359500895EE0FFF1F881F8BBF0790F691E02D6F
S11359601994A29FB001B39FC001A39F700D811D24
S11359701124911DB29F700D811D1124911D089554
S1135980AA1BBB1B51E107C0AA1FBB1FA617B70761
S113599010F0A61BB70B881F991F5A95A9F780957D
S11359A09095BC01CD0108950F931F93CF93DF937E
S11359B08230910510F482E090E0E0917814F09147
S11359C0791420E030E0A0E0B0E0309719F1408194
S11359D051810281138148175907C8F0841795072C
S11359E069F4109731F012960C93129713961C9346
S11359F027C0009378141093791422C0211531051F
S1135A0019F04217530718F49A01BD01EF01DF01A1
S1135A10F801DBCF21153105F9F0281B390B2430AF
S1135A20310580F48A819B816115710521F0FB01A8
S1135A309383828304C09093791480937814FE0135
S1135A40329644C0FE01E20FF31F819391932250DA
S1135A503109398328833AC0209176143091771420
S1135A60232B41F4209102023091030230937714E6
S1135A702093761420910002309101022115310502
S1135A8041F42DB73EB74091040250910502241B06
S1135A90350BE0917614F0917714E217F307A0F434
S1135AA02E1B3F0B2817390778F0AC014E5F5F4F70
S1135AB02417350748F04E0F5F1F50937714409317
S1135AC076148193919302C0E0E0F0E0CF01DF917E
S1135AD0CF911F910F910895CF93DF93009709F40D
S1135AE081C0FC01329713821282A0917814B09184
S1135AF07914109781F420813181820F931F2091B2
S1135B007614309177142817390751F5F0937714E8
S1135B10E093761467C0ED0120E030E0CE17DF0794
S1135B2040F44A815B819E0141155105F1F0EA017F
S1135B30F5CFD383C28340815181840F951FC81749
S1135B40D90759F488819981840F951F029691830E
S1135B5080838A819B81938382832115310529F473
S1135B60F0937914E09378143DC0E901FB83EA8350
S1135B7049915991C40FD51FEC17FD0761F4808139
S1135B809181840F951F0296E9019983888382810C
S1135B9093819B838A83E0E0F0E012968D919C913F
S1135BA01397009719F0FD01DC01F7CF8D919C91BB
S1135BB011979D012E5F3F4F820F931F2091761402
S1135BC0309177142817390769F4309729F4109223
S1135BD079141092781402C013821282B09377144D
S1135BE0A0937614DF91CF91089581E090E0F8942A
S1135BF07DC3FB01DC0102C001900D924150504075
S1135C00D8F70895DC0101C06D9341505040E0F78E
S1135C100895FB0151915523B1F0BF01DC01052E1C
S1135C204D91442369F010D0D9F7CD0101900020A3
S1135C3049F04D91411108D0C9F3FB014111EECF58
S1135C4081E090E001970895402539F0403229F42D
S1135C5040294B57465E08F018940895FB01DC0177
S1135C600D900020E9F7119701900D920020E1F7C3
S1135C700895FB01DC0101900D920020E1F70895E5
S1135C80FB01DC014150504088F08D9181341CF0BF
S1135C908B350CF4805E619161341CF06B350CF42F
S1135CA0605E861B611171F3990B0895881BFCCF0C
S1135CB0CF93DF93CDB7DEB7AE014A5F5F4FFA01F2
S1135CC061917191AF0180917C1490917D1461D0A8
S1135CD0DF91CF9108950F931F93CF93DF93E091BA
S1135CE07C14F0917D14238121FF1BC08C01D0E032
