:1000000066C1000085C1000083C1000081C10000FD
:100010007FC100007DC100007BC1000079C10000EC
:1000200077C1000075C1000073C1000071C10000FC
:1000300062C700006DC100006BC1000069C1000013
:1000400067C1000065C1000063C1000061C100001C
:100050005FC100005DC100005BC1000059C100002C
:1000600057C100000C94C1270C94132851C1000003
:100070004FC100004DC100004BC1000049C100004C
:1000800047C1000045C1000043C1000041C100005C
:100090000C9457280C94A9283BC100000C94F52C13
:1000A00037C1000035C1000033C1000031C100007C
:1000B0002FC100002DC100002BC1000029C100008C
:1000C00027C1000025C1000023C100000C94ED28C9
:1000D0000C943F291DC100000C9483290C94D52950
:1000E00017C10000551D551D551D8C1D941DA91DC2
:1000F000551D551D8C1D941D172D872D872D872D62
:10010000872D872D872D872D172D872D872D872DBF
:10011000872D872D872D872D192D872D872D872DAD
:10012000872D872D872D872D872D872D872D872D2F
:10013000872D872D872D872D192D872D872D872D8D
:10014000872D872D872D872D872D872D872D872D0F
:10015000872D872D872D872D832D872D872D872D03
:10016000872D872D872D872D4E2D872D872D872D28
:10017000872D872D872D872D872D872D872D872DDF
:10018000872D872D872D872D422D872D872D872D14
:10019000872D872D872D872D662D6E616E00696EE8
:1001A000660000407A10F35A00A0724E1809001041
:1001B000A5D4E80000E87648170000E40B540200DC
:1001C00000CA9A3B000000E1F50500008096980007
:1001D000000040420F000000A08601000000102730
:1001E00000000000E80300000000640000000000C0
:1001F0000A00000000000100000000002C76D888F2
:10020000DC674F0823DFC1DFAE59E1B1B796E5E304
:10021000E453C63AE651997696E8E6C28426EB891D
:100220008C9B62ED407C6FFCEFBC9C9F40F2BAA5BA
:100230006FA5F490055A2AF75C936B6CF9676DC152
:100240001BFCE0E40D47FEF520E6B500D0ED902E56
:100250000300943577050080841E080000204E0AB4
:10026000000000C80C333333330F986E12831141F2
:10027000EF8D2114893BE65516CFFEE6DB18D184BD
:100280004B381BF77C1D901DA4BBE42420328472E4
:100290005E228100C9F124ECA1E53D270E94960F62
:1002A00080915D15823008F060D50E94D21DF6CF96
:1002B000CF93DF931F92CDB7DEB7CE0101960E9498
:1002C000D21A49810E94C71C0E941E1DF6CF11241C
:1002D0001FBECFEFD1E2DEBFCDBF00E00CBF18E004
:1002E000A0E0B2E0EAE4FEE600E00BBF02C0079047
:1002F0000D92A236B107D9F727E1A2E6B8E001C016
:100300001D92A53DB207E1F70E94B61E0C9423375B
:1003100077CE8091BB179091BC17089541E150E0D2
:1003200060E070E050C20895CF92DF92EF92FF92AA
:100330000F93CF93DF93EC010F2EF6E0CF2ED12C4D
:10034000E12CF12CF02D01E020E041E150E060E0F3
:1003500070E099D1DC01CB0181719927AA27BB27D5
:100360004197A105B10589F48FE692E00E946736B6
:100370000E94191E0E94EC1E0E94281E0E94F11E5F
:1003800059D00E94E71ECE01C9DFDF91CF910F91B6
:10039000FF90EF90DF90CF900895CF93DF9300D040
:1003A0001F92CDB7DEB78FE892E00E94673658D132
:1003B0009093BC178093BB170E94E71069837A83E0
:1003C0008B839C8342E150E060E070E0CE010196B7
:1003D0000E94FD128091BB179091BC17009791F37A
:1003E000A3DFF0CFEF92FF920F93E12CF12C082FB7
:1003F00020E030E040EC50E061EA72E08DEC91E00A
:100400000E945D100F91FF90EF900895EF92FF9280
:100410000F93E12CF12C082F20E030E040EC50E06D
:1004200061EB72E085E292E00E945D100F91FF9017
:10043000EF9008958091C3179091C417089541E0FB
:1004400050E060E070E0DCC1089580E090E00E9440
:1004500006260E94E7106093BE177093BF17809323
:10046000C0179093C11748EA58E460E070E08EEB43
:1004700097E10E94FD120E940B268093BD17811107
:10048000F2CF62E370E080E090E00E94621380911E
:10049000C217811109C083EC97E10E943A2680932C
:1004A000C21737DFCCDFDFCF8130E9F689EB92E08E
:1004B0009F938F930E9454360F900F90D4CF8091CA
:1004C000620890916308892B31F481E00AD79093F8
:1004D00063088093620808958091C6170895CF93AA
:1004E000C82F1F928F9385ED92E09F938F930E9468
:1004F00054360F900F900F900F90C11104C08CE9EB
:100500008093C61703C084E68093C617CF910895E1
:10051000CF93C82F1F928F938DEE92E09F938F936E
:100520000E9454360F900F900F900F90C11104C08D
:100530008CE98093C51703C084E68093C517CF91DB
:10054000089580916208909163080895B8DFF9DFFB
:100550007C0100E020E030E0A90160E070E01DD601
:100560008BE093E00E94673683E00E94022C0FEF3D
:100570001FEF980146E150E066E678E08091C717EA
:100580009091C8170E94C20DC6E6D8E09981888173
:100590001F929F931F928F9383E293E09F938F9379
:1005A0000E94543689810F900F900F900F900F90FA
:1005B0000F908430A9F68C81809364088D8180939C
:1005C00065084FEF5FEFBA01C70161D78823C9F310
:1005D0008091650884DF809164089ADF00E020E064
:1005E00030E0A90160E070E0C701D7D5B9CFEF9244
:1005F000FF920F937093C8176093C717E12CF12CEB
:10060000082F20E030E048E851E065E573E086EA35
:1006100092E00E945D100F91FF90EF9008950F936C
:1006200001110CC0DC01CB0182239323A423B52349
:10063000892B8A2B8B2B79F480E010C0DC01CB0155
:1006400082239323A423B523281739074A075B077E
:1006500021F080E003C081E001C081E00F910895A6
:10066000CF93DF938FE090E0CCD1EC01009739F08D
:10067000FC011192119211921192CF01A8D2CE01D8
:10068000DF91CF9108952F923F924F925F926F9298
:100690007F928F929F92AF92BF92CF92DF92EF9212
:1006A000FF920F931F93CF93DF93EC014A015B01FD
:1006B000622E702E0E94E110288039804A805B8073
:1006C000A5019401C201B101AADF8823A1F066202F
:1006D00089F1D501C40180959095A095B0958221AE
:1006E0009321A421B52188839983AA83BB83C12C3C
:1006F000D12C760122C0C114D104E104F104E9F047
:10070000611004C040E050E0BA0104C040E050E095
:1007100060E071E071107460482959296A297B29C9
:1007200097018601CE0104960E94F913212C312CE9
:10073000210103C0C12CD12C76010E942112CD28A9
:10074000CE28CF2859F1811101C00FD30E94BB17C9
:100750006B017C0191FD1FC00FB6F8940F92C88009
:10076000D980EA80FB80072DA5019401C701B6015D
:1007700056DF882371F0662061F080949094A094F5
:10078000B0948C209D20AE20BF2088829982AA82BE
:10079000BB820F900FBE160127015524C201B10183
:1007A000DF91CF911F910F91FF90EF90DF90CF904D
:1007B000BF90AF909F908F907F906F905F904F9081
:1007C0003F902F9008950F931F930FB6F8940F92B8
:1007D000FC01008111812281338140955095609503
:1007E0007095402351236223732340835183628396
:1007F00073830F900FBEC901B8011F910F91089527
:100800004F925F926F927F92AF92BF92CF92DF92A0
:10081000EF92FF920F931F93CF93DF93EC016A0146
:100820007B018C01095F1F4F0E94E110EB85FC8565
:1008300088819981AA81BB81C82AD92AEA2AFB2A00
:10084000C882D982EA82FB82C12CD12C76013DC0BC
:10085000A480B58080819181A281B381AC01BD016A
:100860007727B2FD0EC0488059806A807B80442281
:1008700055226622772245284628472889F420E019
:1008800012C0488059806A807B80442255226622AB
:100890007722441555056605770521F020E003C051
:1008A00021E001C021E0222371F0B0FF04C0C42A7E
:1008B000D52AE62AF72A488159816A817B817260AC
:1008C000CF010E943415EA2DFB2DE017F10709F046
:1008D000BFCFC094D094E094F09488819981AA818C
:1008E000BB81C822D922EA22FB22C882D982EA82AD
:1008F000FB820E942112688179818A819B81DF912C
:10090000CF911F910F91FF90EF90DF90CF90BF900C
:10091000AF907F906F905F904F900895E8E8F8E077
:10092000ACE8B8E0B183A08313821282E8E0F5E17D
:10093000F0938708E0938608138212821182108256
:100940008CE79CE013969C938E931297ED93FC9307
:1009500090938308809382089093850880938408FD
:1009600080E090E890937D0880937C080895CF9371
:10097000DF93EC01A8E8B8E001C0DF01ED91FC9144
:100980001197EC17FD07C8F312968D919C91139760
:100990009D01280F391FC217D30749F42A813B81D3
:1009A000820F931F13969C938E931297ED018A8169
:1009B0009B819E01280F391FE217F307C1F4209194
:1009C000860830918708E217F30771F0228133819E
:1009D000820F931F9B838A83ED91FC9111978081F5
:1009E00091819983888305C03983288302C0F98364
:1009F000E883CA17DB0711F0CD93DC93DF91CF9129
:100A00000895EF92FF920F931F93CF93DF938C0182
:100A10000E94E1108091860890918708892B09F443
:100A20007DDF80917C0890917D0880239123892B24
:100A300009F076C00115110549F0C80104960817A0
:100A4000190718F000E010E001C08C010115110534
:100A500009F469C0809184089091850880179107F6
:100A600008F464C0C0918808D0918908E8E8F8E0EB
:100A700002C0FE01EC018A819B818017910720F45E
:100A8000888199810097A9F78091860890918708BD
:100A9000C817D90709F44DC0E080F18084E0E80E62
:100AA000F11C88819981918380832A813B81201B5D
:100AB000310B2930310548F0CE01800F911FFC0128
:100AC000338322831B830A8352DF2A813B818091F7
:100AD000840890918508821B930B909385088093DE
:100AE000840840918208509183088417950720F468
:100AF000909383088093820880917C0890917D0870
:100B0000282B392B3B832A831982188280918008F5
:100B100090918108019690938108809380080BC082
:100B2000E12CF12C08C0E12CF12C05C0E12CF12CBA
:100B300002C0E12CF12C0E942112E114F10411F405
:100B40000E94DE1DC701DF91CF911F910F91FF9091
:100B5000EF9008950F931F93CF93DF93009791F138
:100B6000EC0124974A815B8120917C0830917D08BB
:100B7000BA0162237323672B29F168817981672B7E
:100B800009F520953095242335233B832A830E9441
:100B9000E1108A819B812091840830918508820F21
:100BA000931F9093850880938408CE01E0DE8091A6
:100BB0007E0890917F08019690937F0880937E082D
:100BC0000E942112DF91CF911F910F910895FC0196
:100BD0000396928381834FEF5FEFBA01438354837F
:100BE00065837683908787839287818710820895B3
:100BF000FC011386128608950F931F93CF93DF9302
:100C0000EB01088119812A813B810F3F4FEF1407C7
:100C10002407340721F4FC01A185B28511C0DC0151
:100C2000139601C0DF011496ED91FC911597408158
:100C3000518162817381041715072607370790F7E2
:100C40001496ED91FC911597FD83EC83D783C683B1
:100C5000BF83AE831596DC93CE9314979B878A87C8
:100C6000FC0120812F5F2083DF91CF911F910F9195
:100C70000895CF93DF93FC01A285B385C481D5810C
:100C8000868197819F838E83C681D7818481958158
:100C90009D838C8311968D919C911297E817F9078B
:100CA00031F48681978112969C938E9311971386C7
:100CB00012868C9181508C938C91DF91CF91089505
:100CC000A89590EC88E10FB6F894A8958093600001
:100CD0000FBE909360000895FC016083319770838C
:100CE0003197108231971082319720E82083319715
:100CF0001082319710823197108277974083319715
:100D0000508386970895DCDFA091CB15B091CC1568
:100D1000CD91CDBFDD91DEBFFF91EF91DF91CF91FE
:100D2000BF91AF919F918F917F916F915F914F9103
:100D30003F912F911F910F91FF90EF90DF90CF90F7
:100D4000BF90AF909F908F907F906F905F904F90EB
:100D50003F902F901F900F900CBE0F900BBE0F90E6
:100D60000FBE0F90089581E008950F920FB6F8948A
:100D70000F920BB60F920CB60F921F9211242F9266
:100D80003F924F925F926F927F928F929F92AF921B
:100D9000BF92CF92DF92EF92FF920F931F932F9308
:100DA0003F934F935F936F937F938F939F93AF93F3
:100DB000BF93CF93DF93EF93FF93A091CB15B091A7
:100DC000CC150DB60D920EB60D920E947D13A0911A
:100DD000CB15B091CC15CD91CDBFDD91DEBFFF918C
:100DE000EF91DF91CF91BF91AF919F918F917F91C3
:100DF0006F915F914F913F912F911F910F91FF90B4
:100E0000EF90DF90CF90BF90AF909F908F907F90AA
:100E10006F905F904F903F902F901F900F900CBE5F
:100E20000F900BBE0F900FBE0F9008950F920FB64C
:100E3000F8940F920BB60F920CB60F921F921124DA
:100E40002F923F924F925F926F927F928F929F92DA
:100E5000AF92BF92CF92DF92EF92FF920F931F93C8
:100E60002F933F934F935F936F937F938F939F93B2
:100E7000AF93BF93CF93DF93EF93FF93A091CB15E5
:100E8000B091CC150DB60D920EB60D9213BE0E9408
:100E9000F51081110E947D13A091CB15B091CC1556
:100EA000CD91CDBFDD91DEBFFF91EF91DF91CF916D
:100EB000BF91AF919F918F917F916F915F914F9172
:100EC0003F912F911F910F91FF90EF90DF90CF9066
:100ED000BF90AF909F908F907F906F905F904F905A
:100EE0003F902F901F900F900CBE0F900BBE0F9055
:100EF0000FBE0F9008959ADF1895DC0153962C9140
:100F00005397222341F05A96ED91FC915B97908183
:100F10008AE0891B089580E008950FB6F8940F9237
:100F2000FC01868D811102C081E001C080E00F903C
:100F30000FBE08950FB6F8940F92FC01268D878D91
:100F4000281302C081E001C080E00F900FBE089519
:100F50000F931F93CF93DF93EC01042F1E8D48A1B5
:100F600041110CC088819981892B09F042C08C8184
:100F70009D810E94F9161D821C8242C0011117C07A
:100F800050E08A819B810E94AE3528A18A819B8195
:100F9000820F911D9B838A832C813D818217930749
:100FA00050F1888199819B838A8380E029C050E039
:100FB0008E819F810E94AE3588A190E091958195A8
:100FC00091092E813F81280F391F3F832E8348814D
:100FD00059812417350730F42C813D81820F931FEE
:100FE0009F838E83023049F4112349F0115080E031
:100FF00007C080E005C080E003C080E001C080E061
:101000001F5F1E8FDF91CF911F910F910895FC01FB
:1010100040A14423A9F050E026813781240F351FD9
:1010200037832683848195812817390720F08081B2
:10103000918197838683CB01668177810C94AE354D
:1010400008951F93CF93DF93EC010FB6F8940F929E
:101050001AA10BC08B89882351F0CE0143960E94C0
:10106000851481110E945B16115011169CF38FEFAD
:101070008AA30F900FBE0FB6F8940F9219A10BC060
:101080008885882351F0CE0108960E94851481112D
:101090000E945B16115011169CF38FEF89A30F90DD
:1010A0000FBEDF91CF911F910895CF93DF93EC0195
:1010B0000FB6F8940F92E881F9818F8D28A190E006
:1010C00030E0829FA001839F500D929F500D11240C
:1010D0004E0F5F1F5D834C831E8EFB83EA83019757
:1010E000289FA001299F500D389F500D1124CF013A
:1010F000840F951F9F838E838FEF89A38AA361112D
:101100000BC08885882371F0CE0108960E94851453
:10111000882341F02ADE06C0CE01089658DDCE01B4
:10112000439655DD0F900FBE81E0DF91CF9108957A
:101130000F931F93F801611103C01183008302C054
:1011400051834083878F60A361E0CF01AEDF1F91A1
:101150000F910895DF92EF92FF920F931F93CF9319
:10116000DF93F82EE62ED42E869FC001112483969D
:1011700048DCEC01009741F08C012D2DAC014D5D58
:101180005F4F6E2D8F2DD4DFCE01DF91CF911F9158
:101190000F91FF90EF90DF900895CF92DF92EF9242
:1011A000FF920F931F93CF93DF93CDB7DEB72997AD
:1011B0000FB6F894DEBF0FBECDBF7C016B012E834E
:1011C0003F834887598710E00FB6F8940F92F701D4
:1011D000968D878D981710F00230B1F4402FB6012C
:1011E000C701B6DEF7019389992341F0C701439601
:1011F0000E948514882321F0B8DD02C08111B5DD7D
:101200000F900FBE81E04CC08E819F81A885B9856B
:10121000892B8A2B8B2B21F40F900FBE80E040C0CE
:10122000111105C0CE0101960E94E41511E00F9046
:101230000FBEC7D70FB6F8940F92F70181A18F3F69
:1012400009F411A2F70182A18F3F09F412A20F90B5
:101250000FBEBE016A5F7F4FCE0101960E94F51559
:10126000811119C0C70166DE882381F04E815F813C
:1012700068857985C70108960E94E213C701E1DEFF
:101280000E9421128111A0CF70DD9ECFC701D9DE4F
:101290000E94211299CFC701D4DE0E94211280E062
:1012A00029960FB6F894DEBF0FBECDBFDF91CF9168
:1012B0001F910F91FF90EF90DF90CF9008950F93C3
:1012C000009769F0FC011582148211821082168247
:1012D00000E020E030E0A90160E070E05EDF0F9107
:1012E0000895CF93DF93482F60E081E033DFEC0176
:1012F000E6DFCE01DF91CF910895EF92FF920F9339
:101300001F93CF93DF938A01FC01568D378D5317BE
:1013100010F02230F9F4422F7801EC011AA18E8DE1
:10132000CE0116DE1F3F81F48B898823A9F0CE0100
:1013300043960E948514882389F0E114F10481F01A
:1013400081E0F70180830DC0FF24F394F10EFAA22F
:1013500081E007C080E005C081E003C081E001C0FA
:1013600081E0DF91CF911F910F91FF90EF90089551
:10137000CF92DF92EF92FF920F931F93CF93DF9361
:10138000CDB7DEB729970FB6F894DEBF0FBECDBF3D
:101390008C016B012E833F8348875987E12C0FB660
:1013A000F8940F92F801F68CFF2099F0B601C8016D
:1013B0002EDEFA94F801F68E8085882331F0C8017C
:1013C00008960E9485148111D0DC0F900FBE81E039
:1013D0004FC08E819F81A885B985892B8A2B8B2B45
:1013E00021F40F900FBE80E043C0E11006C0CE0193
:1013F00001960E94E415EE24E3940F900FBEE1D60F
:101400000FB6F8940F92F80181A18F3F09F411A251
:10141000F80182A18F3F09F412A20F900FBEBE0106
:101420006A5F7F4FCE0101960E94F515811117C0AA
:10143000C80173DD882379F04E815F8168857985E5
:10144000C80143960E94E213C801FBDDFAD781115F
:10145000A6CF8BDCA4CFC801F4DDF3D7A0CFC801A1
:10146000F0DDEFD7C80159DD882309F498CF80E07B
:1014700029960FB6F894DEBF0FBECDBFDF91CF9196
:101480001F910F91FF90EF90DF90CF900895EF9212
:10149000FF920F931F93CF93DF93CDB7DEB72997BA
:1014A0000FB6F894DEBF0FBECDBF8C014E835F83B5
:1014B00068877987E12CF12C0FB6F8940F92F80128
:1014C000868D8823C9F08150868F80819181892BF8
:1014D00029F40E94E517F80195838483F80180853B
:1014E000882331F0C80108960E94851481113DDCE3
:1014F0000F900FBE81E06FC08E819F81A885B98556
:10150000892B8A2B8B2B21F40F900FBE80E063C0B8
:10151000F11006C0CE0101960E94E415FF24F39459
:101520000F900FBE4ED60FB6F8940F92F80181A11E
:101530008F3F09F411A2F80182A18F3F09F412A292
:101540000F900FBEBE016A5F7F4FCE0101960E94D1
:10155000F515811126C0C801E0DC8823F1F0F801FF
:1015600080819181892B51F40FB6F8940F92848178
:1015700095810E947216E82E0F900FBE4E815F81FA
:1015800068857985C80143960E94E213C80159DD38
:1015900058D7811191CFE9DB8FCFC80152DD51D7E8
:1015A0008BCFC8014EDD4DD7C801B7DC882309F4C5
:1015B00083CFEE2079F00FB6F8940F92C8019DDC2E
:1015C000682FF801848195810E9454170F900FBEF7
:1015D00080E001C080E029960FB6F894DEBF0FBE10
:1015E000CDBFDF91CF911F910F91FF90EF900895A4
:1015F000CF93DF93EC010FB6F8940F9289A18F3F40
:1016000009F419A28AA18F3F09F41AA20F900FBE04
:101610008E8D811104C0CE0143960E944314CE01E9
:1016200010DDDF91CF910895FC0144815581228125
:101630003381240F351F80819181B901681B790B9B
:10164000CB016417750710F0841B950B08950F9359
:10165000FC018FE0DF011D928A95E9F775876487A9
:10166000558344833783268306870F910895AF926D
:10167000BF92CF92DF92EF92FF920F931F93CF937F
:10168000DF936C015B017A01FC01C281D38104818B
:1016900015810C1B1D0B4017510708F48A01F60138
:1016A00084859585A801B5018C0F9D1F0E94AE35DC
:1016B0000E151F0558F4A701401B510BB501600F13
:1016C000711FF601848595850E94AE35CE018E0D81
:1016D0009F1DF601248135818217930710F0821B2C
:1016E000930BF60193838283C701DF91CF911F9102
:1016F0000F91FF90EF90DF90CF90BF90AF90089543
:10170000CF92DF92EF92FF920F931F93CF93DF93CD
:101710001F921F92CDB7DEB77C016B015A834983BC
:1017200021153105C1F0FC01868580FD08C04217F6
:10173000530708F49A013A83298381E00FC02017E8
:10174000310758F042E050E0BE016F5F7F4FC701A4
:101750008EDF81E003C080E001C080E0882331F0AB
:1017600049815A81B601C70182DF02C080E090E062
:101770000F900F90DF91CF911F910F91FF90EF90FD
:10178000DF90CF900895AF92BF92CF92DF92EF9209
:10179000FF920F931F93CF93DF937C015B01E901CD
:1017A0004217530708F4EA01209781F1F7010081FD
:1017B000118184819581801B910B6E018C179D078F
:1017C00008F46C01F70164857585600F711FA6012F
:1017D000C5010E94AE35CC16DD0658F4AE014C1999
:1017E0005D09F70164857585C5018C0D9D1D0E94FD
:1017F000AE350C0F1D1FF70184819581081719075D
:1018000010F0081B190BF70111830083CE01DF9143
:10181000CF911F910F91FF90EF90DF90CF90BF90ED
:10182000AF9008956F927F928F929F92AF92BF92E6
:10183000CF92DF92EF92FF920F931F93CF93DF939C
:101840001F921F92CDB7DEB76C014B015A0179018F
:1018500001151105B1F0FC0160807180A801BE0185
:101860006F5F7F4F90DF89819A81E01AF10AA81695
:10187000B90630F4F60171826082A12CB12C01C04E
:101880005C019701A501B401C6017DDF0F900F90A7
:10189000DF91CF911F910F91FF90EF90DF90CF904C
:1018A000BF90AF909F908F907F906F900895CF9250
:1018B000DF92EF92FF920F93CF93DF93EC016B01D6
:1018C000413011F401E001C000E0C114D10419F469
:1018D000CC24C394D12CCE014096C817D90720F44C
:1018E00021968FD87C0102C0E12CF12CE114F10487
:1018F00039F09601AE01B701615F7F4FC701A7DEE6
:10190000C701DF91CF910F91FF90EF90DF90CF90C3
:1019100008950F930FB6F8940F92FC01208531853E
:10192000232B71F422853385232B61F426813781A3
:101930004481558164857585068589DE81E003C013
:1019400080E001C080E00F900FBE0F910895FC0170
:101950002481358180819181820F931F428153813F
:10196000841B950B01978217930710F0821B930B32
:1019700008952F923F924F925F926F927F928F9233
:101980009F92AF92BF92CF92DF92EF92FF920F930E
:101990001F93CF93DF93CDB7DEB72B970FB6F89495
:1019A000DEBF0FBECDBF4C017B876A871A010E8355
:1019B0001F8328873987FC018481958101972685BB
:1019C00020FF0CC02A01F2E04F0E511C8415950532
:1019D00058F41E821F821886198606C08417950740
:1019E00010F02A0101C02C018E819F81A885B98544
:1019F000892B8A2B8B2B09F438C0CE0101960E94CB
:101A0000CE150FB6F8940F92C401A1DF3C018415E6
:101A1000950540F560E080E090E00E94B81A0E94D1
:101A20005F16F401938782870F900FBEAE80BF8050
:101A3000C884D984E12CF12C00E010E0980140E04A
:101A400050E0BA0180E00E94F717F4011386128675
:101A5000BE016A5F7F4FCE0101960E94F515882373
:101A600081F205C00F900FBE02C0612C712C611471
:101A7000710419F4C4016BDF3C0182019301A101DF
:101A80006A857B85C4013CDE6C01892BE9F0C401C9
:101A9000CBDDF4012681378182179307A8F091D31B
:101AA000F40180859185892B71F080859185E12CE9
:101AB000F12C00E020E030E0A90160E00E949F18D6
:101AC000F40111861086BDD4C6012B960FB6F8948A
:101AD000DEBF0FBECDBFDF91CF911F910F91FF9061
:101AE000EF90DF90CF90BF90AF909F908F907F90BE
:101AF0006F905F904F903F902F900895AF92BF925C
:101B0000CF92DF92EF92FF920F931F93CF93DF93C9
:101B1000EC017B015A0169018E8580FF04C08A01B6
:101B20000E5F1F4F01C08A01CE0111DF9C01A5018C
:101B3000B701CE01E5DD5C01892BC1F0CE0174DD7A
:101B40002E813F818217930788F088859985892B9C
:101B500069F088859985E12CF12C00E020E030E0E7
:101B6000A90160E00E94961919861886C501DF91C7
:101B7000CF911F910F91FF90EF90DF90CF90BF908A
:101B8000AF9008954F925F926F927F928F929F9243
:101B9000AF92BF92CF92DF92EF92FF920F931F937B
:101BA000CF93DF93EC012B013A01580169018E8537
:101BB00080FF05C06894882481F8912C02C0812C94
:101BC000912CA114B104C104D10441F10FB6F894D1
:101BD0000F92CE0129DD7C018816990648F060E05D
:101BE00080E090E00E94B81A0E945F16998788876B
:101BF0000F900FBE8E149F04A0F0E12CF12C00E09A
:101C000010E0980140E050E0BA0180E00E94F71730
:101C100019861886CE0108DD7C0103C0CE0104DDE3
:101C20007C018E149F04E8F484019701A301B201A2
:101C3000CE01F8DD6C01892BB1F0C3D28A859B857A
:101C4000892B69F08A859B85E12CF12C00E020E04E
:101C500030E0A90160E00E949F181B861A86F1D32C
:101C600002C0C12CD12CC601DF91CF911F910F91E1
:101C7000FF90EF90DF90CF90BF90AF909F908F90AC
:101C80007F906F905F904F900895E0914515F0918F
:101C90004615808181110CC08FEF9FEFDC0180938E
:101CA0000F1590931015A0931115B0931215089568
:101CB000E0914515F09146150780F085E02D808173
:101CC0009181A281B38180930F1590931015A093F9
:101CD0001115B09312150895CF93DF93EC018B8DFE
:101CE0009C8D0E94AA05CE010E94AA05DF91CF918A
:101CF00008954F925F926F927F928F929F92AF92D0
:101D0000BF92CF92DF92EF92FF920F93CF93DF9328
:101D10002C015B014A013901E60165EA70E08B8D17
:101D20009C8D0E94B7358B8D9C8D21E0821A910885
:101D3000880E991EA114B10489F415C0822F90E079
:101D4000F501E80FF91F3081DE01A80FB91F5D967C
:101D50003C938081882329F02F5F01C020E020314F
:101D600068F31CA601C01D8E0A3008F009E00A8F36
:101D70000DA71EA6CE0102960E94F805CE010E9672
:101D80000E94F805DB87CA878AE090E0A0E0B0E017
:101D9000801B9109A109B1098E879F87A88BB98BF8
:101DA000DF8BCE8B84E0FE01BF96DF011D928A950A
:101DB000E9F71BAAA301B201C4010E946C06998332
:101DC0008883E114F10419F0F701D183C083DF9116
:101DD000CF910F91FF90EF90DF90CF90BF90AF9099
:101DE0009F908F907F906F905F904F900895CF93CA
:101DF000C0E009C02BE0C29FC0011124835A9A4E53
:101E00000E94E705CF5FCA30A8F382E595E10E9402
:101E1000E70587E495E10E94E70588E395E10E94E4
:101E2000E7058DE295E10E94E70581E295E10E94D8
:101E3000E70582E595E1909346158093451587E483
:101E400095E19093441580934315CF910895CF93D6
:101E5000DF93EC010FB6F8940F92809120158F5FFD
:101E6000809320158091CB159091CC15892B51F43E
:101E7000D093CC15C093CB1580912015813091F46F
:101E8000B6DF10C080911A1581110CC0E091CB15FE
:101E9000F091CC15928D8A8D891720F0D093CC15B6
:101EA000C093CB15809113158F5F80931315EA8D26
:101EB00080911B158E1710F4E0931B158BE08E9FFD
:101EC000F0011124E35AFA4E0180F281E02DFF83E4
:101ED000EE832681378139872887A681B7819E01C5
:101EE0002E5F3F4F15963C932E931497378326838E
:101EF000EA8D8E9FF0011124E35AFA4EFD87EC879C
:101F000080818F5F80830F900FBE80911A15882388
:101F100051F0E091CB15F091CC15928D8A8D9817E8
:101F200010F40E94B506DF91CF910895CF93DF930F
:101F30001BC00FB6F8940F92E0913415F09135154F
:101F4000C085D185CE0102960E9439068091201568
:101F500081508093201580912C15815080932C15F1
:101F60000F900FBECE01B8DE80912C158111E1CF0C
:101F7000DF91CF9108958F929F92AF92BF92CF92AF
:101F8000DF92EF92FF92CF93DF936B017C01C42F1E
:101F900080901C1590901D15A0901E15B0901F15D7
:101FA0008091CB159091CC1502960E9439068FEF47
:101FB000C816D806E806F806B1F5CC23A1F1E1E28F
:101FC000F5E1A181B281C091CB15D091CC15BF8331
:101FD000AE83C091CB15D091CC1516968D919C9166
:101FE0001797998788871696CD91DC9117978091DE
:101FF000CB159091CC1502969D838C838091CB1547
:102000009091CC15029617969C938E931697A0915B
:10201000CB15B091CC151D96FC93EE931C97808147
:102020008F5F80833FC0C80CD91CEA1CFB1CE09169
:10203000CB15F091CC15C282D382E482F582C8140C
:10204000D904EA04FB0468F46091CB157091CC15B7
:1020500080914315909144156E5F7F4F0E94FC055F
:1020600021C06091CB157091CC1580914515909150
:1020700046156E5F7F4F0E94FC0580910F15909171
:102080001015A0911115B0911215C816D906EA06BF
:10209000FB0640F4C0920F15D0921015E092111576
:1020A000F0921215DF91CF91FF90EF90DF90CF90DB
:1020B000BF90AF909F908F9008952F923F924F9234
:1020C0005F926F927F928F929F92AF92BF92CF92C8
:1020D000DF92EF92FF920F93CF93DF933C011B01AE
:1020E0004A012901CA010E9401056C01892B71F086
:1020F00084E390E00E940105EC01892B19F0DC8E4D
:10210000CB8E06C0C6010E94AA0502C0C0E0D0E086
:10211000209761F0A12CB12C6E019201A401B101B4
:10212000C301E7DDCE0193DE81E001C08FEFDF91D7
:10213000CF910F91FF90EF90DF90CF90BF90AF9035
:102140009F908F907F906F905F904F903F902F90D7
:102150000895EF92FF920F930F2EFDE0EF2EF5E121
:10216000FF2EF02D00E020E030E040EC50E065E68E
:1021700073E08EE491E0A1DF813011F40E945C1BDA
:102180008130C9F4F8948FEF9FEFDC0180930F1535
:1021900090931015A0931115B093121581E08093C0
:1021A0001A1510921C1510921D1510921E151092E2
:1021B0001F150E948306809106020F91FF90EF90F9
:1021C000089580910C158F5F80930C1508950FB6BC
:1021D000F8940F9260911C1570911D1580911E1539
:1021E00090911F150F900FBE0895CF92DF92EF923E
:1021F000FF92CF93DF9380910C15811105C1C090A0
:102200001C15D0901D15E0901E15F0901F158FEF36
:10221000C81AD80AE80AF80AC0921C15D0921D15EF
:10222000E0921E15F0921F15C114D104E104F104CF
:10223000B1F4809145159091461520914315309148
:10224000441530934615209345159093441580937B
:102250004315809114158F5F8093141516DD8091BE
:102260000F1590911015A0911115B0911215C81667
:10227000D906EA06FB0620F480E0B2C081E001C086
:1022800080E0E0914515F0914615908191110CC0C8
:102290004FEF5FEFBA0140930F1550931015609305
:1022A0001115709312159CC0E0914515F0914615DB
:1022B0000780F085E02D0084F185E02D4281538177
:1022C00064817581C416D506E606F70648F4409386
:1022D0000F1550931015609311157093121580C04F
:1022E000A485B585C681D781208531853F832E831E
:1022F000C085D185268137813D832C8311964D91F0
:102300005C9112979F012E5F3F4F4217530731F4A4
:102310004085518512965C934E93119715861486CD
:102320009C9191509C93A08DB18D109709F1C28919
:10233000D389448955895F834E83C489D58942896D
:1023400053895D834C8311966D917C911297AF01F7
:10235000425F5F4F6417750731F4448955891296BF
:102360005C934E931197118E108E9C9191509C937B
:10237000A28D90911B159A1710F4A0931B159BE04A
:102380009A9FD0011124A35ABA4E11960D90BC9178
:10239000A02DB783A68316964D915C911797518710
:1023A00040871696CD91DC9117973D832C83179625
:1023B0003C932E931697A28D9A9FD0011124A35A75
:1023C000BA4EB587A4879C919F5F9C93228DE09124
:1023D000CB15F091CC15928D291708F04FCF51CF26
:1023E000E091CB15F091CC15E28D9BE0E99FF001D7
:1023F0001124E35AFA4E9081923008F081E09091D6
:102400001515911116C016C08091161590911715CB
:10241000A0911815B09119150196A11DB11D8093B9
:10242000161590931715A0931815B093191580E001
:1024300001C081E0DF91CF91FF90EF90DF90CF90CE
:102440000895CF92DF92EF92FF92CF93DF930FB672
:10245000F8940F9280910C15815080930C15809107
:102460000C158111BEC080912015811188C0BCC09F
:10247000E0913F15F09140150084F185E02DA08D8D
:10248000B18DC289D389848995899F838E83C489BC
:10249000D589828993899D838C8311962D913C9156
:1024A0001297CF010E962817390731F48489958940
:1024B00012969C938E931197118E108E8C91815051
:1024C0008C93A485B585C681D781808591859F83AE
:1024D0008E83C085D185868197819D838C8311965B
:1024E0008D919C9112979F012E5F3F4F821793070A
:1024F00031F48085918512969C938E931197158661
:1025000014868C9181508C93A28D80911B158A1713
:1025100010F4A0931B158BE08A9FD0011124A35ABD
:10252000BA4E11960D90BC91A02DB783A683169636
:102530004D915C911797518740871696CD91DC910C
:1025400017973D832C8317963C932E931697A28D55
:102550008A9FD0011124A35ABA4EB587A4878C91C3
:102560008F5F8C93928DA091CB15B091CC155A961C
:102570008C91981730F081E08093151502C0E0E04F
:10258000F0E080913815811173CFEF2B09F07DDBDE
:10259000C0901615D0901715E0901815F0901915E9
:1025A000C114D104E104F104A1F01FDE882319F065
:1025B00081E08093151581E0C81AD108E108F1087F
:1025C000A1F7109216151092171510921815109267
:1025D000191580911515882331F00E94B50681E008
:1025E00003C080E001C080E00F900FBEDF91CF916B
:1025F000FF90EF90DF90CF9008958F929F92AF92CF
:10260000BF92CF92DF92EF92FF921F93CF93DF930F
:10261000EC016A017B01D5DD80901C1590901D15A1
:10262000A0901E15B0901F1588819981AA81BB8149
:10263000AC01BD014C0D5D1D6E1D7F1D88169906F8
:10264000AA06BB0660F4481759076A077B0798F487
:1026500084169506A606B70680F010E013C048174A
:1026600059076A077B0758F084169506A606B70631
:1026700040F010E007C010E005C011E003C011E019
:1026800001C011E0488359836A837B83112341F0A1
:10269000CB01BA01681979098A099B0940E06BDC12
:1026A000D0DE811102C00E94B506812FDF91CF914B
:1026B0001F91FF90EF90DF90CF90BF90AF909F90D1
:1026C0008F900895CF92DF92EF92FF926B017C0181
:1026D000672B682B692B39F074DD40E0C701B60128
:1026E0004ADCAFDE01C080E0811102C00E94B50665
:1026F000FF90EF90DF90CF90089580910C15882384
:1027000021F081E080931515089510921515E09140
:10271000CB15F091CC1520813181E091CB15F09152
:10272000CC15838D948D8217930760F06091CB1543
:102730007091CC15635E7F4F8091CB159091CC1535
:102740000E94EA1D80911B1501C08150282F30E0A6
:102750009BE0929FF001939FF00D1124E35AFA4EF3
:102760009081992391F39BE0929FA001939F500D3C
:102770001124DF010180F281E02D0480F581E02D3C
:102780001296FC93EE931197405A5A4EE417F507B0
:1027900029F444815581FD01528341839BE0929F3E
:1027A000F001939FF00D1124E35AFA4E0180F2815B
:1027B000E02D208531853093CC152093CB15809367
:1027C0001B150895CF92DF92EF92FF926A017B0171
:1027D0006091CB157091CC15625F7F4F0E94FC0514
:1027E00041E0C701B601C7DBFF90EF90DF90CF90CB
:1027F00008950F931F93CF93DF93FC01A091CB1506
:10280000B091CC1570681E964D935D936D937C933B
:102810005197A181B281C091CB15D091CC15BB8BC2
:10282000AA8BC091CB15D091CC1516968D919C9109
:1028300017979D8B8C8B1696CD91DC911797809175
:10284000CB159091CC150E969D838C838091CB15E2
:102850009091CC150E9617969C938E931697A091F7
:10286000CB15B091CC155996FC93EE935897808177
:102870008F5F808341E0C901B8017DDBDF91CF919B
:102880001F910F910895CF93DF93FC01CB01BA0103
:10289000A181B281C091CB15D091CC15BB8BAA8BF5
:1028A000C091CB15D091CC1516964D915C91179790
:1028B0005D8B4C8B1696CD91DC9117974091CB1583
:1028C0005091CC15425F5F4F5D834C834091CB1597
:1028D0005091CC15425F5F4F17965C934E931697BD
:1028E000A091CB15B091CC155996FC93EE935897C7
:1028F00030813F5F3083222319F06FEF7FEFCB01F0
:10290000422F39DBDF91CF910895CF93DF93DC0124
:102910001796ED91FC9118970084F185E02DA08D1C
:10292000B18DC289D389848995899F838E83C48917
:10293000D589828993899D838C8311968D919C91F1
:1029400012979F01225F3F4F8217930731F48489CA
:10295000958912969C938E931197118E108E8C915F
:1029600081508C9380910C15811152C0A485B5853E
:10297000C681D781808591859F838E83C085D185CF
:10298000868197819D838C8311968D919C9112975E
:102990009F012E5F3F4F8217930731F48085918509
:1029A00012969C938E931197158614868C91815064
:1029B0008C93A28D80911B158A1710F4A0931B1580
:1029C0008BE08A9FD0011124A35ABA4E11960D9024
:1029D000BC91A02DB783A68316964D915C91179755
:1029E000518740871696CD91DC9117973D832C83B4
:1029F00017963C932E931697A28D8A9FD00111248F
:102A0000A35ABA4EB587A4878C918F5F8C931CC054
:102A100048E355E1DA011196CD91DC911297D38B01
:102A2000C28B8E819F81958B848B8E819F81DC01EF
:102A300015963C932E9314973F832E83518F408F8E
:102A4000DA018C918F5F8C93928DE091CB15F09190
:102A5000CC15828D891720F481E08093151501C073
:102A600080E0DF91CF910895CF93DF93DC01706810
:102A70004D935D936D937C9313971896ED91FC9114
:102A800019971A964D915C911B9714968D919C9174
:102A9000159716962D913C911797EC013F832E8345
:102AA00016968D919C91179714962D913C911597A0
:102AB000EC013D832C83EA0189819A81A817B9072B
:102AC00031F416968D919C9117979A8389831B9662
:102AD0001C921E921A97DA018C9181508C93A485D6
:102AE000B585C681D781808591859F838E83C0857A
:102AF000D185868197819D838C8311968D919C9140
:102B000012979F012E5F3F4F8217930731F4808504
:102B1000918512969C938E931197158614868C91AD
:102B200081508C93A28D80911B158A1710F4A0936D
:102B30001B158BE08A9FD0011124A35ABA4E11961F
:102B40000D90BC91A02DB783A68316964D915C91F4
:102B50001797518740871696CD91DC9117973D8343
:102B60002C8317963C932E931697A28D8A9FD001A3
:102B70001124A35ABA4EB587A4878C918F5F8C938A
:102B8000928DE091CB15F091CC15828D891718F4B8
:102B900081E080931515DF91CF9108950FB6F894D9
:102BA0000F9220911415FC01208340911C15509127
:102BB0001D1560911E1570911F154183528363830B
:102BC00074830F900FBE089520911415FC0120838B
:102BD00040911C1550911D1560911E1570911F1587
:102BE000418352836383748308958F929F92AF923F
:102BF000BF92CF92DF92EF92FF920F931F93CF93EA
:102C0000DF93FB010FB6F8940F92C0901C15D09083
:102C10001D15E0901E15F0901F15DC0111960D9109
:102C20001D912D913C91149746015701801A910AEC
:102C3000A20AB30A40815181628173814F3FBFEF85
:102C40005B076B077B0739F1EC01B881A091141584
:102C5000BA1759F0C016D106E206F30630F010821A
:102C600011821282138281E017C084169506A6068F
:102C7000B70658F4481959096A097B0940835183FA
:102C800062837383A1DF80E007C010821182128209
:102C9000138281E001C080E00F900FBEDF91CF91E1
:102CA0001F910F91FF90EF90DF90CF90BF90AF906A
:102CB0009F908F90089581E08093151508958091DD
:102CC000CB159091CC15089580911A15882331F079
:102CD00080910C15811104C082E0089581E008956F
:102CE00080E008950F931F93CF93DF93FC01892B0E
:102CF00009F477C0828DA091CB15B091CC155A966E
:102D00009C91891708F063C0468557856089718951
:102D1000772394F0A091CB15B091CC155A969C9145
:102D20004AE050E060E070E0491B51096109710917
:102D300046875787608B718B248535854BE0849F50
:102D4000C0011124835A9A4E28173907B9F5EF01AB
:102D50008F010E5F1F4FC8010E943906E091CB150D
:102D6000F091CC15E28DEA8F80911B158E1710F42F
:102D7000E0931B158BE08E9FF0011124E35AFA4E6D
:102D80000180F281E02DFF83EE8326813781398730
:102D90002887A681B78115961C930E9314971783E5
:102DA0000683EA8D8E9FF0011124E35AFA4EFD87C7
:102DB000EC8780818F5F808381E016C0A091CB1566
:102DC000B091CC155A968C91828F81E00DC095A55B
:102DD000E091CB15F091CC15828D981720F080E012
:102DE00003C080E001C081E0DF91CF911F910F917E
:102DF00008950F931F93CF93DF93FC01892B09F460
:102E000049C086A5815086A7228D95A5291709F46A
:102E100043C0811143C0EF018F010E5F1F4FC801F6
:102E20000E943906EDA5EA8F8AE090E0A0E0B0E0CC
:102E30008E1B9109A109B1098E879F87A88BB98B39
:102E400080911B158E1710F4E0931B158BE08E9F5D
:102E5000F0011124E35AFA4E0180F281E02DFF8344
:102E6000EE832681378139872887A681B781159619
:102E70001C930E93149717830683EA8D8E9FF0019F
:102E80001124E35AFA4EFD87EC8780818F5F80839F
:102E900081E005C080E003C080E001C080E0DF91F8
:102EA000CF911F910F9108950F931F93CF93DF93AD
:102EB000FC01892B09F45AC085A5861708F4862FD2
:102EC000928D891709F452C026A5213009F04EC011
:102ED000828F4685578560897189772364F04AE03F
:102EE00050E060E070E0481B5109610971094687B4
:102EF0005787608B718B248535854BE0949FC0018B
:102F00001124835A9A4E2817390781F5EF018F0152
:102F10000E5F1F4FC8010E943906EA8D80911B1574
:102F20008E1710F4E0931B158BE08E9FF001112497
:102F3000E35AFA4E0180F281E02DFF83EE83268171
:102F4000378139872887A681B78115961C930E9300
:102F5000149717830683EA8D8E9FF0011124E35A9C
:102F6000FA4EFD87EC8780818F5F8083DF91CF9160
:102F70001F910F910895CF92DF92EF92FF92E0910F
:102F8000CB15F091CC156685778580899189E09184
:102F9000CB15F091CC15A091CB15B091CC155A96CC
:102FA0002C910F2EFAE0CF2ED12CE12CF12CF02D0C
:102FB000C21AD108E108F108C686D786E08AF18AEC
:102FC000FF90EF90DF90CF9008958091CB15909176
:102FD000CC15892B39F0E091CB15F091CC1586A555
:102FE0008F5F86A78091CB159091CC1508954F9255
:102FF0005F926F927F92AF92BF92CF92DF92EF92E9
:10300000FF920F931F93CF93DF93280139010FB6DF
:10301000F8940F92E091CB15F091CC15C82FD0E029
:10302000EC0FFD1F83A9823079F1E091CB15F0916F
:10303000CC15CE01880F991F880F991FE80FF91F33
:1030400087A590A9A1A9B2A94095509560957095C2
:10305000482359236A237B2347A750AB61AB72AB4C
:10306000E091CB15F091CC15EC0FFD1F81E083AB07
:10307000A114B104C104D10439F041E0C601B50185
:103080000E94BB0F0E94B5060F900FBE0FB6F894BA
:103090000F92E114F104A1F0E091CB15F091CC1561
:1030A000CE01880F991F880F991FE80FF91F87A578
:1030B00090A9A1A9B2A9F70180839183A283B383C8
:1030C000E091CB15F091CC15EC0FFD1F83A9823058
:1030D000E9F4E091CB15F091CC15CE01880F991F42
:1030E000880F991FE80FF91F87A590A9A1A9B2A978
:1030F0004094509460947094482259226A227B2212
:1031000047A650AA61AA72AA81E001C080E020917E
:10311000CB153091CC15C20FD31F1BAA0F900FBE39
:10312000DF91CF911F910F91FF90EF90DF90CF90A3
:10313000BF90AF907F906F905F904F9008958F9267
:103140009F92AF92BF92EF92FF920F93CF93DF9334
:10315000DC010FB6F8940F92E114F10489F0E62F28
:10316000F0E0EE0FFF1FEE0FFF1FE80FF91F87A41F
:1031700090A8A1A8B2A8F70180829182A282B3820E
:1031800070E0FD01E60FF71F83A992E093AB0230D8
:1031900001F118F4013031F04DC0033079F1043001
:1031A000D1F148C0660F771F660F771FFD01E60F4C
:1031B000F71F87A490A8A1A8B2A8BA01A90148291D
:1031C00059296A297B2947A750AB61AB72AB01E053
:1031D00034C0660F771F660F771FFD01E60FF71FDC
:1031E00047A550A961A972A94F5F5F4F6F4F7F4FED
:1031F00047A750AB61AB72AB01E01FC0660F771FF2
:10320000660F771FFD01E60FF71F27A730AB41AB15
:1032100052AB01E012C0823079F0660F771F660F63
:10322000771FFD01E60FF71F27A730AB41AB52AB6D
:1032300001E003C001E001C000E0813009F069C095
:103240001C96ED91FC911D971696CD91DC911797E8
:1032500018968D919C9119979F838E831896CD9186
:10326000DC91199716968D919C9117979D838C836D
:10327000818192819D012E5F3F4F8217930731F428
:1032800018968D919C911997928381831D961C921B
:103290001E921C978081815080835A96EC915A9798
:1032A00080911B158E1710F4E0931B158BE08E9FF9
:1032B000F0011124E35AFA4E0180F281E02D1796B5
:1032C000FC93EE9316974681578119965C934E9323
:1032D0001897C681D7813D832C83378326835A96DE
:1032E000EC915A978E9FF0011124E35AFA4E1D96E5
:1032F000FC93EE931C9780818F5F80835A969C91FC
:10330000E091CB15F091CC15828D891710F40E94B5
:10331000B5060F900FBE802FDF91CF910F91FF90D8
:10332000EF90BF90AF909F908F9008958F929F9253
:10333000AF92BF92CF92DF92EF92FF920F93CF9313
:10334000DF93DC01E114F10489F0E62FF0E0EE0FE9
:10335000FF1FEE0FFF1FE80FF91F87A490A8A1A879
:10336000B2A8F70180829182A282B38270E0FD014F
:10337000E60FF71F93A982E083AB023001F118F446
:10338000013031F04DC0033079F10430D1F148C043
:10339000660F771F660F771FFD01E60FF71F87A4E3
:1033A00090A8A1A8B2A8BA01A901482959296A2957
:1033B0007B2947A750AB61AB72AB81E034C0660F8D
:1033C000771F660F771FFD01E60FF71F47A550A96E
:1033D00061A972A94F5F5F4F6F4F7F4F47A750ABF7
:1033E00061AB72AB81E01FC0660F771F660F771F5E
:1033F000FD01E60FF71F27A730AB41AB52AB81E0D1
:1034000012C0923079F0660F771F660F771FFD01AB
:10341000E60FF71F27A730AB41AB52AB81E003C0EB
:1034200081E001C080E0913009F096C090910C15C8
:1034300091115FC01C96ED91FC911D971696CD9150
:10344000DC91179718962D913C9119973F832E8305
:103450001896CD91DC91199716962D913C9117975E
:103460003D832C83418152819D012E5F3F4F421746
:10347000530731F418964D915C911997528341830B
:103480001D961C921E921C979081915090835A9683
:10349000EC915A9790911B159E1710F4E0931B1511
:1034A0009BE09E9FF0011124E35AFA4E0180F281C5
:1034B000E02D1796FC93EE93169746815781199647
:1034C0005C934E931897C681D7813D832C833783B5
:1034D00026835A96EC915A979E9FF0011124E35A45
:1034E000FA4E1D96FC93EE931C9790819F5F9083FC
:1034F00021C068E375E1FB01C181D2815396DC9361
:10350000CE9352972E813F8155963C932E9354979C
:103510004E815F819D01225F3F4FFA0135832483F5
:103520003F832E8359967C936E935897FB0190812D
:103530009F5F90835A962C91E091CB15F091CC151A
:10354000928D921748F4C114D10419F091E0F6015C
:10355000908391E090931515DF91CF910F91FF909B
:10356000EF90DF90CF90BF90AF909F908F90089595
:10357000009721F48091CB159091CC150FB6F8945B
:103580000F9270E0FC01E60FF71F23A9223031F4FF
:10359000FC01E60FF71F13AA81E001C080E00F9045
:1035A0000FBE0895DC01E091D715F091D815808108
:1035B00091E0811190E09C93911108C00780F08503
:1035C000E02D6081718182819381089560E070E0D7
:1035D000CB010895CF92DF92EF92FF920F931F934A
:1035E000FC01428353836483758393878287041726
:1035F000150726073707C0F00C191D092E093F09CA
:1036000086859785A089B189081719072A073B077E
:1036100000F5BF016E5F7F4F8091D5159091D61553
:103620000E94FC0580E018C00C151D052E053F0505
:1036300028F44C155D056E057F0568F4BF016E5FCB
:103640007F4F8091D7159091D8150E94FC0580E09E
:1036500003C081E001C081E01F910F91FF90EF90C6
:10366000DF90CF9008950FB6F8940F928091D31504
:103670009091D415892BE9F484EE95E10E94E70539
:1036800089ED95E10E94E70584EE95E19093D815C8
:103690008093D71589ED95E19093D6158093D51534
:1036A00040E067E08AE00E94AA089093D4158093D6
:1036B000D3150F900FBE0895EF92FF920F93D3DFB3
:1036C0008091D3159091D415892B91F00F2EF1EDA7
:1036D000EF2EF5E1FF2EF02D03E020E030E040EC8E
:1036E00050E06AE673E088E591E00E945D1001C059
:1036F00080E00F91FF90EF9008958F929F92AF928C
:10370000BF92CF92DF92EF92FF920F931F93CF93CE
:10371000DF93CDB7DEB727970FB6F894DEBF0FBEA5
:10372000CDBFE091D315F091D415309781F1698325
:103730002A833B834C835D839F838E836630F4F4BE
:10374000C3DA823069F400E0A7019601BE016F5F21
:103750007F4F8091D3159091D4150E94CD0818C049
:1037600000E020E030E0A901BE016F5F7F4F809153
:10377000D3159091D4150E94CD080AC020E0A8016D
:10378000BE016F5F7F4FCF010E947D0901C080E0C5
:1037900027960FB6F894DEBF0FBECDBFDF91CF9155
:1037A0001F910F91FF90EF90DF90CF90BF90AF905F
:1037B0009F908F9008958F929F92AF92BF92CF92D9
:1037C000DF92EF92FF920F931F93CF93DF933BC053
:1037D0000780F085E02D80809180A280B380C08535
:1037E000D1858E010E5F1F4FC8010E943906EC89FA
:1037F000FD89CE0119958E8982FF25C08E859F8512
:10380000A889B989880D991DAA1DBB1D881699061E
:10381000AA06BB0670F48A839B83AC83BD83DB87D7
:10382000CA87B8018091D7159091D8150E94FC05E0
:103830000AC0C12CD12C760100E010E0A501940152
:1038400060E0CE015ADFE091D715F091D815808164
:103850008111BECF8091D5159091D6159093D81532
:103860008093D715F093D615E093D515DF91CF91BE
:103870001F910F91FF90EF90DF90CF90BF90AF908E
:103880009F908F900895CF92DF92EF92FF92CF9307
:10389000DF93EC010E94E7106B017C018091CD1554
:1038A0009091CE15A091CF15B091D015C816D9061C
:1038B000EA06FB0620F47FDF81E0888301C01882DE
:1038C000C092CD15D092CE15E092CF15F092D015C2
:1038D000C701B601DF91CF91FF90EF90DF90CF90BD
:1038E00008954F925F926F927F928F929F92AF92C4
:1038F000BF92CF92DF92EF92FF920F931F93CF93DD
:10390000DF934B015C0129013A01E091D715F09159
:10391000D8150780F085E02DC085D185CE010296AF
:103920000E9439068E8982FF1BC04E855F8568899B
:103930007989480D591D6A1D7B1D7501640193012C
:103940008201CE0147DE882369F0C12CD12C76019B
:1039500000E010E0A501940160E0CE01CEDE02C0DF
:103960008E7F8E8BEC89FD89CE011995DF91CF91E9
:103970001F910F91FF90EF90DF90CF90BF90AF908D
:103980009F908F907F906F905F904F9008958F924F
:103990009F92AF92BF92CF92DF92EF92FF921F93CE
:1039A000CF93DF931F92CDB7DEB76B017C01142F4D
:1039B0000E94E110CE01019666DF4B015C01898116
:1039C00081112DC011110DC08C149D04AE04BF04D3
:1039D00040F00E942112A5019401C701B60181DFC8
:1039E00020C0112341F0E091D515F091D6158081CA
:1039F00011E0811110E0B701A601481959096A09BF
:103A00007B09212F8091D3159091D4150E94F80A3B
:103A10000E942112811105C00E94B50602C00E94B9
:103A200021120F90DF91CF911F91FF90EF90DF90C7
:103A3000CF90BF90AF909F908F900895AF92BF921C
:103A4000CF92DF92EF92FF920F931F93CF93DF936A
:103A5000CDB7DEB728970FB6F894DEBF0FBECDBF47
:103A600082C0898188230CF47EC0AE80BF80D501DE
:103A70001C968D919C911D97892B21F0C501029672
:103A80000E943906CE010896FEDE8B019C01E98179
:103A90000E2E000CFF0BEA30F10508F064C08827F9
:103AA000EE58FF4F8F4F0C947B33F5018689816070
:103AB000868BCA80DB80EC80FD80468557856089D7
:103AC00071894C0D5D1D6E1D7F1DC50183DD882331
:103AD00009F449C0D5015496ED91FC915597C50163
:103AE0001995F501868982FF3EC04A815B816C8110
:103AF0007D8186859785A089B1899A01AB01280FC0
:103B0000391F4A1F5B1FC12CD12C760100E010E049
:103B100060E0C501F2DD27C0D50156968C9156971D
:103B20008E7F56968C931FC0F50186898160868BA7
:103B30004A815B816C817D8146875787608B718B61
:103B4000400F511F621F731F68017901C50142DDDB
:103B50000AC0F501868981FD04C0C5010E94AA053D
:103B600002C08E7F868B20E030E0A901BE016F5F2E
:103B70007F4F8091D3159091D4150E94B80981117F
:103B800070CF28960FB6F894DEBF0FBECDBFDF9181
:103B9000CF911F910F91FF90EF90DF90CF90BF904A
:103BA000AF900895089584B1806884B985B1806824
:103BB00085B9089583B1806883B90895F4DF2FEF44
:103BC00080E792E0215080409040E1F700C0000083
:103BD000F1DFF5CFE8DF2FEF87EA91E62150804053
:103BE0009040E1F700C00000E5DFF5CFEF92FF92D3
:103BF0000F93082F9CD281110CC01F921F9287E057
:103C000093E09F938F930E9454360F900F900F90E4
:103C10000F90E12CF12C20E030E040EC50E062E726
:103C200073E089E39EE10E945D100F91FF90EF9099
:103C300008952091F1153091F215ADECBCEC0E9485
:103C4000833396958795969587959695879508954C
:103C50008091EF159091F0156AE070E00E94463374
:103C6000CB01089540E150E060E070E00C94000466
:103C700008950E94E7106093BE177093BF1780935A
:103C8000C0179093C11748EA58E460E070E08EEBEB
:103C900097E10E94FD1263D28111F5CF62E370E0DB
:103CA00080E090E00E9462136FD28111ECCF61E05E
:103CB00070E080E090E00E9462138CD29093F21545
:103CC0008093F115ADD29093F0158093EF150E947B
:103CD0008901C8DFD8CFEF92FF920F93E12CF12C2E
:103CE000082F20E030E040EC50E06DE773E084E91D
:103CF0009EE10E945D100F91FF90EF9008950F9349
:103D000082E993E00E9467360E94A1029093F41525
:103D10008093F31500E020E030E0A90160E070E05E
:103D20000E94CD080F910895EADF4FEF5FEFBA01CF
:103D30008091F3159091F4150E94470A8823A9F306
:103D40000E946C02682F80E0A6D70E946C028093CC
:103D5000F51500E020E030E0A90160E070E080911E
:103D6000F3159091F4150E94CD08DFCF80E00E94FA
:103D7000372A86E00E943E2B85E00E94F20183E014
:103D800020D784E00E94060283E030DF9CD741E028
:103D900060E070E08CE290E00E94570C9093CA17AC
:103DA0008093C917BC0181E065D382E07FD1609127
:103DB000C9177091CA1781E00E94F70281E08BDF7A
:103DC00089EA93E00E9467360E94A910FFCF909382
:103DD0000D1680930C16089590931116809310166B
:103DE000089590930F1680930E160895CF93DF9346
:103DF000EC018BEB93E00E946736809111168F9354
:103E0000809110168F938BED93E09F938F930E9478
:103E1000543680910F168F9380910E168F938BEFEF
:103E200093E09F938F930E94543680910D168F9349
:103E300080910C168F9389E194E09F938F930E9459
:103E40005436E6EFF5E186E0818382E0808380915D
:103E50001016909111169283838380910E16909183
:103E60000F169483858380910C1690910D1696837E
:103E7000878386E1DE0101900D928A95E1F78DB787
:103E80009EB70C960FB6F8949EBF0FBE8DBFCE01A5
:103E9000DF91CF910895CF93DF9381E00E948C2B27
:103EA00037D3B3D59F938F9386E394E09F938F93FB
:103EB0000E945436ABD4A9D59F938F9389E494E0A4
:103EC0009F938F930E94543688E296E133D39DD519
:103ED000C8E2D6E1DF93CF939F938F9382E694E07D
:103EE0009F938F930E945436CE0140D38ED59F93DB
:103EF0008F93DF93CF9386E794E09F938F930E94F5
:103F00005436AE016BE874E08CEA94E05DD57DD563
:103F10009F938F93DF93CF938BE894E09F938F933E
:103F20008CEA94E09F938F938DEB94E09F938F9313
:103F30000E9454364ED369D59F938F9383EF94E0BC
:103F40009F938F930E9454368DB79EB782960FB67B
:103F5000F8949EBF0FBE8DBF81E035D456D59F9398
:103F60008F9382E095E09F938F930E94543684EF65
:103F700091E034D44AD59F938F9381E08F9384EF5F
:103F80008F9383E295E09F938F930E9454368DB771
:103F90009EB70A960FB6F8949EBF0FBE8DBFCAE0BB
:103FA00080E01DD3D82F31D59F938F931F92CF934D
:103FB00083E495E09F938F930E9454360F900F9067
:103FC0000F900F900F900F90D83059F080E00E9422
:103FD000F02B66E371E080E090E00E946213C15034
:103FE000F9F6D83021F481E00E94D22B09C081E09B
:103FF0000E94E12B80E00E94AF2B0E94B506FDCF0E
:10400000DF91CF910895CF93DF93CDB7DEB7669759
:104010000FB6F894DEBF0FBECDBF81E06BD262E079
:1040200070E080E090E00E94621380E063D266E975
:1040300070E080E090E00E94621315D22CDF0E94B5
:10404000E7106093BE177093BF178093C0179093CB
:10405000C11748EA58E460E070E08EEB97E10E94F7
:10406000FD1283E695E00E946736CE010196BEDE22
:1040700086E1FE013196A2E1B6E101900D928A95AA
:10408000E1F783E00E94022C62E176E180E0D0D289
:10409000BCD49F938F9381E795E09F938F930E9469
:1040A00054360F900F900F900F90D3CFEF92FF9256
:1040B0000F93E12CF12C082F20E030E048E851E08C
:1040C00066E875E083E090E20E945D100F91FF903A
:1040D000EF9008956530F1F4FA0180818F7390E0DC
:1040E000982F88272181822B90930A0280930902BE
:1040F0008281F0E48F9FC0011124FA01238126956B
:104100002695822B909308028093070281E080938A
:104110008C160895643051F080E090E4909308028A
:104120008093070290930A028093090208950F93E7
:104130001F930AE610E220E034E244EF50E060E032
:1041400087E20E94252C90938E1680938D1621E095
:10415000892B09F020E0822F1F910F910895809103
:104160008D1690918E16009759F040E060E070E057
:104170000E94762C843031F410928C1680E00895E1
:1041800082E0089583E0089580918D1690918E16B7
:10419000009739F064E00E94C22C853021F083E062
:1041A000089582E0089580E0089560910902709179
:1041B0000A0280E090E00E94CC2E20E030E048EC43
:1041C00052E40E945A2F20E038EF4FE756E40C9457
:1041D000332E0895EADF20E030E040E251E40E940F
:1041E0005A2F0E94A02ECB01089560910702709172
:1041F000080280E090E00E94CC2E20E030E045E212
:1042000053E40E945A2F20E038EF4FE756E40E9413
:10421000332E20E030E040E252E40C94CE2D08959D
:10422000E4DF20E030E040E251E40E945A2F0E9497
:104230009B2ECB0108950F931F93CF93DF931F9273
:104240001F92CDB7DEB78C0119822DC0E091C61642
:10425000EC3250F481E08E0F8093C616F0E0E85007
:10426000F94E8A81808302C01092C6168A818A30F4
:10427000D1F44091C61650E0FA01EA50F94E10828E
:10428000415051099E012F5F3F4F68EF76E18091C9
:10429000C9169091CA160E947E0D898181110E94D3
:1042A000B5061092C616BE016E5F7F4FC80149D693
:1042B000882361F20F900F90DF91CF911F910F91A2
:1042C00008950F931F93CF93DF938C01EB0180919F
:1042D000C9169091CA160E94890CB8018FE896E120
:1042E0000E94EE35209779F0EFE8F6E1019000208A
:1042F000E9F7319780E290E091838083BE018FE8F7
:1043000096E10E94E335EFE8F6E1DF010D90002031
:10431000E9F711978DE09AE011969C938E9312968F
:104320001C9201900020E9F73197EF58F641AE2F2B
:104330008FE896E1AC016A2F8091CB169091CC1654
:10434000ABD5811111C008E215E020E030E04DE26C
:1043500050E062E577E18091C9169091CA160E94FB
:10436000C20D82E597E102C080E090E0DF91CF913D
:104370001F910F9108952F923F924F925F926F92EB
:104380007F928F929F92AF92BF92CF92DF92EF92E5
:10439000FF920F931F93CF93DF935C01FC01019079
:1043A0000020E9F731976F01C81AD90A5C2C0F2E4B
:1043B000F6E28F2EF8E09F2EF02DE12CF12C4C2C04
:1043C0003701F40101811281E80109900020E9F729
:1043D0002197C01BD10B3C2EF9E0CF16D10458F029
:1043E000F4012080FEE02F1206C0B801C5010E9432
:1043F000BE35892B09F5442D351408F44C2F50E0B7
:10440000B801C5010E94F535892B49F4F301EE0F7F
:10441000FF1FE60DF71DEA5DF74F20800DC08FEFFF
:10442000E81AF80AE3E08E0E911CF1E1EF16F104B0
:1044300039F66894222424F8822DDF91CF911F91C0
:104440000F91FF90EF90DF90CF90BF90AF909F9033
:104450008F907F906F905F904F903F902F90089536
:1044600030DF89CF08958091C9169091CA160C94B7
:10447000890C08958F929F92AF92CF92EF920F93F3
:104480001F93CF93C82F8B0141E060E070E088EC70
:1044900090E00E94570C9093CA168093C91610930F
:1044A000C8160093C7160F2EFBE18F2EF1E29F2E48
:1044B000F02D6894AA24A6F86894CC24C6F8E12CC0
:1044C00000E023E040E051EE60E070E08C2F17D474
:1044D0009093CC168093CB16E7E0F1E08081806169
:1044E0008083CF911F910F91EF90CF90AF909F90CD
:1044F0008F900895882331F0E8E0F1E080818F7E8D
:1045000080830895E8E0F1E08081806180830895F0
:1045100060E070E08CEA95E0D4DEE2E5F7E101903E
:104520000020E9F73197E255F74181E0759708F0EF
:1045300080E00895CF93DF93EC0160E070E08DEBB5
:1045400095E0BFDEE2E5F7E101900020E9F7E356F0
:10455000F74139F462E577E1CE010E94EE3580E063
:1045600002C0188281E0DF91CF910895FC01019093
:104570000020E9F79F01215131092817390729F453
:10458000BC018BEE95E06CCF089589E00895FC01A5
:1045900001900020E9F79F012151310928173907BF
:1045A00029F4BC018AEF95E05BCF089589E0089576
:1045B000FC0101900020E9F79F01215231092817E1
:1045C000390729F4BC0189E096E04ACF089589E0D3
:1045D000089560E070E088E496E042CF08950F937C
:1045E0001F93E82FF0E0EE0FFF1FEE5DF74F6081A5
:1045F000718181E596E034DF811114C008E215E095
:1046000020E030E04DE250E062E577E18091C916AC
:104610009091CA160E94C20D882321F082E597E18D
:10462000AADE03C082E597E1A6DE1F910F910895EF
:104630000F931F93CF93DF931F92CDB7DEB7DB01AC
:1046400011969C911197953108F0B4C0992381F18E
:1046500060E070E0272F30E0462F50E0FD01E40FCE
:10466000F51F928192959F709A3010F0995C01C06D
:10467000905DF901ED51F94E90832F5F3F4FFD01A1
:10468000E40FF51F92819F70492F50E04A30510589
:1046900014F0995C01C0905DF901ED51F94E9083E1
:1046A0007E5F6F5F11969C911197691798F201C018
:1046B00070E0E72FF0E0ED51F94E10824C9181113E
:1046C00003C08AE596E002C08CE596E023EE36E171
:1046D0003F932F931F924F939F938F9380E696E083
:1046E0009F938F9385E297E19F938F930E949736D4
:1046F00060E070E085E297E1B3DE0FB6F894DEBFCC
:104700000FBECDBF811159C008E215E020E030E0B6
:104710004DE250E062E577E18091C9169091CA16AA
:104720000E94C20D882309F447C082E597E123DE89
:104730008E3009F042C087E089838091C71690913E
:10474000C816892BA9F1BE016F5F7F4F82E597E103
:1047500068D18093CD16E981F0E0EE5AF84EDF0182
:104760000D900020E9F71197AE1BBF0BAA2391F023
:10477000BB27CD0101979C0112F42F5F3F4F359568
:1047800027952093CE16AF014F5F5F4F64E18FEC0A
:1047900096E173D101E010E020E030E046E150E026
:1047A0006DEC76E18091C7169091C8160E94B90C05
:1047B0008EE003C084E101C080E00F90DF91CF91D3
:1047C0001F910F910895813019F060E776E002C0E3
:1047D00069E477E084E796E043CE08959F938F9352
:1047E00085EA96E09F938F9385E297E19F938F935D
:1047F0000E94973660E070E085E297E131DE0F902D
:104800000F900F900F900F900F9008952F923F925E
:104810004F925F926F927F928F929F92AF92BF92D0
:10482000CF92DF92EF92FF920F931F93CF93DF937C
:10483000CDB7DEB7A0970FB6F894DEBF0FBECDBFE1
:1048400062ED76E08EED96E03CDD95DD8111A3C052
:1048500080E2E2E2F2E0DE01119601900D928A958B
:10486000E1F79E012F5F3F4F6901E12CF12C0F2EE4
:10487000FAEEAF2EF6E0BF2EF02D05E217E10F2E77
:10488000F3E04F2EF7E05F2EF02D0F2EFAE18F2E82
:10489000F7E09F2EF02D0F2EF4E36F2EF7E07F2E22
:1048A000F02D3E2C2F2CFF92EF92BF92AF921F93D0
:1048B0000F930E94973660E070E0C80102DD5BDD77
:1048C0000F900F900F900F900F900F90811163C079
:1048D00032E03E15E8F4F60183818F9382818F9355
:1048E00081818F9380818F93FF92EF925F924F929D
:1048F0001F930F930E94973660E070E0C801E1DCDF
:104900003ADD0FB6F894DEBF0FBECDBF811143C0B4
:104910002F923F929F928F921F930F930E949736F0
:1049200060E070E0C801CDDC26DD0F900F900F90A5
:104930000F900F900F9081112EC02F923F927F9277
:104940006F921F930F930E94973660E070E0C8014A
:10495000B8DC11DD0F900F900F900F900F900F901B
:10496000811119C03FEFE31AF30A84E0C80ED11C8D
:1049700098E0E916F10409F094CF60E070E08CE46F
:1049800097E09FDCF8DC811106C060E070E08DE507
:1049900097E097DCF0DCA0960FB6F894DEBF0FBE70
:1049A000CDBFDF91CF911F910F91FF90EF90DF90DE
:1049B000CF90BF90AF909F908F907F906F905F90BF
:1049C0004F903F902F900895EF92FF920F931F9377
:1049D000CF93DF93EC018B017A0181E0F4DE81114A
:1049E0000DC0CE01D4DD811109C0C801E1DD811106
:1049F00005C0C701BBDD811101C0EBDDDF91CF91A7
:104A00001F910F91FF90EF90089590E0FC01EE0F41
:104A1000FF1F8E0F9F1FFC01EA5DF74F818192817E
:104A20000895DC01009729F1FB012081FC01019030
:104A30000020E9F73197E81BF90B822F90E0E81787
:104A4000F907C8F080E008C0880F382F330F330F04
:104A5000830F8053890F2F5FFD01E20FF11D9081BD
:104A600030ED390F3A3010F49111EECFFB01208375
:104A7000089580E0089580E008950F931F93CF93E9
:104A8000DF93DC01EA012097E1F1FA0101900020B7
:104A9000E9F73197E41BF50B329710F532C08D0121
:104AA000040F151F30E0AE01420F531FFA01908131
:104AB000913428F09753592F5295507F03C0592FA6
:104AC0005295507F2C0F3D1FF9019181913410F0C8
:104AD000975301C09053950FF80190838F5F01C0E9
:104AE00080E0282F220F482F50E0FE010190002087
:104AF000E9F73197EC1BFD0B4E175F0710F4861397
:104B0000CECFDF91CF911F910F91089580918217A1
:104B1000860F8093821790918517913079F028F055
:104B20009230A9F0933019F108956F3F09F048C011
:104B30001092821781E0809385170895663809F0F6
:104B40003FC01092811782E0809385170895E0910D
:104B5000811781E08E0F80938117F0E0E158F84EC5
:104B60006083823069F583E0809385170895909182
:104B7000811721E0290F20938117963009F58111C3
:104B80000EC0EFE7F7E1808190E0982F8827218120
:104B9000820F911D909387178093861704C01092FF
:104BA00087171092861710928517E0918317F0915E
:104BB0008417309729F0809186179091871719955F
:104BC00008958F929F92AF92CF92EF920F930F2EF4
:104BD000F6E88F2EF5E29F2EF02D6894AA24A4F813
:104BE0006894CC24C4F8E12C00E023E040E855E2CE
:104BF00060E070E084D090938917809388170F91BC
:104C0000EF90CF90AF909F908F90089590938417DE
:104C1000809383170895CF93DF93CDB7DEB729979D
:104C20000FB6F894DEBF0FBECDBF89E0E2E4F2E03C
:104C30009E012F5F3F4FD90101900D928A95E1F7B8
:104C40001092871710928617809188179091891774
:104C5000009731F0422F532F69E01ED180E001C050
:104C600082E029960FB6F894DEBF0FBECDBFDF916C
:104C7000CF9108952091861730918717211531051E
:104C800029F4FC011182108281E00895FC01318336
:104C9000208380E0089565360CF064E66C390CF4EE
:104CA0006CE996EF6902B00111246854744F8111C8
:104CB00005C07093290160932801089570932B011A
:104CC00060932A010895EAE0F1E0808188618083A1
:104CD0008FE39CE9909327018093260160E080E0B8
:104CE000DADF60E081E0D7DFE0E2F1E08081826A34
:104CF0008083E1E2F1E080818A61808308952F92D0
:104D00003F924F925F926F927F928F929F92AF925B
:104D1000CF92EF92FF920F931F93CF93DF93CDB774
:104D2000DEB7F82E2A013B0188E090E00E94A6330E
:104D30008C018F2D90E0FC01EE0FFF1FE657F84E1F
:104D4000118300830115110509F469C0880F991FAB
:104D5000FC01E55FFD4F80819181D8018D939C938B
:104D60008C2D90E0880F991F880F991F0E94A63301
:104D70001C0186E090E00E94A6337C014C2DB1011D
:104D8000F1D6F801F582E4828A2D90E0880F991F10
:104D9000880F991F0E94A6331C0186E090E00E94B4
:104DA000A6337C014A2DB101DDD6D8011396FC92C1
:104DB000EE92129717969C928E921697FFB6F894E1
:104DC000ED91FC91119736978081826080838D9060
:104DD0009C90C301B201E0D720E030E040E051E414
:104DE0000E945A2F9B01AC0160E074E284E79BE4CF
:104DF0003AD720E030E040E85FE3D0D6A1D7F40115
:104E000032976083D801ED91FC911197359788E92D
:104E10008083ED91FC91349786E08083FFBEC801CA
:104E2000DF91CF911F910F91FF90EF90CF90AF90B6
:104E30009F908F907F906F905F904F903F902F90BA
:104E40000895CF93DF93DC01892B01F11296ED9148
:104E5000FC911397938182812581981B92238481F1
:104E60009817B1F0838126952823C081D181C20F84
:104E7000D11D68838F5F958189238383ED91FC9198
:104E8000359780818062808380E003C081E001C02B
:104E900082E0DF91CF910895EF92FF920F931F93DD
:104EA000CF93DF937C01009709F441C0DC01129697
:104EB000ED91FC91139793818281981B85819823B2
:104EC0008481891B8617A8F1662341F1842F952FD1
:104ED000DC016150462F50E04F5F5F4F480F591F74
:104EE000E701EA81FB81938182812581981B9223CE
:104EF0008481981779F08C9193812695292360817C
:104F000071818B01020F111DE80188839F5F8581EC
:104F1000982393831196A417B50711F7D701ED9144
:104F2000FC91359780818062808380E003C081E0BE
:104F300001C082E0DF91CF911F910F91FF90EF9020
:104F400008950097D1F0DC011496ED91FC9115972E
:104F500093818281981799F0928185818695892322
:104F6000A081B181A80FB11D8C91DB018C939F5F53
:104F700085819823928380E0089581E0089583E0FD
:104F800008951F920F920FB60F9211240BB60F9235
:104F90002F933F934F935F936F937F938F939F9341
:104FA000AF93BF93CF93DF93EF93FF93A0918A17B3
:104FB000B0918B17109711F16091C6001496ED9186
:104FC000FC911597938182812581981B922384817E
:104FD000981761F0838126952823C081D181C20F63
:104FE000D11D68838F5F9581892383831696ED9108
:104FF000FC911797309711F0CD011995FF91EF9122
:10500000DF91CF91BF91AF919F918F917F916F91E0
:105010005F914F913F912F910F900BBE0F900FBE5C
:105020000F901F9018951F920F920FB60F92112498
:105030000BB60F922F938F939F93AF93BF93EF93E2
:10504000FF93E0918A17F0918B173097B9F00280A7
:10505000F381E02D938182819817B1F0928185814F
:10506000282F26952923A081B181A20FB11D2C9153
:105070009F5F892382832093C6000BC0E1ECF0E0A0
:1050800080818F7D808305C0E1ECF0E080818F7DA1
:105090008083FF91EF91BF91AF919F918F912F915D
:1050A0000F900BBE0F900FBE0F901F9018951F9280
:1050B0000F920FB60F9211240BB60F922F933F93BE
:1050C0004F935F936F937F938F939F93AF93BF9310
:1050D000CF93DF93EF93FF93A0918C17B0918D172F
:1050E000109711F16091CE001496ED91FC911597F7
:1050F000938182812581981B92238481981761F086
:10510000838126952823C081D181C20FD11D688358
:105110008F5F9581892383831696ED91FC91179774
:10512000309711F0CD011995FF91EF91DF91CF915B
:10513000BF91AF919F918F917F916F915F914F91AF
:105140003F912F910F900BBE0F900FBE0F901F90AD
:1051500018951F920F920FB60F9211240BB60F9253
:105160002F938F939F93AF93BF93EF93FF93E09110
:105170008C17F0918D173097B9F00280F381E02DF4
:10518000938182819817B1F092818581282F26958D
:105190002923A081B181A20FB11D2C919F5F89238A
:1051A00082832093CE000BC0E9ECF0E080818F7DFC
:1051B000808305C0E9ECF0E080818F7D8083FF91E2
:1051C000EF91BF91AF919F918F912F910F900BBE57
:1051D0000F900FBE0F901F9018951F920F920FB651
:1051E0000F9211240BB60F922F933F934F935F931F
:1051F0006F937F938F939F93AF93BF93CF93DF93DF
:10520000EF93FF93A0918E17B0918F17109711F124
:105210006091D6001496ED91FC911597938182814F
:105220002581981B92238481981761F083812695AC
:105230002823C081D181C20FD11D68838F5F9581E2
:10524000892383831696ED91FC911797309711F07F
:10525000CD011995FF91EF91DF91CF91BF91AF9162
:105260009F918F917F916F915F914F913F912F917E
:105270000F900BBE0F900FBE0F901F9018951F92AE
:105280000F920FB60F9211240BB60F922F938F939C
:105290009F93AF93BF93EF93FF93E0918E17F0919D
:1052A0008F173097B9F00280F381E02D93818281CE
:1052B0009817B1F092818581282F26952923A08106
:1052C000B181A20FB11D2C919F5F8923828320930E
:1052D000D6000BC0E1EDF0E080818F7D808305C0BA
:1052E000E1EDF0E080818F7D8083FF91EF91BF91B0
:1052F000AF919F918F912F910F900BBE0F900FBE8A
:105300000F901F9018951F920F920FB60F921124B5
:105310000BB60F922F933F934F935F936F937F93AF
:105320008F939F93AF93BF93CF93DF93EF93FF93AD
:10533000A0919017B0919117109711F160913601DB
:105340001496ED91FC911597938182812581981B8C
:1053500092238481981761F0838126952823C08148
:10536000D181C20FD11D68838F5F9581892383838B
:105370001696ED91FC911797309711F0CD01199584
:10538000FF91EF91DF91CF91BF91AF919F918F915D
:105390007F916F915F914F913F912F910F900BBE35
:1053A0000F900FBE0F901F9018951F920F920FB67F
:1053B0000F9211240BB60F922F938F939F93AF935D
:1053C000BF93EF93FF93E0919017F091911730976F
:1053D000B9F00280F381E02D938182819817B1F0BA
:1053E00092818581282F26952923A081B181A20F42
:1053F000B11D2C919F5F89238283209336010BC0BE
:10540000E1E3F1E080818F7D808305C0E1E3F1E09D
:1054100080818F7D8083FF91EF91BF91AF919F91AC
:105420008F912F910F900BBE0F900FBE0F901F907A
:105430001895CF93DF931F92CDB7DEB7BE016F5F94
:105440007F4F80919217909193177BDD8111F6CF5A
:10545000898190E00F90DF91CF910895682F80911E
:10546000921790919317EDDC80E090E008958F9271
:105470009F92AF92CF92EF920F93812C912C6894D0
:10548000AA24A7F86894CC24C7F8E12C00E023E014
:1054900040E051EE60E070E032DC9093931780932F
:1054A0009217EFECF7E183E192E09183808393839D
:1054B00082830F91EF90CF90AF909F908F9008953F
:1054C00090E0FC01EE0FFF1FE80FF91FEE0FFF1F2A
:1054D000EC56F84E238121111FC09C01220F331F6F
:1054E000F901E80FF91FEE0FFF1FEC56F84EA081EF
:1054F000B1814C91F901E80FF91FEE0FFF1FEC5637
:10550000F84E81E090E0028002C0880F991F0A9453
:10551000E2F7842B8C930895FC01EE0FFF1FDF014F
:10552000A80FB91FAA0FBB1FAC56B84E0D90BC9167
:10553000A02D2C91E80FF91FEE0FFF1FEC56F84E2F
:1055400081E090E0028002C0880F991F0A94E2F780
:10555000809582238C93089590E0FC01EE0FFF1F4D
:10556000E80FF91FEE0FFF1FEC56F84E23812111B3
:1055700020C09C01220F331FF901E80FF91FEE0F25
:10558000FF1FEC56F84EA081B1814C91F901E80F54
:10559000F91FEE0FFF1FEC56F84E81E090E00280FD
:1055A00002C0880F991F0A94E2F7809584238C9398
:1055B0000895FC01EE0FFF1FDF01A80FB91FAA0F0E
:1055C000BB1FAC56B84E0D90BC91A02D2C91E80F8E
:1055D000F91FEE0FFF1FEC56F84E81E090E00280BD
:1055E00002C0880F991F0A94E2F7822B8C930895CA
:1055F000CC24C394D12C6894BB24B2F8C4E9D7E17D
:1056000010E08C81813081F018F1823061F5E88101
:10561000F9812081C6010A8002C0880F991F0A946F
:10562000E2F7822780831FC08D818F5F8A3010F45C
:105630008D8319C01D82E881F9812081C6010A800D
:1056400002C0880F991F0A94E2F7822780830BC05B
:105650000D81002329F0812F7FDF01500D8303C0CE
:10566000BC82812F2DDF1F5F2696143051F665E036
:1056700070E080E090E00E946213C0CFEF92FF9252
:105680000F931F93CF93DF93082F80E487B9C4E96A
:10569000D7E10F2EF8E2EF2EF12CF02DF982E882FF
:1056A00086E08A831B8214E01C8380E009DF80E8A7
:1056B00087B9FF82EE8287E0888719861A8781E0A2
:1056C000FFDE80E283BB84E390E09D878C8785E0EA
:1056D0008E871F86188B82E0F3DE80E180930101C4
:1056E00082E091E09B8B8A8B1C8B1D8A1E8B83E052
:1056F000E7DEE12CF12C20E030E040EC50E069E501
:1057000078E088EF9AE20E945D10DF91CF911F91BF
:105710000F91FF90EF900895CF93DF9390E0FC01FD
:10572000EE0FFF1FDF01A80FB91FAA0FBB1FAC565A
:10573000B84ECD91DC911197488121E030E012966E
:105740000C90129702C0220F331F0A94E2F724270D
:105750002883FD0181E08483DF91CF910895CF9369
:10576000DF9390E0FC01EE0FFF1FDF01A80FB91FD0
:10577000AA0FBB1FAC56B84ECD91DC911197488152
:1057800021E030E012960C90129702C0220F331FD6
:105790000A94E2F724272883FD0182E08483DF91C5
:1057A000CF910895282F30E0F901EE0FFF1FE20F8F
:1057B000F31FEE0FFF1FEC56F84E93E09483CCCE10
:1057C0000895282F30E0F901EE0FFF1FE20FF31FBD
:1057D000EE0FFF1FEC56F84E94E0948371CE0895BF
:1057E00090E0FC01EE0FFF1FDF01A80FB91FAA0F09
:1057F000BB1FAC56B84E24E015962C931597FD01AF
:105800001482089590E0FC01EE0FFF1FDF01A80F46
:10581000B91FAA0FBB1FAC56B84E21E015962C93AA
:105820001597FD01148208958091BA1781110CC05B
:105830008CE08093B8008FEF8093BB0084E080936E
:10584000BC0081E08093BA170895AF92BF92CF92C7
:10585000DF92EF92FF920F931F93CF93DF93A82EC7
:10586000B62E69017A0184E090E070D7EC01892BB3
:1058700061F1A88281E0B81212C0C701B60120EA26
:1058800036E841E050E015D7DA01C9014097A10997
:10589000B109B695A79597958795898311C0C701DA
:1058A000B60120E83AE146E050E003D7DA01C90149
:1058B0004097A109B109B695A795979587958983D2
:1058C0001B830A838C2F9D2F02C080E090E0DF9124
:1058D000CF911F910F91FF90EF90DF90CF90BF90ED
:1058E000AF9008958091BC0081700895FF920F934E
:1058F0001F93CF93DF930097D1F14A30D0F5F42E68
:105900008B01EC01EFDF811136C08091AD179091D2
:10591000AE17C817D90741F087DF89818093B80097
:10592000D093AE17C093AD1781E08F0D8093AF1762
:105930008881880F8093B017FF2089F0F801A1EBD0
:10594000B7E14FEF4F0D642F70E0CB010196B80126
:10595000680F791F81918D93E617F707D9F788EFC4
:105960008093210285EA8093BC0084E005C086E034
:1059700003C087E001C082E0DF91CF911F910F91BA
:10598000FF9008951F93CF93DF93009729F16B3019
:1059900028F5162FEC01A6DF811122C08091AD17EA
:1059A0009091AE17C817D90741F03EDF89818093E7
:1059B000B800D093AE17C093AD171093AF1788817E
:1059C000880F81608093B01788EF8093210285EA69
:1059D0008093BC0085E005C086E003C087E001C07D
:1059E00082E0DF91CF911F9108951F920F920FB621
:1059F0000F9211240BB60F922F933F934F935F9307
:105A00006F937F938F939F93AF93BF93EF93FF9386
:105A1000E091B9008E2F90E0FC013897E135F10557
:105A200008F075C08827E458FF4F8F4F64C6109266
:105A3000AC17E091AC178091AF17E81770F481E0D4
:105A40008E0F8093AC17F0E0E055F84E8081809384
:105A5000BB0085E88093BC0072C084E98093BC00E1
:105A60008091AD179091AE17DC011296ED91FC91EB
:105A70001397309709F463C020E040E050E064E001
:105A800019955DC0E091AC1781E08E0F8093AC1743
:105A90008091BB00F0E0E055F84E80838091B90022
:105AA000803411F41092AC172091AC1730E0809143
:105AB000AF1790E001972817390724F485EC8093FD
:105AC000BC003DC085E88093BC0039C08091BB001C
:105AD000E091AC17F0E0E055F84E808384E98093C4
