S0120000342E53656D65737465722E7372656368
S113000066C1000085C1000083C1000081C10000F9
S11300107FC100007DC100007BC1000079C10000E8
S113002077C1000075C1000073C1000071C10000F8
S113003034C700006DC100006BC1000069C100003D
S113004067C1000065C1000063C1000061C1000018
S11300505FC100005DC100005BC1000059C1000028
S113006057C100000C94CA250C941C2651C10000F1
S11300704FC100004DC100004BC1000049C1000048
S113008047C1000045C1000043C1000041C1000058
S11300900C9460260C94B2263BC100000C94FE2AFA
S11300A037C1000035C1000033C1000031C1000078
S11300B02FC100002DC100002BC1000029C1000088
S11300C027C1000025C1000023C100000C94F626BE
S11300D00C9448271DC100000C948C270C94DE2737
S11300E017C10000641B641B641B9B1BA31BB81B70
S11300F0641B641B9B1BA31B202B902B902B902B0E
S1130100902B902B902B902B202B902B902B902B83
S1130110902B902B902B902B222B902B902B902B71
S1130120902B902B902B902B902B902B902B902BF3
S1130130902B902B902B902B222B902B902B902B51
S1130140902B902B902B902B902B902B902B902BD3
S1130150902B902B902B902B8C2B902B902B902BC7
S1130160902B902B902B902B572B902B902B902BEC
S1130170902B902B902B902B902B902B902B902BA3
S1130180902B902B902B902B4B2B902B902B902BD8
S1130190902B902B902B902B6F2B6E616E00696EC1
S11301A0660000407A10F35A00A0724E180900103D
S11301B0A5D4E80000E87648170000E40B540200D8
S11301C000CA9A3B000000E1F50500008096980003
S11301D0000040420F000000A0860100000010272C
S11301E000000000E80300000000640000000000BC
S11301F00A00000000000100000000002C76D888EE
S1130200DC674F0823DFC1DFAE59E1B1B796E5E300
S1130210E453C63AE651997696E8E6C28426EB8919
S11302208C9B62ED407C6FFCEFBC9C9F40F2BAA5B6
S11302306FA5F490055A2AF75C936B6CF9676DC14E
S11302401BFCE0E40D47FEF520E6B500D0ED902E52
S11302500300943577050080841E080000204E0AB0
S1130260000000C80C333333330F986E12831141EE
S1130270EF8D2114893BE65516CFFEE6DB18D184B9
S11302804B381BF77C1D901DA4BBE42420328472E0
S11302905E228100C9F124ECA1E53D270E94A60E4F
S11302A080912715823008F032D50E94E11BF6CFE9
S11302B0CF93DF931F92CDB7DEB7CE0101960E9494
S11302C0E11849810E94D61A0E942D1BF6CF1124F1
S11302D01FBECFEFD1E2DEBFCDBF00E00CBF18E000
S11302E0A0E0B2E0ECE5FAE600E00BBF02C0079044
S11302F00D92A033B107D9F727E1A0E3B8E001C01C
S11303001D92AC39B207E1F70E94BE1C0C942C3547
S113031077CE8091821790918317089541E150E040
S113032060E070E022C20895CF92DF92EF92FF92D4
S11303300F93CF93DF93EC010F2EF6E0CF2ED12C49
S1130340E12CF12CF02D01E020E041E150E060E0EF
S113035070E06BD1DC01CB0181719927AA27BB27FF
S11303604197A105B105A9F48FE692E09F938F937D
S11303700E945D340E94281C0E94F31C0E94371CBA
S11303800E94F81C5FD00E94EE1CCE01C7DF0F90C4
S11303900F90DF91CF910F91FF90EF90DF90CF906E
S11303A00895CF93DF9300D01F92CDB7DEB78EE8C8
S11303B092E09F938F930E945D3424D1909383178E
S11303C0809382170E94F70F69837A838B839C83BF
S11303D00F900F9042E150E060E070E0CE01019692
S11303E00E940D128091821790918317009791F3C8
S11303F09BDFF0CFEF92FF920F93E12CF12C082FAB
S113040020E030E040EC50E06FE972E081ED91E0F3
S11304100E946D0F0F91FF90EF900895EF92FF925D
S11304200F93E12CF12C082F20E030E040EC50E059
S11304306FEA72E08DE292E00E946D0F0F91FF90DF
S1130440EF9008958091861790918717089541E061
S113045050E060E070E0A6C10895CF93DF9300D030
S11304601F92CDB7DEB787EB92E09F938F930E94E4
S11304705D3480E090E00E940F240E94F70F6983AE
S11304807A838B839C830F900F9048EA58E460E052
S113049070E0CE0101960E940D120E9414248093F4
S11304A084178111F2CF62E370E080E090E00E9453
S11304B0721280918517811109C086E897E10E9424
S11304C043248093851725DFC2DFDFCF8130E9F62F
S11304D080EC92E09F938F930E945D340F900F9075
S11304E0D4CFCF93DF9300D01F92CDB7DEB70E9455
S11304F0F70F69837A838B839C8348EA58E460E02E
S113050070E0CE0101960E940D128CED92E00E94E3
S1130510703483E00E940B2A0FEF1FEF980146E12D
S113052050E060E378E080918C1790918D170E94E1
S1130530D30C00E318E0F801918180811F929F930E
S11305401F928F9382EF92E09F938F930E945D346A
S1130550F80181810F900F900F900F900F900F90E2
S1130560843059F6828190E0982F88272381820F66
S1130570911D9093891780938817848190E0982F18
S113058088272581820F911D90938B1780938A175A
S1130590B4CFEF92FF920F9370938D1760938C17E3
S11305A0E12CF12C082F20E030E048E851E063E230
S11305B073E081E792E00E946D0F0F91FF90EF903E
S11305C008950F9301110CC0DC01CB018223932306
S11305D0A423B523892B8A2B8B2B79F480E010C0BC
S11305E0DC01CB0182239323A423B52328173907E5
S11305F04A075B0721F080E003C081E001C081E08D
S11306000F910895CF93DF938FE090E0CCD1EC016C
S1130610009739F0FC011192119211921192CF01BD
S1130620A8D2CE01DF91CF9108952F923F924F929D
S11306305F926F927F928F929F92AF92BF92CF926E
S1130640DF92EF92FF920F931F93CF93DF93EC010E
S11306504A015B01622E702E0E94F10F28803980BE
S11306604A805B80A5019401C201B101AADF8823FD
S1130670A1F0662089F1D501C40180959095A095DB
S1130680B09582219321A421B52188839983AA83DB
S1130690BB83C12CD12C760122C0C114D104E10446
S11306A0F104E9F0611004C040E050E0BA0104C074
S11306B040E050E060E071E071107460482959290D
S11306C06A297B2997018601CE0104960E940913A9
S11306D0212C312C210103C0C12CD12C76010E9484
S11306E03111CD28CE28CF2859F1811101C00FD363
S11306F00E94DD156B017C0191FD1FC00FB6F894BB
S11307000F92C880D980EA80FB80072DA50194014F
S1130710C701B60156DF882371F0662061F080942A
S11307209094A094B0948C209D20AE20BF20888209
S11307309982AA82BB820F900FBE1601270155240D
S1130740C201B101DF91CF911F910F91FF90EF9002
S1130750DF90CF90BF90AF909F908F907F906F90DD
S11307605F904F903F902F9008950F931F930FB673
S1130770F8940F92FC01008111812281338140950C
S113078050956095709540235123622373234083D1
S11307905183628373830F900FBEC901B8011F9107
S11307A00F9108954F925F926F927F92AF92BF9292
S11307B0CF92DF92EF92FF920F931F93CF93DF9329
S11307C0EC016A017B018C01095F1F4F0E94F10F4C
S11307D0EB85FC8588819981AA81BB81C82AD92AA5
S11307E0EA2AFB2AC882D982EA82FB82C12CD12C54
S11307F076013DC0A480B58080819181A281B381BE
S1130800AC01BD017727B2FD0EC0488059806A80D3
S11308107B80442255226622772245284628472891
S113082089F420E012C0488059806A807B80442289
S1130830552266227722441555056605770521F071
S113084020E003C021E001C021E0222371F0B0FFC9
S113085004C0C42AD52AE62AF72A488159816A8124
S11308607B817260CF010E944414EA2DFB2DE017B6
S1130870F10709F0BFCFC094D094E094F09488813C
S11308809981AA81BB81C822D922EA22FB22C8828B
S1130890D982EA82FB820E943111688179818A813E
S11308A09B81DF91CF911F910F91FF90EF90DF908B
S11308B0CF90BF90AF907F906F905F904F900895CE
S11308C0E2E5F8E0A6E5B8E0B183A08313821282E2
S11308D0E2EDF4E1F0935108E093500813821282A0
S11308E0118210828CE79CE013969C938E9312974E
S11308F0ED93FC9390934D0880934C0890934F088C
S113090080934E0880E090E89093470880934608CF
S11309100895CF93DF93EC01A2E5B8E001C0DF01B5
S1130920ED91FC911197EC17FD07C8F312968D9188
S11309309C9113979D01280F391FC217D30749F4BF
S11309402A813B81820F931F13969C938E93129757
S1130950ED018A819B819E01280F391FE217F3075D
S1130960C1F42091500830915108E217F30771F057
S113097022813381820F931F9B838A83ED91FC91A3
S11309801197808191819983888305C03983288355
S113099002C0F983E883CA17DB0711F0CD93DC9317
S11309A0DF91CF910895EF92FF920F931F93CF930E
S11309B0DF938C010E94F10F8091500890915108AF
S11309C0892B09F47DDF80914608909147088023A4
S11309D09123892B09F076C00115110549F0C8014E
S11309E004960817190718F000E010E001C08C0104
S11309F00115110509F469C080914E0890914F08C2
S1130A008017910708F464C0C0915208D09153082C
S1130A10E2E5F8E002C0FE01EC018A819B818017C7
S1130A20910720F4888199810097A9F78091500853
S1130A3090915108C817D90709F44DC0E080F1809E
S1130A4084E0E80EF11C88819981918380832A8156
S1130A503B81201B310B2930310548F0CE01800F3A
S1130A60911FFC01338322831B830A8352DF2A8173
S1130A703B8180914E0890914F08821B930B909379
S1130A804F0880934E0840914C0850914D088417AC
S1130A90950720F490934D0880934C088091460864
S1130AA090914708282B392B3B832A83198218827B
S1130AB080914A0890914B08019690934B0880933B
S1130AC04A080BC0E12CF12C08C0E12CF12C05C024
S1130AD0E12CF12C02C0E12CF12C0E943111E11423
S1130AE0F10411F40E94ED1BC701DF91CF911F9116
S1130AF00F91FF90EF9008950F931F93CF93DF937F
S1130B00009791F1EC0124974A815B81209146087A
S1130B1030914708BA0162237323672B29F1688156
S1130B207981672B09F520953095242335233B8360
S1130B302A830E94F10F8A819B8120914E08309173
S1130B404F08820F931F90934F0880934E08CE0155
S1130B50E0DE8091480890914908019690934908F5
S1130B60809348080E943111DF91CF911F910F911A
S1130B700895FC010396928381834FEF5FEFBA01DE
S1130B8043835483658376839087878392878187A1
S1130B9010820895FC011386128608950F931F9303
S1130BA0CF93DF93EB01088119812A813B810F3FA9
S1130BB04FEF14072407340721F4FC01A185B28503
S1130BC011C0DC01139601C0DF011496ED91FC9174
S1130BD01597408151816281738104171507260797
S1130BE0370790F71496ED91FC911597FD83EC83EC
S1130BF0D783C683BF83AE831596DC93CE931497B5
S1130C009B878A87FC0120812F5F2083DF91CF910E
S1130C101F910F910895CF93DF93FC01A285B385B3
S1130C20C481D581868197819F838E83C681D78134
S1130C30848195819D838C8311968D919C911297CB
S1130C40E817F90731F48681978112969C938E9365
S1130C501197138612868C9181508C938C91DF911D
S1130C60CF910895A89590EC88E10FB6F894A895D3
S1130C70809360000FBE909360000895FC01608330
S1130C80319770833197108231971082319720E821
S1130C902083319710823197108231971082779791
S1130CA040833197508386970895DCDFA091951592
S1130CB0B0919615CD91CDBFDD91DEBFFF91EF913F
S1130CC0DF91CF91BF91AF919F918F917F916F9160
S1130CD05F914F913F912F911F910F91FF90EF9052
S1130CE0DF90CF90BF90AF909F908F907F906F9048
S1130CF05F904F903F902F901F900F900CBE0F90DD
S1130D000BBE0F900FBE0F90089581E008950F92CF
S1130D100FB6F8940F920BB60F920CB60F921F9267
S1130D2011242F923F924F925F926F927F928F92F3
S1130D309F92AF92BF92CF92DF92EF92FF920F9366
S1130D401F932F933F934F935F936F937F938F934F
S1130D509F93AF93BF93CF93DF93EF93FF93A091B0
S1130D609515B09196150DB60D920EB60D920E9482
S1130D708D12A0919515B0919615CD91CDBFDD91B1
S1130D80DEBFFF91EF91DF91CF91BF91AF919F9122
S1130D908F917F916F915F914F913F912F911F910F
S1130DA00F91FF90EF90DF90CF90BF90AF909F9006
S1130DB08F907F906F905F904F903F902F901F90F7
S1130DC00F900CBE0F900BBE0F900FBE0F900895A6
S1130DD00F920FB6F8940F920BB60F920CB60F92B7
S1130DE01F9211242F923F924F925F926F927F92A3
S1130DF08F929F92AF92BF92CF92DF92EF92FF9227
S1130E000F931F932F933F934F935F936F937F930E
S1130E108F939F93AF93BF93CF93DF93EF93FF93FE
S1130E20A0919515B09196150DB60D920EB60D9232
S1130E3013BE0E94051081110E948D12A091951578
S1130E40B0919615CD91CDBFDD91DEBFFF91EF91AD
S1130E50DF91CF91BF91AF919F918F917F916F91CE
S1130E605F914F913F912F911F910F91FF90EF90C0
S1130E70DF90CF90BF90AF909F908F907F906F90B6
S1130E805F904F903F902F901F900F900CBE0F904B
S1130E900BBE0F900FBE0F9008959ADF18950FB6F2
S1130EA0F8940F92FC01868D811102C081E001C08B
S1130EB080E00F900FBE08950FB6F8940F92FC01D6
S1130EC0268D878D281302C081E001C080E00F9039
S1130ED00FBE08950F931F93CF93DF93EC01042F5C
S1130EE01E8D48A141110CC088819981892B09F07C
S1130EF042C08C819D810E9482151D821C8242C049
S1130F00011117C050E08A819B810E94B73328A148
S1130F108A819B81820F911D9B838A832C813D81D1
S1130F208217930750F1888199819B838A8380E09B
S1130F3029C050E08E819F810E94B73388A190E040
S1130F409195819591092E813F81280F391F3F8307
S1130F502E83488159812417350730F42C813D8133
S1130F60820F931F9F838E83023049F4112349F02B
S1130F70115080E007C080E005C080E003C080E03D
S1130F8001C080E01F5F1E8FDF91CF911F910F91F1
S1130F900895FC0140A14423A9F050E02681378143
S1130FA0240F351F378326838481958128173907B9
S1130FB020F08081918197838683CB01668177813C
S1130FC00C94B73308951F93CF93DF93EC010FB6BE
S1130FD0F8940F921AA10BC08B89882351F0CE018B
S1130FE043960E94951381110E946B15115011169E
S1130FF09CF38FEF8AA30F900FBE0FB6F8940F9255
S113100019A10BC08885882351F0CE0108960E944F
S1131010951381110E946B15115011169CF38FEFDB
S113102089A30F900FBEDF91CF911F910895CF93A5
S1131030DF93EC010FB6F8940F92E881F9818F8D5C
S113104028A190E030E0829FA001839F500D929FE1
S1131050500D11244E0F5F1F5D834C831E8EFB8346
S1131060EA830197289FA001299F500D389F500DB6
S11310701124CF01840F951F9F838E838FEF89A343
S11310808AA361110BC08885882371F0CE0108966C
S11310900E949513882341F03ADE06C0CE010896DB
S11310A068DDCE01439665DD0F900FBE81E0DF91D0
S11310B0CF9108950F931F93F801611103C0118319
S11310C0008302C051834083878F60A361E0CF0116
S11310D0AEDF1F910F910895DF92EF92FF920F936D
S11310E01F93CF93DF93F82EE62ED42E869FC00154
S11310F01124839658DCEC01009741F08C012D2DCE
S1131100AC014D5D5F4F6E2D8F2DD4DFCE01DF918D
S1131110CF911F910F91FF90EF90DF900895CF92A0
S1131120DF92EF92FF920F931F93CF93DF93CDB78C
S1131130DEB729970FB6F894DEBF0FBECDBF7C0192
S11311406B012E833F834887598710E00FB6F894CC
S11311500F92F701968D878D981710F00230B1F435
S1131160402FB601C701B6DEF7019389992341F0F8
S1131170C70143960E949513882321F0C8DD02C05D
S11311808111C5DD0F900FBE81E04CC08E819F811F
S1131190A885B985892B8A2B8B2B21F40F900FBE40
S11311A080E040C0111105C0CE0101960E94F414E4
S11311B011E00F900FBE15D70FB6F8940F92F701F8
S11311C081A18F3F09F411A2F70182A18F3F09F495
S11311D012A20F900FBEBE016A5F7F4FCE0101962F
S11311E00E940515811119C0C70166DE882381F0AC
S11311F04E815F8168857985C70108960E94F21245
S1131200C701E1DE0E9431118111A0CF80DD9ECFA4
S1131210C701D9DE0E94311199CFC701D4DE0E94E3
S1131220311180E029960FB6F894DEBF0FBECDBF12
S1131230DF91CF911F910F91FF90EF90DF90CF90AE
S113124008950F93009769F0FC01158214821182AE
S11312501082168200E020E030E0A90160E070E036
S11312605EDF0F910895CF93DF93482F60E081E014
S113127033DFEC01E6DFCE01DF91CF910895EF92E9
S1131280FF920F931F93CF93DF938A01FC01568D36
S1131290378D531710F02230F9F4422F7801EC0106
S11312A01AA18E8DCE0116DE1F3F81F48B8988230F
S11312B0A9F0CE0143960E949513882389F0E11486
S11312C0F10481F081E0F70180830DC0FF24F394E1
S11312D0F10EFAA281E007C080E005C081E003C0FE
S11312E081E001C081E0DF91CF911F910F91FF90C8
S11312F0EF900895CF92DF92EF92FF920F931F9396
S1131300CF93DF93CDB7DEB729970FB6F894DEBF3E
S11313100FBECDBF8C016B012E833F834887598755
S1131320E12C0FB6F8940F92F801F68CFF2099F097
S1131330B601C8012EDEFA94F801F68E8085882362
S113134031F0C80108960E9495138111E0DC0F90DA
S11313500FBE81E04FC08E819F81A885B985892BFE
S11313608A2B8B2B21F40F900FBE80E043C0E11039
S113137006C0CE0101960E94F414EE24E3940F906B
S11313800FBE2FD60FB6F8940F92F80181A18F3FAC
S113139009F411A2F80182A18F3F09F412A20F905F
S11313A00FBEBE016A5F7F4FCE0101960E940515F4
S11313B0811117C0C80173DD882379F04E815F81E4
S11313C068857985C80143960E94F212C801FBDD45
S11313D048D78111A6CF9BDCA4CFC801F4DD41D747
S11313E0A0CFC801F0DD3DD7C80159DD882309F439
S11313F098CF80E029960FB6F894DEBF0FBECDBF1C
S1131400DF91CF911F910F91FF90EF90DF90CF90DC
S11314100895CF93DF93EC010FB6F8940F9289A14E
S11314208F3F09F419A28AA18F3F09F41AA20F90E1
S11314300FBE8E8D811104C0CE0143960E945313BA
S1131440CE01C1DDDF91CF910895FC014481558126
S113145022813381240F351F80819181B901681B5A
S1131460790BCB016417750710F0841B950B089555
S11314700F93FC018FE0DF011D928A95E9F77587D0
S11314806487558344833783268306870F910895A1
S1131490AF92BF92CF92DF92EF92FF920F931F937E
S11314A0CF93DF936C015B017A01FC01C281D3818C
S11314B0048115810C1B1D0B4017510708F48A0188
S11314C0F60184859585A801B5018C0F9D1F0E94A6
S11314D0B7330E151F0558F4A701401B510BB50176
S11314E0600F711FF601848595850E94B733CE0184
S11314F08E0D9F1DF601248135818217930710F00C
S1131500821B930BF60193838283C701DF91CF91F2
S11315101F910F91FF90EF90DF90CF90BF90AF900D
S11315200895CF92DF92EF92FF920F931F93CF9380
S1131530DF931F921F92CDB7DEB77C016B015A83F4
S1131540498321153105C1F0FC01868580FD08C061
S11315504217530708F49A013A83298381E00FC0A4
S11315602017310758F042E050E0BE016F5F7F4F13
S1131570C7018EDF81E003C080E001C080E08823E2
S113158031F049815A81B601C70182DF02C080E08F
S113159090E00F900F90DF91CF911F910F91FF90EA
S11315A0EF90DF90CF900895AF92BF92CF92DF92E9
S11315B0EF92FF920F931F93CF93DF937C015B0114
S11315C0E9014217530708F4EA01209781F1F70172
S11315D00081118184819581801B910B6E018C1790
S11315E09D0708F46C01F70164857585600F711F10
S11315F0A601C5010E94B733CC16DD0658F4AE012E
S11316004C195D09F70164857585C5018C0D9D1D17
S11316100E94B7330C0F1D1FF701848195810817B1
S1131620190710F0081B190BF70111830083CE0171
S1131630DF91CF911F910F91FF90EF90DF90CF90AA
S1131640BF90AF9008956F927F928F929F92AF92C6
S1131650BF92CF92DF92EF92FF920F931F93CF939B
S1131660DF931F921F92CDB7DEB76C014B015A0175
S1131670790101151105B1F0FC0160807180A801A8
S1131680BE016F5F7F4F90DF89819A81E01AF10A72
S1131690A816B90630F4F60171826082A12CB12C2F
S11316A001C05C019701A501B401C6017DDF0F9063
S11316B00F90DF91CF911F910F91FF90EF90DF90EA
S11316C0CF90BF90AF909F908F907F906F90089530
S11316D0CF92DF92EF92FF920F93CF93DF93EC01BF
S11316E06B01413011F401E001C000E0C114D104E8
S11316F019F4CC24C394D12CCE014096C817D90731
S113170020F4219650D97C0102C0E12CF12CE11483
S1131710F10439F09601AE01B701615F7F4FC70153
S1131720A7DEC701DF91CF910F91FF90EF90DF907B
S1131730CF9008950F930FB6F8940F92FC01208573
S11317403185232B71F422853385232B61F4268183
S113175037814481558164857585068589DE81E0FC
S113176003C080E001C080E00F900FBE0F91089588
S1131770FC012481358180819181820F931F4281F4
S11317805381841B950B01978217930710F0821BDA
S1131790930B08952F923F924F925F926F927F9294
S11317A08F929F92AF92BF92CF92DF92EF92FF926D
S11317B00F931F93CF93DF93CDB7DEB72B970FB65D
S11317C0F894DEBF0FBECDBF4C017B876A871A0138
S11317D00E831F8328873987FC01848195810197B3
S11317E0268520FF0CC02A01F2E04F0E511C8415FF
S11317F0950558F41E821F821886198606C0841720
S1131800950710F02A0101C02C018E819F81A885C3
S1131810B985892B8A2B8B2B09F438C0CE0101960C
S11318200E94DE140FB6F8940F92C401A1DF3C01AC
S11318308415950540F560E080E090E00E94C718AB
S11318400E946F15F401938782870F900FBEAE80BC
S1131850BF80C884D984E12CF12C00E010E0980109
S113186040E050E0BA0180E00E940716F4011386BC
S11318701286BE016A5F7F4FCE0101960E94051554
S1131880882381F205C00F900FBE02C0612C712C19
S11318906114710419F4C4016BDF3C0182019301EA
S11318A0A1016A857B85C4013CDE6C01892BE9F0CA
S11318B0C401CBDDF4012681378182179307A8F098
S11318C090D3F40180859185892B71F08085918571
S11318D0E12CF12C00E020E030E0A90160E00E945E
S11318E0AE16F40111861086BCD4C6012B960FB631
S11318F0F894DEBF0FBECDBFDF91CF911F910F9142
S1131900FF90EF90DF90CF90BF90AF909F908F901B
S11319107F906F905F904F903F902F900895AF927B
S1131920BF92CF92DF92EF92FF920F931F93CF93C8
S1131930DF93EC017B015A0169018E8580FF04C0AD
S11319408A010E5F1F4F01C08A01CE0111DF9C0185
S1131950A501B701CE01E5DD5C01892BC1F0CE0103
S113196074DD2E813F818217930788F088859985DD
S1131970892B69F088859985E12CF12C00E020E021
S113198030E0A90160E00E94A51719861886C501F8
S1131990DF91CF911F910F91FF90EF90DF90CF9047
S11319A0BF90AF9008954F925F926F927F928F9203
S11319B09F92AF92BF92CF92DF92EF92FF920F93DA
S11319C01F93CF93DF93EC012B013A015801690176
S11319D08E8580FF05C06894882481F8912C02C00C
S11319E0812C912CA114B104C104D10441F10FB68E
S11319F0F8940F92CE0129DD7C018816990648F0EF
S1131A0060E080E090E00E94C7180E946F159987FB
S1131A1088870F900FBE8E149F04A0F0E12CF12C48
S1131A2000E010E0980140E050E0BA0180E00E943C
S1131A30071619861886CE0108DD7C0103C0CE0185
S1131A4004DD7C018E149F04E8F484019701A30152
S1131A50B201CE01F8DD6C01892BB1F0C2D28A85C6
S1131A609B85892B69F08A859B85E12CF12C00E00C
S1131A7020E030E0A90160E00E94AE161B861A86C1
S1131A80F0D302C0C12CD12CC601DF91CF911F919C
S1131A900F91FF90EF90DF90CF90BF90AF909F9009
S1131AA08F907F906F905F904F900895E0910F1505
S1131AB0F0911015808181110CC08FEF9FEFDC0134
S1131AC08093D9149093DA14A093DB14B093DC14AC
S1131AD00895E0910F15F09110150780F085E02D21
S1131AE080819181A281B3818093D9149093DA1477
S1131AF0A093DB14B093DC140895CF93DF93EC012F
S1131B008B8D9C8D0E947C05CE010E947C05DF910B
S1131B10CF9108954F925F926F927F928F929F928E
S1131B20AF92BF92CF92DF92EF92FF920F93CF9337
S1131B30DF932C015B014A013901E60165EA70E09B
S1131B408B8D9C8D0E94C0338B8D9C8D21E0821ADD
S1131B509108880E991EA114B10489F415C0822F2E
S1131B6090E0F501E80FF91F3081DE01A80FB91FDD
S1131B705D963C938081882329F02F5F01C020E08B
S1131B80203168F31CA601C01D8E0A3008F009E05C
S1131B900A8F0DA71EA6CE0102960E94CA05CE0189
S1131BA00E960E94CA05DB87CA878AE090E0A0E00F
S1131BB0B0E0801B9109A109B1098E879F87A88B8A
S1131BC0B98BDF8BCE8B84E0FE01BF96DF011D92C3
S1131BD08A95E9F71BAAA301B201C4014FD89983DE
S1131BE08883E114F10419F0F701D183C083DF91F4
S1131BF0CF910F91FF90EF90DF90CF90BF90AF9077
S1131C009F908F907F906F905F904F900895CF93A7
S1131C10C0E009C02BE0C29FC0011124895D9A4E27
S1131C200E94B905CF5FCA30A8F38CE195E10E9408
S1131C30B90581E195E10E94B90582E095E10E9430
S1131C40B90587EF94E10E94B9058BEE94E10E94F7
S1131C50B9058CE195E19093101580930F1581E1FE
S1131C6095E190930E1580930D15CF910895CF9320
S1131C70DF93EC010FB6F8940F928091EA148F5F12
S1131C808093EA148091951590919615892B51F4BF
S1131C90D0939615C09395158091EA14813091F4F0
S1131CA0B6DF10C08091E41481110CC0E091951549
S1131CB0F0919615928D8A8D891720F0D093961500
S1131CC0C09395158091DD148F5F8093DD14EA8DA8
S1131CD08091E5148E1710F4E093E5148BE08E9F49
S1131CE0F0011124E95DFA4E0180F281E02DFF83B9
S1131CF0EE832681378139872887A681B7819E01A3
S1131D002E5F3F4F15963C932E931497378326836B
S1131D10EA8D8E9FF0011124E95DFA4EFD87EC8770
S1131D2080818F5F80830F900FBE8091E41488239D
S1131D3051F0E0919515F0919615928D8A8D981732
S1131D4010F40E948706DF91CF910895CF93DF931B
S1131D501BC00FB6F8940F92E091FE14F091FF149B
S1131D60C085D185CE0102960E940B068091EA14AB
S1131D7081508093EA148091F61481508093F61474
S1131D800F900FBECE01B9DE8091F6148111E1CF20
S1131D90DF91CF9108958F929F92AF92BF92CF928D
S1131DA0DF92EF92FF92CF93DF936B017C01C42FFC
S1131DB08090E6149090E714A090E814B090E91491
S1131DC0809195159091961502960E940B068FEFBF
S1131DD0C816D806E806F806B1F5CC23A1F1EBEE57
S1131DE0F4E1A181B281C0919515D0919615BF837C
S1131DF0AE83C0919515D091961516968D919C91B0
S1131E001797998788871696CD91DC9117978091BB
S1131E1095159091961502969D838C8380919515C6
S1131E2090919615029617969C938E931697A0916F
S1131E309515B09196151D96FC93EE931C97808191
S1131E408F5F80833FC0C80CD91CEA1CFB1CE09147
S1131E509515F0919615C282D382E482F582C81456
S1131E60D904EA04FB0468F4609195157091961501
S1131E7080910D1590910E156E5F7F4F0E94CE05D7
S1131E8021C0609195157091961580910F159091D0
S1131E9010156E5F7F4F0E94CE058091D9149091EA
S1131EA0DA14A091DB14B091DC14C816D906EA0642
S1131EB0FB0640F4C092D914D092DA14E092DB14F9
S1131EC0F092DC14DF91CF91FF90EF90DF90CF90F0
S1131ED0BF90AF909F908F9008952F923F924F9212
S1131EE05F926F927F928F929F92AF92BF92CF92A6
S1131EF0DF92EF92FF920F93CF93DF933C011B018C
S1131F004A012901CA010E94D3046C01892B71F092
S1131F1084E390E00E94D304EC01892B19F0DC8E59
S1131F20CB8E06C0C6010E947C0502C0C0E0D0E092
S1131F30209761F0A12CB12C6E019201A401B10192
S1131F40C301E8DDCE0193DE81E001C08FEFDF91B4
S1131F50CF910F91FF90EF90DF90CF90BF90AF9013
S1131F609F908F907F906F905F904F903F902F90B5
S1131F700895EF92FF920F930F2EF7EDEF2EF4E1F9
S1131F80FF2EF02D00E020E030E040EC50E063E371
S1131F9073E08EE491E0A1DF813011F40E946B19AB
S1131FA08130C9F4F8948FEF9FEFDC018093D9144A
S1131FB09093DA14A093DB14B093DC1481E0809343
S1131FC0E4141092E6141092E7141092E81410929C
S1131FD0E9140E945506809106020F91FF90EF903C
S1131FE008958091D6148F5F8093D61408950FB608
S1131FF0F8940F926091E6147091E7148091E814BC
S11320009091E9140F900FBE0895CF92DF92EF9252
S1132010FF92CF93DF938091D614811105C1C090B4
S1132020E614D090E714E090E814F090E9148FEFF0
S1132030C81AD80AE80AF80AC092E614D092E7143B
S1132040E092E814F092E914C114D104E104F1041B
S1132050B1F480910F159091101520910D153091C8
S11320600E153093101520930F1590930E15809331
S11320700D158091DE148F5F8093DE1417DD80913F
S1132080D9149091DA14A091DB14B091DC14C81621
S1132090D906EA06FB0620F480E0B2C081E001C064
S11320A080E0E0910F15F0911015908191110CC012
S11320B04FEF5FEFBA014093D9145093DA14609351
S11320C0DB147093DC149CC0E0910F15F091101593
S11320D00780F085E02D0084F185E02D4281538155
S11320E064817581C416D506E606F70648F4409364
S11320F0D9145093DA146093DB147093DC1480C009
S1132100A485B585C681D781208531853F832E83FB
S1132110C085D185268137813D832C8311964D91CD
S11321205C9112979F012E5F3F4F4217530731F482
S11321304085518512965C934E93119715861486AB
S11321409C9191509C93A08DB18D109709F1C289F7
S1132150D389448955895F834E83C489D58942894B
S113216053895D834C8311966D917C911297AF01D5
S1132170425F5F4F6417750731F44489558912969D
S11321805C934E931197118E108E9C9191509C9359
S1132190A28D9091E5149A1710F4A093E5149BE096
S11321A09A9FD0011124A95DBA4E11960D90BC914D
S11321B0A02DB783A68316964D915C9117975187EE
S11321C040871696CD91DC9117973D832C83179603
S11321D03C932E931697A28D9A9FD0011124A95D4A
S11321E0BA4EB587A4879C919F5F9C93228DE09102
S11321F09515F0919615928D291708F04FCF51CF70
S1132200E0919515F0919615E28D9BE0E99FF00120
S11322101124E95DFA4E9081923008F081E09091AA
S1132220DF14911116C016C08091E0149091E1144E
S1132230A091E214B091E3140196A11DB11D809305
S1132240E0149093E114A093E214B093E31480E0BB
S113225001C081E0DF91CF91FF90EF90DF90CF90AC
S11322600895CF92DF92EF92FF92CF93DF930FB650
S1132270F8940F928091D61481508093D614809153
S1132280D6148111BEC08091EA14811188C0BCC0EB
S1132290E0910915F0910A150084F185E02DA08DD7
S11322A0B18DC289D389848995899F838E83C4899A
S11322B0D589828993899D838C8311962D913C9134
S11322C01297CF010E962817390731F4848995891E
S11322D012969C938E931197118E108E8C9181502F
S11322E08C93A485B585C681D781808591859F838C
S11322F08E83C085D185868197819D838C83119639
S11323008D919C9112979F012E5F3F4F82179307E7
S113231031F48085918512969C938E93119715863E
S113232014868C9181508C93A28D8091E5148A1728
S113233010F4A093E5148BE08A9FD0011124A95DC9
S1132340BA4E11960D90BC91A02DB783A683169614
S11323504D915C911797518740871696CD91DC91EA
S113236017973D832C8317963C932E931697A28D33
S11323708A9FD0011124A95DBA4EB587A4878C9198
S11323808F5F8C93928DA0919515B09196155A9666
S11323908C91981730F081E08093DF1402C0E0E064
S11323A0F0E080910215811173CFEF2B09F07EDBF1
S11323B0C090E014D090E114E090E214F090E314A3
S11323C0C114D104E104F104A1F01FDE882319F043
S11323D081E08093DF1481E0C81AD108E108F10894
S11323E0A1F71092E0141092E1141092E2141092EA
S11323F0E3148091DF14882331F00E94870681E082
S113240003C080E001C080E00F900FBEDF91CF9148
S1132410FF90EF90DF90CF9008958F929F92AF92AC
S1132420BF92CF92DF92EF92FF921F93CF93DF93ED
S1132430EC016A017B01D5DD8090E6149090E714ED
S1132440A090E814B090E91488819981AA81BB8195
S1132450AC01BD014C0D5D1D6E1D7F1D88169906D6
S1132460AA06BB0660F4481759076A077B0798F465
S113247084169506A606B70680F010E013C0481728
S113248059076A077B0758F084169506A606B7060F
S113249040F010E007C010E005C011E003C011E0F7
S11324A001C011E0488359836A837B83112341F07F
S11324B0CB01BA01681979098A099B0940E06BDCF0
S11324C0D0DE811102C00E948706812FDF91CF9157
S11324D01F91FF90EF90DF90CF90BF90AF909F90AF
S11324E08F900895CF92DF92EF92FF926B017C015F
S11324F0672B682B692B39F074DD40E0C701B60106
S11325004ADCAFDE01C080E0811102C00E94870670
S1132510FF90EF90DF90CF9008958091D614882398
S113252021F081E08093DF1408951092DF14E0918C
S11325309515F091961520813181E0919515F091D2
S11325409615838D948D8217930760F0609195158D
S113255070919615635E7F4F8091951590919615B5
S11325600E94F91B8091E51401C08150282F30E0AE
S11325709BE0929FF001939FF00D1124E95DFA4EC8
S11325809081992391F39BE0929FA001939F500D1A
S11325901124DF010180F281E02D0480F581E02D1A
S11325A01296FC93EE931197465D5A4EE417F50785
S11325B029F444815581FD01528341839BE0929F1C
S11325C0F001939FF00D1124E95DFA4E0180F28130
S11325D0E02D2085318530939615209395158093B1
S11325E0E5140895CF92DF92EF92FF926A017B0186
S11325F06091951570919615625F7F4F0E94CE058C
S113260041E0C701B601C7DBFF90EF90DF90CF90A8
S113261008950F931F93CF93DF93FC01A091951519
S1132620B091961570681E964D935D936D937C934F
S11326305197A181B281C0919515D0919615BB8B0C
S1132640AA8BC0919515D091961516968D919C9153
S113265017979D8B8C8B1696CD91DC911797809153
S11326609515909196150E969D838C838091951562
S1132670909196150E9617969C938E931697A0910B
S11326809515B09196155996FC93EE9358978081C1
S11326908F5F808341E0C901B8017DDBDF91CF9179
S11326A01F910F910895CF93DF93FC01CB01BA01E1
S11326B0A181B281C0919515D0919615BB8BAA8B3F
S11326C0C0919515D091961516964D915C911797DA
S11326D05D8B4C8B1696CD91DC9117974091951597
S11326E050919615425F5F4F5D834C8340919515E1
S11326F050919615425F5F4F17965C934E931697D1
S1132700A0919515B09196155996FC93EE93589710
S113271030813F5F3083222319F06FEF7FEFCB01CD
S1132720422F39DBDF91CF910895CF93DF93DC0102
S11327301796ED91FC9118970084F185E02DA08DFA
S1132740B18DC289D389848995899F838E83C489F5
S1132750D589828993899D838C8311968D919C91CF
S113276012979F01225F3F4F8217930731F48489A8
S1132770958912969C938E931197118E108E8C913D
S113278081508C938091D614811152C0A485B58553
S1132790C681D781808591859F838E83C085D185AD
S11327A0868197819D838C8311968D919C9112973C
S11327B09F012E5F3F4F8217930731F480859185E7
S11327C012969C938E931197158614868C91815042
S11327D08C93A28D8091E5148A1710F4A093E514CC
S11327E08BE08A9FD0011124A95DBA4E11960D90F9
S11327F0BC91A02DB783A68316964D915C91179733
S1132800518740871696CD91DC9117973D832C8391
S113281017963C932E931697A28D8A9FD00111246C
S1132820A95DBA4EB587A4878C918F5F8C931CC029
S113283042E055E1DA011196CD91DC911297D38BE8
S1132840C28B8E819F81958B848B8E819F81DC01CD
S113285015963C932E9314973F832E83518F408F6C
S1132860DA018C918F5F8C93928DE0919515F091A4
S11328709615828D891720F481E08093DF1401C0BE
S113288080E0DF91CF910895CF93DF93DC017068EE
S11328904D935D936D937C9313971896ED91FC91F2
S11328A019971A964D915C911B9714968D919C9152
S11328B0159716962D913C911797EC013F832E8323
S11328C016968D919C91179714962D913C9115977E
S11328D0EC013D832C83EA0189819A81A817B90709
S11328E031F416968D919C9117979A8389831B9640
S11328F01C921E921A97DA018C9181508C93A485B4
S1132900B585C681D781808591859F838E83C08557
S1132910D185868197819D838C8311968D919C911D
S113292012979F012E5F3F4F8217930731F48085E2
S1132930918512969C938E931197158614868C918B
S113294081508C93A28D8091E5148A1710F4A09382
S1132950E5148BE08A9FD0011124A95DBA4E11962B
S11329600D90BC91A02DB783A68316964D915C91D2
S11329701797518740871696CD91DC9117973D8321
S11329802C8317963C932E931697A28D8A9FD00181
S11329901124A95DBA4EB587A4878C918F5F8C935F
S11329A0928DE0919515F0919615828D891718F402
S11329B081E08093DF14DF91CF9108950FB6F894EE
S11329C00F922091DE14FC0120834091E614509173
S11329D0E7146091E8147091E9144183528363838E
S11329E074830F900FBE08952091DE14FC012083A0
S11329F04091E6145091E7146091E8147091E91441
S1132A00418352836383748308958F929F92AF921C
S1132A10BF92CF92DF92EF92FF920F931F93CF93C7
S1132A20DF93FB010FB6F8940F92C090E614D09098
S1132A30E714E090E814F090E914DC0111960D918C
S1132A401D912D913C91149746015701801A910ACA
S1132A50A20AB30A40815181628173814F3FBFEF63
S1132A605B076B077B0739F1EC01B881A091DE1499
S1132A70BA1759F0C016D106E206F30630F01082F8
S1132A8011821282138281E017C084169506A6066D
S1132A90B70658F4481959096A097B0940835183D8
S1132AA062837383A1DF80E007C0108211821282E7
S1132AB0138281E001C080E00F900FBEDF91CF91BF
S1132AC01F910F91FF90EF90DF90CF90BF90AF9048
S1132AD09F908F90089581E08093DF1408958091F2
S1132AE095159091961508958091E414882331F0FA
S1132AF08091D614811104C082E0089581E0089584
S1132B0080E008950F931F93CF93DF93FC01892BEB
S1132B1009F449C086A5815086A7228D95A5291759
S1132B2009F443C0811143C0EF018F010E5F1F4FB1
S1132B30C8010E940B06EDA5EA8F8AE090E0A0E0B0
S1132B40B0E08E1B9109A109B1098E879F87A88BDC
S1132B50B98B8091E5148E1710F4E093E5148BE0A3
S1132B608E9FF0011124E95DFA4E0180F281E02D7F
S1132B70FF83EE832681378139872887A681B78131
S1132B8015961C930E93149717830683EA8D8E9FD4
S1132B90F0011124E95DFA4EFD87EC8780818F5F97
S1132BA0808381E005C080E003C080E001C080E054
S1132BB0DF91CF911F910F910895CF92DF92EF9201
S1132BC0FF92E0919515F091961566857785808939
S1132BD09189E0919515F0919615A0919515B09174
S1132BE096155A962C910F2EFAE0CF2ED12CE12C6B
S1132BF0F12CF02DC21AD108E108F108C686D78657
S1132C00E08AF18AFF90EF90DF90CF9008954F9281
S1132C105F926F927F92AF92BF92CF92DF92EF92C8
S1132C20FF920F931F93CF93DF93280139010FB6BF
S1132C30F8940F92E0919515F0919615C82FD0E075
S1132C40EC0FFD1F83A9823071F1E0919515F0918D
S1132C509615CE01880F991F880F991FE80FF91F49
S1132C6087A590A9A1A9B2A94095509560957095A2
S1132C70482359236A237B2347A750AB61AB72AB2C
S1132C80E0919515F0919615EC0FFD1F81E083AB53
S1132C90A114B104C104D10431F041E0C601B5016D
S1132CA07AD80E9487060F900FBE0FB6F8940F9241
S1132CB0E114F104A1F0E0919515F0919615CE017F
S1132CC0880F991F880F991FE80FF91F87A590A9EE
S1132CD0A1A9B2A9F70180839183A283B383E09170
S1132CE09515F0919615EC0FFD1F83A98230E9F438
S1132CF0E0919515F0919615CE01880F991F880FD4
S1132D00991FE80FF91F87A590A9A1A9B2A940941A
S1132D10509460947094482259226A227B2247A6D8
S1132D2050AA61AA72AA81E001C080E020919515A1
S1132D3030919615C20FD31F1BAA0F900FBEDF91BF
S1132D40CF911F910F91FF90EF90DF90CF90BF90A4
S1132D50AF907F906F905F904F9008958F929F9265
S1132D60AF92BF92EF92FF920F93CF93DF93DC0168
S1132D700FB6F8940F92E114F10489F0E62FF0E015
S1132D80EE0FFF1FEE0FFF1FE80FF91F87A490A897
S1132D90A1A8B2A8F70180829182A282B38270E0D6
S1132DA0FD01E60FF71F83A992E093AB023001F116
S1132DB018F4013031F04DC0033079F10430D1F111
S1132DC048C0660F771F660F771FFD01E60FF71FD8
S1132DD087A490A8A1A8B2A8BA01A9014829592991
S1132DE06A297B2947A750AB61AB72AB01E034C0C1
S1132DF0660F771F660F771FFD01E60FF71F47A5C4
S1132E0050A961A972A94F5F5F4F6F4F7F4F47A7CA
S1132E1050AB61AB72AB01E01FC0660F771F660F4A
S1132E20771FFD01E60FF71F27A730AB41AB52AB6D
S1132E3001E012C0823079F0660F771F660F771FAA
S1132E40FD01E60FF71F27A730AB41AB52AB01E002
S1132E5003C001E001C000E0813009F069C01C96A4
S1132E60ED91FC911D971696CD91DC9117971896CC
S1132E708D919C9119979F838E831896CD91DC91A7
S1132E80199716968D919C9117979D838C838181B8
S1132E9092819D012E5F3F4F8217930731F418965C
S1132EA08D919C911997928381831D961C921E92F9
S1132EB01C978081815080835A96EC915A97809117
S1132EC0E5148E1710F4E093E5148BE08E9FF00167
S1132ED01124E95DFA4E0180F281E02D1796FC93EE
S1132EE0EE9316974681578119965C934E931897E3
S1132EF0C681D7813D832C83378326835A96EC91F0
S1132F005A978E9FF0011124E95DFA4E1D96FC93A9
S1132F10EE931C9780818F5F80835A969C91E091F9
S1132F209515F0919615828D891710F40E948706E5
S1132F300F900FBE802FDF91CF910F91FF90EF90F4
S1132F40BF90AF909F908F9008958F929F92AF9271
S1132F50BF92CF92DF92EF92FF920F93CF93DF93C2
S1132F60DC01E114F10489F0E62FF0E0EE0FFF1F1D
S1132F70EE0FFF1FE80FF91F87A490A8A1A8B2A81D
S1132F80F70180829182A282B38270E0FD01E60F94
S1132F90F71F93A982E083AB023001F118F40130EA
S1132FA031F04DC0033079F10430D1F148C0660FDF
S1132FB0771F660F771FFD01E60FF71F87A490A800
S1132FC0A1A8B2A8BA01A901482959296A297B29CB
S1132FD047A750AB61AB72AB81E034C0660F771F7B
S1132FE0660F771FFD01E60FF71F47A550A961A9DA
S1132FF072A94F5F5F4F6F4F7F4F47A750AB61ABD5
S113300072AB81E01FC0660F771F660F771FFD014B
S1133010E60FF71F27A730AB41AB52AB81E012C0DC
S1133020923079F0660F771F660F771FFD01E60F68
S1133030F71F27A730AB41AB52AB81E003C081E05F
S113304001C080E0913009F096C09091D61491119E
S11330505FC01C96ED91FC911D971696CD91DC9165
S1133060179718962D913C9119973F832E831896A4
S1133070CD91DC91199716962D913C9117973D832C
S11330802C83418152819D012E5F3F4F421753078C
S113309031F418964D915C911997528341831D9692
S11330A01C921E921C979081915090835A96EC9199
S11330B05A979091E5149E1710F4E093E5149BE061
S11330C09E9FF0011124E95DFA4E0180F281E02D0A
S11330D01796FC93EE9316974681578119965C9345
S11330E04E931897C681D7813D832C8337832683DB
S11330F05A96EC915A979E9FF0011124E95DFA4E7D
S11331001D96FC93EE931C9790819F5F908321C042
S113311062E075E1FB01C181D2815396DC93CE93C9
S113312052972E813F8155963C932E9354974E810E
S11331305F819D01225F3F4FFA01358324833F83E2
S11331402E8359967C936E935897FB0190819F5FD1
S113315090835A962C91E0919515F0919615928D45
S1133160921748F4C114D10419F091E0F601908348
S113317091E09093DF14DF91CF910F91FF90EF9046
S1133180DF90CF90BF90AF909F908F90089500975D
S113319021F480919515909196150FB6F8940F929D
S11331A070E0FC01E60FF71F23A9223031F4FC0183
S11331B0E60FF71F13AA81E001C080E00F900FBE55
S11331C00895DC01E091A115F091A215808191E0B0
S11331D0811190E09C93911108C00780F085E02D47
S11331E06081718182819381089560E070E0CB01F8
S11331F00895CF92DF92EF92FF920F931F93FC01F9
S113320042835383648375839387828704171507E6
S113321026073707C0F00C191D092E093F098685BA
S11332209785A089B189081719072A073B0700F574
S1133230BF016E5F7F4F80919F159091A0150E94F2
S1133240CE0580E018C00C151D052E053F0528F499
S11332504C155D056E057F0568F4BF016E5F7F4FF9
S11332608091A1159091A2150E94CE0580E003C023
S113327081E001C081E01F910F91FF90EF90DF90FA
S1133280CF9008950FB6F8940F9280919D15909168
S11332909E15892BE9F48EEA95E10E94B90583EA2B
S11332A095E10E94B9058EEA95E19093A215809369
S11332B0A11583EA95E19093A01580939F1540E0B2
S11332C067E08AE00E946C0890939E1580939D1598
S11332D00F900FBE0895EF92FF920F93D3DF80916A
S11332E09D1590919E15892B91F00F2EFBE9EF2EE1
S11332F0F5E1FF2EF02D03E020E030E040EC50E05B
S113330068E373E088E591E00E946D0F01C080E0FE
S11333100F91FF90EF9008958F929F92AF92BF927A
S1133320CF92DF92EF92FF920F931F93CF93DF938D
S1133330CDB7DEB727970FB6F894DEBF0FBECDBF6B
S1133340E0919D15F0919E15309781F169832A8350
S11333503B834C835D839F838E836630F4F4C4DBAC
S1133360823069F400E0A7019601BE016F5F7F4FD0
S113337080919D1590919E150E948F0818C000E0C1
S113338020E030E0A901BE016F5F7F4F80919D1561
S113339090919E150E948F080AC020E0A801BE01EA
S11333A06F5F7F4FCF010E943F0901C080E02796E5
S11333B00FB6F894DEBF0FBECDBFDF91CF911F9142
S11333C00F91FF90EF90DF90CF90BF90AF909F90C0
S11333D08F9008958F929F92AF92BF92CF92DF9277
S11333E0EF92FF920F931F93CF93DF933BC007801D
S11333F0F085E02D80809180A280B380C085D18546
S11334008E010E5F1F4FC8010E940B06EC89FD89D7
S1133410CE0119958E8982FF25C08E859F85A88946
S1133420B989880D991DAA1DBB1D88169906AA067F
S1133430BB0670F48A839B83AC83BD83DB87CA8716
S1133440B8018091A1159091A2150E94CE050AC0E1
S1133450C12CD12C760100E010E0A501940160E0BC
S1133460CE015ADFE091A115F091A215808181115E
S1133470BECF80919F159091A0159093A215809333
S1133480A115F093A015E0939F15DF91CF911F91A3
S11334900F91FF90EF90DF90CF90BF90AF909F90EF
S11334A08F900895CF92DF92EF92FF92CF93DF93A4
S11334B0EC010E94F70F6B017C01809197159091AC
S11334C09815A0919915B0919A15C816D906EA06CF
S11334D0FB0620F47FDF81E0888301C01882C0925C
S11334E09715D0929815E0929915F0929A15C70104
S11334F0B601DF91CF91FF90EF90DF90CF900895C8
S11335004F925F926F927F928F929F92AF92BF92EF
S1133510CF92DF92EF92FF920F931F93CF93DF939B
S11335204B015C0129013A01E091A115F091A2152A
S11335300780F085E02DC085D185CE0102960E94DA
S11335400B068E8982FF1BC04E855F856889798949
S1133550480D591D6A1D7B1D75016401930182018B
S1133560CE0147DE882369F0C12CD12C760100E01E
S113357010E0A501940160E0CE01CEDE02C08E7F92
S11335808E8BEC89FD89CE011995DF91CF911F9126
S11335900F91FF90EF90DF90CF90BF90AF909F90EE
S11335A08F907F906F905F904F9008958F929F922D
S11335B0AF92BF92CF92DF92EF92FF921F93CF937D
S11335C0DF931F92CDB7DEB76B017C01142F0E94ED
S11335D0F10FCE01019666DF4B015C0189818111F7
S11335E02DC011110DC08C149D04AE04BF0440F015
S11335F00E943111A5019401C701B60181DF20C0E9
S1133600112341F0E0919F15F091A015808111E004
S1133610811110E0B701A601481959096A097B090B
S1133620212F80919D1590919E150E94090A0E9458
S11336303111811105C00E94870602C00E94311118
S11336400F90DF91CF911F91FF90EF90DF90CF907B
S1133650BF90AF909F908F900895AF92BF92CF92FA
S1133660DF92EF92FF920F931F93CF93DF93CDB727
S1133670DEB728970FB6F894DEBF0FBECDBF82C069
S1133680898188230CF47EC0AE80BF80D5011C964E
S11336908D919C911D97892B21F0C50102960E9462
S11336A00B06CE010896FEDE8B019C01E9810E2EED
S11336B0000CFF0BEA30F10508F064C08827EE58CF
S11336C0FF4F8F4F0C948431F50186898160868B7E
S11336D0CA80DB80EC80FD804685578560897189CE
S11336E04C0D5D1D6E1D7F1DC50183DD882309F40E
S11336F049C0D5015496ED91FC915597C501199592
S1133700F501868982FF3EC04A815B816C817D819F
S113371086859785A089B1899A01AB01280F391F45
S11337204A1F5B1FC12CD12C760100E010E060E041
S1133730C501F2DD27C0D50156968C9156978E7F30
S113374056968C931FC0F50186898160868B4A81C9
S11337505B816C817D8146875787608B718B400FBD
S1133760511F621F731F68017901C50142DD0AC040
S1133770F501868981FD04C0C5010E947C0502C053
S11337808E7F868B20E030E0A901BE016F5F7F4F02
S113379080919D1590919E150E947A09811170CF98
S11337A028960FB6F894DEBF0FBECDBFDF91CF9140
S11337B01F910F91FF90EF90DF90CF90BF90AF904B
S11337C00895089584B1806884B985B1806885B905
S11337D0089583B1806883B90895F4DF2FEF80E7FB
S11337E092E0215080409040E1F700C00000F1DFFA
S11337F0F5CFE8DF2FEF87EA91E621508040904033
S1133800E1F700C00000E5DFF5CFEF92FF920F93E0
S1133810082F96D281110CC01F921F9280E493E06E
S11338209F938F930E945D340F900F900F900F9091
S1133830E12CF12C20E030E040EC50E064E473E053
S113384088E49CE10E946D0F0F91FF90EF90089522
S11338502091BB153091BC15ADECBCEC0E948C31B1
S113386096958795969587959695879508958091D1
S1133870B9159091BA156AE070E00E944F31CB01FE
S1133880089540E150E060E070E00C94D2030895A4
S1133890CF93DF9300D01F92CDB7DEB78FE493E0D0
S11338A09F938F930E945D340E94F70F69837A83FC
S11338B08B839C830F900F9048EA58E460E070E09B
S11338C0CE0101960E940D1286E593E09F938F939B
S11338D00E945D344DD20F900F908111EDCF8DE594
S11338E093E09F938F930E945D3462E370E080E0E5
S11338F090E00E94721251D20F900F908111DCCF90
S113390084E693E09F938F930E945D3461E070E0BE
S113391080E090E00E94721266D29093BC1580936E
S1133920BB1587D29093BA158093B9158BE693E0B3
S11339309F938F930E945D340E948901A2DF0F90B0
S11339400F900F900F90B8CF0F9380919017909194
S11339509117892B89F481E00E9433099093911780
S113396080939017009741F000E020E030E0A90137
S113397060E070E00E948F080F91089580E00E943B
S11339804028E2DF86E00E94472985E00E94FA0190
S113399083E020D784E00E940E0283E036DF9CD7C8
S11339A041E060E070E08CE290E00E94680B90934C
S11339B08F1780938E17BC0181E065D382E07FD19D
S11339C060918E1770918F1781E00E94C90288E779
S11339D093E00E9470340E94B90FFFCF9093D415E6
S11339E08093D31508959093D8158093D71508958F
S11339F09093D6158093D5150895CF93DF93EC015A
S1133A008AE893E09F938F930E945D348091D81548
S1133A108F938091D7158F938AEA93E09F938F9326
S1133A200E945D348091D6158F938091D5158F9324
S1133A308AEC93E09F938F930E945D348091D41518
S1133A408F938091D3158F9388EE93E09F938F93F8
S1133A500E945D34EDEBF5E186E0818382E08083B2
S1133A608091D7159091D815928383838091D51531
S1133A709091D615948385838091D3159091D41514
S1133A809683878386E1DE0101900D928A95E1F7A2
S1133A908DB79EB70E960FB6F8949EBF0FBE8DBF1E
S1133AA0CE01DF91CF910895CF93DF9381E00E94FF
S1133AB0952937D3B3D59F938F9385E094E09F9353
S1133AC08F930E945D34ABD4A9D59F938F9388E1E3
S1133AD094E09F938F930E945D348FEE95E133D3EE
S1133AE09DD5CFEED5E1DF93CF939F938F9381E361
S1133AF094E09F938F930E945D34CE0140D38ED582
S1133B009F938F93DF93CF9385E494E09F938F9358
S1133B100E945D34AE016AE574E08BE794E05DD504
S1133B207DD59F938F93DF93CF938AE594E09F9302
S1133B308F938BE794E09F938F938CE894E09F930B
S1133B408F930E945D344ED369D59F938F9382ECFB
S1133B5094E09F938F930E945D348DB79EB78296B5
S1133B600FB6F8949EBF0FBE8DBF81E035D456D5F5
S1133B709F938F9381ED94E09F938F930E945D3484
S1133B8084EF91E034D44AD59F938F9381E08F934F
S1133B9084EF8F9382EF94E09F938F930E945D3420
S1133BA08DB79EB70A960FB6F8949EBF0FBE8DBF11
S1133BB0CAE080E01DD3D82F31D59F938F931F92F5
S1133BC0CF9382E195E09F938F930E945D340F9091
S1133BD00F900F900F900F900F90D83059F080E015
S1133BE00E94F92966E371E080E090E00E9472127D
S1133BF0C150F9F6D83021F481E00E94DB2909C0D4
S1133C0081E00E94EA2980E00E94B8290E94870688
S1133C10FDCFDF91CF910895CF93DF93CDB7DEB77A
S1133C206A970FB6F894DEBF0FBECDBF81E06BD2AA
S1133C3062E070E080E090E00E94721280E063D263
S1133C4066E970E080E090E00E94721215D22CDFE9
S1133C500E94F70F69837A838B839C8348EA58E434
S1133C6060E070E0CE0101960E940D1282E395E0BF
S1133C709F938F930E945D34CE010596BEDE86E14C
S1133C80FE013596A9EDB5E101900D928A95E1F713
S1133C9083E00E940B2A69ED75E180E0D2D2BED4A4
S1133CA09F938F9380E495E09F938F930E945D345C
S1133CB00F900F900F900F900F900F90CFCFEF9227
S1133CC0FF920F93E12CF12C082F20E030E048E81C
S1133CD051E065E575E08CE09EE10E946D0F0F9167
S1133CE0FF90EF9008956530F1F4FA0180818F73AD
S1133CF090E0982F88272181822B90930A02809349
S1133D0009028281F0E48F9FC0011124FA0123810A
S1133D1026952695822B909308028093070281E0D2
S1133D20809353160895643051F080E090E49093AA
S1133D3008028093070290930A028093090208956F
S1133D400F931F9303E71EE120E034E244EF50E0B9
S1133D5060E087E20E942E2A9093551680935416B1
S1133D6021E0892B09F020E0822F1F910F91089503
S1133D708091541690915516009759F040E060E0F8
S1133D8070E00E947F2A843031F41092531680E050
S1133D90089582E0089583E00895809154169091E7
S1133DA05516009739F064E00E94CB2A853021F043
S1133DB083E0089582E0089580E008956091090207
S1133DC070910A0280E090E00E94D52C20E030E05F
S1133DD048EC52E40E94632D20E038EF4FE756E4AC
S1133DE00C943C2C0895EADF20E030E040E251E4FA
S1133DF00E94632D0E94A92CCB01089560910702B3
S1133E007091080280E090E00E94D52C20E030E020
S1133E1045E253E40E94632D20E038EF4FE756E477
S1133E200E943C2C20E030E040E252E40C94D72B7A
S1133E300895E4DF20E030E040E251E40E94632D85
S1133E400E94A42CCB0108950F931F93CF93DF936B
S1133E501F921F92CDB7DEB78C0119822DC0E0915D
S1133E608D16EC3250F481E08E0F80938D16F0E0C5
S1133E70E154F94E8A81808302C010928D168A81A2
S1133E808A30D1F440918D1650E0FA01E354F94E92
S1133E901082415051099E012F5F3F4F6FEB76E135
S1133EA080919016909191160E948F0C89818111B6
S1133EB00E94870610928D16BE016E5F7F4FC80167
S1133EC049D6882361F20F900F90DF91CF911F9113
S1133ED00F9108950F931F93CF93DF938C01EB0100
S1133EE080919016909191160E949A0BB80186E5E4
S1133EF096E10E94F733209779F0E6E5F6E1019028
S1133F000020E9F7319780E290E091838083BE013D
S1133F1086E596E10E94EC33E6E5F6E1DF010D90DB
S1133F200020E9F711978DE09AE011969C938E9307
S1133F3012961C9201900020E9F73197E655F6415C
S1133F40AE2F86E596E1AC016A2F8091921690918E
S1133F509316ABD5811111C008E215E020E030E0E2
S1133F604DE250E069E177E18091901690919116CD
S1133F700E94D30C89E197E102C080E090E0DF91D8
S1133F80CF911F910F9108952F923F924F925F927C
S1133F906F927F928F929F92AF92BF92CF92DF9255
S1133FA0EF92FF920F931F93CF93DF935C01FC0179
S1133FB001900020E9F731976F01C81AD90A5C2CE7
S1133FC00F2EF5EF8F2EF7E09F2EF02DE12CF12C24
S1133FD04C2C3701F40101811281E8010990002081
S1133FE0E9F72197C01BD10B3C2EF9E0CF16D10481
S1133FF058F0F4012080FEE02F1206C0B801C5017C
S11340000E94C733892B09F5442D351408F44C2F2D
S113401050E0B801C5010E94FE33892B49F4F30135
S1134020EE0FFF1FE60DF71DEB50F84F20800DC07B
S11340308FEFE81AF80AE3E08E0E911CF1E1EF1617
S1134040F10439F66894222424F8822DDF91CF916B
S11340501F910F91FF90EF90DF90CF90BF90AF90A2
S11340609F908F907F906F905F904F903F902F9094
S1134070089530DF89CF089580919016909191161C
S11340800C949A0B08958F929F92AF92CF92EF92D5
S11340900F931F93CF93C82F8B0141E060E070E032
S11340A088EC90E00E94680B909391168093901690
S11340B010938F1600938E160F2EF4E28F2EFFE1CD
S11340C09F2EF02D6894AA24A6F86894CC24C6F8F0
S11340D0E12C00E023E040E051EE60E070E08C2F42
S11340E017D49093931680939216E7E0F1E08081C1
S11340F080618083CF911F910F91EF90CF90AF900B
S11341009F908F900895882331F0E8E0F1E080815A
S11341108F7E80830895E8E0F1E080818061808370
S1134120089560E070E08BE795E0D4DEE9E1F7E123
S113413001900020E9F73197E951F74181E0759743
S113414008F080E00895CF93DF93EC0160E070E025
S11341508CE895E0BFDEE9E1F7E101900020E9F7A2
S1134160EA52F74139F469E177E1CE010E94F7336D
S113417080E002C0188281E0DF91CF910895FC01B4
S113418001900020E9F79F012151310928173907CF
S113419029F4BC018AEB95E06CCF089589E0089579
S11341A0FC0101900020E9F79F01215131092817F2
S11341B0390729F4BC0189EC95E05BCF089589E0C7
S11341C00895FC0101900020E9F79F012152310973
S11341D02817390729F4BC0188ED95E04ACF0895E2
S11341E089E0089560E070E087E196E042CF0895A9
S11341F00F931F93E82FF0E0EE0FFF1FEF50F84FDF
S11342006081718180E296E034DF811114C008E29C
S113421015E020E030E04DE250E069E177E1809183
S11342209016909191160E94D30C882321F089E175
S113423097E1AADE03C089E197E1A6DE1F910F9101
S113424008950F931F93CF93DF931F92CDB7DEB7DB
S1134250DB0111969C911197953108F0B4C0992314
S113426081F160E070E0272F30E0462F50E0FD013F
S1134270E40FF51F928192959F709A3010F0995C2B
S113428001C0905DF901E655F94E90832F5F3F4FD1
S1134290FD01E40FF51F92819F70492F50E04A30D1
S11342A0510514F0995C01C0905DF901E655F94E91
S11342B090837E5F6F5F11969C911197691798F2B6
S11342C001C070E0E72FF0E0E655F94E10824C9102
S11342D0811103C089E296E002C08BE296E02AEAEB
S11342E036E13F932F931F924F939F938F938FE2C7
S11342F096E09F938F938CEE96E19F938F930E9409
S1134300A03460E070E08CEE96E1B3DE0FB6F89472
S1134310DEBF0FBECDBF811159C008E215E020E019
S113432030E04DE250E069E177E1809190169091A0
S113433091160E94D30C882309F447C089E197E1C0
S113434023DE8E3009F042C087E0898380918E1687
S113435090918F16892BA9F1BE016F5F7F4F89E180
S113436097E168D180939416E981F0E0E75EF84E16
S1134370DF010D900020E9F71197AE1BBF0BAA23B4
S113438091F0BB27CD0101979C0112F42F5F3F4FA1
S11343903595279520939516AF014F5F5F4F64E1E4
S11343A086E996E173D101E010E020E030E046E1D7
S11343B050E064E976E180918E1690918F160E9408
S11343C0CA0B8EE003C084E101C080E00F90DF914E
S11343D0CF911F910F910895813019F06FE376E02A
S11343E002C068E177E083E496E043CE08959F93AA
S11343F08F9384E796E09F938F938CEE96E19F933F
S11344008F930E94A03460E070E08CEE96E131DE80
S11344100F900F900F900F900F900F9008952F9280
S11344203F924F925F926F927F928F929F92AF9240
S1134430BF92CF92DF92EF92FF920F931F93CF938D
S1134440DF93CDB7DEB7A0970FB6F894DEBF0FBEEB
S1134450CDBF61EA76E08DEA96E03CDD95DD811121
S1134460A3C080E2E2E2F2E0DE01119601900D9237
S11344708A95E1F79E012F5F3F4F6901E12CF12CF2
S11344800F2EF9EBAF2EF6E0BF2EF02D0CEE16E159
S11344900F2EF2ED4F2EF6E05F2EF02D0F2EF9EEDB
S11344A08F2EF6E09F2EF02D0F2EF3E06F2EF7E007
S11344B07F2EF02D3E2C2F2CFF92EF92BF92AF92C5
S11344C01F930F930E94A03460E070E0C80102DDE6
S11344D05BDD0F900F900F900F900F900F90811154
S11344E063C032E03E15E8F4F60183818F93828144
S11344F08F9381818F9380818F93FF92EF925F924C
S11345004F921F930F930E94A03460E070E0C801A3
S1134510E1DC3ADD0FB6F894DEBF0FBECDBF8111EA
S113452043C02F923F929F928F921F930F930E94AA
S1134530A03460E070E0C801CDDC26DD0F900F9060
S11345400F900F900F900F9081112EC02F923F92D9
S11345507F926F921F930F930E94A03460E070E0EB
S1134560C801B8DC11DD0F900F900F900F900F90E1
S11345700F90811119C03FEFE31AF30A84E0C80ECB
S1134580D11C98E0E916F10409F094CF60E070E0E2
S11345908BE197E09FDCF8DC811106C060E070E0FD
S11345A08CE297E097DCF0DCA0960FB6F894DEBFBF
S11345B00FBECDBFDF91CF911F910F91FF90EF9070
S11345C0DF90CF90BF90AF909F908F907F906F902F
S11345D05F904F903F902F900895EF92FF920F932A
S11345E01F93CF93DF93EC018B017A0181E0F4DE1A
S11345F081110DC0CE01D4DD811109C0C801E1DDF6
S1134600811105C0C701BBDD811101C0EBDDDF9164
S1134610CF911F910F91FF90EF90089590E0FC01CE
S1134620EE0FFF1F8E0F9F1FFC01EB50F84F81818F
S113463092810895DC01009729F1FB012081FC019E
S113464001900020E9F73197E81BF90B822F90E0E5
S1134650E817F907C8F080E008C0880F382F330F37
S1134660330F830F8053890F2F5FFD01E20FF11D7C
S1134670908130ED390F3A3010F49111EECFFB01F7
S11346802083089580E0089580E008950F931F9398
S1134690CF93DF93DC01EA012097E1F1FA01019065
S11346A00020E9F73197E41BF50B329710F532C07F
S11346B08D01040F151F30E0AE01420F531FFA01A4
S11346C09081913428F09753592F5295507F03C00D
S11346D0592F5295507F2C0F3D1FF9019181913430
S11346E010F0975301C09053950FF80190838F5F9A
S11346F001C080E0282F220F482F50E0FE010190D6
S11347000020E9F73197EC1BFD0B4E175F0710F4FF
S11347108613CECFDF91CF911F910F910895809191
S11347204917860F8093491790914C17913079F06F
S113473028F09230A9F0933019F108956F3F09F0F1
S113474048C01092491781E080934C170895663849
S113475009F03FC01092481782E080934C170895E7
S1134760E091481781E08E0F80934817F0E0EA5BF0
S1134770F84E6083823069F583E080934C17089586
S11347809091481721E0290F20934817963009F596
S113479081110EC0E6E4F7E1808190E0982F88272C
S11347A02181820F911D90934E1780934D1704C061
S11347B010924E1710924D1710924C17E0914A1711
S11347C0F0914B17309729F080914D1790914E1727
S11347D0199508958F929F92AF92CF92EF920F9373
S11347E00F2EFFE88F2EF3E29F2EF02D6894AA245B
S11347F0A4F86894CC24C4F8E12C00E023E040E859
S113480055E260E070E084D09093501780934F1786
S11348100F91EF90CF90AF909F908F9008959093C9
S11348204B1780934A170895CF93DF93CDB7DEB724
S113483029970FB6F894DEBF0FBECDBF89E0E2E43E
S1134840F2E09E012F5F3F4FD90101900D928A95AE
S1134850E1F710924E1710924D1780914F179091D7
S11348605017009731F0422F532F69E01ED180E09A
S113487001C082E029960FB6F894DEBF0FBECDBF0B
S1134880DF91CF91089520914D1730914E17211546
S1134890310529F4FC011182108281E00895FC01A4
S11348A03183208380E0089565360CF064E66C392A
S11348B00CF46CE996EF6902B00111246854744F4A
S11348C0811105C0709329016093280108957093A4
S11348D02B0160932A010895EAE0F1E08081886168
S11348E080838FE39CE9909327018093260160E005
S11348F080E0DADF60E081E0D7DFE0E2F1E08081B0
S1134900826A8083E1E2F1E080818A618083089594
S11349102F923F924F925F926F927F928F929F92CB
S1134920AF92CF92EF92FF920F931F93CF93DF93A7
S1134930CDB7DEB7F82E2A013B0188E090E00E9453
S1134940AF318C018F2D90E0FC01EE0FFF1FEF5A69
S1134950F84E118300830115110509F469C0880F0D
S1134960991FFC01E55FFD4F80819181D8018D93F2
S11349709C938C2D90E0880F991F880F991F0E949B
S1134980AF311C0186E090E00E94AF317C014C2DD8
S1134990B101F1D6F801F582E4828A2D90E0880F06
S11349A0991F880F991F0E94AF311C0186E090E087
S11349B00E94AF317C014A2DB101DDD6D801139696
S11349C0FC92EE92129717969C928E921697FFB6CF
S11349D0F894ED91FC9111973697808182608083E1
S11349E08D909C90C301B201E0D720E030E040E01C
S11349F051E40E94632D9B01AC0160E074E284E702
S1134A009BE43AD720E030E040E85FE3D0D6A1D77A
S1134A10F40132976083D801ED91FC911197359799
S1134A2088E98083ED91FC91349786E08083FFBE12
S1134A30C801DF91CF911F910F91FF90EF90CF901C
S1134A40AF909F908F907F906F905F904F903F902A
S1134A502F900895CF93DF93DC01892B01F11296F7
S1134A60ED91FC911397938182812581981B922368
S1134A7084819817B1F0838126952823C081D18140
S1134A80C20FD11D68838F5F958189238383ED9144
S1134A90FC91359780818062808380E003C081E04F
S1134AA001C082E0DF91CF910895EF92FF920F93BE
S1134AB01F93CF93DF937C01009709F441C0DC017D
S1134AC01296ED91FC91139793818281981B8581B5
S1134AD098238481891B8617A8F1662341F1842FCA
S1134AE0952FDC016150462F50E04F5F5F4F480F18
S1134AF0591FE701EA81FB81938182812581981BFB
S1134B0092238481981779F08C9193812695292397
S1134B10608171818B01020F111DE80188839F5F01
S1134B208581982393831196A417B50711F7D701AC
S1134B30ED91FC91359780818062808380E003C091
S1134B4081E001C082E0DF91CF911F910F91FF902E
S1134B50EF9008950097D1F0DC011496ED91FC914B
S1134B60159793818281981799F092818581869512
S1134B708923A081B181A80FB11D8C91DB018C9395
S1134B809F5F85819823928380E0089581E0089552
S1134B9083E008951F920F920FB60F9211240BB663
S1134BA00F922F933F934F935F936F937F938F93C2
S1134BB09F93AF93BF93CF93DF93EF93FF93A09112
S1134BC05117B0915217109711F16091C6001496C5
S1134BD0ED91FC911597938182812581981B9223F5
S1134BE08481981761F0838126952823C081D1811F
S1134BF0C20FD11D68838F5F9581892383831696A5
S1134C00ED91FC911797309711F0CD011995FF9113
S1134C10EF91DF91CF91BF91AF919F918F917F9150
S1134C206F915F914F913F912F910F900BBE0F9019
S1134C300FBE0F901F9018951F920F920FB60F92F0
S1134C4011240BB60F922F938F939F93AF93BF931F
S1134C50EF93FF93E0915117F09152173097B9F009
S1134C600280F381E02D938182819817B1F09281C3
S1134C708581282F26952923A081B181A20FB11DFA
S1134C802C919F5F892382832093C6000BC0E1ECA3
S1134C90F0E080818F7D808305C0E1ECF0E08081CD
S1134CA08F7D8083FF91EF91BF91AF919F918F9101
S1134CB02F910F900BBE0F900FBE0F901F90189561
S1134CC01F920F920FB60F9211240BB60F922F93CF
S1134CD03F934F935F936F937F938F939F93AF9380
S1134CE0BF93CF93DF93EF93FF93A0915317B091AA
S1134CF05417109711F16091CE001496ED91FC9128
S1134D001597938182812581981B9223848198171A
S1134D1061F0838126952823C081D181C20FD11DE2
S1134D2068838F5F9581892383831696ED91FC9127
S1134D301797309711F0CD011995FF91EF91DF91FD
S1134D40CF91BF91AF919F918F917F916F915F911F
S1134D504F913F912F910F900BBE0F900FBE0F906C
S1134D601F9018951F920F920FB60F9211240BB635
S1134D700F922F938F939F93AF93BF93EF93FF93D0
S1134D80E0915317F09154173097B9F00280F381F2
S1134D90E02D938182819817B1F092818581282F2B
S1134DA026952923A081B181A20FB11D2C919F5F6B
S1134DB0892382832093CE000BC0E9ECF0E080814C
S1134DC08F7D808305C0E9ECF0E080818F7D808356
S1134DD0FF91EF91BF91AF919F918F912F910F9080
S1134DE00BBE0F900FBE0F901F9018951F920F923D
S1134DF00FB60F9211240BB60F922F933F934F933C
S1134E005F936F937F938F939F93AF93BF93CF934E
S1134E10DF93EF93FF93A0915517B0915617109716
S1134E2011F16091D6001496ED91FC911597938140
S1134E3082812581981B92238481981761F0838154
S1134E4026952823C081D181C20FD11D68838F5F2D
S1134E509581892383831696ED91FC91179730975A
S1134E6011F0CD011995FF91EF91DF91CF91BF9191
S1134E70AF919F918F917F916F915F914F913F91EE
S1134E802F910F900BBE0F900FBE0F901F9018958F
S1134E901F920F920FB60F9211240BB60F922F93FD
S1134EA08F939F93AF93BF93EF93FF93E091551725
S1134EB0F09156173097B9F00280F381E02D938179
S1134EC082819817B1F092818581282F2695292314
S1134ED0A081B181A20FB11D2C919F5F8923828390
S1134EE02093D6000BC0E1EDF0E080818F7D8083BC
S1134EF005C0E1EDF0E080818F7D8083FF91EF912B
S1134F00BF91AF919F918F912F910F900BBE0F90F6
S1134F100FBE0F901F9018951F920F920FB60F920D
S1134F2011240BB60F922F933F934F935F936F937C
S1134F307F938F939F93AF93BF93CF93DF93EF931D
S1134F40FF93A0915717B0915817109711F16091E2
S1134F5036011496ED91FC911597938182812581F8
S1134F60981B92238481981761F0838126952823C6
S1134F70C081D181C20FD11D68838F5F9581892340
S1134F8083831696ED91FC911797309711F0CD011C
S1134F901995FF91EF91DF91CF91BF91AF919F91BF
S1134FA08F917F916F915F914F913F912F910F90CE
S1134FB00BBE0F900FBE0F901F9018951F920F926B
S1134FC00FB60F9211240BB60F922F938F939F93CA
S1134FD0AF93BF93EF93FF93E0915717F091581756
S1134FE03097B9F00280F381E02D93818281981784
S1134FF0B1F092818581282F26952923A081B18142
S1135000A20FB11D2C919F5F8923828320933601C7
S11350100BC0E1E3F1E080818F7D808305C0E1E393
S1135020F1E080818F7D8083FF91EF91BF91AF91FB
S11350309F918F912F910F900BBE0F900FBE0F90E9
S11350401F901895CF93DF931F92CDB7DEB7BE01A3
S11350506F5F7F4F8091591790915A177BDD8111B3
S1135060F6CF898190E00F90DF91CF910895682F5A
S11350708091591790915A17EDDC80E090E00895E3
S11350808F929F92AF92CF92EF920F93812C912C9B
S11350906894AA24A7F86894CC24C7F8E12C00E00B
S11350A023E040E051EE60E070E032DC90935A1768
S11350B080935917E6E9F7E183E192E091838083D5
S11350C0938382830F91EF90CF90AF909F908F90B6
S11350D0089590E0FC01EE0FFF1FE80FF91FEE0F9B
S11350E0FF1FE55AF84E238121111FC09C01220F96
S11350F0331FF901E80FF91FEE0FFF1FE55AF84EB1
S1135100A081B1814C91F901E80FF91FEE0FFF1F47
S1135110E55AF84E81E090E0028002C0880F991FA2
S11351200A94E2F7842B8C930895FC01EE0FFF1F81
S1135130DF01A80FB91FAA0FBB1FA55AB84E0D90C7
S1135140BC91A02D2C91E80FF91FEE0FFF1FE55A1B
S1135150F84E81E090E0028002C0880F991F0A9403
S1135160E2F7809582238C93089590E0FC01EE0F82
S1135170FF1FE80FF91FEE0FFF1FE55AF84E2381BA
S1135180211120C09C01220F331FF901E80FF91FE0
S1135190EE0FFF1FE55AF84EA081B1814C91F90141
S11351A0E80FF91FEE0FFF1FE55AF84E81E090E07B
S11351B0028002C0880F991F0A94E2F78095842325
S11351C08C930895FC01EE0FFF1FDF01A80FB91F98
S11351D0AA0FBB1FA55AB84E0D90BC91A02D2C91BF
S11351E0E80FF91FEE0FFF1FE55AF84E81E090E03B
S11351F0028002C0880F991F0A94E2F7822B8C93D5
S11352000895CC24C394D12C6894BB24B2F8CBE584
S1135210D7E110E08C81813081F018F1823061F5A2
S1135220E881F9812081C6010A8002C0880F991F94
S11352300A94E2F7822780831FC08D818F5F8A30B2
S113524010F48D8319C01D82E881F9812081C60183
S11352500A8002C0880F991F0A94E2F7822780838C
S11352600BC00D81002329F0812F7FDF01500D83B6
S113527003C0BC82812F2DDF1F5F2696143051F6A8
S113528065E070E080E090E00E947212C0CFEF927F
S1135290FF920F931F93CF93DF93082F80E487B976
S11352A0CBE5D7E10F2EF8E2EF2EF12CF02DF982A9
S11352B0E88286E08A831B8214E01C8380E009DF95
S11352C080E887B9FF82EE8287E0888719861A878B
S11352D081E0FFDE80E283BB84E390E09D878C87DE
S11352E085E08E871F86188B82E0F3DE80E1809351
S11352F0010182E091E09B8B8A8B1C8B1D8A1E8BA3
S113530083E0E7DEE12CF12C20E030E040EC50E0DB
S113531068E278E081E099E20E946D0FDF91CF911D
S11353201F910F91FF90EF900895CF93DF9390E03A
S1135330FC01EE0FFF1FDF01A80FB91FAA0FBB1F4F
S1135340A55AB84ECD91DC911197488121E030E007
S113535012960C90129702C0220F331F0A94E2F7A0
S113536024272883FD0181E08483DF91CF91089570
S1135370CF93DF9390E0FC01EE0FFF1FDF01A80F36
S1135380B91FAA0FBB1FA55AB84ECD91DC91119736
S1135390488121E030E012960C90129702C0220F4F
S11353A0331F0A94E2F724272883FD0182E08483D3
S11353B0DF91CF910895282F30E0F901EE0FFF1F00
S11353C0E20FF31FEE0FFF1FE55AF84E93E09483AC
S11353D0CCCE0895282F30E0F901EE0FFF1FE20F25
S11353E0F31FEE0FFF1FE55AF84E94E0948371CE3D
S11353F0089590E0FC01EE0FFF1FDF01A80FB91F15
S1135400AA0FBB1FA55AB84E24E015962C931597E6
S1135410FD011482089590E0FC01EE0FFF1FDF01EF
S1135420A80FB91FAA0FBB1FA55AB84E21E01596A5
S11354302C931597FD011482089580918117811191
S11354400CC08CE08093B8008FEF8093BB0084E0A5
S11354508093BC0081E0809381170895AF92BF923E
S1135460CF92DF92EF92FF920F931F93CF93DF932C
S1135470A82EB62E69017A0184E090E070D7EC0181
S1135480892B61F1A88281E0B81212C0C701B6016C
S113549020EA36E841E050E015D7DA01C901409727
S11354A0A109B109B695A79597958795898311C0E8
S11354B0C701B60120E83AE146E050E003D7DA013B
S11354C0C9014097A109B109B695A7959795879504
S11354D089831B830A838C2F9D2F02C080E090E078
S11354E0DF91CF911F910F91FF90EF90DF90CF90BC
S11354F0BF90AF9008958091BC0081700895FF9291
S11355000F931F93CF93DF930097D1F14A30D0F5D7
S1135510F42E8B01EC01EFDF811136C080917417FA
S113552090917517C817D90741F087DF8981809357
S1135530B800D0937517C093741781E08F0D8093D2
S113554076178881880F80937717FF2089F0F801F8
S1135550A8E7B7E14FEF4F0D642F70E0CB01019640
S1135560B801680F791F81918D93E617F707D9F772
S113557088EF8093210285EA8093BC0084E005C013
S113558086E003C087E001C082E0DF91CF911F91E4
S11355900F91FF9008951F93CF93DF93009729F104
S11355A06B3028F5162FEC01A6DF811122C0809103
S11355B0741790917517C817D90741F03EDF898198
S11355C08093B800D0937517C0937417109376170F
S11355D08881880F81608093771788EF80932102F8
S11355E085EA8093BC0085E005C086E003C087E0BF
S11355F001C082E0DF91CF911F9108951F920F9215
S11356000FB60F9211240BB60F922F933F934F9323
S11356105F936F937F938F939F93AF93BF93EF9316
S1135620FF93E091B9008E2F90E0FC013897E135AB
S1135630F10508F075C08827E458FF4F8F4F64C602
S113564010927317E091731780917617E81770F42E
S113565081E08E0F80937317F0E0E958F84E808153
S11356608093BB0085E88093BC0072C084E980937A
S1135670BC008091741790917517DC011296ED911E
S1135680FC911397309709F463C020E040E050E0A8
S113569064E019955DC0E091731781E08E0F8093EB
S11356A073178091BB00F0E0E958F84E8083809135
S11356B0B900803411F4109273172091731730E0FD
S11356C08091761790E001972817390724F485EC28
S11356D08093BC003DC085E88093BC0039C08091B4
S11356E0BB00E0917317F0E0E958F84E808384E939
S11356F08093BC008091741790917517DC01129609
S1135700ED91FC911397309719F12091761747E7A3
S113571057E165E019951CC085EA8093BC0018C068
S11357208091B9008093210284E08093BC00809131
S1135730741790917517DC011296ED91FC911397F3
S1135740309731F020E040E050E06091210219955B
S1135750FF91EF91BF91AF919F918F917F916F9145
S11357605F914F913F912F910F900BBE0F900FBE01
S11357700F901F901895FC01411101C011D7842F7F
S113578090E09C012150310982239323892B09F055
S113579007D7413808F004D7128213824483440F98
S11357A0415045837183608380E090E008955058B0
S11357B0BB27AA270ED04DC13ED130F043D120F0F3
S11357C031F49F3F11F41EF433C10EF4E095E7FB6E
S11357D029C1E92F4FD180F3BA17620773078407F1
S11357E0950718F071F49EF567C10EF4E0950B2E41
S11357F0BA2FA02D0B01B90190010C01CA01A0011F
S11358001124FF27591B99F0593F50F4503E68F179
S11358101A16F040A22F232F342F4427585FF3CFBA
S1135820469537952795A795F0405395C9F77EF48B
S11358301F16BA0B620B730B840BBAF09150A1F0D4
S1135840FF0FBB1F661F771F881FC2F70EC0BA0F5A
S1135850621F731F841F48F4879577956795B795E2
S1135860F7959E3F08F0B3CF9395880F08F09927DA
S1135870EE0F9795879508950CD0EBC0E3D040F0D8
S1135880DAD030F021F45F3F19F0CCC0511115C1CA
S1135890CFC0F0D098F39923C9F35523B1F3951BE6
S11358A0550BBB27AA2762177307840738F09F5F3D
S11358B05F4F220F331F441FAA1FA9F333D00E2EAC
S11358C03AF0E0E830D091505040E695001CCAF719
S11358D029D0FE2F27D0660F771F881FBB1F2617DE
S11358E037074807AB07B0E809F0BB0B802DBF01B1
S11358F0FF2793585F4F2AF09E3F510568F092C0EE
S1135900DCC05F3FECF3983EDCF3869577956795B2
S1135910B795F7959F5FC9F7880F911D9695879561
S113592097F90895E1E0660F771F881FBB1F621780
S113593073078407BA0720F0621B730B840BBA0B3E
S1135940EE1F88F7E095089504D06894B111B5C0AE
S1135950089598D088F09F5790F0B92F9927B751A0
S1135960A0F0D1F0660F771F881F991F1AF0BA951F
S1135970C9F712C0B13081F09FD0B1E008959CC046
S1135980672F782F8827B85F39F0B93FCCF3869515
S113599077956795B395D9F73EF490958095709572
S11359A061957F4F8F4F9F4F0895E89409C097FBEF
S11359B03EF490958095709561957F4F8F4F9F4FE2
S11359C09923A9F0F92F96E9BB279395F695879526
S11359D077956795B795F111F8CFFAF4BB0F11F4E9
S11359E060FF1BC06F5F7F4F8F4F9F4F16C0882390
S11359F011F096E911C0772321F09EE8872F762FC6
S1135A0005C0662371F096E8862F70E060E02AF006
S1135A109A95660F771F881FDAF7880F96958795F2
S1135A2097F9089597F99F6780E870E060E008951A
S1135A309FEF80EC089500240A94161617061806A2
S1135A400906089500240A9412161306140605067E
S1135A500895092E0394000C11F4882352F0BB0F0F
S1135A6040F4BF2B11F460FF04C06F5F7F4F8F4F72
S1135A709F4F089557FD9058440F551F59F05F3FAD
S1135A8071F04795880F97FB991F61F09F3F79F05C
S1135A9087950895121613061406551FF2CF4695DE
S1135AA0F1DF08C0161617061806991FF1CF869560
S1135AB07105610508940895E894BB276627772744
S1135AC0CB0197F908950BD0C4CFB5DF28F0BADF26
S1135AD018F0952309F0A6CFABCF1124EECFCADF7F
S1135AE0A0F3959FD1F3950F50E0551F629FF001ED
S1135AF0729FBB27F00DB11D639FAA27F00DB11D46
S1135B00AA1F649F6627B00DA11D661F829F2227CE
S1135B10B00DA11D621F739FB00DA11D621F839F55
S1135B20A00D611D221F749F3327A00D611D231F2B
S1135B30849F600D211D822F762F6A2F11249F5779
S1135B4050408AF0E1F088234AF0EE0FFF1FBB1F9C
S1135B50661F771F881F91505040A9F79E3F51053B
S1135B6070F060CFAACF5F3FECF3983EDCF38695EC
S1135B7077956795B795F795E7959F5FC1F7FE2BE6
S1135B80880F911D9695879597F908952F923F92C6
S1135B904F925F926F927F928F929F92AF92BF9239
S1135BA0CF92DF92EF92FF920F931F93CF93DF93E5
S1135BB0CDB7DEB760970FB6F894DEBF0FBECDBF8A
S1135BC07C011B016A01FC0117821682838181FF1B
S1135BD02AC39E012F5F3F4F3901F7019381F101E1
S1135BE093FD859193FF81911F01882309F417C3C5
S1135BF0853239F493FD859193FF81911F0185329C
S1135C0031F4B70190E01DD656016501E6CF10E0EE
S1135C10512C912CFFE1F915D8F08B3279F038F43E
S1135C20803279F08332A1F4F92DF0612EC08D32E7
S1135C3061F0803369F4292D21602DC0392D326043
S1135C40932E892D8460982E2AC0E92DE86015C012
S1135C5097FC2DC020ED280F2A3088F496FE06C04C
S1135C603AE0139F200D1124122F19C08AE0589E88
S1135C70200D1124522EE92DE0629E2E10C08E328A
S1135C8031F496FCCCC2F92DF0649F2E08C08C36FA
S1135C9021F4292D2068922E02C0883641F4F101A6
S1135CA093FD859193FF81911F018111B3CF9BEBEC
S1135CB0980F933020F4992D9061805E07C09BE982
S1135CC0980F933008F059C1992D9F7E96FF16E0E6
S1135CD09F73992E853619F49064992E08C08636E0
S1135CE021F4392F3068932E02C01111115097FE00
