:1000000066C1000085C1000083C1000081C10000FD
:100010007FC100007DC100007BC1000079C10000EC
:1000200077C1000075C1000073C1000071C10000FC
:100030007EC700006DC100006BC1000069C10000F7
:1000400067C1000065C1000063C1000061C100001C
:100050005FC100005DC100005BC1000059C100002C
:1000600057C100000C94EA250C943C2651C10000B5
:100070004FC100004DC100004BC1000049C100004C
:1000800047C1000045C1000043C1000041C100005C
:100090000C9480260C94D2263BC100000C941E2B9D
:1000A00037C1000035C1000033C1000031C100007C
:1000B0002FC100002DC100002BC1000029C100008C
:1000C00027C1000025C1000023C100000C941627A1
:1000D0000C9468271DC100000C94AC270C94FE27DB
:1000E00017C10000AE1BAE1BAE1BE51BED1B021CB7
:1000F000AE1BAE1BE51BED1B402BB02BB02BB02B6A
:10010000B02BB02BB02BB02B402BB02BB02BB02B87
:10011000B02BB02BB02BB02B422BB02BB02BB02B75
:10012000B02BB02BB02BB02BB02BB02BB02BB02BF7
:10013000B02BB02BB02BB02B422BB02BB02BB02B55
:10014000B02BB02BB02BB02BB02BB02BB02BB02BD7
:10015000B02BB02BB02BB02BAC2BB02BB02BB02BCB
:10016000B02BB02BB02BB02B772BB02BB02BB02BF0
:10017000B02BB02BB02BB02BB02BB02BB02BB02BA7
:10018000B02BB02BB02BB02B6B2BB02BB02BB02BDC
:10019000B02BB02BB02BB02B8F2B6E616E00696E25
:1001A000660000407A10F35A00A0724E1809001041
:1001B000A5D4E80000E87648170000E40B540200DC
:1001C00000CA9A3B000000E1F50500008096980007
:1001D000000040420F000000A08601000000102730
:1001E00000000000E80300000000640000000000C0
:1001F0000A00000000000100000000002C76D888F2
:10020000DC674F0823DFC1DFAE59E1B1B796E5E304
:10021000E453C63AE651997696E8E6C28426EB891D
:100220008C9B62ED407C6FFCEFBC9C9F40F2BAA5BA
:100230006FA5F490055A2AF75C936B6CF9676DC152
:100240001BFCE0E40D47FEF520E6B500D0ED902E56
:100250000300943577050080841E080000204E0AB4
:10026000000000C80C333333330F986E12831141F2
:10027000EF8D2114893BE65516CFFEE6DB18D184BD
:100280004B381BF77C1D901DA4BBE42420328472E4
:100290005E228100C9F124ECA1E53D270E94F00E09
:1002A00080915515823008F07CD50E942B1CF6CF2A
:1002B000CF93DF931F92CDB7DEB7CE0101960E9498
:1002C0002B1949810E94201B0E94771BF6CF112415
:1002D0001FBECFEFD1E2DEBFCDBF00E00CBF18E004
:1002E000A0E0B2E0ECE9FAE600E00BBF02C0079044
:1002F0000D92AC35B107D9F727E1ACE5B8E001C004
:100300001D92AE3CB207E1F70E94DE1C0C944C3506
:1003100077CE8091B0179091B117089541E150E0E8
:1003200060E070E06CC20895CF92DF92EF92FF928E
:100330000F93CF93DF93EC010F2EF6E0CF2ED12C4D
:10034000E12CF12CF02D01E020E041E150E060E0F3
:1003500070E0B5D1DC01CB0181719927AA27BB27B9
:100360004197A105B105A9F48FE692E09F938F9381
:100370000E947D340E94721C0E94131D0E94811CE9
:100380000E94181D5FD00E940E1DCE01C7DF0F9086
:100390000F90DF91CF910F91FF90EF90DF90CF9072
:1003A0000895CF93DF9300D01F92CDB7DEB78EE8CC
:1003B00092E09F938F930E947D346ED19093B117FA
:1003C0008093B0170E94411069837A838B839C834A
:1003D0000F900F9042E150E060E070E0CE01019696
:1003E0000E9457128091B0179091B117009791F326
:1003F0009BDFF0CFEF92FF920F93E12CF12C082FAF
:1004000020E030E040EC50E06FE972E081ED91E0F7
:100410000E94B70F0F91FF90EF900895EF92FF9217
:100420000F93E12CF12C082F20E030E040EC50E05D
:100430006FEA72E08DE292E00E94B70F0F91FF9099
:10044000EF9008958091B4179091B517089541E009
:1004500050E060E070E0F0C10895CF93DF9300D0EA
:100460001F92CDB7DEB780E090E00E942F240E945B
:10047000411069837A838B839C8348EA58E460E067
:1004800070E0CE0101960E9457120E94342480939E
:10049000B2178111F2CF62E370E080E090E00E9439
:1004A000BC128091B317811109C084EB97E10E94BF
:1004B00063248093B3172DDFCADFDFCF8130E9F6E5
:1004C00087EB92E09F938F930E947D340F900F9063
:1004D000D4CF0F9380915C0890915D08892B89F4AB
:1004E00043E060E081E042D690935D0880935C0831
:1004F000009739F000E020E030E0A90160E070E012
:1005000058D60F910895CF93C82F1F928F9383EDE4
:1005100092E09F938F930E947D340F900F900F90E5
:100520000F90C11104C08CE98093B71703C084E613
:100530008093B717CF910895CF93C82F1F928F93B1
:100540008CEE92E09F938F930E947D340F900F90DA
:100550000F900F90C11104C08CE98093B61703C0AF
:1005600084E68093B617CF91089580915C089091AE
:100570005D080895AEDFF9DF7C0186E093E00E941C
:10058000903483E00E942B2A0FEF1FEF980146E181
:1005900050E06EE578E08091BA179091BB170E9409
:1005A0001D0DCEE5D8E0998188811F929F931F92FF
:1005B0008F938CE193E09F938F930E947D34898188
:1005C0000F900F900F900F900F900F90843011F5B7
:1005D0008C818093B9178D818093B81794DF8091B7
:1005E000B917AADF8091B9171F928F938091B8171E
:1005F000282F082E000C330B3F938F938DE493E04C
:100600009F938F930E947D340F900F900F900F90C7
:100610000F900F9000E020E030E0A90160E070E072
:10062000C701C7D5AACFEF92FF920F937093BB1764
:100630006093BA17E12CF12C082F20E030E048E855
:1006400051E068E773E08AEB92E00E94B70F0F91E8
:10065000FF90EF9008950F9301110CC0DC01CB01C6
:1006600082239323A423B523892B8A2B8B2B79F404
:1006700080E010C0DC01CB0182239323A423B523A7
:10068000281739074A075B0721F080E003C081E0A3
:1006900001C081E00F910895CF93DF938FE090E048
:1006A000CCD1EC01009739F0FC011192119211921A
:1006B0001192CF01A8D2CE01DF91CF9108952F9250
:1006C0003F924F925F926F927F928F929F92AF92E2
:1006D000BF92CF92DF92EF92FF920F931F93CF932F
:1006E000DF93EC014A015B01622E702E0E943B10E9
:1006F000288039804A805B80A5019401C201B10144
:10070000AADF8823A1F0662089F1D501C401809574
:100710009095A095B09582219321A421B52188833D
:100720009983AA83BB83C12CD12C760122C0C1142A
:10073000D104E104F104E9F0611004C040E050E0AC
:10074000BA0104C040E050E060E071E071107460F4
:10075000482959296A297B2997018601CE010496E7
:100760000E945313212C312C210103C0C12CD12C08
:1007700076010E947B11CD28CE28CF2859F1811116
:1007800001C00FD30E9427166B017C0191FD1FC091
:100790000FB6F8940F92C880D980EA80FB80072DAD
:1007A000A5019401C701B60156DF882371F06620C8
:1007B00061F080949094A094B0948C209D20AE2001
:1007C000BF2088829982AA82BB820F900FBE160139
:1007D00027015524C201B101DF91CF911F910F91E3
:1007E000FF90EF90DF90CF90BF90AF909F908F9051
:1007F0007F906F905F904F903F902F9008950F9350
:100800001F930FB6F8940F92FC0100811181228191
:100810003381409550956095709540235123622314
:10082000732340835183628373830F900FBEC9018A
:10083000B8011F910F9108954F925F926F927F922E
:10084000AF92BF92CF92DF92EF92FF920F931F93DE
:10085000CF93DF93EC016A017B018C01095F1F4F8D
:100860000E943B10EB85FC8588819981AA81BB8120
:10087000C82AD92AEA2AFB2AC882D982EA82FB82BC
:10088000C12CD12C76013DC0A480B580808191819E
:10089000A281B381AC01BD017727B2FD0EC04880B3
:1008A00059806A807B80442255226622772245281F
:1008B0004628472889F420E012C0488059806A8081
:1008C0007B80442255226622772244155505660511
:1008D000770521F020E003C021E001C021E02223C0
:1008E00071F0B0FF04C0C42AD52AE62AF72A48814D
:1008F00059816A817B817260CF010E948E14EA2D3A
:10090000FB2DE017F10709F0BFCFC094D094E0941D
:10091000F09488819981AA81BB81C822D922EA22D8
:10092000FB22C882D982EA82FB820E947B11688105
:1009300079818A819B81DF91CF911F910F91FF90E7
:10094000EF90DF90CF90BF90AF907F906F905F90CF
:100950004F900895E0E8F8E0A4E8B8E0B183A08300
:1009600013821282E0E0F5E1F0937F08E0937E08C5
:1009700013821282118210828CE79CE013969C9362
:100980008E931297ED93FC9390937B0880937A0853
:1009900090937D0880937C0880E090E890937508A0
:1009A000809374080895CF93DF93EC01A0E8B8E03A
:1009B00001C0DF01ED91FC911197EC17FD07C8F321
:1009C00012968D919C9113979D01280F391FC21784
:1009D000D30749F42A813B81820F931F13969C937E
:1009E0008E931297ED018A819B819E01280F391FFA
:1009F000E217F307C1F420917E0830917F08E217D7
:100A0000F30771F022813381820F931F9B838A83C6
:100A1000ED91FC911197808191819983888305C024
:100A20003983288302C0F983E883CA17DB0711F0F2
:100A3000CD93DC93DF91CF910895EF92FF920F93C6
:100A40001F93CF93DF938C010E943B1080917E080F
:100A500090917F08892B09F47DDF80917408909133
:100A6000750880239123892B09F076C001151105A3
:100A700049F0C80104960817190718F000E010E0C3
:100A800001C08C010115110509F469C080917C0831
:100A900090917D088017910708F464C0C091800888
:100AA000D0918108E0E8F8E002C0FE01EC018A8103
:100AB0009B818017910720F4888199810097A9F77D
:100AC00080917E0890917F08C817D90709F44DC01E
:100AD000E080F18084E0E80EF11C888199819183A7
:100AE00080832A813B81201B310B2930310548F05E
:100AF000CE01800F911FFC01338322831B830A8365
:100B000052DF2A813B8180917C0890917D08821B75
:100B1000930B90937D0880937C0840917A085091C4
:100B20007B088417950720F490937B0880937A08BC
:100B30008091740890917508282B392B3B832A8368
:100B40001982188280917808909179080196909383
:100B50007908809378080BC0E12CF12C08C0E12CB7
:100B6000F12C05C0E12CF12C02C0E12CF12C0E94EB
:100B70007B11E114F10411F40E94371CC701DF91CD
:100B8000CF911F910F91FF90EF9008950F931F93B6
:100B9000CF93DF93009791F1EC0124974A815B8119
:100BA0002091740830917508BA0162237323672B72
:100BB00029F168817981672B09F5209530952423E7
:100BC00035233B832A830E943B108A819B8120919D
:100BD0007C0830917D08820F931F90937D0880934D
:100BE0007C08CE01E0DE809176089091770801962E
:100BF00090937708809376080E947B11DF91CF91C4
:100C00001F910F910895FC010396928381834FEF0A
:100C10005FEFBA014383548365837683908787832C
:100C20009287818710820895FC01138612860895A9
:100C30000F931F93CF93DF93EB01088119812A81D2
:100C40003B810F3F4FEF14072407340721F4FC01C9
:100C5000A185B28511C0DC01139601C0DF01149695
:100C6000ED91FC9115974081518162817381041748
:100C700015072607370790F71496ED91FC91159705
:100C8000FD83EC83D783C683BF83AE831596DC9345
:100C9000CE9314979B878A87FC0120812F5F208346
:100CA000DF91CF911F910F910895CF93DF93FC01B6
:100CB000A285B385C481D581868197819F838E83E8
:100CC000C681D781848195819D838C8311968D9176
:100CD0009C911297E817F90731F486819781129653
:100CE0009C938E931197138612868C9181508C93CE
:100CF0008C91DF91CF910895A89590EC88E10FB683
:100D0000F894A895809360000FBE909360000895BA
:100D1000FC01608331977083319710823197108284
:100D2000319720E8208331971082319710823197D4
:100D30001082779740833197508386970895DCDF40
:100D4000A091C315B091C415CD91CDBFDD91DEBF8B
:100D5000FF91EF91DF91CF91BF91AF919F918F91D3
:100D60007F916F915F914F913F912F911F910F91C3
:100D7000FF90EF90DF90CF90BF90AF909F908F90BB
:100D80007F906F905F904F903F902F901F900F90AB
:100D90000CBE0F900BBE0F900FBE0F90089581E018
:100DA00008950F920FB6F8940F920BB60F920CB6EF
:100DB0000F921F9211242F923F924F925F926F9247
:100DC0007F928F929F92AF92BF92CF92DF92EF92DB
:100DD000FF920F931F932F933F934F935F936F93C4
:100DE0007F938F939F93AF93BF93CF93DF93EF93B3
:100DF000FF93A091C315B091C4150DB60D920EB618
:100E00000D920E94D712A091C315B091C415CD9137
:100E1000CDBFDD91DEBFFF91EF91DF91CF91BF910B
:100E2000AF919F918F917F916F915F914F913F9182
:100E30002F911F910F91FF90EF90DF90CF90BF9077
:100E4000AF909F908F907F906F905F904F903F906A
:100E50002F901F900F900CBE0F900BBE0F900FBEE7
:100E60000F9008950F920FB6F8940F920BB60F9251
:100E70000CB60F921F9211242F923F924F925F92C5
:100E80006F927F928F929F92AF92BF92CF92DF929A
:100E9000EF92FF920F931F932F933F934F935F9384
:100EA0006F937F938F939F93AF93BF93CF93DF9372
:100EB000EF93FF93A091C315B091C4150DB60D9299
:100EC0000EB60D9213BE0E944F1081110E94D712D0
:100ED000A091C315B091C415CD91CDBFDD91DEBFFA
:100EE000FF91EF91DF91CF91BF91AF919F918F9142
:100EF0007F916F915F914F913F912F911F910F9132
:100F0000FF90EF90DF90CF90BF90AF909F908F9029
:100F10007F906F905F904F903F902F901F900F9019
:100F20000CBE0F900BBE0F900FBE0F9008959ADF6E
:100F300018950FB6F8940F92FC01868D811102C0AE
:100F400081E001C080E00F900FBE08950FB6F894C5
:100F50000F92FC01268D878D281302C081E001C00D
:100F600080E00F900FBE08950F931F93CF93DF93F0
:100F7000EC01042F1E8D48A141110CC0888199817C
:100F8000892B09F042C08C819D810E94CC151D8265
:100F90001C8242C0011117C050E08A819B810E94CF
:100FA000D73328A18A819B81820F911D9B838A83DD
:100FB0002C813D818217930750F1888199819B8311
:100FC0008A8380E029C050E08E819F810E94D733C0
:100FD00088A190E09195819591092E813F81280FFC
:100FE000391F3F832E83488159812417350730F4F8
:100FF0002C813D81820F931F9F838E83023049F4A1
:10100000112349F0115080E007C080E005C080E066
:1010100003C080E001C080E01F5F1E8FDF91CF9191
:101020001F910F910895FC0140A14423A9F050E0C5
:1010300026813781240F351F37832683848195814C
:101040002817390720F08081918197838683CB010F
:10105000668177810C94D73308951F93CF93DF93E4
:10106000EC010FB6F8940F921AA10BC08B8988235C
:1010700051F0CE0143960E94DF1381110E94B515F5
:10108000115011169CF38FEF8AA30F900FBE0FB66D
:10109000F8940F9219A10BC08885882351F0CE01D6
:1010A00008960E94DF1381110E94B5151150111688
:1010B0009CF38FEF89A30F900FBEDF91CF911F910B
:1010C0000895CF93DF93EC010FB6F8940F92E88167
:1010D000F9818F8D28A190E030E0829FA001839F4D
:1010E000500D929F500D11244E0F5F1F5D834C8356
:1010F0001E8EFB83EA830197289FA001299F500D34
:10110000389F500D1124CF01840F951F9F838E832C
:101110008FEF89A38AA361110BC08885882371F0A2
:10112000CE0108960E94DF13882341F03ADE06C004
:10113000CE01089668DDCE01439665DD0F900FBEA7
:1011400081E0DF91CF9108950F931F93F801611112
:1011500003C01183008302C051834083878F60A343
:1011600061E0CF01AEDF1F910F910895DF92EF9202
:10117000FF920F931F93CF93DF93F82EE62ED42E7A
:10118000869FC0011124839658DCEC01009741F042
:101190008C012D2DAC014D5D5F4F6E2D8F2DD4DF59
:1011A000CE01DF91CF911F910F91FF90EF90DF90D3
:1011B0000895CF92DF92EF92FF920F931F93CF93F8
:1011C000DF93CDB7DEB729970FB6F894DEBF0FBE19
:1011D000CDBF7C016B012E833F834887598710E088
:1011E0000FB6F8940F92F701968D878D981710F02F
:1011F0000230B1F4402FB601C701B6DEF701938982
:10120000992341F0C70143960E94DF13882321F000
:10121000C8DD02C08111C5DD0F900FBE81E04CC05A
:101220008E819F81A885B985892B8A2B8B2B21F4F0
:101230000F900FBE80E040C0111105C0CE01019695
:101240000E943E1511E00F900FBE15D70FB6F8940F
:101250000F92F70181A18F3F09F411A2F70182A13A
:101260008F3F09F412A20F900FBEBE016A5F7F4F3D
:10127000CE0101960E944F15811119C0C70166DE8B
:10128000882381F04E815F8168857985C701089642
:101290000E943C13C701E1DE0E947B118111A0CFA7
:1012A00080DD9ECFC701D9DE0E947B1199CFC70197
:1012B000D4DE0E947B1180E029960FB6F894DEBF41
:1012C0000FBECDBFDF91CF911F910F91FF90EF9097
:1012D000DF90CF9008950F93009769F0FC0115827D
:1012E000148211821082168200E020E030E0A90111
:1012F00060E070E05EDF0F910895CF93DF93482F99
:1013000060E081E033DFEC01E6DFCE01DF91CF91D9
:101310000895EF92FF920F931F93CF93DF938A016B
:10132000FC01568D378D531710F02230F9F4422FFF
:101330007801EC011AA18E8DCE0116DE1F3F81F4DB
:101340008B898823A9F0CE0143960E94DF1388235E
:1013500089F0E114F10481F081E0F70180830DC090
:10136000FF24F394F10EFAA281E007C080E005C0EB
:1013700081E003C081E001C081E0DF91CF911F9146
:101380000F91FF90EF900895CF92DF92EF92FF922E
:101390000F931F93CF93DF93CDB7DEB729970FB687
:1013A000F894DEBF0FBECDBF8C016B012E833F834F
:1013B00048875987E12C0FB6F8940F92F801F68C04
:1013C000FF2099F0B601C8012EDEFA94F801F68EDE
:1013D0008085882331F0C80108960E94DF138111AF
:1013E000E0DC0F900FBE81E04FC08E819F81A88509
:1013F000B985892B8A2B8B2B21F40F900FBE80E0AF
:1014000043C0E11006C0CE0101960E943E15EE24B5
:10141000E3940F900FBE2FD60FB6F8940F92F801F9
:1014200081A18F3F09F411A2F80182A18F3F09F435
:1014300012A20F900FBEBE016A5F7F4FCE010196D0
:101440000E944F15811117C0C80173DD882379F000
:101450004E815F8168857985C80143960E943C135F
:10146000C801FBDD48D78111A6CF9BDCA4CFC80102
:10147000F4DD41D7A0CFC801F0DD3DD7C80159DD6B
:10148000882309F498CF80E029960FB6F894DEBF40
:101490000FBECDBFDF91CF911F910F91FF90EF90C5
:1014A000DF90CF900895CF93DF93EC010FB6F894BF
:1014B0000F9289A18F3F09F419A28AA18F3F09F4E5
:1014C0001AA20F900FBE8E8D811104C0CE014396DB
:1014D0000E949D13CE01C1DDDF91CF910895FC01E3
:1014E0004481558122813381240F351F8081918170
:1014F000B901681B790BCB016417750710F0841BC9
:10150000950B08950F93FC018FE0DF011D928A95E2
:10151000E9F7758764875583448337832683068775
:101520000F910895AF92BF92CF92DF92EF92FF9208
:101530000F931F93CF93DF936C015B017A01FC0142
:10154000C281D381048115810C1B1D0B40175107EB
:1015500008F48A01F60184859585A801B5018C0FF0
:101560009D1F0E94D7330E151F0558F4A701401B7D
:10157000510BB501600F711FF601848595850E949E
:10158000D733CE018E0D9F1DF60124813581821740
:10159000930710F0821B930BF60193838283C7019C
:1015A000DF91CF911F910F91FF90EF90DF90CF903F
:1015B000BF90AF900895CF92DF92EF92FF920F937A
:1015C0001F93CF93DF931F921F92CDB7DEB77C019D
:1015D0006B015A83498321153105C1F0FC018685D1
:1015E00080FD08C04217530708F49A013A83298303
:1015F00081E00FC02017310758F042E050E0BE01F3
:101600006F5F7F4FC7018EDF81E003C080E001C0C4
:1016100080E0882331F049815A81B601C70182DF19
:1016200002C080E090E00F900F90DF91CF911F916A
:101630000F91FF90EF90DF90CF900895AF92BF92FF
:10164000CF92DF92EF92FF920F931F93CF93DF938E
:101650007C015B01E9014217530708F4EA01209776
:1016600081F1F7010081118184819581801B910BAB
:101670006E018C179D0708F46C01F7016485758570
:10168000600F711FA601C5010E94D733CC16DD067D
:1016900058F4AE014C195D09F70164857585C501E3
:1016A0008C0D9D1D0E94D7330C0F1D1FF7018481E7
:1016B00095810817190710F0081B190BF701118302
:1016C0000083CE01DF91CF911F910F91FF90EF909A
:1016D000DF90CF90BF90AF9008956F927F928F92DE
:1016E0009F92AF92BF92CF92DF92EF92FF920F93B1
:1016F0001F93CF93DF931F921F92CDB7DEB76C017C
:101700004B015A01790101151105B1F0FC0160800E
:101710007180A801BE016F5F7F4F90DF89819A8140
:10172000E01AF10AA816B90630F4F6017182608257
:10173000A12CB12C01C05C019701A501B401C60127
:101740007DDF0F900F90DF91CF911F910F91FF9050
:10175000EF90DF90CF90BF90AF909F908F907F9051
:101760006F900895CF92DF92EF92FF920F93CF93F5
:10177000DF93EC016B01413011F401E001C000E0A6
:10178000C114D10419F4CC24C394D12CCE014096B9
:10179000C817D90720F4219650D97C0102C0E12C4A
:1017A000F12CE114F10439F09601AE01B701615F4B
:1017B0007F4FC701A7DEC701DF91CF910F91FF9047
:1017C000EF90DF90CF9008950F930FB6F8940F929B
:1017D000FC0120853185232B71F422853385232B51
:1017E00061F426813781448155816485758506853C
:1017F00089DE81E003C080E001C080E00F900FBE71
:101800000F910895FC012481358180819181820F9F
:10181000931F42815381841B950B01978217930775
:1018200010F0821B930B08952F923F924F925F927C
:101830006F927F928F929F92AF92BF92CF92DF92E0
:10184000EF92FF920F931F93CF93DF93CDB7DEB745
:101850002B970FB6F894DEBF0FBECDBF4C017B8730
:101860006A871A010E831F8328873987FC018481C8
:1018700095810197268520FF0CC02A01F2E04F0ECA
:10188000511C8415950558F41E821F8218861986EE
:1018900006C08417950710F02A0101C02C018E8123
:1018A0009F81A885B985892B8A2B8B2B09F438C099
:1018B000CE0101960E9428150FB6F8940F92C4012C
:1018C000A1DF3C018415950540F560E080E090E0E3
:1018D0000E9411190E94B915F401938782870F9015
:1018E0000FBEAE80BF80C884D984E12CF12C00E00B
:1018F00010E0980140E050E0BA0180E00E945116EB
:10190000F40113861286BE016A5F7F4FCE010196F5
:101910000E944F15882381F205C00F900FBE02C0B0
:10192000612C712C6114710419F4C4016BDF3C014A
:1019300082019301A1016A857B85C4013CDE6C01B3
:10194000892BE9F0C401CBDDF401268137818217B0
:101950009307A8F090D3F40180859185892B71F0CD
:1019600080859185E12CF12C00E020E030E0A90198
:1019700060E00E94F816F40111861086BCD4C601FE
:101980002B960FB6F894DEBF0FBECDBFDF91CF917F
:101990001F910F91FF90EF90DF90CF90BF90AF908D
:1019A0009F908F907F906F905F904F903F902F907F
:1019B0000895AF92BF92CF92DF92EF92FF920F9372
:1019C0001F93CF93DF93EC017B015A0169018E8550
:1019D00080FF04C08A010E5F1F4F01C08A01CE0143
:1019E00011DF9C01A501B701CE01E5DD5C01892B6A
:1019F000C1F0CE0174DD2E813F818217930788F0FC
:101A000088859985892B69F088859985E12CF12C49
:101A100000E020E030E0A90160E00E94EF171986A5
:101A20001886C501DF91CF911F910F91FF90EF9024
:101A3000DF90CF90BF90AF9008954F925F926F92DA
:101A40007F928F929F92AF92BF92CF92DF92EF924E
:101A5000FF920F931F93CF93DF93EC012B013A0179
:101A6000580169018E8580FF05C06894882481F83B
:101A7000912C02C0812C912CA114B104C104D10479
:101A800041F10FB6F8940F92CE0129DD7C01881642
:101A9000990648F060E080E090E00E9411190E94F1
:101AA000B915998788870F900FBE8E149F04A0F0F8
:101AB000E12CF12C00E010E0980140E050E0BA0188
:101AC00080E00E94511619861886CE0108DD7C013F
:101AD00003C0CE0104DD7C018E149F04E8F4840170
:101AE0009701A301B201CE01F8DD6C01892BB1F0A1
:101AF000C2D28A859B85892B69F08A859B85E12CDA
:101B0000F12C00E020E030E0A90160E00E94F8162E
:101B10001B861A86F0D302C0C12CD12CC601DF91DE
:101B2000CF911F910F91FF90EF90DF90CF90BF90DA
:101B3000AF909F908F907F906F905F904F9008959F
:101B4000E0913D15F0913E15808181110CC08FEF21
:101B50009FEFDC018093071590930815A09309155A
:101B6000B0930A150895E0913D15F0913E15078058
:101B7000F085E02D80819181A281B381809307154A
:101B800090930815A0930915B0930A150895CF9363
:101B9000DF93EC018B8D9C8D0E94C605CE010E94C7
:101BA000C605DF91CF9108954F925F926F927F9219
:101BB0008F929F92AF92BF92CF92DF92EF92FF925D
:101BC0000F93CF93DF932C015B014A013901E601AA
:101BD00065EA70E08B8D9C8D0E94E0338B8D9C8D2F
:101BE00021E0821A9108880E991EA114B10489F48B
:101BF00015C0822F90E0F501E80FF91F3081DE015A
:101C0000A80FB91F5D963C938081882329F02F5F30
:101C100001C020E0203168F31CA601C01D8E0A30EF
:101C200008F009E00A8F0DA71EA6CE0102960E94B9
:101C30001406CE010E960E941406DB87CA878AE03E
:101C400090E0A0E0B0E0801B9109A109B1098E8766
:101C50009F87A88BB98BDF8BCE8B84E0FE01BF966C
:101C6000DF011D928A95E9F71BAAA301B201C40105
:101C70004FD899838883E114F10419F0F701D183D7
:101C8000C083DF91CF910F91FF90EF90DF90CF90C5
:101C9000BF90AF909F908F907F906F905F904F908C
:101CA0000895CF93C0E009C02BE0C29FC00111246A
:101CB0008B5A9A4E0E940306CF5FCA30A8F38AE47B
:101CC00095E10E9403068FE395E10E94030680E3FD
:101CD00095E10E94030685E295E10E94030689E1F1
:101CE00095E10E9403068AE495E190933E15809366
:101CF0003D158FE395E190933C1580933B15CF9173
:101D00000895CF93DF93EC010FB6F8940F92809172
:101D100018158F5F809318158091C3159091C41585
:101D2000892B51F4D093C415C093C3158091181515
:101D3000813091F4B6DF10C08091121581110CC072
:101D4000E091C315F091C415928D8A8D891720F00A
:101D5000D093C415C093C31580910B158F5F8093EA
:101D60000B15EA8D809113158E1710F4E09313155F
:101D70008BE08E9FF0011124EB5AFA4E0180F28124
:101D8000E02DFF83EE832681378139872887A6815E
:101D9000B7819E012E5F3F4F15963C932E9314976B
:101DA00037832683EA8D8E9FF0011124EB5AFA4E79
:101DB000FD87EC8780818F5F80830F900FBE8091BD
:101DC0001215882351F0E091C315F091C415928D3E
:101DD0008A8D981710F40E94D106DF91CF91089553
:101DE000CF93DF931BC00FB6F8940F92E0912C15A0
:101DF000F0912D15C085D185CE0102960E94550621
:101E00008091181581508093181580912415815068
:101E1000809324150F900FBECE01B9DE809124155A
:101E20008111E1CFDF91CF9108958F929F92AF9270
:101E3000BF92CF92DF92EF92FF92CF93DF936B012D
:101E40007C01C42F8090141590901515A090161544
:101E5000B09017158091C3159091C41502960E94F9
:101E600055068FEFC816D806E806F806B1F5CC235C
:101E7000A1F1E9E1F5E1A181B281C091C315D09151
:101E8000C415BF83AE83C091C315D091C4151696F7
:101E90008D919C911797998788871696CD91DC91A3
:101EA00017978091C3159091C41502969D838C83DA
:101EB0008091C3159091C415029617969C938E93AA
:101EC0001697A091C315B091C4151D96FC93EE937F
:101ED0001C9780818F5F80833FC0C80CD91CEA1C8F
:101EE000FB1CE091C315F091C415C282D382E48239
:101EF000F582C814D904EA04FB0468F46091C315A0
:101F00007091C41580913B1590913C156E5F7F4F89
:101F10000E94180621C06091C3157091C41580916C
:101F20003D1590913E156E5F7F4F0E94180680917F
:101F3000071590910815A0910915B0910A15C816BA
:101F4000D906EA06FB0640F4C0920715D0920815A0
:101F5000E0920915F0920A15DF91CF91FF90EF9072
:101F6000DF90CF90BF90AF909F908F9008952F9269
:101F70003F924F925F926F927F928F929F92AF9219
:101F8000BF92CF92DF92EF92FF920F93CF93DF93A6
:101F90003C011B014A012901CA010E941D056C0177
:101FA000892B71F084E390E00E941D05EC01892BE0
:101FB00019F0DC8ECB8E06C0C6010E94C60502C099
:101FC000C0E0D0E0209761F0A12CB12C6E0192010D
:101FD000A401B101C301E8DDCE0193DE81E001C0BF
:101FE0008FEFDF91CF910F91FF90EF90DF90CF9027
:101FF000BF90AF909F908F907F906F905F904F9029
:102000003F902F900895EF92FF920F930F2EF5E0DF
:10201000EF2EF5E1FF2EF02D00E020E030E040EC67
:1020200050E068E873E08EE491E0A1DF813011F4C4
:102030000E94B5198130C9F4F8948FEF9FEFDC014D
:102040008093071590930815A0930915B0930A156E
:1020500081E08093121510921415109215151092AC
:102060001615109217150E949F06809106020F9177
:10207000FF90EF900895809104158F5F8093041571
:1020800008950FB6F8940F9260911415709115157C
:1020900080911615909117150F900FBE0895CF924D
:1020A000DF92EF92FF92CF93DF938091041581111D
:1020B00005C1C0901415D0901515E0901615F0903C
:1020C00017158FEFC81AD80AE80AF80AC092141533
:1020D000D0921515E0921615F0921715C114D1047F
:1020E000E104F104B1F480913D1590913E152091E9
:1020F0003B1530913C1530933E1520933D15909340
:102100003C1580933B1580910C158F5F80930C15C7
:1021100017DD8091071590910815A0910915B091D0
:102120000A15C816D906EA06FB0620F480E0B2C0FC
:1021300081E001C080E0E0913D15F0913E15908175
:1021400091110CC04FEF5FEFBA0140930715509308
:1021500008156093091570930A159CC0E0913D1510
:10216000F0913E150780F085E02D0084F185E02D8B
:102170004281538164817581C416D506E606F7064F
:1021800048F4409307155093081560930915709310
:102190000A1580C0A485B585C681D7812085318583
:1021A0003F832E83C085D185268137813D832C8353
:1021B00011964D915C9112979F012E5F3F4F4217F0
:1021C000530731F44085518512965C934E931197D5
:1021D000158614869C9191509C93A08DB18D10977B
:1021E00009F1C289D389448955895F834E83C489A3
:1021F000D589428953895D834C8311966D917C9179
:102200001297AF01425F5F4F6417750731F444893D
:10221000558912965C934E931197118E108E9C9156
:1022200091509C93A28D909113159A1710F4A0933E
:1022300013159BE09A9FD0011124AB5ABA4E119608
:102240000D90BC91A02DB783A68316964D915C91FD
:102250001797518740871696CD91DC9117973D834C
:102260002C8317963C932E931697A28D9A9FD0019C
:102270001124AB5ABA4EB587A4879C919F5F9C935B
:10228000228DE091C315F091C415928D291708F0A5
:102290004FCF51CFE091C315F091C415E28D9BE073
:1022A000E99FF0011124EB5AFA4E9081923008F028
:1022B00081E090910D15911116C016C080910E15F8
:1022C00090910F15A0911015B09111150196A11DB7
:1022D000B11D80930E1590930F15A0931015B09318
:1022E000111580E001C081E0DF91CF91FF90EF9068
:1022F000DF90CF900895CF92DF92EF92FF92CF932D
:10230000DF930FB6F8940F9280910415815080935B
:102310000415809104158111BEC08091181581119A
:1023200088C0BCC0E0913715F09138150084F18564
:10233000E02DA08DB18DC289D389848995899F8331
:102340008E83C489D589828993899D838C831196D4
:102350002D913C911297CF010E962817390731F431
:102360008489958912969C938E931197118E108E65
:102370008C9181508C93A485B585C681D781808549
:1023800091859F838E83C085D185868197819D832A
:102390008C8311968D919C9112979F012E5F3F4FD8
:1023A0008217930731F48085918512969C938E93C2
:1023B0001197158614868C9181508C93A28D8091F3
:1023C00013158A1710F4A09313158BE08A9FD00180
:1023D0001124AB5ABA4E11960D90BC91A02DB78323
:1023E000A68316964D915C91179751874087169654
:1023F000CD91DC9117973D832C8317963C932E93B8
:102400001697A28D8A9FD0011124AB5ABA4EB58778
:10241000A4878C918F5F8C93928DA091C315B091FE
:10242000C4155A968C91981730F081E080930D1561
:1024300002C0E0E0F0E080913015811173CFEF2B06
:1024400009F07EDBC0900E15D0900F15E0901015AE
:10245000F0901115C114D104E104F104A1F01FDEC4
:10246000882319F081E080930D1581E0C81AD10806
:10247000E108F108A1F710920E1510920F151092B5
:1024800010151092111580910D15882331F00E94BE
:10249000D10681E003C080E001C080E00F900FBE54
:1024A000DF91CF91FF90EF90DF90CF9008958F92C2
:1024B0009F92AF92BF92CF92DF92EF92FF921F93C3
:1024C000CF93DF93EC016A017B01D5DD8090141579
:1024D00090901515A0901615B090171588819981C8
:1024E000AA81BB81AC01BD014C0D5D1D6E1D7F1D20
:1024F00088169906AA06BB0660F4481759076A07AA
:102500007B0798F484169506A606B70680F010E0BF
:1025100013C0481759076A077B0758F084169506B9
:10252000A606B70640F010E007C010E005C011E0B5
:1025300003C011E001C011E0488359836A837B83A3
:10254000112341F0CB01BA01681979098A099B0965
:1025500040E06BDCD0DE811102C00E94D106812FE9
:10256000DF91CF911F91FF90EF90DF90CF90BF90C0
:10257000AF909F908F900895CF92DF92EF92FF924D
:102580006B017C01672B682B692B39F074DD40E00F
:10259000C701B6014ADCAFDE01C080E0811102C094
:1025A0000E94D106FF90EF90DF90CF900895809128
:1025B0000415882321F081E080930D150895109271
:1025C0000D15E091C315F091C41520813181E09182
:1025D000C315F091C415838D948D8217930760F015
:1025E0006091C3157091C415635E7F4F8091C315D0
:1025F0009091C4150E94431C8091131501C0815015
:10260000282F30E09BE0929FF001939FF00D112462
:10261000EB5AFA4E9081992391F39BE0929FA0018F
:10262000939F500D1124DF010180F281E02D048081
:10263000F581E02D1296FC93EE931197485A5A4E6D
:10264000E417F50729F444815581FD015283418344
:102650009BE0929FF001939FF00D1124EB5AFA4EEC
:102660000180F281E02D208531853093C4152093BF
:10267000C315809313150895CF92DF92EF92FF92C6
:102680006A017B016091C3157091C415625F7F4F31
:102690000E94180641E0C701B601C7DBFF90EF902A
:1026A000DF90CF9008950F931F93CF93DF93FC019A
:1026B000A091C315B091C41570681E964D935D939B
:1026C0006D937C935197A181B281C091C315D09134
:1026D000C415BB8BAA8BC091C315D091C415169697
:1026E0008D919C9117979D8B8C8B1696CD91DC913B
:1026F00017978091C3159091C4150E969D838C8376
:102700008091C3159091C4150E9617969C938E9345
:102710001697A091C315B091C4155996FC93EE93EA
:10272000589780818F5F808341E0C901B8017DDBCC
:10273000DF91CF911F910F910895CF93DF93FC010B
:10274000CB01BA01A181B281C091C315D091C4154A
:10275000BB8BAA8BC091C315D091C41516964D9111
:102760005C9117975D8B4C8B1696CD91DC911797EA
:102770004091C3155091C415425F5F4F5D834C83F8
:102780004091C3155091C415425F5F4F17965C93FB
:102790004E931697A091C315B091C4155996FC930A
:1027A000EE93589730813F5F3083222319F06FEF0B
:1027B0007FEFCB01422F39DBDF91CF910895CF938B
:1027C000DF93DC011796ED91FC9118970084F18559
:1027D000E02DA08DB18DC289D389848995899F838D
:1027E0008E83C489D589828993899D838C83119630
:1027F0008D919C9112979F01225F3F4F8217930703
:1028000031F48489958912969C938E931197118E39
:10281000108E8C9181508C9380910415811152C03F
:10282000A485B585C681D781808591859F838E8358
:10283000C085D185868197819D838C8311968D91EA
:102840009C9112979F012E5F3F4F8217930731F49F
:102850008085918512969C938E9311971586148688
:102860008C9181508C93A28D809113158A1710F44E
:10287000A09313158BE08A9FD0011124AB5ABA4E56
:1028800011960D90BC91A02DB783A68316964D91FD
:102890005C911797518740871696CD91DC911797D9
:1028A0003D832C8317963C932E931697A28D8A9F77
:1028B000D0011124AB5ABA4EB587A4878C918F5F93
:1028C0008C931CC040E355E1DA011196CD91DC9167
:1028D0001297D38BC28B8E819F81958B848B8E8137
:1028E0009F81DC0115963C932E9314973F832E8392
:1028F000518F408FDA018C918F5F8C93928DE09194
:10290000C315F091C415828D891720F481E080935E
:102910000D1501C080E0DF91CF910895CF93DF9333
:10292000DC0170684D935D936D937C9313971896BB
:10293000ED91FC9119971A964D915C911B97149605
:102940008D919C91159716962D913C911797EC01BE
:102950003F832E8316968D919C91179714962D91F7
:102960003C911597EC013D832C83EA0189819A8182
:10297000A817B90731F416968D919C9117979A83F1
:1029800089831B961C921E921A97DA018C918150B2
:102990008C93A485B585C681D781808591859F83D9
:1029A0008E83C085D185868197819D838C83119686
:1029B0008D919C9112979F012E5F3F4F8217930735
:1029C00031F48085918512969C938E93119715868C
:1029D00014868C9181508C93A28D809113158A1747
:1029E00010F4A09313158BE08A9FD0011124AB5AE9
:1029F000BA4E11960D90BC91A02DB783A683169662
:102A00004D915C911797518740871696CD91DC9137
:102A100017973D832C8317963C932E931697A28D80
:102A20008A9FD0011124AB5ABA4EB587A4878C91E6
:102A30008F5F8C93928DE091C315F091C415828DB8
:102A4000891718F481E080930D15DF91CF910895D7
:102A50000FB6F8940F9220910C15FC012083409141
:102A60001415509115156091161570911715418325
:102A70005283638374830F900FBE089520910C15C9
:102A8000FC01208340911415509115156091161585
:102A900070911715418352836383748308958F92D5
:102AA0009F92AF92BF92CF92DF92EF92FF920F93DD
:102AB0001F93CF93DF93FB010FB6F8940F92C09052
:102AC0001415D0901515E0901615F0901715DC012F
:102AD00011960D911D912D913C911497460157012E
:102AE000801A910AA20AB30A4081518162817381DE
:102AF0004F3FBFEF5B076B077B0739F1EC01B881F4
:102B0000A0910C15BA1759F0C016D106E206F306CB
:102B100030F0108211821282138281E017C0841675
:102B20009506A606B70658F4481959096A097B099B
:102B30004083518362837383A1DF80E007C01082EA
:102B400011821282138281E001C080E00F900FBEDB
:102B5000DF91CF911F910F91FF90EF90DF90CF9079
:102B6000BF90AF909F908F90089581E080930D1556
:102B700008958091C3159091C41508958091121500
:102B8000882331F080910415811104C082E00895FA
:102B900081E0089580E008950F931F93CF93DF9312
:102BA000FC01892B09F449C086A5815086A7228D96
:102BB00095A5291709F443C0811143C0EF018F0186
:102BC0000E5F1F4FC8010E945506EDA5EA8F8AE0EF
:102BD00090E0A0E0B0E08E1B9109A109B1098E87B9
:102BE0009F87A88BB98B809113158E1710F4E093F3
:102BF00013158BE08E9FF0011124EB5AFA4E0180E1
:102C0000F281E02DFF83EE83268137813987288783
:102C1000A681B78115961C930E931497178306838C
:102C2000EA8D8E9FF0011124EB5AFA4EFD87EC8756
:102C300080818F5F808381E005C080E003C080E0F9
:102C400001C080E0DF91CF911F910F910895CF9245
:102C5000DF92EF92FF92E091C315F091C415668563
:102C6000778580899189E091C315F091C415A09171
:102C7000C315B091C4155A962C910F2EFAE0CF2EA1
:102C8000D12CE12CF12CF02DC21AD108E108F10869
:102C9000C686D786E08AF18AFF90EF90DF90CF90CA
:102CA00008954F925F926F927F92AF92BF92CF92B0
:102CB000DF92EF92FF920F931F93CF93DF93280140
:102CC00039010FB6F8940F92E091C315F091C41535
:102CD000C82FD0E0EC0FFD1F83A9823071F1E09185
:102CE000C315F091C415CE01880F991F880F991F45
:102CF000E80FF91F87A590A9A1A9B2A94095509501
:102D000060957095482359236A237B2347A750ABCE
:102D100061AB72ABE091C315F091C415EC0FFD1FD0
:102D200081E083ABA114B104C104D10431F041E0CE
:102D3000C601B5017AD80E94D1060F900FBE0FB61A
:102D4000F8940F92E114F104A1F0E091C315F09111
:102D5000C415CE01880F991F880F991FE80FF91F1E
:102D600087A590A9A1A9B2A9F70180839183A28325
:102D7000B383E091C315F091C415EC0FFD1F83A937
:102D80008230E9F4E091C315F091C415CE01880FAB
:102D9000991F880F991FE80FF91F87A590A9A1A96E
:102DA000B2A94094509460947094482259226A22A7
:102DB0007B2247A650AA61AA72AA81E001C080E0E6
:102DC0002091C3153091C415C20FD31F1BAA0F90B9
:102DD0000FBEDF91CF911F910F91FF90EF90DF9089
:102DE000CF90BF90AF907F906F905F904F9008957D
:102DF0008F929F92AF92BF92EF92FF920F93CF93D9
:102E0000DF93DC010FB6F8940F92E114F10489F01E
:102E1000E62FF0E0EE0FFF1FEE0FFF1FE80FF91F88
:102E200087A490A8A1A8B2A8F70180829182A2826B
:102E3000B38270E0FD01E60FF71F83A992E093AB28
:102E4000023001F118F4013031F04DC0033079F156
:102E50000430D1F148C0660F771F660F771FFD0160
:102E6000E60FF71F87A490A8A1A8B2A8BA01A901EC
:102E7000482959296A297B2947A750AB61AB72AB16
:102E800001E034C0660F771F660F771FFD01E60F64
:102E9000F71F47A550A961A972A94F5F5F4F6F4FF8
:102EA0007F4F47A750AB61AB72AB01E01FC0660F0D
:102EB000771F660F771FFD01E60FF71F27A730ABBF
:102EC00041AB52AB01E012C0823079F0660F771F40
:102ED000660F771FFD01E60FF71F27A730AB41AB49
:102EE00052AB01E003C001E001C000E0813009F015
:102EF00069C01C96ED91FC911D971696CD91DC91C1
:102F0000179718968D919C9119979F838E83189689
:102F1000CD91DC91199716968D919C9117979D8371
:102F20008C83818192819D012E5F3F4F8217930791
:102F300031F418968D919C911997928381831D96F7
:102F40001C921E921C978081815080835A96EC912E
:102F50005A97809113158E1710F4E09313158BE098
:102F60008E9FF0011124EB5AFA4E0180F281E02D80
:102F70001796FC93EE9316974681578119965C93AA
:102F80004E931897C681D7813D832C833783268340
:102F90005A96EC915A978E9FF0011124EB5AFA4EF3
:102FA0001D96FC93EE931C9780818F5F80835A96C9
:102FB0009C91E091C315F091C415828D891710F48E
:102FC0000E94D1060F900FBE802FDF91CF910F91FD
:102FD000FF90EF90BF90AF909F908F9008958F9249
:102FE0009F92AF92BF92CF92DF92EF92FF920F9398
:102FF000CF93DF93DC01E114F10489F0E62FF0E0D8
:10300000EE0FFF1FEE0FFF1FE80FF91F87A490A818
:10301000A1A8B2A8F70180829182A282B38270E057
:10302000FD01E60FF71F93A982E083AB023001F1A7
:1030300018F4013031F04DC0033079F10430D1F192
:1030400048C0660F771F660F771FFD01E60FF71F59
:1030500087A490A8A1A8B2A8BA01A9014829592912
:103060006A297B2947A750AB61AB72AB81E034C0C2
:10307000660F771F660F771FFD01E60FF71F47A545
:1030800050A961A972A94F5F5F4F6F4F7F4F47A74C
:1030900050AB61AB72AB81E01FC0660F771F660F4C
:1030A000771FFD01E60FF71F27A730AB41AB52ABEF
:1030B00081E012C0923079F0660F771F660F771F9C
:1030C000FD01E60FF71F27A730AB41AB52AB81E004
:1030D00003C081E001C080E0913009F096C090917A
:1030E000041591115FC01C96ED91FC911D971696E9
:1030F000CD91DC91179718962D913C9119973F83AC
:103100002E831896CD91DC91199716962D913C91AE
:1031100017973D832C83418152819D012E5F3F4F44
:103120004217530731F418964D915C9119975283C9
:1031300041831D961C921E921C9790819150908302
:103140005A96EC915A97909113159E1710F4E093AC
:1031500013159BE09E9FF0011124EB5AFA4E01805B
:10316000F281E02D1796FC93EE93169746815781D6
:1031700019965C934E931897C681D7813D832C8313
:10318000378326835A96EC915A979E9FF00111241B
:10319000EB5AFA4E1D96FC93EE931C9790819F5F1D
:1031A000908321C060E375E1FB01C181D281539618
:1031B000DC93CE9352972E813F8155963C932E936C
:1031C00054974E815F819D01225F3F4FFA01358305
:1031D00024833F832E8359967C936E935897FB01EB
:1031E00090819F5F90835A962C91E091C315F09146
:1031F000C415928D921748F4C114D10419F091E0CE
:10320000F601908391E090930D15DF91CF910F918E
:10321000FF90EF90DF90CF90BF90AF909F908F90F6
:103220000895009721F48091C3159091C4150FB6AD
:10323000F8940F9270E0FC01E60FF71F23A92230EB
:1032400031F4FC01E60FF71F13AA81E001C080E012
:103250000F900FBE0895DC01E091CF15F091D015CD
:10326000808191E0811190E09C93911108C00780CA
:10327000F085E02D6081718182819381089560E005
:1032800070E0CB010895CF92DF92EF92FF920F93FF
:103290001F93FC01428353836483758393878287E2
:1032A0000417150726073707C0F00C191D092E094A
:1032B0003F0986859785A089B189081719072A07CC
:1032C0003B0700F5BF016E5F7F4F8091CD15909158
:1032D000CE150E94180680E018C00C151D052E059D
:1032E0003F0528F44C155D056E057F0568F4BF01A8
:1032F0006E5F7F4F8091CF159091D0150E94180678
:1033000080E003C081E001C081E01F910F91FF9038
:10331000EF90DF90CF9008950FB6F8940F928091C0
:10332000CB159091CC15892BE9F48CED95E10E9499
:10333000030681ED95E10E9403068CED95E19093E3
:10334000D0158093CF1581ED95E19093CE158093A4
:10335000CD1540E067E08AE00E94B6089093CC1556
:103360008093CB150F900FBE0895EF92FF920F93AD
:10337000D3DF8091CB159091CC15892B91F00F2E36
:10338000F9ECEF2EF5E1FF2EF02D03E020E030E028
:1033900040EC50E06DE873E088E591E00E94B70FE3
:1033A00001C080E00F91FF90EF9008958F929F925F
:1033B000AF92BF92CF92DF92EF92FF920F931F9343
:1033C000CF93DF93CDB7DEB727970FB6F894DEBF64
:1033D0000FBECDBFE091CB15F091CC15309781F1A8
:1033E00069832A833B834C835D839F838E8366300E
:1033F000F4F4C4DB823069F400E0A7019601BE0159
:103400006F5F7F4F8091CB159091CC150E94D908AA
:1034100018C000E020E030E0A901BE016F5F7F4FDF
:103420008091CB159091CC150E94D9080AC020E05C
:10343000A801BE016F5F7F4FCF010E94890901C0C3
:1034400080E027960FB6F894DEBF0FBECDBFDF91A8
:10345000CF911F910F91FF90EF90DF90CF90BF9091
:10346000AF909F908F9008958F929F92AF92BF924E
:10347000CF92DF92EF92FF920F931F93CF93DF9340
:103480003BC00780F085E02D80809180A280B380D2
:10349000C085D1858E010E5F1F4FC8010E94550661
:1034A000EC89FD89CE0119958E8982FF25C08E8514
:1034B0009F85A889B989880D991DAA1DBB1D8816ED
:1034C0009906AA06BB0670F48A839B83AC83BD83EE
:1034D000DB87CA87B8018091CF159091D0150E94E3
:1034E00018060AC0C12CD12C760100E010E0A5011D
:1034F000940160E0CE015ADFE091CF15F091D01534
:1035000080818111BECF8091CD159091CE15909381
:10351000D0158093CF15F093CE15E093CD15DF91A4
:10352000CF911F910F91FF90EF90DF90CF90BF90C0
:10353000AF909F908F900895CF92DF92EF92FF927D
:10354000CF93DF93EC010E9441106B017C018091CD
:10355000C5159091C615A091C715B091C815C8168C
:10356000D906EA06FB0620F47FDF81E0888301C0EC
:103570001882C092C515D092C615E092C715F09278
:10358000C815C701B601DF91CF91FF90EF90DF9092
:10359000CF9008954F925F926F927F928F929F92F9
:1035A000AF92BF92CF92DF92EF92FF920F931F9351
:1035B000CF93DF934B015C0129013A01E091CF15D4
:1035C000F091D0150780F085E02DC085D185CE0122
:1035D00002960E9455068E8982FF1BC04E855F852C
:1035E00068897989480D591D6A1D7B1D7501640123
:1035F00093018201CE0147DE882369F0C12CD12CD2
:10360000760100E010E0A501940160E0CE01CEDE7D
:1036100002C08E7F8E8BEC89FD89CE011995DF91DA
:10362000CF911F910F91FF90EF90DF90CF90BF90BF
:10363000AF909F908F907F906F905F904F90089584
:103640008F929F92AF92BF92CF92DF92EF92FF92B2
:103650001F93CF93DF931F92CDB7DEB76B017C0131
:10366000142F0E943B10CE01019666DF4B015C01D6
:10367000898181112DC011110DC08C149D04AE04DF
:10368000BF0440F00E947B11A5019401C701B6015F
:1036900081DF20C0112341F0E091CD15F091CE15CE
:1036A000808111E0811110E0B701A6014819590984
:1036B0006A097B09212F8091CB159091CC150E942E
:1036C000530A0E947B11811105C00E94D10602C0DD
:1036D0000E947B110F90DF91CF911F91FF90EF908F
:1036E000DF90CF90BF90AF909F908F900895AF9252
:1036F000BF92CF92DF92EF92FF920F931F93CF93DF
:10370000DF93CDB7DEB728970FB6F894DEBF0FBEB4
:10371000CDBF82C0898188230CF47EC0AE80BF807B
:10372000D5011C968D919C911D97892B21F0C50187
:1037300002960E945506CE010896FEDE8B019C0182
:10374000E9810E2E000CFF0BEA30F10508F064C091
:103750008827EE58FF4F8F4F0C94A431F5018689CE
:103760008160868BCA80DB80EC80FD804685578532
:10377000608971894C0D5D1D6E1D7F1DC50183DD46
:10378000882309F449C0D5015496ED91FC915597D1
:10379000C5011995F501868982FF3EC04A815B818A
:1037A0006C817D8186859785A089B1899A01AB015D
:1037B000280F391F4A1F5B1FC12CD12C760100E056
:1037C00010E060E0C501F2DD27C0D50156968C916E
:1037D00056978E7F56968C931FC0F501868981601F
:1037E000868B4A815B816C817D8146875787608BA0
:1037F000718B400F511F621F731F68017901C50152
:1038000042DD0AC0F501868981FD04C0C5010E9420
:10381000C60502C08E7F868B20E030E0A901BE0184
:103820006F5F7F4F8091CB159091CC150E94C4099A
:10383000811170CF28960FB6F894DEBF0FBECDBFB2
:10384000DF91CF911F910F91FF90EF90DF90CF907C
:10385000BF90AF900895089584B1806884B985B110
:10386000806885B9089583B1806883B90895F4DFCD
:103870002FEF80E792E0215080409040E1F700C0B8
:103880000000F1DFF5CFE8DF2FEF87EA91E6215066
:1038900080409040E1F700C00000E5DFF5CFEF92F7
:1038A000FF920F93082F6CD281110CC01F921F92B0
:1038B00085E993E09F938F930E947D340F900F9042
:1038C0000F900F90E12CF12C20E030E040EC50E024
:1038D00069E973E082E99CE10E94B70F0F91FF90C4
:1038E000EF9008952091E9153091EA15ADECBCEC0C
:1038F0000E94AC3196958795969587959695879574
:1039000008958091E7159091E8156AE070E00E94B3
:103910006F31CB01089540E150E060E070E00C941D
:103920001C0408950E9441106093BC177093BD174A
:103930008093BE179093BF1748EA58E460E070E0A8
:103940008CEB97E10E94571233D28111F5CF62E3DD
:1039500070E080E090E00E94BC123FD28111ECCF79
:1039600061E070E080E090E00E94BC125CD2909335
:10397000EA158093E9157DD29093E8158093E715B9
:103980000E948901C8DFD8CF0F938091C217909110
:10399000C317892B89F481E00E947D099093C31796
:1039A0008093C217009741F000E020E030E0A901C9
:1039B00060E070E00E94D9080F91089580E00E94B5
:1039C0006028E2DF86E00E94672985E00E94FA0114
:1039D00083E020D784E00E940E0283E060DF9CD762
:1039E00041E060E070E08CE290E00E94B20B9093C6
:1039F000C1178093C017BC0181E065D382E07FD1FD
:103A00006091C0177091C11781E00E94130384EA8E
:103A100093E00E9490340E940310FFCF909302160F
:103A200080930116089590930616809305160895C5
:103A300090930416809303160895CF93DF93EC01BF
:103A400086EB93E09F938F930E947D3480910616BE
:103A50008F93809105168F9386ED93E09F938F93BC
:103A60000E947D34809104168F93809103168F936A
:103A700086EF93E09F938F930E947D34809102168E
:103A80008F93809101168F9384E194E09F938F939D
:103A90000E947D34EBEEF5E186E0818382E0808355
:103AA0008091051690910616928383838091031668
:103AB000909104169483858380910116909102164B
:103AC0009683878386E1DE0101900D928A95E1F766
:103AD0008DB79EB70E960FB6F8949EBF0FBE8DBFE2
:103AE000CE01DF91CF910895CF93DF9381E00E94C3
:103AF000B52937D3B3D59F938F9381E394E09F93F8
:103B00008F930E947D34ABD4A9D59F938F9384E487
:103B100094E09F938F930E947D348DE196E133D39F
:103B20009DD5CDE1D6E1DF93CF939F938F938DE524
:103B300094E09F938F930E947D34CE0140D38ED525
:103B40009F938F93DF93CF9381E794E09F938F931D
:103B50000E947D34AE0166E874E087EA94E05DD5AA
:103B60007DD59F938F93DF93CF9386E894E09F93C7
:103B70008F9387EA94E09F938F9388EB94E09F93D1
:103B80008F930E947D344ED369D59F938F938EEE91
:103B900094E09F938F930E947D348DB79EB7829659
:103BA0000FB6F8949EBF0FBE8DBF81E035D456D5B9
:103BB0009F938F938DEF94E09F938F930E947D341A
:103BC00084EF91E034D44AD59F938F9381E08F9313
:103BD00084EF8F938EE195E09F938F930E947D34C5
:103BE0008DB79EB70A960FB6F8949EBF0FBE8DBFD5
:103BF000CAE080E01DD3D82F31D59F938F931F92B9
:103C0000CF938EE395E09F938F930E947D340F9026
:103C10000F900F900F900F900F90D83059F080E0D8
:103C20000E94192A66E371E080E090E00E94BC12D5
:103C3000C150F9F6D83021F481E00E94FB2909C077
:103C400081E00E940A2A80E00E94D8290E94D106C1
:103C5000FDCFDF91CF910895CF93DF93CDB7DEB73E
:103C60006A970FB6F894DEBF0FBECDBF81E06BD26E
:103C700062E070E080E090E00E94BC1280E063D2DD
:103C800066E970E080E090E00E94BC1215D22CDF63
:103C90000E94411069837A838B839C8348EA58E4AD
:103CA00060E070E0CE0101960E9457128EE595E02B
:103CB0009F938F930E947D34CE010596BEDE86E1F0
:103CC000FE013596A7E0B6E101900D928A95E1F7E5
:103CD00083E00E942B2A67E076E180E0D2D2BED456
:103CE0009F938F938CE695E09F938F930E947D34F2
:103CF0000F900F900F900F900F900F90CFCFEF92EB
:103D0000FF920F93E12CF12C082F20E030E048E8DF
:103D100051E061E875E08CE29EE10E94B70F0F91DF
:103D2000FF90EF9008956530F1F4FA0180818F7370
:103D300090E0982F88272181822B90930A0280930C
:103D400009028281F0E48F9FC0011124FA012381CE
:103D500026952695822B909308028093070281E096
:103D6000809381160895643051F080E090E4909340
:103D700008028093070290930A0280930902089533
:103D80000F931F9303E91EE120E034E244EF50E07B
:103D900060E087E20E944E2A9093831680938216F9
:103DA00021E0892B09F020E0822F1F910F910895C7
:103DB0008091821690918316009759F040E060E060
:103DC00070E00E949F2A843031F41092811680E0C6
:103DD000089582E0089583E008958091821690917D
:103DE0008316009739F064E00E94EB2A853021F0B9
:103DF00083E0089582E0089580E0089560910902CB
:103E000070910A0280E090E00E94F52C20E030E002
:103E100048EC52E40E94832D20E038EF4FE756E44F
:103E20000C945C2C0895EADF20E030E040E251E49D
:103E30000E94832D0E94C92CCB0108956091070236
:103E40007091080280E090E00E94F52C20E030E0C4
:103E500045E253E40E94832D20E038EF4FE756E41B
:103E60000E945C2C20E030E040E252E40C94F72BFE
:103E70000895E4DF20E030E040E251E40E94832D29
:103E80000E94C42CCB0108950F931F93CF93DF930F
:103E90001F921F92CDB7DEB78C0119822DC0E09121
:103EA000BB16EC3250F481E08E0F8093BB16F0E02D
:103EB000E351F94E8A81808302C01092BB168A8139
:103EC0008A30D1F44091BB1650E0FA01E551F94E29
:103ED0001082415051099E012F5F3F4F6DEE76E1F8
:103EE0008091BE169091BF160E94D90C89818111D4
:103EF0000E94D1061092BB16BE016E5F7F4FC801B3
:103F000049D6882361F20F900F90DF91CF911F91D6
:103F10000F9108950F931F93CF93DF938C01EB01C3
:103F20008091BE169091BF160E94E40BB80184E800
:103F300096E10E941734209779F0E4E8F6E10190C9
:103F40000020E9F7319780E290E091838083BE0101
:103F500084E896E10E940C34E4E8F6E1DF010D907C
:103F60000020E9F711978DE09AE011969C938E93CB
:103F700012961C9201900020E9F73197E458F6411F
:103F8000AE2F84E896E1AC016A2F8091C016909123
:103F9000C116ABD5811111C008E215E020E030E078
:103FA0004DE250E067E477E18091BE169091BF1634
:103FB0000E941D0D87E497E102C080E090E0DF9150
:103FC000CF911F910F9108952F923F924F925F9240
:103FD0006F927F928F929F92AF92BF92CF92DF9219
:103FE000EF92FF920F931F93CF93DF935C01FC013D
:103FF00001900020E9F731976F01C81AD90A5C2CAB
:104000000F2EF1E28F2EF8E09F2EF02DE12CF12CF7
:104010004C2C3701F40101811281E8010990002044
:10402000E9F72197C01BD10B3C2EF9E0CF16D10444
:1040300058F0F4012080FEE02F1206C0B801C5013F
:104040000E94E733892B09F5442D351408F44C2FD1
:1040500050E0B801C5010E941E34892B49F4F301D8
:10406000EE0FFF1FE60DF71DEF5DF74F20800DC02F
:104070008FEFE81AF80AE3E08E0E911CF1E1EF16DB
:10408000F10439F66894222424F8822DDF91CF912F
:104090001F910F91FF90EF90DF90CF90BF90AF9066
:1040A0009F908F907F906F905F904F903F902F9058
:1040B000089530DF89CF08958091BE169091BF1684
:1040C0000C94E40B08958F929F92AF92CF92EF924F
:1040D0000F931F93CF93C82F8B0141E060E070E0F6
:1040E00088EC90E00E94B20B9093BF168093BE16AE
:1040F0001093BD160093BC160F2EF4E48F2EFFE133
:104100009F2EF02D6894AA24A6F86894CC24C6F8B3
:10411000E12C00E023E040E051EE60E070E08C2F05
:1041200017D49093C1168093C016E7E0F1E0808128
:1041300080618083CF911F910F91EF90CF90AF90CE
:104140009F908F900895882331F0E8E0F1E080811E
:104150008F7E80830895E8E0F1E080818061808334
:10416000089560E070E087EA95E0D4DEE7E4F7E1E7
:1041700001900020E9F73197E754F74181E0759706
:1041800008F080E00895CF93DF93EC0160E070E0E9
:1041900088EB95E0BFDEE7E4F7E101900020E9F766
:1041A000E855F74139F467E477E1CE010E9417340E
:1041B00080E002C0188281E0DF91CF910895FC0178
:1041C00001900020E9F79F01215131092817390793
:1041D00029F4BC0186EE95E06CCF089589E008953E
:1041E000FC0101900020E9F79F01215131092817B6
:1041F000390729F4BC0185EF95E05BCF089589E08C
:104200000895FC0101900020E9F79F012152310936
:104210002817390729F4BC0184E096E04ACF0895B5
:1042200089E0089560E070E083E496E042CF08956D
:104230000F931F93E82FF0E0EE0FFF1FE35EF74FA1
:10424000608171818CE496E034DF811114C008E252
:1042500015E020E030E04DE250E067E477E1809146
:10426000BE169091BF160E941D0D882321F087E491
:1042700097E1AADE03C087E497E1A6DE1F910F91C4
:1042800008950F931F93CF93DF931F92CDB7DEB79F
:10429000DB0111969C911197953108F0B4C09923D8
:1042A00081F160E070E0272F30E0462F50E0FD0103
:1042B000E40FF51F928192959F709A3010F0995CEF
:1042C00001C0905DF901E852F94E90832F5F3F4F96
:1042D000FD01E40FF51F92819F70492F50E04A3095
:1042E000510514F0995C01C0905DF901E852F94E56
:1042F00090837E5F6F5F11969C911197691798F27A
:1043000001C070E0E72FF0E0E852F94E10824C91C6
:10431000811103C085E596E002C087E596E028EDAF
:1043200036E13F932F931F924F939F938F938BE58B
:1043300096E09F938F938AE197E19F938F930E94DA
:10434000C03460E070E08AE197E1B3DE0FB6F89424
:10435000DEBF0FBECDBF811159C008E215E020E0DD
:1043600030E04DE250E067E477E18091BE16909135
:10437000BF160E941D0D882309F447C087E497E10A
:1043800023DE8E3009F042C087E089838091BC161D
:104390009091BD16892BA9F1BE016F5F7F4F87E415
:1043A00097E168D18093C216E981F0E0E95BF84EAD
:1043B000DF010D900020E9F71197AE1BBF0BAA2378
:1043C00091F0BB27CD0101979C0112F42F5F3F4F65
:1043D000359527952093C316AF014F5F5F4F64E17A
:1043E00084EC96E173D101E010E020E030E046E19A
:1043F00050E062EC76E18091BC169091BD160E946F
:10440000140C8EE003C084E101C080E00F90DF91C6
:10441000CF911F910F910895813019F06BE676E0EE
:1044200002C064E477E08FE696E043CE08959F9360
:104430008F9380EA96E09F938F938AE197E19F9311
:104440008F930E94C03460E070E08AE197E131DE32
:104450000F900F900F900F900F900F9008952F9244
:104460003F924F925F926F927F928F929F92AF9204
:10447000BF92CF92DF92EF92FF920F931F93CF9351
:10448000DF93CDB7DEB7A0970FB6F894DEBF0FBEAF
:10449000CDBF6DEC76E089ED96E03CDD95DD8111D8
:1044A000A3C080E2E2E2F2E0DE01119601900D92FB
:1044B0008A95E1F79E012F5F3F4F6901E12CF12CB6
:1044C0000F2EF5EEAF2EF6E0BF2EF02D0AE117E12C
:1044D0000F2EFEEF4F2EF6E05F2EF02D0F2EF5E1A2
:1044E0008F2EF7E09F2EF02D0F2EFFE26F2EF7E0BC
:1044F0007F2EF02D3E2C2F2CFF92EF92BF92AF9289
:104500001F930F930E94C03460E070E0C80102DD89
:104510005BDD0F900F900F900F900F900F90811117
:1045200063C032E03E15E8F4F60183818F93828107
:104530008F9381818F9380818F93FF92EF925F920F
:104540004F921F930F930E94C03460E070E0C80147
:10455000E1DC3ADD0FB6F894DEBF0FBECDBF8111AE
:1045600043C02F923F929F928F921F930F930E946E
:10457000C03460E070E0C801CDDC26DD0F900F9004
:104580000F900F900F900F9081112EC02F923F929D
:104590007F926F921F930F930E94C03460E070E08F
:1045A000C801B8DC11DD0F900F900F900F900F90A5
:1045B0000F90811119C03FEFE31AF30A84E0C80E8F
:1045C000D11C98E0E916F10409F094CF60E070E0A6
:1045D00087E497E09FDCF8DC811106C060E070E0C2
:1045E00088E597E097DCF0DCA0960FB6F894DEBF84
:1045F0000FBECDBFDF91CF911F910F91FF90EF9034
:10460000DF90CF90BF90AF909F908F907F906F90F2
:104610005F904F903F902F900895EF92FF920F93ED
:104620001F93CF93DF93EC018B017A0181E0F4DEDD
:1046300081110DC0CE01D4DD811109C0C801E1DDB9
:10464000811105C0C701BBDD811101C0EBDDDF9128
:10465000CF911F910F91FF90EF90089590E0FC0192
:10466000EE0FFF1F8E0F9F1FFC01EF5DF74F818143
:1046700092810895DC01009729F1FB012081FC0162
:1046800001900020E9F73197E81BF90B822F90E0A9
:10469000E817F907C8F080E008C0880F382F330FFB
:1046A000330F830F8053890F2F5FFD01E20FF11D40
:1046B000908130ED390F3A3010F49111EECFFB01BB
:1046C0002083089580E0089580E008950F931F935C
:1046D000CF93DF93DC01EA012097E1F1FA01019029
:1046E0000020E9F73197E41BF50B329710F532C043
:1046F0008D01040F151F30E0AE01420F531FFA0168
:104700009081913428F09753592F5295507F03C0D0
:10471000592F5295507F2C0F3D1FF90191819134F3
:1047200010F0975301C09053950FF80190838F5F5D
:1047300001C080E0282F220F482F50E0FE01019099
:104740000020E9F73197EC1BFD0B4E175F0710F4C3
:104750008613CECFDF91CF911F910F910895809155
:104760007717860F8093771790917A17913079F0A9
:1047700028F09230A9F0933019F108956F3F09F0B5
:1047800048C01092771781E080937A1708956638B1
:1047900009F03FC01092761782E080937A1708954F
:1047A000E091761781E08E0F80937617F0E0EC5859
:1047B000F84E6083823069F583E080937A1708951C
:1047C0009091761721E0290F20937617963009F5FE
:1047D00081110EC0E4E7F7E1808190E0982F8827EF
:1047E0002181820F911D90937C1780937B1704C0C9
:1047F00010927C1710927B1710927A17E09178171D
:10480000F0917917309729F080917B1790917C1760
:10481000199508958F929F92AF92CF92EF920F9336
:104820000F2EFFEA8F2EF3E29F2EF02D6894AA241C
:10483000A4F86894CC24C4F8E12C00E023E040E81C
:1048400055E260E070E084D090937E1780937D17EE
:104850000F91EF90CF90AF909F908F90089590938D
:104860007917809378170895CF93DF93CDB7DEB78C
:1048700029970FB6F894DEBF0FBECDBF89E0E2E402
:10488000F2E09E012F5F3F4FD90101900D928A9572
:10489000E1F710927C1710927B1780917D17909111
:1048A0007E17009731F0422F532F69E01ED180E030
:1048B00001C082E029960FB6F894DEBF0FBECDBFCF
:1048C000DF91CF91089520917B1730917C172115AE
:1048D000310529F4FC011182108281E00895FC0168
:1048E0003183208380E0089565360CF064E66C39EE
:1048F0000CF46CE996EF6902B00111246854744F0E
:10490000811105C070932901609328010895709367
:104910002B0160932A010895EAE0F1E0808188612B
:1049200080838FE39CE9909327018093260160E0C8
:1049300080E0DADF60E081E0D7DFE0E2F1E0808173
:10494000826A8083E1E2F1E080818A618083089558
:104950002F923F924F925F926F927F928F929F928F
:10496000AF92CF92EF92FF920F931F93CF93DF936B
:10497000CDB7DEB7F82E2A013B0188E090E00E9417
:10498000CF318C018F2D90E0FC01EE0FFF1FE1581D
:10499000F84E118300830115110509F469C0880FD1
:1049A000991FFC01E55FFD4F80819181D8018D93B6
:1049B0009C938C2D90E0880F991F880F991F0E945F
:1049C000CF311C0186E090E00E94CF317C014C2D5C
:1049D000B101F1D6F801F582E4828A2D90E0880FCA
:1049E000991F880F991F0E94CF311C0186E090E02B
:1049F0000E94CF317C014A2DB101DDD6D80113963A
:104A0000FC92EE92129717969C928E921697FFB692
:104A1000F894ED91FC9111973697808182608083A4
:104A20008D909C90C301B201E0D720E030E040E0DF
:104A300051E40E94832D9B01AC0160E074E284E7A5
:104A40009BE43AD720E030E040E85FE3D0D6A1D73E
:104A5000F40132976083D801ED91FC91119735975D
:104A600088E98083ED91FC91349786E08083FFBED6
:104A7000C801DF91CF911F910F91FF90EF90CF90E0
:104A8000AF909F908F907F906F905F904F903F90EE
:104A90002F900895CF93DF93DC01892B01F11296BB
:104AA000ED91FC911397938182812581981B92232C
:104AB00084819817B1F0838126952823C081D18104
:104AC000C20FD11D68838F5F958189238383ED9108
:104AD000FC91359780818062808380E003C081E013
:104AE00001C082E0DF91CF910895EF92FF920F9382
:104AF0001F93CF93DF937C01009709F441C0DC0141
:104B00001296ED91FC91139793818281981B858178
:104B100098238481891B8617A8F1662341F1842F8D
:104B2000952FDC016150462F50E04F5F5F4F480FDB
:104B3000591FE701EA81FB81938182812581981BBE
:104B400092238481981779F08C919381269529235B
:104B5000608171818B01020F111DE80188839F5FC5
:104B60008581982393831196A417B50711F7D70170
:104B7000ED91FC91359780818062808380E003C055
:104B800081E001C082E0DF91CF911F910F91FF90F2
:104B9000EF9008950097D1F0DC011496ED91FC910F
:104BA000159793818281981799F0928185818695D6
:104BB0008923A081B181A80FB11D8C91DB018C9359
:104BC0009F5F85819823928380E0089581E0089516
:104BD00083E008951F920F920FB60F9211240BB627
:104BE0000F922F933F934F935F936F937F938F9386
:104BF0009F93AF93BF93CF93DF93EF93FF93A091D6
:104C00007F17B0918017109711F16091C60014962C
:104C1000ED91FC911597938182812581981B9223B8
:104C20008481981761F0838126952823C081D181E2
:104C3000C20FD11D68838F5F958189238383169668
:104C4000ED91FC911797309711F0CD011995FF91D7
:104C5000EF91DF91CF91BF91AF919F918F917F9114
:104C60006F915F914F913F912F910F900BBE0F90DD
:104C70000FBE0F901F9018951F920F920FB60F92B4
:104C800011240BB60F922F938F939F93AF93BF93E3
:104C9000EF93FF93E0917F17F09180173097B9F071
:104CA0000280F381E02D938182819817B1F0928187
:104CB0008581282F26952923A081B181A20FB11DBE
:104CC0002C919F5F892382832093C6000BC0E1EC67
:104CD000F0E080818F7D808305C0E1ECF0E0808191
:104CE0008F7D8083FF91EF91BF91AF919F918F91C5
:104CF0002F910F900BBE0F900FBE0F901F90189525
:104D00001F920F920FB60F9211240BB60F922F9392
:104D10003F934F935F936F937F938F939F93AF9343
:104D2000BF93CF93DF93EF93FF93A0918117B0913F
:104D30008217109711F16091CE001496ED91FC91BD
:104D40001597938182812581981B922384819817DE
:104D500061F0838126952823C081D181C20FD11DA6
:104D600068838F5F9581892383831696ED91FC91EB
:104D70001797309711F0CD011995FF91EF91DF91C1
:104D8000CF91BF91AF919F918F917F916F915F91E3
:104D90004F913F912F910F900BBE0F900FBE0F9030
:104DA0001F9018951F920F920FB60F9211240BB6F9
:104DB0000F922F938F939F93AF93BF93EF93FF9394
:104DC000E0918117F09182173097B9F00280F3815A
:104DD000E02D938182819817B1F092818581282FEF
:104DE00026952923A081B181A20FB11D2C919F5F2F
:104DF000892382832093CE000BC0E9ECF0E0808110
:104E00008F7D808305C0E9ECF0E080818F7D808319
:104E1000FF91EF91BF91AF919F918F912F910F9043
:104E20000BBE0F900FBE0F901F9018951F920F9200
:104E30000FB60F9211240BB60F922F933F934F93FF
:104E40005F936F937F938F939F93AF93BF93CF9312
:104E5000DF93EF93FF93A0918317B091841710977E
:104E600011F16091D6001496ED91FC911597938104
:104E700082812581981B92238481981761F0838118
:104E800026952823C081D181C20FD11D68838F5FF1
:104E90009581892383831696ED91FC91179730971E
:104EA00011F0CD011995FF91EF91DF91CF91BF9155
:104EB000AF919F918F917F916F915F914F913F91B2
:104EC0002F910F900BBE0F900FBE0F901F90189553
:104ED0001F920F920FB60F9211240BB60F922F93C1
:104EE0008F939F93AF93BF93EF93FF93E0918317BB
:104EF000F09184173097B9F00280F381E02D93810F
:104F000082819817B1F092818581282F26952923D7
:104F1000A081B181A20FB11D2C919F5F8923828353
:104F20002093D6000BC0E1EDF0E080818F7D80837F
:104F300005C0E1EDF0E080818F7D8083FF91EF91EE
:104F4000BF91AF919F918F912F910F900BBE0F90BA
:104F50000FBE0F901F9018951F920F920FB60F92D1
:104F600011240BB60F922F933F934F935F936F9340
:104F70007F938F939F93AF93BF93CF93DF93EF93E1
:104F8000FF93A0918517B0918617109711F160914A
:104F900036011496ED91FC911597938182812581BC
:104FA000981B92238481981761F08381269528238A
:104FB000C081D181C20FD11D68838F5F9581892304
:104FC00083831696ED91FC911797309711F0CD01E0
:104FD0001995FF91EF91DF91CF91BF91AF919F9183
:104FE0008F917F916F915F914F913F912F910F9092
:104FF0000BBE0F900FBE0F901F9018951F920F922F
:105000000FB60F9211240BB60F922F938F939F938D
:10501000AF93BF93EF93FF93E0918517F0918617BD
:105020003097B9F00280F381E02D93818281981747
:10503000B1F092818581282F26952923A081B18105
:10504000A20FB11D2C919F5F89238283209336018B
:105050000BC0E1E3F1E080818F7D808305C0E1E357
:10506000F1E080818F7D8083FF91EF91BF91AF91BF
:105070009F918F912F910F900BBE0F900FBE0F90AD
:105080001F901895CF93DF931F92CDB7DEB7BE0167
:105090006F5F7F4F80918717909188177BDD81111B
:1050A000F6CF898190E00F90DF91CF910895682F1E
:1050B0008091871790918817EDDC80E090E008954B
:1050C0008F929F92AF92CF92EF920F93812C912C5F
:1050D0006894AA24A7F86894CC24C7F8E12C00E0CF
:1050E00023E040E051EE60E070E032DC90938817FE
:1050F00080938717E8ECF7E183E192E09183808366
:10510000938382830F91EF90CF90AF909F908F9079
:10511000089590E0FC01EE0FFF1FE80FF91FEE0F5E
:10512000FF1FE757F84E238121111FC09C01220F5A
:10513000331FF901E80FF91FEE0FFF1FE757F84E75
:10514000A081B1814C91F901E80FF91FEE0FFF1F0B
:10515000E757F84E81E090E0028002C0880F991F67
:105160000A94E2F7842B8C930895FC01EE0FFF1F45
:10517000DF01A80FB91FAA0FBB1FA757B84E0D908C
:10518000BC91A02D2C91E80FF91FEE0FFF1FE757E0
:10519000F84E81E090E0028002C0880F991F0A94C7
:1051A000E2F7809582238C93089590E0FC01EE0F46
:1051B000FF1FE80FF91FEE0FFF1FE757F84E23817F
:1051C000211120C09C01220F331FF901E80FF91FA4
:1051D000EE0FFF1FE757F84EA081B1814C91F90106
:1051E000E80FF91FEE0FFF1FE757F84E81E090E040
:1051F000028002C0880F991F0A94E2F780958423E9
:105200008C930895FC01EE0FFF1FDF01A80FB91F5B
:10521000AA0FBB1FA757B84E0D90BC91A02D2C9183
:10522000E80FF91FEE0FFF1FE757F84E81E090E0FF
:10523000028002C0880F991F0A94E2F7822B8C9398
:105240000895CC24C394D12C6894BB24B2F8C9E847
:10525000D7E110E08C81813081F018F1823061F566
:10526000E881F9812081C6010A8002C0880F991F58
:105270000A94E2F7822780831FC08D818F5F8A3076
:1052800010F48D8319C01D82E881F9812081C60147
:105290000A8002C0880F991F0A94E2F78227808350
:1052A0000BC00D81002329F0812F7FDF01500D837A
:1052B00003C0BC82812F2DDF1F5F2696143051F66C
:1052C00065E070E080E090E00E94BC12C0CFEF92F9
:1052D000FF920F931F93CF93DF93082F80E487B93A
:1052E000C9E8D7E10F2EF8E2EF2EF12CF02DF9826C
:1052F000E88286E08A831B8214E01C8380E009DF59
:1053000080E887B9FF82EE8287E0888719861A874E
:1053100081E0FFDE80E283BB84E390E09D878C87A1
:1053200085E08E871F86188B82E0F3DE80E1809314
:10533000010182E091E09B8B8A8B1C8B1D8A1E8B66
:1053400083E0E7DEE12CF12C20E030E040EC50E09F
:1053500064E578E081E299E20E94B70FDF91CF9196
:105360001F910F91FF90EF900895CF93DF9390E0FE
:10537000FC01EE0FFF1FDF01A80FB91FAA0FBB1F13
:10538000A757B84ECD91DC911197488121E030E0CC
:1053900012960C90129702C0220F331F0A94E2F764
:1053A00024272883FD0181E08483DF91CF91089534
:1053B000CF93DF9390E0FC01EE0FFF1FDF01A80FFA
:1053C000B91FAA0FBB1FA757B84ECD91DC911197FB
:1053D000488121E030E012960C90129702C0220F13
:1053E000331F0A94E2F724272883FD0182E0848397
:1053F000DF91CF910895282F30E0F901EE0FFF1FC4
:10540000E20FF31FEE0FFF1FE757F84E93E0948370
:10541000CCCE0895282F30E0F901EE0FFF1FE20FE8
:10542000F31FEE0FFF1FE757F84E94E0948371CE01
:10543000089590E0FC01EE0FFF1FDF01A80FB91FD8
:10544000AA0FBB1FA757B84E24E015962C931597AB
:10545000FD011482089590E0FC01EE0FFF1FDF01B3
:10546000A80FB91FAA0FBB1FA757B84E21E015966A
:105470002C931597FD01148208958091AF17811127
:105480000CC08CE08093B8008FEF8093BB0084E069
:105490008093BC0081E08093AF170895AF92BF92D4
:1054A000CF92DF92EF92FF920F931F93CF93DF93F0
:1054B000A82EB62E69017A0184E090E070D7EC0145
:1054C000892B61F1A88281E0B81212C0C701B60130
:1054D00020EA36E841E050E015D7DA01C9014097EB
:1054E000A109B109B695A79597958795898311C0AC
:1054F000C701B60120E83AE146E050E003D7DA01FF
:10550000C9014097A109B109B695A79597958795C7
:1055100089831B830A838C2F9D2F02C080E090E03B
:10552000DF91CF911F910F91FF90EF90DF90CF907F
:10553000BF90AF9008958091BC0081700895FF9254
:105540000F931F93CF93DF930097D1F14A30D0F59B
:10555000F42E8B01EC01EFDF811136C08091A21790
:105560009091A317C817D90741F087DF89818093ED
:10557000B800D093A317C093A21781E08F0D80933A
:10558000A4178881880F8093A517FF2089F0F80160
:10559000A6EAB7E14FEF4F0D642F70E0CB01019603
:1055A000B801680F791F81918D93E617F707D9F736
:1055B00088EF8093210285EA8093BC0084E005C0D7
:1055C00086E003C087E001C082E0DF91CF911F91A8
:1055D0000F91FF9008951F93CF93DF93009729F1C8
:1055E0006B3028F5162FEC01A6DF811122C08091C7
:1055F000A2179091A317C817D90741F03EDF898100
:105600008093B800D093A317C093A2171093A41748
:105610008881880F81608093A51788EF809321028D
:1056200085EA8093BC0085E005C086E003C087E082
:1056300001C082E0DF91CF911F9108951F920F92D8
:105640000FB60F9211240BB60F922F933F934F93E7
:105650005F936F937F938F939F93AF93BF93EF93DA
:10566000FF93E091B9008E2F90E0FC013897E1356F
:10567000F10508F075C08827E458FF4F8F4F64C6C6
:105680001092A117E091A1178091A417E81770F468
:1056900081E08E0F8093A117F0E0EB55F84E8081EA
:1056A0008093BB0085E88093BC0072C084E980933E
:1056B000BC008091A2179091A317DC011296ED9186
:1056C000FC911397309709F463C020E040E050E06C
:1056D00064E019955DC0E091A11781E08E0F809381
:1056E000A1178091BB00F0E0EB55F84E80838091CC
:1056F000B900803411F41092A1172091A11730E065
:105700008091A41790E001972817390724F485ECBD
:105710008093BC003DC085E88093BC0039C0809177
:10572000BB00E091A117F0E0EB55F84E808384E9CF
:105730008093BC008091A2179091A317DC01129670
:10574000ED91FC911397309719F12091A41745EA38
:1057500057E165E019951CC085EA8093BC0018C02C
:105760008091B9008093210284E08093BC008091F5
:10577000A2179091A317DC011296ED91FC9113975B
:10578000309731F020E040E050E06091210219951F
:10579000FF91EF91BF91AF919F918F917F916F9109
:1057A0005F914F913F912F910F900BBE0F900FBEC5
:1057B0000F901F901895FC01411101C011D7842F43
:1057C00090E09C012150310982239323892B09F019
:1057D00007D7413808F004D7128213824483440F5C
:1057E000415045837183608380E090E00895505874
:1057F000BB27AA270ED04DC13ED130F043D120F0B7
:1058000031F49F3F11F41EF433C10EF4E095E7FB31
:1058100029C1E92F4FD180F3BA17620773078407B4
:10582000950718F071F49EF567C10EF4E0950B2E04
:10583000BA2FA02D0B01B90190010C01CA01A001E2
:105840001124FF27591B99F0593F50F4503E68F13D
:105850001A16F040A22F232F342F4427585FF3CF7E
:10586000469537952795A795F0405395C9F77EF44F
:105870001F16BA0B620B730B840BBAF09150A1F098
:10588000FF0FBB1F661F771F881FC2F70EC0BA0F1E
:10589000621F731F841F48F4879577956795B795A6
:1058A000F7959E3F08F0B3CF9395880F08F099279E
:1058B000EE0F9795879508950CD0EBC0E3D040F09C
:1058C000DAD030F021F45F3F19F0CCC0511115C18E
:1058D000CFC0F0D098F39923C9F35523B1F3951BAA
:1058E000550BBB27AA2762177307840738F09F5F01
:1058F0005F4F220F331F441FAA1FA9F333D00E2E70
:105900003AF0E0E830D091505040E695001CCAF7DC
:1059100029D0FE2F27D0660F771F881FBB1F2617A1
:1059200037074807AB07B0E809F0BB0B802DBF0174
:10593000FF2793585F4F2AF09E3F510568F092C0B1
:10594000DCC05F3FECF3983EDCF386957795679576
:10595000B795F7959F5FC9F7880F911D9695879525
:1059600097F90895E1E0660F771F881FBB1F621744
:1059700073078407BA0720F0621B730B840BBA0B02
:10598000EE1F88F7E095089504D06894B111B5C072
:10599000089598D088F09F5790F0B92F9927B75164
:1059A000A0F0D1F0660F771F881F991F1AF0BA95E3
:1059B000C9F712C0B13081F09FD0B1E008959CC00A
:1059C000672F782F8827B85F39F0B93FCCF38695D9
:1059D00077956795B395D9F73EF490958095709536
:1059E00061957F4F8F4F9F4F0895E89409C097FBB3
:1059F0003EF490958095709561957F4F8F4F9F4FA6
:105A00009923A9F0F92F96E9BB279395F6958795E9
:105A100077956795B795F111F8CFFAF4BB0F11F4AC
:105A200060FF1BC06F5F7F4F8F4F9F4F16C0882353
:105A300011F096E911C0772321F09EE8872F762F89
:105A400005C0662371F096E8862F70E060E02AF0CA
:105A50009A95660F771F881FDAF7880F96958795B6
:105A600097F9089597F99F6780E870E060E00895DE
:105A70009FEF80EC089500240A9416161706180666
:105A80000906089500240A94121613061406050642
:105A90000895092E0394000C11F4882352F0BB0FD3
:105AA00040F4BF2B11F460FF04C06F5F7F4F8F4F36
:105AB0009F4F089557FD9058440F551F59F05F3F71
:105AC00071F04795880F97FB991F61F09F3F79F020
:105AD00087950895121613061406551FF2CF4695A2
